{
  "abi": [
    {
      "inputs": [
        {
          "internalType": "bytes32",
          "name": "uniqueChainIndex",
          "type": "bytes32"
        },
        {
          "internalType": "address",
          "name": "signer",
          "type": "address"
        }
      ],
      "stateMutability": "nonpayable",
      "type": "constructor"
    },
    {
      "inputs": [],
      "name": "AckGasPriceMustBeIncreased",
      "type": "error"
    },
    {
      "inputs": [],
      "name": "AckHasNotBeenExecuted",
      "type": "error"
    },
    {
      "inputs": [],
      "name": "DeliveryGasPriceMustBeIncreased",
      "type": "error"
    },
    {
      "inputs": [],
      "name": "InvalidBytes65Address",
      "type": "error"
    },
    {
      "inputs": [],
      "name": "InvalidImplementationAddress",
      "type": "error"
    },
    {
      "inputs": [
        {
          "internalType": "uint128",
          "name": "expected",
          "type": "uint128"
        },
        {
          "internalType": "uint128",
          "name": "actual",
          "type": "uint128"
        }
      ],
      "name": "InvalidTotalIncentive",
      "type": "error"
    },
    {
      "inputs": [],
      "name": "MessageAlreadyAcked",
      "type": "error"
    },
    {
      "inputs": [],
      "name": "MessageAlreadyBountied",
      "type": "error"
    },
    {
      "inputs": [],
      "name": "MessageAlreadySpent",
      "type": "error"
    },
    {
      "inputs": [],
      "name": "MessageDoesNotExist",
      "type": "error"
    },
    {
      "inputs": [],
      "name": "NoImplementationAddressSet",
      "type": "error"
    },
    {
      "inputs": [
        {
          "internalType": "uint128",
          "name": "expected",
          "type": "uint128"
        },
        {
          "internalType": "uint128",
          "name": "actual",
          "type": "uint128"
        }
      ],
      "name": "NotEnoughGasProvided",
      "type": "error"
    },
    {
      "inputs": [],
      "name": "NotImplementedError",
      "type": "error"
    },
    {
      "inputs": [
        {
          "internalType": "int128",
          "name": "difference",
          "type": "int128"
        }
      ],
      "name": "TargetExecutionTimeInvalid",
      "type": "error"
    },
    {
      "inputs": [
        {
          "internalType": "uint8",
          "name": "expected",
          "type": "uint8"
        },
        {
          "internalType": "uint8",
          "name": "actual",
          "type": "uint8"
        }
      ],
      "name": "feeRecipitentIncorrectFormatted",
      "type": "error"
    },
    {
      "anonymous": false,
      "inputs": [
        {
          "indexed": true,
          "internalType": "bytes32",
          "name": "uniqueIdentifier",
          "type": "bytes32"
        },
        {
          "indexed": false,
          "internalType": "uint64",
          "name": "gasSpentOnDestination",
          "type": "uint64"
        },
        {
          "indexed": false,
          "internalType": "uint64",
          "name": "gasSpentOnSource",
          "type": "uint64"
        },
        {
          "indexed": false,
          "internalType": "uint128",
          "name": "destinationRelayerReward",
          "type": "uint128"
        },
        {
          "indexed": false,
          "internalType": "uint128",
          "name": "sourceRelayerReward",
          "type": "uint128"
        }
      ],
      "name": "BountyClaimed",
      "type": "event"
    },
    {
      "anonymous": false,
      "inputs": [
        {
          "indexed": true,
          "internalType": "bytes32",
          "name": "messageIdentifier",
          "type": "bytes32"
        },
        {
          "indexed": false,
          "internalType": "uint96",
          "name": "deliveryGasPriceIncrease",
          "type": "uint96"
        },
        {
          "indexed": false,
          "internalType": "uint96",
          "name": "ackGasPriceIncrease",
          "type": "uint96"
        }
      ],
      "name": "BountyIncreased",
      "type": "event"
    },
    {
      "anonymous": false,
      "inputs": [
        {
          "indexed": true,
          "internalType": "bytes32",
          "name": "messageIdentifier",
          "type": "bytes32"
        },
        {
          "components": [
            {
              "internalType": "uint48",
              "name": "maxGasDelivery",
              "type": "uint48"
            },
            {
              "internalType": "uint48",
              "name": "maxGasAck",
              "type": "uint48"
            },
            {
              "internalType": "address",
              "name": "refundGasTo",
              "type": "address"
            },
            {
              "internalType": "uint96",
              "name": "priceOfDeliveryGas",
              "type": "uint96"
            },
            {
              "internalType": "uint96",
              "name": "priceOfAckGas",
              "type": "uint96"
            },
            {
              "internalType": "uint64",
              "name": "targetDelta",
              "type": "uint64"
            }
          ],
          "indexed": false,
          "internalType": "struct IMessageEscrowStructs.IncentiveDescription",
          "name": "incentive",
          "type": "tuple"
        }
      ],
      "name": "BountyPlaced",
      "type": "event"
    },
    {
      "anonymous": false,
      "inputs": [
        {
          "indexed": false,
          "internalType": "bytes32",
          "name": "destinationIdentifier",
          "type": "bytes32"
        },
        {
          "indexed": false,
          "internalType": "bytes",
          "name": "recipitent",
          "type": "bytes"
        },
        {
          "indexed": false,
          "internalType": "bytes",
          "name": "message",
          "type": "bytes"
        }
      ],
      "name": "Message",
      "type": "event"
    },
    {
      "anonymous": false,
      "inputs": [
        {
          "indexed": false,
          "internalType": "bytes32",
          "name": "messageIdentifier",
          "type": "bytes32"
        }
      ],
      "name": "MessageAcked",
      "type": "event"
    },
    {
      "anonymous": false,
      "inputs": [
        {
          "indexed": true,
          "internalType": "bytes32",
          "name": "messageIdentifier",
          "type": "bytes32"
        }
      ],
      "name": "MessageDelivered",
      "type": "event"
    },
    {
      "anonymous": false,
      "inputs": [
        {
          "indexed": true,
          "internalType": "address",
          "name": "previousOwner",
          "type": "address"
        },
        {
          "indexed": true,
          "internalType": "address",
          "name": "newOwner",
          "type": "address"
        }
      ],
      "name": "OwnershipTransferStarted",
      "type": "event"
    },
    {
      "anonymous": false,
      "inputs": [
        {
          "indexed": true,
          "internalType": "address",
          "name": "previousOwner",
          "type": "address"
        },
        {
          "indexed": true,
          "internalType": "address",
          "name": "newOwner",
          "type": "address"
        }
      ],
      "name": "OwnershipTransferred",
      "type": "event"
    },
    {
      "anonymous": false,
      "inputs": [
        {
          "indexed": false,
          "internalType": "address",
          "name": "application",
          "type": "address"
        },
        {
          "indexed": false,
          "internalType": "bytes32",
          "name": "chainIdentifier",
          "type": "bytes32"
        },
        {
          "indexed": false,
          "internalType": "bytes32",
          "name": "implementationAddressHash",
          "type": "bytes32"
        },
        {
          "indexed": false,
          "internalType": "bytes",
          "name": "implementationAddress",
          "type": "bytes"
        }
      ],
      "name": "RemoteEscrowSet",
      "type": "event"
    },
    {
      "inputs": [],
      "name": "MESSAGE_REVERTED",
      "outputs": [
        {
          "internalType": "bytes1",
          "name": "",
          "type": "bytes1"
        }
      ],
      "stateMutability": "view",
      "type": "function"
    },
    {
      "inputs": [],
      "name": "NO_AUTHENTICATION",
      "outputs": [
        {
          "internalType": "bytes1",
          "name": "",
          "type": "bytes1"
        }
      ],
      "stateMutability": "view",
      "type": "function"
    },
    {
      "inputs": [],
      "name": "SEND_LOST_GAS_TO",
      "outputs": [
        {
          "internalType": "address",
          "name": "",
          "type": "address"
        }
      ],
      "stateMutability": "view",
      "type": "function"
    },
    {
      "inputs": [],
      "name": "UNIQUE_SOURCE_IDENTIFIER",
      "outputs": [
        {
          "internalType": "bytes32",
          "name": "",
          "type": "bytes32"
        }
      ],
      "stateMutability": "view",
      "type": "function"
    },
    {
      "inputs": [],
      "name": "acceptOwnership",
      "outputs": [],
      "stateMutability": "nonpayable",
      "type": "function"
    },
    {
      "inputs": [
        {
          "internalType": "bytes32",
          "name": "messageIdentifier",
          "type": "bytes32"
        }
      ],
      "name": "bounty",
      "outputs": [
        {
          "components": [
            {
              "internalType": "uint48",
              "name": "maxGasDelivery",
              "type": "uint48"
            },
            {
              "internalType": "uint48",
              "name": "maxGasAck",
              "type": "uint48"
            },
            {
              "internalType": "address",
              "name": "refundGasTo",
              "type": "address"
            },
            {
              "internalType": "uint96",
              "name": "priceOfDeliveryGas",
              "type": "uint96"
            },
            {
              "internalType": "uint96",
              "name": "priceOfAckGas",
              "type": "uint96"
            },
            {
              "internalType": "uint64",
              "name": "targetDelta",
              "type": "uint64"
            }
          ],
          "internalType": "struct IMessageEscrowStructs.IncentiveDescription",
          "name": "incentive",
          "type": "tuple"
        }
      ],
      "stateMutability": "view",
      "type": "function"
    },
    {
      "inputs": [
        {
          "internalType": "address",
          "name": "evmAddress",
          "type": "address"
        }
      ],
      "name": "convertEVMTo65",
      "outputs": [
        {
          "internalType": "bytes",
          "name": "",
          "type": "bytes"
        }
      ],
      "stateMutability": "pure",
      "type": "function"
    },
    {
      "inputs": [
        {
          "internalType": "bytes32",
          "name": "destinationIdentifier",
          "type": "bytes32"
        },
        {
          "internalType": "bytes",
          "name": "destinationAddress",
          "type": "bytes"
        },
        {
          "internalType": "bytes",
          "name": "message",
          "type": "bytes"
        },
        {
          "components": [
            {
              "internalType": "uint48",
              "name": "maxGasDelivery",
              "type": "uint48"
            },
            {
              "internalType": "uint48",
              "name": "maxGasAck",
              "type": "uint48"
            },
            {
              "internalType": "address",
              "name": "refundGasTo",
              "type": "address"
            },
            {
              "internalType": "uint96",
              "name": "priceOfDeliveryGas",
              "type": "uint96"
            },
            {
              "internalType": "uint96",
              "name": "priceOfAckGas",
              "type": "uint96"
            },
            {
              "internalType": "uint64",
              "name": "targetDelta",
              "type": "uint64"
            }
          ],
          "internalType": "struct IMessageEscrowStructs.IncentiveDescription",
          "name": "incentive",
          "type": "tuple"
        }
      ],
      "name": "escrowMessage",
      "outputs": [
        {
          "internalType": "uint256",
          "name": "gasRefund",
          "type": "uint256"
        },
        {
          "internalType": "bytes32",
          "name": "messageIdentifier",
          "type": "bytes32"
        }
      ],
      "stateMutability": "payable",
      "type": "function"
    },
    {
      "inputs": [
        {
          "internalType": "address",
          "name": "",
          "type": "address"
        },
        {
          "internalType": "bytes32",
          "name": "",
          "type": "bytes32"
        }
      ],
      "name": "implementationAddress",
      "outputs": [
        {
          "internalType": "bytes",
          "name": "",
          "type": "bytes"
        }
      ],
      "stateMutability": "view",
      "type": "function"
    },
    {
      "inputs": [
        {
          "internalType": "address",
          "name": "",
          "type": "address"
        },
        {
          "internalType": "bytes32",
          "name": "",
          "type": "bytes32"
        }
      ],
      "name": "implementationAddressHash",
      "outputs": [
        {
          "internalType": "bytes32",
          "name": "",
          "type": "bytes32"
        }
      ],
      "stateMutability": "view",
      "type": "function"
    },
    {
      "inputs": [
        {
          "internalType": "bytes32",
          "name": "messageIdentifier",
          "type": "bytes32"
        },
        {
          "internalType": "uint96",
          "name": "deliveryGasPriceIncrease",
          "type": "uint96"
        },
        {
          "internalType": "uint96",
          "name": "ackGasPriceIncrease",
          "type": "uint96"
        }
      ],
      "name": "increaseBounty",
      "outputs": [],
      "stateMutability": "payable",
      "type": "function"
    },
    {
      "inputs": [],
      "name": "owner",
      "outputs": [
        {
          "internalType": "address",
          "name": "",
          "type": "address"
        }
      ],
      "stateMutability": "view",
      "type": "function"
    },
    {
      "inputs": [],
      "name": "pendingOwner",
      "outputs": [
        {
          "internalType": "address",
          "name": "",
          "type": "address"
        }
      ],
      "stateMutability": "view",
      "type": "function"
    },
    {
      "inputs": [
        {
          "internalType": "bytes",
          "name": "messagingProtocolContext",
          "type": "bytes"
        },
        {
          "internalType": "bytes",
          "name": "rawMessage",
          "type": "bytes"
        },
        {
          "internalType": "bytes32",
          "name": "feeRecipitent",
          "type": "bytes32"
        }
      ],
      "name": "processMessage",
      "outputs": [],
      "stateMutability": "nonpayable",
      "type": "function"
    },
    {
      "inputs": [
        {
          "internalType": "bytes",
          "name": "messagingProtocolContext",
          "type": "bytes"
        },
        {
          "internalType": "bytes",
          "name": "rawMessage",
          "type": "bytes"
        }
      ],
      "name": "recoverAck",
      "outputs": [],
      "stateMutability": "nonpayable",
      "type": "function"
    },
    {
      "inputs": [],
      "name": "renounceOwnership",
      "outputs": [],
      "stateMutability": "nonpayable",
      "type": "function"
    },
    {
      "inputs": [
        {
          "internalType": "bytes32",
          "name": "chainIdentifier",
          "type": "bytes32"
        },
        {
          "internalType": "bytes",
          "name": "implementation",
          "type": "bytes"
        }
      ],
      "name": "setRemoteEscrowImplementation",
      "outputs": [],
      "stateMutability": "nonpayable",
      "type": "function"
    },
    {
      "inputs": [
        {
          "internalType": "bytes32",
          "name": "messageIdentifier",
          "type": "bytes32"
        }
      ],
      "name": "spentMessageIdentifier",
      "outputs": [
        {
          "internalType": "bool",
          "name": "hasMessageBeenExecuted",
          "type": "bool"
        }
      ],
      "stateMutability": "view",
      "type": "function"
    },
    {
      "inputs": [],
      "name": "thisBytes65",
      "outputs": [
        {
          "internalType": "bytes",
          "name": "",
          "type": "bytes"
        }
      ],
      "stateMutability": "view",
      "type": "function"
    },
    {
      "inputs": [
        {
          "internalType": "address",
          "name": "newOwner",
          "type": "address"
        }
      ],
      "name": "transferOwnership",
      "outputs": [],
      "stateMutability": "nonpayable",
      "type": "function"
    }
  ],
  "bytecode": {
    "object": "0x60a034620000a157601f620027a938819003918201601f19168301916001600160401b03831184841017620000a6578084926040948552833981010312620000a15780516020909101516001600160a01b0381168103620000a15762000073916200006a33620000bc565b608052620000bc565b6040516126989081620001118239608051818181610d000152818161180c015281816123ba015261250e0152f35b600080fd5b634e487b7160e01b600052604160045260246000fd5b600580546001600160a01b0319908116909155600480549182166001600160a01b0393841690811790915591167f8be0079c531659141344cd1fd0a4f28419497f9722a3daafe3b4186f6b6457e0600080a356fe60406080815260048036101561001457600080fd5b600091823560e01c90816308656b8714610edb5781632439909c14610de2578163282696f414610d235781633ccb217e14610ce85781634487b9fc14610afa5781634993ef3314610aaa57838263715018a614610a1e5750816379ba50971461090a5781638da5cb5b146108d25781638dedc179146108b757816398653ea214610644578163a00d079814610609578163a28a469d146105ce578163daf1e16714610564578163dd6487fc14610517578163dfe1aef914610236578163e30c397814610201578163ea901f1a146101c3578163ef44262d14610191575063f2fde38b1461010057600080fd5b3461018d57602060031936011261018d5761011961141d565b6101216125e3565b73ffffffffffffffffffffffffffffffffffffffff80911691827fffffffffffffffffffffffff0000000000000000000000000000000000000000600554161760055554167f38d16b8cac22d99fc7c124b9cd0de2d3fa1faef420bfe791d8c362d765e227008380a380f35b5080fd5b919050346101bf5760206003193601126101bf578160209360ff923581526001855220541690519015158152f35b8280fd5b83903461018d57602060031936011261018d576101fd906101ea6101e561141d565b61258a565b9051918291602083526020830190611621565b0390f35b83903461018d578160031936011261018d5760209073ffffffffffffffffffffffffffffffffffffffff600554169051908152f35b9050346101bf57806003193601126101bf5767ffffffffffffffff82358181116105135761026790369085016113ea565b6024359183831161050f5761028261028a93369088016113ea565b92909161231e565b9196938295939195156104e35785357fff00000000000000000000000000000000000000000000000000000000000000167f0100000000000000000000000000000000000000000000000000000000000000036104bb57826021116104b757600186013597888a5289602052878a205460601c61048f578360621161048b57610332604e88013560601c93338c526003602052898c20848d52602052898c205492369161169e565b602081519101200361046357908291899360901161045f57813b1561045f57836090936103b48b997fffffffffffffffffffffffffffffffffffffffffffffffffffffffffffffff70948c519b8c98899788967fcd8fdab7000000000000000000000000000000000000000000000000000000008852019301918c8601611cd0565b03925af18015610455576103f3575b5050507f5fcd5f66d6457aa3cf0795a327c967a1265dc6d6076b092843314cbfd6a5c8309160209151908152a180f35b829593951161042957508352918160207f5fcd5f66d6457aa3cf0795a327c967a1265dc6d6076b092843314cbfd6a5c8306103c3565b8260416024927f4e487b7100000000000000000000000000000000000000000000000000000000835252fd5b84513d88823e3d90fd5b8380fd5b8487517fc970156c000000000000000000000000000000000000000000000000000000008152fd5b8980fd5b8588517f3d1553f8000000000000000000000000000000000000000000000000000000008152fd5b8880fd5b8487517fd41c17e7000000000000000000000000000000000000000000000000000000008152fd5b6024896032877f4e487b7100000000000000000000000000000000000000000000000000000000835252fd5b8680fd5b8480fd5b83903461018d578060031936011261018d578060209273ffffffffffffffffffffffffffffffffffffffff61054a61141d565b168152600384528181206024358252845220549051908152f35b83903461018d578160031936011261018d5790816101fd9251917f140000000000000000000000000000000000000000000000000000000000000060208401526021830152306041830152604182526105bc826114de565b51918291602083526020830190611621565b83903461018d578160031936011261018d57602090517fff000000000000000000000000000000000000000000000000000000000000008152f35b83903461018d578160031936011261018d57602090517ffe000000000000000000000000000000000000000000000000000000000000008152f35b83833461018d578260031936011261018d5780359067ffffffffffffffff6024358181116105135761067990369084016113ea565b95909133865260209360028552828720868852855282872091881161088b57506106a38154611440565b601f8111610848575b5085601f881160011461078357918791879861077295947f5431168950aa9f2e533a742b2e25ff98c2c36efb782f8d540081faf975ce11909991610778575b508360011b907fffffffffffffffffffffffffffffffffffffffffffffffffffffffffffffffff8560031b1c19161790555b61072836838561169e565b85815191012033895260038652818920878a5286528189205561074c36838561169e565b8581519101209080519687963388528701528501526080606085015260808401916116d5565b0390a180f35b90508401358a6106eb565b818752848720907fffffffffffffffffffffffffffffffffffffffffffffffffffffffffffffffe08916885b8181106108315750918993917f5431168950aa9f2e533a742b2e25ff98c2c36efb782f8d540081faf975ce1190999a610772979694106107f9575b5050600183811b01905561071d565b7fffffffffffffffffffffffffffffffffffffffffffffffffffffffffffffffff60f88660031b161c199086013516905589806107ea565b91928760018192868a0135815501940192016107af565b818752848720601f890160051c810191868a10610881575b601f0160051c01905b81811061087657506106ac565b878155600101610869565b9091508190610860565b8660416024927f4e487b7100000000000000000000000000000000000000000000000000000000835252fd5b83903461018d578160031936011261018d5751908152602090f35b905082346109075780600319360112610907575073ffffffffffffffffffffffffffffffffffffffff60209254169051908152f35b80fd5b9050346101bf57826003193601126101bf576005549173ffffffffffffffffffffffffffffffffffffffff91338385160361099b57507fffffffffffffffffffffffff0000000000000000000000000000000000000000809316600555805492339084161790553391167f8be0079c531659141344cd1fd0a4f28419497f9722a3daafe3b4186f6b6457e08380a380f35b90602060849251917f08c379a0000000000000000000000000000000000000000000000000000000008352820152602960248201527f4f776e61626c6532537465703a2063616c6c6572206973206e6f74207468652060448201527f6e6577206f776e657200000000000000000000000000000000000000000000006064820152fd5b808434610aa75781600319360112610aa75773ffffffffffffffffffffffffffffffffffffffff90610a4e6125e3565b7fffffffffffffffffffffffff000000000000000000000000000000000000000090816005541660055580549182169055167f8be0079c531659141344cd1fd0a4f28419497f9722a3daafe3b4186f6b6457e08280a380f35b50fd5b83903461018d578060031936011261018d576101ea816101fd9373ffffffffffffffffffffffffffffffffffffffff610ae161141d565b168152600260205281812060243582526020522061153b565b905060606003193601126101bf578135916bffffffffffffffffffffffff602435818116929183820361050f5760443590808216938483036104b757878952886020528689205460601c15610cc1578789528860205286892090610b84825484610b7d8765ffffffffffff83610b728c838816611714565b169460301c16611714565b1690611766565b906fffffffffffffffffffffffffffffffff908183163403610c6b57505050610c5d927f0f9ca48bcb4f4aea18e50df9f1df3c02df5c9c48f05e389a349c8ceb242da58197969594926001610c159301937fffffffffffffffffffffffffffffffffffffffff00000000000000000000000082610c0587549382851661178a565b1691161780855560601c1661178a565b7fffffffffffffffff000000000000000000000000ffffffffffffffffffffffff77ffffffffffffffffffffffff00000000000000000000000083549260601b169116179055565b82519182526020820152a280f35b89517f030748b50000000000000000000000000000000000000000000000000000000081526fffffffffffffffffffffffffffffffff938416918101918252349092169290921660208301529081906040010390fd5b86517f970e41ec000000000000000000000000000000000000000000000000000000008152fd5b83903461018d578160031936011261018d57602090517f00000000000000000000000000000000000000000000000000000000000000008152f35b9050826101206003193601126109075767ffffffffffffffff9060243582811161018d57610d5490369086016113ea565b90926044359081116101bf57610d6d90369087016113ea565b93909260c07fffffffffffffffffffffffffffffffffffffffffffffffffffffffffffffff9c360112610907575060418203610dba57610dae9495356117aa565b82519182526020820152f35b8585517fbbcd8eb1000000000000000000000000000000000000000000000000000000008152fd5b919050346101bf5760206003193601126101bf57818367ffffffffffffffff9260c09560a08451610e1281611493565b828152826020820152828682015282606082015282608082015201523581528060205220918051610e4281611493565b83549065ffffffffffff8083169586835260016020840191838660301c1683528685019560601c865201549473ffffffffffffffffffffffffffffffffffffffff6bffffffffffffffffffffffff9586946060870194868a16865260a06080890198888c60601c168a5201998d1c8a5284519b8c52511660208b01525116908801525116606086015251166080840152511660a0820152f35b8391503461018d57606060031936011261018d5767ffffffffffffffff833581811161045f57610f0e90369086016113ea565b6024358381116113e65790610f29610f3192369089016113ea565b915a9461231e565b9396929591949084156113ba5780357fff0000000000000000000000000000000000000000000000000000000000000016806113505750846021116104b757600181013594858a526020936001855260ff868c20541661132857868b5260018552858b2060017fffffffffffffffffffffffffffffffffffffffffffffffffffffffffffffff008254161790558160a911611324578160a31161132457608f83013560601c8260621161132057958392918c898f8e908d9b8f6021889d9c9b019d8e918d848952600390528d8a892090878a5252898820549136906110159261169e565b8051908e0120146111c55750505050505050906110627fffffffffffffffffffffffffffffffffffffffffffffffffffffffffffffff579360a961108e9451958694019101878401611c9b565b037fffffffffffffffffffffffffffffffffffffffffffffffffffffffffffffffe081018352826114fa565b925b5a820391821161119957611196999a5093604198979593611155611165947fffffffffffff000000000000000000000000000000000000000000000000000060b0956111909b99519d8e967f0100000000000000000000000000000000000000000000000000000000000000858901528a602189015281880137604435608287015260d01b1660a28501527fffffffffffffffff0000000000000000000000000000000000000000000000004260c01b1660a8850152825192839186860191016115fe565b81010360908101895201876114fa565b7ffa39010b12e169f2d7e9a76e381216416dbf5eb59db117ae979592ee9f3238858880a2369161169e565b906124dd565b80f35b60248a60118d7f4e487b7100000000000000000000000000000000000000000000000000000000835252fd5b948992918197989a9660a9839798019a7fffffffffffffffffffffffffffffffffffffffffffffffffffffffffffffff57019b5197889687957fd00689b600000000000000000000000000000000000000000000000000000000875286015260248501526044840160809052608484016041905260a48401906041913760e5830182905261010060648401528261126161010482018d8d6116d5565b039360a3013560d01cf19192826112a6575b505061129d575061129790611286611c6b565b506110628651938492878401611c9b565b92611090565b91505092611090565b919250903d808f843e6112b981846114fa565b8201918781840312611318578051918211611318570181601f8201121561131c578051906112e682611664565b926112f38a5194856114fa565b8284528883830101116113185790611310918880850191016115fe565b908e80611273565b8e80fd5b8d80fd5b8b80fd5b8a80fd5b8b86517fe954aba2000000000000000000000000000000000000000000000000000000008152fd5b7f010000000000000000000000000000000000000000000000000000000000000091959694929897935014600014611392575061119696975060443594611d28565b8890517fd41c17e7000000000000000000000000000000000000000000000000000000008152fd5b60248960328c7f4e487b7100000000000000000000000000000000000000000000000000000000835252fd5b8580fd5b9181601f840112156114185782359167ffffffffffffffff8311611418576020838186019501011161141857565b600080fd5b6004359073ffffffffffffffffffffffffffffffffffffffff8216820361141857565b90600182811c92168015611489575b602083101461145a57565b7f4e487b7100000000000000000000000000000000000000000000000000000000600052602260045260246000fd5b91607f169161144f565b60c0810190811067ffffffffffffffff8211176114af57604052565b7f4e487b7100000000000000000000000000000000000000000000000000000000600052604160045260246000fd5b6080810190811067ffffffffffffffff8211176114af57604052565b90601f7fffffffffffffffffffffffffffffffffffffffffffffffffffffffffffffffe0910116810190811067ffffffffffffffff8211176114af57604052565b9060405191826000825461154e81611440565b9081845260209460019182811690816000146115bd575060011461157e575b50505061157c925003836114fa565b565b600090815285812095935091905b8183106115a557505061157c935082010138808061156d565b8554888401850152948501948794509183019161158c565b91505061157c9593507fffffffffffffffffffffffffffffffffffffffffffffffffffffffffffffff0091501682840152151560051b82010138808061156d565b60005b8381106116115750506000910152565b8181015183820152602001611601565b907fffffffffffffffffffffffffffffffffffffffffffffffffffffffffffffffe0601f60209361165d815180928187528780880191016115fe565b0116010190565b67ffffffffffffffff81116114af57601f017fffffffffffffffffffffffffffffffffffffffffffffffffffffffffffffffe01660200190565b9291926116aa82611664565b916116b860405193846114fa565b829481845281830111611418578281602093846000960137010152565b601f82602094937fffffffffffffffffffffffffffffffffffffffffffffffffffffffffffffffe0938186528686013760008582860101520116010190565b9190916bffffffffffffffffffffffff8080941691160291821691820361173757565b7f4e487b7100000000000000000000000000000000000000000000000000000000600052601160045260246000fd5b9190916fffffffffffffffffffffffffffffffff8080941691160191821161173757565b9190916bffffffffffffffffffffffff8080941691160191821161173757565b9091949392943360005260026020526040600020826000526020526117d2604060002061153b565b7fc5d2460186f7233c927e7db2dcc703c0e500b653ca82273b7bfad8045d85a4708151602083012014611c415760405160208101904382527f000000000000000000000000000000000000000000000000000000000000000060408201528460608201528689608083013761185a6080828981016000838201520360608101845201826114fa565b5190209687600052600060205260406000205460601c611c175765ffffffffffff8060643516606435036114185760c435966bffffffffffffffffffffffff90818916890361141857816118b28a8560643516611714565b16836084351660843503611418578260e4351660e43503611418576118e29083610b7d60e4358760843516611714565b986fffffffffffffffffffffffffffffffff98898b163410611bca578c600052600060205260406000209273ffffffffffffffffffffffffffffffffffffffff60a4351660a435036114185760843560301b6bffffffffffff0000000000001660643587161760a435606090811b7fffffffffffffffffffffffffffffffffffffffff000000000000000000000000169190911785556001850180547fffffffffffffffff000000000000000000000000ffffffffffffffffffffffff868916167fffffffffffffffff0000000000000000000000000000000000000000000000009091161760e43590921b77ffffffffffffffffffffffff0000000000000000000000001691909117905567ffffffffffffffff61010435166101043503611418576001909301805477ffffffffffffffffffffffffffffffffffffffffffffffff167fffffffffffffffff0000000000000000000000000000000000000000000000006101043560c01b161790558c95849390818a611a623361258a565b946040519c8d9660208801600090528c60218901528051908160418a019160200191611a8d926115fe565b8701916041830137019160643560d01b7fffffffffffff0000000000000000000000000000000000000000000000000000166041840152604783013701604781016000905203602781018852604701611ae690886114fa565b604051938060643516855260843516602085015260a43573ffffffffffffffffffffffffffffffffffffffff16604085015216606083015260e4351660808201526101043567ffffffffffffffff1660a082015260c07f3156fe274a54f863eef7980d94abe2e7a9f1b61b73455777a26dd69a8cda0ff991a2611b68926124dd565b8082163411611b7957505060009190565b163481810391829160009114611bc1575b6000808093819373ffffffffffffffffffffffffffffffffffffffff60a4351690f115611bb5579190565b6040513d6000823e3d90fd5b506108fc611b8a565b6040517f030748b50000000000000000000000000000000000000000000000000000000081526fffffffffffffffffffffffffffffffff8c81166004830152348c16166024820152604490fd5b60046040517f068a62ee000000000000000000000000000000000000000000000000000000008152fd5b60046040517f9f994b4b000000000000000000000000000000000000000000000000000000008152fd5b3d15611c96573d90611c7c82611664565b91611c8a60405193846114fa565b82523d6000602084013e565b606090565b82600193927fff0000000000000000000000000000000000000000000000000000000000000083528483013701016000815290565b611cec94926060928252602082015281604082015201916116d5565b90565b8115611cf9570490565b7f4e487b7100000000000000000000000000000000000000000000000000000000600052601260045260246000fd5b959193949095856021116114185760018401356000526000602052604060002090815495600165ffffffffffff930154988760601c156122f45760018701356000526000602052600060016040822082815501558860621161141857611db290604e88013560601c600052600360205260406000208460005260205260406000205492369161169e565b60208151910120036122ca578660901161141857600087611062611e3683946040519283918b7fffffffffffffffffffffffffffffffffffffffffffffffffffffffffffffff7060208501977fcd8fdab700000000000000000000000000000000000000000000000000000000895201916001609083019201359060248601611cd0565b519082604e89013560601c868b60301c16f150611e51611c6b565b508560881161141857608284013560d01c948582821611156122c0575b6bffffffffffffffffffffffff88168602935a90039687838360301c1611156122b2575b6bffffffffffffffffffffffff8960601c16880291828601936bffffffffffffffffffffffff80808d60601c16838560301c16021691818d1690841602160190600080808088860380968a83911496876122a8575b60601c90f115612282575b50506082116114185773ffffffffffffffffffffffffffffffffffffffff806062870135169316978884146121c9578060c01c156120b35767ffffffffffffffff949160c082811c608889013590911c4288160387160390836000831361207f5750611f659260c01c9160000302611cef565b0180925b600080808085819581159687612076575bf115612050575b50600080838194938294039a8b9187849114612047575bf115611bb5577fc08b8c0490a3f9a25a2b283d5c72f7238b3d49342a51ee0b478940ec9fcbe23394600194612042937f5fcd5f66d6457aa3cf0795a327c967a1265dc6d6076b092843314cbfd6a5c8306020604051898901358152a16040805167ffffffffffffffff93831684168152939091169190911660208301526fffffffffffffffffffffffffffffffff9283169082015295166060860152910135929081906080820190565b0390a2565b506108fc611f98565b60009061206d575b6000808093818094f115611bb5578138611f81565b506108fc612058565b506108fc611f7a565b9190508260c01c81106000146120a65761209d9260c01c9102611cef565b90038092611f69565b5050505060008092611f69565b50969050828792600080808085819c9b999c95811596876121c0575bf115612194575b50506000808093819382821561218b575bf115611bb5577fc08b8c0490a3f9a25a2b283d5c72f7238b3d49342a51ee0b478940ec9fcbe23393600193612042927f5fcd5f66d6457aa3cf0795a327c967a1265dc6d6076b092843314cbfd6a5c8306020604051888801358152a16040805167ffffffffffffffff92831681529290911660208301526fffffffffffffffffffffffffffffffff9283169082015295166060860152910135929081906080820190565b506108fc6120e7565b909192506000906121b7575b6000808093818094f115611bb557859085386120d6565b506108fc6121a0565b506108fc6120cf565b5050929493956000809350809250848192828215612279575bf115611bb5577fc08b8c0490a3f9a25a2b283d5c72f7238b3d49342a51ee0b478940ec9fcbe233926fffffffffffffffffffffffffffffffff6001926080947f5fcd5f66d6457aa3cf0795a327c967a1265dc6d6076b092843314cbfd6a5c8306020604051878701358152a167ffffffffffffffff90816040519916895216602088015216604086015260006060860152013592a2565b506108fc6121e2565b60008080938193829061229f575b8290f115611bb5573880611ef2565b506108fc612290565b6108fc9150611ee7565b9650818160301c1696611e92565b8181169550611e6e565b60046040517fc970156c000000000000000000000000000000000000000000000000000000008152fd5b60046040517f8af35858000000000000000000000000000000000000000000000000000000008152fd5b9193929082606091810103126114185781359260ff841680940361141857608093602080916040809661235236888c61169e565b84815191012092825193845284840152838101358284015201356060820152600096879182805260015afa156124d057845173ffffffffffffffffffffffffffffffffffffffff80600454169116036124735782811161051357859481948460601161018d577f00000000000000000000000000000000000000000000000000000000000000008189013503612416578410610907575085013594606001917fffffffffffffffffffffffffffffffffffffffffffffffffffffffffffffffa00190565b8260649151907f08c379a00000000000000000000000000000000000000000000000000000000082526004820152600b60248201527f214964656e7469666965720000000000000000000000000000000000000000006044820152fd5b6064908451907f08c379a00000000000000000000000000000000000000000000000000000000082526004820152600760248201527f217369676e6572000000000000000000000000000000000000000000000000006044820152fd5b50505051903d90823e3d90fd5b6125857f55d98696b252b788d21d4bb968cd6e13002c2a1fdda6f421bf95f58fea7dbdd19361255b606060405180937f0000000000000000000000000000000000000000000000000000000000000000602083015286604083015261254b81518092602086860191016115fe565b81010360408101845201826114fa565b6125776040519485948552606060208601526060850190611621565b908382036040850152611621565b0390a1565b73ffffffffffffffffffffffffffffffffffffffff604051917f140000000000000000000000000000000000000000000000000000000000000060208401526000602184015216604182015260418152611cec816114de565b73ffffffffffffffffffffffffffffffffffffffff60045416330361260457565b60646040517f08c379a000000000000000000000000000000000000000000000000000000000815260206004820152602060248201527f4f776e61626c653a2063616c6c6572206973206e6f7420746865206f776e65726044820152fdfea2646970667358221220d4f392c60682188a60bf6d3b708f6833247fc09f627d559fd8746f6acb68308a64736f6c63430008150033",
    "linkReferences": {}
  },
  "methodIdentifiers": {
    "MESSAGE_REVERTED()": "a28a469d",
    "NO_AUTHENTICATION()": "a00d0798",
    "SEND_LOST_GAS_TO()": "8dedc179",
    "UNIQUE_SOURCE_IDENTIFIER()": "3ccb217e",
    "acceptOwnership()": "79ba5097",
    "bounty(bytes32)": "2439909c",
    "convertEVMTo65(address)": "ea901f1a",
    "escrowMessage(bytes32,bytes,bytes,(uint48,uint48,address,uint96,uint96,uint64))": "282696f4",
    "implementationAddress(address,bytes32)": "4993ef33",
    "implementationAddressHash(address,bytes32)": "dd6487fc",
    "increaseBounty(bytes32,uint96,uint96)": "4487b9fc",
    "owner()": "8da5cb5b",
    "pendingOwner()": "e30c3978",
    "processMessage(bytes,bytes,bytes32)": "08656b87",
    "recoverAck(bytes,bytes)": "dfe1aef9",
    "renounceOwnership()": "715018a6",
    "setRemoteEscrowImplementation(bytes32,bytes)": "98653ea2",
    "spentMessageIdentifier(bytes32)": "ef44262d",
    "thisBytes65()": "daf1e167",
    "transferOwnership(address)": "f2fde38b"
  },
  "id": 24
}