{
  "abi": [
    {
      "anonymous": false,
      "inputs": [
        {
          "indexed": true,
          "internalType": "address",
          "name": "owner",
          "type": "address"
        },
        {
          "indexed": true,
          "internalType": "address",
          "name": "spender",
          "type": "address"
        },
        {
          "indexed": false,
          "internalType": "uint256",
          "name": "value",
          "type": "uint256"
        }
      ],
      "name": "Approval",
      "type": "event"
    },
    {
      "anonymous": false,
      "inputs": [
        {
          "indexed": true,
          "internalType": "address",
          "name": "who",
          "type": "address"
        },
        {
          "indexed": false,
          "internalType": "uint256",
          "name": "mint",
          "type": "uint256"
        },
        {
          "indexed": false,
          "internalType": "uint256[]",
          "name": "assets",
          "type": "uint256[]"
        }
      ],
      "name": "Deposit",
      "type": "event"
    },
    {
      "anonymous": false,
      "inputs": [
        {
          "indexed": false,
          "internalType": "uint256",
          "name": "sourceSwapId",
          "type": "uint256"
        }
      ],
      "name": "EscrowAck",
      "type": "event"
    },
    {
      "anonymous": false,
      "inputs": [
        {
          "indexed": false,
          "internalType": "uint256",
          "name": "sourceSwapId",
          "type": "uint256"
        }
      ],
      "name": "EscrowTimeout",
      "type": "event"
    },
    {
      "anonymous": false,
      "inputs": [
        {
          "indexed": true,
          "internalType": "address",
          "name": "who",
          "type": "address"
        },
        {
          "indexed": true,
          "internalType": "address",
          "name": "fromAsset",
          "type": "address"
        },
        {
          "indexed": false,
          "internalType": "address",
          "name": "toAsset",
          "type": "address"
        },
        {
          "indexed": false,
          "internalType": "uint256",
          "name": "input",
          "type": "uint256"
        },
        {
          "indexed": false,
          "internalType": "uint256",
          "name": "output",
          "type": "uint256"
        },
        {
          "indexed": false,
          "internalType": "uint256",
          "name": "fees",
          "type": "uint256"
        }
      ],
      "name": "LocalSwap",
      "type": "event"
    },
    {
      "anonymous": false,
      "inputs": [
        {
          "indexed": true,
          "internalType": "address",
          "name": "who",
          "type": "address"
        },
        {
          "indexed": true,
          "internalType": "address",
          "name": "toAsset",
          "type": "address"
        },
        {
          "indexed": false,
          "internalType": "uint256",
          "name": "input",
          "type": "uint256"
        },
        {
          "indexed": false,
          "internalType": "uint256",
          "name": "output",
          "type": "uint256"
        }
      ],
      "name": "SwapFromUnits",
      "type": "event"
    },
    {
      "anonymous": false,
      "inputs": [
        {
          "indexed": true,
          "internalType": "bytes32",
          "name": "targetPool",
          "type": "bytes32"
        },
        {
          "indexed": true,
          "internalType": "bytes32",
          "name": "targetUser",
          "type": "bytes32"
        },
        {
          "indexed": true,
          "internalType": "address",
          "name": "fromAsset",
          "type": "address"
        },
        {
          "indexed": false,
          "internalType": "uint8",
          "name": "toAssetIndex",
          "type": "uint8"
        },
        {
          "indexed": false,
          "internalType": "uint256",
          "name": "input",
          "type": "uint256"
        },
        {
          "indexed": false,
          "internalType": "uint256",
          "name": "output",
          "type": "uint256"
        },
        {
          "indexed": false,
          "internalType": "uint256",
          "name": "fees",
          "type": "uint256"
        },
        {
          "indexed": false,
          "internalType": "uint32",
          "name": "sourceSwapId",
          "type": "uint32"
        }
      ],
      "name": "SwapToUnits",
      "type": "event"
    },
    {
      "anonymous": false,
      "inputs": [
        {
          "indexed": true,
          "internalType": "address",
          "name": "from",
          "type": "address"
        },
        {
          "indexed": true,
          "internalType": "address",
          "name": "to",
          "type": "address"
        },
        {
          "indexed": false,
          "internalType": "uint256",
          "name": "value",
          "type": "uint256"
        }
      ],
      "name": "Transfer",
      "type": "event"
    },
    {
      "anonymous": false,
      "inputs": [
        {
          "indexed": true,
          "internalType": "address",
          "name": "who",
          "type": "address"
        },
        {
          "indexed": false,
          "internalType": "uint256",
          "name": "burn",
          "type": "uint256"
        },
        {
          "indexed": false,
          "internalType": "uint256[]",
          "name": "assets",
          "type": "uint256[]"
        }
      ],
      "name": "Withdraw",
      "type": "event"
    },
    {
      "inputs": [
        {
          "internalType": "address",
          "name": "",
          "type": "address"
        }
      ],
      "name": "_balance0",
      "outputs": [
        {
          "internalType": "uint256",
          "name": "",
          "type": "uint256"
        }
      ],
      "stateMutability": "view",
      "type": "function"
    },
    {
      "inputs": [],
      "name": "_chaininterface",
      "outputs": [
        {
          "internalType": "address",
          "name": "",
          "type": "address"
        }
      ],
      "stateMutability": "view",
      "type": "function"
    },
    {
      "inputs": [
        {
          "internalType": "uint256",
          "name": "",
          "type": "uint256"
        }
      ],
      "name": "_escrowedFor",
      "outputs": [
        {
          "internalType": "address",
          "name": "user",
          "type": "address"
        },
        {
          "internalType": "uint256",
          "name": "amount",
          "type": "uint256"
        },
        {
          "internalType": "address",
          "name": "token",
          "type": "address"
        }
      ],
      "stateMutability": "view",
      "type": "function"
    },
    {
      "inputs": [
        {
          "internalType": "address",
          "name": "",
          "type": "address"
        }
      ],
      "name": "_escrowedTokens",
      "outputs": [
        {
          "internalType": "uint256",
          "name": "",
          "type": "uint256"
        }
      ],
      "stateMutability": "view",
      "type": "function"
    },
    {
      "inputs": [],
      "name": "_max_unit_inflow",
      "outputs": [
        {
          "internalType": "uint256",
          "name": "",
          "type": "uint256"
        }
      ],
      "stateMutability": "view",
      "type": "function"
    },
    {
      "inputs": [],
      "name": "_onlyLocal",
      "outputs": [
        {
          "internalType": "bool",
          "name": "",
          "type": "bool"
        }
      ],
      "stateMutability": "view",
      "type": "function"
    },
    {
      "inputs": [],
      "name": "_setupMaster",
      "outputs": [
        {
          "internalType": "address",
          "name": "",
          "type": "address"
        }
      ],
      "stateMutability": "view",
      "type": "function"
    },
    {
      "inputs": [],
      "name": "_sumWeights",
      "outputs": [
        {
          "internalType": "uint256",
          "name": "",
          "type": "uint256"
        }
      ],
      "stateMutability": "view",
      "type": "function"
    },
    {
      "inputs": [
        {
          "internalType": "uint256",
          "name": "",
          "type": "uint256"
        }
      ],
      "name": "_tokenIndexing",
      "outputs": [
        {
          "internalType": "address",
          "name": "",
          "type": "address"
        }
      ],
      "stateMutability": "view",
      "type": "function"
    },
    {
      "inputs": [
        {
          "internalType": "address",
          "name": "",
          "type": "address"
        }
      ],
      "name": "_weight",
      "outputs": [
        {
          "internalType": "uint256",
          "name": "",
          "type": "uint256"
        }
      ],
      "stateMutability": "view",
      "type": "function"
    },
    {
      "inputs": [
        {
          "internalType": "address",
          "name": "owner",
          "type": "address"
        },
        {
          "internalType": "address",
          "name": "spender",
          "type": "address"
        }
      ],
      "name": "allowance",
      "outputs": [
        {
          "internalType": "uint256",
          "name": "",
          "type": "uint256"
        }
      ],
      "stateMutability": "view",
      "type": "function"
    },
    {
      "inputs": [
        {
          "internalType": "address",
          "name": "spender",
          "type": "address"
        },
        {
          "internalType": "uint256",
          "name": "amount",
          "type": "uint256"
        }
      ],
      "name": "approve",
      "outputs": [
        {
          "internalType": "bool",
          "name": "",
          "type": "bool"
        }
      ],
      "stateMutability": "nonpayable",
      "type": "function"
    },
    {
      "inputs": [
        {
          "internalType": "uint256",
          "name": "U",
          "type": "uint256"
        },
        {
          "internalType": "uint256",
          "name": "B",
          "type": "uint256"
        },
        {
          "internalType": "uint256",
          "name": "W",
          "type": "uint256"
        }
      ],
      "name": "approx_solve_integral",
      "outputs": [
        {
          "internalType": "uint256",
          "name": "",
          "type": "uint256"
        }
      ],
      "stateMutability": "pure",
      "type": "function"
    },
    {
      "inputs": [
        {
          "internalType": "address",
          "name": "account",
          "type": "address"
        }
      ],
      "name": "balanceOf",
      "outputs": [
        {
          "internalType": "uint256",
          "name": "",
          "type": "uint256"
        }
      ],
      "stateMutability": "view",
      "type": "function"
    },
    {
      "inputs": [
        {
          "internalType": "bytes32",
          "name": "channelId",
          "type": "bytes32"
        },
        {
          "internalType": "bytes32",
          "name": "poolReceiving",
          "type": "bytes32"
        },
        {
          "internalType": "bool",
          "name": "state",
          "type": "bool"
        }
      ],
      "name": "createConnection",
      "outputs": [],
      "stateMutability": "nonpayable",
      "type": "function"
    },
    {
      "inputs": [
        {
          "internalType": "uint256",
          "name": "chainId",
          "type": "uint256"
        },
        {
          "internalType": "bytes32",
          "name": "poolReceiving",
          "type": "bytes32"
        },
        {
          "internalType": "bool",
          "name": "state",
          "type": "bool"
        }
      ],
      "name": "createConnectionWithChain",
      "outputs": [],
      "stateMutability": "nonpayable",
      "type": "function"
    },
    {
      "inputs": [],
      "name": "decimals",
      "outputs": [
        {
          "internalType": "uint8",
          "name": "",
          "type": "uint8"
        }
      ],
      "stateMutability": "pure",
      "type": "function"
    },
    {
      "inputs": [
        {
          "internalType": "address",
          "name": "spender",
          "type": "address"
        },
        {
          "internalType": "uint256",
          "name": "subtractedValue",
          "type": "uint256"
        }
      ],
      "name": "decreaseAllowance",
      "outputs": [
        {
          "internalType": "bool",
          "name": "",
          "type": "bool"
        }
      ],
      "stateMutability": "nonpayable",
      "type": "function"
    },
    {
      "inputs": [
        {
          "internalType": "uint256",
          "name": "baseAmount",
          "type": "uint256"
        }
      ],
      "name": "depositAll",
      "outputs": [],
      "stateMutability": "nonpayable",
      "type": "function"
    },
    {
      "inputs": [
        {
          "internalType": "address",
          "name": "to",
          "type": "address"
        },
        {
          "internalType": "uint256",
          "name": "U",
          "type": "uint256"
        },
        {
          "internalType": "uint256",
          "name": "WSUM",
          "type": "uint256"
        }
      ],
      "name": "dry_liquidity_from_unit",
      "outputs": [
        {
          "internalType": "uint256",
          "name": "",
          "type": "uint256"
        }
      ],
      "stateMutability": "view",
      "type": "function"
    },
    {
      "inputs": [
        {
          "internalType": "address",
          "name": "from",
          "type": "address"
        },
        {
          "internalType": "uint256",
          "name": "amount",
          "type": "uint256"
        }
      ],
      "name": "dry_liquidity_to_unit",
      "outputs": [
        {
          "internalType": "uint256",
          "name": "",
          "type": "uint256"
        }
      ],
      "stateMutability": "view",
      "type": "function"
    },
    {
      "inputs": [
        {
          "internalType": "address",
          "name": "from",
          "type": "address"
        },
        {
          "internalType": "address",
          "name": "to",
          "type": "address"
        },
        {
          "internalType": "uint256",
          "name": "input",
          "type": "uint256"
        },
        {
          "internalType": "bool",
          "name": "approx",
          "type": "bool"
        }
      ],
      "name": "dry_swap_both",
      "outputs": [
        {
          "internalType": "uint256",
          "name": "",
          "type": "uint256"
        }
      ],
      "stateMutability": "view",
      "type": "function"
    },
    {
      "inputs": [
        {
          "internalType": "address",
          "name": "to",
          "type": "address"
        },
        {
          "internalType": "uint256",
          "name": "U",
          "type": "uint256"
        },
        {
          "internalType": "bool",
          "name": "approx",
          "type": "bool"
        }
      ],
      "name": "dry_swap_from_unit",
      "outputs": [
        {
          "internalType": "uint256",
          "name": "",
          "type": "uint256"
        }
      ],
      "stateMutability": "view",
      "type": "function"
    },
    {
      "inputs": [
        {
          "internalType": "address",
          "name": "from",
          "type": "address"
        },
        {
          "internalType": "uint256",
          "name": "amount",
          "type": "uint256"
        },
        {
          "internalType": "bool",
          "name": "approx",
          "type": "bool"
        }
      ],
      "name": "dry_swap_to_unit",
      "outputs": [
        {
          "internalType": "uint256",
          "name": "",
          "type": "uint256"
        }
      ],
      "stateMutability": "view",
      "type": "function"
    },
    {
      "inputs": [],
      "name": "finishSetup",
      "outputs": [],
      "stateMutability": "nonpayable",
      "type": "function"
    },
    {
      "inputs": [],
      "name": "getLiquidityUnitCapacity",
      "outputs": [
        {
          "internalType": "uint256",
          "name": "",
          "type": "uint256"
        }
      ],
      "stateMutability": "view",
      "type": "function"
    },
    {
      "inputs": [],
      "name": "getUnitCapacity",
      "outputs": [
        {
          "internalType": "uint256",
          "name": "",
          "type": "uint256"
        }
      ],
      "stateMutability": "view",
      "type": "function"
    },
    {
      "inputs": [
        {
          "internalType": "address",
          "name": "who",
          "type": "address"
        },
        {
          "internalType": "uint256",
          "name": "U",
          "type": "uint256"
        }
      ],
      "name": "inLiquidity",
      "outputs": [
        {
          "internalType": "uint256",
          "name": "",
          "type": "uint256"
        }
      ],
      "stateMutability": "nonpayable",
      "type": "function"
    },
    {
      "inputs": [
        {
          "internalType": "address",
          "name": "spender",
          "type": "address"
        },
        {
          "internalType": "uint256",
          "name": "addedValue",
          "type": "uint256"
        }
      ],
      "name": "increaseAllowance",
      "outputs": [
        {
          "internalType": "bool",
          "name": "",
          "type": "bool"
        }
      ],
      "stateMutability": "nonpayable",
      "type": "function"
    },
    {
      "inputs": [
        {
          "internalType": "address",
          "name": "fromAsset",
          "type": "address"
        },
        {
          "internalType": "address",
          "name": "toAsset",
          "type": "address"
        },
        {
          "internalType": "uint256",
          "name": "amount",
          "type": "uint256"
        },
        {
          "internalType": "uint256",
          "name": "minOut",
          "type": "uint256"
        }
      ],
      "name": "localswap",
      "outputs": [
        {
          "internalType": "uint256",
          "name": "",
          "type": "uint256"
        }
      ],
      "stateMutability": "nonpayable",
      "type": "function"
    },
    {
      "inputs": [
        {
          "internalType": "address",
          "name": "fromAsset",
          "type": "address"
        },
        {
          "internalType": "address",
          "name": "toAsset",
          "type": "address"
        },
        {
          "internalType": "uint256",
          "name": "amount",
          "type": "uint256"
        },
        {
          "internalType": "uint256",
          "name": "minOut",
          "type": "uint256"
        },
        {
          "internalType": "bool",
          "name": "approx",
          "type": "bool"
        }
      ],
      "name": "localswap",
      "outputs": [
        {
          "internalType": "uint256",
          "name": "",
          "type": "uint256"
        }
      ],
      "stateMutability": "nonpayable",
      "type": "function"
    },
    {
      "inputs": [],
      "name": "name",
      "outputs": [
        {
          "internalType": "string",
          "name": "",
          "type": "string"
        }
      ],
      "stateMutability": "view",
      "type": "function"
    },
    {
      "inputs": [
        {
          "internalType": "uint256",
          "name": "chain",
          "type": "uint256"
        },
        {
          "internalType": "bytes32",
          "name": "targetPool",
          "type": "bytes32"
        },
        {
          "internalType": "bytes32",
          "name": "targetUser",
          "type": "bytes32"
        },
        {
          "internalType": "uint256",
          "name": "baseAmount",
          "type": "uint256"
        }
      ],
      "name": "outLiquidity",
      "outputs": [
        {
          "internalType": "uint256",
          "name": "",
          "type": "uint256"
        }
      ],
      "stateMutability": "nonpayable",
      "type": "function"
    },
    {
      "inputs": [],
      "name": "ready",
      "outputs": [
        {
          "internalType": "bool",
          "name": "",
          "type": "bool"
        }
      ],
      "stateMutability": "view",
      "type": "function"
    },
    {
      "inputs": [
        {
          "internalType": "uint256",
          "name": "sourceSwapId",
          "type": "uint256"
        }
      ],
      "name": "releaseEscrowACK",
      "outputs": [],
      "stateMutability": "nonpayable",
      "type": "function"
    },
    {
      "inputs": [
        {
          "internalType": "uint256",
          "name": "sourceSwapId",
          "type": "uint256"
        }
      ],
      "name": "releaseEscrowTIMEOUT",
      "outputs": [],
      "stateMutability": "nonpayable",
      "type": "function"
    },
    {
      "inputs": [
        {
          "internalType": "address",
          "name": "chaininterface",
          "type": "address"
        },
        {
          "internalType": "address[]",
          "name": "init_assets",
          "type": "address[]"
        },
        {
          "internalType": "uint256[]",
          "name": "weights",
          "type": "uint256[]"
        },
        {
          "internalType": "uint256",
          "name": "amp",
          "type": "uint256"
        },
        {
          "internalType": "string",
          "name": "name_",
          "type": "string"
        },
        {
          "internalType": "string",
          "name": "symbol_",
          "type": "string"
        },
        {
          "internalType": "address",
          "name": "setupMaster",
          "type": "address"
        }
      ],
      "name": "setup",
      "outputs": [],
      "stateMutability": "nonpayable",
      "type": "function"
    },
    {
      "inputs": [
        {
          "internalType": "uint256",
          "name": "toAssetIndex",
          "type": "uint256"
        },
        {
          "internalType": "address",
          "name": "who",
          "type": "address"
        },
        {
          "internalType": "uint256",
          "name": "U",
          "type": "uint256"
        },
        {
          "internalType": "uint256",
          "name": "minOut",
          "type": "uint256"
        },
        {
          "internalType": "bool",
          "name": "approx",
          "type": "bool"
        }
      ],
      "name": "swapFromUnits",
      "outputs": [
        {
          "internalType": "uint256",
          "name": "",
          "type": "uint256"
        }
      ],
      "stateMutability": "nonpayable",
      "type": "function"
    },
    {
      "inputs": [
        {
          "internalType": "uint256",
          "name": "toAssetIndex",
          "type": "uint256"
        },
        {
          "internalType": "address",
          "name": "who",
          "type": "address"
        },
        {
          "internalType": "uint256",
          "name": "U",
          "type": "uint256"
        },
        {
          "internalType": "uint256",
          "name": "minOut",
          "type": "uint256"
        },
        {
          "internalType": "bool",
          "name": "approx",
          "type": "bool"
        },
        {
          "internalType": "address",
          "name": "dataTarget",
          "type": "address"
        },
        {
          "internalType": "bytes",
          "name": "data",
          "type": "bytes"
        }
      ],
      "name": "swapFromUnits",
      "outputs": [
        {
          "internalType": "uint256",
          "name": "",
          "type": "uint256"
        }
      ],
      "stateMutability": "nonpayable",
      "type": "function"
    },
    {
      "inputs": [
        {
          "internalType": "uint32",
          "name": "chain",
          "type": "uint32"
        },
        {
          "internalType": "bytes32",
          "name": "targetPool",
          "type": "bytes32"
        },
        {
          "internalType": "bytes32",
          "name": "targetUser",
          "type": "bytes32"
        },
        {
          "internalType": "address",
          "name": "fromAsset",
          "type": "address"
        },
        {
          "internalType": "uint8",
          "name": "toAssetIndex",
          "type": "uint8"
        },
        {
          "internalType": "uint256",
          "name": "amount",
          "type": "uint256"
        },
        {
          "internalType": "uint256",
          "name": "minOut",
          "type": "uint256"
        },
        {
          "internalType": "uint8",
          "name": "approx",
          "type": "uint8"
        },
        {
          "internalType": "address",
          "name": "fallbackUser",
          "type": "address"
        }
      ],
      "name": "swapToUnits",
      "outputs": [
        {
          "internalType": "uint256",
          "name": "",
          "type": "uint256"
        }
      ],
      "stateMutability": "nonpayable",
      "type": "function"
    },
    {
      "inputs": [
        {
          "internalType": "uint32",
          "name": "chain",
          "type": "uint32"
        },
        {
          "internalType": "bytes32",
          "name": "targetPool",
          "type": "bytes32"
        },
        {
          "internalType": "bytes32",
          "name": "targetUser",
          "type": "bytes32"
        },
        {
          "internalType": "address",
          "name": "fromAsset",
          "type": "address"
        },
        {
          "internalType": "uint8",
          "name": "toAssetIndex",
          "type": "uint8"
        },
        {
          "internalType": "uint256",
          "name": "amount",
          "type": "uint256"
        },
        {
          "internalType": "uint256",
          "name": "minOut",
          "type": "uint256"
        },
        {
          "internalType": "uint8",
          "name": "approx",
          "type": "uint8"
        },
        {
          "internalType": "address",
          "name": "fallbackUser",
          "type": "address"
        },
        {
          "internalType": "bytes",
          "name": "calldata_",
          "type": "bytes"
        }
      ],
      "name": "swapToUnits",
      "outputs": [
        {
          "internalType": "uint256",
          "name": "",
          "type": "uint256"
        }
      ],
      "stateMutability": "nonpayable",
      "type": "function"
    },
    {
      "inputs": [],
      "name": "symbol",
      "outputs": [
        {
          "internalType": "string",
          "name": "",
          "type": "string"
        }
      ],
      "stateMutability": "view",
      "type": "function"
    },
    {
      "inputs": [],
      "name": "totalSupply",
      "outputs": [
        {
          "internalType": "uint256",
          "name": "",
          "type": "uint256"
        }
      ],
      "stateMutability": "view",
      "type": "function"
    },
    {
      "inputs": [
        {
          "internalType": "address",
          "name": "to",
          "type": "address"
        },
        {
          "internalType": "uint256",
          "name": "amount",
          "type": "uint256"
        }
      ],
      "name": "transfer",
      "outputs": [
        {
          "internalType": "bool",
          "name": "",
          "type": "bool"
        }
      ],
      "stateMutability": "nonpayable",
      "type": "function"
    },
    {
      "inputs": [
        {
          "internalType": "address",
          "name": "from",
          "type": "address"
        },
        {
          "internalType": "address",
          "name": "to",
          "type": "address"
        },
        {
          "internalType": "uint256",
          "name": "amount",
          "type": "uint256"
        }
      ],
      "name": "transferFrom",
      "outputs": [
        {
          "internalType": "bool",
          "name": "",
          "type": "bool"
        }
      ],
      "stateMutability": "nonpayable",
      "type": "function"
    },
    {
      "inputs": [
        {
          "internalType": "uint256",
          "name": "baseAmount",
          "type": "uint256"
        }
      ],
      "name": "withdrawAll",
      "outputs": [],
      "stateMutability": "nonpayable",
      "type": "function"
    }
  ],
  "bytecode": "60806040526005805460ff60a01b1916600160a01b1790553480156200002457600080fd5b506040805160208082018352600080835283519182019093529182529060036200004f838262000119565b5060046200005e828262000119565b50506014805460ff1916600117905550620001e5565b634e487b7160e01b600052604160045260246000fd5b600181811c908216806200009f57607f821691505b602082108103620000c057634e487b7160e01b600052602260045260246000fd5b50919050565b601f8211156200011457600081815260208120601f850160051c81016020861015620000ef5750805b601f850160051c820191505b818110156200011057828155600101620000fb565b5050505b505050565b81516001600160401b0381111562000135576200013562000074565b6200014d816200014684546200008a565b84620000c6565b602080601f8311600181146200018557600084156200016c5750858301515b600019600386901b1c1916600185901b17855562000110565b600085815260208120601f198616915b82811015620001b65788860151825594840194600190910190840162000195565b5085821015620001d55787850151600019600388901b60f8161c191681555b5050505050600190811b01905550565b614ffc80620001f56000396000f3fe608060405234801561001057600080fd5b506004361061030a5760003560e01c806386f25e4d1161019c578063a457c2d7116100ee578063c6f678bd11610097578063ddc71dd111610071578063ddc71dd11461076e578063f2ae725c14610793578063ff27bd8b146107a657600080fd5b8063c6f678bd146106f5578063c90da01314610708578063dd62ed3e1461072857600080fd5b8063acd3fac0116100c8578063acd3fac0146106bc578063b240ca0b146106cf578063bebe46df146106e257600080fd5b8063a457c2d714610683578063a9059cbb14610696578063aa1c617f146106a957600080fd5b8063916f65e311610150578063961d48a21161012a578063961d48a21461065457806399d3edcd146106675780639ecfbb361461067a57600080fd5b8063916f65e314610630578063958e2d311461063957806395d89b411461064c57600080fd5b80638c9aa6f7116101815780638c9aa6f7146105df5780638df9f42d146105e7578063904e0a01146105fa57600080fd5b806386f25e4d146105c257806388e4dc9c146105cc57600080fd5b80633867e8571161026057806362429f811161020957806370a08231116101e357806370a08231146105665780637398cd041461059c57806379c63c37146105af57600080fd5b806362429f81146105215780636defbf8014610534578063702f97701461055357600080fd5b806348da4a311161023a57806348da4a31146104e85780634f489ec7146104fb57806360a90e381461050e57600080fd5b80633867e8571461047d57806339509351146104c257806341574c37146104d557600080fd5b806318160ddd116102c257806324cbc9ee1161029c57806324cbc9ee1461042e578063313ce5671461044e57806332a3385e1461045d57600080fd5b806318160ddd146103f357806323b872dd146103fb57806324351d571461040e57600080fd5b8063095ea7b3116102f3578063095ea7b3146103a75780630bc350d7146103ca57806311e5fbac146103e057600080fd5b8063023aae471461030f57806306fdde0314610392575b600080fd5b61035661031d3660046142d7565b60126020526000908152604090208054600182015460029092015473ffffffffffffffffffffffffffffffffffffffff91821692911683565b6040805173ffffffffffffffffffffffffffffffffffffffff948516815260208101939093529216918101919091526060015b60405180910390f35b61039a6107b9565b6040516103899190614314565b6103ba6103b536600461438e565b61084b565b6040519015158152602001610389565b6103d2610865565b604051908152602001610389565b6103d26103ee3660046143b8565b6108e0565b6002546103d2565b6103ba6104093660046143fa565b6108fb565b6103d261041c366004614436565b60116020526000908152604090205481565b6103d261043c366004614436565b60076020526000908152604090205481565b60405160128152602001610389565b6103d261046b366004614436565b60086020526000908152604090205481565b60055461049d9073ffffffffffffffffffffffffffffffffffffffff1681565b60405173ffffffffffffffffffffffffffffffffffffffff9091168152602001610389565b6103ba6104d036600461438e565b610921565b6103d26104e3366004614462565b61096d565b6103d26104f63660046144a2565b610a6f565b6103d26105093660046144d5565b610aa9565b6103d261051c366004614529565b610c25565b6103d261052f36600461457a565b610c5e565b600b5473ffffffffffffffffffffffffffffffffffffffff16156103ba565b6103d2610561366004614606565b610f92565b6103d2610574366004614436565b73ffffffffffffffffffffffffffffffffffffffff1660009081526020819052604090205490565b6103d26105aa366004614635565b6110d4565b6103d26105bd36600461438e565b6112a6565b6105ca6114e3565b005b6103d26105da366004614684565b61159f565b6103d26117d3565b6103d26105f53660046146ff565b611851565b61049d6106083660046142d7565b60066020526000908152604090205473ffffffffffffffffffffffffffffffffffffffff1681565b6103d2600c5481565b6105ca6106473660046142d7565b6118fa565b61039a611b6d565b6105ca6106623660046147d8565b611b7c565b6103d261067536600461438e565b611e60565b6103d260095481565b6103ba61069136600461438e565b611e9c565b6103ba6106a436600461438e565b611f78565b6103d26106b7366004614462565b611f86565b6105ca6106ca3660046142d7565b61205e565b6105ca6106dd3660046148cb565b61219f565b6103d26106f03660046148f9565b6122a4565b6105ca6107033660046142d7565b6125e0565b600b5461049d9073ffffffffffffffffffffffffffffffffffffffff1681565b6103d26107363660046149bc565b73ffffffffffffffffffffffffffffffffffffffff918216600090815260016020908152604080832093909416825291909152205490565b6005546103ba9074010000000000000000000000000000000000000000900460ff1681565b6105ca6107a13660046148cb565b612830565b6105ca6107b43660046142d7565b612947565b6060601580546107c8906149ef565b80601f01602080910402602001604051908101604052809291908181526020018280546107f4906149ef565b80156108415780601f1061081657610100808354040283529160200191610841565b820191906000526020600020905b81548152906001019060200180831161082457829003601f168201915b5050505050905090565b600033610859818585612a0b565b60019150505b92915050565b600c54600e546000919061087c9062015180614a71565b42111561088857919050565b600062015180600e544261089c9190614a84565b6108a69084614a97565b6108b09190614add565b905080600d54116108c15750919050565b80600d546108cf9190614a84565b6108d99083614a84565b9250505090565b60006108f0858585856000610f92565b90505b949350505050565b600033610909858285612bbe565b610914858585612c8f565b60019150505b9392505050565b33600081815260016020908152604080832073ffffffffffffffffffffffffffffffffffffffff871684529091528120549091906108599082908690610968908790614a71565b612a0b565b73ffffffffffffffffffffffffffffffffffffffff83166000818152601160205260408082205490517f70a08231000000000000000000000000000000000000000000000000000000008152306004820152919283926370a0823190602401602060405180830381865afa1580156109e9573d6000803e3d6000fd5b505050506040513d601f19601f82011682018060405250810190610a0d9190614af1565b610a179190614a84565b73ffffffffffffffffffffffffffffffffffffffff86166000908152600860205260409020549091508315610a5a57610a51858383610c25565b9250505061091a565b610a65858383612f42565b9695505050505050565b73ffffffffffffffffffffffffffffffffffffffff8316600090815260076020526040812054610aa0848285612f82565b95945050505050565b60055460009073ffffffffffffffffffffffffffffffffffffffff163314610ad057600080fd5b60008681526006602052604090205473ffffffffffffffffffffffffffffffffffffffff16610afe85612fa3565b6000610b0b82878661096d565b9050808511156040518060400160405280601881526020017f496e73756666696369656e7420737761702072657475726e000000000000000081525090610b88576040517f08c379a0000000000000000000000000000000000000000000000000000000008152600401610b7f9190614314565b60405180910390fd5b50610baa73ffffffffffffffffffffffffffffffffffffffff8316888361312c565b8173ffffffffffffffffffffffffffffffffffffffff168773ffffffffffffffffffffffffffffffffffffffff167f554dc1931a29064b841d92d1cf54855848f1ce32738684564a0a7c03f15a72008884604051610c12929190918252602082015260400190565b60405180910390a3979650505050505050565b600080610c3a8567b17217f7d1cf79ac613205565b9050610c4a81604085901b614a71565b610c548286614a97565b610aa09190614add565b600080610c8688610c7188600a54613205565b610c7b9089614a84565b600187161515611f86565b60055460135491925073ffffffffffffffffffffffffffffffffffffffff1690638e133a86908d908d908d908c9087908c9060028d16151590610ccf9064010000000090614b0a565b6040517fffffffff0000000000000000000000000000000000000000000000000000000060e08b901b16815263ffffffff98891660048201526024810197909752604487019590955260ff9093166064860152608485019190915260a4840152151560c483015290911660e482015261010401600060405180830381600087803b158015610d5c57600080fd5b505af1158015610d70573d6000803e3d6000fd5b50610d979250505073ffffffffffffffffffffffffffffffffffffffff8916333089613290565b73ffffffffffffffffffffffffffffffffffffffff881660009081526011602052604081208054889290610dcc908490614a71565b9250508190555060405180606001604052808473ffffffffffffffffffffffffffffffffffffffff1681526020018781526020018973ffffffffffffffffffffffffffffffffffffffff1681525060126000640100000000601354610e319190614b0a565b815260208082019290925260409081016000208351815473ffffffffffffffffffffffffffffffffffffffff9182167fffffffffffffffffffffffff0000000000000000000000000000000000000000918216178355938501516001830155939091015160029091018054919093169116179055600d5481811115610ecd5781600d6000828254610ec29190614a84565b90915550610ed99050565b8015610ed9576000600d555b508773ffffffffffffffffffffffffffffffffffffffff16898b7f2483ac7794a891a1da9e35af72035937919c140ab4e1fec8fb8041dbfb4393628a8a86610f238d600a54613205565b640100000000601354610f369190614b0a565b6040805160ff9096168652602086019490945292840191909152606083015263ffffffff16608082015260a00160405180910390a4600160136000828254610f7e9190614a71565b90915550909b9a5050505050505050505050565b600080610fa185600a54613205565b90506000610fba8888610fb4858a614a84565b876110d4565b9050848110156040518060400160405280601881526020017f496e73756666696369656e7420737761702072657475726e00000000000000008152509061102e576040517f08c379a0000000000000000000000000000000000000000000000000000000008152600401610b7f9190614314565b5061105073ffffffffffffffffffffffffffffffffffffffff8816338361312c565b61107273ffffffffffffffffffffffffffffffffffffffff8916333089613290565b60408051338152602081018890529081018290526060810183905273ffffffffffffffffffffffffffffffffffffffff80891691908a16907f967858f4c15e98f1f59e7c3c41673484d18a5fac00792502a52e51c780b8d27690608001610c12565b6040517f70a08231000000000000000000000000000000000000000000000000000000008152306004820152600090819073ffffffffffffffffffffffffffffffffffffffff8716906370a0823190602401602060405180830381865afa158015611143573d6000803e3d6000fd5b505050506040513d601f19601f820116820180604052508101906111679190614af1565b73ffffffffffffffffffffffffffffffffffffffff86166000818152601160205260408082205490517f70a0823100000000000000000000000000000000000000000000000000000000815230600482015293945090929091906370a0823190602401602060405180830381865afa1580156111e7573d6000803e3d6000fd5b505050506040513d601f19601f8201168201806040525081019061120b9190614af1565b6112159190614a84565b73ffffffffffffffffffffffffffffffffffffffff80891660009081526008602052604080822054928a168252902054919250908082036112795761125a8785614a71565b6112648885614a97565b61126e9190614add565b9450505050506108f3565b851561128c5761126e87858585856132ee565b6112998785858585613338565b9998505050505050505050565b60055460009073ffffffffffffffffffffffffffffffffffffffff1633146112cd57600080fd5b600954600080805260066020527f54cdd369e4e8a8515e52ca72ec816c2101831ad1f18bf44102ed171459c9b4f85473ffffffffffffffffffffffffffffffffffffffff169061131e828685610a6f565b9050600061132b60025490565b73ffffffffffffffffffffffffffffffffffffffff84166000908152600760205260408120549192509061135f8385614a97565b6113699190614add565b73ffffffffffffffffffffffffffffffffffffffff85166000908152600760205260408120805492935085929091906113a3908490614a71565b90915550600190505b60038110156114715760008181526006602052604090205473ffffffffffffffffffffffffffffffffffffffff16806113e55750611471565b73ffffffffffffffffffffffffffffffffffffffff81166000908152600760205260409020548490611418908590614a97565b6114229190614add565b73ffffffffffffffffffffffffffffffffffffffff821660009081526007602052604081208054909190611457908490614a71565b90915550829150611469905081614b1e565b9150506113ac565b5061147b81613391565b6114858882613532565b6040805188815260208101839052309173ffffffffffffffffffffffffffffffffffffffff8b16917f554dc1931a29064b841d92d1cf54855848f1ce32738684564a0a7c03f15a7200910160405180910390a3979650505050505050565b600b5473ffffffffffffffffffffffffffffffffffffffff163214806115205750600b5473ffffffffffffffffffffffffffffffffffffffff1633145b61152957600080fd5b60055474010000000000000000000000000000000000000000900460ff161561157557600580547fffffffffffffffffffffffff00000000000000000000000000000000000000001690555b600b80547fffffffffffffffffffffffff0000000000000000000000000000000000000000169055565b6000806115ab60025490565b90506115b73384613652565b6000805b600381101561169d5760008181526006602052604090205473ffffffffffffffffffffffffffffffffffffffff16806115f4575061169d565b73ffffffffffffffffffffffffffffffffffffffff81166000908152600760205260408120548590611627908990614a97565b6116319190614add565b905061163d8282611e60565b6116479085614a71565b73ffffffffffffffffffffffffffffffffffffffff8316600090815260076020526040812080549296508392909190611681908490614a84565b925050819055505050808061169590614b1e565b9150506115bb565b506005546040517fe55770f80000000000000000000000000000000000000000000000000000000081526004810189905260248101889052604481018790526064810183905233608482015273ffffffffffffffffffffffffffffffffffffffff9091169063e55770f89060a401600060405180830381600087803b15801561172557600080fd5b505af1158015611739573d6000803e3d6000fd5b5050600f54915050848111156117665784600f600082825461175b9190614a84565b909155506117729050565b8015611772576000600f555b6040805160ff81526020810187905290810183905260006060820181905260808201523090879089907f2483ac7794a891a1da9e35af72035937919c140ab4e1fec8fb8041dbfb4393629060a00160405180910390a4509695505050505050565b60008060026117e160025490565b6117eb9190614add565b9050601054620151806117fe9190614a71565b42111561180a57919050565b6000620151806010544261181e9190614a84565b6118289084614a97565b6118329190614add565b905080600f54116118435750919050565b80600f546108cf9190614a84565b6000806118618a8a8a8a8a610aa9565b6040517fdc0913ac00000000000000000000000000000000000000000000000000000000815290915073ffffffffffffffffffffffffffffffffffffffff86169063dc0913ac906118ba90849088908890600401614b9f565b600060405180830381600087803b1580156118d457600080fd5b505af11580156118e8573d6000803e3d6000fd5b50929c9b505050505050505050505050565b6119046000613391565b600061190f60025490565b905061191b3383613652565b604080516003808252608082019092526000916020820160608036833701905050905060005b6003811015611b175760008181526006602052604090205473ffffffffffffffffffffffffffffffffffffffff168061197a5750611b17565b73ffffffffffffffffffffffffffffffffffffffff81166000818152601160205260408082205490517f70a08231000000000000000000000000000000000000000000000000000000008152306004820152919290916370a0823190602401602060405180830381865afa1580156119f6573d6000803e3d6000fd5b505050506040513d601f19601f82011682018060405250810190611a1a9190614af1565b611a249190614a84565b73ffffffffffffffffffffffffffffffffffffffff831660009081526007602052604081205491925086611a588984614a97565b611a629190614add565b905080838314611a845782611a778386614a97565b611a819190614add565b90505b73ffffffffffffffffffffffffffffffffffffffff851660009081526007602052604081208054849290611ab9908490614a84565b9250508190555080878781518110611ad357611ad3614be8565b6020908102919091010152611aff73ffffffffffffffffffffffffffffffffffffffff8616338361312c565b50505050508080611b0f90614b1e565b915050611941565b503373ffffffffffffffffffffffffffffffffffffffff167faef68853d1f7f9e4e5fe02896078a87a319c7b257208dac49346c8f03b36c6858483604051611b60929190614c17565b60405180910390a2505050565b6060601680546107c8906149ef565b611b8860406002614d85565b8614611b9357600080fd5b6003891115611ba157600080fd5b6000805b8a811015611e41578b8b82818110611bbf57611bbf614be8565b9050602002016020810190611bd49190614436565b600082815260066020526040902080547fffffffffffffffffffffffff00000000000000000000000000000000000000001673ffffffffffffffffffffffffffffffffffffffff92909216919091179055898982818110611c3757611c37614be8565b90506020020135600860008e8e85818110611c5457611c54614be8565b9050602002016020810190611c699190614436565b73ffffffffffffffffffffffffffffffffffffffff168152602081019190915260400160002055898982818110611ca257611ca2614be8565b9050602002013560096000828254611cba9190614a71565b90915550600090508c8c83818110611cd457611cd4614be8565b9050602002016020810190611ce99190614436565b6040517f70a0823100000000000000000000000000000000000000000000000000000000815230600482015273ffffffffffffffffffffffffffffffffffffffff91909116906370a0823190602401602060405180830381865afa158015611d55573d6000803e3d6000fd5b505050506040513d601f19601f82011682018060405250810190611d799190614af1565b905060008111611d8857600080fd5b80600760008f8f86818110611d9f57611d9f614be8565b9050602002016020810190611db49190614436565b73ffffffffffffffffffffffffffffffffffffffff1673ffffffffffffffffffffffffffffffffffffffff1681526020019081526020016000206000828254611dfd9190614a71565b925050819055505060408a8a83818110611e1957611e19614be8565b90506020020135901b82611e2d9190614a71565b915080611e3981614b1e565b915050611ba5565b50600c55611e53858585858f8661383f565b5050505050505050505050565b73ffffffffffffffffffffffffffffffffffffffff82166000908152600760209081526040808320546008909252822054610aa08483836138ff565b33600081815260016020908152604080832073ffffffffffffffffffffffffffffffffffffffff8716845290915281205490919083811015611f60576040517f08c379a000000000000000000000000000000000000000000000000000000000815260206004820152602560248201527f45524332303a2064656372656173656420616c6c6f77616e63652062656c6f7760448201527f207a65726f0000000000000000000000000000000000000000000000000000006064820152608401610b7f565b611f6d8286868403612a0b565b506001949350505050565b600033610859818585612c8f565b6040517f70a08231000000000000000000000000000000000000000000000000000000008152306004820152600090819073ffffffffffffffffffffffffffffffffffffffff8616906370a0823190602401602060405180830381865afa158015611ff5573d6000803e3d6000fd5b505050506040513d601f19601f820116820180604052508101906120199190614af1565b73ffffffffffffffffffffffffffffffffffffffff8616600090815260086020526040902054909150831561205357610a51858383613926565b610a65858383613956565b60055473ffffffffffffffffffffffffffffffffffffffff16331461208257600080fd5b60008181526012602090815260408083208151606081018352815473ffffffffffffffffffffffffffffffffffffffff9081168252600183015482860181905260029093015416818401819052855260119093529083208054929391929091906120ed908490614a84565b90915550508051602082015160408301516121209273ffffffffffffffffffffffffffffffffffffffff9091169161312c565b6040518281527f2ed3176c48e2338524348cc2055adb2c2d41e9022e0a6a18d843c9ed5be9a3a3906020015b60405180910390a150600090815260126020526040812080547fffffffffffffffffffffffff00000000000000000000000000000000000000009081168255600182019290925560020180549091169055565b600b5473ffffffffffffffffffffffffffffffffffffffff163214806121dc5750600b5473ffffffffffffffffffffffffffffffffffffffff1633145b6121e557600080fd5b600580547fffffffffffffffffffffff00ffffffffffffffffffffffffffffffffffffffff81169091556040517f92a9bdb30000000000000000000000000000000000000000000000000000000081526004810185905260248101849052821515604482015273ffffffffffffffffffffffffffffffffffffffff909116906392a9bdb390606401600060405180830381600087803b15801561228757600080fd5b505af115801561229b573d6000803e3d6000fd5b50505050505050565b6000806122cc8a6122b78a600a54613205565b6122c1908b614a84565b600189161515611f86565b73ffffffffffffffffffffffffffffffffffffffff8b16600090815260116020526040812080549293508a92909190612306908490614a71565b9250508190555060405180606001604052808673ffffffffffffffffffffffffffffffffffffffff1681526020018981526020018b73ffffffffffffffffffffffffffffffffffffffff168152506012600064010000000060135461236b9190614b0a565b815260200190815260200160002060008201518160000160006101000a81548173ffffffffffffffffffffffffffffffffffffffff021916908373ffffffffffffffffffffffffffffffffffffffff1602179055506020820151816001015560408201518160020160006101000a81548173ffffffffffffffffffffffffffffffffffffffff021916908373ffffffffffffffffffffffffffffffffffffffff160217905550905050600560009054906101000a900473ffffffffffffffffffffffffffffffffffffffff1673ffffffffffffffffffffffffffffffffffffffff1663ba71471e8e8e8e8d868d60008e60021660ff16116401000000006013546124759190614b0a565b8d8d6040518b63ffffffff1660e01b815260040161249c9a99989796959493929190614d91565b600060405180830381600087803b1580156124b657600080fd5b505af11580156124ca573d6000803e3d6000fd5b506124f19250505073ffffffffffffffffffffffffffffffffffffffff8b1633308b613290565b600d54818111156125195781600d600082825461250e9190614a84565b909155506125259050565b8015612525576000600d555b508973ffffffffffffffffffffffffffffffffffffffff168b8d7f2483ac7794a891a1da9e35af72035937919c140ab4e1fec8fb8041dbfb4393628c8c8661256f8f600a54613205565b6401000000006013546125829190614b0a565b6040805160ff9096168652602086019490945292840191909152606083015263ffffffff16608082015260a00160405180910390a46001601360008282546125ca9190614a71565b90915550909d9c50505050505050505050505050565b6125ea6000613391565b60006125f560025490565b60408051600380825260808201909252919250600091906020820160608036833701905050905060005b60038110156127dd5760008181526006602052604090205473ffffffffffffffffffffffffffffffffffffffff168061265857506127dd565b6040517f70a0823100000000000000000000000000000000000000000000000000000000815230600482015260009073ffffffffffffffffffffffffffffffffffffffff8316906370a0823190602401602060405180830381865afa1580156126c5573d6000803e3d6000fd5b505050506040513d601f19601f820116820180604052508101906126e99190614af1565b73ffffffffffffffffffffffffffffffffffffffff83166000908152600760205260408120549192508661271d8984614a97565b6127279190614add565b905080838314612749578261273c8386614a97565b6127469190614add565b90505b73ffffffffffffffffffffffffffffffffffffffff85166000908152600760205260408120805484929061277e908490614a71565b925050819055508087878151811061279857612798614be8565b60209081029190910101526127c573ffffffffffffffffffffffffffffffffffffffff8616333084613290565b505050505080806127d590614b1e565b91505061261f565b506127e83384613532565b3373ffffffffffffffffffffffffffffffffffffffff167fe7425730072f5a6ec278ae24c998f6a79299c875cbd84ad35585563a0cb3c6668483604051611b60929190614c17565b600b5473ffffffffffffffffffffffffffffffffffffffff1632148061286d5750600b5473ffffffffffffffffffffffffffffffffffffffff1633145b61287657600080fd5b600580547fffffffffffffffffffffff00ffffffffffffffffffffffffffffffffffffffff81169091556040517fcec8a3950000000000000000000000000000000000000000000000000000000081526004810185905260248101849052821515604482015273ffffffffffffffffffffffffffffffffffffffff9091169063cec8a395906064016020604051808303816000875af115801561291d573d6000803e3d6000fd5b505050506040513d601f19601f820116820180604052508101906129419190614df7565b50505050565b60055473ffffffffffffffffffffffffffffffffffffffff16331461296b57600080fd5b60008181526012602090815260408083208151606081018352815473ffffffffffffffffffffffffffffffffffffffff9081168252600183015482860181905260029093015416818401819052855260119093529083208054929391929091906129d6908490614a84565b90915550506040518281527f44898ab65affad4f975e5a33a5f62fc75a177f6e222da2585627711f4b0f50f59060200161214c565b73ffffffffffffffffffffffffffffffffffffffff8316612aad576040517f08c379a0000000000000000000000000000000000000000000000000000000008152602060048201526024808201527f45524332303a20617070726f76652066726f6d20746865207a65726f2061646460448201527f72657373000000000000000000000000000000000000000000000000000000006064820152608401610b7f565b73ffffffffffffffffffffffffffffffffffffffff8216612b50576040517f08c379a000000000000000000000000000000000000000000000000000000000815260206004820152602260248201527f45524332303a20617070726f766520746f20746865207a65726f20616464726560448201527f73730000000000000000000000000000000000000000000000000000000000006064820152608401610b7f565b73ffffffffffffffffffffffffffffffffffffffff83811660008181526001602090815260408083209487168084529482529182902085905590518481527f8c5be1e5ebec7d5bd14f71427d1e84f3dd0314c0f7b2291e5b200ac8c7c3b925910160405180910390a3505050565b73ffffffffffffffffffffffffffffffffffffffff8381166000908152600160209081526040808320938616835292905220547fffffffffffffffffffffffffffffffffffffffffffffffffffffffffffffffff81146129415781811015612c82576040517f08c379a000000000000000000000000000000000000000000000000000000000815260206004820152601d60248201527f45524332303a20696e73756666696369656e7420616c6c6f77616e63650000006044820152606401610b7f565b6129418484848403612a0b565b73ffffffffffffffffffffffffffffffffffffffff8316612d32576040517f08c379a000000000000000000000000000000000000000000000000000000000815260206004820152602560248201527f45524332303a207472616e736665722066726f6d20746865207a65726f20616460448201527f64726573730000000000000000000000000000000000000000000000000000006064820152608401610b7f565b73ffffffffffffffffffffffffffffffffffffffff8216612dd5576040517f08c379a000000000000000000000000000000000000000000000000000000000815260206004820152602360248201527f45524332303a207472616e7366657220746f20746865207a65726f206164647260448201527f65737300000000000000000000000000000000000000000000000000000000006064820152608401610b7f565b73ffffffffffffffffffffffffffffffffffffffff831660009081526020819052604090205481811015612e8b576040517f08c379a000000000000000000000000000000000000000000000000000000000815260206004820152602660248201527f45524332303a207472616e7366657220616d6f756e742065786365656473206260448201527f616c616e636500000000000000000000000000000000000000000000000000006064820152608401610b7f565b73ffffffffffffffffffffffffffffffffffffffff808516600090815260208190526040808220858503905591851681529081208054849290612ecf908490614a71565b925050819055508273ffffffffffffffffffffffffffffffffffffffff168473ffffffffffffffffffffffffffffffffffffffff167fddf252ad1be2c89b69c2b068fc378daa952ba7f163c4a11628f55a4df523b3ef84604051612f3591815260200190565b60405180910390a3612941565b60006040612f58612f538487614add565b61396e565b612f6460406002614d85565b612f6e9190614a84565b612f789085614a97565b901c949350505050565b60006040612f91816002614d85565b612f64612f9e8588614add565b613bc0565b600c54600e54612fb69062015180614a71565b42111561301c578082106040518060600160405280602d8152602001614f9a602d913990613011576040517f08c379a0000000000000000000000000000000000000000000000000000000008152600401610b7f9190614314565b5050600d5542600e55565b600062015180600e54426130309190614a84565b61303a9084614a97565b6130449190614add565b42600e55600d549091508181116130b5578284106040518060600160405280602d8152602001614f9a602d9139906130a9576040517f08c379a0000000000000000000000000000000000000000000000000000000008152600401610b7f9190614314565b505050600d9190915550565b6000826130c28684614a71565b6130cc9190614a84565b90508381106040518060600160405280602d8152602001614f9a602d913990613122576040517f08c379a0000000000000000000000000000000000000000000000000000000008152600401610b7f9190614314565b50600d5550505050565b60405173ffffffffffffffffffffffffffffffffffffffff83166024820152604481018290526132009084907fa9059cbb00000000000000000000000000000000000000000000000000000000906064015b604080517fffffffffffffffffffffffffffffffffffffffffffffffffffffffffffffffe08184030181529190526020810180517bffffffffffffffffffffffffffffffffffffffffffffffffffffffff167fffffffff0000000000000000000000000000000000000000000000000000000090931692909217909152613e99565b505050565b6000828202817fffffffffffffffffffffffffffffffffffffffffffffffffffffffffffffffff848609905081811061323f576000613242565b60015b60ff1661324f8383614a84565b6132599190614a84565b905067ffffffffffffffff811061326f57600080fd5b604082811c90819061328390610100614a84565b83901b610a659190614a71565b60405173ffffffffffffffffffffffffffffffffffffffff808516602483015283166044820152606481018290526129419085907f23b872dd000000000000000000000000000000000000000000000000000000009060840161317e565b6000856132fb8385614a71565b6133059190614a97565b61330f8684614a97565b6133199190614a71565b866133248587614a97565b61332e9190614a97565b610a659190614add565b60008061336061335161334b8989614a71565b88613fa5565b61335b8686613fa5565b614029565b61336c60406002614d85565b6133769190614a84565b905060406133848287614a97565b901c979650505050505050565b6000600261339e60025490565b6133a89190614add565b9050601054620151806133bb9190614a71565b421115613421578082106040518060600160405280602d8152602001614f9a602d913990613416576040517f08c379a0000000000000000000000000000000000000000000000000000000008152600401610b7f9190614314565b5050600f5542601055565b600062015180601054426134359190614a84565b61343f9084614a97565b6134499190614add565b42601055600f54909150818110156134bb578284106040518060600160405280602d8152602001614f9a602d9139906134af576040517f08c379a0000000000000000000000000000000000000000000000000000000008152600401610b7f9190614314565b505050600f9190915550565b6000826134c88684614a71565b6134d29190614a84565b90508381106040518060600160405280602d8152602001614f9a602d913990613528576040517f08c379a0000000000000000000000000000000000000000000000000000000008152600401610b7f9190614314565b50600f5550505050565b73ffffffffffffffffffffffffffffffffffffffff82166135af576040517f08c379a000000000000000000000000000000000000000000000000000000000815260206004820152601f60248201527f45524332303a206d696e7420746f20746865207a65726f2061646472657373006044820152606401610b7f565b80600260008282546135c19190614a71565b909155505073ffffffffffffffffffffffffffffffffffffffff8216600090815260208190526040812080548392906135fb908490614a71565b909155505060405181815273ffffffffffffffffffffffffffffffffffffffff8316906000907fddf252ad1be2c89b69c2b068fc378daa952ba7f163c4a11628f55a4df523b3ef9060200160405180910390a35050565b73ffffffffffffffffffffffffffffffffffffffff82166136f5576040517f08c379a000000000000000000000000000000000000000000000000000000000815260206004820152602160248201527f45524332303a206275726e2066726f6d20746865207a65726f2061646472657360448201527f73000000000000000000000000000000000000000000000000000000000000006064820152608401610b7f565b73ffffffffffffffffffffffffffffffffffffffff8216600090815260208190526040902054818110156137ab576040517f08c379a000000000000000000000000000000000000000000000000000000000815260206004820152602260248201527f45524332303a206275726e20616d6f756e7420657863656564732062616c616e60448201527f63650000000000000000000000000000000000000000000000000000000000006064820152608401610b7f565b73ffffffffffffffffffffffffffffffffffffffff831660009081526020819052604081208383039055600280548492906137e7908490614a84565b909155505060405182815260009073ffffffffffffffffffffffffffffffffffffffff8516907fddf252ad1be2c89b69c2b068fc378daa952ba7f163c4a11628f55a4df523b3ef9060200160405180910390a3505050565b6138548161384f60406002614d85565b613532565b60145460ff161561386457600080fd5b601480547fffffffffffffffffffffffffffffffffffffffffffffffffffffffffffffff001660011790556005805473ffffffffffffffffffffffffffffffffffffffff8085167fffffffffffffffffffffffff000000000000000000000000000000000000000092831617909255600b80549284169290911691909117905560156138f1868883614e62565b50601661229b848683614e62565b600061391c613917846139128782614a84565b613fa5565b614040565b6108f39083614a97565b60006108f360406139378685614a97565b901b67b17217f7d1cf79ac61394c8787614a71565b6139129190614a97565b600061391c6139176139688686614a71565b85613fa5565b6000604082901c6029811061398257600080fd5b680100000000000000006780000000000000008416156139aa5767b504f333f9de64840260401c5b6740000000000000008416156139c85767d744fccad69d6af40260401c5b6720000000000000008416156139e65767eac0c6e7dd24392e0260401c5b671000000000000000841615613a045767f5257d152486cc2c0260401c5b670800000000000000841615613a225767fa83b2db722a033a0260401c5b670400000000000000841615613a405767fd3e0c0cf486c1740260401c5b670200000000000000841615613a5e5767fe9e115c7b8f884b0260401c5b670100000000000000841615613a7c5767ff4ecb59511ec8a50260401c5b6680000000000000841615613a995767ffa756521c8daed10260401c5b6640000000000000841615613ab65767ffd3a751c0f7e10b0260401c5b6620000000000000841615613ad35767ffe9d2b2f7db27550260401c5b6610000000000000841615613af05767fff4e91bff1b8c3d0260401c5b6608000000000000841615613b0d5767fffa747ea00406640260401c5b6604000000000000841615613b2a5767fffd3a3b7814eb530260401c5b6602000000000000841615613b475767fffe9d1cc60ddab10260401c5b6601000000000000841615613b645767ffff4e8e25879bfa0260401c5b65800000000000841615613b805767ffffa7470363f4510260401c5b65400000000000841615613b9c5767ffffd3a37dda03130260401c5b65200000000000841615613bb85767ffffe9d1bdf703ae0260401c5b901c92915050565b6000604082901c60c08110613bd457600080fd5b68010000000000000000678000000000000000841615613bfd5768016a09e667f3bcc9090260401c5b674000000000000000841615613c1c576801306fe0a31b7152df0260401c5b672000000000000000841615613c3b576801172b83c7d517adce0260401c5b671000000000000000841615613c5a5768010b5586cf9890f62a0260401c5b670800000000000000841615613c79576801059b0d31585743ae0260401c5b670400000000000000841615613c9857680102c9a3e778060ee70260401c5b670200000000000000841615613cb75768010163da9fb33356d80260401c5b670100000000000000841615613cd657680100b1afa5abcbed610260401c5b6680000000000000841615613cf45768010058c86da1c09ea20260401c5b6640000000000000841615613d12576801002c605e2e8cec500260401c5b6620000000000000841615613d3057680100162f3904051fa10260401c5b6610000000000000841615613d4e576801000b175effdc76ba0260401c5b6608000000000000841615613d6c57680100058ba01fb9f96d0260401c5b6604000000000000841615613d8a5768010002c5cc37da94920260401c5b6602000000000000841615613da8576801000162e525ee05470260401c5b6601000000000000841615613dc65768010000b17255775c040260401c5b65800000000000841615613de3576801000058b91b5bc9ae0260401c5b65400000000000841615613e0057680100002c5c89d5ec6d0260401c5b65200000000000841615613e1d5768010000162e43f4f8310260401c5b65100000000000841615613e3a57680100000b1721bcfc9a0260401c5b65080000000000841615613e575768010000058b90cf1e6e0260401c5b65040000000000841615613e74576801000002c5c863b73f0260401c5b65020000000000841615613e9157680100000162e430e5a20260401c5b901b92915050565b6000613efb826040518060400160405280602081526020017f5361666545524332303a206c6f772d6c6576656c2063616c6c206661696c65648152508573ffffffffffffffffffffffffffffffffffffffff166141759092919063ffffffff16565b8051909150156132005780806020019051810190613f199190614df7565b613200576040517f08c379a000000000000000000000000000000000000000000000000000000000815260206004820152602a60248201527f5361666545524332303a204552433230206f7065726174696f6e20646964206e60448201527f6f742073756363656564000000000000000000000000000000000000000000006064820152608401610b7f565b600080826001613fb760406002614d85565b613fc19190614a84565b613fcb9190614b0a565b90506000836001613fde60406002614d85565b613fe89190614a84565b613ff29190614add565b90508385614001846001614a71565b61400b9190614a97565b6140159190614add565b61401f8683614a97565b610aa09190614a71565b600061091a612f538361403b86614040565b613205565b60006801000000000000000082101561405857600080fd5b816000700100000000000000000000000000000000821061407b57608091821c91015b68010000000000000000821061409357604091821c91015b64010000000082106140a757602091821c91015b6201000082106140b957601091821c91015b61010082106140ca57600891821c91015b601082106140da57600491821c91015b600482106140ea57600291821c91015b600282106140f6576001015b7fffffffffffffffffffffffffffffffffffffffffffffffffffffffffffffffc0016001811b848161412a5761412a614aae565b04915060401b60005b601881101561416d5768020000000000000000831061415e57600192831c9260408290031b91909101905b91800260401c91600101614133565b509392505050565b60606108f384846000858573ffffffffffffffffffffffffffffffffffffffff85163b6141fe576040517f08c379a000000000000000000000000000000000000000000000000000000000815260206004820152601d60248201527f416464726573733a2063616c6c20746f206e6f6e2d636f6e74726163740000006044820152606401610b7f565b6000808673ffffffffffffffffffffffffffffffffffffffff1685876040516142279190614f7d565b60006040518083038185875af1925050503d8060008114614264576040519150601f19603f3d011682016040523d82523d6000602084013e614269565b606091505b5091509150614279828286614284565b979650505050505050565b6060831561429357508161091a565b8251156142a35782518084602001fd5b816040517f08c379a0000000000000000000000000000000000000000000000000000000008152600401610b7f9190614314565b6000602082840312156142e957600080fd5b5035919050565b60005b8381101561430b5781810151838201526020016142f3565b50506000910152565b60208152600082518060208401526143338160408501602087016142f0565b601f017fffffffffffffffffffffffffffffffffffffffffffffffffffffffffffffffe0169190910160400192915050565b803573ffffffffffffffffffffffffffffffffffffffff8116811461438957600080fd5b919050565b600080604083850312156143a157600080fd5b6143aa83614365565b946020939093013593505050565b600080600080608085870312156143ce57600080fd5b6143d785614365565b93506143e560208601614365565b93969395505050506040820135916060013590565b60008060006060848603121561440f57600080fd5b61441884614365565b925061442660208501614365565b9150604084013590509250925092565b60006020828403121561444857600080fd5b61091a82614365565b801515811461445f57600080fd5b50565b60008060006060848603121561447757600080fd5b61448084614365565b925060208401359150604084013561449781614451565b809150509250925092565b6000806000606084860312156144b757600080fd5b6144c084614365565b95602085013595506040909401359392505050565b600080600080600060a086880312156144ed57600080fd5b853594506144fd60208701614365565b93506040860135925060608601359150608086013561451b81614451565b809150509295509295909350565b60008060006060848603121561453e57600080fd5b505081359360208301359350604090920135919050565b803563ffffffff8116811461438957600080fd5b803560ff8116811461438957600080fd5b60008060008060008060008060006101208a8c03121561459957600080fd5b6145a28a614555565b985060208a0135975060408a013596506145be60608b01614365565b95506145cc60808b01614569565b945060a08a0135935060c08a013592506145e860e08b01614569565b91506145f76101008b01614365565b90509295985092959850929598565b600080600080600060a0868803121561461e57600080fd5b61462786614365565b94506144fd60208701614365565b6000806000806080858703121561464b57600080fd5b61465485614365565b935061466260208601614365565b925060408501359150606085013561467981614451565b939692955090935050565b6000806000806080858703121561469a57600080fd5b5050823594602084013594506040840135936060013592509050565b60008083601f8401126146c857600080fd5b50813567ffffffffffffffff8111156146e057600080fd5b6020830191508360208285010111156146f857600080fd5b9250929050565b60008060008060008060008060e0898b03121561471b57600080fd5b8835975061472b60208a01614365565b96506040890135955060608901359450608089013561474981614451565b935061475760a08a01614365565b925060c089013567ffffffffffffffff81111561477357600080fd5b61477f8b828c016146b6565b999c989b5096995094979396929594505050565b60008083601f8401126147a557600080fd5b50813567ffffffffffffffff8111156147bd57600080fd5b6020830191508360208260051b85010111156146f857600080fd5b600080600080600080600080600080600060e08c8e0312156147f957600080fd5b6148028c614365565b9a5067ffffffffffffffff8060208e0135111561481e57600080fd5b61482e8e60208f01358f01614793565b909b50995060408d013581101561484457600080fd5b6148548e60408f01358f01614793565b909950975060608d0135965060808d013581101561487157600080fd5b6148818e60808f01358f016146b6565b909650945060a08d013581101561489757600080fd5b506148a88d60a08e01358e016146b6565b90935091506148b960c08d01614365565b90509295989b509295989b9093969950565b6000806000606084860312156148e057600080fd5b8335925060208401359150604084013561449781614451565b60008060008060008060008060008060006101408c8e03121561491b57600080fd5b6149248c614555565b9a5060208c0135995060408c0135985061494060608d01614365565b975061494e60808d01614569565b965060a08c0135955060c08c0135945061496a60e08d01614569565b93506149796101008d01614365565b92506101208c013567ffffffffffffffff81111561499657600080fd5b6149a28e828f016146b6565b915080935050809150509295989b509295989b9093969950565b600080604083850312156149cf57600080fd5b6149d883614365565b91506149e660208401614365565b90509250929050565b600181811c90821680614a0357607f821691505b602082108103614a3c577f4e487b7100000000000000000000000000000000000000000000000000000000600052602260045260246000fd5b50919050565b7f4e487b7100000000000000000000000000000000000000000000000000000000600052601160045260246000fd5b8082018082111561085f5761085f614a42565b8181038181111561085f5761085f614a42565b808202811582820484141761085f5761085f614a42565b7f4e487b7100000000000000000000000000000000000000000000000000000000600052601260045260246000fd5b600082614aec57614aec614aae565b500490565b600060208284031215614b0357600080fd5b5051919050565b600082614b1957614b19614aae565b500690565b60007fffffffffffffffffffffffffffffffffffffffffffffffffffffffffffffffff8203614b4f57614b4f614a42565b5060010190565b8183528181602085013750600060208284010152600060207fffffffffffffffffffffffffffffffffffffffffffffffffffffffffffffffe0601f840116840101905092915050565b8381526040602082015260006108f0604083018486614b56565b7f4e487b7100000000000000000000000000000000000000000000000000000000600052604160045260246000fd5b7f4e487b7100000000000000000000000000000000000000000000000000000000600052603260045260246000fd5b6000604082018483526020604081850152818551808452606086019150828701935060005b81811015614c5857845183529383019391830191600101614c3c565b5090979650505050505050565b600181815b80851115614cbe57817fffffffffffffffffffffffffffffffffffffffffffffffffffffffffffffffff04821115614ca457614ca4614a42565b80851615614cb157918102915b93841c9390800290614c6a565b509250929050565b600082614cd55750600161085f565b81614ce25750600061085f565b8160018114614cf85760028114614d0257614d1e565b600191505061085f565b60ff841115614d1357614d13614a42565b50506001821b61085f565b5060208310610133831016604e8410600b8410161715614d41575081810a61085f565b614d4b8383614c65565b807fffffffffffffffffffffffffffffffffffffffffffffffffffffffffffffffff04821115614d7d57614d7d614a42565b029392505050565b600061091a8383614cc6565b600061012063ffffffff808e1684528c60208501528b604085015260ff8b1660608501528960808501528860a085015287151560c085015280871660e08501525080610100840152614de68184018587614b56565b9d9c50505050505050505050505050565b600060208284031215614e0957600080fd5b815161091a81614451565b601f82111561320057600081815260208120601f850160051c81016020861015614e3b5750805b601f850160051c820191505b81811015614e5a57828155600101614e47565b505050505050565b67ffffffffffffffff831115614e7a57614e7a614bb9565b614e8e83614e8883546149ef565b83614e14565b6000601f841160018114614ee05760008515614eaa5750838201355b7fffffffffffffffffffffffffffffffffffffffffffffffffffffffffffffffff600387901b1c1916600186901b178355614f76565b6000838152602090207fffffffffffffffffffffffffffffffffffffffffffffffffffffffffffffffe0861690835b82811015614f2f5786850135825560209485019460019092019101614f0f565b5086821015614f6a577fffffffffffffffffffffffffffffffffffffffffffffffffffffffffffffffff60f88860031b161c19848701351681555b505060018560011b0183555b5050505050565b60008251614f8f8184602087016142f0565b919091019291505056fe537761702065786365656473206d6178696d756d207377617020616d6f756e742e20506c656173652077616974a26469706673582212208d05c15e7a014199cdb42c3ee8941fc67b7d20a0e6187dde9944e993fe7dfcaf64736f6c63430008110033",
  "bytecodeSha1": "7b9b14f751f05c0d68f235c50b79b3b9a3adf27a",
  "compiler": {
    "evm_version": "istanbul",
    "optimizer": {
      "enabled": true,
      "runs": 251251
    },
    "version": "0.8.17+commit.8df45f5f"
  },
  "contractName": "CatalystSwapPool",
  "language": "Solidity",
  "natspec": {
    "author": "Catalyst Labs",
    "details": "This contract is deployed /broken/: It cannot be used as a swap pool as is. To use it, a proxy contract duplicating the logic of this contract needs to be deployed. In vyper, this can be done through (vy 0.3.4) create_minimal_proxy_to. After deployment of the proxy, call setup(...). This will initialize the pool and prepare it for cross-chain transactions. If connected to a supported cross-chain interface, call createConnection or createConnectionWithChain to connect the pool with pools on other chains. Finally, call finishSetup to give up the deployer's control over the pool.",
    "kind": "dev",
    "methods": {
      "_balance0(address)": {
        "notice": "Liquidity reference."
      },
      "_escrowedFor(uint256)": {
        "notice": "Escrow storage"
      },
      "_escrowedTokens(address)": {
        "notice": "Escrow storage"
      },
      "_max_unit_inflow()": {
        "notice": "The max incoming liquidity flow from the router."
      },
      "_onlyLocal()": {
        "notice": "If the pool has no cross chain connection, this is true.     Should not be trusted if setupMaster != ZERO_ADDRESS"
      },
      "_setupMaster()": {
        "notice": "The setupMaster is the short-term owner of the pool.     They can connect the pool to pools on other chains."
      },
      "_tokenIndexing(uint256)": {
        "notice": "To indicate which token is desired on the target pool,     the _toAsset is an integer from 0 to NUMASSETS indicating     which asset the pool should purchase with units."
      },
      "_weight(address)": {
        "notice": "The token weights. Used for maintaining a non symmetric pool balance."
      },
      "allowance(address,address)": {
        "details": "See {IERC20-allowance}."
      },
      "approve(address,uint256)": {
        "details": "See {IERC20-approve}. NOTE: If `amount` is the maximum `uint256`, the allowance is not updated on `transferFrom`. This is semantically equivalent to an infinite approval. Requirements: - `spender` cannot be the zero address."
      },
      "approx_solve_integral(uint256,uint256,uint256)": {
        "details": "This function should sometimes be used over _solve_integral. Since the error is relative to _out and _B, it is difficult to provide relative bounds when the approximation is better than the true equation. All input amounts should be the raw numbers and not X64. Since units are always denominated in X64, the function should be treated as mathematically *native*.",
        "notice": "Solves the equation U = \\int_{B-_out}^{B} W/(w · ln(2)) dw for _out by upper approximation. After swapping, we know the price to be W/((B - out) · ln(2)). The amount provided to the seller is then (W · _out)/((A - _out) · ln(2)).     => _out = (B · U · LN2)/(W + U · LN2)",
        "params": {
          "B": "The current pool balance of the _out token.",
          "U": "Input units. Is technically X64 but can be treated as not.",
          "W": "The pool weight of the _out token."
        },
        "returns": {
          "_0": "Output denominated in output token."
        }
      },
      "balanceOf(address)": {
        "details": "See {IERC20-balanceOf}."
      },
      "createConnection(bytes32,bytes32,bool)": {
        "details": "if _poolReceiving is an EVM pool, it can be computes as:     Vyper: convert(_poolAddress, bytes32)     Solidity: abi.encode(_poolAddress)     Brownie: brownie.convert.to_bytes(_poolAddress, type_str=\"bytes32\") ! Notice, using tx.origin is not secure. However, it makes it easy to bundle call from an external contract and no assets are at risk because the pool should not be used without setupMaster == ZERO_ADDRESS",
        "notice": "Creates a connection to the pool _poolReceiving on the channel _channelId.",
        "params": {
          "channelId": "The _channelId of the target pool.",
          "poolReceiving": "The bytes32 representation of the target pool",
          "state": "# todo: Should we also set this to True? Aka: should we disable disabling a connection?"
        }
      },
      "createConnectionWithChain(uint256,bytes32,bool)": {
        "details": "if _poolReceiving is an EVM pool, it can be computes as:     Vyper: convert(_poolAddress, bytes32)     Solidity: abi.encode(_poolAddress)     Brownie: brownie.convert.to_bytes(_poolAddress, type_str=\"bytes32\") ! Using tx.origin is not secure. However, it makes it easy to bundle call from an external contract and no assets are at risk because the pool should not be used without setupMaster == ZERO_ADDRESS",
        "notice": "Creates a connection to the pool _poolReceiving using the lookup table of the interface.",
        "params": {
          "chainId": "_chainId of the target pool. The interface will convert the chainId to the correct channelId.",
          "poolReceiving": "The bytes32 representation of the target pool",
          "state": "# todo: Should we also set this to True? Aka: should we disable disabling a connection?"
        }
      },
      "decimals()": {
        "details": "Returns the number of decimals used to get its user representation. For example, if `decimals` equals `2`, a balance of `505` tokens should be displayed to a user as `5.05` (`505 / 10 ** 2`). Tokens usually opt for a value of 18, imitating the relationship between Ether and Wei. This is the value {ERC20} uses, unless this function is overridden; NOTE: This information is only used for _display_ purposes: it in no way affects any of the arithmetic of the contract, including {IERC20-balanceOf} and {IERC20-transfer}."
      },
      "decreaseAllowance(address,uint256)": {
        "details": "Atomically decreases the allowance granted to `spender` by the caller. This is an alternative to {approve} that can be used as a mitigation for problems described in {IERC20-approve}. Emits an {Approval} event indicating the updated allowance. Requirements: - `spender` cannot be the zero address. - `spender` must have allowance for the caller of at least `subtractedValue`."
      },
      "depositAll(uint256)": {
        "details": "Requires approvals for all tokens within the pool.",
        "notice": "Deposits a symmetrical number of tokens such that baseAmount of pool tokens are minted. This doesn't change the pool price.",
        "params": {
          "baseAmount": "The number of pool tokens to mint."
        }
      },
      "dry_liquidity_from_unit(address,uint256,uint256)": {
        "notice": "Computes the output of a liquidity swap from units into liquidity, without executing one.",
        "params": {
          "U": "The number of units used to buy liquidity of to.",
          "WSUM": "The weighted sum used to solve the liquidity constraints. TODO: Approx?",
          "to": "The token address of the target balance0."
        },
        "returns": {
          "_0": "Output denominated in balance0s."
        }
      },
      "dry_liquidity_to_unit(address,uint256)": {
        "notice": "Computes the return of a liquidity swap from liquidity into units, without executing one.",
        "params": {
          "amount": "The amount of _from liquidity to sell. TODO: Approx?",
          "from": "The address of the liquidity to sell."
        },
        "returns": {
          "_0": "Liquidity units in X64 (units are **always** X64)."
        }
      },
      "dry_swap_both(address,address,uint256,bool)": {
        "details": "If the pool weights of the 2 tokens are equal, a very simple curve is used and argument approx is ignored. Before letting a user swap, it can be beneficial to viewing the approximated and not approximated. Then choose the one with the lowest cost (max return & min gas cost). If the pool weights of the 2 tokens are equal, a very simple curve is used and argument approx is ignored..",
        "notice": "Computes the return of a SwapToAndFromUnits, without executing one.",
        "params": {
          "approx": "True if SwapToUnits should be approximated (read: approx_compute_integral) Is ignored if the tokens weights are equal.",
          "from": "The address of the token to sell.",
          "input": "The amount of _from token to sell for to token.",
          "to": "The address of the token to buy."
        },
        "returns": {
          "_0": "Output denominated in to token."
        }
      },
      "dry_swap_from_unit(address,uint256,bool)": {
        "details": "Before letting a user swap, it can be beneficial to viewing the return approximated and not approximated. Then choose the one with the lowest cost (max return & min gas cost).",
        "notice": "Computes the output of a SwapFromUnits, without executing one.",
        "params": {
          "U": "The number of units used to buy to.",
          "approx": "True if SwapToUnits should be approximated (read: _approx_solve_integral)",
          "to": "The address of the token to buy."
        },
        "returns": {
          "_0": "Output denominated in output token."
        }
      },
      "dry_swap_to_unit(address,uint256,bool)": {
        "details": "Before letting a user swap, it can be beneficial to viewing the return approximated and not approximated. Then choose the one with the lowest cost (max return & min gas cost).",
        "notice": "Computes the return of a SwapToUnits, without executing one.",
        "params": {
          "amount": "The amount of from token to sell.",
          "approx": "True if SwapToUnits should be approximated (read: approx_compute_integral)",
          "from": "The address of the token to sell."
        },
        "returns": {
          "_0": "uint256 specific units in X64 (units are **always** X64)."
        }
      },
      "finishSetup()": {
        "details": "! Using tx.origin is not secure. However, it makes it easy to bundle call from an external contract and no assets are at risk because the pool should not be used without setupMaster == ZERO_ADDRESS",
        "notice": "Gives up short term ownership of the pool. This makes the pool unstoppable."
      },
      "getLiquidityUnitCapacity()": {
        "notice": "Returns the current cross-chain liquidity unit capacity in terms of the totalSupply. These are not true units but rather the conversion of units to pool tokens."
      },
      "getUnitCapacity()": {
        "notice": "Returns the current cross-chain unit capacity. "
      },
      "inLiquidity(address,uint256)": {
        "details": "Can only be called by the chaininterface, as there is no way to check the validity of units.",
        "notice": "Completes a cross-chain swap by converting liquidity units to pool tokens Called exclusively by the chaininterface.",
        "params": {
          "U": "Number of units to convert into pool tokens.",
          "who": "The recipient of pool tokens"
        }
      },
      "increaseAllowance(address,uint256)": {
        "details": "Atomically increases the allowance granted to `spender` by the caller. This is an alternative to {approve} that can be used as a mitigation for problems described in {IERC20-approve}. Emits an {Approval} event indicating the updated allowance. Requirements: - `spender` cannot be the zero address."
      },
      "localswap(address,address,uint256,uint256)": {
        "notice": "A swap between 2 assets which both are inside the pool. Is atomic.",
        "params": {
          "amount": "The amount of fromAsset the user wants to sell",
          "fromAsset": "The asset the user wants to sell.",
          "minOut": "The minimum output of _toAsset the user wants.",
          "toAsset": "The asset the user wants to buy"
        }
      },
      "localswap(address,address,uint256,uint256,bool)": {
        "notice": "A swap between 2 assets which both are inside the pool. Is atomic.",
        "params": {
          "amount": "The amount of fromAsset the user wants to sell",
          "approx": "If true, uses (worse) but simpler swapping which can improve swap return and gas costs. If assets weights are equal, this is ignored.",
          "fromAsset": "The asset the user wants to sell.",
          "minOut": "The minimum output of _toAsset the user wants.",
          "toAsset": "The asset the user wants to buy"
        }
      },
      "name()": {
        "details": "Returns the name of the token."
      },
      "outLiquidity(uint256,bytes32,bytes32,uint256)": {
        "notice": "Initiate a cross-chain liquidity swap by lowering liquidity and transfer the liquidity units to another pool.",
        "params": {
          "baseAmount": "The number of pool tokens to liquidity Swap",
          "chain": "The target chain. Will be converted by the interface to channelId.",
          "targetPool": "The target pool on the target chain encoded in bytes32. For EVM chains this can be computed as: Vyper: convert(_poolAddress, bytes32) Solidity: abi.encode(_poolAddress) Brownie: brownie.convert.to_bytes(_poolAddress, type_str=\"bytes32\")",
          "targetUser": "The recipient of the transaction on _chain. Encoded in bytes32. For EVM chains it can be found similarly to _targetPool."
        }
      },
      "ready()": {
        "details": "Just checks if the setup master has been set to ZERO_ADDRESS.     In other words, has finishSetup been called?",
        "notice": "External view function purely used to signal if a pool is safe to use."
      },
      "releaseEscrowACK(uint256)": {
        "notice": "Release the escrowed tokens into the pool.  "
      },
      "releaseEscrowTIMEOUT(uint256)": {
        "notice": "Returned the escrowed tokens to the user "
      },
      "setup(address,address[],uint256[],uint256,string,string,address)": {
        "details": "The @param amp is only used as a sanity check and needs to be set to 2**64. If less than NUMASSETS are used to setup the pool, let the remaining init_assets be ZERO_ADDRESS The unused weights can be whatever. (however, 0 is recommended.) The initial token amounts should have been sent to the pool before setup. If any token has token amount 0, the pool will never be able to have more than 0 tokens for that token.",
        "notice": "Setup a pool."
      },
      "swapFromUnits(uint256,address,uint256,uint256,bool)": {
        "details": "Can only be called by the chaininterface, as there is no way to check the validity of units.",
        "notice": "Completes a cross-chain swap by converting units to the desired token (toAsset)  Called exclusively by the chaininterface.",
        "params": {
          "U": "Number of units to convert into toAsset.",
          "approx": "If the swap approximation should be used over the \"true\" swap.",
          "minOut": "Minimum number of tokens bought. Reverts if less.",
          "toAssetIndex": "Index of the asset to be purchased with _U units.",
          "who": "The recipient of toAsset"
        }
      },
      "swapToUnits(uint32,bytes32,bytes32,address,uint8,uint256,uint256,uint8,address)": {
        "details": "Use the appropriate dry swaps to decide if approximation makes sense. These are the same functions as used by the swap functions, so they will accurately predict the gas cost and swap return.",
        "notice": "Initiate a cross-chain swap by purchasing units and transfer them to another pool.",
        "params": {
          "amount": "The number of _fromAsset to sell to the pool.",
          "approx": "Should SwapFromUnits be computed using approximation?",
          "chain": "The target chain. Will be converted by the interface to channelId.",
          "fallbackUser": "If the transaction fails send the escrowed funds to this address",
          "fromAsset": "The asset the user wants to sell.",
          "minOut": "The minimum number of returned tokens to the targetUser on the target chain.",
          "targetPool": "The target pool on the target chain encoded in bytes32. For EVM chains this can be computed as: Vyper: convert(_poolAddress, bytes32) Solidity: abi.encode(_poolAddress) Brownie: brownie.convert.to_bytes(_poolAddress, type_str=\"bytes32\")",
          "targetUser": "The recipient of the transaction on _chain. Encoded in bytes32. For EVM chains it can be derived similarly to targetPool.",
          "toAssetIndex": "The index of the asset the user wants to buy in the target pool."
        }
      },
      "swapToUnits(uint32,bytes32,bytes32,address,uint8,uint256,uint256,uint8,address,bytes)": {
        "notice": "Includes calldata_"
      },
      "symbol()": {
        "details": "Returns the symbol of the token, usually a shorter version of the name."
      },
      "totalSupply()": {
        "details": "See {IERC20-totalSupply}."
      },
      "transfer(address,uint256)": {
        "details": "See {IERC20-transfer}. Requirements: - `to` cannot be the zero address. - the caller must have a balance of at least `amount`."
      },
      "transferFrom(address,address,uint256)": {
        "details": "See {IERC20-transferFrom}. Emits an {Approval} event indicating the updated allowance. This is not required by the EIP. See the note at the beginning of {ERC20}. NOTE: Does not update the allowance if the current allowance is the maximum `uint256`. Requirements: - `from` and `to` cannot be the zero address. - `from` must have a balance of at least `amount`. - the caller must have allowance for ``from``'s tokens of at least `amount`."
      },
      "withdrawAll(uint256)": {
        "notice": "Burns baseAmount and releases the symmetrical share of tokens to the burner. This doesn't change the pool price.",
        "params": {
          "baseAmount": "The number of pool tokens to burn."
        }
      }
    },
    "notice": "Catalyst multi-chain swap pool using the asset specific pricing curve: W/(w · ln(2)) where W is an asset specific weight and w is the pool balance. The following contract supports between 1 and 3 assets for atomic swaps. To increase the number of tokens supported, change NUMASSETS to the desired maximum token amount. Implements the ERC20 specification, such that the contract will be its own pool token.",
    "title": "Catalyst: The Multi-Chain Swap pool",
    "version": 1
  },
  "opcodes": "PUSH1 0x80 PUSH1 0x40 MSTORE CALLVALUE DUP1 ISZERO PUSH2 0x10 JUMPI PUSH1 0x0 DUP1 REVERT JUMPDEST POP PUSH1 0x4 CALLDATASIZE LT PUSH2 0x30A JUMPI PUSH1 0x0 CALLDATALOAD PUSH1 0xE0 SHR DUP1 PUSH4 0x86F25E4D GT PUSH2 0x19C JUMPI DUP1 PUSH4 0xA457C2D7 GT PUSH2 0xEE JUMPI DUP1 PUSH4 0xC6F678BD GT PUSH2 0x97 JUMPI DUP1 PUSH4 0xDDC71DD1 GT PUSH2 0x71 JUMPI DUP1 PUSH4 0xDDC71DD1 EQ PUSH2 0x76E JUMPI DUP1 PUSH4 0xF2AE725C EQ PUSH2 0x793 JUMPI DUP1 PUSH4 0xFF27BD8B EQ PUSH2 0x7A6 JUMPI PUSH1 0x0 DUP1 REVERT JUMPDEST DUP1 PUSH4 0xC6F678BD EQ PUSH2 0x6F5 JUMPI DUP1 PUSH4 0xC90DA013 EQ PUSH2 0x708 JUMPI DUP1 PUSH4 0xDD62ED3E EQ PUSH2 0x728 JUMPI PUSH1 0x0 DUP1 REVERT JUMPDEST DUP1 PUSH4 0xACD3FAC0 GT PUSH2 0xC8 JUMPI DUP1 PUSH4 0xACD3FAC0 EQ PUSH2 0x6BC JUMPI DUP1 PUSH4 0xB240CA0B EQ PUSH2 0x6CF JUMPI DUP1 PUSH4 0xBEBE46DF EQ PUSH2 0x6E2 JUMPI PUSH1 0x0 DUP1 REVERT JUMPDEST DUP1 PUSH4 0xA457C2D7 EQ PUSH2 0x683 JUMPI DUP1 PUSH4 0xA9059CBB EQ PUSH2 0x696 JUMPI DUP1 PUSH4 0xAA1C617F EQ PUSH2 0x6A9 JUMPI PUSH1 0x0 DUP1 REVERT JUMPDEST DUP1 PUSH4 0x916F65E3 GT PUSH2 0x150 JUMPI DUP1 PUSH4 0x961D48A2 GT PUSH2 0x12A JUMPI DUP1 PUSH4 0x961D48A2 EQ PUSH2 0x654 JUMPI DUP1 PUSH4 0x99D3EDCD EQ PUSH2 0x667 JUMPI DUP1 PUSH4 0x9ECFBB36 EQ PUSH2 0x67A JUMPI PUSH1 0x0 DUP1 REVERT JUMPDEST DUP1 PUSH4 0x916F65E3 EQ PUSH2 0x630 JUMPI DUP1 PUSH4 0x958E2D31 EQ PUSH2 0x639 JUMPI DUP1 PUSH4 0x95D89B41 EQ PUSH2 0x64C JUMPI PUSH1 0x0 DUP1 REVERT JUMPDEST DUP1 PUSH4 0x8C9AA6F7 GT PUSH2 0x181 JUMPI DUP1 PUSH4 0x8C9AA6F7 EQ PUSH2 0x5DF JUMPI DUP1 PUSH4 0x8DF9F42D EQ PUSH2 0x5E7 JUMPI DUP1 PUSH4 0x904E0A01 EQ PUSH2 0x5FA JUMPI PUSH1 0x0 DUP1 REVERT JUMPDEST DUP1 PUSH4 0x86F25E4D EQ PUSH2 0x5C2 JUMPI DUP1 PUSH4 0x88E4DC9C EQ PUSH2 0x5CC JUMPI PUSH1 0x0 DUP1 REVERT JUMPDEST DUP1 PUSH4 0x3867E857 GT PUSH2 0x260 JUMPI DUP1 PUSH4 0x62429F81 GT PUSH2 0x209 JUMPI DUP1 PUSH4 0x70A08231 GT PUSH2 0x1E3 JUMPI DUP1 PUSH4 0x70A08231 EQ PUSH2 0x566 JUMPI DUP1 PUSH4 0x7398CD04 EQ PUSH2 0x59C JUMPI DUP1 PUSH4 0x79C63C37 EQ PUSH2 0x5AF JUMPI PUSH1 0x0 DUP1 REVERT JUMPDEST DUP1 PUSH4 0x62429F81 EQ PUSH2 0x521 JUMPI DUP1 PUSH4 0x6DEFBF80 EQ PUSH2 0x534 JUMPI DUP1 PUSH4 0x702F9770 EQ PUSH2 0x553 JUMPI PUSH1 0x0 DUP1 REVERT JUMPDEST DUP1 PUSH4 0x48DA4A31 GT PUSH2 0x23A JUMPI DUP1 PUSH4 0x48DA4A31 EQ PUSH2 0x4E8 JUMPI DUP1 PUSH4 0x4F489EC7 EQ PUSH2 0x4FB JUMPI DUP1 PUSH4 0x60A90E38 EQ PUSH2 0x50E JUMPI PUSH1 0x0 DUP1 REVERT JUMPDEST DUP1 PUSH4 0x3867E857 EQ PUSH2 0x47D JUMPI DUP1 PUSH4 0x39509351 EQ PUSH2 0x4C2 JUMPI DUP1 PUSH4 0x41574C37 EQ PUSH2 0x4D5 JUMPI PUSH1 0x0 DUP1 REVERT JUMPDEST DUP1 PUSH4 0x18160DDD GT PUSH2 0x2C2 JUMPI DUP1 PUSH4 0x24CBC9EE GT PUSH2 0x29C JUMPI DUP1 PUSH4 0x24CBC9EE EQ PUSH2 0x42E JUMPI DUP1 PUSH4 0x313CE567 EQ PUSH2 0x44E JUMPI DUP1 PUSH4 0x32A3385E EQ PUSH2 0x45D JUMPI PUSH1 0x0 DUP1 REVERT JUMPDEST DUP1 PUSH4 0x18160DDD EQ PUSH2 0x3F3 JUMPI DUP1 PUSH4 0x23B872DD EQ PUSH2 0x3FB JUMPI DUP1 PUSH4 0x24351D57 EQ PUSH2 0x40E JUMPI PUSH1 0x0 DUP1 REVERT JUMPDEST DUP1 PUSH4 0x95EA7B3 GT PUSH2 0x2F3 JUMPI DUP1 PUSH4 0x95EA7B3 EQ PUSH2 0x3A7 JUMPI DUP1 PUSH4 0xBC350D7 EQ PUSH2 0x3CA JUMPI DUP1 PUSH4 0x11E5FBAC EQ PUSH2 0x3E0 JUMPI PUSH1 0x0 DUP1 REVERT JUMPDEST DUP1 PUSH4 0x23AAE47 EQ PUSH2 0x30F JUMPI DUP1 PUSH4 0x6FDDE03 EQ PUSH2 0x392 JUMPI JUMPDEST PUSH1 0x0 DUP1 REVERT JUMPDEST PUSH2 0x356 PUSH2 0x31D CALLDATASIZE PUSH1 0x4 PUSH2 0x42D7 JUMP JUMPDEST PUSH1 0x12 PUSH1 0x20 MSTORE PUSH1 0x0 SWAP1 DUP2 MSTORE PUSH1 0x40 SWAP1 KECCAK256 DUP1 SLOAD PUSH1 0x1 DUP3 ADD SLOAD PUSH1 0x2 SWAP1 SWAP3 ADD SLOAD PUSH20 0xFFFFFFFFFFFFFFFFFFFFFFFFFFFFFFFFFFFFFFFF SWAP2 DUP3 AND SWAP3 SWAP2 AND DUP4 JUMP JUMPDEST PUSH1 0x40 DUP1 MLOAD PUSH20 0xFFFFFFFFFFFFFFFFFFFFFFFFFFFFFFFFFFFFFFFF SWAP5 DUP6 AND DUP2 MSTORE PUSH1 0x20 DUP2 ADD SWAP4 SWAP1 SWAP4 MSTORE SWAP3 AND SWAP2 DUP2 ADD SWAP2 SWAP1 SWAP2 MSTORE PUSH1 0x60 ADD JUMPDEST PUSH1 0x40 MLOAD DUP1 SWAP2 SUB SWAP1 RETURN JUMPDEST PUSH2 0x39A PUSH2 0x7B9 JUMP JUMPDEST PUSH1 0x40 MLOAD PUSH2 0x389 SWAP2 SWAP1 PUSH2 0x4314 JUMP JUMPDEST PUSH2 0x3BA PUSH2 0x3B5 CALLDATASIZE PUSH1 0x4 PUSH2 0x438E JUMP JUMPDEST PUSH2 0x84B JUMP JUMPDEST PUSH1 0x40 MLOAD SWAP1 ISZERO ISZERO DUP2 MSTORE PUSH1 0x20 ADD PUSH2 0x389 JUMP JUMPDEST PUSH2 0x3D2 PUSH2 0x865 JUMP JUMPDEST PUSH1 0x40 MLOAD SWAP1 DUP2 MSTORE PUSH1 0x20 ADD PUSH2 0x389 JUMP JUMPDEST PUSH2 0x3D2 PUSH2 0x3EE CALLDATASIZE PUSH1 0x4 PUSH2 0x43B8 JUMP JUMPDEST PUSH2 0x8E0 JUMP JUMPDEST PUSH1 0x2 SLOAD PUSH2 0x3D2 JUMP JUMPDEST PUSH2 0x3BA PUSH2 0x409 CALLDATASIZE PUSH1 0x4 PUSH2 0x43FA JUMP JUMPDEST PUSH2 0x8FB JUMP JUMPDEST PUSH2 0x3D2 PUSH2 0x41C CALLDATASIZE PUSH1 0x4 PUSH2 0x4436 JUMP JUMPDEST PUSH1 0x11 PUSH1 0x20 MSTORE PUSH1 0x0 SWAP1 DUP2 MSTORE PUSH1 0x40 SWAP1 KECCAK256 SLOAD DUP2 JUMP JUMPDEST PUSH2 0x3D2 PUSH2 0x43C CALLDATASIZE PUSH1 0x4 PUSH2 0x4436 JUMP JUMPDEST PUSH1 0x7 PUSH1 0x20 MSTORE PUSH1 0x0 SWAP1 DUP2 MSTORE PUSH1 0x40 SWAP1 KECCAK256 SLOAD DUP2 JUMP JUMPDEST PUSH1 0x40 MLOAD PUSH1 0x12 DUP2 MSTORE PUSH1 0x20 ADD PUSH2 0x389 JUMP JUMPDEST PUSH2 0x3D2 PUSH2 0x46B CALLDATASIZE PUSH1 0x4 PUSH2 0x4436 JUMP JUMPDEST PUSH1 0x8 PUSH1 0x20 MSTORE PUSH1 0x0 SWAP1 DUP2 MSTORE PUSH1 0x40 SWAP1 KECCAK256 SLOAD DUP2 JUMP JUMPDEST PUSH1 0x5 SLOAD PUSH2 0x49D SWAP1 PUSH20 0xFFFFFFFFFFFFFFFFFFFFFFFFFFFFFFFFFFFFFFFF AND DUP2 JUMP JUMPDEST PUSH1 0x40 MLOAD PUSH20 0xFFFFFFFFFFFFFFFFFFFFFFFFFFFFFFFFFFFFFFFF SWAP1 SWAP2 AND DUP2 MSTORE PUSH1 0x20 ADD PUSH2 0x389 JUMP JUMPDEST PUSH2 0x3BA PUSH2 0x4D0 CALLDATASIZE PUSH1 0x4 PUSH2 0x438E JUMP JUMPDEST PUSH2 0x921 JUMP JUMPDEST PUSH2 0x3D2 PUSH2 0x4E3 CALLDATASIZE PUSH1 0x4 PUSH2 0x4462 JUMP JUMPDEST PUSH2 0x96D JUMP JUMPDEST PUSH2 0x3D2 PUSH2 0x4F6 CALLDATASIZE PUSH1 0x4 PUSH2 0x44A2 JUMP JUMPDEST PUSH2 0xA6F JUMP JUMPDEST PUSH2 0x3D2 PUSH2 0x509 CALLDATASIZE PUSH1 0x4 PUSH2 0x44D5 JUMP JUMPDEST PUSH2 0xAA9 JUMP JUMPDEST PUSH2 0x3D2 PUSH2 0x51C CALLDATASIZE PUSH1 0x4 PUSH2 0x4529 JUMP JUMPDEST PUSH2 0xC25 JUMP JUMPDEST PUSH2 0x3D2 PUSH2 0x52F CALLDATASIZE PUSH1 0x4 PUSH2 0x457A JUMP JUMPDEST PUSH2 0xC5E JUMP JUMPDEST PUSH1 0xB SLOAD PUSH20 0xFFFFFFFFFFFFFFFFFFFFFFFFFFFFFFFFFFFFFFFF AND ISZERO PUSH2 0x3BA JUMP JUMPDEST PUSH2 0x3D2 PUSH2 0x561 CALLDATASIZE PUSH1 0x4 PUSH2 0x4606 JUMP JUMPDEST PUSH2 0xF92 JUMP JUMPDEST PUSH2 0x3D2 PUSH2 0x574 CALLDATASIZE PUSH1 0x4 PUSH2 0x4436 JUMP JUMPDEST PUSH20 0xFFFFFFFFFFFFFFFFFFFFFFFFFFFFFFFFFFFFFFFF AND PUSH1 0x0 SWAP1 DUP2 MSTORE PUSH1 0x20 DUP2 SWAP1 MSTORE PUSH1 0x40 SWAP1 KECCAK256 SLOAD SWAP1 JUMP JUMPDEST PUSH2 0x3D2 PUSH2 0x5AA CALLDATASIZE PUSH1 0x4 PUSH2 0x4635 JUMP JUMPDEST PUSH2 0x10D4 JUMP JUMPDEST PUSH2 0x3D2 PUSH2 0x5BD CALLDATASIZE PUSH1 0x4 PUSH2 0x438E JUMP JUMPDEST PUSH2 0x12A6 JUMP JUMPDEST PUSH2 0x5CA PUSH2 0x14E3 JUMP JUMPDEST STOP JUMPDEST PUSH2 0x3D2 PUSH2 0x5DA CALLDATASIZE PUSH1 0x4 PUSH2 0x4684 JUMP JUMPDEST PUSH2 0x159F JUMP JUMPDEST PUSH2 0x3D2 PUSH2 0x17D3 JUMP JUMPDEST PUSH2 0x3D2 PUSH2 0x5F5 CALLDATASIZE PUSH1 0x4 PUSH2 0x46FF JUMP JUMPDEST PUSH2 0x1851 JUMP JUMPDEST PUSH2 0x49D PUSH2 0x608 CALLDATASIZE PUSH1 0x4 PUSH2 0x42D7 JUMP JUMPDEST PUSH1 0x6 PUSH1 0x20 MSTORE PUSH1 0x0 SWAP1 DUP2 MSTORE PUSH1 0x40 SWAP1 KECCAK256 SLOAD PUSH20 0xFFFFFFFFFFFFFFFFFFFFFFFFFFFFFFFFFFFFFFFF AND DUP2 JUMP JUMPDEST PUSH2 0x3D2 PUSH1 0xC SLOAD DUP2 JUMP JUMPDEST PUSH2 0x5CA PUSH2 0x647 CALLDATASIZE PUSH1 0x4 PUSH2 0x42D7 JUMP JUMPDEST PUSH2 0x18FA JUMP JUMPDEST PUSH2 0x39A PUSH2 0x1B6D JUMP JUMPDEST PUSH2 0x5CA PUSH2 0x662 CALLDATASIZE PUSH1 0x4 PUSH2 0x47D8 JUMP JUMPDEST PUSH2 0x1B7C JUMP JUMPDEST PUSH2 0x3D2 PUSH2 0x675 CALLDATASIZE PUSH1 0x4 PUSH2 0x438E JUMP JUMPDEST PUSH2 0x1E60 JUMP JUMPDEST PUSH2 0x3D2 PUSH1 0x9 SLOAD DUP2 JUMP JUMPDEST PUSH2 0x3BA PUSH2 0x691 CALLDATASIZE PUSH1 0x4 PUSH2 0x438E JUMP JUMPDEST PUSH2 0x1E9C JUMP JUMPDEST PUSH2 0x3BA PUSH2 0x6A4 CALLDATASIZE PUSH1 0x4 PUSH2 0x438E JUMP JUMPDEST PUSH2 0x1F78 JUMP JUMPDEST PUSH2 0x3D2 PUSH2 0x6B7 CALLDATASIZE PUSH1 0x4 PUSH2 0x4462 JUMP JUMPDEST PUSH2 0x1F86 JUMP JUMPDEST PUSH2 0x5CA PUSH2 0x6CA CALLDATASIZE PUSH1 0x4 PUSH2 0x42D7 JUMP JUMPDEST PUSH2 0x205E JUMP JUMPDEST PUSH2 0x5CA PUSH2 0x6DD CALLDATASIZE PUSH1 0x4 PUSH2 0x48CB JUMP JUMPDEST PUSH2 0x219F JUMP JUMPDEST PUSH2 0x3D2 PUSH2 0x6F0 CALLDATASIZE PUSH1 0x4 PUSH2 0x48F9 JUMP JUMPDEST PUSH2 0x22A4 JUMP JUMPDEST PUSH2 0x5CA PUSH2 0x703 CALLDATASIZE PUSH1 0x4 PUSH2 0x42D7 JUMP JUMPDEST PUSH2 0x25E0 JUMP JUMPDEST PUSH1 0xB SLOAD PUSH2 0x49D SWAP1 PUSH20 0xFFFFFFFFFFFFFFFFFFFFFFFFFFFFFFFFFFFFFFFF AND DUP2 JUMP JUMPDEST PUSH2 0x3D2 PUSH2 0x736 CALLDATASIZE PUSH1 0x4 PUSH2 0x49BC JUMP JUMPDEST PUSH20 0xFFFFFFFFFFFFFFFFFFFFFFFFFFFFFFFFFFFFFFFF SWAP2 DUP3 AND PUSH1 0x0 SWAP1 DUP2 MSTORE PUSH1 0x1 PUSH1 0x20 SWAP1 DUP2 MSTORE PUSH1 0x40 DUP1 DUP4 KECCAK256 SWAP4 SWAP1 SWAP5 AND DUP3 MSTORE SWAP2 SWAP1 SWAP2 MSTORE KECCAK256 SLOAD SWAP1 JUMP JUMPDEST PUSH1 0x5 SLOAD PUSH2 0x3BA SWAP1 PUSH21 0x10000000000000000000000000000000000000000 SWAP1 DIV PUSH1 0xFF AND DUP2 JUMP JUMPDEST PUSH2 0x5CA PUSH2 0x7A1 CALLDATASIZE PUSH1 0x4 PUSH2 0x48CB JUMP JUMPDEST PUSH2 0x2830 JUMP JUMPDEST PUSH2 0x5CA PUSH2 0x7B4 CALLDATASIZE PUSH1 0x4 PUSH2 0x42D7 JUMP JUMPDEST PUSH2 0x2947 JUMP JUMPDEST PUSH1 0x60 PUSH1 0x15 DUP1 SLOAD PUSH2 0x7C8 SWAP1 PUSH2 0x49EF JUMP JUMPDEST DUP1 PUSH1 0x1F ADD PUSH1 0x20 DUP1 SWAP2 DIV MUL PUSH1 0x20 ADD PUSH1 0x40 MLOAD SWAP1 DUP2 ADD PUSH1 0x40 MSTORE DUP1 SWAP3 SWAP2 SWAP1 DUP2 DUP2 MSTORE PUSH1 0x20 ADD DUP3 DUP1 SLOAD PUSH2 0x7F4 SWAP1 PUSH2 0x49EF JUMP JUMPDEST DUP1 ISZERO PUSH2 0x841 JUMPI DUP1 PUSH1 0x1F LT PUSH2 0x816 JUMPI PUSH2 0x100 DUP1 DUP4 SLOAD DIV MUL DUP4 MSTORE SWAP2 PUSH1 0x20 ADD SWAP2 PUSH2 0x841 JUMP JUMPDEST DUP3 ADD SWAP2 SWAP1 PUSH1 0x0 MSTORE PUSH1 0x20 PUSH1 0x0 KECCAK256 SWAP1 JUMPDEST DUP2 SLOAD DUP2 MSTORE SWAP1 PUSH1 0x1 ADD SWAP1 PUSH1 0x20 ADD DUP1 DUP4 GT PUSH2 0x824 JUMPI DUP3 SWAP1 SUB PUSH1 0x1F AND DUP3 ADD SWAP2 JUMPDEST POP POP POP POP POP SWAP1 POP SWAP1 JUMP JUMPDEST PUSH1 0x0 CALLER PUSH2 0x859 DUP2 DUP6 DUP6 PUSH2 0x2A0B JUMP JUMPDEST PUSH1 0x1 SWAP2 POP POP JUMPDEST SWAP3 SWAP2 POP POP JUMP JUMPDEST PUSH1 0xC SLOAD PUSH1 0xE SLOAD PUSH1 0x0 SWAP2 SWAP1 PUSH2 0x87C SWAP1 PUSH3 0x15180 PUSH2 0x4A71 JUMP JUMPDEST TIMESTAMP GT ISZERO PUSH2 0x888 JUMPI SWAP2 SWAP1 POP JUMP JUMPDEST PUSH1 0x0 PUSH3 0x15180 PUSH1 0xE SLOAD TIMESTAMP PUSH2 0x89C SWAP2 SWAP1 PUSH2 0x4A84 JUMP JUMPDEST PUSH2 0x8A6 SWAP1 DUP5 PUSH2 0x4A97 JUMP JUMPDEST PUSH2 0x8B0 SWAP2 SWAP1 PUSH2 0x4ADD JUMP JUMPDEST SWAP1 POP DUP1 PUSH1 0xD SLOAD GT PUSH2 0x8C1 JUMPI POP SWAP2 SWAP1 POP JUMP JUMPDEST DUP1 PUSH1 0xD SLOAD PUSH2 0x8CF SWAP2 SWAP1 PUSH2 0x4A84 JUMP JUMPDEST PUSH2 0x8D9 SWAP1 DUP4 PUSH2 0x4A84 JUMP JUMPDEST SWAP3 POP POP POP SWAP1 JUMP JUMPDEST PUSH1 0x0 PUSH2 0x8F0 DUP6 DUP6 DUP6 DUP6 PUSH1 0x0 PUSH2 0xF92 JUMP JUMPDEST SWAP1 POP JUMPDEST SWAP5 SWAP4 POP POP POP POP JUMP JUMPDEST PUSH1 0x0 CALLER PUSH2 0x909 DUP6 DUP3 DUP6 PUSH2 0x2BBE JUMP JUMPDEST PUSH2 0x914 DUP6 DUP6 DUP6 PUSH2 0x2C8F JUMP JUMPDEST PUSH1 0x1 SWAP2 POP POP JUMPDEST SWAP4 SWAP3 POP POP POP JUMP JUMPDEST CALLER PUSH1 0x0 DUP2 DUP2 MSTORE PUSH1 0x1 PUSH1 0x20 SWAP1 DUP2 MSTORE PUSH1 0x40 DUP1 DUP4 KECCAK256 PUSH20 0xFFFFFFFFFFFFFFFFFFFFFFFFFFFFFFFFFFFFFFFF DUP8 AND DUP5 MSTORE SWAP1 SWAP2 MSTORE DUP2 KECCAK256 SLOAD SWAP1 SWAP2 SWAP1 PUSH2 0x859 SWAP1 DUP3 SWAP1 DUP7 SWAP1 PUSH2 0x968 SWAP1 DUP8 SWAP1 PUSH2 0x4A71 JUMP JUMPDEST PUSH2 0x2A0B JUMP JUMPDEST PUSH20 0xFFFFFFFFFFFFFFFFFFFFFFFFFFFFFFFFFFFFFFFF DUP4 AND PUSH1 0x0 DUP2 DUP2 MSTORE PUSH1 0x11 PUSH1 0x20 MSTORE PUSH1 0x40 DUP1 DUP3 KECCAK256 SLOAD SWAP1 MLOAD PUSH32 0x70A0823100000000000000000000000000000000000000000000000000000000 DUP2 MSTORE ADDRESS PUSH1 0x4 DUP3 ADD MSTORE SWAP2 SWAP3 DUP4 SWAP3 PUSH4 0x70A08231 SWAP1 PUSH1 0x24 ADD PUSH1 0x20 PUSH1 0x40 MLOAD DUP1 DUP4 SUB DUP2 DUP7 GAS STATICCALL ISZERO DUP1 ISZERO PUSH2 0x9E9 JUMPI RETURNDATASIZE PUSH1 0x0 DUP1 RETURNDATACOPY RETURNDATASIZE PUSH1 0x0 REVERT JUMPDEST POP POP POP POP PUSH1 0x40 MLOAD RETURNDATASIZE PUSH1 0x1F NOT PUSH1 0x1F DUP3 ADD AND DUP3 ADD DUP1 PUSH1 0x40 MSTORE POP DUP2 ADD SWAP1 PUSH2 0xA0D SWAP2 SWAP1 PUSH2 0x4AF1 JUMP JUMPDEST PUSH2 0xA17 SWAP2 SWAP1 PUSH2 0x4A84 JUMP JUMPDEST PUSH20 0xFFFFFFFFFFFFFFFFFFFFFFFFFFFFFFFFFFFFFFFF DUP7 AND PUSH1 0x0 SWAP1 DUP2 MSTORE PUSH1 0x8 PUSH1 0x20 MSTORE PUSH1 0x40 SWAP1 KECCAK256 SLOAD SWAP1 SWAP2 POP DUP4 ISZERO PUSH2 0xA5A JUMPI PUSH2 0xA51 DUP6 DUP4 DUP4 PUSH2 0xC25 JUMP JUMPDEST SWAP3 POP POP POP PUSH2 0x91A JUMP JUMPDEST PUSH2 0xA65 DUP6 DUP4 DUP4 PUSH2 0x2F42 JUMP JUMPDEST SWAP7 SWAP6 POP POP POP POP POP POP JUMP JUMPDEST PUSH20 0xFFFFFFFFFFFFFFFFFFFFFFFFFFFFFFFFFFFFFFFF DUP4 AND PUSH1 0x0 SWAP1 DUP2 MSTORE PUSH1 0x7 PUSH1 0x20 MSTORE PUSH1 0x40 DUP2 KECCAK256 SLOAD PUSH2 0xAA0 DUP5 DUP3 DUP6 PUSH2 0x2F82 JUMP JUMPDEST SWAP6 SWAP5 POP POP POP POP POP JUMP JUMPDEST PUSH1 0x5 SLOAD PUSH1 0x0 SWAP1 PUSH20 0xFFFFFFFFFFFFFFFFFFFFFFFFFFFFFFFFFFFFFFFF AND CALLER EQ PUSH2 0xAD0 JUMPI PUSH1 0x0 DUP1 REVERT JUMPDEST PUSH1 0x0 DUP7 DUP2 MSTORE PUSH1 0x6 PUSH1 0x20 MSTORE PUSH1 0x40 SWAP1 KECCAK256 SLOAD PUSH20 0xFFFFFFFFFFFFFFFFFFFFFFFFFFFFFFFFFFFFFFFF AND PUSH2 0xAFE DUP6 PUSH2 0x2FA3 JUMP JUMPDEST PUSH1 0x0 PUSH2 0xB0B DUP3 DUP8 DUP7 PUSH2 0x96D JUMP JUMPDEST SWAP1 POP DUP1 DUP6 GT ISZERO PUSH1 0x40 MLOAD DUP1 PUSH1 0x40 ADD PUSH1 0x40 MSTORE DUP1 PUSH1 0x18 DUP2 MSTORE PUSH1 0x20 ADD PUSH32 0x496E73756666696369656E7420737761702072657475726E0000000000000000 DUP2 MSTORE POP SWAP1 PUSH2 0xB88 JUMPI PUSH1 0x40 MLOAD PUSH32 0x8C379A000000000000000000000000000000000000000000000000000000000 DUP2 MSTORE PUSH1 0x4 ADD PUSH2 0xB7F SWAP2 SWAP1 PUSH2 0x4314 JUMP JUMPDEST PUSH1 0x40 MLOAD DUP1 SWAP2 SUB SWAP1 REVERT JUMPDEST POP PUSH2 0xBAA PUSH20 0xFFFFFFFFFFFFFFFFFFFFFFFFFFFFFFFFFFFFFFFF DUP4 AND DUP9 DUP4 PUSH2 0x312C JUMP JUMPDEST DUP2 PUSH20 0xFFFFFFFFFFFFFFFFFFFFFFFFFFFFFFFFFFFFFFFF AND DUP8 PUSH20 0xFFFFFFFFFFFFFFFFFFFFFFFFFFFFFFFFFFFFFFFF AND PUSH32 0x554DC1931A29064B841D92D1CF54855848F1CE32738684564A0A7C03F15A7200 DUP9 DUP5 PUSH1 0x40 MLOAD PUSH2 0xC12 SWAP3 SWAP2 SWAP1 SWAP2 DUP3 MSTORE PUSH1 0x20 DUP3 ADD MSTORE PUSH1 0x40 ADD SWAP1 JUMP JUMPDEST PUSH1 0x40 MLOAD DUP1 SWAP2 SUB SWAP1 LOG3 SWAP8 SWAP7 POP POP POP POP POP POP POP JUMP JUMPDEST PUSH1 0x0 DUP1 PUSH2 0xC3A DUP6 PUSH8 0xB17217F7D1CF79AC PUSH2 0x3205 JUMP JUMPDEST SWAP1 POP PUSH2 0xC4A DUP2 PUSH1 0x40 DUP6 SWAP1 SHL PUSH2 0x4A71 JUMP JUMPDEST PUSH2 0xC54 DUP3 DUP7 PUSH2 0x4A97 JUMP JUMPDEST PUSH2 0xAA0 SWAP2 SWAP1 PUSH2 0x4ADD JUMP JUMPDEST PUSH1 0x0 DUP1 PUSH2 0xC86 DUP9 PUSH2 0xC71 DUP9 PUSH1 0xA SLOAD PUSH2 0x3205 JUMP JUMPDEST PUSH2 0xC7B SWAP1 DUP10 PUSH2 0x4A84 JUMP JUMPDEST PUSH1 0x1 DUP8 AND ISZERO ISZERO PUSH2 0x1F86 JUMP JUMPDEST PUSH1 0x5 SLOAD PUSH1 0x13 SLOAD SWAP2 SWAP3 POP PUSH20 0xFFFFFFFFFFFFFFFFFFFFFFFFFFFFFFFFFFFFFFFF AND SWAP1 PUSH4 0x8E133A86 SWAP1 DUP14 SWAP1 DUP14 SWAP1 DUP14 SWAP1 DUP13 SWAP1 DUP8 SWAP1 DUP13 SWAP1 PUSH1 0x2 DUP14 AND ISZERO ISZERO SWAP1 PUSH2 0xCCF SWAP1 PUSH5 0x100000000 SWAP1 PUSH2 0x4B0A JUMP JUMPDEST PUSH1 0x40 MLOAD PUSH32 0xFFFFFFFF00000000000000000000000000000000000000000000000000000000 PUSH1 0xE0 DUP12 SWAP1 SHL AND DUP2 MSTORE PUSH4 0xFFFFFFFF SWAP9 DUP10 AND PUSH1 0x4 DUP3 ADD MSTORE PUSH1 0x24 DUP2 ADD SWAP8 SWAP1 SWAP8 MSTORE PUSH1 0x44 DUP8 ADD SWAP6 SWAP1 SWAP6 MSTORE PUSH1 0xFF SWAP1 SWAP4 AND PUSH1 0x64 DUP7 ADD MSTORE PUSH1 0x84 DUP6 ADD SWAP2 SWAP1 SWAP2 MSTORE PUSH1 0xA4 DUP5 ADD MSTORE ISZERO ISZERO PUSH1 0xC4 DUP4 ADD MSTORE SWAP1 SWAP2 AND PUSH1 0xE4 DUP3 ADD MSTORE PUSH2 0x104 ADD PUSH1 0x0 PUSH1 0x40 MLOAD DUP1 DUP4 SUB DUP2 PUSH1 0x0 DUP8 DUP1 EXTCODESIZE ISZERO DUP1 ISZERO PUSH2 0xD5C JUMPI PUSH1 0x0 DUP1 REVERT JUMPDEST POP GAS CALL ISZERO DUP1 ISZERO PUSH2 0xD70 JUMPI RETURNDATASIZE PUSH1 0x0 DUP1 RETURNDATACOPY RETURNDATASIZE PUSH1 0x0 REVERT JUMPDEST POP PUSH2 0xD97 SWAP3 POP POP POP PUSH20 0xFFFFFFFFFFFFFFFFFFFFFFFFFFFFFFFFFFFFFFFF DUP10 AND CALLER ADDRESS DUP10 PUSH2 0x3290 JUMP JUMPDEST PUSH20 0xFFFFFFFFFFFFFFFFFFFFFFFFFFFFFFFFFFFFFFFF DUP9 AND PUSH1 0x0 SWAP1 DUP2 MSTORE PUSH1 0x11 PUSH1 0x20 MSTORE PUSH1 0x40 DUP2 KECCAK256 DUP1 SLOAD DUP9 SWAP3 SWAP1 PUSH2 0xDCC SWAP1 DUP5 SWAP1 PUSH2 0x4A71 JUMP JUMPDEST SWAP3 POP POP DUP2 SWAP1 SSTORE POP PUSH1 0x40 MLOAD DUP1 PUSH1 0x60 ADD PUSH1 0x40 MSTORE DUP1 DUP5 PUSH20 0xFFFFFFFFFFFFFFFFFFFFFFFFFFFFFFFFFFFFFFFF AND DUP2 MSTORE PUSH1 0x20 ADD DUP8 DUP2 MSTORE PUSH1 0x20 ADD DUP10 PUSH20 0xFFFFFFFFFFFFFFFFFFFFFFFFFFFFFFFFFFFFFFFF AND DUP2 MSTORE POP PUSH1 0x12 PUSH1 0x0 PUSH5 0x100000000 PUSH1 0x13 SLOAD PUSH2 0xE31 SWAP2 SWAP1 PUSH2 0x4B0A JUMP JUMPDEST DUP2 MSTORE PUSH1 0x20 DUP1 DUP3 ADD SWAP3 SWAP1 SWAP3 MSTORE PUSH1 0x40 SWAP1 DUP2 ADD PUSH1 0x0 KECCAK256 DUP4 MLOAD DUP2 SLOAD PUSH20 0xFFFFFFFFFFFFFFFFFFFFFFFFFFFFFFFFFFFFFFFF SWAP2 DUP3 AND PUSH32 0xFFFFFFFFFFFFFFFFFFFFFFFF0000000000000000000000000000000000000000 SWAP2 DUP3 AND OR DUP4 SSTORE SWAP4 DUP6 ADD MLOAD PUSH1 0x1 DUP4 ADD SSTORE SWAP4 SWAP1 SWAP2 ADD MLOAD PUSH1 0x2 SWAP1 SWAP2 ADD DUP1 SLOAD SWAP2 SWAP1 SWAP4 AND SWAP2 AND OR SWAP1 SSTORE PUSH1 0xD SLOAD DUP2 DUP2 GT ISZERO PUSH2 0xECD JUMPI DUP2 PUSH1 0xD PUSH1 0x0 DUP3 DUP3 SLOAD PUSH2 0xEC2 SWAP2 SWAP1 PUSH2 0x4A84 JUMP JUMPDEST SWAP1 SWAP2 SSTORE POP PUSH2 0xED9 SWAP1 POP JUMP JUMPDEST DUP1 ISZERO PUSH2 0xED9 JUMPI PUSH1 0x0 PUSH1 0xD SSTORE JUMPDEST POP DUP8 PUSH20 0xFFFFFFFFFFFFFFFFFFFFFFFFFFFFFFFFFFFFFFFF AND DUP10 DUP12 PUSH32 0x2483AC7794A891A1DA9E35AF72035937919C140AB4E1FEC8FB8041DBFB439362 DUP11 DUP11 DUP7 PUSH2 0xF23 DUP14 PUSH1 0xA SLOAD PUSH2 0x3205 JUMP JUMPDEST PUSH5 0x100000000 PUSH1 0x13 SLOAD PUSH2 0xF36 SWAP2 SWAP1 PUSH2 0x4B0A JUMP JUMPDEST PUSH1 0x40 DUP1 MLOAD PUSH1 0xFF SWAP1 SWAP7 AND DUP7 MSTORE PUSH1 0x20 DUP7 ADD SWAP5 SWAP1 SWAP5 MSTORE SWAP3 DUP5 ADD SWAP2 SWAP1 SWAP2 MSTORE PUSH1 0x60 DUP4 ADD MSTORE PUSH4 0xFFFFFFFF AND PUSH1 0x80 DUP3 ADD MSTORE PUSH1 0xA0 ADD PUSH1 0x40 MLOAD DUP1 SWAP2 SUB SWAP1 LOG4 PUSH1 0x1 PUSH1 0x13 PUSH1 0x0 DUP3 DUP3 SLOAD PUSH2 0xF7E SWAP2 SWAP1 PUSH2 0x4A71 JUMP JUMPDEST SWAP1 SWAP2 SSTORE POP SWAP1 SWAP12 SWAP11 POP POP POP POP POP POP POP POP POP POP POP JUMP JUMPDEST PUSH1 0x0 DUP1 PUSH2 0xFA1 DUP6 PUSH1 0xA SLOAD PUSH2 0x3205 JUMP JUMPDEST SWAP1 POP PUSH1 0x0 PUSH2 0xFBA DUP9 DUP9 PUSH2 0xFB4 DUP6 DUP11 PUSH2 0x4A84 JUMP JUMPDEST DUP8 PUSH2 0x10D4 JUMP JUMPDEST SWAP1 POP DUP5 DUP2 LT ISZERO PUSH1 0x40 MLOAD DUP1 PUSH1 0x40 ADD PUSH1 0x40 MSTORE DUP1 PUSH1 0x18 DUP2 MSTORE PUSH1 0x20 ADD PUSH32 0x496E73756666696369656E7420737761702072657475726E0000000000000000 DUP2 MSTORE POP SWAP1 PUSH2 0x102E JUMPI PUSH1 0x40 MLOAD PUSH32 0x8C379A000000000000000000000000000000000000000000000000000000000 DUP2 MSTORE PUSH1 0x4 ADD PUSH2 0xB7F SWAP2 SWAP1 PUSH2 0x4314 JUMP JUMPDEST POP PUSH2 0x1050 PUSH20 0xFFFFFFFFFFFFFFFFFFFFFFFFFFFFFFFFFFFFFFFF DUP9 AND CALLER DUP4 PUSH2 0x312C JUMP JUMPDEST PUSH2 0x1072 PUSH20 0xFFFFFFFFFFFFFFFFFFFFFFFFFFFFFFFFFFFFFFFF DUP10 AND CALLER ADDRESS DUP10 PUSH2 0x3290 JUMP JUMPDEST PUSH1 0x40 DUP1 MLOAD CALLER DUP2 MSTORE PUSH1 0x20 DUP2 ADD DUP9 SWAP1 MSTORE SWAP1 DUP2 ADD DUP3 SWAP1 MSTORE PUSH1 0x60 DUP2 ADD DUP4 SWAP1 MSTORE PUSH20 0xFFFFFFFFFFFFFFFFFFFFFFFFFFFFFFFFFFFFFFFF DUP1 DUP10 AND SWAP2 SWAP1 DUP11 AND SWAP1 PUSH32 0x967858F4C15E98F1F59E7C3C41673484D18A5FAC00792502A52E51C780B8D276 SWAP1 PUSH1 0x80 ADD PUSH2 0xC12 JUMP JUMPDEST PUSH1 0x40 MLOAD PUSH32 0x70A0823100000000000000000000000000000000000000000000000000000000 DUP2 MSTORE ADDRESS PUSH1 0x4 DUP3 ADD MSTORE PUSH1 0x0 SWAP1 DUP2 SWAP1 PUSH20 0xFFFFFFFFFFFFFFFFFFFFFFFFFFFFFFFFFFFFFFFF DUP8 AND SWAP1 PUSH4 0x70A08231 SWAP1 PUSH1 0x24 ADD PUSH1 0x20 PUSH1 0x40 MLOAD DUP1 DUP4 SUB DUP2 DUP7 GAS STATICCALL ISZERO DUP1 ISZERO PUSH2 0x1143 JUMPI RETURNDATASIZE PUSH1 0x0 DUP1 RETURNDATACOPY RETURNDATASIZE PUSH1 0x0 REVERT JUMPDEST POP POP POP POP PUSH1 0x40 MLOAD RETURNDATASIZE PUSH1 0x1F NOT PUSH1 0x1F DUP3 ADD AND DUP3 ADD DUP1 PUSH1 0x40 MSTORE POP DUP2 ADD SWAP1 PUSH2 0x1167 SWAP2 SWAP1 PUSH2 0x4AF1 JUMP JUMPDEST PUSH20 0xFFFFFFFFFFFFFFFFFFFFFFFFFFFFFFFFFFFFFFFF DUP7 AND PUSH1 0x0 DUP2 DUP2 MSTORE PUSH1 0x11 PUSH1 0x20 MSTORE PUSH1 0x40 DUP1 DUP3 KECCAK256 SLOAD SWAP1 MLOAD PUSH32 0x70A0823100000000000000000000000000000000000000000000000000000000 DUP2 MSTORE ADDRESS PUSH1 0x4 DUP3 ADD MSTORE SWAP4 SWAP5 POP SWAP1 SWAP3 SWAP1 SWAP2 SWAP1 PUSH4 0x70A08231 SWAP1 PUSH1 0x24 ADD PUSH1 0x20 PUSH1 0x40 MLOAD DUP1 DUP4 SUB DUP2 DUP7 GAS STATICCALL ISZERO DUP1 ISZERO PUSH2 0x11E7 JUMPI RETURNDATASIZE PUSH1 0x0 DUP1 RETURNDATACOPY RETURNDATASIZE PUSH1 0x0 REVERT JUMPDEST POP POP POP POP PUSH1 0x40 MLOAD RETURNDATASIZE PUSH1 0x1F NOT PUSH1 0x1F DUP3 ADD AND DUP3 ADD DUP1 PUSH1 0x40 MSTORE POP DUP2 ADD SWAP1 PUSH2 0x120B SWAP2 SWAP1 PUSH2 0x4AF1 JUMP JUMPDEST PUSH2 0x1215 SWAP2 SWAP1 PUSH2 0x4A84 JUMP JUMPDEST PUSH20 0xFFFFFFFFFFFFFFFFFFFFFFFFFFFFFFFFFFFFFFFF DUP1 DUP10 AND PUSH1 0x0 SWAP1 DUP2 MSTORE PUSH1 0x8 PUSH1 0x20 MSTORE PUSH1 0x40 DUP1 DUP3 KECCAK256 SLOAD SWAP3 DUP11 AND DUP3 MSTORE SWAP1 KECCAK256 SLOAD SWAP2 SWAP3 POP SWAP1 DUP1 DUP3 SUB PUSH2 0x1279 JUMPI PUSH2 0x125A DUP8 DUP6 PUSH2 0x4A71 JUMP JUMPDEST PUSH2 0x1264 DUP9 DUP6 PUSH2 0x4A97 JUMP JUMPDEST PUSH2 0x126E SWAP2 SWAP1 PUSH2 0x4ADD JUMP JUMPDEST SWAP5 POP POP POP POP POP PUSH2 0x8F3 JUMP JUMPDEST DUP6 ISZERO PUSH2 0x128C JUMPI PUSH2 0x126E DUP8 DUP6 DUP6 DUP6 DUP6 PUSH2 0x32EE JUMP JUMPDEST PUSH2 0x1299 DUP8 DUP6 DUP6 DUP6 DUP6 PUSH2 0x3338 JUMP JUMPDEST SWAP10 SWAP9 POP POP POP POP POP POP POP POP POP JUMP JUMPDEST PUSH1 0x5 SLOAD PUSH1 0x0 SWAP1 PUSH20 0xFFFFFFFFFFFFFFFFFFFFFFFFFFFFFFFFFFFFFFFF AND CALLER EQ PUSH2 0x12CD JUMPI PUSH1 0x0 DUP1 REVERT JUMPDEST PUSH1 0x9 SLOAD PUSH1 0x0 DUP1 DUP1 MSTORE PUSH1 0x6 PUSH1 0x20 MSTORE PUSH32 0x54CDD369E4E8A8515E52CA72EC816C2101831AD1F18BF44102ED171459C9B4F8 SLOAD PUSH20 0xFFFFFFFFFFFFFFFFFFFFFFFFFFFFFFFFFFFFFFFF AND SWAP1 PUSH2 0x131E DUP3 DUP7 DUP6 PUSH2 0xA6F JUMP JUMPDEST SWAP1 POP PUSH1 0x0 PUSH2 0x132B PUSH1 0x2 SLOAD SWAP1 JUMP JUMPDEST PUSH20 0xFFFFFFFFFFFFFFFFFFFFFFFFFFFFFFFFFFFFFFFF DUP5 AND PUSH1 0x0 SWAP1 DUP2 MSTORE PUSH1 0x7 PUSH1 0x20 MSTORE PUSH1 0x40 DUP2 KECCAK256 SLOAD SWAP2 SWAP3 POP SWAP1 PUSH2 0x135F DUP4 DUP6 PUSH2 0x4A97 JUMP JUMPDEST PUSH2 0x1369 SWAP2 SWAP1 PUSH2 0x4ADD JUMP JUMPDEST PUSH20 0xFFFFFFFFFFFFFFFFFFFFFFFFFFFFFFFFFFFFFFFF DUP6 AND PUSH1 0x0 SWAP1 DUP2 MSTORE PUSH1 0x7 PUSH1 0x20 MSTORE PUSH1 0x40 DUP2 KECCAK256 DUP1 SLOAD SWAP3 SWAP4 POP DUP6 SWAP3 SWAP1 SWAP2 SWAP1 PUSH2 0x13A3 SWAP1 DUP5 SWAP1 PUSH2 0x4A71 JUMP JUMPDEST SWAP1 SWAP2 SSTORE POP PUSH1 0x1 SWAP1 POP JUMPDEST PUSH1 0x3 DUP2 LT ISZERO PUSH2 0x1471 JUMPI PUSH1 0x0 DUP2 DUP2 MSTORE PUSH1 0x6 PUSH1 0x20 MSTORE PUSH1 0x40 SWAP1 KECCAK256 SLOAD PUSH20 0xFFFFFFFFFFFFFFFFFFFFFFFFFFFFFFFFFFFFFFFF AND DUP1 PUSH2 0x13E5 JUMPI POP PUSH2 0x1471 JUMP JUMPDEST PUSH20 0xFFFFFFFFFFFFFFFFFFFFFFFFFFFFFFFFFFFFFFFF DUP2 AND PUSH1 0x0 SWAP1 DUP2 MSTORE PUSH1 0x7 PUSH1 0x20 MSTORE PUSH1 0x40 SWAP1 KECCAK256 SLOAD DUP5 SWAP1 PUSH2 0x1418 SWAP1 DUP6 SWAP1 PUSH2 0x4A97 JUMP JUMPDEST PUSH2 0x1422 SWAP2 SWAP1 PUSH2 0x4ADD JUMP JUMPDEST PUSH20 0xFFFFFFFFFFFFFFFFFFFFFFFFFFFFFFFFFFFFFFFF DUP3 AND PUSH1 0x0 SWAP1 DUP2 MSTORE PUSH1 0x7 PUSH1 0x20 MSTORE PUSH1 0x40 DUP2 KECCAK256 DUP1 SLOAD SWAP1 SWAP2 SWAP1 PUSH2 0x1457 SWAP1 DUP5 SWAP1 PUSH2 0x4A71 JUMP JUMPDEST SWAP1 SWAP2 SSTORE POP DUP3 SWAP2 POP PUSH2 0x1469 SWAP1 POP DUP2 PUSH2 0x4B1E JUMP JUMPDEST SWAP2 POP POP PUSH2 0x13AC JUMP JUMPDEST POP PUSH2 0x147B DUP2 PUSH2 0x3391 JUMP JUMPDEST PUSH2 0x1485 DUP9 DUP3 PUSH2 0x3532 JUMP JUMPDEST PUSH1 0x40 DUP1 MLOAD DUP9 DUP2 MSTORE PUSH1 0x20 DUP2 ADD DUP4 SWAP1 MSTORE ADDRESS SWAP2 PUSH20 0xFFFFFFFFFFFFFFFFFFFFFFFFFFFFFFFFFFFFFFFF DUP12 AND SWAP2 PUSH32 0x554DC1931A29064B841D92D1CF54855848F1CE32738684564A0A7C03F15A7200 SWAP2 ADD PUSH1 0x40 MLOAD DUP1 SWAP2 SUB SWAP1 LOG3 SWAP8 SWAP7 POP POP POP POP POP POP POP JUMP JUMPDEST PUSH1 0xB SLOAD PUSH20 0xFFFFFFFFFFFFFFFFFFFFFFFFFFFFFFFFFFFFFFFF AND ORIGIN EQ DUP1 PUSH2 0x1520 JUMPI POP PUSH1 0xB SLOAD PUSH20 0xFFFFFFFFFFFFFFFFFFFFFFFFFFFFFFFFFFFFFFFF AND CALLER EQ JUMPDEST PUSH2 0x1529 JUMPI PUSH1 0x0 DUP1 REVERT JUMPDEST PUSH1 0x5 SLOAD PUSH21 0x10000000000000000000000000000000000000000 SWAP1 DIV PUSH1 0xFF AND ISZERO PUSH2 0x1575 JUMPI PUSH1 0x5 DUP1 SLOAD PUSH32 0xFFFFFFFFFFFFFFFFFFFFFFFF0000000000000000000000000000000000000000 AND SWAP1 SSTORE JUMPDEST PUSH1 0xB DUP1 SLOAD PUSH32 0xFFFFFFFFFFFFFFFFFFFFFFFF0000000000000000000000000000000000000000 AND SWAP1 SSTORE JUMP JUMPDEST PUSH1 0x0 DUP1 PUSH2 0x15AB PUSH1 0x2 SLOAD SWAP1 JUMP JUMPDEST SWAP1 POP PUSH2 0x15B7 CALLER DUP5 PUSH2 0x3652 JUMP JUMPDEST PUSH1 0x0 DUP1 JUMPDEST PUSH1 0x3 DUP2 LT ISZERO PUSH2 0x169D JUMPI PUSH1 0x0 DUP2 DUP2 MSTORE PUSH1 0x6 PUSH1 0x20 MSTORE PUSH1 0x40 SWAP1 KECCAK256 SLOAD PUSH20 0xFFFFFFFFFFFFFFFFFFFFFFFFFFFFFFFFFFFFFFFF AND DUP1 PUSH2 0x15F4 JUMPI POP PUSH2 0x169D JUMP JUMPDEST PUSH20 0xFFFFFFFFFFFFFFFFFFFFFFFFFFFFFFFFFFFFFFFF DUP2 AND PUSH1 0x0 SWAP1 DUP2 MSTORE PUSH1 0x7 PUSH1 0x20 MSTORE PUSH1 0x40 DUP2 KECCAK256 SLOAD DUP6 SWAP1 PUSH2 0x1627 SWAP1 DUP10 SWAP1 PUSH2 0x4A97 JUMP JUMPDEST PUSH2 0x1631 SWAP2 SWAP1 PUSH2 0x4ADD JUMP JUMPDEST SWAP1 POP PUSH2 0x163D DUP3 DUP3 PUSH2 0x1E60 JUMP JUMPDEST PUSH2 0x1647 SWAP1 DUP6 PUSH2 0x4A71 JUMP JUMPDEST PUSH20 0xFFFFFFFFFFFFFFFFFFFFFFFFFFFFFFFFFFFFFFFF DUP4 AND PUSH1 0x0 SWAP1 DUP2 MSTORE PUSH1 0x7 PUSH1 0x20 MSTORE PUSH1 0x40 DUP2 KECCAK256 DUP1 SLOAD SWAP3 SWAP7 POP DUP4 SWAP3 SWAP1 SWAP2 SWAP1 PUSH2 0x1681 SWAP1 DUP5 SWAP1 PUSH2 0x4A84 JUMP JUMPDEST SWAP3 POP POP DUP2 SWAP1 SSTORE POP POP POP DUP1 DUP1 PUSH2 0x1695 SWAP1 PUSH2 0x4B1E JUMP JUMPDEST SWAP2 POP POP PUSH2 0x15BB JUMP JUMPDEST POP PUSH1 0x5 SLOAD PUSH1 0x40 MLOAD PUSH32 0xE55770F800000000000000000000000000000000000000000000000000000000 DUP2 MSTORE PUSH1 0x4 DUP2 ADD DUP10 SWAP1 MSTORE PUSH1 0x24 DUP2 ADD DUP9 SWAP1 MSTORE PUSH1 0x44 DUP2 ADD DUP8 SWAP1 MSTORE PUSH1 0x64 DUP2 ADD DUP4 SWAP1 MSTORE CALLER PUSH1 0x84 DUP3 ADD MSTORE PUSH20 0xFFFFFFFFFFFFFFFFFFFFFFFFFFFFFFFFFFFFFFFF SWAP1 SWAP2 AND SWAP1 PUSH4 0xE55770F8 SWAP1 PUSH1 0xA4 ADD PUSH1 0x0 PUSH1 0x40 MLOAD DUP1 DUP4 SUB DUP2 PUSH1 0x0 DUP8 DUP1 EXTCODESIZE ISZERO DUP1 ISZERO PUSH2 0x1725 JUMPI PUSH1 0x0 DUP1 REVERT JUMPDEST POP GAS CALL ISZERO DUP1 ISZERO PUSH2 0x1739 JUMPI RETURNDATASIZE PUSH1 0x0 DUP1 RETURNDATACOPY RETURNDATASIZE PUSH1 0x0 REVERT JUMPDEST POP POP PUSH1 0xF SLOAD SWAP2 POP POP DUP5 DUP2 GT ISZERO PUSH2 0x1766 JUMPI DUP5 PUSH1 0xF PUSH1 0x0 DUP3 DUP3 SLOAD PUSH2 0x175B SWAP2 SWAP1 PUSH2 0x4A84 JUMP JUMPDEST SWAP1 SWAP2 SSTORE POP PUSH2 0x1772 SWAP1 POP JUMP JUMPDEST DUP1 ISZERO PUSH2 0x1772 JUMPI PUSH1 0x0 PUSH1 0xF SSTORE JUMPDEST PUSH1 0x40 DUP1 MLOAD PUSH1 0xFF DUP2 MSTORE PUSH1 0x20 DUP2 ADD DUP8 SWAP1 MSTORE SWAP1 DUP2 ADD DUP4 SWAP1 MSTORE PUSH1 0x0 PUSH1 0x60 DUP3 ADD DUP2 SWAP1 MSTORE PUSH1 0x80 DUP3 ADD MSTORE ADDRESS SWAP1 DUP8 SWAP1 DUP10 SWAP1 PUSH32 0x2483AC7794A891A1DA9E35AF72035937919C140AB4E1FEC8FB8041DBFB439362 SWAP1 PUSH1 0xA0 ADD PUSH1 0x40 MLOAD DUP1 SWAP2 SUB SWAP1 LOG4 POP SWAP7 SWAP6 POP POP POP POP POP POP JUMP JUMPDEST PUSH1 0x0 DUP1 PUSH1 0x2 PUSH2 0x17E1 PUSH1 0x2 SLOAD SWAP1 JUMP JUMPDEST PUSH2 0x17EB SWAP2 SWAP1 PUSH2 0x4ADD JUMP JUMPDEST SWAP1 POP PUSH1 0x10 SLOAD PUSH3 0x15180 PUSH2 0x17FE SWAP2 SWAP1 PUSH2 0x4A71 JUMP JUMPDEST TIMESTAMP GT ISZERO PUSH2 0x180A JUMPI SWAP2 SWAP1 POP JUMP JUMPDEST PUSH1 0x0 PUSH3 0x15180 PUSH1 0x10 SLOAD TIMESTAMP PUSH2 0x181E SWAP2 SWAP1 PUSH2 0x4A84 JUMP JUMPDEST PUSH2 0x1828 SWAP1 DUP5 PUSH2 0x4A97 JUMP JUMPDEST PUSH2 0x1832 SWAP2 SWAP1 PUSH2 0x4ADD JUMP JUMPDEST SWAP1 POP DUP1 PUSH1 0xF SLOAD GT PUSH2 0x1843 JUMPI POP SWAP2 SWAP1 POP JUMP JUMPDEST DUP1 PUSH1 0xF SLOAD PUSH2 0x8CF SWAP2 SWAP1 PUSH2 0x4A84 JUMP JUMPDEST PUSH1 0x0 DUP1 PUSH2 0x1861 DUP11 DUP11 DUP11 DUP11 DUP11 PUSH2 0xAA9 JUMP JUMPDEST PUSH1 0x40 MLOAD PUSH32 0xDC0913AC00000000000000000000000000000000000000000000000000000000 DUP2 MSTORE SWAP1 SWAP2 POP PUSH20 0xFFFFFFFFFFFFFFFFFFFFFFFFFFFFFFFFFFFFFFFF DUP7 AND SWAP1 PUSH4 0xDC0913AC SWAP1 PUSH2 0x18BA SWAP1 DUP5 SWAP1 DUP9 SWAP1 DUP9 SWAP1 PUSH1 0x4 ADD PUSH2 0x4B9F JUMP JUMPDEST PUSH1 0x0 PUSH1 0x40 MLOAD DUP1 DUP4 SUB DUP2 PUSH1 0x0 DUP8 DUP1 EXTCODESIZE ISZERO DUP1 ISZERO PUSH2 0x18D4 JUMPI PUSH1 0x0 DUP1 REVERT JUMPDEST POP GAS CALL ISZERO DUP1 ISZERO PUSH2 0x18E8 JUMPI RETURNDATASIZE PUSH1 0x0 DUP1 RETURNDATACOPY RETURNDATASIZE PUSH1 0x0 REVERT JUMPDEST POP SWAP3 SWAP13 SWAP12 POP POP POP POP POP POP POP POP POP POP POP POP JUMP JUMPDEST PUSH2 0x1904 PUSH1 0x0 PUSH2 0x3391 JUMP JUMPDEST PUSH1 0x0 PUSH2 0x190F PUSH1 0x2 SLOAD SWAP1 JUMP JUMPDEST SWAP1 POP PUSH2 0x191B CALLER DUP4 PUSH2 0x3652 JUMP JUMPDEST PUSH1 0x40 DUP1 MLOAD PUSH1 0x3 DUP1 DUP3 MSTORE PUSH1 0x80 DUP3 ADD SWAP1 SWAP3 MSTORE PUSH1 0x0 SWAP2 PUSH1 0x20 DUP3 ADD PUSH1 0x60 DUP1 CALLDATASIZE DUP4 CALLDATACOPY ADD SWAP1 POP POP SWAP1 POP PUSH1 0x0 JUMPDEST PUSH1 0x3 DUP2 LT ISZERO PUSH2 0x1B17 JUMPI PUSH1 0x0 DUP2 DUP2 MSTORE PUSH1 0x6 PUSH1 0x20 MSTORE PUSH1 0x40 SWAP1 KECCAK256 SLOAD PUSH20 0xFFFFFFFFFFFFFFFFFFFFFFFFFFFFFFFFFFFFFFFF AND DUP1 PUSH2 0x197A JUMPI POP PUSH2 0x1B17 JUMP JUMPDEST PUSH20 0xFFFFFFFFFFFFFFFFFFFFFFFFFFFFFFFFFFFFFFFF DUP2 AND PUSH1 0x0 DUP2 DUP2 MSTORE PUSH1 0x11 PUSH1 0x20 MSTORE PUSH1 0x40 DUP1 DUP3 KECCAK256 SLOAD SWAP1 MLOAD PUSH32 0x70A0823100000000000000000000000000000000000000000000000000000000 DUP2 MSTORE ADDRESS PUSH1 0x4 DUP3 ADD MSTORE SWAP2 SWAP3 SWAP1 SWAP2 PUSH4 0x70A08231 SWAP1 PUSH1 0x24 ADD PUSH1 0x20 PUSH1 0x40 MLOAD DUP1 DUP4 SUB DUP2 DUP7 GAS STATICCALL ISZERO DUP1 ISZERO PUSH2 0x19F6 JUMPI RETURNDATASIZE PUSH1 0x0 DUP1 RETURNDATACOPY RETURNDATASIZE PUSH1 0x0 REVERT JUMPDEST POP POP POP POP PUSH1 0x40 MLOAD RETURNDATASIZE PUSH1 0x1F NOT PUSH1 0x1F DUP3 ADD AND DUP3 ADD DUP1 PUSH1 0x40 MSTORE POP DUP2 ADD SWAP1 PUSH2 0x1A1A SWAP2 SWAP1 PUSH2 0x4AF1 JUMP JUMPDEST PUSH2 0x1A24 SWAP2 SWAP1 PUSH2 0x4A84 JUMP JUMPDEST PUSH20 0xFFFFFFFFFFFFFFFFFFFFFFFFFFFFFFFFFFFFFFFF DUP4 AND PUSH1 0x0 SWAP1 DUP2 MSTORE PUSH1 0x7 PUSH1 0x20 MSTORE PUSH1 0x40 DUP2 KECCAK256 SLOAD SWAP2 SWAP3 POP DUP7 PUSH2 0x1A58 DUP10 DUP5 PUSH2 0x4A97 JUMP JUMPDEST PUSH2 0x1A62 SWAP2 SWAP1 PUSH2 0x4ADD JUMP JUMPDEST SWAP1 POP DUP1 DUP4 DUP4 EQ PUSH2 0x1A84 JUMPI DUP3 PUSH2 0x1A77 DUP4 DUP7 PUSH2 0x4A97 JUMP JUMPDEST PUSH2 0x1A81 SWAP2 SWAP1 PUSH2 0x4ADD JUMP JUMPDEST SWAP1 POP JUMPDEST PUSH20 0xFFFFFFFFFFFFFFFFFFFFFFFFFFFFFFFFFFFFFFFF DUP6 AND PUSH1 0x0 SWAP1 DUP2 MSTORE PUSH1 0x7 PUSH1 0x20 MSTORE PUSH1 0x40 DUP2 KECCAK256 DUP1 SLOAD DUP5 SWAP3 SWAP1 PUSH2 0x1AB9 SWAP1 DUP5 SWAP1 PUSH2 0x4A84 JUMP JUMPDEST SWAP3 POP POP DUP2 SWAP1 SSTORE POP DUP1 DUP8 DUP8 DUP2 MLOAD DUP2 LT PUSH2 0x1AD3 JUMPI PUSH2 0x1AD3 PUSH2 0x4BE8 JUMP JUMPDEST PUSH1 0x20 SWAP1 DUP2 MUL SWAP2 SWAP1 SWAP2 ADD ADD MSTORE PUSH2 0x1AFF PUSH20 0xFFFFFFFFFFFFFFFFFFFFFFFFFFFFFFFFFFFFFFFF DUP7 AND CALLER DUP4 PUSH2 0x312C JUMP JUMPDEST POP POP POP POP POP DUP1 DUP1 PUSH2 0x1B0F SWAP1 PUSH2 0x4B1E JUMP JUMPDEST SWAP2 POP POP PUSH2 0x1941 JUMP JUMPDEST POP CALLER PUSH20 0xFFFFFFFFFFFFFFFFFFFFFFFFFFFFFFFFFFFFFFFF AND PUSH32 0xAEF68853D1F7F9E4E5FE02896078A87A319C7B257208DAC49346C8F03B36C685 DUP5 DUP4 PUSH1 0x40 MLOAD PUSH2 0x1B60 SWAP3 SWAP2 SWAP1 PUSH2 0x4C17 JUMP JUMPDEST PUSH1 0x40 MLOAD DUP1 SWAP2 SUB SWAP1 LOG2 POP POP POP JUMP JUMPDEST PUSH1 0x60 PUSH1 0x16 DUP1 SLOAD PUSH2 0x7C8 SWAP1 PUSH2 0x49EF JUMP JUMPDEST PUSH2 0x1B88 PUSH1 0x40 PUSH1 0x2 PUSH2 0x4D85 JUMP JUMPDEST DUP7 EQ PUSH2 0x1B93 JUMPI PUSH1 0x0 DUP1 REVERT JUMPDEST PUSH1 0x3 DUP10 GT ISZERO PUSH2 0x1BA1 JUMPI PUSH1 0x0 DUP1 REVERT JUMPDEST PUSH1 0x0 DUP1 JUMPDEST DUP11 DUP2 LT ISZERO PUSH2 0x1E41 JUMPI DUP12 DUP12 DUP3 DUP2 DUP2 LT PUSH2 0x1BBF JUMPI PUSH2 0x1BBF PUSH2 0x4BE8 JUMP JUMPDEST SWAP1 POP PUSH1 0x20 MUL ADD PUSH1 0x20 DUP2 ADD SWAP1 PUSH2 0x1BD4 SWAP2 SWAP1 PUSH2 0x4436 JUMP JUMPDEST PUSH1 0x0 DUP3 DUP2 MSTORE PUSH1 0x6 PUSH1 0x20 MSTORE PUSH1 0x40 SWAP1 KECCAK256 DUP1 SLOAD PUSH32 0xFFFFFFFFFFFFFFFFFFFFFFFF0000000000000000000000000000000000000000 AND PUSH20 0xFFFFFFFFFFFFFFFFFFFFFFFFFFFFFFFFFFFFFFFF SWAP3 SWAP1 SWAP3 AND SWAP2 SWAP1 SWAP2 OR SWAP1 SSTORE DUP10 DUP10 DUP3 DUP2 DUP2 LT PUSH2 0x1C37 JUMPI PUSH2 0x1C37 PUSH2 0x4BE8 JUMP JUMPDEST SWAP1 POP PUSH1 0x20 MUL ADD CALLDATALOAD PUSH1 0x8 PUSH1 0x0 DUP15 DUP15 DUP6 DUP2 DUP2 LT PUSH2 0x1C54 JUMPI PUSH2 0x1C54 PUSH2 0x4BE8 JUMP JUMPDEST SWAP1 POP PUSH1 0x20 MUL ADD PUSH1 0x20 DUP2 ADD SWAP1 PUSH2 0x1C69 SWAP2 SWAP1 PUSH2 0x4436 JUMP JUMPDEST PUSH20 0xFFFFFFFFFFFFFFFFFFFFFFFFFFFFFFFFFFFFFFFF AND DUP2 MSTORE PUSH1 0x20 DUP2 ADD SWAP2 SWAP1 SWAP2 MSTORE PUSH1 0x40 ADD PUSH1 0x0 KECCAK256 SSTORE DUP10 DUP10 DUP3 DUP2 DUP2 LT PUSH2 0x1CA2 JUMPI PUSH2 0x1CA2 PUSH2 0x4BE8 JUMP JUMPDEST SWAP1 POP PUSH1 0x20 MUL ADD CALLDATALOAD PUSH1 0x9 PUSH1 0x0 DUP3 DUP3 SLOAD PUSH2 0x1CBA SWAP2 SWAP1 PUSH2 0x4A71 JUMP JUMPDEST SWAP1 SWAP2 SSTORE POP PUSH1 0x0 SWAP1 POP DUP13 DUP13 DUP4 DUP2 DUP2 LT PUSH2 0x1CD4 JUMPI PUSH2 0x1CD4 PUSH2 0x4BE8 JUMP JUMPDEST SWAP1 POP PUSH1 0x20 MUL ADD PUSH1 0x20 DUP2 ADD SWAP1 PUSH2 0x1CE9 SWAP2 SWAP1 PUSH2 0x4436 JUMP JUMPDEST PUSH1 0x40 MLOAD PUSH32 0x70A0823100000000000000000000000000000000000000000000000000000000 DUP2 MSTORE ADDRESS PUSH1 0x4 DUP3 ADD MSTORE PUSH20 0xFFFFFFFFFFFFFFFFFFFFFFFFFFFFFFFFFFFFFFFF SWAP2 SWAP1 SWAP2 AND SWAP1 PUSH4 0x70A08231 SWAP1 PUSH1 0x24 ADD PUSH1 0x20 PUSH1 0x40 MLOAD DUP1 DUP4 SUB DUP2 DUP7 GAS STATICCALL ISZERO DUP1 ISZERO PUSH2 0x1D55 JUMPI RETURNDATASIZE PUSH1 0x0 DUP1 RETURNDATACOPY RETURNDATASIZE PUSH1 0x0 REVERT JUMPDEST POP POP POP POP PUSH1 0x40 MLOAD RETURNDATASIZE PUSH1 0x1F NOT PUSH1 0x1F DUP3 ADD AND DUP3 ADD DUP1 PUSH1 0x40 MSTORE POP DUP2 ADD SWAP1 PUSH2 0x1D79 SWAP2 SWAP1 PUSH2 0x4AF1 JUMP JUMPDEST SWAP1 POP PUSH1 0x0 DUP2 GT PUSH2 0x1D88 JUMPI PUSH1 0x0 DUP1 REVERT JUMPDEST DUP1 PUSH1 0x7 PUSH1 0x0 DUP16 DUP16 DUP7 DUP2 DUP2 LT PUSH2 0x1D9F JUMPI PUSH2 0x1D9F PUSH2 0x4BE8 JUMP JUMPDEST SWAP1 POP PUSH1 0x20 MUL ADD PUSH1 0x20 DUP2 ADD SWAP1 PUSH2 0x1DB4 SWAP2 SWAP1 PUSH2 0x4436 JUMP JUMPDEST PUSH20 0xFFFFFFFFFFFFFFFFFFFFFFFFFFFFFFFFFFFFFFFF AND PUSH20 0xFFFFFFFFFFFFFFFFFFFFFFFFFFFFFFFFFFFFFFFF AND DUP2 MSTORE PUSH1 0x20 ADD SWAP1 DUP2 MSTORE PUSH1 0x20 ADD PUSH1 0x0 KECCAK256 PUSH1 0x0 DUP3 DUP3 SLOAD PUSH2 0x1DFD SWAP2 SWAP1 PUSH2 0x4A71 JUMP JUMPDEST SWAP3 POP POP DUP2 SWAP1 SSTORE POP POP PUSH1 0x40 DUP11 DUP11 DUP4 DUP2 DUP2 LT PUSH2 0x1E19 JUMPI PUSH2 0x1E19 PUSH2 0x4BE8 JUMP JUMPDEST SWAP1 POP PUSH1 0x20 MUL ADD CALLDATALOAD SWAP1 SHL DUP3 PUSH2 0x1E2D SWAP2 SWAP1 PUSH2 0x4A71 JUMP JUMPDEST SWAP2 POP DUP1 PUSH2 0x1E39 DUP2 PUSH2 0x4B1E JUMP JUMPDEST SWAP2 POP POP PUSH2 0x1BA5 JUMP JUMPDEST POP PUSH1 0xC SSTORE PUSH2 0x1E53 DUP6 DUP6 DUP6 DUP6 DUP16 DUP7 PUSH2 0x383F JUMP JUMPDEST POP POP POP POP POP POP POP POP POP POP POP JUMP JUMPDEST PUSH20 0xFFFFFFFFFFFFFFFFFFFFFFFFFFFFFFFFFFFFFFFF DUP3 AND PUSH1 0x0 SWAP1 DUP2 MSTORE PUSH1 0x7 PUSH1 0x20 SWAP1 DUP2 MSTORE PUSH1 0x40 DUP1 DUP4 KECCAK256 SLOAD PUSH1 0x8 SWAP1 SWAP3 MSTORE DUP3 KECCAK256 SLOAD PUSH2 0xAA0 DUP5 DUP4 DUP4 PUSH2 0x38FF JUMP JUMPDEST CALLER PUSH1 0x0 DUP2 DUP2 MSTORE PUSH1 0x1 PUSH1 0x20 SWAP1 DUP2 MSTORE PUSH1 0x40 DUP1 DUP4 KECCAK256 PUSH20 0xFFFFFFFFFFFFFFFFFFFFFFFFFFFFFFFFFFFFFFFF DUP8 AND DUP5 MSTORE SWAP1 SWAP2 MSTORE DUP2 KECCAK256 SLOAD SWAP1 SWAP2 SWAP1 DUP4 DUP2 LT ISZERO PUSH2 0x1F60 JUMPI PUSH1 0x40 MLOAD PUSH32 0x8C379A000000000000000000000000000000000000000000000000000000000 DUP2 MSTORE PUSH1 0x20 PUSH1 0x4 DUP3 ADD MSTORE PUSH1 0x25 PUSH1 0x24 DUP3 ADD MSTORE PUSH32 0x45524332303A2064656372656173656420616C6C6F77616E63652062656C6F77 PUSH1 0x44 DUP3 ADD MSTORE PUSH32 0x207A65726F000000000000000000000000000000000000000000000000000000 PUSH1 0x64 DUP3 ADD MSTORE PUSH1 0x84 ADD PUSH2 0xB7F JUMP JUMPDEST PUSH2 0x1F6D DUP3 DUP7 DUP7 DUP5 SUB PUSH2 0x2A0B JUMP JUMPDEST POP PUSH1 0x1 SWAP5 SWAP4 POP POP POP POP JUMP JUMPDEST PUSH1 0x0 CALLER PUSH2 0x859 DUP2 DUP6 DUP6 PUSH2 0x2C8F JUMP JUMPDEST PUSH1 0x40 MLOAD PUSH32 0x70A0823100000000000000000000000000000000000000000000000000000000 DUP2 MSTORE ADDRESS PUSH1 0x4 DUP3 ADD MSTORE PUSH1 0x0 SWAP1 DUP2 SWAP1 PUSH20 0xFFFFFFFFFFFFFFFFFFFFFFFFFFFFFFFFFFFFFFFF DUP7 AND SWAP1 PUSH4 0x70A08231 SWAP1 PUSH1 0x24 ADD PUSH1 0x20 PUSH1 0x40 MLOAD DUP1 DUP4 SUB DUP2 DUP7 GAS STATICCALL ISZERO DUP1 ISZERO PUSH2 0x1FF5 JUMPI RETURNDATASIZE PUSH1 0x0 DUP1 RETURNDATACOPY RETURNDATASIZE PUSH1 0x0 REVERT JUMPDEST POP POP POP POP PUSH1 0x40 MLOAD RETURNDATASIZE PUSH1 0x1F NOT PUSH1 0x1F DUP3 ADD AND DUP3 ADD DUP1 PUSH1 0x40 MSTORE POP DUP2 ADD SWAP1 PUSH2 0x2019 SWAP2 SWAP1 PUSH2 0x4AF1 JUMP JUMPDEST PUSH20 0xFFFFFFFFFFFFFFFFFFFFFFFFFFFFFFFFFFFFFFFF DUP7 AND PUSH1 0x0 SWAP1 DUP2 MSTORE PUSH1 0x8 PUSH1 0x20 MSTORE PUSH1 0x40 SWAP1 KECCAK256 SLOAD SWAP1 SWAP2 POP DUP4 ISZERO PUSH2 0x2053 JUMPI PUSH2 0xA51 DUP6 DUP4 DUP4 PUSH2 0x3926 JUMP JUMPDEST PUSH2 0xA65 DUP6 DUP4 DUP4 PUSH2 0x3956 JUMP JUMPDEST PUSH1 0x5 SLOAD PUSH20 0xFFFFFFFFFFFFFFFFFFFFFFFFFFFFFFFFFFFFFFFF AND CALLER EQ PUSH2 0x2082 JUMPI PUSH1 0x0 DUP1 REVERT JUMPDEST PUSH1 0x0 DUP2 DUP2 MSTORE PUSH1 0x12 PUSH1 0x20 SWAP1 DUP2 MSTORE PUSH1 0x40 DUP1 DUP4 KECCAK256 DUP2 MLOAD PUSH1 0x60 DUP2 ADD DUP4 MSTORE DUP2 SLOAD PUSH20 0xFFFFFFFFFFFFFFFFFFFFFFFFFFFFFFFFFFFFFFFF SWAP1 DUP2 AND DUP3 MSTORE PUSH1 0x1 DUP4 ADD SLOAD DUP3 DUP7 ADD DUP2 SWAP1 MSTORE PUSH1 0x2 SWAP1 SWAP4 ADD SLOAD AND DUP2 DUP5 ADD DUP2 SWAP1 MSTORE DUP6 MSTORE PUSH1 0x11 SWAP1 SWAP4 MSTORE SWAP1 DUP4 KECCAK256 DUP1 SLOAD SWAP3 SWAP4 SWAP2 SWAP3 SWAP1 SWAP2 SWAP1 PUSH2 0x20ED SWAP1 DUP5 SWAP1 PUSH2 0x4A84 JUMP JUMPDEST SWAP1 SWAP2 SSTORE POP POP DUP1 MLOAD PUSH1 0x20 DUP3 ADD MLOAD PUSH1 0x40 DUP4 ADD MLOAD PUSH2 0x2120 SWAP3 PUSH20 0xFFFFFFFFFFFFFFFFFFFFFFFFFFFFFFFFFFFFFFFF SWAP1 SWAP2 AND SWAP2 PUSH2 0x312C JUMP JUMPDEST PUSH1 0x40 MLOAD DUP3 DUP2 MSTORE PUSH32 0x2ED3176C48E2338524348CC2055ADB2C2D41E9022E0A6A18D843C9ED5BE9A3A3 SWAP1 PUSH1 0x20 ADD JUMPDEST PUSH1 0x40 MLOAD DUP1 SWAP2 SUB SWAP1 LOG1 POP PUSH1 0x0 SWAP1 DUP2 MSTORE PUSH1 0x12 PUSH1 0x20 MSTORE PUSH1 0x40 DUP2 KECCAK256 DUP1 SLOAD PUSH32 0xFFFFFFFFFFFFFFFFFFFFFFFF0000000000000000000000000000000000000000 SWAP1 DUP2 AND DUP3 SSTORE PUSH1 0x1 DUP3 ADD SWAP3 SWAP1 SWAP3 SSTORE PUSH1 0x2 ADD DUP1 SLOAD SWAP1 SWAP2 AND SWAP1 SSTORE JUMP JUMPDEST PUSH1 0xB SLOAD PUSH20 0xFFFFFFFFFFFFFFFFFFFFFFFFFFFFFFFFFFFFFFFF AND ORIGIN EQ DUP1 PUSH2 0x21DC JUMPI POP PUSH1 0xB SLOAD PUSH20 0xFFFFFFFFFFFFFFFFFFFFFFFFFFFFFFFFFFFFFFFF AND CALLER EQ JUMPDEST PUSH2 0x21E5 JUMPI PUSH1 0x0 DUP1 REVERT JUMPDEST PUSH1 0x5 DUP1 SLOAD PUSH32 0xFFFFFFFFFFFFFFFFFFFFFF00FFFFFFFFFFFFFFFFFFFFFFFFFFFFFFFFFFFFFFFF DUP2 AND SWAP1 SWAP2 SSTORE PUSH1 0x40 MLOAD PUSH32 0x92A9BDB300000000000000000000000000000000000000000000000000000000 DUP2 MSTORE PUSH1 0x4 DUP2 ADD DUP6 SWAP1 MSTORE PUSH1 0x24 DUP2 ADD DUP5 SWAP1 MSTORE DUP3 ISZERO ISZERO PUSH1 0x44 DUP3 ADD MSTORE PUSH20 0xFFFFFFFFFFFFFFFFFFFFFFFFFFFFFFFFFFFFFFFF SWAP1 SWAP2 AND SWAP1 PUSH4 0x92A9BDB3 SWAP1 PUSH1 0x64 ADD PUSH1 0x0 PUSH1 0x40 MLOAD DUP1 DUP4 SUB DUP2 PUSH1 0x0 DUP8 DUP1 EXTCODESIZE ISZERO DUP1 ISZERO PUSH2 0x2287 JUMPI PUSH1 0x0 DUP1 REVERT JUMPDEST POP GAS CALL ISZERO DUP1 ISZERO PUSH2 0x229B JUMPI RETURNDATASIZE PUSH1 0x0 DUP1 RETURNDATACOPY RETURNDATASIZE PUSH1 0x0 REVERT JUMPDEST POP POP POP POP POP POP POP JUMP JUMPDEST PUSH1 0x0 DUP1 PUSH2 0x22CC DUP11 PUSH2 0x22B7 DUP11 PUSH1 0xA SLOAD PUSH2 0x3205 JUMP JUMPDEST PUSH2 0x22C1 SWAP1 DUP12 PUSH2 0x4A84 JUMP JUMPDEST PUSH1 0x1 DUP10 AND ISZERO ISZERO PUSH2 0x1F86 JUMP JUMPDEST PUSH20 0xFFFFFFFFFFFFFFFFFFFFFFFFFFFFFFFFFFFFFFFF DUP12 AND PUSH1 0x0 SWAP1 DUP2 MSTORE PUSH1 0x11 PUSH1 0x20 MSTORE PUSH1 0x40 DUP2 KECCAK256 DUP1 SLOAD SWAP3 SWAP4 POP DUP11 SWAP3 SWAP1 SWAP2 SWAP1 PUSH2 0x2306 SWAP1 DUP5 SWAP1 PUSH2 0x4A71 JUMP JUMPDEST SWAP3 POP POP DUP2 SWAP1 SSTORE POP PUSH1 0x40 MLOAD DUP1 PUSH1 0x60 ADD PUSH1 0x40 MSTORE DUP1 DUP7 PUSH20 0xFFFFFFFFFFFFFFFFFFFFFFFFFFFFFFFFFFFFFFFF AND DUP2 MSTORE PUSH1 0x20 ADD DUP10 DUP2 MSTORE PUSH1 0x20 ADD DUP12 PUSH20 0xFFFFFFFFFFFFFFFFFFFFFFFFFFFFFFFFFFFFFFFF AND DUP2 MSTORE POP PUSH1 0x12 PUSH1 0x0 PUSH5 0x100000000 PUSH1 0x13 SLOAD PUSH2 0x236B SWAP2 SWAP1 PUSH2 0x4B0A JUMP JUMPDEST DUP2 MSTORE PUSH1 0x20 ADD SWAP1 DUP2 MSTORE PUSH1 0x20 ADD PUSH1 0x0 KECCAK256 PUSH1 0x0 DUP3 ADD MLOAD DUP2 PUSH1 0x0 ADD PUSH1 0x0 PUSH2 0x100 EXP DUP2 SLOAD DUP2 PUSH20 0xFFFFFFFFFFFFFFFFFFFFFFFFFFFFFFFFFFFFFFFF MUL NOT AND SWAP1 DUP4 PUSH20 0xFFFFFFFFFFFFFFFFFFFFFFFFFFFFFFFFFFFFFFFF AND MUL OR SWAP1 SSTORE POP PUSH1 0x20 DUP3 ADD MLOAD DUP2 PUSH1 0x1 ADD SSTORE PUSH1 0x40 DUP3 ADD MLOAD DUP2 PUSH1 0x2 ADD PUSH1 0x0 PUSH2 0x100 EXP DUP2 SLOAD DUP2 PUSH20 0xFFFFFFFFFFFFFFFFFFFFFFFFFFFFFFFFFFFFFFFF MUL NOT AND SWAP1 DUP4 PUSH20 0xFFFFFFFFFFFFFFFFFFFFFFFFFFFFFFFFFFFFFFFF AND MUL OR SWAP1 SSTORE POP SWAP1 POP POP PUSH1 0x5 PUSH1 0x0 SWAP1 SLOAD SWAP1 PUSH2 0x100 EXP SWAP1 DIV PUSH20 0xFFFFFFFFFFFFFFFFFFFFFFFFFFFFFFFFFFFFFFFF AND PUSH20 0xFFFFFFFFFFFFFFFFFFFFFFFFFFFFFFFFFFFFFFFF AND PUSH4 0xBA71471E DUP15 DUP15 DUP15 DUP14 DUP7 DUP14 PUSH1 0x0 DUP15 PUSH1 0x2 AND PUSH1 0xFF AND GT PUSH5 0x100000000 PUSH1 0x13 SLOAD PUSH2 0x2475 SWAP2 SWAP1 PUSH2 0x4B0A JUMP JUMPDEST DUP14 DUP14 PUSH1 0x40 MLOAD DUP12 PUSH4 0xFFFFFFFF AND PUSH1 0xE0 SHL DUP2 MSTORE PUSH1 0x4 ADD PUSH2 0x249C SWAP11 SWAP10 SWAP9 SWAP8 SWAP7 SWAP6 SWAP5 SWAP4 SWAP3 SWAP2 SWAP1 PUSH2 0x4D91 JUMP JUMPDEST PUSH1 0x0 PUSH1 0x40 MLOAD DUP1 DUP4 SUB DUP2 PUSH1 0x0 DUP8 DUP1 EXTCODESIZE ISZERO DUP1 ISZERO PUSH2 0x24B6 JUMPI PUSH1 0x0 DUP1 REVERT JUMPDEST POP GAS CALL ISZERO DUP1 ISZERO PUSH2 0x24CA JUMPI RETURNDATASIZE PUSH1 0x0 DUP1 RETURNDATACOPY RETURNDATASIZE PUSH1 0x0 REVERT JUMPDEST POP PUSH2 0x24F1 SWAP3 POP POP POP PUSH20 0xFFFFFFFFFFFFFFFFFFFFFFFFFFFFFFFFFFFFFFFF DUP12 AND CALLER ADDRESS DUP12 PUSH2 0x3290 JUMP JUMPDEST PUSH1 0xD SLOAD DUP2 DUP2 GT ISZERO PUSH2 0x2519 JUMPI DUP2 PUSH1 0xD PUSH1 0x0 DUP3 DUP3 SLOAD PUSH2 0x250E SWAP2 SWAP1 PUSH2 0x4A84 JUMP JUMPDEST SWAP1 SWAP2 SSTORE POP PUSH2 0x2525 SWAP1 POP JUMP JUMPDEST DUP1 ISZERO PUSH2 0x2525 JUMPI PUSH1 0x0 PUSH1 0xD SSTORE JUMPDEST POP DUP10 PUSH20 0xFFFFFFFFFFFFFFFFFFFFFFFFFFFFFFFFFFFFFFFF AND DUP12 DUP14 PUSH32 0x2483AC7794A891A1DA9E35AF72035937919C140AB4E1FEC8FB8041DBFB439362 DUP13 DUP13 DUP7 PUSH2 0x256F DUP16 PUSH1 0xA SLOAD PUSH2 0x3205 JUMP JUMPDEST PUSH5 0x100000000 PUSH1 0x13 SLOAD PUSH2 0x2582 SWAP2 SWAP1 PUSH2 0x4B0A JUMP JUMPDEST PUSH1 0x40 DUP1 MLOAD PUSH1 0xFF SWAP1 SWAP7 AND DUP7 MSTORE PUSH1 0x20 DUP7 ADD SWAP5 SWAP1 SWAP5 MSTORE SWAP3 DUP5 ADD SWAP2 SWAP1 SWAP2 MSTORE PUSH1 0x60 DUP4 ADD MSTORE PUSH4 0xFFFFFFFF AND PUSH1 0x80 DUP3 ADD MSTORE PUSH1 0xA0 ADD PUSH1 0x40 MLOAD DUP1 SWAP2 SUB SWAP1 LOG4 PUSH1 0x1 PUSH1 0x13 PUSH1 0x0 DUP3 DUP3 SLOAD PUSH2 0x25CA SWAP2 SWAP1 PUSH2 0x4A71 JUMP JUMPDEST SWAP1 SWAP2 SSTORE POP SWAP1 SWAP14 SWAP13 POP POP POP POP POP POP POP POP POP POP POP POP POP JUMP JUMPDEST PUSH2 0x25EA PUSH1 0x0 PUSH2 0x3391 JUMP JUMPDEST PUSH1 0x0 PUSH2 0x25F5 PUSH1 0x2 SLOAD SWAP1 JUMP JUMPDEST PUSH1 0x40 DUP1 MLOAD PUSH1 0x3 DUP1 DUP3 MSTORE PUSH1 0x80 DUP3 ADD SWAP1 SWAP3 MSTORE SWAP2 SWAP3 POP PUSH1 0x0 SWAP2 SWAP1 PUSH1 0x20 DUP3 ADD PUSH1 0x60 DUP1 CALLDATASIZE DUP4 CALLDATACOPY ADD SWAP1 POP POP SWAP1 POP PUSH1 0x0 JUMPDEST PUSH1 0x3 DUP2 LT ISZERO PUSH2 0x27DD JUMPI PUSH1 0x0 DUP2 DUP2 MSTORE PUSH1 0x6 PUSH1 0x20 MSTORE PUSH1 0x40 SWAP1 KECCAK256 SLOAD PUSH20 0xFFFFFFFFFFFFFFFFFFFFFFFFFFFFFFFFFFFFFFFF AND DUP1 PUSH2 0x2658 JUMPI POP PUSH2 0x27DD JUMP JUMPDEST PUSH1 0x40 MLOAD PUSH32 0x70A0823100000000000000000000000000000000000000000000000000000000 DUP2 MSTORE ADDRESS PUSH1 0x4 DUP3 ADD MSTORE PUSH1 0x0 SWAP1 PUSH20 0xFFFFFFFFFFFFFFFFFFFFFFFFFFFFFFFFFFFFFFFF DUP4 AND SWAP1 PUSH4 0x70A08231 SWAP1 PUSH1 0x24 ADD PUSH1 0x20 PUSH1 0x40 MLOAD DUP1 DUP4 SUB DUP2 DUP7 GAS STATICCALL ISZERO DUP1 ISZERO PUSH2 0x26C5 JUMPI RETURNDATASIZE PUSH1 0x0 DUP1 RETURNDATACOPY RETURNDATASIZE PUSH1 0x0 REVERT JUMPDEST POP POP POP POP PUSH1 0x40 MLOAD RETURNDATASIZE PUSH1 0x1F NOT PUSH1 0x1F DUP3 ADD AND DUP3 ADD DUP1 PUSH1 0x40 MSTORE POP DUP2 ADD SWAP1 PUSH2 0x26E9 SWAP2 SWAP1 PUSH2 0x4AF1 JUMP JUMPDEST PUSH20 0xFFFFFFFFFFFFFFFFFFFFFFFFFFFFFFFFFFFFFFFF DUP4 AND PUSH1 0x0 SWAP1 DUP2 MSTORE PUSH1 0x7 PUSH1 0x20 MSTORE PUSH1 0x40 DUP2 KECCAK256 SLOAD SWAP2 SWAP3 POP DUP7 PUSH2 0x271D DUP10 DUP5 PUSH2 0x4A97 JUMP JUMPDEST PUSH2 0x2727 SWAP2 SWAP1 PUSH2 0x4ADD JUMP JUMPDEST SWAP1 POP DUP1 DUP4 DUP4 EQ PUSH2 0x2749 JUMPI DUP3 PUSH2 0x273C DUP4 DUP7 PUSH2 0x4A97 JUMP JUMPDEST PUSH2 0x2746 SWAP2 SWAP1 PUSH2 0x4ADD JUMP JUMPDEST SWAP1 POP JUMPDEST PUSH20 0xFFFFFFFFFFFFFFFFFFFFFFFFFFFFFFFFFFFFFFFF DUP6 AND PUSH1 0x0 SWAP1 DUP2 MSTORE PUSH1 0x7 PUSH1 0x20 MSTORE PUSH1 0x40 DUP2 KECCAK256 DUP1 SLOAD DUP5 SWAP3 SWAP1 PUSH2 0x277E SWAP1 DUP5 SWAP1 PUSH2 0x4A71 JUMP JUMPDEST SWAP3 POP POP DUP2 SWAP1 SSTORE POP DUP1 DUP8 DUP8 DUP2 MLOAD DUP2 LT PUSH2 0x2798 JUMPI PUSH2 0x2798 PUSH2 0x4BE8 JUMP JUMPDEST PUSH1 0x20 SWAP1 DUP2 MUL SWAP2 SWAP1 SWAP2 ADD ADD MSTORE PUSH2 0x27C5 PUSH20 0xFFFFFFFFFFFFFFFFFFFFFFFFFFFFFFFFFFFFFFFF DUP7 AND CALLER ADDRESS DUP5 PUSH2 0x3290 JUMP JUMPDEST POP POP POP POP POP DUP1 DUP1 PUSH2 0x27D5 SWAP1 PUSH2 0x4B1E JUMP JUMPDEST SWAP2 POP POP PUSH2 0x261F JUMP JUMPDEST POP PUSH2 0x27E8 CALLER DUP5 PUSH2 0x3532 JUMP JUMPDEST CALLER PUSH20 0xFFFFFFFFFFFFFFFFFFFFFFFFFFFFFFFFFFFFFFFF AND PUSH32 0xE7425730072F5A6EC278AE24C998F6A79299C875CBD84AD35585563A0CB3C666 DUP5 DUP4 PUSH1 0x40 MLOAD PUSH2 0x1B60 SWAP3 SWAP2 SWAP1 PUSH2 0x4C17 JUMP JUMPDEST PUSH1 0xB SLOAD PUSH20 0xFFFFFFFFFFFFFFFFFFFFFFFFFFFFFFFFFFFFFFFF AND ORIGIN EQ DUP1 PUSH2 0x286D JUMPI POP PUSH1 0xB SLOAD PUSH20 0xFFFFFFFFFFFFFFFFFFFFFFFFFFFFFFFFFFFFFFFF AND CALLER EQ JUMPDEST PUSH2 0x2876 JUMPI PUSH1 0x0 DUP1 REVERT JUMPDEST PUSH1 0x5 DUP1 SLOAD PUSH32 0xFFFFFFFFFFFFFFFFFFFFFF00FFFFFFFFFFFFFFFFFFFFFFFFFFFFFFFFFFFFFFFF DUP2 AND SWAP1 SWAP2 SSTORE PUSH1 0x40 MLOAD PUSH32 0xCEC8A39500000000000000000000000000000000000000000000000000000000 DUP2 MSTORE PUSH1 0x4 DUP2 ADD DUP6 SWAP1 MSTORE PUSH1 0x24 DUP2 ADD DUP5 SWAP1 MSTORE DUP3 ISZERO ISZERO PUSH1 0x44 DUP3 ADD MSTORE PUSH20 0xFFFFFFFFFFFFFFFFFFFFFFFFFFFFFFFFFFFFFFFF SWAP1 SWAP2 AND SWAP1 PUSH4 0xCEC8A395 SWAP1 PUSH1 0x64 ADD PUSH1 0x20 PUSH1 0x40 MLOAD DUP1 DUP4 SUB DUP2 PUSH1 0x0 DUP8 GAS CALL ISZERO DUP1 ISZERO PUSH2 0x291D JUMPI RETURNDATASIZE PUSH1 0x0 DUP1 RETURNDATACOPY RETURNDATASIZE PUSH1 0x0 REVERT JUMPDEST POP POP POP POP PUSH1 0x40 MLOAD RETURNDATASIZE PUSH1 0x1F NOT PUSH1 0x1F DUP3 ADD AND DUP3 ADD DUP1 PUSH1 0x40 MSTORE POP DUP2 ADD SWAP1 PUSH2 0x2941 SWAP2 SWAP1 PUSH2 0x4DF7 JUMP JUMPDEST POP POP POP POP JUMP JUMPDEST PUSH1 0x5 SLOAD PUSH20 0xFFFFFFFFFFFFFFFFFFFFFFFFFFFFFFFFFFFFFFFF AND CALLER EQ PUSH2 0x296B JUMPI PUSH1 0x0 DUP1 REVERT JUMPDEST PUSH1 0x0 DUP2 DUP2 MSTORE PUSH1 0x12 PUSH1 0x20 SWAP1 DUP2 MSTORE PUSH1 0x40 DUP1 DUP4 KECCAK256 DUP2 MLOAD PUSH1 0x60 DUP2 ADD DUP4 MSTORE DUP2 SLOAD PUSH20 0xFFFFFFFFFFFFFFFFFFFFFFFFFFFFFFFFFFFFFFFF SWAP1 DUP2 AND DUP3 MSTORE PUSH1 0x1 DUP4 ADD SLOAD DUP3 DUP7 ADD DUP2 SWAP1 MSTORE PUSH1 0x2 SWAP1 SWAP4 ADD SLOAD AND DUP2 DUP5 ADD DUP2 SWAP1 MSTORE DUP6 MSTORE PUSH1 0x11 SWAP1 SWAP4 MSTORE SWAP1 DUP4 KECCAK256 DUP1 SLOAD SWAP3 SWAP4 SWAP2 SWAP3 SWAP1 SWAP2 SWAP1 PUSH2 0x29D6 SWAP1 DUP5 SWAP1 PUSH2 0x4A84 JUMP JUMPDEST SWAP1 SWAP2 SSTORE POP POP PUSH1 0x40 MLOAD DUP3 DUP2 MSTORE PUSH32 0x44898AB65AFFAD4F975E5A33A5F62FC75A177F6E222DA2585627711F4B0F50F5 SWAP1 PUSH1 0x20 ADD PUSH2 0x214C JUMP JUMPDEST PUSH20 0xFFFFFFFFFFFFFFFFFFFFFFFFFFFFFFFFFFFFFFFF DUP4 AND PUSH2 0x2AAD JUMPI PUSH1 0x40 MLOAD PUSH32 0x8C379A000000000000000000000000000000000000000000000000000000000 DUP2 MSTORE PUSH1 0x20 PUSH1 0x4 DUP3 ADD MSTORE PUSH1 0x24 DUP1 DUP3 ADD MSTORE PUSH32 0x45524332303A20617070726F76652066726F6D20746865207A65726F20616464 PUSH1 0x44 DUP3 ADD MSTORE PUSH32 0x7265737300000000000000000000000000000000000000000000000000000000 PUSH1 0x64 DUP3 ADD MSTORE PUSH1 0x84 ADD PUSH2 0xB7F JUMP JUMPDEST PUSH20 0xFFFFFFFFFFFFFFFFFFFFFFFFFFFFFFFFFFFFFFFF DUP3 AND PUSH2 0x2B50 JUMPI PUSH1 0x40 MLOAD PUSH32 0x8C379A000000000000000000000000000000000000000000000000000000000 DUP2 MSTORE PUSH1 0x20 PUSH1 0x4 DUP3 ADD MSTORE PUSH1 0x22 PUSH1 0x24 DUP3 ADD MSTORE PUSH32 0x45524332303A20617070726F766520746F20746865207A65726F206164647265 PUSH1 0x44 DUP3 ADD MSTORE PUSH32 0x7373000000000000000000000000000000000000000000000000000000000000 PUSH1 0x64 DUP3 ADD MSTORE PUSH1 0x84 ADD PUSH2 0xB7F JUMP JUMPDEST PUSH20 0xFFFFFFFFFFFFFFFFFFFFFFFFFFFFFFFFFFFFFFFF DUP4 DUP2 AND PUSH1 0x0 DUP2 DUP2 MSTORE PUSH1 0x1 PUSH1 0x20 SWAP1 DUP2 MSTORE PUSH1 0x40 DUP1 DUP4 KECCAK256 SWAP5 DUP8 AND DUP1 DUP5 MSTORE SWAP5 DUP3 MSTORE SWAP2 DUP3 SWAP1 KECCAK256 DUP6 SWAP1 SSTORE SWAP1 MLOAD DUP5 DUP2 MSTORE PUSH32 0x8C5BE1E5EBEC7D5BD14F71427D1E84F3DD0314C0F7B2291E5B200AC8C7C3B925 SWAP2 ADD PUSH1 0x40 MLOAD DUP1 SWAP2 SUB SWAP1 LOG3 POP POP POP JUMP JUMPDEST PUSH20 0xFFFFFFFFFFFFFFFFFFFFFFFFFFFFFFFFFFFFFFFF DUP4 DUP2 AND PUSH1 0x0 SWAP1 DUP2 MSTORE PUSH1 0x1 PUSH1 0x20 SWAP1 DUP2 MSTORE PUSH1 0x40 DUP1 DUP4 KECCAK256 SWAP4 DUP7 AND DUP4 MSTORE SWAP3 SWAP1 MSTORE KECCAK256 SLOAD PUSH32 0xFFFFFFFFFFFFFFFFFFFFFFFFFFFFFFFFFFFFFFFFFFFFFFFFFFFFFFFFFFFFFFFF DUP2 EQ PUSH2 0x2941 JUMPI DUP2 DUP2 LT ISZERO PUSH2 0x2C82 JUMPI PUSH1 0x40 MLOAD PUSH32 0x8C379A000000000000000000000000000000000000000000000000000000000 DUP2 MSTORE PUSH1 0x20 PUSH1 0x4 DUP3 ADD MSTORE PUSH1 0x1D PUSH1 0x24 DUP3 ADD MSTORE PUSH32 0x45524332303A20696E73756666696369656E7420616C6C6F77616E6365000000 PUSH1 0x44 DUP3 ADD MSTORE PUSH1 0x64 ADD PUSH2 0xB7F JUMP JUMPDEST PUSH2 0x2941 DUP5 DUP5 DUP5 DUP5 SUB PUSH2 0x2A0B JUMP JUMPDEST PUSH20 0xFFFFFFFFFFFFFFFFFFFFFFFFFFFFFFFFFFFFFFFF DUP4 AND PUSH2 0x2D32 JUMPI PUSH1 0x40 MLOAD PUSH32 0x8C379A000000000000000000000000000000000000000000000000000000000 DUP2 MSTORE PUSH1 0x20 PUSH1 0x4 DUP3 ADD MSTORE PUSH1 0x25 PUSH1 0x24 DUP3 ADD MSTORE PUSH32 0x45524332303A207472616E736665722066726F6D20746865207A65726F206164 PUSH1 0x44 DUP3 ADD MSTORE PUSH32 0x6472657373000000000000000000000000000000000000000000000000000000 PUSH1 0x64 DUP3 ADD MSTORE PUSH1 0x84 ADD PUSH2 0xB7F JUMP JUMPDEST PUSH20 0xFFFFFFFFFFFFFFFFFFFFFFFFFFFFFFFFFFFFFFFF DUP3 AND PUSH2 0x2DD5 JUMPI PUSH1 0x40 MLOAD PUSH32 0x8C379A000000000000000000000000000000000000000000000000000000000 DUP2 MSTORE PUSH1 0x20 PUSH1 0x4 DUP3 ADD MSTORE PUSH1 0x23 PUSH1 0x24 DUP3 ADD MSTORE PUSH32 0x45524332303A207472616E7366657220746F20746865207A65726F2061646472 PUSH1 0x44 DUP3 ADD MSTORE PUSH32 0x6573730000000000000000000000000000000000000000000000000000000000 PUSH1 0x64 DUP3 ADD MSTORE PUSH1 0x84 ADD PUSH2 0xB7F JUMP JUMPDEST PUSH20 0xFFFFFFFFFFFFFFFFFFFFFFFFFFFFFFFFFFFFFFFF DUP4 AND PUSH1 0x0 SWAP1 DUP2 MSTORE PUSH1 0x20 DUP2 SWAP1 MSTORE PUSH1 0x40 SWAP1 KECCAK256 SLOAD DUP2 DUP2 LT ISZERO PUSH2 0x2E8B JUMPI PUSH1 0x40 MLOAD PUSH32 0x8C379A000000000000000000000000000000000000000000000000000000000 DUP2 MSTORE PUSH1 0x20 PUSH1 0x4 DUP3 ADD MSTORE PUSH1 0x26 PUSH1 0x24 DUP3 ADD MSTORE PUSH32 0x45524332303A207472616E7366657220616D6F756E7420657863656564732062 PUSH1 0x44 DUP3 ADD MSTORE PUSH32 0x616C616E63650000000000000000000000000000000000000000000000000000 PUSH1 0x64 DUP3 ADD MSTORE PUSH1 0x84 ADD PUSH2 0xB7F JUMP JUMPDEST PUSH20 0xFFFFFFFFFFFFFFFFFFFFFFFFFFFFFFFFFFFFFFFF DUP1 DUP6 AND PUSH1 0x0 SWAP1 DUP2 MSTORE PUSH1 0x20 DUP2 SWAP1 MSTORE PUSH1 0x40 DUP1 DUP3 KECCAK256 DUP6 DUP6 SUB SWAP1 SSTORE SWAP2 DUP6 AND DUP2 MSTORE SWAP1 DUP2 KECCAK256 DUP1 SLOAD DUP5 SWAP3 SWAP1 PUSH2 0x2ECF SWAP1 DUP5 SWAP1 PUSH2 0x4A71 JUMP JUMPDEST SWAP3 POP POP DUP2 SWAP1 SSTORE POP DUP3 PUSH20 0xFFFFFFFFFFFFFFFFFFFFFFFFFFFFFFFFFFFFFFFF AND DUP5 PUSH20 0xFFFFFFFFFFFFFFFFFFFFFFFFFFFFFFFFFFFFFFFF AND PUSH32 0xDDF252AD1BE2C89B69C2B068FC378DAA952BA7F163C4A11628F55A4DF523B3EF DUP5 PUSH1 0x40 MLOAD PUSH2 0x2F35 SWAP2 DUP2 MSTORE PUSH1 0x20 ADD SWAP1 JUMP JUMPDEST PUSH1 0x40 MLOAD DUP1 SWAP2 SUB SWAP1 LOG3 PUSH2 0x2941 JUMP JUMPDEST PUSH1 0x0 PUSH1 0x40 PUSH2 0x2F58 PUSH2 0x2F53 DUP5 DUP8 PUSH2 0x4ADD JUMP JUMPDEST PUSH2 0x396E JUMP JUMPDEST PUSH2 0x2F64 PUSH1 0x40 PUSH1 0x2 PUSH2 0x4D85 JUMP JUMPDEST PUSH2 0x2F6E SWAP2 SWAP1 PUSH2 0x4A84 JUMP JUMPDEST PUSH2 0x2F78 SWAP1 DUP6 PUSH2 0x4A97 JUMP JUMPDEST SWAP1 SHR SWAP5 SWAP4 POP POP POP POP JUMP JUMPDEST PUSH1 0x0 PUSH1 0x40 PUSH2 0x2F91 DUP2 PUSH1 0x2 PUSH2 0x4D85 JUMP JUMPDEST PUSH2 0x2F64 PUSH2 0x2F9E DUP6 DUP9 PUSH2 0x4ADD JUMP JUMPDEST PUSH2 0x3BC0 JUMP JUMPDEST PUSH1 0xC SLOAD PUSH1 0xE SLOAD PUSH2 0x2FB6 SWAP1 PUSH3 0x15180 PUSH2 0x4A71 JUMP JUMPDEST TIMESTAMP GT ISZERO PUSH2 0x301C JUMPI DUP1 DUP3 LT PUSH1 0x40 MLOAD DUP1 PUSH1 0x60 ADD PUSH1 0x40 MSTORE DUP1 PUSH1 0x2D DUP2 MSTORE PUSH1 0x20 ADD PUSH2 0x4F9A PUSH1 0x2D SWAP2 CODECOPY SWAP1 PUSH2 0x3011 JUMPI PUSH1 0x40 MLOAD PUSH32 0x8C379A000000000000000000000000000000000000000000000000000000000 DUP2 MSTORE PUSH1 0x4 ADD PUSH2 0xB7F SWAP2 SWAP1 PUSH2 0x4314 JUMP JUMPDEST POP POP PUSH1 0xD SSTORE TIMESTAMP PUSH1 0xE SSTORE JUMP JUMPDEST PUSH1 0x0 PUSH3 0x15180 PUSH1 0xE SLOAD TIMESTAMP PUSH2 0x3030 SWAP2 SWAP1 PUSH2 0x4A84 JUMP JUMPDEST PUSH2 0x303A SWAP1 DUP5 PUSH2 0x4A97 JUMP JUMPDEST PUSH2 0x3044 SWAP2 SWAP1 PUSH2 0x4ADD JUMP JUMPDEST TIMESTAMP PUSH1 0xE SSTORE PUSH1 0xD SLOAD SWAP1 SWAP2 POP DUP2 DUP2 GT PUSH2 0x30B5 JUMPI DUP3 DUP5 LT PUSH1 0x40 MLOAD DUP1 PUSH1 0x60 ADD PUSH1 0x40 MSTORE DUP1 PUSH1 0x2D DUP2 MSTORE PUSH1 0x20 ADD PUSH2 0x4F9A PUSH1 0x2D SWAP2 CODECOPY SWAP1 PUSH2 0x30A9 JUMPI PUSH1 0x40 MLOAD PUSH32 0x8C379A000000000000000000000000000000000000000000000000000000000 DUP2 MSTORE PUSH1 0x4 ADD PUSH2 0xB7F SWAP2 SWAP1 PUSH2 0x4314 JUMP JUMPDEST POP POP POP PUSH1 0xD SWAP2 SWAP1 SWAP2 SSTORE POP JUMP JUMPDEST PUSH1 0x0 DUP3 PUSH2 0x30C2 DUP7 DUP5 PUSH2 0x4A71 JUMP JUMPDEST PUSH2 0x30CC SWAP2 SWAP1 PUSH2 0x4A84 JUMP JUMPDEST SWAP1 POP DUP4 DUP2 LT PUSH1 0x40 MLOAD DUP1 PUSH1 0x60 ADD PUSH1 0x40 MSTORE DUP1 PUSH1 0x2D DUP2 MSTORE PUSH1 0x20 ADD PUSH2 0x4F9A PUSH1 0x2D SWAP2 CODECOPY SWAP1 PUSH2 0x3122 JUMPI PUSH1 0x40 MLOAD PUSH32 0x8C379A000000000000000000000000000000000000000000000000000000000 DUP2 MSTORE PUSH1 0x4 ADD PUSH2 0xB7F SWAP2 SWAP1 PUSH2 0x4314 JUMP JUMPDEST POP PUSH1 0xD SSTORE POP POP POP POP JUMP JUMPDEST PUSH1 0x40 MLOAD PUSH20 0xFFFFFFFFFFFFFFFFFFFFFFFFFFFFFFFFFFFFFFFF DUP4 AND PUSH1 0x24 DUP3 ADD MSTORE PUSH1 0x44 DUP2 ADD DUP3 SWAP1 MSTORE PUSH2 0x3200 SWAP1 DUP5 SWAP1 PUSH32 0xA9059CBB00000000000000000000000000000000000000000000000000000000 SWAP1 PUSH1 0x64 ADD JUMPDEST PUSH1 0x40 DUP1 MLOAD PUSH32 0xFFFFFFFFFFFFFFFFFFFFFFFFFFFFFFFFFFFFFFFFFFFFFFFFFFFFFFFFFFFFFFE0 DUP2 DUP5 SUB ADD DUP2 MSTORE SWAP2 SWAP1 MSTORE PUSH1 0x20 DUP2 ADD DUP1 MLOAD PUSH28 0xFFFFFFFFFFFFFFFFFFFFFFFFFFFFFFFFFFFFFFFFFFFFFFFFFFFFFFFF AND PUSH32 0xFFFFFFFF00000000000000000000000000000000000000000000000000000000 SWAP1 SWAP4 AND SWAP3 SWAP1 SWAP3 OR SWAP1 SWAP2 MSTORE PUSH2 0x3E99 JUMP JUMPDEST POP POP POP JUMP JUMPDEST PUSH1 0x0 DUP3 DUP3 MUL DUP2 PUSH32 0xFFFFFFFFFFFFFFFFFFFFFFFFFFFFFFFFFFFFFFFFFFFFFFFFFFFFFFFFFFFFFFFF DUP5 DUP7 MULMOD SWAP1 POP DUP2 DUP2 LT PUSH2 0x323F JUMPI PUSH1 0x0 PUSH2 0x3242 JUMP JUMPDEST PUSH1 0x1 JUMPDEST PUSH1 0xFF AND PUSH2 0x324F DUP4 DUP4 PUSH2 0x4A84 JUMP JUMPDEST PUSH2 0x3259 SWAP2 SWAP1 PUSH2 0x4A84 JUMP JUMPDEST SWAP1 POP PUSH8 0xFFFFFFFFFFFFFFFF DUP2 LT PUSH2 0x326F JUMPI PUSH1 0x0 DUP1 REVERT JUMPDEST PUSH1 0x40 DUP3 DUP2 SHR SWAP1 DUP2 SWAP1 PUSH2 0x3283 SWAP1 PUSH2 0x100 PUSH2 0x4A84 JUMP JUMPDEST DUP4 SWAP1 SHL PUSH2 0xA65 SWAP2 SWAP1 PUSH2 0x4A71 JUMP JUMPDEST PUSH1 0x40 MLOAD PUSH20 0xFFFFFFFFFFFFFFFFFFFFFFFFFFFFFFFFFFFFFFFF DUP1 DUP6 AND PUSH1 0x24 DUP4 ADD MSTORE DUP4 AND PUSH1 0x44 DUP3 ADD MSTORE PUSH1 0x64 DUP2 ADD DUP3 SWAP1 MSTORE PUSH2 0x2941 SWAP1 DUP6 SWAP1 PUSH32 0x23B872DD00000000000000000000000000000000000000000000000000000000 SWAP1 PUSH1 0x84 ADD PUSH2 0x317E JUMP JUMPDEST PUSH1 0x0 DUP6 PUSH2 0x32FB DUP4 DUP6 PUSH2 0x4A71 JUMP JUMPDEST PUSH2 0x3305 SWAP2 SWAP1 PUSH2 0x4A97 JUMP JUMPDEST PUSH2 0x330F DUP7 DUP5 PUSH2 0x4A97 JUMP JUMPDEST PUSH2 0x3319 SWAP2 SWAP1 PUSH2 0x4A71 JUMP JUMPDEST DUP7 PUSH2 0x3324 DUP6 DUP8 PUSH2 0x4A97 JUMP JUMPDEST PUSH2 0x332E SWAP2 SWAP1 PUSH2 0x4A97 JUMP JUMPDEST PUSH2 0xA65 SWAP2 SWAP1 PUSH2 0x4ADD JUMP JUMPDEST PUSH1 0x0 DUP1 PUSH2 0x3360 PUSH2 0x3351 PUSH2 0x334B DUP10 DUP10 PUSH2 0x4A71 JUMP JUMPDEST DUP9 PUSH2 0x3FA5 JUMP JUMPDEST PUSH2 0x335B DUP7 DUP7 PUSH2 0x3FA5 JUMP JUMPDEST PUSH2 0x4029 JUMP JUMPDEST PUSH2 0x336C PUSH1 0x40 PUSH1 0x2 PUSH2 0x4D85 JUMP JUMPDEST PUSH2 0x3376 SWAP2 SWAP1 PUSH2 0x4A84 JUMP JUMPDEST SWAP1 POP PUSH1 0x40 PUSH2 0x3384 DUP3 DUP8 PUSH2 0x4A97 JUMP JUMPDEST SWAP1 SHR SWAP8 SWAP7 POP POP POP POP POP POP POP JUMP JUMPDEST PUSH1 0x0 PUSH1 0x2 PUSH2 0x339E PUSH1 0x2 SLOAD SWAP1 JUMP JUMPDEST PUSH2 0x33A8 SWAP2 SWAP1 PUSH2 0x4ADD JUMP JUMPDEST SWAP1 POP PUSH1 0x10 SLOAD PUSH3 0x15180 PUSH2 0x33BB SWAP2 SWAP1 PUSH2 0x4A71 JUMP JUMPDEST TIMESTAMP GT ISZERO PUSH2 0x3421 JUMPI DUP1 DUP3 LT PUSH1 0x40 MLOAD DUP1 PUSH1 0x60 ADD PUSH1 0x40 MSTORE DUP1 PUSH1 0x2D DUP2 MSTORE PUSH1 0x20 ADD PUSH2 0x4F9A PUSH1 0x2D SWAP2 CODECOPY SWAP1 PUSH2 0x3416 JUMPI PUSH1 0x40 MLOAD PUSH32 0x8C379A000000000000000000000000000000000000000000000000000000000 DUP2 MSTORE PUSH1 0x4 ADD PUSH2 0xB7F SWAP2 SWAP1 PUSH2 0x4314 JUMP JUMPDEST POP POP PUSH1 0xF SSTORE TIMESTAMP PUSH1 0x10 SSTORE JUMP JUMPDEST PUSH1 0x0 PUSH3 0x15180 PUSH1 0x10 SLOAD TIMESTAMP PUSH2 0x3435 SWAP2 SWAP1 PUSH2 0x4A84 JUMP JUMPDEST PUSH2 0x343F SWAP1 DUP5 PUSH2 0x4A97 JUMP JUMPDEST PUSH2 0x3449 SWAP2 SWAP1 PUSH2 0x4ADD JUMP JUMPDEST TIMESTAMP PUSH1 0x10 SSTORE PUSH1 0xF SLOAD SWAP1 SWAP2 POP DUP2 DUP2 LT ISZERO PUSH2 0x34BB JUMPI DUP3 DUP5 LT PUSH1 0x40 MLOAD DUP1 PUSH1 0x60 ADD PUSH1 0x40 MSTORE DUP1 PUSH1 0x2D DUP2 MSTORE PUSH1 0x20 ADD PUSH2 0x4F9A PUSH1 0x2D SWAP2 CODECOPY SWAP1 PUSH2 0x34AF JUMPI PUSH1 0x40 MLOAD PUSH32 0x8C379A000000000000000000000000000000000000000000000000000000000 DUP2 MSTORE PUSH1 0x4 ADD PUSH2 0xB7F SWAP2 SWAP1 PUSH2 0x4314 JUMP JUMPDEST POP POP POP PUSH1 0xF SWAP2 SWAP1 SWAP2 SSTORE POP JUMP JUMPDEST PUSH1 0x0 DUP3 PUSH2 0x34C8 DUP7 DUP5 PUSH2 0x4A71 JUMP JUMPDEST PUSH2 0x34D2 SWAP2 SWAP1 PUSH2 0x4A84 JUMP JUMPDEST SWAP1 POP DUP4 DUP2 LT PUSH1 0x40 MLOAD DUP1 PUSH1 0x60 ADD PUSH1 0x40 MSTORE DUP1 PUSH1 0x2D DUP2 MSTORE PUSH1 0x20 ADD PUSH2 0x4F9A PUSH1 0x2D SWAP2 CODECOPY SWAP1 PUSH2 0x3528 JUMPI PUSH1 0x40 MLOAD PUSH32 0x8C379A000000000000000000000000000000000000000000000000000000000 DUP2 MSTORE PUSH1 0x4 ADD PUSH2 0xB7F SWAP2 SWAP1 PUSH2 0x4314 JUMP JUMPDEST POP PUSH1 0xF SSTORE POP POP POP POP JUMP JUMPDEST PUSH20 0xFFFFFFFFFFFFFFFFFFFFFFFFFFFFFFFFFFFFFFFF DUP3 AND PUSH2 0x35AF JUMPI PUSH1 0x40 MLOAD PUSH32 0x8C379A000000000000000000000000000000000000000000000000000000000 DUP2 MSTORE PUSH1 0x20 PUSH1 0x4 DUP3 ADD MSTORE PUSH1 0x1F PUSH1 0x24 DUP3 ADD MSTORE PUSH32 0x45524332303A206D696E7420746F20746865207A65726F206164647265737300 PUSH1 0x44 DUP3 ADD MSTORE PUSH1 0x64 ADD PUSH2 0xB7F JUMP JUMPDEST DUP1 PUSH1 0x2 PUSH1 0x0 DUP3 DUP3 SLOAD PUSH2 0x35C1 SWAP2 SWAP1 PUSH2 0x4A71 JUMP JUMPDEST SWAP1 SWAP2 SSTORE POP POP PUSH20 0xFFFFFFFFFFFFFFFFFFFFFFFFFFFFFFFFFFFFFFFF DUP3 AND PUSH1 0x0 SWAP1 DUP2 MSTORE PUSH1 0x20 DUP2 SWAP1 MSTORE PUSH1 0x40 DUP2 KECCAK256 DUP1 SLOAD DUP4 SWAP3 SWAP1 PUSH2 0x35FB SWAP1 DUP5 SWAP1 PUSH2 0x4A71 JUMP JUMPDEST SWAP1 SWAP2 SSTORE POP POP PUSH1 0x40 MLOAD DUP2 DUP2 MSTORE PUSH20 0xFFFFFFFFFFFFFFFFFFFFFFFFFFFFFFFFFFFFFFFF DUP4 AND SWAP1 PUSH1 0x0 SWAP1 PUSH32 0xDDF252AD1BE2C89B69C2B068FC378DAA952BA7F163C4A11628F55A4DF523B3EF SWAP1 PUSH1 0x20 ADD PUSH1 0x40 MLOAD DUP1 SWAP2 SUB SWAP1 LOG3 POP POP JUMP JUMPDEST PUSH20 0xFFFFFFFFFFFFFFFFFFFFFFFFFFFFFFFFFFFFFFFF DUP3 AND PUSH2 0x36F5 JUMPI PUSH1 0x40 MLOAD PUSH32 0x8C379A000000000000000000000000000000000000000000000000000000000 DUP2 MSTORE PUSH1 0x20 PUSH1 0x4 DUP3 ADD MSTORE PUSH1 0x21 PUSH1 0x24 DUP3 ADD MSTORE PUSH32 0x45524332303A206275726E2066726F6D20746865207A65726F20616464726573 PUSH1 0x44 DUP3 ADD MSTORE PUSH32 0x7300000000000000000000000000000000000000000000000000000000000000 PUSH1 0x64 DUP3 ADD MSTORE PUSH1 0x84 ADD PUSH2 0xB7F JUMP JUMPDEST PUSH20 0xFFFFFFFFFFFFFFFFFFFFFFFFFFFFFFFFFFFFFFFF DUP3 AND PUSH1 0x0 SWAP1 DUP2 MSTORE PUSH1 0x20 DUP2 SWAP1 MSTORE PUSH1 0x40 SWAP1 KECCAK256 SLOAD DUP2 DUP2 LT ISZERO PUSH2 0x37AB JUMPI PUSH1 0x40 MLOAD PUSH32 0x8C379A000000000000000000000000000000000000000000000000000000000 DUP2 MSTORE PUSH1 0x20 PUSH1 0x4 DUP3 ADD MSTORE PUSH1 0x22 PUSH1 0x24 DUP3 ADD MSTORE PUSH32 0x45524332303A206275726E20616D6F756E7420657863656564732062616C616E PUSH1 0x44 DUP3 ADD MSTORE PUSH32 0x6365000000000000000000000000000000000000000000000000000000000000 PUSH1 0x64 DUP3 ADD MSTORE PUSH1 0x84 ADD PUSH2 0xB7F JUMP JUMPDEST PUSH20 0xFFFFFFFFFFFFFFFFFFFFFFFFFFFFFFFFFFFFFFFF DUP4 AND PUSH1 0x0 SWAP1 DUP2 MSTORE PUSH1 0x20 DUP2 SWAP1 MSTORE PUSH1 0x40 DUP2 KECCAK256 DUP4 DUP4 SUB SWAP1 SSTORE PUSH1 0x2 DUP1 SLOAD DUP5 SWAP3 SWAP1 PUSH2 0x37E7 SWAP1 DUP5 SWAP1 PUSH2 0x4A84 JUMP JUMPDEST SWAP1 SWAP2 SSTORE POP POP PUSH1 0x40 MLOAD DUP3 DUP2 MSTORE PUSH1 0x0 SWAP1 PUSH20 0xFFFFFFFFFFFFFFFFFFFFFFFFFFFFFFFFFFFFFFFF DUP6 AND SWAP1 PUSH32 0xDDF252AD1BE2C89B69C2B068FC378DAA952BA7F163C4A11628F55A4DF523B3EF SWAP1 PUSH1 0x20 ADD PUSH1 0x40 MLOAD DUP1 SWAP2 SUB SWAP1 LOG3 POP POP POP JUMP JUMPDEST PUSH2 0x3854 DUP2 PUSH2 0x384F PUSH1 0x40 PUSH1 0x2 PUSH2 0x4D85 JUMP JUMPDEST PUSH2 0x3532 JUMP JUMPDEST PUSH1 0x14 SLOAD PUSH1 0xFF AND ISZERO PUSH2 0x3864 JUMPI PUSH1 0x0 DUP1 REVERT JUMPDEST PUSH1 0x14 DUP1 SLOAD PUSH32 0xFFFFFFFFFFFFFFFFFFFFFFFFFFFFFFFFFFFFFFFFFFFFFFFFFFFFFFFFFFFFFF00 AND PUSH1 0x1 OR SWAP1 SSTORE PUSH1 0x5 DUP1 SLOAD PUSH20 0xFFFFFFFFFFFFFFFFFFFFFFFFFFFFFFFFFFFFFFFF DUP1 DUP6 AND PUSH32 0xFFFFFFFFFFFFFFFFFFFFFFFF0000000000000000000000000000000000000000 SWAP3 DUP4 AND OR SWAP1 SWAP3 SSTORE PUSH1 0xB DUP1 SLOAD SWAP3 DUP5 AND SWAP3 SWAP1 SWAP2 AND SWAP2 SWAP1 SWAP2 OR SWAP1 SSTORE PUSH1 0x15 PUSH2 0x38F1 DUP7 DUP9 DUP4 PUSH2 0x4E62 JUMP JUMPDEST POP PUSH1 0x16 PUSH2 0x229B DUP5 DUP7 DUP4 PUSH2 0x4E62 JUMP JUMPDEST PUSH1 0x0 PUSH2 0x391C PUSH2 0x3917 DUP5 PUSH2 0x3912 DUP8 DUP3 PUSH2 0x4A84 JUMP JUMPDEST PUSH2 0x3FA5 JUMP JUMPDEST PUSH2 0x4040 JUMP JUMPDEST PUSH2 0x8F3 SWAP1 DUP4 PUSH2 0x4A97 JUMP JUMPDEST PUSH1 0x0 PUSH2 0x8F3 PUSH1 0x40 PUSH2 0x3937 DUP7 DUP6 PUSH2 0x4A97 JUMP JUMPDEST SWAP1 SHL PUSH8 0xB17217F7D1CF79AC PUSH2 0x394C DUP8 DUP8 PUSH2 0x4A71 JUMP JUMPDEST PUSH2 0x3912 SWAP2 SWAP1 PUSH2 0x4A97 JUMP JUMPDEST PUSH1 0x0 PUSH2 0x391C PUSH2 0x3917 PUSH2 0x3968 DUP7 DUP7 PUSH2 0x4A71 JUMP JUMPDEST DUP6 PUSH2 0x3FA5 JUMP JUMPDEST PUSH1 0x0 PUSH1 0x40 DUP3 SWAP1 SHR PUSH1 0x29 DUP2 LT PUSH2 0x3982 JUMPI PUSH1 0x0 DUP1 REVERT JUMPDEST PUSH9 0x10000000000000000 PUSH8 0x8000000000000000 DUP5 AND ISZERO PUSH2 0x39AA JUMPI PUSH8 0xB504F333F9DE6484 MUL PUSH1 0x40 SHR JUMPDEST PUSH8 0x4000000000000000 DUP5 AND ISZERO PUSH2 0x39C8 JUMPI PUSH8 0xD744FCCAD69D6AF4 MUL PUSH1 0x40 SHR JUMPDEST PUSH8 0x2000000000000000 DUP5 AND ISZERO PUSH2 0x39E6 JUMPI PUSH8 0xEAC0C6E7DD24392E MUL PUSH1 0x40 SHR JUMPDEST PUSH8 0x1000000000000000 DUP5 AND ISZERO PUSH2 0x3A04 JUMPI PUSH8 0xF5257D152486CC2C MUL PUSH1 0x40 SHR JUMPDEST PUSH8 0x800000000000000 DUP5 AND ISZERO PUSH2 0x3A22 JUMPI PUSH8 0xFA83B2DB722A033A MUL PUSH1 0x40 SHR JUMPDEST PUSH8 0x400000000000000 DUP5 AND ISZERO PUSH2 0x3A40 JUMPI PUSH8 0xFD3E0C0CF486C174 MUL PUSH1 0x40 SHR JUMPDEST PUSH8 0x200000000000000 DUP5 AND ISZERO PUSH2 0x3A5E JUMPI PUSH8 0xFE9E115C7B8F884B MUL PUSH1 0x40 SHR JUMPDEST PUSH8 0x100000000000000 DUP5 AND ISZERO PUSH2 0x3A7C JUMPI PUSH8 0xFF4ECB59511EC8A5 MUL PUSH1 0x40 SHR JUMPDEST PUSH7 0x80000000000000 DUP5 AND ISZERO PUSH2 0x3A99 JUMPI PUSH8 0xFFA756521C8DAED1 MUL PUSH1 0x40 SHR JUMPDEST PUSH7 0x40000000000000 DUP5 AND ISZERO PUSH2 0x3AB6 JUMPI PUSH8 0xFFD3A751C0F7E10B MUL PUSH1 0x40 SHR JUMPDEST PUSH7 0x20000000000000 DUP5 AND ISZERO PUSH2 0x3AD3 JUMPI PUSH8 0xFFE9D2B2F7DB2755 MUL PUSH1 0x40 SHR JUMPDEST PUSH7 0x10000000000000 DUP5 AND ISZERO PUSH2 0x3AF0 JUMPI PUSH8 0xFFF4E91BFF1B8C3D MUL PUSH1 0x40 SHR JUMPDEST PUSH7 0x8000000000000 DUP5 AND ISZERO PUSH2 0x3B0D JUMPI PUSH8 0xFFFA747EA0040664 MUL PUSH1 0x40 SHR JUMPDEST PUSH7 0x4000000000000 DUP5 AND ISZERO PUSH2 0x3B2A JUMPI PUSH8 0xFFFD3A3B7814EB53 MUL PUSH1 0x40 SHR JUMPDEST PUSH7 0x2000000000000 DUP5 AND ISZERO PUSH2 0x3B47 JUMPI PUSH8 0xFFFE9D1CC60DDAB1 MUL PUSH1 0x40 SHR JUMPDEST PUSH7 0x1000000000000 DUP5 AND ISZERO PUSH2 0x3B64 JUMPI PUSH8 0xFFFF4E8E25879BFA MUL PUSH1 0x40 SHR JUMPDEST PUSH6 0x800000000000 DUP5 AND ISZERO PUSH2 0x3B80 JUMPI PUSH8 0xFFFFA7470363F451 MUL PUSH1 0x40 SHR JUMPDEST PUSH6 0x400000000000 DUP5 AND ISZERO PUSH2 0x3B9C JUMPI PUSH8 0xFFFFD3A37DDA0313 MUL PUSH1 0x40 SHR JUMPDEST PUSH6 0x200000000000 DUP5 AND ISZERO PUSH2 0x3BB8 JUMPI PUSH8 0xFFFFE9D1BDF703AE MUL PUSH1 0x40 SHR JUMPDEST SWAP1 SHR SWAP3 SWAP2 POP POP JUMP JUMPDEST PUSH1 0x0 PUSH1 0x40 DUP3 SWAP1 SHR PUSH1 0xC0 DUP2 LT PUSH2 0x3BD4 JUMPI PUSH1 0x0 DUP1 REVERT JUMPDEST PUSH9 0x10000000000000000 PUSH8 0x8000000000000000 DUP5 AND ISZERO PUSH2 0x3BFD JUMPI PUSH9 0x16A09E667F3BCC909 MUL PUSH1 0x40 SHR JUMPDEST PUSH8 0x4000000000000000 DUP5 AND ISZERO PUSH2 0x3C1C JUMPI PUSH9 0x1306FE0A31B7152DF MUL PUSH1 0x40 SHR JUMPDEST PUSH8 0x2000000000000000 DUP5 AND ISZERO PUSH2 0x3C3B JUMPI PUSH9 0x1172B83C7D517ADCE MUL PUSH1 0x40 SHR JUMPDEST PUSH8 0x1000000000000000 DUP5 AND ISZERO PUSH2 0x3C5A JUMPI PUSH9 0x10B5586CF9890F62A MUL PUSH1 0x40 SHR JUMPDEST PUSH8 0x800000000000000 DUP5 AND ISZERO PUSH2 0x3C79 JUMPI PUSH9 0x1059B0D31585743AE MUL PUSH1 0x40 SHR JUMPDEST PUSH8 0x400000000000000 DUP5 AND ISZERO PUSH2 0x3C98 JUMPI PUSH9 0x102C9A3E778060EE7 MUL PUSH1 0x40 SHR JUMPDEST PUSH8 0x200000000000000 DUP5 AND ISZERO PUSH2 0x3CB7 JUMPI PUSH9 0x10163DA9FB33356D8 MUL PUSH1 0x40 SHR JUMPDEST PUSH8 0x100000000000000 DUP5 AND ISZERO PUSH2 0x3CD6 JUMPI PUSH9 0x100B1AFA5ABCBED61 MUL PUSH1 0x40 SHR JUMPDEST PUSH7 0x80000000000000 DUP5 AND ISZERO PUSH2 0x3CF4 JUMPI PUSH9 0x10058C86DA1C09EA2 MUL PUSH1 0x40 SHR JUMPDEST PUSH7 0x40000000000000 DUP5 AND ISZERO PUSH2 0x3D12 JUMPI PUSH9 0x1002C605E2E8CEC50 MUL PUSH1 0x40 SHR JUMPDEST PUSH7 0x20000000000000 DUP5 AND ISZERO PUSH2 0x3D30 JUMPI PUSH9 0x100162F3904051FA1 MUL PUSH1 0x40 SHR JUMPDEST PUSH7 0x10000000000000 DUP5 AND ISZERO PUSH2 0x3D4E JUMPI PUSH9 0x1000B175EFFDC76BA MUL PUSH1 0x40 SHR JUMPDEST PUSH7 0x8000000000000 DUP5 AND ISZERO PUSH2 0x3D6C JUMPI PUSH9 0x100058BA01FB9F96D MUL PUSH1 0x40 SHR JUMPDEST PUSH7 0x4000000000000 DUP5 AND ISZERO PUSH2 0x3D8A JUMPI PUSH9 0x10002C5CC37DA9492 MUL PUSH1 0x40 SHR JUMPDEST PUSH7 0x2000000000000 DUP5 AND ISZERO PUSH2 0x3DA8 JUMPI PUSH9 0x1000162E525EE0547 MUL PUSH1 0x40 SHR JUMPDEST PUSH7 0x1000000000000 DUP5 AND ISZERO PUSH2 0x3DC6 JUMPI PUSH9 0x10000B17255775C04 MUL PUSH1 0x40 SHR JUMPDEST PUSH6 0x800000000000 DUP5 AND ISZERO PUSH2 0x3DE3 JUMPI PUSH9 0x1000058B91B5BC9AE MUL PUSH1 0x40 SHR JUMPDEST PUSH6 0x400000000000 DUP5 AND ISZERO PUSH2 0x3E00 JUMPI PUSH9 0x100002C5C89D5EC6D MUL PUSH1 0x40 SHR JUMPDEST PUSH6 0x200000000000 DUP5 AND ISZERO PUSH2 0x3E1D JUMPI PUSH9 0x10000162E43F4F831 MUL PUSH1 0x40 SHR JUMPDEST PUSH6 0x100000000000 DUP5 AND ISZERO PUSH2 0x3E3A JUMPI PUSH9 0x100000B1721BCFC9A MUL PUSH1 0x40 SHR JUMPDEST PUSH6 0x80000000000 DUP5 AND ISZERO PUSH2 0x3E57 JUMPI PUSH9 0x10000058B90CF1E6E MUL PUSH1 0x40 SHR JUMPDEST PUSH6 0x40000000000 DUP5 AND ISZERO PUSH2 0x3E74 JUMPI PUSH9 0x1000002C5C863B73F MUL PUSH1 0x40 SHR JUMPDEST PUSH6 0x20000000000 DUP5 AND ISZERO PUSH2 0x3E91 JUMPI PUSH9 0x100000162E430E5A2 MUL PUSH1 0x40 SHR JUMPDEST SWAP1 SHL SWAP3 SWAP2 POP POP JUMP JUMPDEST PUSH1 0x0 PUSH2 0x3EFB DUP3 PUSH1 0x40 MLOAD DUP1 PUSH1 0x40 ADD PUSH1 0x40 MSTORE DUP1 PUSH1 0x20 DUP2 MSTORE PUSH1 0x20 ADD PUSH32 0x5361666545524332303A206C6F772D6C6576656C2063616C6C206661696C6564 DUP2 MSTORE POP DUP6 PUSH20 0xFFFFFFFFFFFFFFFFFFFFFFFFFFFFFFFFFFFFFFFF AND PUSH2 0x4175 SWAP1 SWAP3 SWAP2 SWAP1 PUSH4 0xFFFFFFFF AND JUMP JUMPDEST DUP1 MLOAD SWAP1 SWAP2 POP ISZERO PUSH2 0x3200 JUMPI DUP1 DUP1 PUSH1 0x20 ADD SWAP1 MLOAD DUP2 ADD SWAP1 PUSH2 0x3F19 SWAP2 SWAP1 PUSH2 0x4DF7 JUMP JUMPDEST PUSH2 0x3200 JUMPI PUSH1 0x40 MLOAD PUSH32 0x8C379A000000000000000000000000000000000000000000000000000000000 DUP2 MSTORE PUSH1 0x20 PUSH1 0x4 DUP3 ADD MSTORE PUSH1 0x2A PUSH1 0x24 DUP3 ADD MSTORE PUSH32 0x5361666545524332303A204552433230206F7065726174696F6E20646964206E PUSH1 0x44 DUP3 ADD MSTORE PUSH32 0x6F74207375636365656400000000000000000000000000000000000000000000 PUSH1 0x64 DUP3 ADD MSTORE PUSH1 0x84 ADD PUSH2 0xB7F JUMP JUMPDEST PUSH1 0x0 DUP1 DUP3 PUSH1 0x1 PUSH2 0x3FB7 PUSH1 0x40 PUSH1 0x2 PUSH2 0x4D85 JUMP JUMPDEST PUSH2 0x3FC1 SWAP2 SWAP1 PUSH2 0x4A84 JUMP JUMPDEST PUSH2 0x3FCB SWAP2 SWAP1 PUSH2 0x4B0A JUMP JUMPDEST SWAP1 POP PUSH1 0x0 DUP4 PUSH1 0x1 PUSH2 0x3FDE PUSH1 0x40 PUSH1 0x2 PUSH2 0x4D85 JUMP JUMPDEST PUSH2 0x3FE8 SWAP2 SWAP1 PUSH2 0x4A84 JUMP JUMPDEST PUSH2 0x3FF2 SWAP2 SWAP1 PUSH2 0x4ADD JUMP JUMPDEST SWAP1 POP DUP4 DUP6 PUSH2 0x4001 DUP5 PUSH1 0x1 PUSH2 0x4A71 JUMP JUMPDEST PUSH2 0x400B SWAP2 SWAP1 PUSH2 0x4A97 JUMP JUMPDEST PUSH2 0x4015 SWAP2 SWAP1 PUSH2 0x4ADD JUMP JUMPDEST PUSH2 0x401F DUP7 DUP4 PUSH2 0x4A97 JUMP JUMPDEST PUSH2 0xAA0 SWAP2 SWAP1 PUSH2 0x4A71 JUMP JUMPDEST PUSH1 0x0 PUSH2 0x91A PUSH2 0x2F53 DUP4 PUSH2 0x403B DUP7 PUSH2 0x4040 JUMP JUMPDEST PUSH2 0x3205 JUMP JUMPDEST PUSH1 0x0 PUSH9 0x10000000000000000 DUP3 LT ISZERO PUSH2 0x4058 JUMPI PUSH1 0x0 DUP1 REVERT JUMPDEST DUP2 PUSH1 0x0 PUSH17 0x100000000000000000000000000000000 DUP3 LT PUSH2 0x407B JUMPI PUSH1 0x80 SWAP2 DUP3 SHR SWAP2 ADD JUMPDEST PUSH9 0x10000000000000000 DUP3 LT PUSH2 0x4093 JUMPI PUSH1 0x40 SWAP2 DUP3 SHR SWAP2 ADD JUMPDEST PUSH5 0x100000000 DUP3 LT PUSH2 0x40A7 JUMPI PUSH1 0x20 SWAP2 DUP3 SHR SWAP2 ADD JUMPDEST PUSH3 0x10000 DUP3 LT PUSH2 0x40B9 JUMPI PUSH1 0x10 SWAP2 DUP3 SHR SWAP2 ADD JUMPDEST PUSH2 0x100 DUP3 LT PUSH2 0x40CA JUMPI PUSH1 0x8 SWAP2 DUP3 SHR SWAP2 ADD JUMPDEST PUSH1 0x10 DUP3 LT PUSH2 0x40DA JUMPI PUSH1 0x4 SWAP2 DUP3 SHR SWAP2 ADD JUMPDEST PUSH1 0x4 DUP3 LT PUSH2 0x40EA JUMPI PUSH1 0x2 SWAP2 DUP3 SHR SWAP2 ADD JUMPDEST PUSH1 0x2 DUP3 LT PUSH2 0x40F6 JUMPI PUSH1 0x1 ADD JUMPDEST PUSH32 0xFFFFFFFFFFFFFFFFFFFFFFFFFFFFFFFFFFFFFFFFFFFFFFFFFFFFFFFFFFFFFFC0 ADD PUSH1 0x1 DUP2 SHL DUP5 DUP2 PUSH2 0x412A JUMPI PUSH2 0x412A PUSH2 0x4AAE JUMP JUMPDEST DIV SWAP2 POP PUSH1 0x40 SHL PUSH1 0x0 JUMPDEST PUSH1 0x18 DUP2 LT ISZERO PUSH2 0x416D JUMPI PUSH9 0x20000000000000000 DUP4 LT PUSH2 0x415E JUMPI PUSH1 0x1 SWAP3 DUP4 SHR SWAP3 PUSH1 0x40 DUP3 SWAP1 SUB SHL SWAP2 SWAP1 SWAP2 ADD SWAP1 JUMPDEST SWAP2 DUP1 MUL PUSH1 0x40 SHR SWAP2 PUSH1 0x1 ADD PUSH2 0x4133 JUMP JUMPDEST POP SWAP4 SWAP3 POP POP POP JUMP JUMPDEST PUSH1 0x60 PUSH2 0x8F3 DUP5 DUP5 PUSH1 0x0 DUP6 DUP6 PUSH20 0xFFFFFFFFFFFFFFFFFFFFFFFFFFFFFFFFFFFFFFFF DUP6 AND EXTCODESIZE PUSH2 0x41FE JUMPI PUSH1 0x40 MLOAD PUSH32 0x8C379A000000000000000000000000000000000000000000000000000000000 DUP2 MSTORE PUSH1 0x20 PUSH1 0x4 DUP3 ADD MSTORE PUSH1 0x1D PUSH1 0x24 DUP3 ADD MSTORE PUSH32 0x416464726573733A2063616C6C20746F206E6F6E2D636F6E7472616374000000 PUSH1 0x44 DUP3 ADD MSTORE PUSH1 0x64 ADD PUSH2 0xB7F JUMP JUMPDEST PUSH1 0x0 DUP1 DUP7 PUSH20 0xFFFFFFFFFFFFFFFFFFFFFFFFFFFFFFFFFFFFFFFF AND DUP6 DUP8 PUSH1 0x40 MLOAD PUSH2 0x4227 SWAP2 SWAP1 PUSH2 0x4F7D JUMP JUMPDEST PUSH1 0x0 PUSH1 0x40 MLOAD DUP1 DUP4 SUB DUP2 DUP6 DUP8 GAS CALL SWAP3 POP POP POP RETURNDATASIZE DUP1 PUSH1 0x0 DUP2 EQ PUSH2 0x4264 JUMPI PUSH1 0x40 MLOAD SWAP2 POP PUSH1 0x1F NOT PUSH1 0x3F RETURNDATASIZE ADD AND DUP3 ADD PUSH1 0x40 MSTORE RETURNDATASIZE DUP3 MSTORE RETURNDATASIZE PUSH1 0x0 PUSH1 0x20 DUP5 ADD RETURNDATACOPY PUSH2 0x4269 JUMP JUMPDEST PUSH1 0x60 SWAP2 POP JUMPDEST POP SWAP2 POP SWAP2 POP PUSH2 0x4279 DUP3 DUP3 DUP7 PUSH2 0x4284 JUMP JUMPDEST SWAP8 SWAP7 POP POP POP POP POP POP POP JUMP JUMPDEST PUSH1 0x60 DUP4 ISZERO PUSH2 0x4293 JUMPI POP DUP2 PUSH2 0x91A JUMP JUMPDEST DUP3 MLOAD ISZERO PUSH2 0x42A3 JUMPI DUP3 MLOAD DUP1 DUP5 PUSH1 0x20 ADD REVERT JUMPDEST DUP2 PUSH1 0x40 MLOAD PUSH32 0x8C379A000000000000000000000000000000000000000000000000000000000 DUP2 MSTORE PUSH1 0x4 ADD PUSH2 0xB7F SWAP2 SWAP1 PUSH2 0x4314 JUMP JUMPDEST PUSH1 0x0 PUSH1 0x20 DUP3 DUP5 SUB SLT ISZERO PUSH2 0x42E9 JUMPI PUSH1 0x0 DUP1 REVERT JUMPDEST POP CALLDATALOAD SWAP2 SWAP1 POP JUMP JUMPDEST PUSH1 0x0 JUMPDEST DUP4 DUP2 LT ISZERO PUSH2 0x430B JUMPI DUP2 DUP2 ADD MLOAD DUP4 DUP3 ADD MSTORE PUSH1 0x20 ADD PUSH2 0x42F3 JUMP JUMPDEST POP POP PUSH1 0x0 SWAP2 ADD MSTORE JUMP JUMPDEST PUSH1 0x20 DUP2 MSTORE PUSH1 0x0 DUP3 MLOAD DUP1 PUSH1 0x20 DUP5 ADD MSTORE PUSH2 0x4333 DUP2 PUSH1 0x40 DUP6 ADD PUSH1 0x20 DUP8 ADD PUSH2 0x42F0 JUMP JUMPDEST PUSH1 0x1F ADD PUSH32 0xFFFFFFFFFFFFFFFFFFFFFFFFFFFFFFFFFFFFFFFFFFFFFFFFFFFFFFFFFFFFFFE0 AND SWAP2 SWAP1 SWAP2 ADD PUSH1 0x40 ADD SWAP3 SWAP2 POP POP JUMP JUMPDEST DUP1 CALLDATALOAD PUSH20 0xFFFFFFFFFFFFFFFFFFFFFFFFFFFFFFFFFFFFFFFF DUP2 AND DUP2 EQ PUSH2 0x4389 JUMPI PUSH1 0x0 DUP1 REVERT JUMPDEST SWAP2 SWAP1 POP JUMP JUMPDEST PUSH1 0x0 DUP1 PUSH1 0x40 DUP4 DUP6 SUB SLT ISZERO PUSH2 0x43A1 JUMPI PUSH1 0x0 DUP1 REVERT JUMPDEST PUSH2 0x43AA DUP4 PUSH2 0x4365 JUMP JUMPDEST SWAP5 PUSH1 0x20 SWAP4 SWAP1 SWAP4 ADD CALLDATALOAD SWAP4 POP POP POP JUMP JUMPDEST PUSH1 0x0 DUP1 PUSH1 0x0 DUP1 PUSH1 0x80 DUP6 DUP8 SUB SLT ISZERO PUSH2 0x43CE JUMPI PUSH1 0x0 DUP1 REVERT JUMPDEST PUSH2 0x43D7 DUP6 PUSH2 0x4365 JUMP JUMPDEST SWAP4 POP PUSH2 0x43E5 PUSH1 0x20 DUP7 ADD PUSH2 0x4365 JUMP JUMPDEST SWAP4 SWAP7 SWAP4 SWAP6 POP POP POP POP PUSH1 0x40 DUP3 ADD CALLDATALOAD SWAP2 PUSH1 0x60 ADD CALLDATALOAD SWAP1 JUMP JUMPDEST PUSH1 0x0 DUP1 PUSH1 0x0 PUSH1 0x60 DUP5 DUP7 SUB SLT ISZERO PUSH2 0x440F JUMPI PUSH1 0x0 DUP1 REVERT JUMPDEST PUSH2 0x4418 DUP5 PUSH2 0x4365 JUMP JUMPDEST SWAP3 POP PUSH2 0x4426 PUSH1 0x20 DUP6 ADD PUSH2 0x4365 JUMP JUMPDEST SWAP2 POP PUSH1 0x40 DUP5 ADD CALLDATALOAD SWAP1 POP SWAP3 POP SWAP3 POP SWAP3 JUMP JUMPDEST PUSH1 0x0 PUSH1 0x20 DUP3 DUP5 SUB SLT ISZERO PUSH2 0x4448 JUMPI PUSH1 0x0 DUP1 REVERT JUMPDEST PUSH2 0x91A DUP3 PUSH2 0x4365 JUMP JUMPDEST DUP1 ISZERO ISZERO DUP2 EQ PUSH2 0x445F JUMPI PUSH1 0x0 DUP1 REVERT JUMPDEST POP JUMP JUMPDEST PUSH1 0x0 DUP1 PUSH1 0x0 PUSH1 0x60 DUP5 DUP7 SUB SLT ISZERO PUSH2 0x4477 JUMPI PUSH1 0x0 DUP1 REVERT JUMPDEST PUSH2 0x4480 DUP5 PUSH2 0x4365 JUMP JUMPDEST SWAP3 POP PUSH1 0x20 DUP5 ADD CALLDATALOAD SWAP2 POP PUSH1 0x40 DUP5 ADD CALLDATALOAD PUSH2 0x4497 DUP2 PUSH2 0x4451 JUMP JUMPDEST DUP1 SWAP2 POP POP SWAP3 POP SWAP3 POP SWAP3 JUMP JUMPDEST PUSH1 0x0 DUP1 PUSH1 0x0 PUSH1 0x60 DUP5 DUP7 SUB SLT ISZERO PUSH2 0x44B7 JUMPI PUSH1 0x0 DUP1 REVERT JUMPDEST PUSH2 0x44C0 DUP5 PUSH2 0x4365 JUMP JUMPDEST SWAP6 PUSH1 0x20 DUP6 ADD CALLDATALOAD SWAP6 POP PUSH1 0x40 SWAP1 SWAP5 ADD CALLDATALOAD SWAP4 SWAP3 POP POP POP JUMP JUMPDEST PUSH1 0x0 DUP1 PUSH1 0x0 DUP1 PUSH1 0x0 PUSH1 0xA0 DUP7 DUP9 SUB SLT ISZERO PUSH2 0x44ED JUMPI PUSH1 0x0 DUP1 REVERT JUMPDEST DUP6 CALLDATALOAD SWAP5 POP PUSH2 0x44FD PUSH1 0x20 DUP8 ADD PUSH2 0x4365 JUMP JUMPDEST SWAP4 POP PUSH1 0x40 DUP7 ADD CALLDATALOAD SWAP3 POP PUSH1 0x60 DUP7 ADD CALLDATALOAD SWAP2 POP PUSH1 0x80 DUP7 ADD CALLDATALOAD PUSH2 0x451B DUP2 PUSH2 0x4451 JUMP JUMPDEST DUP1 SWAP2 POP POP SWAP3 SWAP6 POP SWAP3 SWAP6 SWAP1 SWAP4 POP JUMP JUMPDEST PUSH1 0x0 DUP1 PUSH1 0x0 PUSH1 0x60 DUP5 DUP7 SUB SLT ISZERO PUSH2 0x453E JUMPI PUSH1 0x0 DUP1 REVERT JUMPDEST POP POP DUP2 CALLDATALOAD SWAP4 PUSH1 0x20 DUP4 ADD CALLDATALOAD SWAP4 POP PUSH1 0x40 SWAP1 SWAP3 ADD CALLDATALOAD SWAP2 SWAP1 POP JUMP JUMPDEST DUP1 CALLDATALOAD PUSH4 0xFFFFFFFF DUP2 AND DUP2 EQ PUSH2 0x4389 JUMPI PUSH1 0x0 DUP1 REVERT JUMPDEST DUP1 CALLDATALOAD PUSH1 0xFF DUP2 AND DUP2 EQ PUSH2 0x4389 JUMPI PUSH1 0x0 DUP1 REVERT JUMPDEST PUSH1 0x0 DUP1 PUSH1 0x0 DUP1 PUSH1 0x0 DUP1 PUSH1 0x0 DUP1 PUSH1 0x0 PUSH2 0x120 DUP11 DUP13 SUB SLT ISZERO PUSH2 0x4599 JUMPI PUSH1 0x0 DUP1 REVERT JUMPDEST PUSH2 0x45A2 DUP11 PUSH2 0x4555 JUMP JUMPDEST SWAP9 POP PUSH1 0x20 DUP11 ADD CALLDATALOAD SWAP8 POP PUSH1 0x40 DUP11 ADD CALLDATALOAD SWAP7 POP PUSH2 0x45BE PUSH1 0x60 DUP12 ADD PUSH2 0x4365 JUMP JUMPDEST SWAP6 POP PUSH2 0x45CC PUSH1 0x80 DUP12 ADD PUSH2 0x4569 JUMP JUMPDEST SWAP5 POP PUSH1 0xA0 DUP11 ADD CALLDATALOAD SWAP4 POP PUSH1 0xC0 DUP11 ADD CALLDATALOAD SWAP3 POP PUSH2 0x45E8 PUSH1 0xE0 DUP12 ADD PUSH2 0x4569 JUMP JUMPDEST SWAP2 POP PUSH2 0x45F7 PUSH2 0x100 DUP12 ADD PUSH2 0x4365 JUMP JUMPDEST SWAP1 POP SWAP3 SWAP6 SWAP9 POP SWAP3 SWAP6 SWAP9 POP SWAP3 SWAP6 SWAP9 JUMP JUMPDEST PUSH1 0x0 DUP1 PUSH1 0x0 DUP1 PUSH1 0x0 PUSH1 0xA0 DUP7 DUP9 SUB SLT ISZERO PUSH2 0x461E JUMPI PUSH1 0x0 DUP1 REVERT JUMPDEST PUSH2 0x4627 DUP7 PUSH2 0x4365 JUMP JUMPDEST SWAP5 POP PUSH2 0x44FD PUSH1 0x20 DUP8 ADD PUSH2 0x4365 JUMP JUMPDEST PUSH1 0x0 DUP1 PUSH1 0x0 DUP1 PUSH1 0x80 DUP6 DUP8 SUB SLT ISZERO PUSH2 0x464B JUMPI PUSH1 0x0 DUP1 REVERT JUMPDEST PUSH2 0x4654 DUP6 PUSH2 0x4365 JUMP JUMPDEST SWAP4 POP PUSH2 0x4662 PUSH1 0x20 DUP7 ADD PUSH2 0x4365 JUMP JUMPDEST SWAP3 POP PUSH1 0x40 DUP6 ADD CALLDATALOAD SWAP2 POP PUSH1 0x60 DUP6 ADD CALLDATALOAD PUSH2 0x4679 DUP2 PUSH2 0x4451 JUMP JUMPDEST SWAP4 SWAP7 SWAP3 SWAP6 POP SWAP1 SWAP4 POP POP JUMP JUMPDEST PUSH1 0x0 DUP1 PUSH1 0x0 DUP1 PUSH1 0x80 DUP6 DUP8 SUB SLT ISZERO PUSH2 0x469A JUMPI PUSH1 0x0 DUP1 REVERT JUMPDEST POP POP DUP3 CALLDATALOAD SWAP5 PUSH1 0x20 DUP5 ADD CALLDATALOAD SWAP5 POP PUSH1 0x40 DUP5 ADD CALLDATALOAD SWAP4 PUSH1 0x60 ADD CALLDATALOAD SWAP3 POP SWAP1 POP JUMP JUMPDEST PUSH1 0x0 DUP1 DUP4 PUSH1 0x1F DUP5 ADD SLT PUSH2 0x46C8 JUMPI PUSH1 0x0 DUP1 REVERT JUMPDEST POP DUP2 CALLDATALOAD PUSH8 0xFFFFFFFFFFFFFFFF DUP2 GT ISZERO PUSH2 0x46E0 JUMPI PUSH1 0x0 DUP1 REVERT JUMPDEST PUSH1 0x20 DUP4 ADD SWAP2 POP DUP4 PUSH1 0x20 DUP3 DUP6 ADD ADD GT ISZERO PUSH2 0x46F8 JUMPI PUSH1 0x0 DUP1 REVERT JUMPDEST SWAP3 POP SWAP3 SWAP1 POP JUMP JUMPDEST PUSH1 0x0 DUP1 PUSH1 0x0 DUP1 PUSH1 0x0 DUP1 PUSH1 0x0 DUP1 PUSH1 0xE0 DUP10 DUP12 SUB SLT ISZERO PUSH2 0x471B JUMPI PUSH1 0x0 DUP1 REVERT JUMPDEST DUP9 CALLDATALOAD SWAP8 POP PUSH2 0x472B PUSH1 0x20 DUP11 ADD PUSH2 0x4365 JUMP JUMPDEST SWAP7 POP PUSH1 0x40 DUP10 ADD CALLDATALOAD SWAP6 POP PUSH1 0x60 DUP10 ADD CALLDATALOAD SWAP5 POP PUSH1 0x80 DUP10 ADD CALLDATALOAD PUSH2 0x4749 DUP2 PUSH2 0x4451 JUMP JUMPDEST SWAP4 POP PUSH2 0x4757 PUSH1 0xA0 DUP11 ADD PUSH2 0x4365 JUMP JUMPDEST SWAP3 POP PUSH1 0xC0 DUP10 ADD CALLDATALOAD PUSH8 0xFFFFFFFFFFFFFFFF DUP2 GT ISZERO PUSH2 0x4773 JUMPI PUSH1 0x0 DUP1 REVERT JUMPDEST PUSH2 0x477F DUP12 DUP3 DUP13 ADD PUSH2 0x46B6 JUMP JUMPDEST SWAP10 SWAP13 SWAP9 SWAP12 POP SWAP7 SWAP10 POP SWAP5 SWAP8 SWAP4 SWAP7 SWAP3 SWAP6 SWAP5 POP POP POP JUMP JUMPDEST PUSH1 0x0 DUP1 DUP4 PUSH1 0x1F DUP5 ADD SLT PUSH2 0x47A5 JUMPI PUSH1 0x0 DUP1 REVERT JUMPDEST POP DUP2 CALLDATALOAD PUSH8 0xFFFFFFFFFFFFFFFF DUP2 GT ISZERO PUSH2 0x47BD JUMPI PUSH1 0x0 DUP1 REVERT JUMPDEST PUSH1 0x20 DUP4 ADD SWAP2 POP DUP4 PUSH1 0x20 DUP3 PUSH1 0x5 SHL DUP6 ADD ADD GT ISZERO PUSH2 0x46F8 JUMPI PUSH1 0x0 DUP1 REVERT JUMPDEST PUSH1 0x0 DUP1 PUSH1 0x0 DUP1 PUSH1 0x0 DUP1 PUSH1 0x0 DUP1 PUSH1 0x0 DUP1 PUSH1 0x0 PUSH1 0xE0 DUP13 DUP15 SUB SLT ISZERO PUSH2 0x47F9 JUMPI PUSH1 0x0 DUP1 REVERT JUMPDEST PUSH2 0x4802 DUP13 PUSH2 0x4365 JUMP JUMPDEST SWAP11 POP PUSH8 0xFFFFFFFFFFFFFFFF DUP1 PUSH1 0x20 DUP15 ADD CALLDATALOAD GT ISZERO PUSH2 0x481E JUMPI PUSH1 0x0 DUP1 REVERT JUMPDEST PUSH2 0x482E DUP15 PUSH1 0x20 DUP16 ADD CALLDATALOAD DUP16 ADD PUSH2 0x4793 JUMP JUMPDEST SWAP1 SWAP12 POP SWAP10 POP PUSH1 0x40 DUP14 ADD CALLDATALOAD DUP2 LT ISZERO PUSH2 0x4844 JUMPI PUSH1 0x0 DUP1 REVERT JUMPDEST PUSH2 0x4854 DUP15 PUSH1 0x40 DUP16 ADD CALLDATALOAD DUP16 ADD PUSH2 0x4793 JUMP JUMPDEST SWAP1 SWAP10 POP SWAP8 POP PUSH1 0x60 DUP14 ADD CALLDATALOAD SWAP7 POP PUSH1 0x80 DUP14 ADD CALLDATALOAD DUP2 LT ISZERO PUSH2 0x4871 JUMPI PUSH1 0x0 DUP1 REVERT JUMPDEST PUSH2 0x4881 DUP15 PUSH1 0x80 DUP16 ADD CALLDATALOAD DUP16 ADD PUSH2 0x46B6 JUMP JUMPDEST SWAP1 SWAP7 POP SWAP5 POP PUSH1 0xA0 DUP14 ADD CALLDATALOAD DUP2 LT ISZERO PUSH2 0x4897 JUMPI PUSH1 0x0 DUP1 REVERT JUMPDEST POP PUSH2 0x48A8 DUP14 PUSH1 0xA0 DUP15 ADD CALLDATALOAD DUP15 ADD PUSH2 0x46B6 JUMP JUMPDEST SWAP1 SWAP4 POP SWAP2 POP PUSH2 0x48B9 PUSH1 0xC0 DUP14 ADD PUSH2 0x4365 JUMP JUMPDEST SWAP1 POP SWAP3 SWAP6 SWAP9 SWAP12 POP SWAP3 SWAP6 SWAP9 SWAP12 SWAP1 SWAP4 SWAP7 SWAP10 POP JUMP JUMPDEST PUSH1 0x0 DUP1 PUSH1 0x0 PUSH1 0x60 DUP5 DUP7 SUB SLT ISZERO PUSH2 0x48E0 JUMPI PUSH1 0x0 DUP1 REVERT JUMPDEST DUP4 CALLDATALOAD SWAP3 POP PUSH1 0x20 DUP5 ADD CALLDATALOAD SWAP2 POP PUSH1 0x40 DUP5 ADD CALLDATALOAD PUSH2 0x4497 DUP2 PUSH2 0x4451 JUMP JUMPDEST PUSH1 0x0 DUP1 PUSH1 0x0 DUP1 PUSH1 0x0 DUP1 PUSH1 0x0 DUP1 PUSH1 0x0 DUP1 PUSH1 0x0 PUSH2 0x140 DUP13 DUP15 SUB SLT ISZERO PUSH2 0x491B JUMPI PUSH1 0x0 DUP1 REVERT JUMPDEST PUSH2 0x4924 DUP13 PUSH2 0x4555 JUMP JUMPDEST SWAP11 POP PUSH1 0x20 DUP13 ADD CALLDATALOAD SWAP10 POP PUSH1 0x40 DUP13 ADD CALLDATALOAD SWAP9 POP PUSH2 0x4940 PUSH1 0x60 DUP14 ADD PUSH2 0x4365 JUMP JUMPDEST SWAP8 POP PUSH2 0x494E PUSH1 0x80 DUP14 ADD PUSH2 0x4569 JUMP JUMPDEST SWAP7 POP PUSH1 0xA0 DUP13 ADD CALLDATALOAD SWAP6 POP PUSH1 0xC0 DUP13 ADD CALLDATALOAD SWAP5 POP PUSH2 0x496A PUSH1 0xE0 DUP14 ADD PUSH2 0x4569 JUMP JUMPDEST SWAP4 POP PUSH2 0x4979 PUSH2 0x100 DUP14 ADD PUSH2 0x4365 JUMP JUMPDEST SWAP3 POP PUSH2 0x120 DUP13 ADD CALLDATALOAD PUSH8 0xFFFFFFFFFFFFFFFF DUP2 GT ISZERO PUSH2 0x4996 JUMPI PUSH1 0x0 DUP1 REVERT JUMPDEST PUSH2 0x49A2 DUP15 DUP3 DUP16 ADD PUSH2 0x46B6 JUMP JUMPDEST SWAP2 POP DUP1 SWAP4 POP POP DUP1 SWAP2 POP POP SWAP3 SWAP6 SWAP9 SWAP12 POP SWAP3 SWAP6 SWAP9 SWAP12 SWAP1 SWAP4 SWAP7 SWAP10 POP JUMP JUMPDEST PUSH1 0x0 DUP1 PUSH1 0x40 DUP4 DUP6 SUB SLT ISZERO PUSH2 0x49CF JUMPI PUSH1 0x0 DUP1 REVERT JUMPDEST PUSH2 0x49D8 DUP4 PUSH2 0x4365 JUMP JUMPDEST SWAP2 POP PUSH2 0x49E6 PUSH1 0x20 DUP5 ADD PUSH2 0x4365 JUMP JUMPDEST SWAP1 POP SWAP3 POP SWAP3 SWAP1 POP JUMP JUMPDEST PUSH1 0x1 DUP2 DUP2 SHR SWAP1 DUP3 AND DUP1 PUSH2 0x4A03 JUMPI PUSH1 0x7F DUP3 AND SWAP2 POP JUMPDEST PUSH1 0x20 DUP3 LT DUP2 SUB PUSH2 0x4A3C JUMPI PUSH32 0x4E487B7100000000000000000000000000000000000000000000000000000000 PUSH1 0x0 MSTORE PUSH1 0x22 PUSH1 0x4 MSTORE PUSH1 0x24 PUSH1 0x0 REVERT JUMPDEST POP SWAP2 SWAP1 POP JUMP JUMPDEST PUSH32 0x4E487B7100000000000000000000000000000000000000000000000000000000 PUSH1 0x0 MSTORE PUSH1 0x11 PUSH1 0x4 MSTORE PUSH1 0x24 PUSH1 0x0 REVERT JUMPDEST DUP1 DUP3 ADD DUP1 DUP3 GT ISZERO PUSH2 0x85F JUMPI PUSH2 0x85F PUSH2 0x4A42 JUMP JUMPDEST DUP2 DUP2 SUB DUP2 DUP2 GT ISZERO PUSH2 0x85F JUMPI PUSH2 0x85F PUSH2 0x4A42 JUMP JUMPDEST DUP1 DUP3 MUL DUP2 ISZERO DUP3 DUP3 DIV DUP5 EQ OR PUSH2 0x85F JUMPI PUSH2 0x85F PUSH2 0x4A42 JUMP JUMPDEST PUSH32 0x4E487B7100000000000000000000000000000000000000000000000000000000 PUSH1 0x0 MSTORE PUSH1 0x12 PUSH1 0x4 MSTORE PUSH1 0x24 PUSH1 0x0 REVERT JUMPDEST PUSH1 0x0 DUP3 PUSH2 0x4AEC JUMPI PUSH2 0x4AEC PUSH2 0x4AAE JUMP JUMPDEST POP DIV SWAP1 JUMP JUMPDEST PUSH1 0x0 PUSH1 0x20 DUP3 DUP5 SUB SLT ISZERO PUSH2 0x4B03 JUMPI PUSH1 0x0 DUP1 REVERT JUMPDEST POP MLOAD SWAP2 SWAP1 POP JUMP JUMPDEST PUSH1 0x0 DUP3 PUSH2 0x4B19 JUMPI PUSH2 0x4B19 PUSH2 0x4AAE JUMP JUMPDEST POP MOD SWAP1 JUMP JUMPDEST PUSH1 0x0 PUSH32 0xFFFFFFFFFFFFFFFFFFFFFFFFFFFFFFFFFFFFFFFFFFFFFFFFFFFFFFFFFFFFFFFF DUP3 SUB PUSH2 0x4B4F JUMPI PUSH2 0x4B4F PUSH2 0x4A42 JUMP JUMPDEST POP PUSH1 0x1 ADD SWAP1 JUMP JUMPDEST DUP2 DUP4 MSTORE DUP2 DUP2 PUSH1 0x20 DUP6 ADD CALLDATACOPY POP PUSH1 0x0 PUSH1 0x20 DUP3 DUP5 ADD ADD MSTORE PUSH1 0x0 PUSH1 0x20 PUSH32 0xFFFFFFFFFFFFFFFFFFFFFFFFFFFFFFFFFFFFFFFFFFFFFFFFFFFFFFFFFFFFFFE0 PUSH1 0x1F DUP5 ADD AND DUP5 ADD ADD SWAP1 POP SWAP3 SWAP2 POP POP JUMP JUMPDEST DUP4 DUP2 MSTORE PUSH1 0x40 PUSH1 0x20 DUP3 ADD MSTORE PUSH1 0x0 PUSH2 0x8F0 PUSH1 0x40 DUP4 ADD DUP5 DUP7 PUSH2 0x4B56 JUMP JUMPDEST PUSH32 0x4E487B7100000000000000000000000000000000000000000000000000000000 PUSH1 0x0 MSTORE PUSH1 0x41 PUSH1 0x4 MSTORE PUSH1 0x24 PUSH1 0x0 REVERT JUMPDEST PUSH32 0x4E487B7100000000000000000000000000000000000000000000000000000000 PUSH1 0x0 MSTORE PUSH1 0x32 PUSH1 0x4 MSTORE PUSH1 0x24 PUSH1 0x0 REVERT JUMPDEST PUSH1 0x0 PUSH1 0x40 DUP3 ADD DUP5 DUP4 MSTORE PUSH1 0x20 PUSH1 0x40 DUP2 DUP6 ADD MSTORE DUP2 DUP6 MLOAD DUP1 DUP5 MSTORE PUSH1 0x60 DUP7 ADD SWAP2 POP DUP3 DUP8 ADD SWAP4 POP PUSH1 0x0 JUMPDEST DUP2 DUP2 LT ISZERO PUSH2 0x4C58 JUMPI DUP5 MLOAD DUP4 MSTORE SWAP4 DUP4 ADD SWAP4 SWAP2 DUP4 ADD SWAP2 PUSH1 0x1 ADD PUSH2 0x4C3C JUMP JUMPDEST POP SWAP1 SWAP8 SWAP7 POP POP POP POP POP POP POP JUMP JUMPDEST PUSH1 0x1 DUP2 DUP2 JUMPDEST DUP1 DUP6 GT ISZERO PUSH2 0x4CBE JUMPI DUP2 PUSH32 0xFFFFFFFFFFFFFFFFFFFFFFFFFFFFFFFFFFFFFFFFFFFFFFFFFFFFFFFFFFFFFFFF DIV DUP3 GT ISZERO PUSH2 0x4CA4 JUMPI PUSH2 0x4CA4 PUSH2 0x4A42 JUMP JUMPDEST DUP1 DUP6 AND ISZERO PUSH2 0x4CB1 JUMPI SWAP2 DUP2 MUL SWAP2 JUMPDEST SWAP4 DUP5 SHR SWAP4 SWAP1 DUP1 MUL SWAP1 PUSH2 0x4C6A JUMP JUMPDEST POP SWAP3 POP SWAP3 SWAP1 POP JUMP JUMPDEST PUSH1 0x0 DUP3 PUSH2 0x4CD5 JUMPI POP PUSH1 0x1 PUSH2 0x85F JUMP JUMPDEST DUP2 PUSH2 0x4CE2 JUMPI POP PUSH1 0x0 PUSH2 0x85F JUMP JUMPDEST DUP2 PUSH1 0x1 DUP2 EQ PUSH2 0x4CF8 JUMPI PUSH1 0x2 DUP2 EQ PUSH2 0x4D02 JUMPI PUSH2 0x4D1E JUMP JUMPDEST PUSH1 0x1 SWAP2 POP POP PUSH2 0x85F JUMP JUMPDEST PUSH1 0xFF DUP5 GT ISZERO PUSH2 0x4D13 JUMPI PUSH2 0x4D13 PUSH2 0x4A42 JUMP JUMPDEST POP POP PUSH1 0x1 DUP3 SHL PUSH2 0x85F JUMP JUMPDEST POP PUSH1 0x20 DUP4 LT PUSH2 0x133 DUP4 LT AND PUSH1 0x4E DUP5 LT PUSH1 0xB DUP5 LT AND OR ISZERO PUSH2 0x4D41 JUMPI POP DUP2 DUP2 EXP PUSH2 0x85F JUMP JUMPDEST PUSH2 0x4D4B DUP4 DUP4 PUSH2 0x4C65 JUMP JUMPDEST DUP1 PUSH32 0xFFFFFFFFFFFFFFFFFFFFFFFFFFFFFFFFFFFFFFFFFFFFFFFFFFFFFFFFFFFFFFFF DIV DUP3 GT ISZERO PUSH2 0x4D7D JUMPI PUSH2 0x4D7D PUSH2 0x4A42 JUMP JUMPDEST MUL SWAP4 SWAP3 POP POP POP JUMP JUMPDEST PUSH1 0x0 PUSH2 0x91A DUP4 DUP4 PUSH2 0x4CC6 JUMP JUMPDEST PUSH1 0x0 PUSH2 0x120 PUSH4 0xFFFFFFFF DUP1 DUP15 AND DUP5 MSTORE DUP13 PUSH1 0x20 DUP6 ADD MSTORE DUP12 PUSH1 0x40 DUP6 ADD MSTORE PUSH1 0xFF DUP12 AND PUSH1 0x60 DUP6 ADD MSTORE DUP10 PUSH1 0x80 DUP6 ADD MSTORE DUP9 PUSH1 0xA0 DUP6 ADD MSTORE DUP8 ISZERO ISZERO PUSH1 0xC0 DUP6 ADD MSTORE DUP1 DUP8 AND PUSH1 0xE0 DUP6 ADD MSTORE POP DUP1 PUSH2 0x100 DUP5 ADD MSTORE PUSH2 0x4DE6 DUP2 DUP5 ADD DUP6 DUP8 PUSH2 0x4B56 JUMP JUMPDEST SWAP14 SWAP13 POP POP POP POP POP POP POP POP POP POP POP POP POP JUMP JUMPDEST PUSH1 0x0 PUSH1 0x20 DUP3 DUP5 SUB SLT ISZERO PUSH2 0x4E09 JUMPI PUSH1 0x0 DUP1 REVERT JUMPDEST DUP2 MLOAD PUSH2 0x91A DUP2 PUSH2 0x4451 JUMP JUMPDEST PUSH1 0x1F DUP3 GT ISZERO PUSH2 0x3200 JUMPI PUSH1 0x0 DUP2 DUP2 MSTORE PUSH1 0x20 DUP2 KECCAK256 PUSH1 0x1F DUP6 ADD PUSH1 0x5 SHR DUP2 ADD PUSH1 0x20 DUP7 LT ISZERO PUSH2 0x4E3B JUMPI POP DUP1 JUMPDEST PUSH1 0x1F DUP6 ADD PUSH1 0x5 SHR DUP3 ADD SWAP2 POP JUMPDEST DUP2 DUP2 LT ISZERO PUSH2 0x4E5A JUMPI DUP3 DUP2 SSTORE PUSH1 0x1 ADD PUSH2 0x4E47 JUMP JUMPDEST POP POP POP POP POP POP JUMP JUMPDEST PUSH8 0xFFFFFFFFFFFFFFFF DUP4 GT ISZERO PUSH2 0x4E7A JUMPI PUSH2 0x4E7A PUSH2 0x4BB9 JUMP JUMPDEST PUSH2 0x4E8E DUP4 PUSH2 0x4E88 DUP4 SLOAD PUSH2 0x49EF JUMP JUMPDEST DUP4 PUSH2 0x4E14 JUMP JUMPDEST PUSH1 0x0 PUSH1 0x1F DUP5 GT PUSH1 0x1 DUP2 EQ PUSH2 0x4EE0 JUMPI PUSH1 0x0 DUP6 ISZERO PUSH2 0x4EAA JUMPI POP DUP4 DUP3 ADD CALLDATALOAD JUMPDEST PUSH32 0xFFFFFFFFFFFFFFFFFFFFFFFFFFFFFFFFFFFFFFFFFFFFFFFFFFFFFFFFFFFFFFFF PUSH1 0x3 DUP8 SWAP1 SHL SHR NOT AND PUSH1 0x1 DUP7 SWAP1 SHL OR DUP4 SSTORE PUSH2 0x4F76 JUMP JUMPDEST PUSH1 0x0 DUP4 DUP2 MSTORE PUSH1 0x20 SWAP1 KECCAK256 PUSH32 0xFFFFFFFFFFFFFFFFFFFFFFFFFFFFFFFFFFFFFFFFFFFFFFFFFFFFFFFFFFFFFFE0 DUP7 AND SWAP1 DUP4 JUMPDEST DUP3 DUP2 LT ISZERO PUSH2 0x4F2F JUMPI DUP7 DUP6 ADD CALLDATALOAD DUP3 SSTORE PUSH1 0x20 SWAP5 DUP6 ADD SWAP5 PUSH1 0x1 SWAP1 SWAP3 ADD SWAP2 ADD PUSH2 0x4F0F JUMP JUMPDEST POP DUP7 DUP3 LT ISZERO PUSH2 0x4F6A JUMPI PUSH32 0xFFFFFFFFFFFFFFFFFFFFFFFFFFFFFFFFFFFFFFFFFFFFFFFFFFFFFFFFFFFFFFFF PUSH1 0xF8 DUP9 PUSH1 0x3 SHL AND SHR NOT DUP5 DUP8 ADD CALLDATALOAD AND DUP2 SSTORE JUMPDEST POP POP PUSH1 0x1 DUP6 PUSH1 0x1 SHL ADD DUP4 SSTORE JUMPDEST POP POP POP POP POP JUMP JUMPDEST PUSH1 0x0 DUP3 MLOAD PUSH2 0x4F8F DUP2 DUP5 PUSH1 0x20 DUP8 ADD PUSH2 0x42F0 JUMP JUMPDEST SWAP2 SWAP1 SWAP2 ADD SWAP3 SWAP2 POP POP JUMP INVALID MSTORE8 PUSH24 0x61702065786365656473206D6178696D756D207377617020 PUSH2 0x6D6F PUSH22 0x6E742E20506C656173652077616974A2646970667358 0x22 SLT KECCAK256 DUP14 SDIV 0xC1 0x5E PUSH27 0x14199CDB42C3EE8941FC67B7D20A0E6187DDE9944E993FE7DFCAF PUSH5 0x736F6C6343 STOP ADDMOD GT STOP CALLER ",
  "sha1": "ddb8a80246bc1fa9b9dbd6bb0964f6ad4c09e4e7",
  "source": "//SPDX-License-Identifier: Unlicsened\n\npragma solidity ^0.8.17;\n\nimport \"@openzeppelin/contracts/token/ERC20/ERC20.sol\";\nimport \"@openzeppelin/contracts/token/ERC20/utils/SafeERC20.sol\";\nimport \"./FixedPointMath.sol\";\nimport \"./CatalystIBCInterface.sol\";\nimport \"./SwapPoolCore.sol\";\nimport \"./ISwapPool.sol\";\n\n/**\n * @title Catalyst: The Multi-Chain Swap pool\n * @author Catalyst Labs\n * @notice Catalyst multi-chain swap pool using the asset specific\n * pricing curve: W/(w · ln(2)) where W is an asset specific\n * weight and w is the pool balance.\n *\n * The following contract supports between 1 and 3 assets for\n * atomic swaps. To increase the number of tokens supported,\n * change NUMASSETS to the desired maximum token amount.\n *\n * Implements the ERC20 specification, such that the contract\n * will be its own pool token.\n * @dev This contract is deployed /broken/: It cannot be used as a\n * swap pool as is. To use it, a proxy contract duplicating the\n * logic of this contract needs to be deployed. In vyper, this\n * can be done through (vy 0.3.4) create_minimal_proxy_to.\n * After deployment of the proxy, call setup(...). This will\n * initialize the pool and prepare it for cross-chain transactions.\n *\n * If connected to a supported cross-chain interface, call\n * createConnection or createConnectionWithChain to connect the\n * pool with pools on other chains.\n *\n * Finally, call finishSetup to give up the deployer's control\n * over the pool.\n */\ncontract CatalystSwapPool is\n    CatalystFixedPointMath,\n    CatalystSwapPoolCore,\n    ICatalystSwapPool\n{\n    using SafeERC20 for IERC20;\n\n    //--- ERRORS ---//\n\n    //--- Config ---//\n    // The following section contains the configurable variables.\n\n    //-- Variables --//\n\n    /**\n     * @notice Setup a pool.\n     * @dev The @param amp is only used as a sanity check and needs to be set to 2**64.\n     * If less than NUMASSETS are used to setup the pool, let the remaining init_assets be ZERO_ADDRESS\n     * The unused weights can be whatever. (however, 0 is recommended.)\n     * The initial token amounts should have been sent to the pool before setup.\n     * If any token has token amount 0, the pool will never be able to have more than\n     * 0 tokens for that token.\n     */\n    function setup(\n        address chaininterface,\n        address[] calldata init_assets,\n        uint256[] calldata weights,\n        uint256 amp,\n        string calldata name_,\n        string calldata symbol_,\n        address setupMaster\n    ) public {\n        require(amp == ONE);\n        require(init_assets.length <= NUMASSETS);\n        {\n            uint256 max_unit_inflow = 0;\n            for (uint256 it = 0; it < init_assets.length; it++) {\n                _tokenIndexing[it] = init_assets[it];\n                _weight[init_assets[it]] = weights[it];\n                _sumWeights += weights[it];\n                // The contract expect the tokens to have been sent to it before setup is\n                // called. Make sure the pool has more than 0 tokens.\n                {\n                    uint256 balanceOfSelf = IERC20(init_assets[it]).balanceOf(\n                        address(this)\n                    );\n                    require(balanceOfSelf > 0); // dev: 0 tokens provided in setup.\n\n                    // Balance0 is set to the initial balance. There is no correct balance0\n                    // value and initial balance is arbitrary. However, it provides a good\n                    // relative value to the actual balance. (mathematical importance)\n                    _balance0[init_assets[it]] += balanceOfSelf;\n                }\n\n                // The maximum unit flow is \\sum Weights. The value is shifted 64\n                // since units are always X64.\n                max_unit_inflow += weights[it] << 64;\n            }\n            _max_unit_inflow = max_unit_inflow;\n        }\n\n        setupBase(name_, symbol_, chaininterface, setupMaster);\n    }\n\n    //--- Swap integrals ---//\n\n    /**\n     * @notice Computes the integral \\int_{A}^{A+in} W/(w · ln(2)) dw\n     *     = W ln(A_2/A_1)\n     * The value is returned as units, which is always in X64.\n     * @dev All input amounts should be the raw numbers and not X64.\n     * Since units are always denominated in X64, the function\n     * should be treated as mathematically *native*.\n     * @param input The input amount.\n     * @param A The current pool balance.\n     * @param W The pool weight of the token.\n     * @return Group specific units in X64 (units are **always** X64).\n     */\n    function compute_integral(\n        uint256 input,\n        uint256 A,\n        uint256 W\n    ) internal pure returns (uint256) {\n        // Notice, A + in and A are not X64 but bigdiv64 is used anyway.\n        // That is because _log2X64 requires an X64 number.\n        // Shifting A + in and A before dividing returns:\n        // ((A + in) * 2**64) / ((A) * 2**64) * 2**64 = (A + _in) / A * 2**64\n        // Thus the shifting cancels and is not needed.\n        return W * log2X64(bigdiv64(A + input, A));\n    }\n\n    /**\n     * @notice Computes the integral \\int_{A}^{A+in} W/(w · ln(2)) dw by lower approximation.\n     * After swapping, we know the price to be W/((_A + in) · ln(2)). The amount provided\n     * to the seller is then (W · in)/((_A + in) · ln(2)).\n     *\n     * The value is returned as units, which is always in X64.\n     * @dev This function should sometimes be used over _compute_integral\n     * if in/_A <= 0.1% since it is cheaper and mathematically simpler.\n     * All input amounts should be the raw numbers and not X64.\n     * Since units are always denominated in X64, the function\n     * should be treated as mathematically *native*.\n     * @param input The input amount.\n     * @param A The current pool balance of the in token.\n     * @param W The pool weight of the in token.\n     * @return Group specific units in X64 (units are **always** X64).\n     */\n    function approx_compute_integral(\n        uint256 input,\n        uint256 A,\n        uint256 W\n    ) internal pure returns (uint256) {\n        return bigdiv64((W * input) << 64, ((A + input) * LN2));\n    }\n\n    /**\n     * @notice Solves the equation U = \\int_{A-_out}^{A} W/(w · ln(2)) dw for _out\n     *     = B_1 · (1 - 2^(-U/W_0))\n     *\n     * The value is returned as output token.\n     * @dev All input amounts should be the raw numbers and not X64.\n     * Since units are always denominated in X64, the function\n     * should be treated as mathematically *native*.\n     * @param U Input units. Is technically X64 but can be treated as not.\n     * @param B The current pool balance of the _out token.\n     * @param W The pool weight of the _out token.\n     * @return Output denominated in output token.\n     */\n    function solve_integral(\n        uint256 U,\n        uint256 B,\n        uint256 W\n    ) internal pure returns (uint256) {\n        return (B * (ONE - invp2X64(U / W))) >> 64;\n    }\n\n    /**\n     * @notice Solves the equation U = \\int_{B-_out}^{B} W/(w · ln(2)) dw for _out\n     * by upper approximation. After swapping, we know the price to be W/((B - out) · ln(2)).\n     * The amount provided to the seller is then (W · _out)/((A - _out) · ln(2)).\n     *     => _out = (B · U · LN2)/(W + U · LN2)\n     * @dev This function should sometimes be used over _solve_integral.\n     * Since the error is relative to _out and _B, it is difficult\n     * to provide relative bounds when the approximation is better\n     * than the true equation.\n     * All input amounts should be the raw numbers and not X64.\n     * Since units are always denominated in X64, the function\n     * should be treated as mathematically *native*.\n     * @param U Input units. Is technically X64 but can be treated as not.\n     * @param B The current pool balance of the _out token.\n     * @param W The pool weight of the _out token.\n     * @return Output denominated in output token.\n     */\n    function approx_solve_integral(\n        uint256 U,\n        uint256 B,\n        uint256 W\n    ) public pure returns (uint256) {\n        uint256 UnitTimesLN2 = mulX64(U, LN2);\n        return (B * UnitTimesLN2) / ((W << 64) + UnitTimesLN2);\n    }\n\n    /**\n     * @notice Solves the equation\n     *     \\int_{A}^{A + _in} W_A/(w · ln(2)) dw = \\int_{B-out}^{B} W_B/(w · ln(2)) dw for out\n     * => out = B · (1 - ((A+in)/A)^(-W_A/W_B))\n     *\n     * Alternatively, the integral can be computed through:\n     *      solve_integral(_compute_integral(input, A, W_A), B, W_B).\n     *      However, complete_integral is very slightly cheaper since it delays a division.\n     *      (Apart from that, the mathematical operations are the same.)\n     * @dev All input amounts should be the raw numbers and not X64.\n     * @param input The input amount.\n     * @param A The current pool balance of the _in token.\n     * @param B The current pool balance of the _out token.\n     * @param W_A The pool weight of the _in token.\n     * @param W_B The pool weight of the _out token.\n     * @return Output denominated in output token.\n     */\n    function complete_integral(\n        uint256 input,\n        uint256 A,\n        uint256 B,\n        uint256 W_A,\n        uint256 W_B\n    ) internal pure returns (uint256) {\n        // (A+input)/A >= 1 as in >= 0. As a result, invfpow should be used.\n        // Notice, bigdiv64 is used twice on value not x64. This is because a x64\n        // shifted valued is required for invfpow in both arguments.\n        uint256 U = ONE -\n            invfpowX64(bigdiv64(A + input, A), bigdiv64(W_A, W_B));\n        return (B * U) >> 64;\n    }\n\n    /**\n     * @notice Solves the equation\n     *     \\int_{A}^{A + _in} W_A/(w · ln(2)) dw = \\int_{B-out}^{B} W_B/(w · ln(2)) dw for out\n     * by approximation. For the mathematical explanation, see approx_solve_integral\n     * and approx_compute_integral.\n     *     => out = (B · W_A · in)/(W_B · A + (W_A + W_B) · in)\n     *\n     * Alternatively, the integral can be computed through:\n     *     approx_solve_integral(approx_compute_integral(input, A, W_A), B, W_B).\n     * However, this approximation never uses X64 numbers which makes it slightly cheaper.\n     * @dev This function never use any X64 mathematics.\n     * @param input The input amount.\n     * @param A The current pool balance of the _in token.\n     * @param B The current pool balance of the _out token.\n     * @param W_A The pool weight of the _in token.\n     * @param W_B The pool weight of the _out token.\n     * @return Output denominated in output token.\n     */\n    function approx_integral(\n        uint256 input,\n        uint256 A,\n        uint256 B,\n        uint256 W_A,\n        uint256 W_B\n    ) internal pure returns (uint256) {\n        return (B * W_A * input) / (W_B * A + (W_A + W_B) * input);\n    }\n\n    /**\n     * @notice Computes the return of a SwapToUnits, without executing one.\n     * @dev Before letting a user swap, it can be beneficial to viewing the\n     * return approximated and not approximated. Then choose the one with\n     * the lowest cost (max return & min gas cost).\n     * @param from The address of the token to sell.\n     * @param amount The amount of from token to sell.\n     * @param approx True if SwapToUnits should be approximated (read: approx_compute_integral)\n     * @return uint256 specific units in X64 (units are **always** X64).\n     */\n    function dry_swap_to_unit(\n        address from,\n        uint256 amount,\n        bool approx\n    ) public view returns (uint256) {\n        uint256 A = IERC20(from).balanceOf(address(this));\n        uint256 W = _weight[from];\n\n        if (approx) return approx_compute_integral(amount, A, W);\n\n        return compute_integral(amount, A, W);\n    }\n\n    /**\n     * @notice Computes the output of a SwapFromUnits, without executing one.\n     * @dev Before letting a user swap, it can be beneficial to viewing the\n     * return approximated and not approximated. Then choose the one with\n     * the lowest cost (max return & min gas cost).\n     * @param to The address of the token to buy.\n     * @param U The number of units used to buy to.\n     * @param approx True if SwapToUnits should be approximated (read: _approx_solve_integral)\n     * @return Output denominated in output token.\n     */\n    function dry_swap_from_unit(\n        address to,\n        uint256 U,\n        bool approx\n    ) public view returns (uint256) {\n        uint256 B = IERC20(to).balanceOf(address(this)) - _escrowedTokens[to];\n        uint256 W = _weight[to];\n\n        if (approx) return approx_solve_integral(U, B, W);\n\n        return solve_integral(U, B, W);\n    }\n\n    /**\n     * @notice Computes the return of a SwapToAndFromUnits, without executing one.\n     * @dev If the pool weights of the 2 tokens are equal, a very simple curve\n     * is used and argument approx is ignored.\n     * Before letting a user swap, it can be beneficial to viewing the approximated and not approximated.\n     * Then choose the one with the lowest cost (max return & min gas cost).\n     *\n     * If the pool weights of the 2 tokens are equal, a very simple curve\n     * is used and argument approx is ignored..\n     * @param from The address of the token to sell.\n     * @param to The address of the token to buy.\n     * @param input The amount of _from token to sell for to token.\n     * @param approx True if SwapToUnits should be approximated (read: approx_compute_integral) Is ignored if the tokens weights are equal.\n     * @return Output denominated in to token.\n     */\n    function dry_swap_both(\n        address from,\n        address to,\n        uint256 input,\n        bool approx\n    ) public view returns (uint256) {\n        uint256 A = IERC20(from).balanceOf(address(this));\n        uint256 B = IERC20(to).balanceOf(address(this)) - _escrowedTokens[to];\n        uint256 W_A = _weight[from];\n        uint256 W_B = _weight[to];\n\n        // The swap equation simplifies to the ordinary constant product if the\n        // token weights are equal. This equation is even simpler than approx.\n        if (W_A == W_B)\n            // Saves ~7500 gas.\n            return (B * input) / (A + input);\n\n        if (approx) return approx_integral(input, A, B, W_A, W_B);\n\n        return complete_integral(input, A, B, W_A, W_B);\n    }\n\n    // /// @notice\n    // ///     Returns the number of tokens needed to mint a certain number of pool tokens.\n    // ///\n    // ///     Solves \\int_{A_{0}}^{A_{t}}P \\ \\left(w\\right)d w = \\int_{A_{0} +pt}^{A_{t} +tk}P \\ \\left( w\\right)d w\n    // ///     for tk.\n    // /// @param asset The token address used as underlying for deposit.\n    // /// @param poolTokens The number of asset specific pool tokens to mint.\n    // /// @return Number of tokens required to mint poolTokens.\n    // function liquidity_equation_tk(address asset, uint256 poolTokens)\n    //     internal\n    //     view\n    //     returns (uint256)\n    // {\n    //     uint256 At = IERC20(asset).balanceOf(address(this));\n    //     uint256 A0 = _balance0[asset];\n    //     if (At == A0) return poolTokens;\n\n    //     return (At * poolTokens) / A0;\n    // }\n\n    // todo: @nonreentrant('lock')\n    /**\n     * @notice Deposits a symmetrical number of tokens such that baseAmount of pool tokens are minted.\n     * This doesn't change the pool price.\n     * @dev Requires approvals for all tokens within the pool.\n     * @param baseAmount The number of pool tokens to mint.\n     */\n    function depositAll(uint256 baseAmount) external {\n        // Update the liquidity security limit. Since the limit is based on the current\n        // totalSupply, changing the totalSupply upwards by depositing changes the\n        // limit.\n        checkAndSetLiquidityCapacity(0);\n\n        // Cache totalSupply. This saves up to ~200 gas.\n        uint256 initial_totalSupply = totalSupply();\n\n        // For later event logging, the amounts transferred to the pool are stored.\n        uint256[] memory amounts = new uint256[](NUMASSETS);\n        for (uint256 it = 0; it < NUMASSETS; it++) {\n            address token = _tokenIndexing[it];\n            if (token == address(0)) break;\n\n            // Deposits should returns less, so the escrowed tokens are not subtracted.\n            uint256 At = IERC20(token).balanceOf(address(this));\n            uint256 A0 = _balance0[token];\n\n            // The number of pool tokens (balance0s) owned by 1 pool tokens is\n            // balance0[token]/totalSupply. baseAmount owns\n            // balance0[token]/totalSupply · baseAmount\n            // Alternatively, to mint baseAmount poolTokens, baseAmount/totalSupply\n            // of the existing liquidity needs to be provided. That is:\n            // baseAmount/totalSupply · balance0[token]\n\n            uint256 pt_Token = (A0 * baseAmount) / initial_totalSupply;\n\n            // Number of tokens which can be released given pt_Token pool tokens.\n            uint256 base = pt_Token; // = _liquidity_equation_tk(asset, pt_Token)\n            if (At != A0) base = (At * pt_Token) / A0;\n\n            // Increase the balance0 by the newly minted amount.\n            _balance0[token] += pt_Token;\n\n            // Transfer the appropriate number of pool tokens from the user\n            // to the pool. (And store for event logging)\n            amounts[it] = base;\n            IERC20(token).safeTransferFrom(msg.sender, address(this), base); // dev: User doesn't have enough tokens;\n        }\n\n        // Mint the desired number of pool tokens to the user.\n        _mint(msg.sender, baseAmount);\n\n        // Emit the event\n        emit Deposit(msg.sender, baseAmount, amounts);\n    }\n\n    // @nonreentrant('lock')\n    /**\n     * @notice Burns baseAmount and releases the symmetrical share\n     * of tokens to the burner. This doesn't change the pool price.\n     * @param baseAmount The number of pool tokens to burn.\n     */\n    function withdrawAll(uint256 baseAmount) external {\n        // Update the liquidity security limit. Since the limit is based on the current\n        // totalSupply, changing the totalSupply upwards by depositing changes the\n        // limit.\n        checkAndSetLiquidityCapacity(0);\n\n        // cache totalSupply. This saves up to ~200 gas.\n        uint256 initial_totalSupply = totalSupply();\n\n        // Since we have already cached totalSupply, we might as well burn the tokens\n        // now. If the user doesn't have enough tokens, they save a bit of gas.\n        _burn(msg.sender, baseAmount);\n\n        // For later event logging, the amounts transferred to the pool are stored.\n        uint256[] memory amounts = new uint256[](NUMASSETS);\n        for (uint256 it = 0; it < NUMASSETS; it++) {\n            address token = _tokenIndexing[it];\n            if (token == address(0)) break;\n\n            // Withdrawals should returns less, so the escrowed tokens are subtracted.\n            uint256 At = IERC20(token).balanceOf(address(this)) -\n                _escrowedTokens[token];\n            uint256 A0 = _balance0[token];\n\n            // Read comment in depositAll. The user's share of the pool is found.\n            uint256 pt_Token = (A0 * baseAmount) / initial_totalSupply;\n            // Number of tokens which can be released given pt_Token pool tokens.\n            uint256 base = pt_Token; // = _liquidity_equation_tk(asset, pt_Token)\n            if (At != A0) base = (At * pt_Token) / A0;\n\n            // Remove the pool tokens from balance0.\n            _balance0[token] -= pt_Token;\n\n            // Transferring of the released tokens.\n            amounts[it] = base;\n            IERC20(token).safeTransfer(msg.sender, base);\n        }\n\n        // Emit the event\n        emit Withdraw(msg.sender, baseAmount, amounts);\n    }\n\n    // @nonreentrant('lock')\n    /**\n     * @notice A swap between 2 assets which both are inside the pool. Is atomic.\n     * @param fromAsset The asset the user wants to sell.\n     * @param toAsset The asset the user wants to buy\n     * @param amount The amount of fromAsset the user wants to sell\n     * @param minOut The minimum output of _toAsset the user wants.\n     * @param approx If true, uses (worse) but simpler swapping which can improve swap return and gas costs. If assets weights are equal, this is ignored.\n     */\n    function localswap(\n        address fromAsset,\n        address toAsset,\n        uint256 amount,\n        uint256 minOut,\n        bool approx\n    ) public returns (uint256) {\n        uint256 fee = mulX64(amount, _poolFeeX64);\n\n        // Calculate the swap return value.\n        uint256 out = dry_swap_both(fromAsset, toAsset, amount - fee, approx);\n\n        // Check if the calculated returned value is more than the minimum output.\n        require(out >= minOut, SWAP_RETURN_INSUFFICIENT);\n\n        // Swap tokens with the user.\n        IERC20(toAsset).safeTransfer(msg.sender, out);\n        IERC20(fromAsset).safeTransferFrom(msg.sender, address(this), amount);\n\n        emit LocalSwap(fromAsset, toAsset, msg.sender, amount, out, fee);\n\n        return out;\n    }\n\n    function localswap(\n        address fromAsset,\n        address toAsset,\n        uint256 amount,\n        uint256 minOut\n    ) public returns (uint256) {\n        return localswap(fromAsset, toAsset, amount, minOut, false);\n    }\n\n    // @nonreentrant('lock')\n    /**\n     * @notice Initiate a cross-chain swap by purchasing units and transfer them to another pool.\n     * @param chain The target chain. Will be converted by the interface to channelId.\n     * @param targetPool The target pool on the target chain encoded in bytes32. For EVM chains this can be computed as:\n     * Vyper: convert(_poolAddress, bytes32)\n     * Solidity: abi.encode(_poolAddress)\n     * Brownie: brownie.convert.to_bytes(_poolAddress, type_str=\"bytes32\")\n     * @param targetUser The recipient of the transaction on _chain. Encoded in bytes32. For EVM chains it can be derived similarly to targetPool.\n     * @param fromAsset The asset the user wants to sell.\n     * @param toAssetIndex The index of the asset the user wants to buy in the target pool.\n     * @param amount The number of _fromAsset to sell to the pool.\n     * @param minOut The minimum number of returned tokens to the targetUser on the target chain.\n     * @param approx Should SwapFromUnits be computed using approximation?\n     * @param fallbackUser If the transaction fails send the escrowed funds to this address\n     * @dev Use the appropriate dry swaps to decide if approximation makes sense.\n     * These are the same functions as used by the swap functions, so they will\n     * accurately predict the gas cost and swap return.\n     */\n    function swapToUnits(\n        uint32 chain,\n        bytes32 targetPool,\n        bytes32 targetUser,\n        address fromAsset,\n        uint8 toAssetIndex,\n        uint256 amount,\n        uint256 minOut,\n        uint8 approx,\n        address fallbackUser\n    ) public returns (uint256) {\n        // uint256 fee = mulX64(amount, _poolFeeX64);\n\n        // Calculate the group specific units bought.\n        uint256 U = dry_swap_to_unit(\n            fromAsset,\n            amount - mulX64(amount, _poolFeeX64),\n            bool(approx & 1 > 0)\n        );\n\n        // Create the escrow identifier\n        {\n            // Send the purchased units to _targetPool on _chain.\n            CatalystIBCInterface(_chaininterface).crossChainSwap(\n                chain,\n                targetPool,\n                targetUser,\n                toAssetIndex,\n                U,\n                minOut,\n                bool(approx & 2 > 0),\n                uint32(_escrowIterator % 2**(32))\n            );\n            // Collect the tokens from the user.\n            IERC20(fromAsset).safeTransferFrom(\n                msg.sender,\n                address(this),\n                amount\n            );\n\n            // Escrow the tokens\n            _escrowedTokens[fromAsset] += amount;\n            _escrowedFor[_escrowIterator % 2**(32)] = TokenEscrow({\n                user: fallbackUser,\n                amount: amount,\n                token: fromAsset\n            });\n        }\n\n        // Incoming swaps should be subtracted from the unit flow.\n        // It is assumed if the router was fraudulent, that no-one would execute a trade.\n        // As a result, if people swap into the pool, we should expect that there is exactly\n        // the inswapped amount of trust in the pool.\n        // If this wasn't implemented, there would be a maximum daily cross chain volume,\n        // which is bad for liquidity providers.\n        {\n            uint256 UF = _unit_flow;\n            // If UF < U and we do UF - U < 0 underflow => bad.\n            if (UF > U) {\n                _unit_flow -= U;\n            } else if (UF != 0) {\n                // # Save ~100 gas if UF = 0.\n                _unit_flow = 0;\n            }\n        }\n\n        emit SwapToUnits(\n            targetPool,\n            targetUser,\n            fromAsset,\n            toAssetIndex,\n            amount,\n            U,\n            mulX64(amount, _poolFeeX64),\n            uint32(_escrowIterator % 2**(32))\n        );\n        _escrowIterator += 1;\n\n        return U;\n    }\n\n    function swapToUnits(\n        uint32 chain,\n        bytes32 targetPool,\n        bytes32 targetUser,\n        address fromAsset,\n        uint8 toAssetIndex,\n        uint256 amount,\n        uint256 minOut,\n        uint8 approx,\n        address fallbackUser,\n        bytes calldata calldata_\n    ) external returns (uint256) {\n        // uint256 fee = mulX64(amount, _poolFeeX64);\n\n        // Calculate the group specific units bought.\n        uint256 U = dry_swap_to_unit(\n            fromAsset,\n            amount - mulX64(amount, _poolFeeX64),\n            bool(approx & 1 > 0)\n        );\n\n        // Create the escrow identifier\n        // uint256 escrowIterator = _escrowIterator % 2**(32);\n\n        // Escrow the tokens\n        _escrowedTokens[fromAsset] += amount;\n        _escrowedFor[_escrowIterator % 2**(32)] = TokenEscrow({\n            user: fallbackUser,\n            amount: amount,\n            token: fromAsset\n        });\n        {\n            // Send the purchased units to _targetPool on _chain.\n            CatalystIBCInterface(_chaininterface).crossChainSwap(\n                chain,\n                targetPool,\n                targetUser,\n                toAssetIndex,\n                U,\n                minOut,\n                bool(approx & 2 > 0),\n                uint32(_escrowIterator % 2**(32)),\n                calldata_\n            );\n            // Collect the tokens from the user.\n            IERC20(fromAsset).safeTransferFrom(\n                msg.sender,\n                address(this),\n                amount\n            );\n        }\n\n        // Incoming swaps should be subtracted from the unit flow.\n        // It is assumed if the router was fraudulent, that no-one would execute a trade.\n        // As a result, if people swap into the pool, we should expect that there is exactly\n        // the inswapped amount of trust in the pool.\n        // If this wasn't implemented, there would be a maximum daily cross chain volume,\n        // which is bad for liquidity providers.\n        {\n            uint256 UF = _unit_flow;\n            // If UF < U and we do UF - U < 0 underflow => bad.\n            if (UF > U) {\n                _unit_flow -= U;\n            } else if (UF != 0) {\n                // # Save ~100 gas if UF = 0.\n                _unit_flow = 0;\n            }\n        }\n\n        emit SwapToUnits(\n            targetPool,\n            targetUser,\n            fromAsset,\n            toAssetIndex,\n            amount,\n            U,\n            mulX64(amount, _poolFeeX64),\n            uint32(_escrowIterator % 2**(32))\n        );\n        _escrowIterator += 1;\n\n        return U;\n    }\n\n    /**\n     * @notice Completes a cross-chain swap by converting units to the desired token (toAsset)\n     *  Called exclusively by the chaininterface.\n     * @dev Can only be called by the chaininterface, as there is no way to check the validity of units.\n     * @param toAssetIndex Index of the asset to be purchased with _U units.\n     * @param who The recipient of toAsset\n     * @param U Number of units to convert into toAsset.\n     * @param minOut Minimum number of tokens bought. Reverts if less.\n     * @param approx If the swap approximation should be used over the \"true\" swap.\n     */\n    function swapFromUnits(\n        uint256 toAssetIndex,\n        address who,\n        uint256 U,\n        uint256 minOut,\n        bool approx\n    ) public returns (uint256) {\n        // The chaininterface is the only valid caller of this function, as there cannot\n        // be a check of _U. (It is purely a number)\n        require(msg.sender == _chaininterface);\n        // Convert the asset index (toAsset) into the asset to be purchased.\n        address toAsset = _tokenIndexing[toAssetIndex];\n\n        // Check if the swap is according to the swap limits\n        checkAndSetUnitCapacity(U);\n\n        // Calculate the swap return value.\n        uint256 purchasedTokens = dry_swap_from_unit(toAsset, U, approx);\n\n        require(minOut <= purchasedTokens, SWAP_RETURN_INSUFFICIENT);\n\n        // Send the return value to the user.\n        IERC20(toAsset).safeTransfer(who, purchasedTokens);\n\n        emit SwapFromUnits(who, toAsset, U, purchasedTokens);\n\n        return purchasedTokens; // Unused.\n    }\n\n    function swapFromUnits(\n        uint256 toAssetIndex,\n        address who,\n        uint256 U,\n        uint256 minOut,\n        bool approx,\n        address dataTarget,\n        bytes calldata data\n    ) external returns (uint256) {\n        uint256 purchasedTokens = swapFromUnits(\n            toAssetIndex,\n            who,\n            U,\n            minOut,\n            approx\n        );\n\n        ICatalystReceiver(dataTarget).onCatalystCall(purchasedTokens, data);\n\n        return purchasedTokens;\n    }\n\n    //--- Liquidity swapping ---//\n    // Because of the wap pool tokens work in a group of pools, there\n    // needs to be a way to manage an equilibrium between pool token\n    // value and token pool value.\n\n    /**\n     * @notice Computes the integral \\int_{A-in}^{A} W/(w · ln(2)) dw\n     *              = - W ln(A/(A - in))\n     * For optimizations, U is always assumed to be negative for liquidity units.\n     * Thus the function computes: W ln(A/(A - in))\n     * The value is returned as negative liquidity units, which is always in X64.\n     * @dev All input amounts should be the raw numbers and not X64.\n     * Since units are always denominated in X64, the function should\n     * be treated as mathematically *native*.\n     * @param input The input amount.\n     * @param A The current pool balance0.\n     * @param W The pool weight of the token.\n     * @return uint256 Group specific liquidity units in X64 (units are **always** X64).\n     */\n    function compute_liquidity(\n        uint256 input,\n        uint256 A,\n        uint256 W\n    ) internal pure returns (uint256) {\n        // Notice, A - in and A are not X64 but bigdiv64 is used anyway.\n        // That is because log2X64 requires an X64 number.\n        // Shifting A - in and A before dividing returns:\n        // ((A) * 2**64) / ((A - in) * 2**64) * 2**64 = A / (A - in) * 2**64\n        // Thus the shifting cancels and is not needed.\n        return W * log2X64(bigdiv64(A, A - input));\n    }\n\n    /** @notice Solves the equation U = \\int_{A}^{A+_out} W/(w · ln(2)) dw for _out\n     *             = B_1 · (2^-U/W) - 1). Since _U is negative units,\n     * the function actually computes:  B_1 · (2^_U/W) - 1)\n     * The value is returned as output pool token.\n     * @dev All input amounts should be the raw numbers and not X64.\n     * Since units are always denominated in X64, the function\n     * should be treated as mathematically *native*.\n     * @param U Input negative liquidity units. Is technically X64 but can be treated as not.\n     * @param B The current pool balance0 of the _out token.\n     * @param WSUM The pool weight of the _out token.\n     * @return uint256 Output denominated in output pool token.\n     */\n    function solve_liquidity(\n        uint256 U,\n        uint256 B,\n        uint256 WSUM\n    ) internal pure returns (uint256) {\n        return (B * (p2X64(U / WSUM) - ONE)) >> 64;\n    }\n\n    /** @notice Computes the return of a liquidity swap from liquidity into units, without executing one.\n     * @param from The address of the liquidity to sell.\n     * @param amount The amount of _from liquidity to sell.\n     * TODO: Approx?\n     * @return Liquidity units in X64 (units are **always** X64).\n     */\n    function dry_liquidity_to_unit(address from, uint256 amount)\n        public\n        view\n        returns (uint256)\n    {\n        uint256 A = _balance0[from];\n        uint256 W = _weight[from];\n        return compute_liquidity(amount, A, W);\n    }\n\n    /**\n     * @notice Computes the output of a liquidity swap from units into liquidity, without executing one.\n     * @param to The token address of the target balance0.\n     * @param U The number of units used to buy liquidity of to.\n     * @param WSUM The weighted sum used to solve the liquidity constraints.\n     * TODO: Approx?\n     * @return Output denominated in balance0s.\n     */\n    function dry_liquidity_from_unit(\n        address to,\n        uint256 U,\n        uint256 WSUM\n    ) public view returns (uint256) {\n        uint256 B = _balance0[to];\n\n        return solve_liquidity(U, B, WSUM);\n    }\n\n    //@nonreentrant('lock')\n    /**\n     * @notice Initiate a cross-chain liquidity swap by lowering liquidity\n     * and transfer the liquidity units to another pool.\n     * @param chain The target chain. Will be converted by the interface to channelId.\n     * @param targetPool The target pool on the target chain encoded in bytes32. For EVM chains this can be computed as:\n     * Vyper: convert(_poolAddress, bytes32)\n     * Solidity: abi.encode(_poolAddress)\n     * Brownie: brownie.convert.to_bytes(_poolAddress, type_str=\"bytes32\")\n     * @param targetUser The recipient of the transaction on _chain. Encoded in bytes32. For EVM chains it can be found similarly to _targetPool.\n     * @param baseAmount The number of pool tokens to liquidity Swap\n     */\n    function outLiquidity(\n        uint256 chain,\n        bytes32 targetPool,\n        bytes32 targetUser,\n        uint256 baseAmount\n    ) external returns (uint256) {\n        //Cache totalSupply. This saves up to ~200 gas.\n        uint256 initial_totalSupply = totalSupply();\n\n        // Since we have already cached totalSupply, we might as well burn the tokens\n        // now. If the user doesn't have enough tokens, they save a bit of gas.\n        _burn(msg.sender, baseAmount);\n\n        // The number of units corresponding gained by lowering baseAmount liquidity\n        // Should be found. This will be done by looping over each conversion.\n        uint256 U = 0;\n        for (uint256 it = 0; it < NUMASSETS; it++) {\n            address token = _tokenIndexing[it];\n            if (token == address(0)) break;\n\n            // The pool ownership given up, converted to balance0s (given up)\n            uint256 pt_Token = (_balance0[token] * baseAmount) /\n                initial_totalSupply;\n            // Swapping to units.\n            U += dry_liquidity_to_unit(token, pt_Token);\n            // Subtracting the swapped units.\n            _balance0[token] -= pt_Token;\n        }\n\n        // Sending the liquidity units over.\n        CatalystIBCInterface(_chaininterface).liquiditySwap(\n            chain,\n            targetPool,\n            targetUser,\n            U,\n            msg.sender\n        ); // TODO: Check msg.sender here\n\n        // Correcting the routing security limit. (To increase maximum daily volume)\n        uint256 LUF = _liquidity_flow;\n        if (LUF > baseAmount) {\n            _liquidity_flow -= baseAmount;\n        } else if (LUF != 0) {\n            _liquidity_flow = 0;\n        }\n        // The SwapToUnits event is reused.  # TODO: Separate event?\n        emit SwapToUnits(\n            targetPool,\n            targetUser,\n            address(this),\n            2**8 - 1,\n            baseAmount,\n            U,\n            0,\n            0\n        ); // TODO: sourceSwapId;\n\n        return U;\n    }\n\n    // @nonreentrant('lock')\n    /**\n     * @notice Completes a cross-chain swap by converting liquidity units to pool tokens\n     * Called exclusively by the chaininterface.\n     * @dev Can only be called by the chaininterface, as there is no way\n     * to check the validity of units.\n     * @param who The recipient of pool tokens\n     * @param U Number of units to convert into pool tokens.\n     */\n    function inLiquidity(address who, uint256 U) external returns (uint256) {\n        // The chaininterface is the only valid caller of this function, as there cannot\n        // be a check of _U. (It is purely a number)\n        require(msg.sender == _chaininterface);\n\n        // ratios of the balance0s should remain mostly unchanged. As a result, the\n        // units should be used to buy pool tokens in roughly the same amount.\n        // Since it is independent of the current balance, we cache it.\n        uint256 WSUM = _sumWeights; // Is not X64.\n\n        address token0 = _tokenIndexing[0];\n        // Because of the balance0 constraint of wrapped pool tokens,\n        // only the first balance0 change needs to be computed.\n        uint256 token0B0 = dry_liquidity_from_unit(token0, U, WSUM);\n\n        uint256 ts = totalSupply();\n        // Token0B0 * baseAmount = balance0\n        // To increase the resolution, the balance0s are converted into pool tokens.\n        // Since 2**64 is the reference liquidity and 2**64 is a lot larger than most token\n        // amounts, it is assumed that it provides a better resolution. (for loop)\n        uint256 poolTokens = (token0B0 * ts) / _balance0[token0];\n        _balance0[token0] += token0B0;\n\n        for (uint256 it = 1; it < NUMASSETS; it++) {\n            address token = _tokenIndexing[it];\n            if (token == address(0)) break;\n\n            // The pool token is used as reference, since it providers a higher resolution\n            // than the balance0 constraint.\n            _balance0[token] += (_balance0[token] * poolTokens) / ts;\n            // Alternative based on balance0 constraint  <- Lower resolution\n            // _balance0[token] += (token0B0*_balance0[token])/_balance0[token0]\n        }\n\n        // Check if the swap honors the security limit.\n        checkAndSetLiquidityCapacity(poolTokens);\n\n        // Mint pool tokens for who\n        _mint(who, poolTokens);\n\n        // The SwapFromUnits event is reused.  # TODO: Separate event?\n        emit SwapFromUnits(who, address(this), U, poolTokens);\n\n        return poolTokens;\n    }\n}\n",
  "sourcePath": "contracts/SwapPool.sol",
  "type": "contract"
}