{
  "abi": [
    {
      "inputs": [],
      "stateMutability": "nonpayable",
      "type": "constructor"
    },
    {
      "anonymous": false,
      "inputs": [
        {
          "indexed": true,
          "internalType": "address",
          "name": "owner",
          "type": "address"
        },
        {
          "indexed": true,
          "internalType": "address",
          "name": "spender",
          "type": "address"
        },
        {
          "indexed": false,
          "internalType": "uint256",
          "name": "value",
          "type": "uint256"
        }
      ],
      "name": "Approval",
      "type": "event"
    },
    {
      "anonymous": false,
      "inputs": [
        {
          "indexed": true,
          "internalType": "address",
          "name": "who",
          "type": "address"
        },
        {
          "indexed": false,
          "internalType": "uint256",
          "name": "mint",
          "type": "uint256"
        },
        {
          "indexed": false,
          "internalType": "uint256[]",
          "name": "assets",
          "type": "uint256[]"
        }
      ],
      "name": "Deposit",
      "type": "event"
    },
    {
      "anonymous": false,
      "inputs": [
        {
          "indexed": false,
          "internalType": "uint256",
          "name": "sourceSwapId",
          "type": "uint256"
        }
      ],
      "name": "EscrowAck",
      "type": "event"
    },
    {
      "anonymous": false,
      "inputs": [
        {
          "indexed": false,
          "internalType": "uint256",
          "name": "sourceSwapId",
          "type": "uint256"
        }
      ],
      "name": "EscrowTimeout",
      "type": "event"
    },
    {
      "anonymous": false,
      "inputs": [
        {
          "indexed": true,
          "internalType": "address",
          "name": "who",
          "type": "address"
        },
        {
          "indexed": true,
          "internalType": "address",
          "name": "fromAsset",
          "type": "address"
        },
        {
          "indexed": false,
          "internalType": "address",
          "name": "toAsset",
          "type": "address"
        },
        {
          "indexed": false,
          "internalType": "uint256",
          "name": "input",
          "type": "uint256"
        },
        {
          "indexed": false,
          "internalType": "uint256",
          "name": "output",
          "type": "uint256"
        },
        {
          "indexed": false,
          "internalType": "uint256",
          "name": "fees",
          "type": "uint256"
        }
      ],
      "name": "LocalSwap",
      "type": "event"
    },
    {
      "anonymous": false,
      "inputs": [
        {
          "indexed": true,
          "internalType": "address",
          "name": "who",
          "type": "address"
        },
        {
          "indexed": true,
          "internalType": "address",
          "name": "toAsset",
          "type": "address"
        },
        {
          "indexed": false,
          "internalType": "uint256",
          "name": "input",
          "type": "uint256"
        },
        {
          "indexed": false,
          "internalType": "uint256",
          "name": "output",
          "type": "uint256"
        }
      ],
      "name": "SwapFromUnits",
      "type": "event"
    },
    {
      "anonymous": false,
      "inputs": [
        {
          "indexed": true,
          "internalType": "bytes32",
          "name": "targetPool",
          "type": "bytes32"
        },
        {
          "indexed": true,
          "internalType": "bytes32",
          "name": "targetUser",
          "type": "bytes32"
        },
        {
          "indexed": true,
          "internalType": "address",
          "name": "fromAsset",
          "type": "address"
        },
        {
          "indexed": false,
          "internalType": "uint8",
          "name": "toAssetIndex",
          "type": "uint8"
        },
        {
          "indexed": false,
          "internalType": "uint256",
          "name": "input",
          "type": "uint256"
        },
        {
          "indexed": false,
          "internalType": "uint256",
          "name": "output",
          "type": "uint256"
        },
        {
          "indexed": false,
          "internalType": "uint256",
          "name": "fees",
          "type": "uint256"
        },
        {
          "indexed": false,
          "internalType": "uint32",
          "name": "sourceSwapId",
          "type": "uint32"
        }
      ],
      "name": "SwapToUnits",
      "type": "event"
    },
    {
      "anonymous": false,
      "inputs": [
        {
          "indexed": true,
          "internalType": "address",
          "name": "from",
          "type": "address"
        },
        {
          "indexed": true,
          "internalType": "address",
          "name": "to",
          "type": "address"
        },
        {
          "indexed": false,
          "internalType": "uint256",
          "name": "value",
          "type": "uint256"
        }
      ],
      "name": "Transfer",
      "type": "event"
    },
    {
      "anonymous": false,
      "inputs": [
        {
          "indexed": true,
          "internalType": "address",
          "name": "who",
          "type": "address"
        },
        {
          "indexed": false,
          "internalType": "uint256",
          "name": "burn",
          "type": "uint256"
        },
        {
          "indexed": false,
          "internalType": "uint256[]",
          "name": "assets",
          "type": "uint256[]"
        }
      ],
      "name": "Withdraw",
      "type": "event"
    },
    {
      "inputs": [
        {
          "internalType": "address",
          "name": "",
          "type": "address"
        }
      ],
      "name": "_balance0",
      "outputs": [
        {
          "internalType": "uint256",
          "name": "",
          "type": "uint256"
        }
      ],
      "stateMutability": "view",
      "type": "function"
    },
    {
      "inputs": [],
      "name": "_chaininterface",
      "outputs": [
        {
          "internalType": "address",
          "name": "",
          "type": "address"
        }
      ],
      "stateMutability": "view",
      "type": "function"
    },
    {
      "inputs": [
        {
          "internalType": "uint256",
          "name": "",
          "type": "uint256"
        }
      ],
      "name": "_escrowedFor",
      "outputs": [
        {
          "internalType": "address",
          "name": "user",
          "type": "address"
        },
        {
          "internalType": "uint256",
          "name": "amount",
          "type": "uint256"
        },
        {
          "internalType": "address",
          "name": "token",
          "type": "address"
        }
      ],
      "stateMutability": "view",
      "type": "function"
    },
    {
      "inputs": [
        {
          "internalType": "address",
          "name": "",
          "type": "address"
        }
      ],
      "name": "_escrowedTokens",
      "outputs": [
        {
          "internalType": "uint256",
          "name": "",
          "type": "uint256"
        }
      ],
      "stateMutability": "view",
      "type": "function"
    },
    {
      "inputs": [],
      "name": "_max_unit_inflow",
      "outputs": [
        {
          "internalType": "uint256",
          "name": "",
          "type": "uint256"
        }
      ],
      "stateMutability": "view",
      "type": "function"
    },
    {
      "inputs": [],
      "name": "_onlyLocal",
      "outputs": [
        {
          "internalType": "bool",
          "name": "",
          "type": "bool"
        }
      ],
      "stateMutability": "view",
      "type": "function"
    },
    {
      "inputs": [],
      "name": "_setupMaster",
      "outputs": [
        {
          "internalType": "address",
          "name": "",
          "type": "address"
        }
      ],
      "stateMutability": "view",
      "type": "function"
    },
    {
      "inputs": [],
      "name": "_sumWeights",
      "outputs": [
        {
          "internalType": "uint256",
          "name": "",
          "type": "uint256"
        }
      ],
      "stateMutability": "view",
      "type": "function"
    },
    {
      "inputs": [
        {
          "internalType": "uint256",
          "name": "",
          "type": "uint256"
        }
      ],
      "name": "_tokenIndexing",
      "outputs": [
        {
          "internalType": "address",
          "name": "",
          "type": "address"
        }
      ],
      "stateMutability": "view",
      "type": "function"
    },
    {
      "inputs": [
        {
          "internalType": "address",
          "name": "",
          "type": "address"
        }
      ],
      "name": "_weight",
      "outputs": [
        {
          "internalType": "uint256",
          "name": "",
          "type": "uint256"
        }
      ],
      "stateMutability": "view",
      "type": "function"
    },
    {
      "inputs": [
        {
          "internalType": "address",
          "name": "owner",
          "type": "address"
        },
        {
          "internalType": "address",
          "name": "spender",
          "type": "address"
        }
      ],
      "name": "allowance",
      "outputs": [
        {
          "internalType": "uint256",
          "name": "",
          "type": "uint256"
        }
      ],
      "stateMutability": "view",
      "type": "function"
    },
    {
      "inputs": [
        {
          "internalType": "address",
          "name": "spender",
          "type": "address"
        },
        {
          "internalType": "uint256",
          "name": "amount",
          "type": "uint256"
        }
      ],
      "name": "approve",
      "outputs": [
        {
          "internalType": "bool",
          "name": "",
          "type": "bool"
        }
      ],
      "stateMutability": "nonpayable",
      "type": "function"
    },
    {
      "inputs": [
        {
          "internalType": "address",
          "name": "account",
          "type": "address"
        }
      ],
      "name": "balanceOf",
      "outputs": [
        {
          "internalType": "uint256",
          "name": "",
          "type": "uint256"
        }
      ],
      "stateMutability": "view",
      "type": "function"
    },
    {
      "inputs": [
        {
          "internalType": "bytes32",
          "name": "channelId",
          "type": "bytes32"
        },
        {
          "internalType": "bytes32",
          "name": "poolReceiving",
          "type": "bytes32"
        },
        {
          "internalType": "bool",
          "name": "state",
          "type": "bool"
        }
      ],
      "name": "createConnection",
      "outputs": [],
      "stateMutability": "nonpayable",
      "type": "function"
    },
    {
      "inputs": [
        {
          "internalType": "uint256",
          "name": "chainId",
          "type": "uint256"
        },
        {
          "internalType": "bytes32",
          "name": "poolReceiving",
          "type": "bytes32"
        },
        {
          "internalType": "bool",
          "name": "state",
          "type": "bool"
        }
      ],
      "name": "createConnectionWithChain",
      "outputs": [],
      "stateMutability": "nonpayable",
      "type": "function"
    },
    {
      "inputs": [],
      "name": "decimals",
      "outputs": [
        {
          "internalType": "uint8",
          "name": "",
          "type": "uint8"
        }
      ],
      "stateMutability": "pure",
      "type": "function"
    },
    {
      "inputs": [
        {
          "internalType": "address",
          "name": "spender",
          "type": "address"
        },
        {
          "internalType": "uint256",
          "name": "subtractedValue",
          "type": "uint256"
        }
      ],
      "name": "decreaseAllowance",
      "outputs": [
        {
          "internalType": "bool",
          "name": "",
          "type": "bool"
        }
      ],
      "stateMutability": "nonpayable",
      "type": "function"
    },
    {
      "inputs": [],
      "name": "finishSetup",
      "outputs": [],
      "stateMutability": "nonpayable",
      "type": "function"
    },
    {
      "inputs": [],
      "name": "getLiquidityUnitCapacity",
      "outputs": [
        {
          "internalType": "uint256",
          "name": "",
          "type": "uint256"
        }
      ],
      "stateMutability": "view",
      "type": "function"
    },
    {
      "inputs": [],
      "name": "getUnitCapacity",
      "outputs": [
        {
          "internalType": "uint256",
          "name": "",
          "type": "uint256"
        }
      ],
      "stateMutability": "view",
      "type": "function"
    },
    {
      "inputs": [
        {
          "internalType": "address",
          "name": "spender",
          "type": "address"
        },
        {
          "internalType": "uint256",
          "name": "addedValue",
          "type": "uint256"
        }
      ],
      "name": "increaseAllowance",
      "outputs": [
        {
          "internalType": "bool",
          "name": "",
          "type": "bool"
        }
      ],
      "stateMutability": "nonpayable",
      "type": "function"
    },
    {
      "inputs": [],
      "name": "name",
      "outputs": [
        {
          "internalType": "string",
          "name": "",
          "type": "string"
        }
      ],
      "stateMutability": "view",
      "type": "function"
    },
    {
      "inputs": [],
      "name": "ready",
      "outputs": [
        {
          "internalType": "bool",
          "name": "",
          "type": "bool"
        }
      ],
      "stateMutability": "view",
      "type": "function"
    },
    {
      "inputs": [
        {
          "internalType": "uint256",
          "name": "sourceSwapId",
          "type": "uint256"
        }
      ],
      "name": "releaseEscrowACK",
      "outputs": [],
      "stateMutability": "nonpayable",
      "type": "function"
    },
    {
      "inputs": [
        {
          "internalType": "uint256",
          "name": "sourceSwapId",
          "type": "uint256"
        }
      ],
      "name": "releaseEscrowTIMEOUT",
      "outputs": [],
      "stateMutability": "nonpayable",
      "type": "function"
    },
    {
      "inputs": [],
      "name": "symbol",
      "outputs": [
        {
          "internalType": "string",
          "name": "",
          "type": "string"
        }
      ],
      "stateMutability": "view",
      "type": "function"
    },
    {
      "inputs": [],
      "name": "totalSupply",
      "outputs": [
        {
          "internalType": "uint256",
          "name": "",
          "type": "uint256"
        }
      ],
      "stateMutability": "view",
      "type": "function"
    },
    {
      "inputs": [
        {
          "internalType": "address",
          "name": "to",
          "type": "address"
        },
        {
          "internalType": "uint256",
          "name": "amount",
          "type": "uint256"
        }
      ],
      "name": "transfer",
      "outputs": [
        {
          "internalType": "bool",
          "name": "",
          "type": "bool"
        }
      ],
      "stateMutability": "nonpayable",
      "type": "function"
    },
    {
      "inputs": [
        {
          "internalType": "address",
          "name": "from",
          "type": "address"
        },
        {
          "internalType": "address",
          "name": "to",
          "type": "address"
        },
        {
          "internalType": "uint256",
          "name": "amount",
          "type": "uint256"
        }
      ],
      "name": "transferFrom",
      "outputs": [
        {
          "internalType": "bool",
          "name": "",
          "type": "bool"
        }
      ],
      "stateMutability": "nonpayable",
      "type": "function"
    }
  ],
  "bytecode": "60806040526005805460ff60a01b1916600160a01b1790553480156200002457600080fd5b506040805160208082018352600080835283519182019093529182529060036200004f838262000119565b5060046200005e828262000119565b50506014805460ff1916600117905550620001e5565b634e487b7160e01b600052604160045260246000fd5b600181811c908216806200009f57607f821691505b602082108103620000c057634e487b7160e01b600052602260045260246000fd5b50919050565b601f8211156200011457600081815260208120601f850160051c81016020861015620000ef5750805b601f850160051c820191505b818110156200011057828155600101620000fb565b5050505b505050565b81516001600160401b0381111562000135576200013562000074565b6200014d816200014684546200008a565b84620000c6565b602080601f8311600181146200018557600084156200016c5750858301515b600019600386901b1c1916600185901b17855562000110565b600085815260208120601f198616915b82811015620001b65788860151825594840194600190910190840162000195565b5085821015620001d55787850151600019600388901b60f8161c191681555b5050505050600190811b01905550565b61192080620001f56000396000f3fe608060405234801561001057600080fd5b50600436106101cf5760003560e01c806386f25e4d11610104578063a9059cbb116100a2578063dd62ed3e11610071578063dd62ed3e146104aa578063ddc71dd1146104f0578063f2ae725c14610515578063ff27bd8b1461052857600080fd5b8063a9059cbb14610451578063acd3fac014610464578063b240ca0b14610477578063c90da0131461048a57600080fd5b8063916f65e3116100de578063916f65e31461042457806395d89b411461042d5780639ecfbb3614610435578063a457c2d71461043e57600080fd5b806386f25e4d146103dc5780638c9aa6f7146103e6578063904e0a01146103ee57600080fd5b806324cbc9ee116101715780633867e8571161014b5780633867e8571461032f57806339509351146103745780636defbf801461038757806370a08231146103a657600080fd5b806324cbc9ee146102e0578063313ce5671461030057806332a3385e1461030f57600080fd5b80630bc350d7116101ad5780630bc350d71461028f57806318160ddd146102a557806323b872dd146102ad57806324351d57146102c057600080fd5b8063023aae47146101d457806306fdde0314610257578063095ea7b31461026c575b600080fd5b61021b6101e2366004611602565b60126020526000908152604090208054600182015460029092015473ffffffffffffffffffffffffffffffffffffffff91821692911683565b6040805173ffffffffffffffffffffffffffffffffffffffff948516815260208101939093529216918101919091526060015b60405180910390f35b61025f61053b565b60405161024e919061163f565b61027f61027a3660046116b9565b6105cd565b604051901515815260200161024e565b6102976105e7565b60405190815260200161024e565b600254610297565b61027f6102bb3660046116e3565b610662565b6102976102ce36600461171f565b60116020526000908152604090205481565b6102976102ee36600461171f565b60076020526000908152604090205481565b6040516012815260200161024e565b61029761031d36600461171f565b60086020526000908152604090205481565b60055461034f9073ffffffffffffffffffffffffffffffffffffffff1681565b60405173ffffffffffffffffffffffffffffffffffffffff909116815260200161024e565b61027f6103823660046116b9565b610688565b600b5473ffffffffffffffffffffffffffffffffffffffff161561027f565b6102976103b436600461171f565b73ffffffffffffffffffffffffffffffffffffffff1660009081526020819052604090205490565b6103e46106d4565b005b610297610790565b61034f6103fc366004611602565b60066020526000908152604090205473ffffffffffffffffffffffffffffffffffffffff1681565b610297600c5481565b61025f61080e565b61029760095481565b61027f61044c3660046116b9565b61081d565b61027f61045f3660046116b9565b6108fe565b6103e4610472366004611602565b61090c565b6103e461048536600461174b565b610a4d565b600b5461034f9073ffffffffffffffffffffffffffffffffffffffff1681565b6102976104b8366004611784565b73ffffffffffffffffffffffffffffffffffffffff918216600090815260016020908152604080832093909416825291909152205490565b60055461027f9074010000000000000000000000000000000000000000900460ff1681565b6103e461052336600461174b565b610b52565b6103e4610536366004611602565b610c69565b60606015805461054a906117b7565b80601f0160208091040260200160405190810160405280929190818152602001828054610576906117b7565b80156105c35780601f10610598576101008083540402835291602001916105c3565b820191906000526020600020905b8154815290600101906020018083116105a657829003601f168201915b5050505050905090565b6000336105db818585610d2d565b60019150505b92915050565b600c54600e54600091906105fe9062015180611839565b42111561060a57919050565b600062015180600e544261061e919061184c565b610628908461185f565b6106329190611876565b905080600d54116106435750919050565b80600d54610651919061184c565b61065b908361184c565b9250505090565b600033610670858285610ee0565b61067b858585610fb1565b60019150505b9392505050565b33600081815260016020908152604080832073ffffffffffffffffffffffffffffffffffffffff871684529091528120549091906105db90829086906106cf908790611839565b610d2d565b600b5473ffffffffffffffffffffffffffffffffffffffff163214806107115750600b5473ffffffffffffffffffffffffffffffffffffffff1633145b61071a57600080fd5b60055474010000000000000000000000000000000000000000900460ff161561076657600580547fffffffffffffffffffffffff00000000000000000000000000000000000000001690555b600b80547fffffffffffffffffffffffff0000000000000000000000000000000000000000169055565b600080600261079e60025490565b6107a89190611876565b9050601054620151806107bb9190611839565b4211156107c757919050565b600062015180601054426107db919061184c565b6107e5908461185f565b6107ef9190611876565b905080600f54116108005750919050565b80600f54610651919061184c565b60606016805461054a906117b7565b33600081815260016020908152604080832073ffffffffffffffffffffffffffffffffffffffff87168452909152812054909190838110156108e6576040517f08c379a000000000000000000000000000000000000000000000000000000000815260206004820152602560248201527f45524332303a2064656372656173656420616c6c6f77616e63652062656c6f7760448201527f207a65726f00000000000000000000000000000000000000000000000000000060648201526084015b60405180910390fd5b6108f38286868403610d2d565b506001949350505050565b6000336105db818585610fb1565b60055473ffffffffffffffffffffffffffffffffffffffff16331461093057600080fd5b60008181526012602090815260408083208151606081018352815473ffffffffffffffffffffffffffffffffffffffff90811682526001830154828601819052600290930154168184018190528552601190935290832080549293919290919061099b90849061184c565b90915550508051602082015160408301516109ce9273ffffffffffffffffffffffffffffffffffffffff90911691611264565b6040518281527f2ed3176c48e2338524348cc2055adb2c2d41e9022e0a6a18d843c9ed5be9a3a3906020015b60405180910390a150600090815260126020526040812080547fffffffffffffffffffffffff00000000000000000000000000000000000000009081168255600182019290925560020180549091169055565b600b5473ffffffffffffffffffffffffffffffffffffffff16321480610a8a5750600b5473ffffffffffffffffffffffffffffffffffffffff1633145b610a9357600080fd5b600580547fffffffffffffffffffffff00ffffffffffffffffffffffffffffffffffffffff81169091556040517f92a9bdb30000000000000000000000000000000000000000000000000000000081526004810185905260248101849052821515604482015273ffffffffffffffffffffffffffffffffffffffff909116906392a9bdb390606401600060405180830381600087803b158015610b3557600080fd5b505af1158015610b49573d6000803e3d6000fd5b50505050505050565b600b5473ffffffffffffffffffffffffffffffffffffffff16321480610b8f5750600b5473ffffffffffffffffffffffffffffffffffffffff1633145b610b9857600080fd5b600580547fffffffffffffffffffffff00ffffffffffffffffffffffffffffffffffffffff81169091556040517fcec8a3950000000000000000000000000000000000000000000000000000000081526004810185905260248101849052821515604482015273ffffffffffffffffffffffffffffffffffffffff9091169063cec8a395906064016020604051808303816000875af1158015610c3f573d6000803e3d6000fd5b505050506040513d601f19601f82011682018060405250810190610c6391906118b1565b50505050565b60055473ffffffffffffffffffffffffffffffffffffffff163314610c8d57600080fd5b60008181526012602090815260408083208151606081018352815473ffffffffffffffffffffffffffffffffffffffff908116825260018301548286018190526002909301541681840181905285526011909352908320805492939192909190610cf890849061184c565b90915550506040518281527f44898ab65affad4f975e5a33a5f62fc75a177f6e222da2585627711f4b0f50f5906020016109fa565b73ffffffffffffffffffffffffffffffffffffffff8316610dcf576040517f08c379a0000000000000000000000000000000000000000000000000000000008152602060048201526024808201527f45524332303a20617070726f76652066726f6d20746865207a65726f2061646460448201527f726573730000000000000000000000000000000000000000000000000000000060648201526084016108dd565b73ffffffffffffffffffffffffffffffffffffffff8216610e72576040517f08c379a000000000000000000000000000000000000000000000000000000000815260206004820152602260248201527f45524332303a20617070726f766520746f20746865207a65726f20616464726560448201527f737300000000000000000000000000000000000000000000000000000000000060648201526084016108dd565b73ffffffffffffffffffffffffffffffffffffffff83811660008181526001602090815260408083209487168084529482529182902085905590518481527f8c5be1e5ebec7d5bd14f71427d1e84f3dd0314c0f7b2291e5b200ac8c7c3b925910160405180910390a3505050565b73ffffffffffffffffffffffffffffffffffffffff8381166000908152600160209081526040808320938616835292905220547fffffffffffffffffffffffffffffffffffffffffffffffffffffffffffffffff8114610c635781811015610fa4576040517f08c379a000000000000000000000000000000000000000000000000000000000815260206004820152601d60248201527f45524332303a20696e73756666696369656e7420616c6c6f77616e636500000060448201526064016108dd565b610c638484848403610d2d565b73ffffffffffffffffffffffffffffffffffffffff8316611054576040517f08c379a000000000000000000000000000000000000000000000000000000000815260206004820152602560248201527f45524332303a207472616e736665722066726f6d20746865207a65726f20616460448201527f647265737300000000000000000000000000000000000000000000000000000060648201526084016108dd565b73ffffffffffffffffffffffffffffffffffffffff82166110f7576040517f08c379a000000000000000000000000000000000000000000000000000000000815260206004820152602360248201527f45524332303a207472616e7366657220746f20746865207a65726f206164647260448201527f657373000000000000000000000000000000000000000000000000000000000060648201526084016108dd565b73ffffffffffffffffffffffffffffffffffffffff8316600090815260208190526040902054818110156111ad576040517f08c379a000000000000000000000000000000000000000000000000000000000815260206004820152602660248201527f45524332303a207472616e7366657220616d6f756e742065786365656473206260448201527f616c616e6365000000000000000000000000000000000000000000000000000060648201526084016108dd565b73ffffffffffffffffffffffffffffffffffffffff8085166000908152602081905260408082208585039055918516815290812080548492906111f1908490611839565b925050819055508273ffffffffffffffffffffffffffffffffffffffff168473ffffffffffffffffffffffffffffffffffffffff167fddf252ad1be2c89b69c2b068fc378daa952ba7f163c4a11628f55a4df523b3ef8460405161125791815260200190565b60405180910390a3610c63565b6040805173ffffffffffffffffffffffffffffffffffffffff8416602482015260448082018490528251808303909101815260649091019091526020810180517bffffffffffffffffffffffffffffffffffffffffffffffffffffffff167fa9059cbb000000000000000000000000000000000000000000000000000000001790526112f19084906112f6565b505050565b6000611358826040518060400160405280602081526020017f5361666545524332303a206c6f772d6c6576656c2063616c6c206661696c65648152508573ffffffffffffffffffffffffffffffffffffffff166114029092919063ffffffff16565b8051909150156112f1578080602001905181019061137691906118b1565b6112f1576040517f08c379a000000000000000000000000000000000000000000000000000000000815260206004820152602a60248201527f5361666545524332303a204552433230206f7065726174696f6e20646964206e60448201527f6f7420737563636565640000000000000000000000000000000000000000000060648201526084016108dd565b60606114118484600085611419565b949350505050565b6060824710156114ab576040517f08c379a000000000000000000000000000000000000000000000000000000000815260206004820152602660248201527f416464726573733a20696e73756666696369656e742062616c616e636520666f60448201527f722063616c6c000000000000000000000000000000000000000000000000000060648201526084016108dd565b73ffffffffffffffffffffffffffffffffffffffff85163b611529576040517f08c379a000000000000000000000000000000000000000000000000000000000815260206004820152601d60248201527f416464726573733a2063616c6c20746f206e6f6e2d636f6e747261637400000060448201526064016108dd565b6000808673ffffffffffffffffffffffffffffffffffffffff16858760405161155291906118ce565b60006040518083038185875af1925050503d806000811461158f576040519150601f19603f3d011682016040523d82523d6000602084013e611594565b606091505b50915091506115a48282866115af565b979650505050505050565b606083156115be575081610681565b8251156115ce5782518084602001fd5b816040517f08c379a00000000000000000000000000000000000000000000000000000000081526004016108dd919061163f565b60006020828403121561161457600080fd5b5035919050565b60005b8381101561163657818101518382015260200161161e565b50506000910152565b602081526000825180602084015261165e81604085016020870161161b565b601f017fffffffffffffffffffffffffffffffffffffffffffffffffffffffffffffffe0169190910160400192915050565b803573ffffffffffffffffffffffffffffffffffffffff811681146116b457600080fd5b919050565b600080604083850312156116cc57600080fd5b6116d583611690565b946020939093013593505050565b6000806000606084860312156116f857600080fd5b61170184611690565b925061170f60208501611690565b9150604084013590509250925092565b60006020828403121561173157600080fd5b61068182611690565b801515811461174857600080fd5b50565b60008060006060848603121561176057600080fd5b833592506020840135915060408401356117798161173a565b809150509250925092565b6000806040838503121561179757600080fd5b6117a083611690565b91506117ae60208401611690565b90509250929050565b600181811c908216806117cb57607f821691505b602082108103611804577f4e487b7100000000000000000000000000000000000000000000000000000000600052602260045260246000fd5b50919050565b7f4e487b7100000000000000000000000000000000000000000000000000000000600052601160045260246000fd5b808201808211156105e1576105e161180a565b818103818111156105e1576105e161180a565b80820281158282048414176105e1576105e161180a565b6000826118ac577f4e487b7100000000000000000000000000000000000000000000000000000000600052601260045260246000fd5b500490565b6000602082840312156118c357600080fd5b81516106818161173a565b600082516118e081846020870161161b565b919091019291505056fea26469706673582212201076681ff205f95117123b5548b137551414fee58f7960a7b12e4dfd3f7d17fb64736f6c63430008110033",
  "bytecodeSha1": "d51b909bbc0d025da65cc1bfd43cb56de45c4484",
  "compiler": {
    "evm_version": "istanbul",
    "optimizer": {
      "enabled": true,
      "runs": 251251
    },
    "version": "0.8.17+commit.8df45f5f"
  },
  "contractName": "CatalystSwapPoolCore",
  "language": "Solidity",
  "natspec": {
    "author": "Catalyst Labs",
    "kind": "dev",
    "methods": {
      "_balance0(address)": {
        "notice": "Liquidity reference."
      },
      "_escrowedFor(uint256)": {
        "notice": "Escrow storage"
      },
      "_escrowedTokens(address)": {
        "notice": "Escrow storage"
      },
      "_max_unit_inflow()": {
        "notice": "The max incoming liquidity flow from the router."
      },
      "_onlyLocal()": {
        "notice": "If the pool has no cross chain connection, this is true.     Should not be trusted if setupMaster != ZERO_ADDRESS"
      },
      "_setupMaster()": {
        "notice": "The setupMaster is the short-term owner of the pool.     They can connect the pool to pools on other chains."
      },
      "_tokenIndexing(uint256)": {
        "notice": "To indicate which token is desired on the target pool,     the _toAsset is an integer from 0 to NUMASSETS indicating     which asset the pool should purchase with units."
      },
      "_weight(address)": {
        "notice": "The token weights. Used for maintaining a non symmetric pool balance."
      },
      "allowance(address,address)": {
        "details": "See {IERC20-allowance}."
      },
      "approve(address,uint256)": {
        "details": "See {IERC20-approve}. NOTE: If `amount` is the maximum `uint256`, the allowance is not updated on `transferFrom`. This is semantically equivalent to an infinite approval. Requirements: - `spender` cannot be the zero address."
      },
      "balanceOf(address)": {
        "details": "See {IERC20-balanceOf}."
      },
      "createConnection(bytes32,bytes32,bool)": {
        "details": "if _poolReceiving is an EVM pool, it can be computes as:     Vyper: convert(_poolAddress, bytes32)     Solidity: abi.encode(_poolAddress)     Brownie: brownie.convert.to_bytes(_poolAddress, type_str=\"bytes32\") ! Notice, using tx.origin is not secure. However, it makes it easy to bundle call from an external contract and no assets are at risk because the pool should not be used without setupMaster == ZERO_ADDRESS",
        "notice": "Creates a connection to the pool _poolReceiving on the channel _channelId.",
        "params": {
          "channelId": "The _channelId of the target pool.",
          "poolReceiving": "The bytes32 representation of the target pool",
          "state": "# todo: Should we also set this to True? Aka: should we disable disabling a connection?"
        }
      },
      "createConnectionWithChain(uint256,bytes32,bool)": {
        "details": "if _poolReceiving is an EVM pool, it can be computes as:     Vyper: convert(_poolAddress, bytes32)     Solidity: abi.encode(_poolAddress)     Brownie: brownie.convert.to_bytes(_poolAddress, type_str=\"bytes32\") ! Using tx.origin is not secure. However, it makes it easy to bundle call from an external contract and no assets are at risk because the pool should not be used without setupMaster == ZERO_ADDRESS",
        "notice": "Creates a connection to the pool _poolReceiving using the lookup table of the interface.",
        "params": {
          "chainId": "_chainId of the target pool. The interface will convert the chainId to the correct channelId.",
          "poolReceiving": "The bytes32 representation of the target pool",
          "state": "# todo: Should we also set this to True? Aka: should we disable disabling a connection?"
        }
      },
      "decimals()": {
        "details": "Returns the number of decimals used to get its user representation. For example, if `decimals` equals `2`, a balance of `505` tokens should be displayed to a user as `5.05` (`505 / 10 ** 2`). Tokens usually opt for a value of 18, imitating the relationship between Ether and Wei. This is the value {ERC20} uses, unless this function is overridden; NOTE: This information is only used for _display_ purposes: it in no way affects any of the arithmetic of the contract, including {IERC20-balanceOf} and {IERC20-transfer}."
      },
      "decreaseAllowance(address,uint256)": {
        "details": "Atomically decreases the allowance granted to `spender` by the caller. This is an alternative to {approve} that can be used as a mitigation for problems described in {IERC20-approve}. Emits an {Approval} event indicating the updated allowance. Requirements: - `spender` cannot be the zero address. - `spender` must have allowance for the caller of at least `subtractedValue`."
      },
      "finishSetup()": {
        "details": "! Using tx.origin is not secure. However, it makes it easy to bundle call from an external contract and no assets are at risk because the pool should not be used without setupMaster == ZERO_ADDRESS",
        "notice": "Gives up short term ownership of the pool. This makes the pool unstoppable."
      },
      "getLiquidityUnitCapacity()": {
        "notice": "Returns the current cross-chain liquidity unit capacity in terms of the totalSupply. These are not true units but rather the conversion of units to pool tokens."
      },
      "getUnitCapacity()": {
        "notice": "Returns the current cross-chain unit capacity. "
      },
      "increaseAllowance(address,uint256)": {
        "details": "Atomically increases the allowance granted to `spender` by the caller. This is an alternative to {approve} that can be used as a mitigation for problems described in {IERC20-approve}. Emits an {Approval} event indicating the updated allowance. Requirements: - `spender` cannot be the zero address."
      },
      "name()": {
        "details": "Returns the name of the token."
      },
      "ready()": {
        "details": "Just checks if the setup master has been set to ZERO_ADDRESS.     In other words, has finishSetup been called?",
        "notice": "External view function purely used to signal if a pool is safe to use."
      },
      "releaseEscrowACK(uint256)": {
        "notice": "Release the escrowed tokens into the pool.  "
      },
      "releaseEscrowTIMEOUT(uint256)": {
        "notice": "Returned the escrowed tokens to the user "
      },
      "symbol()": {
        "details": "Returns the symbol of the token, usually a shorter version of the name."
      },
      "totalSupply()": {
        "details": "See {IERC20-totalSupply}."
      },
      "transfer(address,uint256)": {
        "details": "See {IERC20-transfer}. Requirements: - `to` cannot be the zero address. - the caller must have a balance of at least `amount`."
      },
      "transferFrom(address,address,uint256)": {
        "details": "See {IERC20-transferFrom}. Emits an {Approval} event indicating the updated allowance. This is not required by the EIP. See the note at the beginning of {ERC20}. NOTE: Does not update the allowance if the current allowance is the maximum `uint256`. Requirements: - `from` and `to` cannot be the zero address. - `from` must have a balance of at least `amount`. - the caller must have allowance for ``from``'s tokens of at least `amount`."
      }
    },
    "stateVariables": {
      "DECAYRATE": {
        "details": "Needs to be long enough for pool token providers to be notified     of a beach but short enough for volatility to not soft-freeze the pool."
      }
    },
    "title": "Catalyst: The Multi-Chain Swap Pool Base",
    "version": 1
  },
  "opcodes": "PUSH1 0x80 PUSH1 0x40 MSTORE CALLVALUE DUP1 ISZERO PUSH2 0x10 JUMPI PUSH1 0x0 DUP1 REVERT JUMPDEST POP PUSH1 0x4 CALLDATASIZE LT PUSH2 0x1CF JUMPI PUSH1 0x0 CALLDATALOAD PUSH1 0xE0 SHR DUP1 PUSH4 0x86F25E4D GT PUSH2 0x104 JUMPI DUP1 PUSH4 0xA9059CBB GT PUSH2 0xA2 JUMPI DUP1 PUSH4 0xDD62ED3E GT PUSH2 0x71 JUMPI DUP1 PUSH4 0xDD62ED3E EQ PUSH2 0x4AA JUMPI DUP1 PUSH4 0xDDC71DD1 EQ PUSH2 0x4F0 JUMPI DUP1 PUSH4 0xF2AE725C EQ PUSH2 0x515 JUMPI DUP1 PUSH4 0xFF27BD8B EQ PUSH2 0x528 JUMPI PUSH1 0x0 DUP1 REVERT JUMPDEST DUP1 PUSH4 0xA9059CBB EQ PUSH2 0x451 JUMPI DUP1 PUSH4 0xACD3FAC0 EQ PUSH2 0x464 JUMPI DUP1 PUSH4 0xB240CA0B EQ PUSH2 0x477 JUMPI DUP1 PUSH4 0xC90DA013 EQ PUSH2 0x48A JUMPI PUSH1 0x0 DUP1 REVERT JUMPDEST DUP1 PUSH4 0x916F65E3 GT PUSH2 0xDE JUMPI DUP1 PUSH4 0x916F65E3 EQ PUSH2 0x424 JUMPI DUP1 PUSH4 0x95D89B41 EQ PUSH2 0x42D JUMPI DUP1 PUSH4 0x9ECFBB36 EQ PUSH2 0x435 JUMPI DUP1 PUSH4 0xA457C2D7 EQ PUSH2 0x43E JUMPI PUSH1 0x0 DUP1 REVERT JUMPDEST DUP1 PUSH4 0x86F25E4D EQ PUSH2 0x3DC JUMPI DUP1 PUSH4 0x8C9AA6F7 EQ PUSH2 0x3E6 JUMPI DUP1 PUSH4 0x904E0A01 EQ PUSH2 0x3EE JUMPI PUSH1 0x0 DUP1 REVERT JUMPDEST DUP1 PUSH4 0x24CBC9EE GT PUSH2 0x171 JUMPI DUP1 PUSH4 0x3867E857 GT PUSH2 0x14B JUMPI DUP1 PUSH4 0x3867E857 EQ PUSH2 0x32F JUMPI DUP1 PUSH4 0x39509351 EQ PUSH2 0x374 JUMPI DUP1 PUSH4 0x6DEFBF80 EQ PUSH2 0x387 JUMPI DUP1 PUSH4 0x70A08231 EQ PUSH2 0x3A6 JUMPI PUSH1 0x0 DUP1 REVERT JUMPDEST DUP1 PUSH4 0x24CBC9EE EQ PUSH2 0x2E0 JUMPI DUP1 PUSH4 0x313CE567 EQ PUSH2 0x300 JUMPI DUP1 PUSH4 0x32A3385E EQ PUSH2 0x30F JUMPI PUSH1 0x0 DUP1 REVERT JUMPDEST DUP1 PUSH4 0xBC350D7 GT PUSH2 0x1AD JUMPI DUP1 PUSH4 0xBC350D7 EQ PUSH2 0x28F JUMPI DUP1 PUSH4 0x18160DDD EQ PUSH2 0x2A5 JUMPI DUP1 PUSH4 0x23B872DD EQ PUSH2 0x2AD JUMPI DUP1 PUSH4 0x24351D57 EQ PUSH2 0x2C0 JUMPI PUSH1 0x0 DUP1 REVERT JUMPDEST DUP1 PUSH4 0x23AAE47 EQ PUSH2 0x1D4 JUMPI DUP1 PUSH4 0x6FDDE03 EQ PUSH2 0x257 JUMPI DUP1 PUSH4 0x95EA7B3 EQ PUSH2 0x26C JUMPI JUMPDEST PUSH1 0x0 DUP1 REVERT JUMPDEST PUSH2 0x21B PUSH2 0x1E2 CALLDATASIZE PUSH1 0x4 PUSH2 0x1602 JUMP JUMPDEST PUSH1 0x12 PUSH1 0x20 MSTORE PUSH1 0x0 SWAP1 DUP2 MSTORE PUSH1 0x40 SWAP1 KECCAK256 DUP1 SLOAD PUSH1 0x1 DUP3 ADD SLOAD PUSH1 0x2 SWAP1 SWAP3 ADD SLOAD PUSH20 0xFFFFFFFFFFFFFFFFFFFFFFFFFFFFFFFFFFFFFFFF SWAP2 DUP3 AND SWAP3 SWAP2 AND DUP4 JUMP JUMPDEST PUSH1 0x40 DUP1 MLOAD PUSH20 0xFFFFFFFFFFFFFFFFFFFFFFFFFFFFFFFFFFFFFFFF SWAP5 DUP6 AND DUP2 MSTORE PUSH1 0x20 DUP2 ADD SWAP4 SWAP1 SWAP4 MSTORE SWAP3 AND SWAP2 DUP2 ADD SWAP2 SWAP1 SWAP2 MSTORE PUSH1 0x60 ADD JUMPDEST PUSH1 0x40 MLOAD DUP1 SWAP2 SUB SWAP1 RETURN JUMPDEST PUSH2 0x25F PUSH2 0x53B JUMP JUMPDEST PUSH1 0x40 MLOAD PUSH2 0x24E SWAP2 SWAP1 PUSH2 0x163F JUMP JUMPDEST PUSH2 0x27F PUSH2 0x27A CALLDATASIZE PUSH1 0x4 PUSH2 0x16B9 JUMP JUMPDEST PUSH2 0x5CD JUMP JUMPDEST PUSH1 0x40 MLOAD SWAP1 ISZERO ISZERO DUP2 MSTORE PUSH1 0x20 ADD PUSH2 0x24E JUMP JUMPDEST PUSH2 0x297 PUSH2 0x5E7 JUMP JUMPDEST PUSH1 0x40 MLOAD SWAP1 DUP2 MSTORE PUSH1 0x20 ADD PUSH2 0x24E JUMP JUMPDEST PUSH1 0x2 SLOAD PUSH2 0x297 JUMP JUMPDEST PUSH2 0x27F PUSH2 0x2BB CALLDATASIZE PUSH1 0x4 PUSH2 0x16E3 JUMP JUMPDEST PUSH2 0x662 JUMP JUMPDEST PUSH2 0x297 PUSH2 0x2CE CALLDATASIZE PUSH1 0x4 PUSH2 0x171F JUMP JUMPDEST PUSH1 0x11 PUSH1 0x20 MSTORE PUSH1 0x0 SWAP1 DUP2 MSTORE PUSH1 0x40 SWAP1 KECCAK256 SLOAD DUP2 JUMP JUMPDEST PUSH2 0x297 PUSH2 0x2EE CALLDATASIZE PUSH1 0x4 PUSH2 0x171F JUMP JUMPDEST PUSH1 0x7 PUSH1 0x20 MSTORE PUSH1 0x0 SWAP1 DUP2 MSTORE PUSH1 0x40 SWAP1 KECCAK256 SLOAD DUP2 JUMP JUMPDEST PUSH1 0x40 MLOAD PUSH1 0x12 DUP2 MSTORE PUSH1 0x20 ADD PUSH2 0x24E JUMP JUMPDEST PUSH2 0x297 PUSH2 0x31D CALLDATASIZE PUSH1 0x4 PUSH2 0x171F JUMP JUMPDEST PUSH1 0x8 PUSH1 0x20 MSTORE PUSH1 0x0 SWAP1 DUP2 MSTORE PUSH1 0x40 SWAP1 KECCAK256 SLOAD DUP2 JUMP JUMPDEST PUSH1 0x5 SLOAD PUSH2 0x34F SWAP1 PUSH20 0xFFFFFFFFFFFFFFFFFFFFFFFFFFFFFFFFFFFFFFFF AND DUP2 JUMP JUMPDEST PUSH1 0x40 MLOAD PUSH20 0xFFFFFFFFFFFFFFFFFFFFFFFFFFFFFFFFFFFFFFFF SWAP1 SWAP2 AND DUP2 MSTORE PUSH1 0x20 ADD PUSH2 0x24E JUMP JUMPDEST PUSH2 0x27F PUSH2 0x382 CALLDATASIZE PUSH1 0x4 PUSH2 0x16B9 JUMP JUMPDEST PUSH2 0x688 JUMP JUMPDEST PUSH1 0xB SLOAD PUSH20 0xFFFFFFFFFFFFFFFFFFFFFFFFFFFFFFFFFFFFFFFF AND ISZERO PUSH2 0x27F JUMP JUMPDEST PUSH2 0x297 PUSH2 0x3B4 CALLDATASIZE PUSH1 0x4 PUSH2 0x171F JUMP JUMPDEST PUSH20 0xFFFFFFFFFFFFFFFFFFFFFFFFFFFFFFFFFFFFFFFF AND PUSH1 0x0 SWAP1 DUP2 MSTORE PUSH1 0x20 DUP2 SWAP1 MSTORE PUSH1 0x40 SWAP1 KECCAK256 SLOAD SWAP1 JUMP JUMPDEST PUSH2 0x3E4 PUSH2 0x6D4 JUMP JUMPDEST STOP JUMPDEST PUSH2 0x297 PUSH2 0x790 JUMP JUMPDEST PUSH2 0x34F PUSH2 0x3FC CALLDATASIZE PUSH1 0x4 PUSH2 0x1602 JUMP JUMPDEST PUSH1 0x6 PUSH1 0x20 MSTORE PUSH1 0x0 SWAP1 DUP2 MSTORE PUSH1 0x40 SWAP1 KECCAK256 SLOAD PUSH20 0xFFFFFFFFFFFFFFFFFFFFFFFFFFFFFFFFFFFFFFFF AND DUP2 JUMP JUMPDEST PUSH2 0x297 PUSH1 0xC SLOAD DUP2 JUMP JUMPDEST PUSH2 0x25F PUSH2 0x80E JUMP JUMPDEST PUSH2 0x297 PUSH1 0x9 SLOAD DUP2 JUMP JUMPDEST PUSH2 0x27F PUSH2 0x44C CALLDATASIZE PUSH1 0x4 PUSH2 0x16B9 JUMP JUMPDEST PUSH2 0x81D JUMP JUMPDEST PUSH2 0x27F PUSH2 0x45F CALLDATASIZE PUSH1 0x4 PUSH2 0x16B9 JUMP JUMPDEST PUSH2 0x8FE JUMP JUMPDEST PUSH2 0x3E4 PUSH2 0x472 CALLDATASIZE PUSH1 0x4 PUSH2 0x1602 JUMP JUMPDEST PUSH2 0x90C JUMP JUMPDEST PUSH2 0x3E4 PUSH2 0x485 CALLDATASIZE PUSH1 0x4 PUSH2 0x174B JUMP JUMPDEST PUSH2 0xA4D JUMP JUMPDEST PUSH1 0xB SLOAD PUSH2 0x34F SWAP1 PUSH20 0xFFFFFFFFFFFFFFFFFFFFFFFFFFFFFFFFFFFFFFFF AND DUP2 JUMP JUMPDEST PUSH2 0x297 PUSH2 0x4B8 CALLDATASIZE PUSH1 0x4 PUSH2 0x1784 JUMP JUMPDEST PUSH20 0xFFFFFFFFFFFFFFFFFFFFFFFFFFFFFFFFFFFFFFFF SWAP2 DUP3 AND PUSH1 0x0 SWAP1 DUP2 MSTORE PUSH1 0x1 PUSH1 0x20 SWAP1 DUP2 MSTORE PUSH1 0x40 DUP1 DUP4 KECCAK256 SWAP4 SWAP1 SWAP5 AND DUP3 MSTORE SWAP2 SWAP1 SWAP2 MSTORE KECCAK256 SLOAD SWAP1 JUMP JUMPDEST PUSH1 0x5 SLOAD PUSH2 0x27F SWAP1 PUSH21 0x10000000000000000000000000000000000000000 SWAP1 DIV PUSH1 0xFF AND DUP2 JUMP JUMPDEST PUSH2 0x3E4 PUSH2 0x523 CALLDATASIZE PUSH1 0x4 PUSH2 0x174B JUMP JUMPDEST PUSH2 0xB52 JUMP JUMPDEST PUSH2 0x3E4 PUSH2 0x536 CALLDATASIZE PUSH1 0x4 PUSH2 0x1602 JUMP JUMPDEST PUSH2 0xC69 JUMP JUMPDEST PUSH1 0x60 PUSH1 0x15 DUP1 SLOAD PUSH2 0x54A SWAP1 PUSH2 0x17B7 JUMP JUMPDEST DUP1 PUSH1 0x1F ADD PUSH1 0x20 DUP1 SWAP2 DIV MUL PUSH1 0x20 ADD PUSH1 0x40 MLOAD SWAP1 DUP2 ADD PUSH1 0x40 MSTORE DUP1 SWAP3 SWAP2 SWAP1 DUP2 DUP2 MSTORE PUSH1 0x20 ADD DUP3 DUP1 SLOAD PUSH2 0x576 SWAP1 PUSH2 0x17B7 JUMP JUMPDEST DUP1 ISZERO PUSH2 0x5C3 JUMPI DUP1 PUSH1 0x1F LT PUSH2 0x598 JUMPI PUSH2 0x100 DUP1 DUP4 SLOAD DIV MUL DUP4 MSTORE SWAP2 PUSH1 0x20 ADD SWAP2 PUSH2 0x5C3 JUMP JUMPDEST DUP3 ADD SWAP2 SWAP1 PUSH1 0x0 MSTORE PUSH1 0x20 PUSH1 0x0 KECCAK256 SWAP1 JUMPDEST DUP2 SLOAD DUP2 MSTORE SWAP1 PUSH1 0x1 ADD SWAP1 PUSH1 0x20 ADD DUP1 DUP4 GT PUSH2 0x5A6 JUMPI DUP3 SWAP1 SUB PUSH1 0x1F AND DUP3 ADD SWAP2 JUMPDEST POP POP POP POP POP SWAP1 POP SWAP1 JUMP JUMPDEST PUSH1 0x0 CALLER PUSH2 0x5DB DUP2 DUP6 DUP6 PUSH2 0xD2D JUMP JUMPDEST PUSH1 0x1 SWAP2 POP POP JUMPDEST SWAP3 SWAP2 POP POP JUMP JUMPDEST PUSH1 0xC SLOAD PUSH1 0xE SLOAD PUSH1 0x0 SWAP2 SWAP1 PUSH2 0x5FE SWAP1 PUSH3 0x15180 PUSH2 0x1839 JUMP JUMPDEST TIMESTAMP GT ISZERO PUSH2 0x60A JUMPI SWAP2 SWAP1 POP JUMP JUMPDEST PUSH1 0x0 PUSH3 0x15180 PUSH1 0xE SLOAD TIMESTAMP PUSH2 0x61E SWAP2 SWAP1 PUSH2 0x184C JUMP JUMPDEST PUSH2 0x628 SWAP1 DUP5 PUSH2 0x185F JUMP JUMPDEST PUSH2 0x632 SWAP2 SWAP1 PUSH2 0x1876 JUMP JUMPDEST SWAP1 POP DUP1 PUSH1 0xD SLOAD GT PUSH2 0x643 JUMPI POP SWAP2 SWAP1 POP JUMP JUMPDEST DUP1 PUSH1 0xD SLOAD PUSH2 0x651 SWAP2 SWAP1 PUSH2 0x184C JUMP JUMPDEST PUSH2 0x65B SWAP1 DUP4 PUSH2 0x184C JUMP JUMPDEST SWAP3 POP POP POP SWAP1 JUMP JUMPDEST PUSH1 0x0 CALLER PUSH2 0x670 DUP6 DUP3 DUP6 PUSH2 0xEE0 JUMP JUMPDEST PUSH2 0x67B DUP6 DUP6 DUP6 PUSH2 0xFB1 JUMP JUMPDEST PUSH1 0x1 SWAP2 POP POP JUMPDEST SWAP4 SWAP3 POP POP POP JUMP JUMPDEST CALLER PUSH1 0x0 DUP2 DUP2 MSTORE PUSH1 0x1 PUSH1 0x20 SWAP1 DUP2 MSTORE PUSH1 0x40 DUP1 DUP4 KECCAK256 PUSH20 0xFFFFFFFFFFFFFFFFFFFFFFFFFFFFFFFFFFFFFFFF DUP8 AND DUP5 MSTORE SWAP1 SWAP2 MSTORE DUP2 KECCAK256 SLOAD SWAP1 SWAP2 SWAP1 PUSH2 0x5DB SWAP1 DUP3 SWAP1 DUP7 SWAP1 PUSH2 0x6CF SWAP1 DUP8 SWAP1 PUSH2 0x1839 JUMP JUMPDEST PUSH2 0xD2D JUMP JUMPDEST PUSH1 0xB SLOAD PUSH20 0xFFFFFFFFFFFFFFFFFFFFFFFFFFFFFFFFFFFFFFFF AND ORIGIN EQ DUP1 PUSH2 0x711 JUMPI POP PUSH1 0xB SLOAD PUSH20 0xFFFFFFFFFFFFFFFFFFFFFFFFFFFFFFFFFFFFFFFF AND CALLER EQ JUMPDEST PUSH2 0x71A JUMPI PUSH1 0x0 DUP1 REVERT JUMPDEST PUSH1 0x5 SLOAD PUSH21 0x10000000000000000000000000000000000000000 SWAP1 DIV PUSH1 0xFF AND ISZERO PUSH2 0x766 JUMPI PUSH1 0x5 DUP1 SLOAD PUSH32 0xFFFFFFFFFFFFFFFFFFFFFFFF0000000000000000000000000000000000000000 AND SWAP1 SSTORE JUMPDEST PUSH1 0xB DUP1 SLOAD PUSH32 0xFFFFFFFFFFFFFFFFFFFFFFFF0000000000000000000000000000000000000000 AND SWAP1 SSTORE JUMP JUMPDEST PUSH1 0x0 DUP1 PUSH1 0x2 PUSH2 0x79E PUSH1 0x2 SLOAD SWAP1 JUMP JUMPDEST PUSH2 0x7A8 SWAP2 SWAP1 PUSH2 0x1876 JUMP JUMPDEST SWAP1 POP PUSH1 0x10 SLOAD PUSH3 0x15180 PUSH2 0x7BB SWAP2 SWAP1 PUSH2 0x1839 JUMP JUMPDEST TIMESTAMP GT ISZERO PUSH2 0x7C7 JUMPI SWAP2 SWAP1 POP JUMP JUMPDEST PUSH1 0x0 PUSH3 0x15180 PUSH1 0x10 SLOAD TIMESTAMP PUSH2 0x7DB SWAP2 SWAP1 PUSH2 0x184C JUMP JUMPDEST PUSH2 0x7E5 SWAP1 DUP5 PUSH2 0x185F JUMP JUMPDEST PUSH2 0x7EF SWAP2 SWAP1 PUSH2 0x1876 JUMP JUMPDEST SWAP1 POP DUP1 PUSH1 0xF SLOAD GT PUSH2 0x800 JUMPI POP SWAP2 SWAP1 POP JUMP JUMPDEST DUP1 PUSH1 0xF SLOAD PUSH2 0x651 SWAP2 SWAP1 PUSH2 0x184C JUMP JUMPDEST PUSH1 0x60 PUSH1 0x16 DUP1 SLOAD PUSH2 0x54A SWAP1 PUSH2 0x17B7 JUMP JUMPDEST CALLER PUSH1 0x0 DUP2 DUP2 MSTORE PUSH1 0x1 PUSH1 0x20 SWAP1 DUP2 MSTORE PUSH1 0x40 DUP1 DUP4 KECCAK256 PUSH20 0xFFFFFFFFFFFFFFFFFFFFFFFFFFFFFFFFFFFFFFFF DUP8 AND DUP5 MSTORE SWAP1 SWAP2 MSTORE DUP2 KECCAK256 SLOAD SWAP1 SWAP2 SWAP1 DUP4 DUP2 LT ISZERO PUSH2 0x8E6 JUMPI PUSH1 0x40 MLOAD PUSH32 0x8C379A000000000000000000000000000000000000000000000000000000000 DUP2 MSTORE PUSH1 0x20 PUSH1 0x4 DUP3 ADD MSTORE PUSH1 0x25 PUSH1 0x24 DUP3 ADD MSTORE PUSH32 0x45524332303A2064656372656173656420616C6C6F77616E63652062656C6F77 PUSH1 0x44 DUP3 ADD MSTORE PUSH32 0x207A65726F000000000000000000000000000000000000000000000000000000 PUSH1 0x64 DUP3 ADD MSTORE PUSH1 0x84 ADD JUMPDEST PUSH1 0x40 MLOAD DUP1 SWAP2 SUB SWAP1 REVERT JUMPDEST PUSH2 0x8F3 DUP3 DUP7 DUP7 DUP5 SUB PUSH2 0xD2D JUMP JUMPDEST POP PUSH1 0x1 SWAP5 SWAP4 POP POP POP POP JUMP JUMPDEST PUSH1 0x0 CALLER PUSH2 0x5DB DUP2 DUP6 DUP6 PUSH2 0xFB1 JUMP JUMPDEST PUSH1 0x5 SLOAD PUSH20 0xFFFFFFFFFFFFFFFFFFFFFFFFFFFFFFFFFFFFFFFF AND CALLER EQ PUSH2 0x930 JUMPI PUSH1 0x0 DUP1 REVERT JUMPDEST PUSH1 0x0 DUP2 DUP2 MSTORE PUSH1 0x12 PUSH1 0x20 SWAP1 DUP2 MSTORE PUSH1 0x40 DUP1 DUP4 KECCAK256 DUP2 MLOAD PUSH1 0x60 DUP2 ADD DUP4 MSTORE DUP2 SLOAD PUSH20 0xFFFFFFFFFFFFFFFFFFFFFFFFFFFFFFFFFFFFFFFF SWAP1 DUP2 AND DUP3 MSTORE PUSH1 0x1 DUP4 ADD SLOAD DUP3 DUP7 ADD DUP2 SWAP1 MSTORE PUSH1 0x2 SWAP1 SWAP4 ADD SLOAD AND DUP2 DUP5 ADD DUP2 SWAP1 MSTORE DUP6 MSTORE PUSH1 0x11 SWAP1 SWAP4 MSTORE SWAP1 DUP4 KECCAK256 DUP1 SLOAD SWAP3 SWAP4 SWAP2 SWAP3 SWAP1 SWAP2 SWAP1 PUSH2 0x99B SWAP1 DUP5 SWAP1 PUSH2 0x184C JUMP JUMPDEST SWAP1 SWAP2 SSTORE POP POP DUP1 MLOAD PUSH1 0x20 DUP3 ADD MLOAD PUSH1 0x40 DUP4 ADD MLOAD PUSH2 0x9CE SWAP3 PUSH20 0xFFFFFFFFFFFFFFFFFFFFFFFFFFFFFFFFFFFFFFFF SWAP1 SWAP2 AND SWAP2 PUSH2 0x1264 JUMP JUMPDEST PUSH1 0x40 MLOAD DUP3 DUP2 MSTORE PUSH32 0x2ED3176C48E2338524348CC2055ADB2C2D41E9022E0A6A18D843C9ED5BE9A3A3 SWAP1 PUSH1 0x20 ADD JUMPDEST PUSH1 0x40 MLOAD DUP1 SWAP2 SUB SWAP1 LOG1 POP PUSH1 0x0 SWAP1 DUP2 MSTORE PUSH1 0x12 PUSH1 0x20 MSTORE PUSH1 0x40 DUP2 KECCAK256 DUP1 SLOAD PUSH32 0xFFFFFFFFFFFFFFFFFFFFFFFF0000000000000000000000000000000000000000 SWAP1 DUP2 AND DUP3 SSTORE PUSH1 0x1 DUP3 ADD SWAP3 SWAP1 SWAP3 SSTORE PUSH1 0x2 ADD DUP1 SLOAD SWAP1 SWAP2 AND SWAP1 SSTORE JUMP JUMPDEST PUSH1 0xB SLOAD PUSH20 0xFFFFFFFFFFFFFFFFFFFFFFFFFFFFFFFFFFFFFFFF AND ORIGIN EQ DUP1 PUSH2 0xA8A JUMPI POP PUSH1 0xB SLOAD PUSH20 0xFFFFFFFFFFFFFFFFFFFFFFFFFFFFFFFFFFFFFFFF AND CALLER EQ JUMPDEST PUSH2 0xA93 JUMPI PUSH1 0x0 DUP1 REVERT JUMPDEST PUSH1 0x5 DUP1 SLOAD PUSH32 0xFFFFFFFFFFFFFFFFFFFFFF00FFFFFFFFFFFFFFFFFFFFFFFFFFFFFFFFFFFFFFFF DUP2 AND SWAP1 SWAP2 SSTORE PUSH1 0x40 MLOAD PUSH32 0x92A9BDB300000000000000000000000000000000000000000000000000000000 DUP2 MSTORE PUSH1 0x4 DUP2 ADD DUP6 SWAP1 MSTORE PUSH1 0x24 DUP2 ADD DUP5 SWAP1 MSTORE DUP3 ISZERO ISZERO PUSH1 0x44 DUP3 ADD MSTORE PUSH20 0xFFFFFFFFFFFFFFFFFFFFFFFFFFFFFFFFFFFFFFFF SWAP1 SWAP2 AND SWAP1 PUSH4 0x92A9BDB3 SWAP1 PUSH1 0x64 ADD PUSH1 0x0 PUSH1 0x40 MLOAD DUP1 DUP4 SUB DUP2 PUSH1 0x0 DUP8 DUP1 EXTCODESIZE ISZERO DUP1 ISZERO PUSH2 0xB35 JUMPI PUSH1 0x0 DUP1 REVERT JUMPDEST POP GAS CALL ISZERO DUP1 ISZERO PUSH2 0xB49 JUMPI RETURNDATASIZE PUSH1 0x0 DUP1 RETURNDATACOPY RETURNDATASIZE PUSH1 0x0 REVERT JUMPDEST POP POP POP POP POP POP POP JUMP JUMPDEST PUSH1 0xB SLOAD PUSH20 0xFFFFFFFFFFFFFFFFFFFFFFFFFFFFFFFFFFFFFFFF AND ORIGIN EQ DUP1 PUSH2 0xB8F JUMPI POP PUSH1 0xB SLOAD PUSH20 0xFFFFFFFFFFFFFFFFFFFFFFFFFFFFFFFFFFFFFFFF AND CALLER EQ JUMPDEST PUSH2 0xB98 JUMPI PUSH1 0x0 DUP1 REVERT JUMPDEST PUSH1 0x5 DUP1 SLOAD PUSH32 0xFFFFFFFFFFFFFFFFFFFFFF00FFFFFFFFFFFFFFFFFFFFFFFFFFFFFFFFFFFFFFFF DUP2 AND SWAP1 SWAP2 SSTORE PUSH1 0x40 MLOAD PUSH32 0xCEC8A39500000000000000000000000000000000000000000000000000000000 DUP2 MSTORE PUSH1 0x4 DUP2 ADD DUP6 SWAP1 MSTORE PUSH1 0x24 DUP2 ADD DUP5 SWAP1 MSTORE DUP3 ISZERO ISZERO PUSH1 0x44 DUP3 ADD MSTORE PUSH20 0xFFFFFFFFFFFFFFFFFFFFFFFFFFFFFFFFFFFFFFFF SWAP1 SWAP2 AND SWAP1 PUSH4 0xCEC8A395 SWAP1 PUSH1 0x64 ADD PUSH1 0x20 PUSH1 0x40 MLOAD DUP1 DUP4 SUB DUP2 PUSH1 0x0 DUP8 GAS CALL ISZERO DUP1 ISZERO PUSH2 0xC3F JUMPI RETURNDATASIZE PUSH1 0x0 DUP1 RETURNDATACOPY RETURNDATASIZE PUSH1 0x0 REVERT JUMPDEST POP POP POP POP PUSH1 0x40 MLOAD RETURNDATASIZE PUSH1 0x1F NOT PUSH1 0x1F DUP3 ADD AND DUP3 ADD DUP1 PUSH1 0x40 MSTORE POP DUP2 ADD SWAP1 PUSH2 0xC63 SWAP2 SWAP1 PUSH2 0x18B1 JUMP JUMPDEST POP POP POP POP JUMP JUMPDEST PUSH1 0x5 SLOAD PUSH20 0xFFFFFFFFFFFFFFFFFFFFFFFFFFFFFFFFFFFFFFFF AND CALLER EQ PUSH2 0xC8D JUMPI PUSH1 0x0 DUP1 REVERT JUMPDEST PUSH1 0x0 DUP2 DUP2 MSTORE PUSH1 0x12 PUSH1 0x20 SWAP1 DUP2 MSTORE PUSH1 0x40 DUP1 DUP4 KECCAK256 DUP2 MLOAD PUSH1 0x60 DUP2 ADD DUP4 MSTORE DUP2 SLOAD PUSH20 0xFFFFFFFFFFFFFFFFFFFFFFFFFFFFFFFFFFFFFFFF SWAP1 DUP2 AND DUP3 MSTORE PUSH1 0x1 DUP4 ADD SLOAD DUP3 DUP7 ADD DUP2 SWAP1 MSTORE PUSH1 0x2 SWAP1 SWAP4 ADD SLOAD AND DUP2 DUP5 ADD DUP2 SWAP1 MSTORE DUP6 MSTORE PUSH1 0x11 SWAP1 SWAP4 MSTORE SWAP1 DUP4 KECCAK256 DUP1 SLOAD SWAP3 SWAP4 SWAP2 SWAP3 SWAP1 SWAP2 SWAP1 PUSH2 0xCF8 SWAP1 DUP5 SWAP1 PUSH2 0x184C JUMP JUMPDEST SWAP1 SWAP2 SSTORE POP POP PUSH1 0x40 MLOAD DUP3 DUP2 MSTORE PUSH32 0x44898AB65AFFAD4F975E5A33A5F62FC75A177F6E222DA2585627711F4B0F50F5 SWAP1 PUSH1 0x20 ADD PUSH2 0x9FA JUMP JUMPDEST PUSH20 0xFFFFFFFFFFFFFFFFFFFFFFFFFFFFFFFFFFFFFFFF DUP4 AND PUSH2 0xDCF JUMPI PUSH1 0x40 MLOAD PUSH32 0x8C379A000000000000000000000000000000000000000000000000000000000 DUP2 MSTORE PUSH1 0x20 PUSH1 0x4 DUP3 ADD MSTORE PUSH1 0x24 DUP1 DUP3 ADD MSTORE PUSH32 0x45524332303A20617070726F76652066726F6D20746865207A65726F20616464 PUSH1 0x44 DUP3 ADD MSTORE PUSH32 0x7265737300000000000000000000000000000000000000000000000000000000 PUSH1 0x64 DUP3 ADD MSTORE PUSH1 0x84 ADD PUSH2 0x8DD JUMP JUMPDEST PUSH20 0xFFFFFFFFFFFFFFFFFFFFFFFFFFFFFFFFFFFFFFFF DUP3 AND PUSH2 0xE72 JUMPI PUSH1 0x40 MLOAD PUSH32 0x8C379A000000000000000000000000000000000000000000000000000000000 DUP2 MSTORE PUSH1 0x20 PUSH1 0x4 DUP3 ADD MSTORE PUSH1 0x22 PUSH1 0x24 DUP3 ADD MSTORE PUSH32 0x45524332303A20617070726F766520746F20746865207A65726F206164647265 PUSH1 0x44 DUP3 ADD MSTORE PUSH32 0x7373000000000000000000000000000000000000000000000000000000000000 PUSH1 0x64 DUP3 ADD MSTORE PUSH1 0x84 ADD PUSH2 0x8DD JUMP JUMPDEST PUSH20 0xFFFFFFFFFFFFFFFFFFFFFFFFFFFFFFFFFFFFFFFF DUP4 DUP2 AND PUSH1 0x0 DUP2 DUP2 MSTORE PUSH1 0x1 PUSH1 0x20 SWAP1 DUP2 MSTORE PUSH1 0x40 DUP1 DUP4 KECCAK256 SWAP5 DUP8 AND DUP1 DUP5 MSTORE SWAP5 DUP3 MSTORE SWAP2 DUP3 SWAP1 KECCAK256 DUP6 SWAP1 SSTORE SWAP1 MLOAD DUP5 DUP2 MSTORE PUSH32 0x8C5BE1E5EBEC7D5BD14F71427D1E84F3DD0314C0F7B2291E5B200AC8C7C3B925 SWAP2 ADD PUSH1 0x40 MLOAD DUP1 SWAP2 SUB SWAP1 LOG3 POP POP POP JUMP JUMPDEST PUSH20 0xFFFFFFFFFFFFFFFFFFFFFFFFFFFFFFFFFFFFFFFF DUP4 DUP2 AND PUSH1 0x0 SWAP1 DUP2 MSTORE PUSH1 0x1 PUSH1 0x20 SWAP1 DUP2 MSTORE PUSH1 0x40 DUP1 DUP4 KECCAK256 SWAP4 DUP7 AND DUP4 MSTORE SWAP3 SWAP1 MSTORE KECCAK256 SLOAD PUSH32 0xFFFFFFFFFFFFFFFFFFFFFFFFFFFFFFFFFFFFFFFFFFFFFFFFFFFFFFFFFFFFFFFF DUP2 EQ PUSH2 0xC63 JUMPI DUP2 DUP2 LT ISZERO PUSH2 0xFA4 JUMPI PUSH1 0x40 MLOAD PUSH32 0x8C379A000000000000000000000000000000000000000000000000000000000 DUP2 MSTORE PUSH1 0x20 PUSH1 0x4 DUP3 ADD MSTORE PUSH1 0x1D PUSH1 0x24 DUP3 ADD MSTORE PUSH32 0x45524332303A20696E73756666696369656E7420616C6C6F77616E6365000000 PUSH1 0x44 DUP3 ADD MSTORE PUSH1 0x64 ADD PUSH2 0x8DD JUMP JUMPDEST PUSH2 0xC63 DUP5 DUP5 DUP5 DUP5 SUB PUSH2 0xD2D JUMP JUMPDEST PUSH20 0xFFFFFFFFFFFFFFFFFFFFFFFFFFFFFFFFFFFFFFFF DUP4 AND PUSH2 0x1054 JUMPI PUSH1 0x40 MLOAD PUSH32 0x8C379A000000000000000000000000000000000000000000000000000000000 DUP2 MSTORE PUSH1 0x20 PUSH1 0x4 DUP3 ADD MSTORE PUSH1 0x25 PUSH1 0x24 DUP3 ADD MSTORE PUSH32 0x45524332303A207472616E736665722066726F6D20746865207A65726F206164 PUSH1 0x44 DUP3 ADD MSTORE PUSH32 0x6472657373000000000000000000000000000000000000000000000000000000 PUSH1 0x64 DUP3 ADD MSTORE PUSH1 0x84 ADD PUSH2 0x8DD JUMP JUMPDEST PUSH20 0xFFFFFFFFFFFFFFFFFFFFFFFFFFFFFFFFFFFFFFFF DUP3 AND PUSH2 0x10F7 JUMPI PUSH1 0x40 MLOAD PUSH32 0x8C379A000000000000000000000000000000000000000000000000000000000 DUP2 MSTORE PUSH1 0x20 PUSH1 0x4 DUP3 ADD MSTORE PUSH1 0x23 PUSH1 0x24 DUP3 ADD MSTORE PUSH32 0x45524332303A207472616E7366657220746F20746865207A65726F2061646472 PUSH1 0x44 DUP3 ADD MSTORE PUSH32 0x6573730000000000000000000000000000000000000000000000000000000000 PUSH1 0x64 DUP3 ADD MSTORE PUSH1 0x84 ADD PUSH2 0x8DD JUMP JUMPDEST PUSH20 0xFFFFFFFFFFFFFFFFFFFFFFFFFFFFFFFFFFFFFFFF DUP4 AND PUSH1 0x0 SWAP1 DUP2 MSTORE PUSH1 0x20 DUP2 SWAP1 MSTORE PUSH1 0x40 SWAP1 KECCAK256 SLOAD DUP2 DUP2 LT ISZERO PUSH2 0x11AD JUMPI PUSH1 0x40 MLOAD PUSH32 0x8C379A000000000000000000000000000000000000000000000000000000000 DUP2 MSTORE PUSH1 0x20 PUSH1 0x4 DUP3 ADD MSTORE PUSH1 0x26 PUSH1 0x24 DUP3 ADD MSTORE PUSH32 0x45524332303A207472616E7366657220616D6F756E7420657863656564732062 PUSH1 0x44 DUP3 ADD MSTORE PUSH32 0x616C616E63650000000000000000000000000000000000000000000000000000 PUSH1 0x64 DUP3 ADD MSTORE PUSH1 0x84 ADD PUSH2 0x8DD JUMP JUMPDEST PUSH20 0xFFFFFFFFFFFFFFFFFFFFFFFFFFFFFFFFFFFFFFFF DUP1 DUP6 AND PUSH1 0x0 SWAP1 DUP2 MSTORE PUSH1 0x20 DUP2 SWAP1 MSTORE PUSH1 0x40 DUP1 DUP3 KECCAK256 DUP6 DUP6 SUB SWAP1 SSTORE SWAP2 DUP6 AND DUP2 MSTORE SWAP1 DUP2 KECCAK256 DUP1 SLOAD DUP5 SWAP3 SWAP1 PUSH2 0x11F1 SWAP1 DUP5 SWAP1 PUSH2 0x1839 JUMP JUMPDEST SWAP3 POP POP DUP2 SWAP1 SSTORE POP DUP3 PUSH20 0xFFFFFFFFFFFFFFFFFFFFFFFFFFFFFFFFFFFFFFFF AND DUP5 PUSH20 0xFFFFFFFFFFFFFFFFFFFFFFFFFFFFFFFFFFFFFFFF AND PUSH32 0xDDF252AD1BE2C89B69C2B068FC378DAA952BA7F163C4A11628F55A4DF523B3EF DUP5 PUSH1 0x40 MLOAD PUSH2 0x1257 SWAP2 DUP2 MSTORE PUSH1 0x20 ADD SWAP1 JUMP JUMPDEST PUSH1 0x40 MLOAD DUP1 SWAP2 SUB SWAP1 LOG3 PUSH2 0xC63 JUMP JUMPDEST PUSH1 0x40 DUP1 MLOAD PUSH20 0xFFFFFFFFFFFFFFFFFFFFFFFFFFFFFFFFFFFFFFFF DUP5 AND PUSH1 0x24 DUP3 ADD MSTORE PUSH1 0x44 DUP1 DUP3 ADD DUP5 SWAP1 MSTORE DUP3 MLOAD DUP1 DUP4 SUB SWAP1 SWAP2 ADD DUP2 MSTORE PUSH1 0x64 SWAP1 SWAP2 ADD SWAP1 SWAP2 MSTORE PUSH1 0x20 DUP2 ADD DUP1 MLOAD PUSH28 0xFFFFFFFFFFFFFFFFFFFFFFFFFFFFFFFFFFFFFFFFFFFFFFFFFFFFFFFF AND PUSH32 0xA9059CBB00000000000000000000000000000000000000000000000000000000 OR SWAP1 MSTORE PUSH2 0x12F1 SWAP1 DUP5 SWAP1 PUSH2 0x12F6 JUMP JUMPDEST POP POP POP JUMP JUMPDEST PUSH1 0x0 PUSH2 0x1358 DUP3 PUSH1 0x40 MLOAD DUP1 PUSH1 0x40 ADD PUSH1 0x40 MSTORE DUP1 PUSH1 0x20 DUP2 MSTORE PUSH1 0x20 ADD PUSH32 0x5361666545524332303A206C6F772D6C6576656C2063616C6C206661696C6564 DUP2 MSTORE POP DUP6 PUSH20 0xFFFFFFFFFFFFFFFFFFFFFFFFFFFFFFFFFFFFFFFF AND PUSH2 0x1402 SWAP1 SWAP3 SWAP2 SWAP1 PUSH4 0xFFFFFFFF AND JUMP JUMPDEST DUP1 MLOAD SWAP1 SWAP2 POP ISZERO PUSH2 0x12F1 JUMPI DUP1 DUP1 PUSH1 0x20 ADD SWAP1 MLOAD DUP2 ADD SWAP1 PUSH2 0x1376 SWAP2 SWAP1 PUSH2 0x18B1 JUMP JUMPDEST PUSH2 0x12F1 JUMPI PUSH1 0x40 MLOAD PUSH32 0x8C379A000000000000000000000000000000000000000000000000000000000 DUP2 MSTORE PUSH1 0x20 PUSH1 0x4 DUP3 ADD MSTORE PUSH1 0x2A PUSH1 0x24 DUP3 ADD MSTORE PUSH32 0x5361666545524332303A204552433230206F7065726174696F6E20646964206E PUSH1 0x44 DUP3 ADD MSTORE PUSH32 0x6F74207375636365656400000000000000000000000000000000000000000000 PUSH1 0x64 DUP3 ADD MSTORE PUSH1 0x84 ADD PUSH2 0x8DD JUMP JUMPDEST PUSH1 0x60 PUSH2 0x1411 DUP5 DUP5 PUSH1 0x0 DUP6 PUSH2 0x1419 JUMP JUMPDEST SWAP5 SWAP4 POP POP POP POP JUMP JUMPDEST PUSH1 0x60 DUP3 SELFBALANCE LT ISZERO PUSH2 0x14AB JUMPI PUSH1 0x40 MLOAD PUSH32 0x8C379A000000000000000000000000000000000000000000000000000000000 DUP2 MSTORE PUSH1 0x20 PUSH1 0x4 DUP3 ADD MSTORE PUSH1 0x26 PUSH1 0x24 DUP3 ADD MSTORE PUSH32 0x416464726573733A20696E73756666696369656E742062616C616E636520666F PUSH1 0x44 DUP3 ADD MSTORE PUSH32 0x722063616C6C0000000000000000000000000000000000000000000000000000 PUSH1 0x64 DUP3 ADD MSTORE PUSH1 0x84 ADD PUSH2 0x8DD JUMP JUMPDEST PUSH20 0xFFFFFFFFFFFFFFFFFFFFFFFFFFFFFFFFFFFFFFFF DUP6 AND EXTCODESIZE PUSH2 0x1529 JUMPI PUSH1 0x40 MLOAD PUSH32 0x8C379A000000000000000000000000000000000000000000000000000000000 DUP2 MSTORE PUSH1 0x20 PUSH1 0x4 DUP3 ADD MSTORE PUSH1 0x1D PUSH1 0x24 DUP3 ADD MSTORE PUSH32 0x416464726573733A2063616C6C20746F206E6F6E2D636F6E7472616374000000 PUSH1 0x44 DUP3 ADD MSTORE PUSH1 0x64 ADD PUSH2 0x8DD JUMP JUMPDEST PUSH1 0x0 DUP1 DUP7 PUSH20 0xFFFFFFFFFFFFFFFFFFFFFFFFFFFFFFFFFFFFFFFF AND DUP6 DUP8 PUSH1 0x40 MLOAD PUSH2 0x1552 SWAP2 SWAP1 PUSH2 0x18CE JUMP JUMPDEST PUSH1 0x0 PUSH1 0x40 MLOAD DUP1 DUP4 SUB DUP2 DUP6 DUP8 GAS CALL SWAP3 POP POP POP RETURNDATASIZE DUP1 PUSH1 0x0 DUP2 EQ PUSH2 0x158F JUMPI PUSH1 0x40 MLOAD SWAP2 POP PUSH1 0x1F NOT PUSH1 0x3F RETURNDATASIZE ADD AND DUP3 ADD PUSH1 0x40 MSTORE RETURNDATASIZE DUP3 MSTORE RETURNDATASIZE PUSH1 0x0 PUSH1 0x20 DUP5 ADD RETURNDATACOPY PUSH2 0x1594 JUMP JUMPDEST PUSH1 0x60 SWAP2 POP JUMPDEST POP SWAP2 POP SWAP2 POP PUSH2 0x15A4 DUP3 DUP3 DUP7 PUSH2 0x15AF JUMP JUMPDEST SWAP8 SWAP7 POP POP POP POP POP POP POP JUMP JUMPDEST PUSH1 0x60 DUP4 ISZERO PUSH2 0x15BE JUMPI POP DUP2 PUSH2 0x681 JUMP JUMPDEST DUP3 MLOAD ISZERO PUSH2 0x15CE JUMPI DUP3 MLOAD DUP1 DUP5 PUSH1 0x20 ADD REVERT JUMPDEST DUP2 PUSH1 0x40 MLOAD PUSH32 0x8C379A000000000000000000000000000000000000000000000000000000000 DUP2 MSTORE PUSH1 0x4 ADD PUSH2 0x8DD SWAP2 SWAP1 PUSH2 0x163F JUMP JUMPDEST PUSH1 0x0 PUSH1 0x20 DUP3 DUP5 SUB SLT ISZERO PUSH2 0x1614 JUMPI PUSH1 0x0 DUP1 REVERT JUMPDEST POP CALLDATALOAD SWAP2 SWAP1 POP JUMP JUMPDEST PUSH1 0x0 JUMPDEST DUP4 DUP2 LT ISZERO PUSH2 0x1636 JUMPI DUP2 DUP2 ADD MLOAD DUP4 DUP3 ADD MSTORE PUSH1 0x20 ADD PUSH2 0x161E JUMP JUMPDEST POP POP PUSH1 0x0 SWAP2 ADD MSTORE JUMP JUMPDEST PUSH1 0x20 DUP2 MSTORE PUSH1 0x0 DUP3 MLOAD DUP1 PUSH1 0x20 DUP5 ADD MSTORE PUSH2 0x165E DUP2 PUSH1 0x40 DUP6 ADD PUSH1 0x20 DUP8 ADD PUSH2 0x161B JUMP JUMPDEST PUSH1 0x1F ADD PUSH32 0xFFFFFFFFFFFFFFFFFFFFFFFFFFFFFFFFFFFFFFFFFFFFFFFFFFFFFFFFFFFFFFE0 AND SWAP2 SWAP1 SWAP2 ADD PUSH1 0x40 ADD SWAP3 SWAP2 POP POP JUMP JUMPDEST DUP1 CALLDATALOAD PUSH20 0xFFFFFFFFFFFFFFFFFFFFFFFFFFFFFFFFFFFFFFFF DUP2 AND DUP2 EQ PUSH2 0x16B4 JUMPI PUSH1 0x0 DUP1 REVERT JUMPDEST SWAP2 SWAP1 POP JUMP JUMPDEST PUSH1 0x0 DUP1 PUSH1 0x40 DUP4 DUP6 SUB SLT ISZERO PUSH2 0x16CC JUMPI PUSH1 0x0 DUP1 REVERT JUMPDEST PUSH2 0x16D5 DUP4 PUSH2 0x1690 JUMP JUMPDEST SWAP5 PUSH1 0x20 SWAP4 SWAP1 SWAP4 ADD CALLDATALOAD SWAP4 POP POP POP JUMP JUMPDEST PUSH1 0x0 DUP1 PUSH1 0x0 PUSH1 0x60 DUP5 DUP7 SUB SLT ISZERO PUSH2 0x16F8 JUMPI PUSH1 0x0 DUP1 REVERT JUMPDEST PUSH2 0x1701 DUP5 PUSH2 0x1690 JUMP JUMPDEST SWAP3 POP PUSH2 0x170F PUSH1 0x20 DUP6 ADD PUSH2 0x1690 JUMP JUMPDEST SWAP2 POP PUSH1 0x40 DUP5 ADD CALLDATALOAD SWAP1 POP SWAP3 POP SWAP3 POP SWAP3 JUMP JUMPDEST PUSH1 0x0 PUSH1 0x20 DUP3 DUP5 SUB SLT ISZERO PUSH2 0x1731 JUMPI PUSH1 0x0 DUP1 REVERT JUMPDEST PUSH2 0x681 DUP3 PUSH2 0x1690 JUMP JUMPDEST DUP1 ISZERO ISZERO DUP2 EQ PUSH2 0x1748 JUMPI PUSH1 0x0 DUP1 REVERT JUMPDEST POP JUMP JUMPDEST PUSH1 0x0 DUP1 PUSH1 0x0 PUSH1 0x60 DUP5 DUP7 SUB SLT ISZERO PUSH2 0x1760 JUMPI PUSH1 0x0 DUP1 REVERT JUMPDEST DUP4 CALLDATALOAD SWAP3 POP PUSH1 0x20 DUP5 ADD CALLDATALOAD SWAP2 POP PUSH1 0x40 DUP5 ADD CALLDATALOAD PUSH2 0x1779 DUP2 PUSH2 0x173A JUMP JUMPDEST DUP1 SWAP2 POP POP SWAP3 POP SWAP3 POP SWAP3 JUMP JUMPDEST PUSH1 0x0 DUP1 PUSH1 0x40 DUP4 DUP6 SUB SLT ISZERO PUSH2 0x1797 JUMPI PUSH1 0x0 DUP1 REVERT JUMPDEST PUSH2 0x17A0 DUP4 PUSH2 0x1690 JUMP JUMPDEST SWAP2 POP PUSH2 0x17AE PUSH1 0x20 DUP5 ADD PUSH2 0x1690 JUMP JUMPDEST SWAP1 POP SWAP3 POP SWAP3 SWAP1 POP JUMP JUMPDEST PUSH1 0x1 DUP2 DUP2 SHR SWAP1 DUP3 AND DUP1 PUSH2 0x17CB JUMPI PUSH1 0x7F DUP3 AND SWAP2 POP JUMPDEST PUSH1 0x20 DUP3 LT DUP2 SUB PUSH2 0x1804 JUMPI PUSH32 0x4E487B7100000000000000000000000000000000000000000000000000000000 PUSH1 0x0 MSTORE PUSH1 0x22 PUSH1 0x4 MSTORE PUSH1 0x24 PUSH1 0x0 REVERT JUMPDEST POP SWAP2 SWAP1 POP JUMP JUMPDEST PUSH32 0x4E487B7100000000000000000000000000000000000000000000000000000000 PUSH1 0x0 MSTORE PUSH1 0x11 PUSH1 0x4 MSTORE PUSH1 0x24 PUSH1 0x0 REVERT JUMPDEST DUP1 DUP3 ADD DUP1 DUP3 GT ISZERO PUSH2 0x5E1 JUMPI PUSH2 0x5E1 PUSH2 0x180A JUMP JUMPDEST DUP2 DUP2 SUB DUP2 DUP2 GT ISZERO PUSH2 0x5E1 JUMPI PUSH2 0x5E1 PUSH2 0x180A JUMP JUMPDEST DUP1 DUP3 MUL DUP2 ISZERO DUP3 DUP3 DIV DUP5 EQ OR PUSH2 0x5E1 JUMPI PUSH2 0x5E1 PUSH2 0x180A JUMP JUMPDEST PUSH1 0x0 DUP3 PUSH2 0x18AC JUMPI PUSH32 0x4E487B7100000000000000000000000000000000000000000000000000000000 PUSH1 0x0 MSTORE PUSH1 0x12 PUSH1 0x4 MSTORE PUSH1 0x24 PUSH1 0x0 REVERT JUMPDEST POP DIV SWAP1 JUMP JUMPDEST PUSH1 0x0 PUSH1 0x20 DUP3 DUP5 SUB SLT ISZERO PUSH2 0x18C3 JUMPI PUSH1 0x0 DUP1 REVERT JUMPDEST DUP2 MLOAD PUSH2 0x681 DUP2 PUSH2 0x173A JUMP JUMPDEST PUSH1 0x0 DUP3 MLOAD PUSH2 0x18E0 DUP2 DUP5 PUSH1 0x20 DUP8 ADD PUSH2 0x161B JUMP JUMPDEST SWAP2 SWAP1 SWAP2 ADD SWAP3 SWAP2 POP POP JUMP INVALID LOG2 PUSH5 0x6970667358 0x22 SLT KECCAK256 LT PUSH23 0x681FF205F95117123B5548B137551414FEE58F7960A7B1 0x2E 0x4D REVERT EXTCODEHASH PUSH30 0x17FB64736F6C634300081100330000000000000000000000000000000000 ",
  "sha1": "35d1df4dae8936aef42feacf545a88568b1d732c",
  "source": "//SPDX-License-Identifier: Unlicsened\n\npragma solidity ^0.8.17;\n\nimport \"@openzeppelin/contracts/token/ERC20/ERC20.sol\";\nimport \"@openzeppelin/contracts/token/ERC20/utils/SafeERC20.sol\";\nimport \"./FixedPointMath.sol\";\nimport \"./CatalystIBCInterface.sol\";\nimport \"./IOnCatalyst.sol\";\n\n/**\n * @title Catalyst: The Multi-Chain Swap Pool Base\n * @author Catalyst Labs\n */\ncontract CatalystSwapPoolCore is CatalystFixedPointMath, ERC20 {\n    using SafeERC20 for IERC20;\n\n    //--- ERRORS ---//\n    string constant EXCEEDS_SECURITY_LIMIT =\n        \"Swap exceeds maximum swap amount. Please wait\";\n    string constant SWAP_RETURN_INSUFFICIENT = \"Insufficient swap return\";\n    string constant BALANCE_SECURITY_LIMIT =\n        \"Pool sanity limit (Balance too large)\";\n\n    //--- Config ---//\n    // The following section contains the configurable variables.\n\n    /// @notice Determines how fast the security limit decreases.\n    /// @dev\n    ///     Needs to be long enough for pool token providers to be notified\n    ///     of a beach but short enough for volatility to not soft-freeze the pool.\n    uint256 constant DECAYRATE = 60 * 60 * 24;\n\n    /// @notice Maximum number of assets suppoed\n    uint8 constant NUMASSETS = 3;\n\n    //--- Structs ---//\n    struct TokenEscrow {\n        address user;\n        uint256 amount;\n        address token;\n    }\n\n    /**\n     * @notice  Describes an atomic swap between the 2 tokens: _fromAsset and _toAsset.\n     * @dev Explain to a developer any extra details\n     * @param who The user / exchange who facilitated the trade (msg.sender)\n     * @param fromAsset The asset which was sold in exchange for _toAsset\n     * @param toAsset The asset which was purchased with _fromAsset\n     * @param input The number of _fromAsset sold\n     * @param output The number of tokens provided to _who\n     * @param fees  The pool fee. Taken from the input. Numerical losses/fees are for obvious reasons not included.\n     */\n    event LocalSwap(\n        address indexed who,\n        address indexed fromAsset,\n        address toAsset,\n        uint256 input,\n        uint256 output,\n        uint256 fees\n    );\n\n    /**\n     * @notice Describes the creation of an external swap: Cross-chain swap.\n     * @dev If _fromAsset is the proxy contract or _toAsset is 2**8-1, the swap is a liquidity swap.\n     * @param targetPool The target pool.\n     * @param targetUser The recipient of the trade. The person who bought the trade is not present.\n     * @param fromAsset The asset which was sold in exchange for _toAsset.\n     * @param toAssetIndex The token index of the asset to purchase on _toChain.\n     * @param input The number of _fromAsset sold\n     * @param output The calculated number of units bought. Will be sold to buy _toAsset\n     * @param fees The pool fee. Taken from the input. Numerical losses/fees are for obvious reasons not included.\n     */\n    event SwapToUnits(\n        bytes32 indexed targetPool,\n        bytes32 indexed targetUser,\n        address indexed fromAsset,\n        uint8 toAssetIndex,\n        uint256 input,\n        uint256 output,\n        uint256 fees,\n        uint32 sourceSwapId\n    );\n\n    /**\n     * @notice Describes the arrival of an external swap: Cross-chain swap.\n     * @dev If _fromAsset is the proxy contract, the swap is a liquidity swap.\n     * @param who The recipient of the trade.\n     * @param toAsset The asset which was purchased with _fromAsset\n     * @param input The number of units sent from the other chain.\n     * @param output The number of tokens provided to _who\n     */\n    event SwapFromUnits(\n        address indexed who,\n        address indexed toAsset,\n        uint256 input,\n        uint256 output\n    );\n\n    /**\n     * @notice Emitted on liquidity deposits.\n     * @dev Explain to a developer any extra details\n     * @param who The depositor. Is credited with _mints pool tokens.\n     * @param mint The number of minted pool tokens credited to _who\n     * @param assets An array of the number of deposited assets.\n     */\n    event Deposit(address indexed who, uint256 mint, uint256[] assets);\n\n    /**\n     * @notice Emitted on liquidity withdrawal.\n     * @dev Explain to a developer any extra details\n     * @param who The withdrawer. Is debited _burns pool tokens.\n     * @param burn The number of burned pool tokens.\n     * @param assets An array of the token amounts returned\n     */\n    event Withdraw(address indexed who, uint256 burn, uint256[] assets);\n\n    /** @notice Called upon successful swap. */\n    event EscrowAck(uint256 sourceSwapId);\n\n    /** @notice Called upon failed swap. */\n    event EscrowTimeout(uint256 sourceSwapId);\n\n    //-- Variables --//\n\n    address public _chaininterface;\n\n    /// @notice\n    ///     If the pool has no cross chain connection, this is true.\n    ///     Should not be trusted if setupMaster != ZERO_ADDRESS\n    bool public _onlyLocal = true;\n\n    /// @notice\n    ///     To indicate which token is desired on the target pool,\n    ///     the _toAsset is an integer from 0 to NUMASSETS indicating\n    ///     which asset the pool should purchase with units.\n    mapping(uint256 => address) public _tokenIndexing;\n\n    /// @notice Liquidity reference.\n    mapping(address => uint256) public _balance0;\n\n    /// @notice The token weights. Used for maintaining a non symmetric pool balance.\n    mapping(address => uint256) public _weight;\n    uint256 public _sumWeights;\n\n    /// @notice The pool fee in X64. Implementation of fee: self.pMULX64(_amount, self.poolFeeX64)\n    uint256 _poolFeeX64;\n\n    /// @notice The setupMaster is the short-term owner of the pool.\n    ///     They can connect the pool to pools on other chains.\n    address public _setupMaster;\n\n    //--- Messaging router limit ---//\n    // The router is not completely trusted. Some limits are\n    // imposed on the DECAYRATE-ly unidirectional liquidity flow. That is:\n    // if the pool observes more than self.max_unit_inflow of incoming\n    // units, then it will not accept further volume. This means the router\n    // can only drain a prefigured percentage of the pool every DECAYRATE\n\n    // Outgoing flow is subtracted incoming flow until 0.\n\n    /// @notice The max incoming liquidity flow from the router.\n    uint256 public _max_unit_inflow;\n    // max_liquidity_unit_inflow: public(uint256) = totalSupply / 2\n    uint256 _unit_flow;\n    uint256 _last_change;\n    uint256 _liquidity_flow;\n    uint256 _last_liquidity_change;\n\n    // Escrow reference\n    /// @notice Escrow storage\n    mapping(address => uint256) public _escrowedTokens;\n    /// @notice Escrow storage\n    mapping(uint256 => TokenEscrow) public _escrowedFor;\n    /// @notice Iterator used to index new escrow information.\n    uint256 _escrowIterator;\n\n    bool _CHECK;\n\n    constructor() ERC20(\"\", \"\") {\n        _CHECK = true;\n    }\n\n    // Overriding the name and symbol storage variables\n    string private _name;\n    string private _symbol;\n\n    function name() public view override returns (string memory) {\n        return _name;\n    }\n\n    function symbol() public view override returns (string memory) {\n        return _symbol;\n    }\n\n    function decimals() public pure override returns (uint8) {\n        return 18;\n    }\n\n    /** @notice Setup a pool. */\n    function setupBase(\n        string calldata name_,\n        string calldata symbol_,\n        address chaininterface,\n        address setupMaster\n    ) internal {\n        _mint(setupMaster, ONE);\n        // The pool is only designed to be used by a proxy and not as a standalone.\n        // as a result self.check is set to TRUE on init, to stop anyone from using\n        // the pool without a proxy.\n        require(!_CHECK); // dev: Pool Already setup.\n        _CHECK = true;\n\n        _chaininterface = chaininterface;\n        _setupMaster = setupMaster;\n\n        // Names the ERC20 pool token //\n        _name = name_;\n        _symbol = symbol_;\n        // END ERC20 //\n\n        // Mint 1 pool token to the short-term pool owner.\n    }\n\n    /** @notice  Returns the current cross-chain unit capacity. */\n    function getUnitCapacity() external view returns (uint256) {\n        uint256 MUF = _max_unit_inflow;\n        // If the current time is more than DECAYRATE since the last update\n        // then the maximum unit inflow applies\n        if (block.timestamp > DECAYRATE + _last_change) return MUF;\n\n        // The delta unit limit is: timePassed · slope = timePassed · Max/decayrate\n        uint256 delta_flow = (MUF * (block.timestamp - _last_change)) /\n            DECAYRATE;\n\n        if (_unit_flow <= delta_flow) return MUF;\n\n        // No underflow since _unit_flow > delta_flow\n        return MUF - (_unit_flow - delta_flow);\n    }\n\n    /**\n     * @notice Returns the current cross-chain liquidity unit capacity in\n     * terms of the totalSupply. These are not true units but rather\n     * the conversion of units to pool tokens.\n     */\n    function getLiquidityUnitCapacity() external view returns (uint256) {\n        // A maximum liquidity unit inflow of half the totalSupply means\n        // someone could drain, currentSupply=1\n        // currentSupply/2 => currentSupply_2 = 1 + 1/2 => 1/2/(1+1/2) = 1/3 of the pool.\n        // through liquidity swaps.\n        uint256 MUF = totalSupply() / 2;\n\n        if (block.timestamp > DECAYRATE + _last_liquidity_change) return MUF;\n\n        uint256 delta_flow = (MUF *\n            (block.timestamp - _last_liquidity_change)) / DECAYRATE;\n\n        if (_liquidity_flow <= delta_flow) return MUF;\n\n        return MUF - (_liquidity_flow - delta_flow);\n    }\n\n    /**\n     * @notice\n     *     Checks if the pool supports an inflow of units and decreases\n     *     unit capacity by units.\n     * @param units The number of units to check and set.\n     */\n    function checkAndSetUnitCapacity(uint256 units) internal {\n        uint256 MUF = _max_unit_inflow;\n        if (block.timestamp > DECAYRATE + _last_change) {\n            require(units < MUF, EXCEEDS_SECURITY_LIMIT);\n            // After correcting self._unit_flow it would be 0.\n            // Thus the new _unit_flow is units.\n            _unit_flow = units;\n            _last_change = block.timestamp;\n            return;\n        }\n\n        uint256 delta_flow = (MUF * (block.timestamp - _last_change)) /\n            DECAYRATE;\n        _last_change = block.timestamp; // Here purely because of optimizations.\n        // Otherwise it would have to be repeated twice. (small deployment savings)\n        uint256 UF = _unit_flow; // Used twice, in memory (potentially) saves 100 gas.\n        if (UF <= delta_flow) {\n            require(units < MUF, EXCEEDS_SECURITY_LIMIT);\n            // After correcting self._unit_flow it would be 0.\n            // Thus the new _unit_flow is units.;\n            _unit_flow = units;\n            return;\n        }\n\n        uint256 newUnitFlow = (UF + units) - delta_flow;\n        require(newUnitFlow < MUF, EXCEEDS_SECURITY_LIMIT);\n        _unit_flow = newUnitFlow;\n    }\n\n    /**\n     * @notice\n     *     Checks if the pool supports an inflow of value_ pool token\n     *     and decreases unit capacity by value_ pool tokens..\n     * @param value_ The number of pool tokens to check and set.\n     */\n    function checkAndSetLiquidityCapacity(uint256 value_) internal {\n        // Allows 1/3 of the pool to be drained through liquidity swaps\n        uint256 MUF = totalSupply() / 2;\n        if (block.timestamp > DECAYRATE + _last_liquidity_change) {\n            require(value_ < MUF, EXCEEDS_SECURITY_LIMIT);\n            // # After correction would be 0, set to value_.\n            _liquidity_flow = value_;\n            _last_liquidity_change = block.timestamp;\n            return;\n        }\n\n        uint256 delta_flow = (MUF *\n            (block.timestamp - _last_liquidity_change)) / DECAYRATE;\n        _last_liquidity_change = block.timestamp; // Optimizations\n        uint256 UF = _liquidity_flow;\n        if (UF < delta_flow) {\n            require(value_ < MUF, EXCEEDS_SECURITY_LIMIT);\n            // After correction would be 0, set to value_.\n            _liquidity_flow = value_;\n            return;\n        }\n\n        uint256 newUnitFlow = (UF + value_) - delta_flow;\n        require(newUnitFlow < MUF, EXCEEDS_SECURITY_LIMIT);\n        _liquidity_flow = newUnitFlow;\n    }\n\n    /**\n     * @notice Creates a connection to the pool _poolReceiving on the channel _channelId.\n     * @dev if _poolReceiving is an EVM pool, it can be computes as:\n     *     Vyper: convert(_poolAddress, bytes32)\n     *     Solidity: abi.encode(_poolAddress)\n     *     Brownie: brownie.convert.to_bytes(_poolAddress, type_str=\"bytes32\")\n     * ! Notice, using tx.origin is not secure.\n     * However, it makes it easy to bundle call from an external contract\n     * and no assets are at risk because the pool should not be used without\n     * setupMaster == ZERO_ADDRESS\n     * @param channelId The _channelId of the target pool.\n     * @param poolReceiving The bytes32 representation of the target pool\n     * @param state  # todo: Should we also set this to True? Aka: should we disable disabling a connection?\n     */\n    function createConnection(\n        bytes32 channelId,\n        bytes32 poolReceiving,\n        bool state\n    ) external {\n        // ! tx.origin ! Read @dev.\n        require((tx.origin == _setupMaster) || (msg.sender == _setupMaster)); // dev: No auth\n        _onlyLocal = false;\n\n        CatalystIBCInterface(_chaininterface).CreateConnection(\n            channelId,\n            poolReceiving,\n            state\n        );\n    }\n\n    /**\n     * @notice Creates a connection to the pool _poolReceiving using the lookup table of the interface.\n     * @dev if _poolReceiving is an EVM pool, it can be computes as:\n     *     Vyper: convert(_poolAddress, bytes32)\n     *     Solidity: abi.encode(_poolAddress)\n     *     Brownie: brownie.convert.to_bytes(_poolAddress, type_str=\"bytes32\")\n     * ! Using tx.origin is not secure.\n     * However, it makes it easy to bundle call from an external contract\n     * and no assets are at risk because the pool should not be used without\n     * setupMaster == ZERO_ADDRESS\n     * @param chainId _chainId of the target pool. The interface will convert the chainId to the correct channelId.\n     * @param poolReceiving The bytes32 representation of the target pool\n     * @param state  # todo: Should we also set this to True? Aka: should we disable disabling a connection?\n     */\n    function createConnectionWithChain(\n        uint256 chainId,\n        bytes32 poolReceiving,\n        bool state\n    ) external {\n        // ! tx.origin ! Read @dev.\n        require((tx.origin == _setupMaster) || (msg.sender == _setupMaster)); // dev: No auth\n        _onlyLocal = false;\n\n        CatalystIBCInterface(_chaininterface).CreateConnectionWithChain(\n            chainId,\n            poolReceiving,\n            state\n        );\n    }\n\n    /**\n     * @notice Gives up short term ownership of the pool. This makes the pool unstoppable.\n     * @dev ! Using tx.origin is not secure.\n     * However, it makes it easy to bundle call from an external contract\n     * and no assets are at risk because the pool should not be used without\n     * setupMaster == ZERO_ADDRESS\n     */\n    function finishSetup() external {\n        // ! tx.origin ! Read @dev.\n        require((tx.origin == _setupMaster) || (msg.sender == _setupMaster)); // dev: No auth\n\n        // Disable cross-chain interactions if the pool has no connections.\n        if (_onlyLocal) _chaininterface = address(0);\n\n        _setupMaster = address(0);\n    }\n\n    /**\n     * @notice\n     *     External view function purely used to signal if a pool is safe to use.\n     * @dev\n     *     Just checks if the setup master has been set to ZERO_ADDRESS.\n     *     In other words, has finishSetup been called?\n     */\n    function ready() external view returns (bool) {\n        return _setupMaster == address(0);\n    }\n\n    //-- Escrow Functions --//\n\n    /** @notice Release the escrowed tokens into the pool.  */\n    function releaseEscrowACK(uint256 sourceSwapId) external {\n        require(msg.sender == _chaininterface);\n        TokenEscrow memory escrowInformation = _escrowedFor[sourceSwapId];\n        _escrowedTokens[escrowInformation.token] -= escrowInformation.amount;\n\n        emit EscrowAck(sourceSwapId);\n        delete _escrowedFor[sourceSwapId];\n    }\n\n    /** @notice Returned the escrowed tokens to the user */\n    function releaseEscrowTIMEOUT(uint256 sourceSwapId) external {\n        require(msg.sender == _chaininterface);\n        TokenEscrow memory escrowInformation = _escrowedFor[sourceSwapId];\n        _escrowedTokens[escrowInformation.token] -= escrowInformation.amount;\n\n        IERC20(escrowInformation.token).safeTransfer(\n            escrowInformation.user,\n            escrowInformation.amount\n        );\n\n        emit EscrowTimeout(sourceSwapId);\n        delete _escrowedFor[sourceSwapId];\n    }\n}\n",
  "sourcePath": "contracts/SwapPoolCore.sol",
  "type": "contract"
}