{
  "abi": [
    {
      "anonymous": false,
      "inputs": [
        {
          "indexed": true,
          "internalType": "address",
          "name": "owner",
          "type": "address"
        },
        {
          "indexed": true,
          "internalType": "address",
          "name": "spender",
          "type": "address"
        },
        {
          "indexed": false,
          "internalType": "uint256",
          "name": "value",
          "type": "uint256"
        }
      ],
      "name": "Approval",
      "type": "event"
    },
    {
      "anonymous": false,
      "inputs": [
        {
          "indexed": true,
          "internalType": "address",
          "name": "who",
          "type": "address"
        },
        {
          "indexed": false,
          "internalType": "uint256",
          "name": "mint",
          "type": "uint256"
        },
        {
          "indexed": false,
          "internalType": "uint256[]",
          "name": "assets",
          "type": "uint256[]"
        }
      ],
      "name": "Deposit",
      "type": "event"
    },
    {
      "anonymous": false,
      "inputs": [
        {
          "indexed": false,
          "internalType": "uint256",
          "name": "sourceSwapId",
          "type": "uint256"
        }
      ],
      "name": "EscrowAck",
      "type": "event"
    },
    {
      "anonymous": false,
      "inputs": [
        {
          "indexed": false,
          "internalType": "uint256",
          "name": "sourceSwapId",
          "type": "uint256"
        }
      ],
      "name": "EscrowTimeout",
      "type": "event"
    },
    {
      "anonymous": false,
      "inputs": [
        {
          "indexed": true,
          "internalType": "address",
          "name": "who",
          "type": "address"
        },
        {
          "indexed": true,
          "internalType": "address",
          "name": "fromAsset",
          "type": "address"
        },
        {
          "indexed": false,
          "internalType": "address",
          "name": "toAsset",
          "type": "address"
        },
        {
          "indexed": false,
          "internalType": "uint256",
          "name": "input",
          "type": "uint256"
        },
        {
          "indexed": false,
          "internalType": "uint256",
          "name": "output",
          "type": "uint256"
        },
        {
          "indexed": false,
          "internalType": "uint256",
          "name": "fees",
          "type": "uint256"
        }
      ],
      "name": "LocalSwap",
      "type": "event"
    },
    {
      "anonymous": false,
      "inputs": [
        {
          "indexed": true,
          "internalType": "address",
          "name": "who",
          "type": "address"
        },
        {
          "indexed": true,
          "internalType": "address",
          "name": "toAsset",
          "type": "address"
        },
        {
          "indexed": false,
          "internalType": "uint256",
          "name": "input",
          "type": "uint256"
        },
        {
          "indexed": false,
          "internalType": "uint256",
          "name": "output",
          "type": "uint256"
        }
      ],
      "name": "SwapFromUnits",
      "type": "event"
    },
    {
      "anonymous": false,
      "inputs": [
        {
          "indexed": true,
          "internalType": "bytes32",
          "name": "targetPool",
          "type": "bytes32"
        },
        {
          "indexed": true,
          "internalType": "bytes32",
          "name": "targetUser",
          "type": "bytes32"
        },
        {
          "indexed": true,
          "internalType": "address",
          "name": "fromAsset",
          "type": "address"
        },
        {
          "indexed": false,
          "internalType": "uint8",
          "name": "toAssetIndex",
          "type": "uint8"
        },
        {
          "indexed": false,
          "internalType": "uint256",
          "name": "input",
          "type": "uint256"
        },
        {
          "indexed": false,
          "internalType": "uint256",
          "name": "output",
          "type": "uint256"
        },
        {
          "indexed": false,
          "internalType": "uint256",
          "name": "fees",
          "type": "uint256"
        },
        {
          "indexed": false,
          "internalType": "uint32",
          "name": "sourceSwapId",
          "type": "uint32"
        }
      ],
      "name": "SwapToUnits",
      "type": "event"
    },
    {
      "anonymous": false,
      "inputs": [
        {
          "indexed": true,
          "internalType": "address",
          "name": "from",
          "type": "address"
        },
        {
          "indexed": true,
          "internalType": "address",
          "name": "to",
          "type": "address"
        },
        {
          "indexed": false,
          "internalType": "uint256",
          "name": "value",
          "type": "uint256"
        }
      ],
      "name": "Transfer",
      "type": "event"
    },
    {
      "anonymous": false,
      "inputs": [
        {
          "indexed": true,
          "internalType": "address",
          "name": "who",
          "type": "address"
        },
        {
          "indexed": false,
          "internalType": "uint256",
          "name": "burn",
          "type": "uint256"
        },
        {
          "indexed": false,
          "internalType": "uint256[]",
          "name": "assets",
          "type": "uint256[]"
        }
      ],
      "name": "Withdraw",
      "type": "event"
    },
    {
      "inputs": [],
      "name": "_amp",
      "outputs": [
        {
          "internalType": "uint256",
          "name": "",
          "type": "uint256"
        }
      ],
      "stateMutability": "view",
      "type": "function"
    },
    {
      "inputs": [
        {
          "internalType": "address",
          "name": "",
          "type": "address"
        }
      ],
      "name": "_balance0",
      "outputs": [
        {
          "internalType": "uint256",
          "name": "",
          "type": "uint256"
        }
      ],
      "stateMutability": "view",
      "type": "function"
    },
    {
      "inputs": [],
      "name": "_chaininterface",
      "outputs": [
        {
          "internalType": "address",
          "name": "",
          "type": "address"
        }
      ],
      "stateMutability": "view",
      "type": "function"
    },
    {
      "inputs": [
        {
          "internalType": "uint256",
          "name": "",
          "type": "uint256"
        }
      ],
      "name": "_escrowedFor",
      "outputs": [
        {
          "internalType": "address",
          "name": "user",
          "type": "address"
        },
        {
          "internalType": "uint256",
          "name": "amount",
          "type": "uint256"
        },
        {
          "internalType": "address",
          "name": "token",
          "type": "address"
        }
      ],
      "stateMutability": "view",
      "type": "function"
    },
    {
      "inputs": [
        {
          "internalType": "address",
          "name": "",
          "type": "address"
        }
      ],
      "name": "_escrowedTokens",
      "outputs": [
        {
          "internalType": "uint256",
          "name": "",
          "type": "uint256"
        }
      ],
      "stateMutability": "view",
      "type": "function"
    },
    {
      "inputs": [],
      "name": "_max_unit_inflow",
      "outputs": [
        {
          "internalType": "uint256",
          "name": "",
          "type": "uint256"
        }
      ],
      "stateMutability": "view",
      "type": "function"
    },
    {
      "inputs": [],
      "name": "_onlyLocal",
      "outputs": [
        {
          "internalType": "bool",
          "name": "",
          "type": "bool"
        }
      ],
      "stateMutability": "view",
      "type": "function"
    },
    {
      "inputs": [],
      "name": "_setupMaster",
      "outputs": [
        {
          "internalType": "address",
          "name": "",
          "type": "address"
        }
      ],
      "stateMutability": "view",
      "type": "function"
    },
    {
      "inputs": [],
      "name": "_sumWeights",
      "outputs": [
        {
          "internalType": "uint256",
          "name": "",
          "type": "uint256"
        }
      ],
      "stateMutability": "view",
      "type": "function"
    },
    {
      "inputs": [
        {
          "internalType": "uint256",
          "name": "",
          "type": "uint256"
        }
      ],
      "name": "_tokenIndexing",
      "outputs": [
        {
          "internalType": "address",
          "name": "",
          "type": "address"
        }
      ],
      "stateMutability": "view",
      "type": "function"
    },
    {
      "inputs": [],
      "name": "_unitTracker",
      "outputs": [
        {
          "internalType": "int256",
          "name": "",
          "type": "int256"
        }
      ],
      "stateMutability": "view",
      "type": "function"
    },
    {
      "inputs": [
        {
          "internalType": "address",
          "name": "",
          "type": "address"
        }
      ],
      "name": "_weight",
      "outputs": [
        {
          "internalType": "uint256",
          "name": "",
          "type": "uint256"
        }
      ],
      "stateMutability": "view",
      "type": "function"
    },
    {
      "inputs": [
        {
          "internalType": "address",
          "name": "owner",
          "type": "address"
        },
        {
          "internalType": "address",
          "name": "spender",
          "type": "address"
        }
      ],
      "name": "allowance",
      "outputs": [
        {
          "internalType": "uint256",
          "name": "",
          "type": "uint256"
        }
      ],
      "stateMutability": "view",
      "type": "function"
    },
    {
      "inputs": [
        {
          "internalType": "address",
          "name": "spender",
          "type": "address"
        },
        {
          "internalType": "uint256",
          "name": "amount",
          "type": "uint256"
        }
      ],
      "name": "approve",
      "outputs": [
        {
          "internalType": "bool",
          "name": "",
          "type": "bool"
        }
      ],
      "stateMutability": "nonpayable",
      "type": "function"
    },
    {
      "inputs": [
        {
          "internalType": "address",
          "name": "account",
          "type": "address"
        }
      ],
      "name": "balanceOf",
      "outputs": [
        {
          "internalType": "uint256",
          "name": "",
          "type": "uint256"
        }
      ],
      "stateMutability": "view",
      "type": "function"
    },
    {
      "inputs": [
        {
          "internalType": "bytes32",
          "name": "channelId",
          "type": "bytes32"
        },
        {
          "internalType": "bytes32",
          "name": "poolReceiving",
          "type": "bytes32"
        },
        {
          "internalType": "bool",
          "name": "state",
          "type": "bool"
        }
      ],
      "name": "createConnection",
      "outputs": [],
      "stateMutability": "nonpayable",
      "type": "function"
    },
    {
      "inputs": [
        {
          "internalType": "uint256",
          "name": "chainId",
          "type": "uint256"
        },
        {
          "internalType": "bytes32",
          "name": "poolReceiving",
          "type": "bytes32"
        },
        {
          "internalType": "bool",
          "name": "state",
          "type": "bool"
        }
      ],
      "name": "createConnectionWithChain",
      "outputs": [],
      "stateMutability": "nonpayable",
      "type": "function"
    },
    {
      "inputs": [],
      "name": "decimals",
      "outputs": [
        {
          "internalType": "uint8",
          "name": "",
          "type": "uint8"
        }
      ],
      "stateMutability": "pure",
      "type": "function"
    },
    {
      "inputs": [
        {
          "internalType": "address",
          "name": "spender",
          "type": "address"
        },
        {
          "internalType": "uint256",
          "name": "subtractedValue",
          "type": "uint256"
        }
      ],
      "name": "decreaseAllowance",
      "outputs": [
        {
          "internalType": "bool",
          "name": "",
          "type": "bool"
        }
      ],
      "stateMutability": "nonpayable",
      "type": "function"
    },
    {
      "inputs": [
        {
          "internalType": "uint256",
          "name": "baseAmount",
          "type": "uint256"
        }
      ],
      "name": "depositAll",
      "outputs": [],
      "stateMutability": "nonpayable",
      "type": "function"
    },
    {
      "inputs": [],
      "name": "distributeFees",
      "outputs": [
        {
          "internalType": "uint256",
          "name": "",
          "type": "uint256"
        }
      ],
      "stateMutability": "nonpayable",
      "type": "function"
    },
    {
      "inputs": [
        {
          "internalType": "address",
          "name": "to",
          "type": "address"
        },
        {
          "internalType": "uint256",
          "name": "U",
          "type": "uint256"
        },
        {
          "internalType": "uint256",
          "name": "WSUM",
          "type": "uint256"
        }
      ],
      "name": "dry_liquidity_from_unit",
      "outputs": [
        {
          "internalType": "uint256",
          "name": "",
          "type": "uint256"
        }
      ],
      "stateMutability": "view",
      "type": "function"
    },
    {
      "inputs": [
        {
          "internalType": "address",
          "name": "from",
          "type": "address"
        },
        {
          "internalType": "uint256",
          "name": "amountX64",
          "type": "uint256"
        }
      ],
      "name": "dry_liquidity_to_unit",
      "outputs": [
        {
          "internalType": "uint256",
          "name": "",
          "type": "uint256"
        }
      ],
      "stateMutability": "view",
      "type": "function"
    },
    {
      "inputs": [
        {
          "internalType": "address",
          "name": "from",
          "type": "address"
        },
        {
          "internalType": "address",
          "name": "to",
          "type": "address"
        },
        {
          "internalType": "uint256",
          "name": "input",
          "type": "uint256"
        }
      ],
      "name": "dry_swap_both",
      "outputs": [
        {
          "internalType": "uint256",
          "name": "",
          "type": "uint256"
        }
      ],
      "stateMutability": "view",
      "type": "function"
    },
    {
      "inputs": [
        {
          "internalType": "address",
          "name": "to",
          "type": "address"
        },
        {
          "internalType": "uint256",
          "name": "U",
          "type": "uint256"
        }
      ],
      "name": "dry_swap_from_unit",
      "outputs": [
        {
          "internalType": "uint256",
          "name": "",
          "type": "uint256"
        }
      ],
      "stateMutability": "view",
      "type": "function"
    },
    {
      "inputs": [
        {
          "internalType": "address",
          "name": "from",
          "type": "address"
        },
        {
          "internalType": "uint256",
          "name": "amount",
          "type": "uint256"
        }
      ],
      "name": "dry_swap_to_unit",
      "outputs": [
        {
          "internalType": "uint256",
          "name": "",
          "type": "uint256"
        }
      ],
      "stateMutability": "view",
      "type": "function"
    },
    {
      "inputs": [],
      "name": "finishSetup",
      "outputs": [],
      "stateMutability": "nonpayable",
      "type": "function"
    },
    {
      "inputs": [],
      "name": "getLiquidityUnitCapacity",
      "outputs": [
        {
          "internalType": "uint256",
          "name": "",
          "type": "uint256"
        }
      ],
      "stateMutability": "view",
      "type": "function"
    },
    {
      "inputs": [],
      "name": "getUnitCapacity",
      "outputs": [
        {
          "internalType": "uint256",
          "name": "",
          "type": "uint256"
        }
      ],
      "stateMutability": "view",
      "type": "function"
    },
    {
      "inputs": [
        {
          "internalType": "address",
          "name": "who",
          "type": "address"
        },
        {
          "internalType": "uint256",
          "name": "U",
          "type": "uint256"
        }
      ],
      "name": "inLiquidity",
      "outputs": [
        {
          "internalType": "uint256",
          "name": "",
          "type": "uint256"
        }
      ],
      "stateMutability": "nonpayable",
      "type": "function"
    },
    {
      "inputs": [
        {
          "internalType": "address",
          "name": "spender",
          "type": "address"
        },
        {
          "internalType": "uint256",
          "name": "addedValue",
          "type": "uint256"
        }
      ],
      "name": "increaseAllowance",
      "outputs": [
        {
          "internalType": "bool",
          "name": "",
          "type": "bool"
        }
      ],
      "stateMutability": "nonpayable",
      "type": "function"
    },
    {
      "inputs": [
        {
          "internalType": "address",
          "name": "fromAsset",
          "type": "address"
        },
        {
          "internalType": "address",
          "name": "toAsset",
          "type": "address"
        },
        {
          "internalType": "uint256",
          "name": "amount",
          "type": "uint256"
        },
        {
          "internalType": "uint256",
          "name": "minOut",
          "type": "uint256"
        }
      ],
      "name": "localswap",
      "outputs": [
        {
          "internalType": "uint256",
          "name": "",
          "type": "uint256"
        }
      ],
      "stateMutability": "nonpayable",
      "type": "function"
    },
    {
      "inputs": [],
      "name": "name",
      "outputs": [
        {
          "internalType": "string",
          "name": "",
          "type": "string"
        }
      ],
      "stateMutability": "view",
      "type": "function"
    },
    {
      "inputs": [
        {
          "internalType": "uint256",
          "name": "chain",
          "type": "uint256"
        },
        {
          "internalType": "bytes32",
          "name": "targetPool",
          "type": "bytes32"
        },
        {
          "internalType": "bytes32",
          "name": "targetUser",
          "type": "bytes32"
        },
        {
          "internalType": "uint256",
          "name": "baseAmount",
          "type": "uint256"
        }
      ],
      "name": "outLiquidity",
      "outputs": [
        {
          "internalType": "uint256",
          "name": "",
          "type": "uint256"
        }
      ],
      "stateMutability": "nonpayable",
      "type": "function"
    },
    {
      "inputs": [],
      "name": "ready",
      "outputs": [
        {
          "internalType": "bool",
          "name": "",
          "type": "bool"
        }
      ],
      "stateMutability": "view",
      "type": "function"
    },
    {
      "inputs": [
        {
          "internalType": "uint256",
          "name": "sourceSwapId",
          "type": "uint256"
        }
      ],
      "name": "releaseEscrowACK",
      "outputs": [],
      "stateMutability": "nonpayable",
      "type": "function"
    },
    {
      "inputs": [
        {
          "internalType": "uint256",
          "name": "sourceSwapId",
          "type": "uint256"
        }
      ],
      "name": "releaseEscrowTIMEOUT",
      "outputs": [],
      "stateMutability": "nonpayable",
      "type": "function"
    },
    {
      "inputs": [
        {
          "internalType": "address",
          "name": "chaininterface",
          "type": "address"
        },
        {
          "internalType": "address[]",
          "name": "init_assets",
          "type": "address[]"
        },
        {
          "internalType": "uint256[]",
          "name": "weights",
          "type": "uint256[]"
        },
        {
          "internalType": "uint256",
          "name": "amp",
          "type": "uint256"
        },
        {
          "internalType": "string",
          "name": "name_",
          "type": "string"
        },
        {
          "internalType": "string",
          "name": "symbol_",
          "type": "string"
        },
        {
          "internalType": "address",
          "name": "setupMaster",
          "type": "address"
        }
      ],
      "name": "setup",
      "outputs": [],
      "stateMutability": "nonpayable",
      "type": "function"
    },
    {
      "inputs": [
        {
          "internalType": "uint256",
          "name": "toAssetIndex",
          "type": "uint256"
        },
        {
          "internalType": "address",
          "name": "who",
          "type": "address"
        },
        {
          "internalType": "uint256",
          "name": "U",
          "type": "uint256"
        },
        {
          "internalType": "uint256",
          "name": "minOut",
          "type": "uint256"
        },
        {
          "internalType": "bool",
          "name": "approx",
          "type": "bool"
        }
      ],
      "name": "swapFromUnits",
      "outputs": [
        {
          "internalType": "uint256",
          "name": "",
          "type": "uint256"
        }
      ],
      "stateMutability": "nonpayable",
      "type": "function"
    },
    {
      "inputs": [
        {
          "internalType": "uint256",
          "name": "toAssetIndex",
          "type": "uint256"
        },
        {
          "internalType": "address",
          "name": "who",
          "type": "address"
        },
        {
          "internalType": "uint256",
          "name": "U",
          "type": "uint256"
        },
        {
          "internalType": "uint256",
          "name": "minOut",
          "type": "uint256"
        },
        {
          "internalType": "bool",
          "name": "approx",
          "type": "bool"
        },
        {
          "internalType": "address",
          "name": "dataTarget",
          "type": "address"
        },
        {
          "internalType": "bytes",
          "name": "data",
          "type": "bytes"
        }
      ],
      "name": "swapFromUnits",
      "outputs": [
        {
          "internalType": "uint256",
          "name": "",
          "type": "uint256"
        }
      ],
      "stateMutability": "nonpayable",
      "type": "function"
    },
    {
      "inputs": [
        {
          "internalType": "uint32",
          "name": "chain",
          "type": "uint32"
        },
        {
          "internalType": "bytes32",
          "name": "targetPool",
          "type": "bytes32"
        },
        {
          "internalType": "bytes32",
          "name": "targetUser",
          "type": "bytes32"
        },
        {
          "internalType": "address",
          "name": "fromAsset",
          "type": "address"
        },
        {
          "internalType": "uint8",
          "name": "toAssetIndex",
          "type": "uint8"
        },
        {
          "internalType": "uint256",
          "name": "amount",
          "type": "uint256"
        },
        {
          "internalType": "uint256",
          "name": "minOut",
          "type": "uint256"
        },
        {
          "internalType": "uint8",
          "name": "approx",
          "type": "uint8"
        },
        {
          "internalType": "address",
          "name": "fallbackUser",
          "type": "address"
        }
      ],
      "name": "swapToUnits",
      "outputs": [
        {
          "internalType": "uint256",
          "name": "",
          "type": "uint256"
        }
      ],
      "stateMutability": "nonpayable",
      "type": "function"
    },
    {
      "inputs": [
        {
          "internalType": "uint32",
          "name": "chain",
          "type": "uint32"
        },
        {
          "internalType": "bytes32",
          "name": "targetPool",
          "type": "bytes32"
        },
        {
          "internalType": "bytes32",
          "name": "targetUser",
          "type": "bytes32"
        },
        {
          "internalType": "address",
          "name": "fromAsset",
          "type": "address"
        },
        {
          "internalType": "uint8",
          "name": "toAssetIndex",
          "type": "uint8"
        },
        {
          "internalType": "uint256",
          "name": "amount",
          "type": "uint256"
        },
        {
          "internalType": "uint256",
          "name": "minOut",
          "type": "uint256"
        },
        {
          "internalType": "uint8",
          "name": "approx",
          "type": "uint8"
        },
        {
          "internalType": "address",
          "name": "fallbackUser",
          "type": "address"
        },
        {
          "internalType": "bytes",
          "name": "calldata_",
          "type": "bytes"
        }
      ],
      "name": "swapToUnits",
      "outputs": [
        {
          "internalType": "uint256",
          "name": "",
          "type": "uint256"
        }
      ],
      "stateMutability": "nonpayable",
      "type": "function"
    },
    {
      "inputs": [],
      "name": "symbol",
      "outputs": [
        {
          "internalType": "string",
          "name": "",
          "type": "string"
        }
      ],
      "stateMutability": "view",
      "type": "function"
    },
    {
      "inputs": [],
      "name": "totalSupply",
      "outputs": [
        {
          "internalType": "uint256",
          "name": "",
          "type": "uint256"
        }
      ],
      "stateMutability": "view",
      "type": "function"
    },
    {
      "inputs": [
        {
          "internalType": "address",
          "name": "to",
          "type": "address"
        },
        {
          "internalType": "uint256",
          "name": "amount",
          "type": "uint256"
        }
      ],
      "name": "transfer",
      "outputs": [
        {
          "internalType": "bool",
          "name": "",
          "type": "bool"
        }
      ],
      "stateMutability": "nonpayable",
      "type": "function"
    },
    {
      "inputs": [
        {
          "internalType": "address",
          "name": "from",
          "type": "address"
        },
        {
          "internalType": "address",
          "name": "to",
          "type": "address"
        },
        {
          "internalType": "uint256",
          "name": "amount",
          "type": "uint256"
        }
      ],
      "name": "transferFrom",
      "outputs": [
        {
          "internalType": "bool",
          "name": "",
          "type": "bool"
        }
      ],
      "stateMutability": "nonpayable",
      "type": "function"
    },
    {
      "inputs": [
        {
          "internalType": "uint256",
          "name": "baseAmount",
          "type": "uint256"
        }
      ],
      "name": "withdrawAll",
      "outputs": [],
      "stateMutability": "nonpayable",
      "type": "function"
    }
  ],
  "bytecode": "60806040526005805460ff60a01b1916600160a01b1790553480156200002457600080fd5b506040805160208082018352600080835283519182019093529182529060036200004f838262000119565b5060046200005e828262000119565b50506014805460ff1916600117905550620001e5565b634e487b7160e01b600052604160045260246000fd5b600181811c908216806200009f57607f821691505b602082108103620000c057634e487b7160e01b600052602260045260246000fd5b50919050565b601f8211156200011457600081815260208120601f850160051c81016020861015620000ef5750805b601f850160051c820191505b818110156200011057828155600101620000fb565b5050505b505050565b81516001600160401b0381111562000135576200013562000074565b6200014d816200014684546200008a565b84620000c6565b602080601f8311600181146200018557600084156200016c5750858301515b600019600386901b1c1916600185901b17855562000110565b600085815260208120601f198616915b82811015620001b65788860151825594840194600190910190840162000195565b5085821015620001d55787850151600019600388901b60f8161c191681555b5050505050600190811b01905550565b615b7f80620001f56000396000f3fe608060405234801561001057600080fd5b50600436106103155760003560e01c806388e4dc9c116101a7578063acd3fac0116100ee578063dd62ed3e11610097578063f2ae725c11610071578063f2ae725c1461077f578063f63aa25c14610792578063ff27bd8b146107a557600080fd5b8063dd62ed3e1461070b578063ddc71dd114610751578063e6b91aba1461077657600080fd5b8063bebe46df116100c8578063bebe46df146106c5578063c6f678bd146106d8578063c90da013146106eb57600080fd5b8063acd3fac014610697578063b240ca0b146106aa578063bb57ad20146106bd57600080fd5b806395d89b41116101505780639ecfbb361161012a5780639ecfbb3614610668578063a457c2d714610671578063a9059cbb1461068457600080fd5b806395d89b411461063a578063961d48a21461064257806399d3edcd1461065557600080fd5b8063904e0a0111610181578063904e0a01146105e8578063916f65e31461061e578063958e2d311461062757600080fd5b806388e4dc9c146105ba5780638c9aa6f7146105cd5780638df9f42d146105d557600080fd5b806332a3385e1161026b57806362429f811161021457806370a08231116101ee57806370a082311461056757806379c63c371461059d57806386f25e4d146105b057600080fd5b806362429f81146105225780636defbf80146105355780636e18d1441461055457600080fd5b806344ad8eb71161024557806344ad8eb7146104e957806348da4a31146104fc5780634f489ec71461050f57600080fd5b806332a3385e146104715780633867e8571461049157806339509351146104d657600080fd5b806318160ddd116102cd57806324cbc9ee116102a757806324cbc9ee146104395780632a665b2314610459578063313ce5671461046257600080fd5b806318160ddd146103fe57806323b872dd1461040657806324351d571461041957600080fd5b8063095ea7b3116102fe578063095ea7b3146103b25780630bc350d7146103d557806311e5fbac146103eb57600080fd5b8063023aae471461031a57806306fdde031461039d575b600080fd5b610361610328366004614ec5565b60126020526000908152604090208054600182015460029092015473ffffffffffffffffffffffffffffffffffffffff91821692911683565b6040805173ffffffffffffffffffffffffffffffffffffffff948516815260208101939093529216918101919091526060015b60405180910390f35b6103a56107b8565b6040516103949190614f02565b6103c56103c0366004614f7c565b61084a565b6040519015158152602001610394565b6103dd610864565b604051908152602001610394565b6103dd6103f9366004614fa6565b6108df565b6002546103dd565b6103c5610414366004614fe8565b610a31565b6103dd610427366004615024565b60116020526000908152604090205481565b6103dd610447366004615024565b60076020526000908152604090205481565b6103dd60175481565b60405160128152602001610394565b6103dd61047f366004615024565b60086020526000908152604090205481565b6005546104b19073ffffffffffffffffffffffffffffffffffffffff1681565b60405173ffffffffffffffffffffffffffffffffffffffff9091168152602001610394565b6103c56104e4366004614f7c565b610a57565b6103dd6104f7366004614f7c565b610aa3565b6103dd61050a36600461503f565b610be1565b6103dd61051d366004615083565b610c19565b6103dd6105303660046150fc565b610e53565b600b5473ffffffffffffffffffffffffffffffffffffffff16156103c5565b6103dd610562366004614fe8565b610e73565b6103dd610575366004615024565b73ffffffffffffffffffffffffffffffffffffffff1660009081526020819052604090205490565b6103dd6105ab366004614f7c565b6110ea565b6105b8611457565b005b6103dd6105c8366004615188565b611513565b6103dd611747565b6103dd6105e3366004615203565b6117c5565b6104b16105f6366004614ec5565b60066020526000908152604090205473ffffffffffffffffffffffffffffffffffffffff1681565b6103dd600c5481565b6105b8610635366004614ec5565b61186e565b6103a5611ae1565b6105b86106503660046152dc565b611af0565b6103dd610663366004614f7c565b611e48565b6103dd60095481565b6103c561067f366004614f7c565b611eab565b6103c5610692366004614f7c565b611f87565b6105b86106a5366004614ec5565b611f95565b6105b86106b83660046153cf565b6120d6565b6103dd6121db565b6103dd6106d3366004615408565b6125f5565b6105b86106e6366004614ec5565b612619565b600b546104b19073ffffffffffffffffffffffffffffffffffffffff1681565b6103dd6107193660046154cb565b73ffffffffffffffffffffffffffffffffffffffff918216600090815260016020908152604080832093909416825291909152205490565b6005546103c59074010000000000000000000000000000000000000000900460ff1681565b6103dd601a5481565b6105b861078d3660046153cf565b612869565b6103dd6107a0366004614f7c565b612980565b6105b86107b3366004614ec5565b612aa9565b6060601580546107c7906154fe565b80601f01602080910402602001604051908101604052809291908181526020018280546107f3906154fe565b80156108405780601f1061081557610100808354040283529160200191610840565b820191906000526020600020905b81548152906001019060200180831161082357829003601f168201915b5050505050905090565b600033610858818585612b6d565b60019150505b92915050565b600c54600e546000919061087b9062015180615580565b42111561088757919050565b600062015180600e544261089b9190615593565b6108a590846155a6565b6108af91906155ec565b905080600d54116108c05750919050565b80600d546108ce9190615593565b6108d89083615593565b9250505090565b6000806108ee84600a54612d20565b9050600061090187876105628589615593565b9050838110156040518060400160405280601881526020017f496e73756666696369656e7420737761702072657475726e00000000000000008152509061097e576040517f08c379a00000000000000000000000000000000000000000000000000000000081526004016109759190614f02565b60405180910390fd5b506109a073ffffffffffffffffffffffffffffffffffffffff87163383612db5565b6109c273ffffffffffffffffffffffffffffffffffffffff8816333088612e8e565b60408051338152602081018790529081018290526060810183905273ffffffffffffffffffffffffffffffffffffffff80881691908916907f967858f4c15e98f1f59e7c3c41673484d18a5fac00792502a52e51c780b8d2769060800160405180910390a39695505050505050565b600033610a3f858285612eec565b610a4a858585612fbd565b60019150505b9392505050565b33600081815260016020908152604080832073ffffffffffffffffffffffffffffffffffffffff871684529091528120549091906108589082908690610a9e908790615580565b612b6d565b73ffffffffffffffffffffffffffffffffffffffff821660008181526008602090815260408083205460119092528083205490517f70a08231000000000000000000000000000000000000000000000000000000008152306004820152929391928492906370a0823190602401602060405180830381865afa158015610b2d573d6000803e3d6000fd5b505050506040513d601f19601f82011682018060405250810190610b519190615600565b610b5b9190615593565b905077ffffffffffffffffffffffffffffffffffffffffffffffff8110604051806060016040528060258152602001615af86025913990610bc9576040517f08c379a00000000000000000000000000000000000000000000000000000000081526004016109759190614f02565b50610bd8848284601754613270565b95945050505050565b73ffffffffffffffffffffffffffffffffffffffff8316600090815260076020526040812054601754610bd890859083908690613307565b60055460009073ffffffffffffffffffffffffffffffffffffffff163314610c4057600080fd5b60008681526006602052604090205473ffffffffffffffffffffffffffffffffffffffff16610c6e85613371565b6000610c7a8287610aa3565b9050808511156040518060400160405280601881526020017f496e73756666696369656e7420737761702072657475726e000000000000000081525090610cee576040517f08c379a00000000000000000000000000000000000000000000000000000000081526004016109759190614f02565b50610d1073ffffffffffffffffffffffffffffffffffffffff83168883612db5565b85601a6000828254610d229190615619565b90915550506040517f70a0823100000000000000000000000000000000000000000000000000000000815230600482015260009073ffffffffffffffffffffffffffffffffffffffff8416906370a0823190602401602060405180830381865afa158015610d94573d6000803e3d6000fd5b505050506040513d601f19601f82011682018060405250810190610db89190615600565b9050610ddb601854610dd68484610dcf9190615580565b84876134fa565b612d20565b600c6000828254610dec9190615593565b9091555050604080518881526020810184905273ffffffffffffffffffffffffffffffffffffffff80861692908b16917f554dc1931a29064b841d92d1cf54855848f1ce32738684564a0a7c03f15a7200910160405180910390a350979650505050505050565b6000610e658a8a8a8a8a8a8a896135e5565b9a9950505050505050505050565b6040517f70a08231000000000000000000000000000000000000000000000000000000008152306004820152600090819073ffffffffffffffffffffffffffffffffffffffff8616906370a0823190602401602060405180830381865afa158015610ee2573d6000803e3d6000fd5b505050506040513d601f19601f82011682018060405250810190610f069190615600565b73ffffffffffffffffffffffffffffffffffffffff85166000818152601160205260408082205490517f70a0823100000000000000000000000000000000000000000000000000000000815230600482015293945090929091906370a0823190602401602060405180830381865afa158015610f86573d6000803e3d6000fd5b505050506040513d601f19601f82011682018060405250810190610faa9190615600565b610fb49190615593565b73ffffffffffffffffffffffffffffffffffffffff808816600090815260086020908152604080832054938a16835291829020548251606081019093526025808452949550929377ffffffffffffffffffffffffffffffffffffffffffffffff86109291615af89083013990611057576040517f08c379a00000000000000000000000000000000000000000000000000000000081526004016109759190614f02565b5077ffffffffffffffffffffffffffffffffffffffffffffffff61107b8786615580565b10604051806060016040528060258152602001615af860259139906110cd576040517f08c379a00000000000000000000000000000000000000000000000000000000081526004016109759190614f02565b506110de8685858585601754613a14565b98975050505050505050565b60055460009073ffffffffffffffffffffffffffffffffffffffff16331461111157600080fd5b604080516003808252608082019092526000918291906020820160608036833701905050905060006017546040600261114a919061578f565b6111549190615593565b905060005b600381101561123b5760008181526006602052604090205473ffffffffffffffffffffffffffffffffffffffff1680611192575061123b565b808483815181106111a5576111a561579b565b73ffffffffffffffffffffffffffffffffffffffff92831660209182029290920181019190915290821660009081526007909152604090819020546111eb911b84613ac7565b73ffffffffffffffffffffffffffffffffffffffff821660009081526008602052604090205461121b91906155a6565b6112259086615580565b9450508080611233906157ca565b915050611159565b600080805260066020527f54cdd369e4e8a8515e52ca72ec816c2101831ad1f18bf44102ed171459c9b4f85473ffffffffffffffffffffffffffffffffffffffff1690611289828988610be1565b9050600061129660025490565b73ffffffffffffffffffffffffffffffffffffffff8416600090815260076020526040812054919250906112ca83856155a6565b6112d491906155ec565b73ffffffffffffffffffffffffffffffffffffffff851660009081526007602052604081208054929350859290919061130e908490615580565b90915550600190505b858110156113e25760008882815181106113335761133361579b565b602002602001015190508383600760008473ffffffffffffffffffffffffffffffffffffffff1673ffffffffffffffffffffffffffffffffffffffff1681526020019081526020016000205461138991906155a6565b61139391906155ec565b73ffffffffffffffffffffffffffffffffffffffff8216600090815260076020526040812080549091906113c8908490615580565b909155508291506113da9050816157ca565b915050611317565b506113ec81613ade565b6113f68b82613c7f565b604080518b815260208101839052309173ffffffffffffffffffffffffffffffffffffffff8e16917f554dc1931a29064b841d92d1cf54855848f1ce32738684564a0a7c03f15a7200910160405180910390a39a9950505050505050505050565b600b5473ffffffffffffffffffffffffffffffffffffffff163214806114945750600b5473ffffffffffffffffffffffffffffffffffffffff1633145b61149d57600080fd5b60055474010000000000000000000000000000000000000000900460ff16156114e957600580547fffffffffffffffffffffffff00000000000000000000000000000000000000001690555b600b80547fffffffffffffffffffffffff0000000000000000000000000000000000000000169055565b60008061151f60025490565b905061152b3384613d9f565b6000805b60038110156116115760008181526006602052604090205473ffffffffffffffffffffffffffffffffffffffff16806115685750611611565b73ffffffffffffffffffffffffffffffffffffffff8116600090815260076020526040812054859061159b9089906155a6565b6115a591906155ec565b90506115b18282611e48565b6115bb9085615580565b73ffffffffffffffffffffffffffffffffffffffff83166000908152600760205260408120805492965083929091906115f5908490615593565b9250508190555050508080611609906157ca565b91505061152f565b506005546040517fe55770f80000000000000000000000000000000000000000000000000000000081526004810189905260248101889052604481018790526064810183905233608482015273ffffffffffffffffffffffffffffffffffffffff9091169063e55770f89060a401600060405180830381600087803b15801561169957600080fd5b505af11580156116ad573d6000803e3d6000fd5b5050600f54915050848111156116da5784600f60008282546116cf9190615593565b909155506116e69050565b80156116e6576000600f555b6040805160ff81526020810187905290810183905260006060820181905260808201523090879089907f2483ac7794a891a1da9e35af72035937919c140ab4e1fec8fb8041dbfb4393629060a00160405180910390a4509695505050505050565b600080600261175560025490565b61175f91906155ec565b9050601054620151806117729190615580565b42111561177e57919050565b600062015180601054426117929190615593565b61179c90846155a6565b6117a691906155ec565b905080600f54116117b75750919050565b80600f546108ce9190615593565b6000806117d58a8a8a8a8a610c19565b6040517fdc0913ac00000000000000000000000000000000000000000000000000000000815290915073ffffffffffffffffffffffffffffffffffffffff86169063dc0913ac9061182e9084908890889060040161584b565b600060405180830381600087803b15801561184857600080fd5b505af115801561185c573d6000803e3d6000fd5b50929c9b505050505050505050505050565b6118786000613ade565b600061188360025490565b905061188f3383613d9f565b604080516003808252608082019092526000916020820160608036833701905050905060005b6003811015611a8b5760008181526006602052604090205473ffffffffffffffffffffffffffffffffffffffff16806118ee5750611a8b565b73ffffffffffffffffffffffffffffffffffffffff81166000818152601160205260408082205490517f70a08231000000000000000000000000000000000000000000000000000000008152306004820152919290916370a0823190602401602060405180830381865afa15801561196a573d6000803e3d6000fd5b505050506040513d601f19601f8201168201806040525081019061198e9190615600565b6119989190615593565b73ffffffffffffffffffffffffffffffffffffffff8316600090815260076020526040812054919250866119cc89846155a6565b6119d691906155ec565b9050808383146119f857826119eb83866155a6565b6119f591906155ec565b90505b73ffffffffffffffffffffffffffffffffffffffff851660009081526007602052604081208054849290611a2d908490615593565b9250508190555080878781518110611a4757611a4761579b565b6020908102919091010152611a7373ffffffffffffffffffffffffffffffffffffffff86163383612db5565b50505050508080611a83906157ca565b9150506118b5565b503373ffffffffffffffffffffffffffffffffffffffff167faef68853d1f7f9e4e5fe02896078a87a319c7b257208dac49346c8f03b36c6858483604051611ad4929190615865565b60405180910390a2505050565b6060601680546107c7906154fe565b611afc6040600261578f565b8603611b0757600080fd5b6003891115611b1557600080fd5b60178690556000805b8a811015611de4578b8b82818110611b3857611b3861579b565b9050602002016020810190611b4d9190615024565b600082815260066020526040902080547fffffffffffffffffffffffff00000000000000000000000000000000000000001673ffffffffffffffffffffffffffffffffffffffff92909216919091179055898982818110611bb057611bb061579b565b90506020020135600860008e8e85818110611bcd57611bcd61579b565b9050602002016020810190611be29190615024565b73ffffffffffffffffffffffffffffffffffffffff168152602081019190915260400160002055898982818110611c1b57611c1b61579b565b9050602002013560096000828254611c339190615580565b90915550600090508c8c83818110611c4d57611c4d61579b565b9050602002016020810190611c629190615024565b6040517f70a0823100000000000000000000000000000000000000000000000000000000815230600482015273ffffffffffffffffffffffffffffffffffffffff91909116906370a0823190602401602060405180830381865afa158015611cce573d6000803e3d6000fd5b505050506040513d601f19601f82011682018060405250810190611cf29190615600565b905060008111611d0157600080fd5b80600760008f8f86818110611d1857611d1861579b565b9050602002016020810190611d2d9190615024565b73ffffffffffffffffffffffffffffffffffffffff1673ffffffffffffffffffffffffffffffffffffffff1681526020019081526020016000206000828254611d769190615580565b90915550611da19050604082811b908b90611d9290600261578f565b611d9c9190615593565b613ac7565b8b8b84818110611db357611db361579b565b90506020020135611dc491906155a6565b611dce9084615580565b9250508080611ddc906157ca565b915050611b1e565b50611e0487611df56040600261578f565b611dff9190615593565b613f8c565b611e106040600261578f565b611e1a9190615593565b6018819055611e299082612d20565b600c5550611e3b858585858f866141de565b5050505050505050505050565b73ffffffffffffffffffffffffffffffffffffffff8216600090815260076020908152604080832054600890925282205477ffffffffffffffffffffffffffffffffffffffffffffffff8210611e9d57600080fd5b610bd884838360175461429e565b33600081815260016020908152604080832073ffffffffffffffffffffffffffffffffffffffff8716845290915281205490919083811015611f6f576040517f08c379a000000000000000000000000000000000000000000000000000000000815260206004820152602560248201527f45524332303a2064656372656173656420616c6c6f77616e63652062656c6f7760448201527f207a65726f0000000000000000000000000000000000000000000000000000006064820152608401610975565b611f7c8286868403612b6d565b506001949350505050565b600033610858818585612fbd565b60055473ffffffffffffffffffffffffffffffffffffffff163314611fb957600080fd5b60008181526012602090815260408083208151606081018352815473ffffffffffffffffffffffffffffffffffffffff908116825260018301548286018190526002909301541681840181905285526011909352908320805492939192909190612024908490615593565b90915550508051602082015160408301516120579273ffffffffffffffffffffffffffffffffffffffff90911691612db5565b6040518281527f2ed3176c48e2338524348cc2055adb2c2d41e9022e0a6a18d843c9ed5be9a3a3906020015b60405180910390a150600090815260126020526040812080547fffffffffffffffffffffffff00000000000000000000000000000000000000009081168255600182019290925560020180549091169055565b600b5473ffffffffffffffffffffffffffffffffffffffff163214806121135750600b5473ffffffffffffffffffffffffffffffffffffffff1633145b61211c57600080fd5b600580547fffffffffffffffffffffff00ffffffffffffffffffffffffffffffffffffffff81169091556040517f92a9bdb30000000000000000000000000000000000000000000000000000000081526004810185905260248101849052821515604482015273ffffffffffffffffffffffffffffffffffffffff909116906392a9bdb390606401600060405180830381600087803b1580156121be57600080fd5b505af11580156121d2573d6000803e3d6000fd5b50505050505050565b604080516003808252608082019092526000918291829160208201606080368337019050506017549091506000805b60038110156123d15760008181526006602052604090205473ffffffffffffffffffffffffffffffffffffffff168061224357506123d1565b73ffffffffffffffffffffffffffffffffffffffff81166000818152600760205260408082205490517f70a082310000000000000000000000000000000000000000000000000000000081523060048201529092906370a0823190602401602060405180830381865afa1580156122be573d6000803e3d6000fd5b505050506040513d601f19601f820116820180604052508101906122e29190615600565b73ffffffffffffffffffffffffffffffffffffffff841660009081526008602052604090205490915082821115612339576123286123208484615593565b84838a61429e565b61233290876158b3565b955061235b565b61234e6123468385615593565b83838a61429e565b6123589087615619565b95505b8388868151811061236e5761236e61579b565b73ffffffffffffffffffffffffffffffffffffffff909216602092830291909101909101526123a48388611d926040600261578f565b6123ae90826155a6565b6123b8908a615580565b98505050505080806123c9906157ca565b91505061220a565b81601a546123df9190615619565b91506000612408856000815181106123f9576123f961579b565b60200260200101518488610be1565b9050600061241560025490565b9050600060076000886000815181106124305761243061579b565b602002602001015173ffffffffffffffffffffffffffffffffffffffff1673ffffffffffffffffffffffffffffffffffffffff16815260200190815260200160002054828461247f91906155a6565b61248991906155ec565b90508260076000896000815181106124a3576124a361579b565b602002602001015173ffffffffffffffffffffffffffffffffffffffff1673ffffffffffffffffffffffffffffffffffffffff16815260200190815260200160002060008282546124f49190615580565b90915550600090505b848110156125e85781600760008a848151811061251c5761251c61579b565b602002602001015173ffffffffffffffffffffffffffffffffffffffff1673ffffffffffffffffffffffffffffffffffffffff1681526020019081526020016000205461256991906155a6565b600760008a848151811061257f5761257f61579b565b602002602001015173ffffffffffffffffffffffffffffffffffffffff1673ffffffffffffffffffffffffffffffffffffffff16815260200190815260200160002060008282546125d09190615580565b909155508190506125e0816157ca565b9150506124fd565b5098975050505050505050565b60006126098c8c8c8c8c8c8c8b8b8b6142f3565b9c9b505050505050505050505050565b6126236000613ade565b600061262e60025490565b60408051600380825260808201909252919250600091906020820160608036833701905050905060005b60038110156128165760008181526006602052604090205473ffffffffffffffffffffffffffffffffffffffff16806126915750612816565b6040517f70a0823100000000000000000000000000000000000000000000000000000000815230600482015260009073ffffffffffffffffffffffffffffffffffffffff8316906370a0823190602401602060405180830381865afa1580156126fe573d6000803e3d6000fd5b505050506040513d601f19601f820116820180604052508101906127229190615600565b73ffffffffffffffffffffffffffffffffffffffff83166000908152600760205260408120549192508661275689846155a6565b61276091906155ec565b905080838314612782578261277583866155a6565b61277f91906155ec565b90505b73ffffffffffffffffffffffffffffffffffffffff8516600090815260076020526040812080548492906127b7908490615580565b92505081905550808787815181106127d1576127d161579b565b60209081029190910101526127fe73ffffffffffffffffffffffffffffffffffffffff8616333084612e8e565b5050505050808061280e906157ca565b915050612658565b506128213384613c7f565b3373ffffffffffffffffffffffffffffffffffffffff167fe7425730072f5a6ec278ae24c998f6a79299c875cbd84ad35585563a0cb3c6668483604051611ad4929190615865565b600b5473ffffffffffffffffffffffffffffffffffffffff163214806128a65750600b5473ffffffffffffffffffffffffffffffffffffffff1633145b6128af57600080fd5b600580547fffffffffffffffffffffff00ffffffffffffffffffffffffffffffffffffffff81169091556040517fcec8a3950000000000000000000000000000000000000000000000000000000081526004810185905260248101849052821515604482015273ffffffffffffffffffffffffffffffffffffffff9091169063cec8a395906064016020604051808303816000875af1158015612956573d6000803e3d6000fd5b505050506040513d601f19601f8201168201806040525081019061297a91906158db565b50505050565b73ffffffffffffffffffffffffffffffffffffffff82166000818152600860205260408082205490517f70a08231000000000000000000000000000000000000000000000000000000008152306004820152919290918391906370a0823190602401602060405180830381865afa1580156129ff573d6000803e3d6000fd5b505050506040513d601f19601f82011682018060405250810190612a239190615600565b905077ffffffffffffffffffffffffffffffffffffffffffffffff612a488583615580565b10604051806060016040528060258152602001615af86025913990612a9a576040517f08c379a00000000000000000000000000000000000000000000000000000000081526004016109759190614f02565b50610bd88482846017546146d8565b60055473ffffffffffffffffffffffffffffffffffffffff163314612acd57600080fd5b60008181526012602090815260408083208151606081018352815473ffffffffffffffffffffffffffffffffffffffff908116825260018301548286018190526002909301541681840181905285526011909352908320805492939192909190612b38908490615593565b90915550506040518281527f44898ab65affad4f975e5a33a5f62fc75a177f6e222da2585627711f4b0f50f590602001612083565b73ffffffffffffffffffffffffffffffffffffffff8316612c0f576040517f08c379a0000000000000000000000000000000000000000000000000000000008152602060048201526024808201527f45524332303a20617070726f76652066726f6d20746865207a65726f2061646460448201527f72657373000000000000000000000000000000000000000000000000000000006064820152608401610975565b73ffffffffffffffffffffffffffffffffffffffff8216612cb2576040517f08c379a000000000000000000000000000000000000000000000000000000000815260206004820152602260248201527f45524332303a20617070726f766520746f20746865207a65726f20616464726560448201527f73730000000000000000000000000000000000000000000000000000000000006064820152608401610975565b73ffffffffffffffffffffffffffffffffffffffff83811660008181526001602090815260408083209487168084529482529182902085905590518481527f8c5be1e5ebec7d5bd14f71427d1e84f3dd0314c0f7b2291e5b200ac8c7c3b925910160405180910390a3505050565b6000828202817fffffffffffffffffffffffffffffffffffffffffffffffffffffffffffffffff8486099050818110612d5a576000612d5d565b60015b60ff16612d6a8383615593565b612d749190615593565b905067ffffffffffffffff8110612d8a57600080fd5b604082811c908190612d9e90610100615593565b83901b612dab9190615580565b9695505050505050565b60405173ffffffffffffffffffffffffffffffffffffffff8316602482015260448101829052612e899084907fa9059cbb00000000000000000000000000000000000000000000000000000000906064015b604080517fffffffffffffffffffffffffffffffffffffffffffffffffffffffffffffffe08184030181529190526020810180517bffffffffffffffffffffffffffffffffffffffffffffffffffffffff167fffffffff0000000000000000000000000000000000000000000000000000000090931692909217909152614719565b505050565b60405173ffffffffffffffffffffffffffffffffffffffff8085166024830152831660448201526064810182905261297a9085907f23b872dd0000000000000000000000000000000000000000000000000000000090608401612e07565b73ffffffffffffffffffffffffffffffffffffffff8381166000908152600160209081526040808320938616835292905220547fffffffffffffffffffffffffffffffffffffffffffffffffffffffffffffffff811461297a5781811015612fb0576040517f08c379a000000000000000000000000000000000000000000000000000000000815260206004820152601d60248201527f45524332303a20696e73756666696369656e7420616c6c6f77616e63650000006044820152606401610975565b61297a8484848403612b6d565b73ffffffffffffffffffffffffffffffffffffffff8316613060576040517f08c379a000000000000000000000000000000000000000000000000000000000815260206004820152602560248201527f45524332303a207472616e736665722066726f6d20746865207a65726f20616460448201527f64726573730000000000000000000000000000000000000000000000000000006064820152608401610975565b73ffffffffffffffffffffffffffffffffffffffff8216613103576040517f08c379a000000000000000000000000000000000000000000000000000000000815260206004820152602360248201527f45524332303a207472616e7366657220746f20746865207a65726f206164647260448201527f65737300000000000000000000000000000000000000000000000000000000006064820152608401610975565b73ffffffffffffffffffffffffffffffffffffffff8316600090815260208190526040902054818110156131b9576040517f08c379a000000000000000000000000000000000000000000000000000000000815260206004820152602660248201527f45524332303a207472616e7366657220616d6f756e742065786365656473206260448201527f616c616e636500000000000000000000000000000000000000000000000000006064820152608401610975565b73ffffffffffffffffffffffffffffffffffffffff8085166000908152602081905260408082208585039055918516815290812080548492906131fd908490615580565b925050819055508273ffffffffffffffffffffffffffffffffffffffff168473ffffffffffffffffffffffffffffffffffffffff167fddf252ad1be2c89b69c2b068fc378daa952ba7f163c4a11628f55a4df523b3ef8460405161326391815260200190565b60405180910390a361297a565b600080826132806040600261578f565b61328a9190615593565b9050600061329c604087901b83613ac7565b6132a690866155a6565b905060406132da6132c0836132bb8b82615593565b614825565b6132d56132cf6040600261578f565b86614825565b6148a9565b6132e66040600261578f565b6132f09190615593565b6132fa90886155a6565b901c979650505050505050565b6000604061331681600261578f565b61335261332c6133268988615580565b87614825565b611d9c61333b6040600261578f565b876133486040600261578f565b6132bb9190615593565b61335c9190615593565b61336690866155a6565b901c95945050505050565b600c54600e546133849062015180615580565b4211156133ea578082106040518060600160405280602d8152602001615b1d602d9139906133df576040517f08c379a00000000000000000000000000000000000000000000000000000000081526004016109759190614f02565b5050600d5542600e55565b600062015180600e54426133fe9190615593565b61340890846155a6565b61341291906155ec565b42600e55600d54909150818111613483578284106040518060600160405280602d8152602001615b1d602d913990613477576040517f08c379a00000000000000000000000000000000000000000000000000000000081526004016109759190614f02565b505050600d9190915550565b6000826134908684615580565b61349a9190615593565b90508381106040518060600160405280602d8152602001615b1d602d9139906134f0576040517f08c379a00000000000000000000000000000000000000000000000000000000081526004016109759190614f02565b50600d5550505050565b600082840361350b57506000610a50565b60175460009061351d6040600261578f565b6135279190615593565b90508385101561358f5761353f604086901b82613ac7565b61354d604086901b83613ac7565b6135579190615593565b73ffffffffffffffffffffffffffffffffffffffff841660009081526008602052604090205461358791906155a6565b915050610a50565b61359d604085901b82613ac7565b6135ab604087901b83613ac7565b6135b59190615593565b73ffffffffffffffffffffffffffffffffffffffff8416600090815260086020526040902054610bd891906155a6565b600080613602876135f887600a54612d20565b6107a09088615593565b9050600560009054906101000a900473ffffffffffffffffffffffffffffffffffffffff1673ffffffffffffffffffffffffffffffffffffffff16638e133a868b8b8b8a868a600064010000000060135461365d91906158f8565b6040517fffffffff0000000000000000000000000000000000000000000000000000000060e08b901b16815263ffffffff98891660048201526024810197909752604487019590955260ff9093166064860152608485019190915260a4840152151560c483015290911660e482015261010401600060405180830381600087803b1580156136ea57600080fd5b505af11580156136fe573d6000803e3d6000fd5b506137259250505073ffffffffffffffffffffffffffffffffffffffff8816333088612e8e565b73ffffffffffffffffffffffffffffffffffffffff87166000908152601160205260408120805487929061375a908490615580565b9250508190555060405180606001604052808473ffffffffffffffffffffffffffffffffffffffff1681526020018681526020018873ffffffffffffffffffffffffffffffffffffffff16815250601260006401000000006013546137bf91906158f8565b815260208082019290925260409081016000908120845181547fffffffffffffffffffffffff000000000000000000000000000000000000000090811673ffffffffffffffffffffffffffffffffffffffff92831617835594860151600183015594909201516002909201805490931691909316179055601a80548392906138489084906158b3565b90915550506040517f70a0823100000000000000000000000000000000000000000000000000000000815230600482015260009073ffffffffffffffffffffffffffffffffffffffff8916906370a0823190602401602060405180830381865afa1580156138ba573d6000803e3d6000fd5b505050506040513d601f19601f820116820180604052508101906138de9190615600565b9050613910601854610dd66138f589600a54612d20565b6138ff908a615593565b6139099085615593565b848c6134fa565b600c60008282546139219190615580565b9091555050600d549050818111156139505781600d60008282546139459190615593565b9091555061395c9050565b801561395c576000600d555b508673ffffffffffffffffffffffffffffffffffffffff16888a7f2483ac7794a891a1da9e35af72035937919c140ab4e1fec8fb8041dbfb4393628989866139a68c600a54612d20565b6401000000006013546139b991906158f8565b6040805160ff9096168652602086019490945292840191909152606083015263ffffffff16608082015260a00160405180910390a4600160136000828254613a019190615580565b90915550909a9950505050505050505050565b60008082613a246040600261578f565b613a2e9190615593565b90506000613a40604088901b83613ac7565b613a4a90866155a6565b90506040613a986132c083613a618c851b87613ac7565b613a7a60408f8f613a729190615580565b901b88613ac7565b613a849190615593565b613a8e908b6155a6565b6132bb9086615593565b613aa46040600261578f565b613aae9190615593565b613ab890896155a6565b901c9998505050505050505050565b6000610a50613ad983610dd6866148b7565b6149ec565b60006002613aeb60025490565b613af591906155ec565b905060105462015180613b089190615580565b421115613b6e578082106040518060600160405280602d8152602001615b1d602d913990613b63576040517f08c379a00000000000000000000000000000000000000000000000000000000081526004016109759190614f02565b5050600f5542601055565b60006201518060105442613b829190615593565b613b8c90846155a6565b613b9691906155ec565b42601055600f5490915081811015613c08578284106040518060600160405280602d8152602001615b1d602d913990613bfc576040517f08c379a00000000000000000000000000000000000000000000000000000000081526004016109759190614f02565b505050600f9190915550565b600082613c158684615580565b613c1f9190615593565b90508381106040518060600160405280602d8152602001615b1d602d913990613c75576040517f08c379a00000000000000000000000000000000000000000000000000000000081526004016109759190614f02565b50600f5550505050565b73ffffffffffffffffffffffffffffffffffffffff8216613cfc576040517f08c379a000000000000000000000000000000000000000000000000000000000815260206004820152601f60248201527f45524332303a206d696e7420746f20746865207a65726f2061646472657373006044820152606401610975565b8060026000828254613d0e9190615580565b909155505073ffffffffffffffffffffffffffffffffffffffff821660009081526020819052604081208054839290613d48908490615580565b909155505060405181815273ffffffffffffffffffffffffffffffffffffffff8316906000907fddf252ad1be2c89b69c2b068fc378daa952ba7f163c4a11628f55a4df523b3ef9060200160405180910390a35050565b73ffffffffffffffffffffffffffffffffffffffff8216613e42576040517f08c379a000000000000000000000000000000000000000000000000000000000815260206004820152602160248201527f45524332303a206275726e2066726f6d20746865207a65726f2061646472657360448201527f73000000000000000000000000000000000000000000000000000000000000006064820152608401610975565b73ffffffffffffffffffffffffffffffffffffffff821660009081526020819052604090205481811015613ef8576040517f08c379a000000000000000000000000000000000000000000000000000000000815260206004820152602260248201527f45524332303a206275726e20616d6f756e7420657863656564732062616c616e60448201527f63650000000000000000000000000000000000000000000000000000000000006064820152608401610975565b73ffffffffffffffffffffffffffffffffffffffff83166000908152602081905260408120838303905560028054849290613f34908490615593565b909155505060405182815260009073ffffffffffffffffffffffffffffffffffffffff8516907fddf252ad1be2c89b69c2b068fc378daa952ba7f163c4a11628f55a4df523b3ef9060200160405180910390a3505050565b6000604082901c60298110613fa057600080fd5b68010000000000000000678000000000000000841615613fc85767b504f333f9de64840260401c5b674000000000000000841615613fe65767d744fccad69d6af40260401c5b6720000000000000008416156140045767eac0c6e7dd24392e0260401c5b6710000000000000008416156140225767f5257d152486cc2c0260401c5b6708000000000000008416156140405767fa83b2db722a033a0260401c5b67040000000000000084161561405e5767fd3e0c0cf486c1740260401c5b67020000000000000084161561407c5767fe9e115c7b8f884b0260401c5b67010000000000000084161561409a5767ff4ecb59511ec8a50260401c5b66800000000000008416156140b75767ffa756521c8daed10260401c5b66400000000000008416156140d45767ffd3a751c0f7e10b0260401c5b66200000000000008416156140f15767ffe9d2b2f7db27550260401c5b661000000000000084161561410e5767fff4e91bff1b8c3d0260401c5b660800000000000084161561412b5767fffa747ea00406640260401c5b66040000000000008416156141485767fffd3a3b7814eb530260401c5b66020000000000008416156141655767fffe9d1cc60ddab10260401c5b66010000000000008416156141825767ffff4e8e25879bfa0260401c5b6580000000000084161561419e5767ffffa7470363f4510260401c5b654000000000008416156141ba5767ffffd3a37dda03130260401c5b652000000000008416156141d65767ffffe9d1bdf703ae0260401c5b901c92915050565b6141f3816141ee6040600261578f565b613c7f565b60145460ff161561420357600080fd5b601480547fffffffffffffffffffffffffffffffffffffffffffffffffffffffffffffff001660011790556005805473ffffffffffffffffffffffffffffffffffffffff8085167fffffffffffffffffffffffff000000000000000000000000000000000000000092831617909255600b805492841692909116919091179055601561429086888361595a565b5060166121d284868361595a565b600080826142ae6040600261578f565b6142b89190615593565b90506142d160406142c98888615593565b901b82613ac7565b6142df604087901b83613ac7565b6142e99190615593565b612dab90856155a6565b6000806143108961430689600a54612d20565b6107a0908a615593565b9050600560009054906101000a900473ffffffffffffffffffffffffffffffffffffffff1673ffffffffffffffffffffffffffffffffffffffff1663ba71471e8d8d8d8c868c600064010000000060135461436b91906158f8565b8d8d6040518b63ffffffff1660e01b81526004016143929a99989796959493929190615a75565b600060405180830381600087803b1580156143ac57600080fd5b505af11580156143c0573d6000803e3d6000fd5b506143e79250505073ffffffffffffffffffffffffffffffffffffffff8a1633308a612e8e565b73ffffffffffffffffffffffffffffffffffffffff89166000908152601160205260408120805489929061441c908490615580565b9250508190555060405180606001604052808673ffffffffffffffffffffffffffffffffffffffff1681526020018881526020018a73ffffffffffffffffffffffffffffffffffffffff168152506012600064010000000060135461448191906158f8565b815260208082019290925260409081016000908120845181547fffffffffffffffffffffffff000000000000000000000000000000000000000090811673ffffffffffffffffffffffffffffffffffffffff92831617835594860151600183015594909201516002909201805490931691909316179055601a805483929061450a9084906158b3565b90915550506040517f70a0823100000000000000000000000000000000000000000000000000000000815230600482015260009073ffffffffffffffffffffffffffffffffffffffff8b16906370a0823190602401602060405180830381865afa15801561457c573d6000803e3d6000fd5b505050506040513d601f19601f820116820180604052508101906145a09190615600565b90506145d2601854610dd66145b78b600a54612d20565b6145c1908c615593565b6145cb9085615593565b848e6134fa565b600c60008282546145e39190615580565b9091555050600d549050818111156146125781600d60008282546146079190615593565b9091555061461e9050565b801561461e576000600d555b508873ffffffffffffffffffffffffffffffffffffffff168a8c7f2483ac7794a891a1da9e35af72035937919c140ab4e1fec8fb8041dbfb4393628b8b866146688e600a54612d20565b64010000000060135461467b91906158f8565b6040805160ff9096168652602086019490945292840191909152606083015263ffffffff16608082015260a00160405180910390a46001601360008282546146c39190615580565b90915550909c9b505050505050505050505050565b600080826146e86040600261578f565b6146f29190615593565b9050614702604086901b82613ac7565b6142df60406147118989615580565b901b83613ac7565b600061477b826040518060400160405280602081526020017f5361666545524332303a206c6f772d6c6576656c2063616c6c206661696c65648152508573ffffffffffffffffffffffffffffffffffffffff16614cc59092919063ffffffff16565b805190915015612e89578080602001905181019061479991906158db565b612e89576040517f08c379a000000000000000000000000000000000000000000000000000000000815260206004820152602a60248201527f5361666545524332303a204552433230206f7065726174696f6e20646964206e60448201527f6f742073756363656564000000000000000000000000000000000000000000006064820152608401610975565b6000808260016148376040600261578f565b6148419190615593565b61484b91906158f8565b9050600083600161485e6040600261578f565b6148689190615593565b61487291906155ec565b90508385614881846001615580565b61488b91906155a6565b61489591906155ec565b61489f86836155a6565b610bd89190615580565b6000610a50611dff83610dd6865b6000680100000000000000008210156148cf57600080fd5b81600070010000000000000000000000000000000082106148f257608091821c91015b68010000000000000000821061490a57604091821c91015b640100000000821061491e57602091821c91015b62010000821061493057601091821c91015b610100821061494157600891821c91015b6010821061495157600491821c91015b6004821061496157600291821c91015b6002821061496d576001015b7fffffffffffffffffffffffffffffffffffffffffffffffffffffffffffffffc0016001811b84816149a1576149a16155bd565b04915060401b60005b60188110156149e4576802000000000000000083106149d557600192831c9260408290031b91909101905b91800260401c916001016149aa565b509392505050565b6000604082901c60c08110614a0057600080fd5b68010000000000000000678000000000000000841615614a295768016a09e667f3bcc9090260401c5b674000000000000000841615614a48576801306fe0a31b7152df0260401c5b672000000000000000841615614a67576801172b83c7d517adce0260401c5b671000000000000000841615614a865768010b5586cf9890f62a0260401c5b670800000000000000841615614aa5576801059b0d31585743ae0260401c5b670400000000000000841615614ac457680102c9a3e778060ee70260401c5b670200000000000000841615614ae35768010163da9fb33356d80260401c5b670100000000000000841615614b0257680100b1afa5abcbed610260401c5b6680000000000000841615614b205768010058c86da1c09ea20260401c5b6640000000000000841615614b3e576801002c605e2e8cec500260401c5b6620000000000000841615614b5c57680100162f3904051fa10260401c5b6610000000000000841615614b7a576801000b175effdc76ba0260401c5b6608000000000000841615614b9857680100058ba01fb9f96d0260401c5b6604000000000000841615614bb65768010002c5cc37da94920260401c5b6602000000000000841615614bd4576801000162e525ee05470260401c5b6601000000000000841615614bf25768010000b17255775c040260401c5b65800000000000841615614c0f576801000058b91b5bc9ae0260401c5b65400000000000841615614c2c57680100002c5c89d5ec6d0260401c5b65200000000000841615614c495768010000162e43f4f8310260401c5b65100000000000841615614c6657680100000b1721bcfc9a0260401c5b65080000000000841615614c835768010000058b90cf1e6e0260401c5b65040000000000841615614ca0576801000002c5c863b73f0260401c5b65020000000000841615614cbd57680100000162e430e5a20260401c5b901b92915050565b6060614cd48484600085614cdc565b949350505050565b606082471015614d6e576040517f08c379a000000000000000000000000000000000000000000000000000000000815260206004820152602660248201527f416464726573733a20696e73756666696369656e742062616c616e636520666f60448201527f722063616c6c00000000000000000000000000000000000000000000000000006064820152608401610975565b73ffffffffffffffffffffffffffffffffffffffff85163b614dec576040517f08c379a000000000000000000000000000000000000000000000000000000000815260206004820152601d60248201527f416464726573733a2063616c6c20746f206e6f6e2d636f6e74726163740000006044820152606401610975565b6000808673ffffffffffffffffffffffffffffffffffffffff168587604051614e159190615adb565b60006040518083038185875af1925050503d8060008114614e52576040519150601f19603f3d011682016040523d82523d6000602084013e614e57565b606091505b5091509150614e67828286614e72565b979650505050505050565b60608315614e81575081610a50565b825115614e915782518084602001fd5b816040517f08c379a00000000000000000000000000000000000000000000000000000000081526004016109759190614f02565b600060208284031215614ed757600080fd5b5035919050565b60005b83811015614ef9578181015183820152602001614ee1565b50506000910152565b6020815260008251806020840152614f21816040850160208701614ede565b601f017fffffffffffffffffffffffffffffffffffffffffffffffffffffffffffffffe0169190910160400192915050565b803573ffffffffffffffffffffffffffffffffffffffff81168114614f7757600080fd5b919050565b60008060408385031215614f8f57600080fd5b614f9883614f53565b946020939093013593505050565b60008060008060808587031215614fbc57600080fd5b614fc585614f53565b9350614fd360208601614f53565b93969395505050506040820135916060013590565b600080600060608486031215614ffd57600080fd5b61500684614f53565b925061501460208501614f53565b9150604084013590509250925092565b60006020828403121561503657600080fd5b610a5082614f53565b60008060006060848603121561505457600080fd5b61505d84614f53565b95602085013595506040909401359392505050565b801515811461508057600080fd5b50565b600080600080600060a0868803121561509b57600080fd5b853594506150ab60208701614f53565b9350604086013592506060860135915060808601356150c981615072565b809150509295509295909350565b803563ffffffff81168114614f7757600080fd5b803560ff81168114614f7757600080fd5b60008060008060008060008060006101208a8c03121561511b57600080fd5b6151248a6150d7565b985060208a0135975060408a0135965061514060608b01614f53565b955061514e60808b016150eb565b945060a08a0135935060c08a0135925061516a60e08b016150eb565b91506151796101008b01614f53565b90509295985092959850929598565b6000806000806080858703121561519e57600080fd5b5050823594602084013594506040840135936060013592509050565b60008083601f8401126151cc57600080fd5b50813567ffffffffffffffff8111156151e457600080fd5b6020830191508360208285010111156151fc57600080fd5b9250929050565b60008060008060008060008060e0898b03121561521f57600080fd5b8835975061522f60208a01614f53565b96506040890135955060608901359450608089013561524d81615072565b935061525b60a08a01614f53565b925060c089013567ffffffffffffffff81111561527757600080fd5b6152838b828c016151ba565b999c989b5096995094979396929594505050565b60008083601f8401126152a957600080fd5b50813567ffffffffffffffff8111156152c157600080fd5b6020830191508360208260051b85010111156151fc57600080fd5b600080600080600080600080600080600060e08c8e0312156152fd57600080fd5b6153068c614f53565b9a5067ffffffffffffffff8060208e0135111561532257600080fd5b6153328e60208f01358f01615297565b909b50995060408d013581101561534857600080fd5b6153588e60408f01358f01615297565b909950975060608d0135965060808d013581101561537557600080fd5b6153858e60808f01358f016151ba565b909650945060a08d013581101561539b57600080fd5b506153ac8d60a08e01358e016151ba565b90935091506153bd60c08d01614f53565b90509295989b509295989b9093969950565b6000806000606084860312156153e457600080fd5b833592506020840135915060408401356153fd81615072565b809150509250925092565b60008060008060008060008060008060006101408c8e03121561542a57600080fd5b6154338c6150d7565b9a5060208c0135995060408c0135985061544f60608d01614f53565b975061545d60808d016150eb565b965060a08c0135955060c08c0135945061547960e08d016150eb565b93506154886101008d01614f53565b92506101208c013567ffffffffffffffff8111156154a557600080fd5b6154b18e828f016151ba565b915080935050809150509295989b509295989b9093969950565b600080604083850312156154de57600080fd5b6154e783614f53565b91506154f560208401614f53565b90509250929050565b600181811c9082168061551257607f821691505b60208210810361554b577f4e487b7100000000000000000000000000000000000000000000000000000000600052602260045260246000fd5b50919050565b7f4e487b7100000000000000000000000000000000000000000000000000000000600052601160045260246000fd5b8082018082111561085e5761085e615551565b8181038181111561085e5761085e615551565b808202811582820484141761085e5761085e615551565b7f4e487b7100000000000000000000000000000000000000000000000000000000600052601260045260246000fd5b6000826155fb576155fb6155bd565b500490565b60006020828403121561561257600080fd5b5051919050565b818103600083128015838313168383128216171561563957615639615551565b5092915050565b7f4e487b7100000000000000000000000000000000000000000000000000000000600052604160045260246000fd5b600181815b808511156156c857817fffffffffffffffffffffffffffffffffffffffffffffffffffffffffffffffff048211156156ae576156ae615551565b808516156156bb57918102915b93841c9390800290615674565b509250929050565b6000826156df5750600161085e565b816156ec5750600061085e565b8160018114615702576002811461570c57615728565b600191505061085e565b60ff84111561571d5761571d615551565b50506001821b61085e565b5060208310610133831016604e8410600b841016171561574b575081810a61085e565b615755838361566f565b807fffffffffffffffffffffffffffffffffffffffffffffffffffffffffffffffff0482111561578757615787615551565b029392505050565b6000610a5083836156d0565b7f4e487b7100000000000000000000000000000000000000000000000000000000600052603260045260246000fd5b60007fffffffffffffffffffffffffffffffffffffffffffffffffffffffffffffffff82036157fb576157fb615551565b5060010190565b8183528181602085013750600060208284010152600060207fffffffffffffffffffffffffffffffffffffffffffffffffffffffffffffffe0601f840116840101905092915050565b838152604060208201526000610bd8604083018486615802565b6000604082018483526020604081850152818551808452606086019150828701935060005b818110156158a65784518352938301939183019160010161588a565b5090979650505050505050565b80820182811260008312801582168215821617156158d3576158d3615551565b505092915050565b6000602082840312156158ed57600080fd5b8151610a5081615072565b600082615907576159076155bd565b500690565b601f821115612e8957600081815260208120601f850160051c810160208610156159335750805b601f850160051c820191505b818110156159525782815560010161593f565b505050505050565b67ffffffffffffffff83111561597257615972615640565b6159868361598083546154fe565b8361590c565b6000601f8411600181146159d857600085156159a25750838201355b7fffffffffffffffffffffffffffffffffffffffffffffffffffffffffffffffff600387901b1c1916600186901b178355615a6e565b6000838152602090207fffffffffffffffffffffffffffffffffffffffffffffffffffffffffffffffe0861690835b82811015615a275786850135825560209485019460019092019101615a07565b5086821015615a62577fffffffffffffffffffffffffffffffffffffffffffffffffffffffffffffffff60f88860031b161c19848701351681555b505060018560011b0183555b5050505050565b600061012063ffffffff808e1684528c60208501528b604085015260ff8b1660608501528960808501528860a085015287151560c085015280871660e08501525080610100840152615aca8184018587615802565b9d9c50505050505050505050505050565b60008251615aed818460208701614ede565b919091019291505056fe506f6f6c2073616e697479206c696d6974202842616c616e636520746f6f206c6172676529537761702065786365656473206d6178696d756d207377617020616d6f756e742e20506c656173652077616974a264697066735822122020a5518eee5121dc402ab23f40018b393360f6bd05b31185438ea0b1c82100fd64736f6c63430008110033",
  "bytecodeSha1": "fd9038a759a7f3de5693ab4c3fe5d2911e3e9ce0",
  "compiler": {
    "evm_version": "istanbul",
    "optimizer": {
      "enabled": true,
      "runs": 251251
    },
    "version": "0.8.17+commit.8df45f5f"
  },
  "contractName": "CatalystSwapPoolAmplified",
  "language": "Solidity",
  "natspec": {
    "author": "Catalyst Labs",
    "details": "This contract is deployed /broken/: It cannot be used as a swap pool as is. To use it, a proxy contract duplicating the logic of this contract needs to be deployed. In vyper, this can be done through (vy 0.3.4) create_minimal_proxy_to. After deployment of the proxy, call setup(...). This will initialize the pool and prepare it for cross-chain transactions. If connected to a supported cross-chain interface, call createConnection or createConnectionWithChain to connect the pool with pools on other chains. Finally, call finishSetup to give up the deployer's control over the pool.",
    "kind": "dev",
    "methods": {
      "_balance0(address)": {
        "notice": "Liquidity reference."
      },
      "_escrowedFor(uint256)": {
        "notice": "Escrow storage"
      },
      "_escrowedTokens(address)": {
        "notice": "Escrow storage"
      },
      "_max_unit_inflow()": {
        "notice": "The max incoming liquidity flow from the router."
      },
      "_onlyLocal()": {
        "notice": "If the pool has no cross chain connection, this is true.     Should not be trusted if setupMaster != ZERO_ADDRESS"
      },
      "_setupMaster()": {
        "notice": "The setupMaster is the short-term owner of the pool.     They can connect the pool to pools on other chains."
      },
      "_tokenIndexing(uint256)": {
        "notice": "To indicate which token is desired on the target pool,     the _toAsset is an integer from 0 to NUMASSETS indicating     which asset the pool should purchase with units."
      },
      "_weight(address)": {
        "notice": "The token weights. Used for maintaining a non symmetric pool balance."
      },
      "allowance(address,address)": {
        "details": "See {IERC20-allowance}."
      },
      "approve(address,uint256)": {
        "details": "See {IERC20-approve}. NOTE: If `amount` is the maximum `uint256`, the allowance is not updated on `transferFrom`. This is semantically equivalent to an infinite approval. Requirements: - `spender` cannot be the zero address."
      },
      "balanceOf(address)": {
        "details": "See {IERC20-balanceOf}."
      },
      "createConnection(bytes32,bytes32,bool)": {
        "details": "if _poolReceiving is an EVM pool, it can be computes as:     Vyper: convert(_poolAddress, bytes32)     Solidity: abi.encode(_poolAddress)     Brownie: brownie.convert.to_bytes(_poolAddress, type_str=\"bytes32\") ! Notice, using tx.origin is not secure. However, it makes it easy to bundle call from an external contract and no assets are at risk because the pool should not be used without setupMaster == ZERO_ADDRESS",
        "notice": "Creates a connection to the pool _poolReceiving on the channel _channelId.",
        "params": {
          "channelId": "The _channelId of the target pool.",
          "poolReceiving": "The bytes32 representation of the target pool",
          "state": "# todo: Should we also set this to True? Aka: should we disable disabling a connection?"
        }
      },
      "createConnectionWithChain(uint256,bytes32,bool)": {
        "details": "if _poolReceiving is an EVM pool, it can be computes as:     Vyper: convert(_poolAddress, bytes32)     Solidity: abi.encode(_poolAddress)     Brownie: brownie.convert.to_bytes(_poolAddress, type_str=\"bytes32\") ! Using tx.origin is not secure. However, it makes it easy to bundle call from an external contract and no assets are at risk because the pool should not be used without setupMaster == ZERO_ADDRESS",
        "notice": "Creates a connection to the pool _poolReceiving using the lookup table of the interface.",
        "params": {
          "chainId": "_chainId of the target pool. The interface will convert the chainId to the correct channelId.",
          "poolReceiving": "The bytes32 representation of the target pool",
          "state": "# todo: Should we also set this to True? Aka: should we disable disabling a connection?"
        }
      },
      "decimals()": {
        "details": "Returns the number of decimals used to get its user representation. For example, if `decimals` equals `2`, a balance of `505` tokens should be displayed to a user as `5.05` (`505 / 10 ** 2`). Tokens usually opt for a value of 18, imitating the relationship between Ether and Wei. This is the value {ERC20} uses, unless this function is overridden; NOTE: This information is only used for _display_ purposes: it in no way affects any of the arithmetic of the contract, including {IERC20-balanceOf} and {IERC20-transfer}."
      },
      "decreaseAllowance(address,uint256)": {
        "details": "Atomically decreases the allowance granted to `spender` by the caller. This is an alternative to {approve} that can be used as a mitigation for problems described in {IERC20-approve}. Emits an {Approval} event indicating the updated allowance. Requirements: - `spender` cannot be the zero address. - `spender` must have allowance for the caller of at least `subtractedValue`."
      },
      "depositAll(uint256)": {
        "details": "Requires approvals for all tokens within the pool.",
        "notice": "Deposits a symmetrical number of tokens such that baseAmount of pool tokens are minted. This doesn't change the pool price.",
        "params": {
          "baseAmount": "The number of pool tokens to mint."
        }
      },
      "dry_liquidity_from_unit(address,uint256,uint256)": {
        "notice": "Computes the output of a liquidity swap from units into liquidity, without executing one.",
        "params": {
          "U": "The number of units used to buy liquidity of _to.",
          "to": "The token address of the target balance0."
        },
        "returns": {
          "_0": "Output denominated in balance0s."
        }
      },
      "dry_liquidity_to_unit(address,uint256)": {
        "notice": "Computes the return of a liquidity swap from liquidity into units, without executing one.",
        "params": {
          "amountX64": "The amount of _from liquidity to sell.",
          "from": "The address of the liquidity to sell."
        },
        "returns": {
          "_0": "uint256 Liquidity units in X64 (units are **always** X64)."
        }
      },
      "dry_swap_both(address,address,uint256)": {
        "notice": "Computes the return of a SwapToAndFromUnits, without executing one.",
        "params": {
          "from": "The address of the token to sell.",
          "input": "The amount of _from token to sell for to token.",
          "to": "The address of the token to buy."
        },
        "returns": {
          "_0": "uint256 Output denominated in to token. "
        }
      },
      "dry_swap_from_unit(address,uint256)": {
        "details": "Unlike a non-amplified pool, there is not simple swap curve approximation for amplified pools.",
        "notice": "Computes the output of a SwapFromUnits, without executing one.",
        "params": {
          "U": "The number of units used to buy to.",
          "to": "The address of the token to buy."
        },
        "returns": {
          "_0": "uint256 Output denominated in output token."
        }
      },
      "dry_swap_to_unit(address,uint256)": {
        "details": "Unlike a non-amplified pool, there is not simple swap curve approximation for amplified pools.",
        "notice": "Computes the return of a SwapToUnits, without executing one.",
        "params": {
          "amount": "The amount of _from token to sell.",
          "from": "The address of the token to sell."
        },
        "returns": {
          "_0": "uint256 Group specific units in X64 (units are **always** X64)."
        }
      },
      "finishSetup()": {
        "details": "! Using tx.origin is not secure. However, it makes it easy to bundle call from an external contract and no assets are at risk because the pool should not be used without setupMaster == ZERO_ADDRESS",
        "notice": "Gives up short term ownership of the pool. This makes the pool unstoppable."
      },
      "getLiquidityUnitCapacity()": {
        "notice": "Returns the current cross-chain liquidity unit capacity in terms of the totalSupply. These are not true units but rather the conversion of units to pool tokens."
      },
      "getUnitCapacity()": {
        "notice": "Returns the current cross-chain unit capacity. "
      },
      "inLiquidity(address,uint256)": {
        "details": "Can only be called by the chaininterface, as there is no way to check the validity of units.",
        "notice": "Completes a cross-chain swap by converting liquidity units to pool tokens Called exclusively by the chaininterface.",
        "params": {
          "U": "Number of units to convert into pool tokens.",
          "who": "The recipient of pool tokens"
        }
      },
      "increaseAllowance(address,uint256)": {
        "details": "Atomically increases the allowance granted to `spender` by the caller. This is an alternative to {approve} that can be used as a mitigation for problems described in {IERC20-approve}. Emits an {Approval} event indicating the updated allowance. Requirements: - `spender` cannot be the zero address."
      },
      "localswap(address,address,uint256,uint256)": {
        "notice": "A swap between 2 assets which both are inside the pool. Is atomic.",
        "params": {
          "amount": "The amount of _fromAsset the user wants to sell",
          "fromAsset": "The asset the user wants to sell.",
          "minOut": "The minimum output of _toAsset the user wants.",
          "toAsset": "The asset the user wants to buy"
        }
      },
      "name()": {
        "details": "Returns the name of the token."
      },
      "outLiquidity(uint256,bytes32,bytes32,uint256)": {
        "notice": "Initiate a cross-chain liquidity swap by lowering liquidity and transfer the liquidity units to another pool.",
        "params": {
          "baseAmount": "The number of pool tokens to liquidity Swap",
          "chain": "The target chain. Will be converted by the interface to channelId.",
          "targetPool": "The target pool on the target chain encoded in bytes32. For EVM chains this can be computed as: Vyper: convert(_poolAddress, bytes32) Solidity: abi.encode(_poolAddress) Brownie: brownie.convert.to_bytes(_poolAddress, type_str=\"bytes32\")",
          "targetUser": "The recipient of the transaction on _chain. Encoded in bytes32. For EVM chains it can be found similarly to _targetPool."
        }
      },
      "ready()": {
        "details": "Just checks if the setup master has been set to ZERO_ADDRESS.     In other words, has finishSetup been called?",
        "notice": "External view function purely used to signal if a pool is safe to use."
      },
      "releaseEscrowACK(uint256)": {
        "notice": "Release the escrowed tokens into the pool.  "
      },
      "releaseEscrowTIMEOUT(uint256)": {
        "notice": "Returned the escrowed tokens to the user "
      },
      "setup(address,address[],uint256[],uint256,string,string,address)": {
        "details": "The @param amp is only used as a sanity check and needs to be set to 2**64. If less than NUMASSETS are used to setup the pool, let the remaining init_assets be ZERO_ADDRESS The unused weights can be whatever. (however, 0 is recommended.) The initial token amounts should have been sent to the pool before setup. If any token has token amount 0, the pool will never be able to have more than 0 tokens for that token.",
        "notice": "Setup a pool."
      },
      "swapFromUnits(uint256,address,uint256,uint256,bool)": {
        "details": "Can only be called by the chaininterface, as there is no way to check the validity of units.",
        "notice": "Completes a cross-chain swap by converting units to the desired token (toAsset) Called exclusively by the chaininterface.",
        "params": {
          "U": "Number of units to convert into toAsset.",
          "approx": "Ignored",
          "minOut": "Minimum number of tokens bought. Reverts if less.",
          "toAssetIndex": "Index of the asset to be purchased with _U units.",
          "who": "The recipient of toAsset"
        }
      },
      "swapToUnits(uint32,bytes32,bytes32,address,uint8,uint256,uint256,uint8,address)": {
        "notice": "Initiate a cross-chain swap by purchasing units and transfer them to another pool.",
        "params": {
          "amount": "The number of _fromAsset to sell to the pool.",
          "approx": "Unused",
          "chain": "The target chain. Will be converted by the interface to channelId.",
          "fallbackUser": "If the transaction fails send the escrowed funds to this address",
          "fromAsset": "The asset the user wants to sell.",
          "minOut": "The minimum number of returned tokens to the targetUser on the target chain.",
          "targetPool": "The target pool on the target chain encoded in bytes32. For EVM chains this can be computed as: Vyper: convert(_poolAddress, bytes32) Solidity: abi.encode(_poolAddress) Brownie: brownie.convert.to_bytes(_poolAddress, type_str=\"bytes32\")",
          "targetUser": "The recipient of the transaction on _chain. Encoded in bytes32. For EVM chains it can be derived similarly to targetPool.",
          "toAssetIndex": "The index of the asset the user wants to buy in the target pool."
        }
      },
      "swapToUnits(uint32,bytes32,bytes32,address,uint8,uint256,uint256,uint8,address,bytes)": {
        "notice": "Initiate a cross-chain swap by purchasing units and transfer them to another pool.",
        "params": {
          "amount": "The number of _fromAsset to sell to the pool.",
          "approx": "Unused",
          "chain": "The target chain. Will be converted by the interface to channelId.",
          "fallbackUser": "If the transaction fails send the escrowed funds to this address",
          "fromAsset": "The asset the user wants to sell.",
          "minOut": "The minimum number of returned tokens to the targetUser on the target chain.",
          "targetPool": "The target pool on the target chain encoded in bytes32. For EVM chains this can be computed as: Vyper: convert(_poolAddress, bytes32) Solidity: abi.encode(_poolAddress) Brownie: brownie.convert.to_bytes(_poolAddress, type_str=\"bytes32\")",
          "targetUser": "The recipient of the transaction on _chain. Encoded in bytes32. For EVM chains it can be derived similarly to targetPool.",
          "toAssetIndex": "The index of the asset the user wants to buy in the target pool."
        }
      },
      "symbol()": {
        "details": "Returns the symbol of the token, usually a shorter version of the name."
      },
      "totalSupply()": {
        "details": "See {IERC20-totalSupply}."
      },
      "transfer(address,uint256)": {
        "details": "See {IERC20-transfer}. Requirements: - `to` cannot be the zero address. - the caller must have a balance of at least `amount`."
      },
      "transferFrom(address,address,uint256)": {
        "details": "See {IERC20-transferFrom}. Emits an {Approval} event indicating the updated allowance. This is not required by the EIP. See the note at the beginning of {ERC20}. NOTE: Does not update the allowance if the current allowance is the maximum `uint256`. Requirements: - `from` and `to` cannot be the zero address. - `from` must have a balance of at least `amount`. - the caller must have allowance for ``from``'s tokens of at least `amount`."
      },
      "withdrawAll(uint256)": {
        "notice": "Burns _baseAmount and releases the symmetrical share of tokens to the burner. This doesn't change the pool price.",
        "params": {
          "baseAmount": "The number of pool tokens to burn."
        }
      }
    },
    "notice": "Catalyst multi-chain swap pool using the asset specific pricing curve: W/(w · ln(2)) where W is an asset specific weight  and w is the pool balance. The following contract supports between 1 and 3 assets for atomic swaps. To increase the number of tokens supported, change NUMASSETS to the desired maximum token amount. Implements the ERC20 specification, such that the contract will be its own pool token.",
    "title": "Catalyst: The Multi-Chain Swap pool",
    "version": 1
  },
  "opcodes": "PUSH1 0x80 PUSH1 0x40 MSTORE CALLVALUE DUP1 ISZERO PUSH2 0x10 JUMPI PUSH1 0x0 DUP1 REVERT JUMPDEST POP PUSH1 0x4 CALLDATASIZE LT PUSH2 0x315 JUMPI PUSH1 0x0 CALLDATALOAD PUSH1 0xE0 SHR DUP1 PUSH4 0x88E4DC9C GT PUSH2 0x1A7 JUMPI DUP1 PUSH4 0xACD3FAC0 GT PUSH2 0xEE JUMPI DUP1 PUSH4 0xDD62ED3E GT PUSH2 0x97 JUMPI DUP1 PUSH4 0xF2AE725C GT PUSH2 0x71 JUMPI DUP1 PUSH4 0xF2AE725C EQ PUSH2 0x77F JUMPI DUP1 PUSH4 0xF63AA25C EQ PUSH2 0x792 JUMPI DUP1 PUSH4 0xFF27BD8B EQ PUSH2 0x7A5 JUMPI PUSH1 0x0 DUP1 REVERT JUMPDEST DUP1 PUSH4 0xDD62ED3E EQ PUSH2 0x70B JUMPI DUP1 PUSH4 0xDDC71DD1 EQ PUSH2 0x751 JUMPI DUP1 PUSH4 0xE6B91ABA EQ PUSH2 0x776 JUMPI PUSH1 0x0 DUP1 REVERT JUMPDEST DUP1 PUSH4 0xBEBE46DF GT PUSH2 0xC8 JUMPI DUP1 PUSH4 0xBEBE46DF EQ PUSH2 0x6C5 JUMPI DUP1 PUSH4 0xC6F678BD EQ PUSH2 0x6D8 JUMPI DUP1 PUSH4 0xC90DA013 EQ PUSH2 0x6EB JUMPI PUSH1 0x0 DUP1 REVERT JUMPDEST DUP1 PUSH4 0xACD3FAC0 EQ PUSH2 0x697 JUMPI DUP1 PUSH4 0xB240CA0B EQ PUSH2 0x6AA JUMPI DUP1 PUSH4 0xBB57AD20 EQ PUSH2 0x6BD JUMPI PUSH1 0x0 DUP1 REVERT JUMPDEST DUP1 PUSH4 0x95D89B41 GT PUSH2 0x150 JUMPI DUP1 PUSH4 0x9ECFBB36 GT PUSH2 0x12A JUMPI DUP1 PUSH4 0x9ECFBB36 EQ PUSH2 0x668 JUMPI DUP1 PUSH4 0xA457C2D7 EQ PUSH2 0x671 JUMPI DUP1 PUSH4 0xA9059CBB EQ PUSH2 0x684 JUMPI PUSH1 0x0 DUP1 REVERT JUMPDEST DUP1 PUSH4 0x95D89B41 EQ PUSH2 0x63A JUMPI DUP1 PUSH4 0x961D48A2 EQ PUSH2 0x642 JUMPI DUP1 PUSH4 0x99D3EDCD EQ PUSH2 0x655 JUMPI PUSH1 0x0 DUP1 REVERT JUMPDEST DUP1 PUSH4 0x904E0A01 GT PUSH2 0x181 JUMPI DUP1 PUSH4 0x904E0A01 EQ PUSH2 0x5E8 JUMPI DUP1 PUSH4 0x916F65E3 EQ PUSH2 0x61E JUMPI DUP1 PUSH4 0x958E2D31 EQ PUSH2 0x627 JUMPI PUSH1 0x0 DUP1 REVERT JUMPDEST DUP1 PUSH4 0x88E4DC9C EQ PUSH2 0x5BA JUMPI DUP1 PUSH4 0x8C9AA6F7 EQ PUSH2 0x5CD JUMPI DUP1 PUSH4 0x8DF9F42D EQ PUSH2 0x5D5 JUMPI PUSH1 0x0 DUP1 REVERT JUMPDEST DUP1 PUSH4 0x32A3385E GT PUSH2 0x26B JUMPI DUP1 PUSH4 0x62429F81 GT PUSH2 0x214 JUMPI DUP1 PUSH4 0x70A08231 GT PUSH2 0x1EE JUMPI DUP1 PUSH4 0x70A08231 EQ PUSH2 0x567 JUMPI DUP1 PUSH4 0x79C63C37 EQ PUSH2 0x59D JUMPI DUP1 PUSH4 0x86F25E4D EQ PUSH2 0x5B0 JUMPI PUSH1 0x0 DUP1 REVERT JUMPDEST DUP1 PUSH4 0x62429F81 EQ PUSH2 0x522 JUMPI DUP1 PUSH4 0x6DEFBF80 EQ PUSH2 0x535 JUMPI DUP1 PUSH4 0x6E18D144 EQ PUSH2 0x554 JUMPI PUSH1 0x0 DUP1 REVERT JUMPDEST DUP1 PUSH4 0x44AD8EB7 GT PUSH2 0x245 JUMPI DUP1 PUSH4 0x44AD8EB7 EQ PUSH2 0x4E9 JUMPI DUP1 PUSH4 0x48DA4A31 EQ PUSH2 0x4FC JUMPI DUP1 PUSH4 0x4F489EC7 EQ PUSH2 0x50F JUMPI PUSH1 0x0 DUP1 REVERT JUMPDEST DUP1 PUSH4 0x32A3385E EQ PUSH2 0x471 JUMPI DUP1 PUSH4 0x3867E857 EQ PUSH2 0x491 JUMPI DUP1 PUSH4 0x39509351 EQ PUSH2 0x4D6 JUMPI PUSH1 0x0 DUP1 REVERT JUMPDEST DUP1 PUSH4 0x18160DDD GT PUSH2 0x2CD JUMPI DUP1 PUSH4 0x24CBC9EE GT PUSH2 0x2A7 JUMPI DUP1 PUSH4 0x24CBC9EE EQ PUSH2 0x439 JUMPI DUP1 PUSH4 0x2A665B23 EQ PUSH2 0x459 JUMPI DUP1 PUSH4 0x313CE567 EQ PUSH2 0x462 JUMPI PUSH1 0x0 DUP1 REVERT JUMPDEST DUP1 PUSH4 0x18160DDD EQ PUSH2 0x3FE JUMPI DUP1 PUSH4 0x23B872DD EQ PUSH2 0x406 JUMPI DUP1 PUSH4 0x24351D57 EQ PUSH2 0x419 JUMPI PUSH1 0x0 DUP1 REVERT JUMPDEST DUP1 PUSH4 0x95EA7B3 GT PUSH2 0x2FE JUMPI DUP1 PUSH4 0x95EA7B3 EQ PUSH2 0x3B2 JUMPI DUP1 PUSH4 0xBC350D7 EQ PUSH2 0x3D5 JUMPI DUP1 PUSH4 0x11E5FBAC EQ PUSH2 0x3EB JUMPI PUSH1 0x0 DUP1 REVERT JUMPDEST DUP1 PUSH4 0x23AAE47 EQ PUSH2 0x31A JUMPI DUP1 PUSH4 0x6FDDE03 EQ PUSH2 0x39D JUMPI JUMPDEST PUSH1 0x0 DUP1 REVERT JUMPDEST PUSH2 0x361 PUSH2 0x328 CALLDATASIZE PUSH1 0x4 PUSH2 0x4EC5 JUMP JUMPDEST PUSH1 0x12 PUSH1 0x20 MSTORE PUSH1 0x0 SWAP1 DUP2 MSTORE PUSH1 0x40 SWAP1 KECCAK256 DUP1 SLOAD PUSH1 0x1 DUP3 ADD SLOAD PUSH1 0x2 SWAP1 SWAP3 ADD SLOAD PUSH20 0xFFFFFFFFFFFFFFFFFFFFFFFFFFFFFFFFFFFFFFFF SWAP2 DUP3 AND SWAP3 SWAP2 AND DUP4 JUMP JUMPDEST PUSH1 0x40 DUP1 MLOAD PUSH20 0xFFFFFFFFFFFFFFFFFFFFFFFFFFFFFFFFFFFFFFFF SWAP5 DUP6 AND DUP2 MSTORE PUSH1 0x20 DUP2 ADD SWAP4 SWAP1 SWAP4 MSTORE SWAP3 AND SWAP2 DUP2 ADD SWAP2 SWAP1 SWAP2 MSTORE PUSH1 0x60 ADD JUMPDEST PUSH1 0x40 MLOAD DUP1 SWAP2 SUB SWAP1 RETURN JUMPDEST PUSH2 0x3A5 PUSH2 0x7B8 JUMP JUMPDEST PUSH1 0x40 MLOAD PUSH2 0x394 SWAP2 SWAP1 PUSH2 0x4F02 JUMP JUMPDEST PUSH2 0x3C5 PUSH2 0x3C0 CALLDATASIZE PUSH1 0x4 PUSH2 0x4F7C JUMP JUMPDEST PUSH2 0x84A JUMP JUMPDEST PUSH1 0x40 MLOAD SWAP1 ISZERO ISZERO DUP2 MSTORE PUSH1 0x20 ADD PUSH2 0x394 JUMP JUMPDEST PUSH2 0x3DD PUSH2 0x864 JUMP JUMPDEST PUSH1 0x40 MLOAD SWAP1 DUP2 MSTORE PUSH1 0x20 ADD PUSH2 0x394 JUMP JUMPDEST PUSH2 0x3DD PUSH2 0x3F9 CALLDATASIZE PUSH1 0x4 PUSH2 0x4FA6 JUMP JUMPDEST PUSH2 0x8DF JUMP JUMPDEST PUSH1 0x2 SLOAD PUSH2 0x3DD JUMP JUMPDEST PUSH2 0x3C5 PUSH2 0x414 CALLDATASIZE PUSH1 0x4 PUSH2 0x4FE8 JUMP JUMPDEST PUSH2 0xA31 JUMP JUMPDEST PUSH2 0x3DD PUSH2 0x427 CALLDATASIZE PUSH1 0x4 PUSH2 0x5024 JUMP JUMPDEST PUSH1 0x11 PUSH1 0x20 MSTORE PUSH1 0x0 SWAP1 DUP2 MSTORE PUSH1 0x40 SWAP1 KECCAK256 SLOAD DUP2 JUMP JUMPDEST PUSH2 0x3DD PUSH2 0x447 CALLDATASIZE PUSH1 0x4 PUSH2 0x5024 JUMP JUMPDEST PUSH1 0x7 PUSH1 0x20 MSTORE PUSH1 0x0 SWAP1 DUP2 MSTORE PUSH1 0x40 SWAP1 KECCAK256 SLOAD DUP2 JUMP JUMPDEST PUSH2 0x3DD PUSH1 0x17 SLOAD DUP2 JUMP JUMPDEST PUSH1 0x40 MLOAD PUSH1 0x12 DUP2 MSTORE PUSH1 0x20 ADD PUSH2 0x394 JUMP JUMPDEST PUSH2 0x3DD PUSH2 0x47F CALLDATASIZE PUSH1 0x4 PUSH2 0x5024 JUMP JUMPDEST PUSH1 0x8 PUSH1 0x20 MSTORE PUSH1 0x0 SWAP1 DUP2 MSTORE PUSH1 0x40 SWAP1 KECCAK256 SLOAD DUP2 JUMP JUMPDEST PUSH1 0x5 SLOAD PUSH2 0x4B1 SWAP1 PUSH20 0xFFFFFFFFFFFFFFFFFFFFFFFFFFFFFFFFFFFFFFFF AND DUP2 JUMP JUMPDEST PUSH1 0x40 MLOAD PUSH20 0xFFFFFFFFFFFFFFFFFFFFFFFFFFFFFFFFFFFFFFFF SWAP1 SWAP2 AND DUP2 MSTORE PUSH1 0x20 ADD PUSH2 0x394 JUMP JUMPDEST PUSH2 0x3C5 PUSH2 0x4E4 CALLDATASIZE PUSH1 0x4 PUSH2 0x4F7C JUMP JUMPDEST PUSH2 0xA57 JUMP JUMPDEST PUSH2 0x3DD PUSH2 0x4F7 CALLDATASIZE PUSH1 0x4 PUSH2 0x4F7C JUMP JUMPDEST PUSH2 0xAA3 JUMP JUMPDEST PUSH2 0x3DD PUSH2 0x50A CALLDATASIZE PUSH1 0x4 PUSH2 0x503F JUMP JUMPDEST PUSH2 0xBE1 JUMP JUMPDEST PUSH2 0x3DD PUSH2 0x51D CALLDATASIZE PUSH1 0x4 PUSH2 0x5083 JUMP JUMPDEST PUSH2 0xC19 JUMP JUMPDEST PUSH2 0x3DD PUSH2 0x530 CALLDATASIZE PUSH1 0x4 PUSH2 0x50FC JUMP JUMPDEST PUSH2 0xE53 JUMP JUMPDEST PUSH1 0xB SLOAD PUSH20 0xFFFFFFFFFFFFFFFFFFFFFFFFFFFFFFFFFFFFFFFF AND ISZERO PUSH2 0x3C5 JUMP JUMPDEST PUSH2 0x3DD PUSH2 0x562 CALLDATASIZE PUSH1 0x4 PUSH2 0x4FE8 JUMP JUMPDEST PUSH2 0xE73 JUMP JUMPDEST PUSH2 0x3DD PUSH2 0x575 CALLDATASIZE PUSH1 0x4 PUSH2 0x5024 JUMP JUMPDEST PUSH20 0xFFFFFFFFFFFFFFFFFFFFFFFFFFFFFFFFFFFFFFFF AND PUSH1 0x0 SWAP1 DUP2 MSTORE PUSH1 0x20 DUP2 SWAP1 MSTORE PUSH1 0x40 SWAP1 KECCAK256 SLOAD SWAP1 JUMP JUMPDEST PUSH2 0x3DD PUSH2 0x5AB CALLDATASIZE PUSH1 0x4 PUSH2 0x4F7C JUMP JUMPDEST PUSH2 0x10EA JUMP JUMPDEST PUSH2 0x5B8 PUSH2 0x1457 JUMP JUMPDEST STOP JUMPDEST PUSH2 0x3DD PUSH2 0x5C8 CALLDATASIZE PUSH1 0x4 PUSH2 0x5188 JUMP JUMPDEST PUSH2 0x1513 JUMP JUMPDEST PUSH2 0x3DD PUSH2 0x1747 JUMP JUMPDEST PUSH2 0x3DD PUSH2 0x5E3 CALLDATASIZE PUSH1 0x4 PUSH2 0x5203 JUMP JUMPDEST PUSH2 0x17C5 JUMP JUMPDEST PUSH2 0x4B1 PUSH2 0x5F6 CALLDATASIZE PUSH1 0x4 PUSH2 0x4EC5 JUMP JUMPDEST PUSH1 0x6 PUSH1 0x20 MSTORE PUSH1 0x0 SWAP1 DUP2 MSTORE PUSH1 0x40 SWAP1 KECCAK256 SLOAD PUSH20 0xFFFFFFFFFFFFFFFFFFFFFFFFFFFFFFFFFFFFFFFF AND DUP2 JUMP JUMPDEST PUSH2 0x3DD PUSH1 0xC SLOAD DUP2 JUMP JUMPDEST PUSH2 0x5B8 PUSH2 0x635 CALLDATASIZE PUSH1 0x4 PUSH2 0x4EC5 JUMP JUMPDEST PUSH2 0x186E JUMP JUMPDEST PUSH2 0x3A5 PUSH2 0x1AE1 JUMP JUMPDEST PUSH2 0x5B8 PUSH2 0x650 CALLDATASIZE PUSH1 0x4 PUSH2 0x52DC JUMP JUMPDEST PUSH2 0x1AF0 JUMP JUMPDEST PUSH2 0x3DD PUSH2 0x663 CALLDATASIZE PUSH1 0x4 PUSH2 0x4F7C JUMP JUMPDEST PUSH2 0x1E48 JUMP JUMPDEST PUSH2 0x3DD PUSH1 0x9 SLOAD DUP2 JUMP JUMPDEST PUSH2 0x3C5 PUSH2 0x67F CALLDATASIZE PUSH1 0x4 PUSH2 0x4F7C JUMP JUMPDEST PUSH2 0x1EAB JUMP JUMPDEST PUSH2 0x3C5 PUSH2 0x692 CALLDATASIZE PUSH1 0x4 PUSH2 0x4F7C JUMP JUMPDEST PUSH2 0x1F87 JUMP JUMPDEST PUSH2 0x5B8 PUSH2 0x6A5 CALLDATASIZE PUSH1 0x4 PUSH2 0x4EC5 JUMP JUMPDEST PUSH2 0x1F95 JUMP JUMPDEST PUSH2 0x5B8 PUSH2 0x6B8 CALLDATASIZE PUSH1 0x4 PUSH2 0x53CF JUMP JUMPDEST PUSH2 0x20D6 JUMP JUMPDEST PUSH2 0x3DD PUSH2 0x21DB JUMP JUMPDEST PUSH2 0x3DD PUSH2 0x6D3 CALLDATASIZE PUSH1 0x4 PUSH2 0x5408 JUMP JUMPDEST PUSH2 0x25F5 JUMP JUMPDEST PUSH2 0x5B8 PUSH2 0x6E6 CALLDATASIZE PUSH1 0x4 PUSH2 0x4EC5 JUMP JUMPDEST PUSH2 0x2619 JUMP JUMPDEST PUSH1 0xB SLOAD PUSH2 0x4B1 SWAP1 PUSH20 0xFFFFFFFFFFFFFFFFFFFFFFFFFFFFFFFFFFFFFFFF AND DUP2 JUMP JUMPDEST PUSH2 0x3DD PUSH2 0x719 CALLDATASIZE PUSH1 0x4 PUSH2 0x54CB JUMP JUMPDEST PUSH20 0xFFFFFFFFFFFFFFFFFFFFFFFFFFFFFFFFFFFFFFFF SWAP2 DUP3 AND PUSH1 0x0 SWAP1 DUP2 MSTORE PUSH1 0x1 PUSH1 0x20 SWAP1 DUP2 MSTORE PUSH1 0x40 DUP1 DUP4 KECCAK256 SWAP4 SWAP1 SWAP5 AND DUP3 MSTORE SWAP2 SWAP1 SWAP2 MSTORE KECCAK256 SLOAD SWAP1 JUMP JUMPDEST PUSH1 0x5 SLOAD PUSH2 0x3C5 SWAP1 PUSH21 0x10000000000000000000000000000000000000000 SWAP1 DIV PUSH1 0xFF AND DUP2 JUMP JUMPDEST PUSH2 0x3DD PUSH1 0x1A SLOAD DUP2 JUMP JUMPDEST PUSH2 0x5B8 PUSH2 0x78D CALLDATASIZE PUSH1 0x4 PUSH2 0x53CF JUMP JUMPDEST PUSH2 0x2869 JUMP JUMPDEST PUSH2 0x3DD PUSH2 0x7A0 CALLDATASIZE PUSH1 0x4 PUSH2 0x4F7C JUMP JUMPDEST PUSH2 0x2980 JUMP JUMPDEST PUSH2 0x5B8 PUSH2 0x7B3 CALLDATASIZE PUSH1 0x4 PUSH2 0x4EC5 JUMP JUMPDEST PUSH2 0x2AA9 JUMP JUMPDEST PUSH1 0x60 PUSH1 0x15 DUP1 SLOAD PUSH2 0x7C7 SWAP1 PUSH2 0x54FE JUMP JUMPDEST DUP1 PUSH1 0x1F ADD PUSH1 0x20 DUP1 SWAP2 DIV MUL PUSH1 0x20 ADD PUSH1 0x40 MLOAD SWAP1 DUP2 ADD PUSH1 0x40 MSTORE DUP1 SWAP3 SWAP2 SWAP1 DUP2 DUP2 MSTORE PUSH1 0x20 ADD DUP3 DUP1 SLOAD PUSH2 0x7F3 SWAP1 PUSH2 0x54FE JUMP JUMPDEST DUP1 ISZERO PUSH2 0x840 JUMPI DUP1 PUSH1 0x1F LT PUSH2 0x815 JUMPI PUSH2 0x100 DUP1 DUP4 SLOAD DIV MUL DUP4 MSTORE SWAP2 PUSH1 0x20 ADD SWAP2 PUSH2 0x840 JUMP JUMPDEST DUP3 ADD SWAP2 SWAP1 PUSH1 0x0 MSTORE PUSH1 0x20 PUSH1 0x0 KECCAK256 SWAP1 JUMPDEST DUP2 SLOAD DUP2 MSTORE SWAP1 PUSH1 0x1 ADD SWAP1 PUSH1 0x20 ADD DUP1 DUP4 GT PUSH2 0x823 JUMPI DUP3 SWAP1 SUB PUSH1 0x1F AND DUP3 ADD SWAP2 JUMPDEST POP POP POP POP POP SWAP1 POP SWAP1 JUMP JUMPDEST PUSH1 0x0 CALLER PUSH2 0x858 DUP2 DUP6 DUP6 PUSH2 0x2B6D JUMP JUMPDEST PUSH1 0x1 SWAP2 POP POP JUMPDEST SWAP3 SWAP2 POP POP JUMP JUMPDEST PUSH1 0xC SLOAD PUSH1 0xE SLOAD PUSH1 0x0 SWAP2 SWAP1 PUSH2 0x87B SWAP1 PUSH3 0x15180 PUSH2 0x5580 JUMP JUMPDEST TIMESTAMP GT ISZERO PUSH2 0x887 JUMPI SWAP2 SWAP1 POP JUMP JUMPDEST PUSH1 0x0 PUSH3 0x15180 PUSH1 0xE SLOAD TIMESTAMP PUSH2 0x89B SWAP2 SWAP1 PUSH2 0x5593 JUMP JUMPDEST PUSH2 0x8A5 SWAP1 DUP5 PUSH2 0x55A6 JUMP JUMPDEST PUSH2 0x8AF SWAP2 SWAP1 PUSH2 0x55EC JUMP JUMPDEST SWAP1 POP DUP1 PUSH1 0xD SLOAD GT PUSH2 0x8C0 JUMPI POP SWAP2 SWAP1 POP JUMP JUMPDEST DUP1 PUSH1 0xD SLOAD PUSH2 0x8CE SWAP2 SWAP1 PUSH2 0x5593 JUMP JUMPDEST PUSH2 0x8D8 SWAP1 DUP4 PUSH2 0x5593 JUMP JUMPDEST SWAP3 POP POP POP SWAP1 JUMP JUMPDEST PUSH1 0x0 DUP1 PUSH2 0x8EE DUP5 PUSH1 0xA SLOAD PUSH2 0x2D20 JUMP JUMPDEST SWAP1 POP PUSH1 0x0 PUSH2 0x901 DUP8 DUP8 PUSH2 0x562 DUP6 DUP10 PUSH2 0x5593 JUMP JUMPDEST SWAP1 POP DUP4 DUP2 LT ISZERO PUSH1 0x40 MLOAD DUP1 PUSH1 0x40 ADD PUSH1 0x40 MSTORE DUP1 PUSH1 0x18 DUP2 MSTORE PUSH1 0x20 ADD PUSH32 0x496E73756666696369656E7420737761702072657475726E0000000000000000 DUP2 MSTORE POP SWAP1 PUSH2 0x97E JUMPI PUSH1 0x40 MLOAD PUSH32 0x8C379A000000000000000000000000000000000000000000000000000000000 DUP2 MSTORE PUSH1 0x4 ADD PUSH2 0x975 SWAP2 SWAP1 PUSH2 0x4F02 JUMP JUMPDEST PUSH1 0x40 MLOAD DUP1 SWAP2 SUB SWAP1 REVERT JUMPDEST POP PUSH2 0x9A0 PUSH20 0xFFFFFFFFFFFFFFFFFFFFFFFFFFFFFFFFFFFFFFFF DUP8 AND CALLER DUP4 PUSH2 0x2DB5 JUMP JUMPDEST PUSH2 0x9C2 PUSH20 0xFFFFFFFFFFFFFFFFFFFFFFFFFFFFFFFFFFFFFFFF DUP9 AND CALLER ADDRESS DUP9 PUSH2 0x2E8E JUMP JUMPDEST PUSH1 0x40 DUP1 MLOAD CALLER DUP2 MSTORE PUSH1 0x20 DUP2 ADD DUP8 SWAP1 MSTORE SWAP1 DUP2 ADD DUP3 SWAP1 MSTORE PUSH1 0x60 DUP2 ADD DUP4 SWAP1 MSTORE PUSH20 0xFFFFFFFFFFFFFFFFFFFFFFFFFFFFFFFFFFFFFFFF DUP1 DUP9 AND SWAP2 SWAP1 DUP10 AND SWAP1 PUSH32 0x967858F4C15E98F1F59E7C3C41673484D18A5FAC00792502A52E51C780B8D276 SWAP1 PUSH1 0x80 ADD PUSH1 0x40 MLOAD DUP1 SWAP2 SUB SWAP1 LOG3 SWAP7 SWAP6 POP POP POP POP POP POP JUMP JUMPDEST PUSH1 0x0 CALLER PUSH2 0xA3F DUP6 DUP3 DUP6 PUSH2 0x2EEC JUMP JUMPDEST PUSH2 0xA4A DUP6 DUP6 DUP6 PUSH2 0x2FBD JUMP JUMPDEST PUSH1 0x1 SWAP2 POP POP JUMPDEST SWAP4 SWAP3 POP POP POP JUMP JUMPDEST CALLER PUSH1 0x0 DUP2 DUP2 MSTORE PUSH1 0x1 PUSH1 0x20 SWAP1 DUP2 MSTORE PUSH1 0x40 DUP1 DUP4 KECCAK256 PUSH20 0xFFFFFFFFFFFFFFFFFFFFFFFFFFFFFFFFFFFFFFFF DUP8 AND DUP5 MSTORE SWAP1 SWAP2 MSTORE DUP2 KECCAK256 SLOAD SWAP1 SWAP2 SWAP1 PUSH2 0x858 SWAP1 DUP3 SWAP1 DUP7 SWAP1 PUSH2 0xA9E SWAP1 DUP8 SWAP1 PUSH2 0x5580 JUMP JUMPDEST PUSH2 0x2B6D JUMP JUMPDEST PUSH20 0xFFFFFFFFFFFFFFFFFFFFFFFFFFFFFFFFFFFFFFFF DUP3 AND PUSH1 0x0 DUP2 DUP2 MSTORE PUSH1 0x8 PUSH1 0x20 SWAP1 DUP2 MSTORE PUSH1 0x40 DUP1 DUP4 KECCAK256 SLOAD PUSH1 0x11 SWAP1 SWAP3 MSTORE DUP1 DUP4 KECCAK256 SLOAD SWAP1 MLOAD PUSH32 0x70A0823100000000000000000000000000000000000000000000000000000000 DUP2 MSTORE ADDRESS PUSH1 0x4 DUP3 ADD MSTORE SWAP3 SWAP4 SWAP2 SWAP3 DUP5 SWAP3 SWAP1 PUSH4 0x70A08231 SWAP1 PUSH1 0x24 ADD PUSH1 0x20 PUSH1 0x40 MLOAD DUP1 DUP4 SUB DUP2 DUP7 GAS STATICCALL ISZERO DUP1 ISZERO PUSH2 0xB2D JUMPI RETURNDATASIZE PUSH1 0x0 DUP1 RETURNDATACOPY RETURNDATASIZE PUSH1 0x0 REVERT JUMPDEST POP POP POP POP PUSH1 0x40 MLOAD RETURNDATASIZE PUSH1 0x1F NOT PUSH1 0x1F DUP3 ADD AND DUP3 ADD DUP1 PUSH1 0x40 MSTORE POP DUP2 ADD SWAP1 PUSH2 0xB51 SWAP2 SWAP1 PUSH2 0x5600 JUMP JUMPDEST PUSH2 0xB5B SWAP2 SWAP1 PUSH2 0x5593 JUMP JUMPDEST SWAP1 POP PUSH24 0xFFFFFFFFFFFFFFFFFFFFFFFFFFFFFFFFFFFFFFFFFFFFFFFF DUP2 LT PUSH1 0x40 MLOAD DUP1 PUSH1 0x60 ADD PUSH1 0x40 MSTORE DUP1 PUSH1 0x25 DUP2 MSTORE PUSH1 0x20 ADD PUSH2 0x5AF8 PUSH1 0x25 SWAP2 CODECOPY SWAP1 PUSH2 0xBC9 JUMPI PUSH1 0x40 MLOAD PUSH32 0x8C379A000000000000000000000000000000000000000000000000000000000 DUP2 MSTORE PUSH1 0x4 ADD PUSH2 0x975 SWAP2 SWAP1 PUSH2 0x4F02 JUMP JUMPDEST POP PUSH2 0xBD8 DUP5 DUP3 DUP5 PUSH1 0x17 SLOAD PUSH2 0x3270 JUMP JUMPDEST SWAP6 SWAP5 POP POP POP POP POP JUMP JUMPDEST PUSH20 0xFFFFFFFFFFFFFFFFFFFFFFFFFFFFFFFFFFFFFFFF DUP4 AND PUSH1 0x0 SWAP1 DUP2 MSTORE PUSH1 0x7 PUSH1 0x20 MSTORE PUSH1 0x40 DUP2 KECCAK256 SLOAD PUSH1 0x17 SLOAD PUSH2 0xBD8 SWAP1 DUP6 SWAP1 DUP4 SWAP1 DUP7 SWAP1 PUSH2 0x3307 JUMP JUMPDEST PUSH1 0x5 SLOAD PUSH1 0x0 SWAP1 PUSH20 0xFFFFFFFFFFFFFFFFFFFFFFFFFFFFFFFFFFFFFFFF AND CALLER EQ PUSH2 0xC40 JUMPI PUSH1 0x0 DUP1 REVERT JUMPDEST PUSH1 0x0 DUP7 DUP2 MSTORE PUSH1 0x6 PUSH1 0x20 MSTORE PUSH1 0x40 SWAP1 KECCAK256 SLOAD PUSH20 0xFFFFFFFFFFFFFFFFFFFFFFFFFFFFFFFFFFFFFFFF AND PUSH2 0xC6E DUP6 PUSH2 0x3371 JUMP JUMPDEST PUSH1 0x0 PUSH2 0xC7A DUP3 DUP8 PUSH2 0xAA3 JUMP JUMPDEST SWAP1 POP DUP1 DUP6 GT ISZERO PUSH1 0x40 MLOAD DUP1 PUSH1 0x40 ADD PUSH1 0x40 MSTORE DUP1 PUSH1 0x18 DUP2 MSTORE PUSH1 0x20 ADD PUSH32 0x496E73756666696369656E7420737761702072657475726E0000000000000000 DUP2 MSTORE POP SWAP1 PUSH2 0xCEE JUMPI PUSH1 0x40 MLOAD PUSH32 0x8C379A000000000000000000000000000000000000000000000000000000000 DUP2 MSTORE PUSH1 0x4 ADD PUSH2 0x975 SWAP2 SWAP1 PUSH2 0x4F02 JUMP JUMPDEST POP PUSH2 0xD10 PUSH20 0xFFFFFFFFFFFFFFFFFFFFFFFFFFFFFFFFFFFFFFFF DUP4 AND DUP9 DUP4 PUSH2 0x2DB5 JUMP JUMPDEST DUP6 PUSH1 0x1A PUSH1 0x0 DUP3 DUP3 SLOAD PUSH2 0xD22 SWAP2 SWAP1 PUSH2 0x5619 JUMP JUMPDEST SWAP1 SWAP2 SSTORE POP POP PUSH1 0x40 MLOAD PUSH32 0x70A0823100000000000000000000000000000000000000000000000000000000 DUP2 MSTORE ADDRESS PUSH1 0x4 DUP3 ADD MSTORE PUSH1 0x0 SWAP1 PUSH20 0xFFFFFFFFFFFFFFFFFFFFFFFFFFFFFFFFFFFFFFFF DUP5 AND SWAP1 PUSH4 0x70A08231 SWAP1 PUSH1 0x24 ADD PUSH1 0x20 PUSH1 0x40 MLOAD DUP1 DUP4 SUB DUP2 DUP7 GAS STATICCALL ISZERO DUP1 ISZERO PUSH2 0xD94 JUMPI RETURNDATASIZE PUSH1 0x0 DUP1 RETURNDATACOPY RETURNDATASIZE PUSH1 0x0 REVERT JUMPDEST POP POP POP POP PUSH1 0x40 MLOAD RETURNDATASIZE PUSH1 0x1F NOT PUSH1 0x1F DUP3 ADD AND DUP3 ADD DUP1 PUSH1 0x40 MSTORE POP DUP2 ADD SWAP1 PUSH2 0xDB8 SWAP2 SWAP1 PUSH2 0x5600 JUMP JUMPDEST SWAP1 POP PUSH2 0xDDB PUSH1 0x18 SLOAD PUSH2 0xDD6 DUP5 DUP5 PUSH2 0xDCF SWAP2 SWAP1 PUSH2 0x5580 JUMP JUMPDEST DUP5 DUP8 PUSH2 0x34FA JUMP JUMPDEST PUSH2 0x2D20 JUMP JUMPDEST PUSH1 0xC PUSH1 0x0 DUP3 DUP3 SLOAD PUSH2 0xDEC SWAP2 SWAP1 PUSH2 0x5593 JUMP JUMPDEST SWAP1 SWAP2 SSTORE POP POP PUSH1 0x40 DUP1 MLOAD DUP9 DUP2 MSTORE PUSH1 0x20 DUP2 ADD DUP5 SWAP1 MSTORE PUSH20 0xFFFFFFFFFFFFFFFFFFFFFFFFFFFFFFFFFFFFFFFF DUP1 DUP7 AND SWAP3 SWAP1 DUP12 AND SWAP2 PUSH32 0x554DC1931A29064B841D92D1CF54855848F1CE32738684564A0A7C03F15A7200 SWAP2 ADD PUSH1 0x40 MLOAD DUP1 SWAP2 SUB SWAP1 LOG3 POP SWAP8 SWAP7 POP POP POP POP POP POP POP JUMP JUMPDEST PUSH1 0x0 PUSH2 0xE65 DUP11 DUP11 DUP11 DUP11 DUP11 DUP11 DUP11 DUP10 PUSH2 0x35E5 JUMP JUMPDEST SWAP11 SWAP10 POP POP POP POP POP POP POP POP POP POP JUMP JUMPDEST PUSH1 0x40 MLOAD PUSH32 0x70A0823100000000000000000000000000000000000000000000000000000000 DUP2 MSTORE ADDRESS PUSH1 0x4 DUP3 ADD MSTORE PUSH1 0x0 SWAP1 DUP2 SWAP1 PUSH20 0xFFFFFFFFFFFFFFFFFFFFFFFFFFFFFFFFFFFFFFFF DUP7 AND SWAP1 PUSH4 0x70A08231 SWAP1 PUSH1 0x24 ADD PUSH1 0x20 PUSH1 0x40 MLOAD DUP1 DUP4 SUB DUP2 DUP7 GAS STATICCALL ISZERO DUP1 ISZERO PUSH2 0xEE2 JUMPI RETURNDATASIZE PUSH1 0x0 DUP1 RETURNDATACOPY RETURNDATASIZE PUSH1 0x0 REVERT JUMPDEST POP POP POP POP PUSH1 0x40 MLOAD RETURNDATASIZE PUSH1 0x1F NOT PUSH1 0x1F DUP3 ADD AND DUP3 ADD DUP1 PUSH1 0x40 MSTORE POP DUP2 ADD SWAP1 PUSH2 0xF06 SWAP2 SWAP1 PUSH2 0x5600 JUMP JUMPDEST PUSH20 0xFFFFFFFFFFFFFFFFFFFFFFFFFFFFFFFFFFFFFFFF DUP6 AND PUSH1 0x0 DUP2 DUP2 MSTORE PUSH1 0x11 PUSH1 0x20 MSTORE PUSH1 0x40 DUP1 DUP3 KECCAK256 SLOAD SWAP1 MLOAD PUSH32 0x70A0823100000000000000000000000000000000000000000000000000000000 DUP2 MSTORE ADDRESS PUSH1 0x4 DUP3 ADD MSTORE SWAP4 SWAP5 POP SWAP1 SWAP3 SWAP1 SWAP2 SWAP1 PUSH4 0x70A08231 SWAP1 PUSH1 0x24 ADD PUSH1 0x20 PUSH1 0x40 MLOAD DUP1 DUP4 SUB DUP2 DUP7 GAS STATICCALL ISZERO DUP1 ISZERO PUSH2 0xF86 JUMPI RETURNDATASIZE PUSH1 0x0 DUP1 RETURNDATACOPY RETURNDATASIZE PUSH1 0x0 REVERT JUMPDEST POP POP POP POP PUSH1 0x40 MLOAD RETURNDATASIZE PUSH1 0x1F NOT PUSH1 0x1F DUP3 ADD AND DUP3 ADD DUP1 PUSH1 0x40 MSTORE POP DUP2 ADD SWAP1 PUSH2 0xFAA SWAP2 SWAP1 PUSH2 0x5600 JUMP JUMPDEST PUSH2 0xFB4 SWAP2 SWAP1 PUSH2 0x5593 JUMP JUMPDEST PUSH20 0xFFFFFFFFFFFFFFFFFFFFFFFFFFFFFFFFFFFFFFFF DUP1 DUP9 AND PUSH1 0x0 SWAP1 DUP2 MSTORE PUSH1 0x8 PUSH1 0x20 SWAP1 DUP2 MSTORE PUSH1 0x40 DUP1 DUP4 KECCAK256 SLOAD SWAP4 DUP11 AND DUP4 MSTORE SWAP2 DUP3 SWAP1 KECCAK256 SLOAD DUP3 MLOAD PUSH1 0x60 DUP2 ADD SWAP1 SWAP4 MSTORE PUSH1 0x25 DUP1 DUP5 MSTORE SWAP5 SWAP6 POP SWAP3 SWAP4 PUSH24 0xFFFFFFFFFFFFFFFFFFFFFFFFFFFFFFFFFFFFFFFFFFFFFFFF DUP7 LT SWAP3 SWAP2 PUSH2 0x5AF8 SWAP1 DUP4 ADD CODECOPY SWAP1 PUSH2 0x1057 JUMPI PUSH1 0x40 MLOAD PUSH32 0x8C379A000000000000000000000000000000000000000000000000000000000 DUP2 MSTORE PUSH1 0x4 ADD PUSH2 0x975 SWAP2 SWAP1 PUSH2 0x4F02 JUMP JUMPDEST POP PUSH24 0xFFFFFFFFFFFFFFFFFFFFFFFFFFFFFFFFFFFFFFFFFFFFFFFF PUSH2 0x107B DUP8 DUP7 PUSH2 0x5580 JUMP JUMPDEST LT PUSH1 0x40 MLOAD DUP1 PUSH1 0x60 ADD PUSH1 0x40 MSTORE DUP1 PUSH1 0x25 DUP2 MSTORE PUSH1 0x20 ADD PUSH2 0x5AF8 PUSH1 0x25 SWAP2 CODECOPY SWAP1 PUSH2 0x10CD JUMPI PUSH1 0x40 MLOAD PUSH32 0x8C379A000000000000000000000000000000000000000000000000000000000 DUP2 MSTORE PUSH1 0x4 ADD PUSH2 0x975 SWAP2 SWAP1 PUSH2 0x4F02 JUMP JUMPDEST POP PUSH2 0x10DE DUP7 DUP6 DUP6 DUP6 DUP6 PUSH1 0x17 SLOAD PUSH2 0x3A14 JUMP JUMPDEST SWAP9 SWAP8 POP POP POP POP POP POP POP POP JUMP JUMPDEST PUSH1 0x5 SLOAD PUSH1 0x0 SWAP1 PUSH20 0xFFFFFFFFFFFFFFFFFFFFFFFFFFFFFFFFFFFFFFFF AND CALLER EQ PUSH2 0x1111 JUMPI PUSH1 0x0 DUP1 REVERT JUMPDEST PUSH1 0x40 DUP1 MLOAD PUSH1 0x3 DUP1 DUP3 MSTORE PUSH1 0x80 DUP3 ADD SWAP1 SWAP3 MSTORE PUSH1 0x0 SWAP2 DUP3 SWAP2 SWAP1 PUSH1 0x20 DUP3 ADD PUSH1 0x60 DUP1 CALLDATASIZE DUP4 CALLDATACOPY ADD SWAP1 POP POP SWAP1 POP PUSH1 0x0 PUSH1 0x17 SLOAD PUSH1 0x40 PUSH1 0x2 PUSH2 0x114A SWAP2 SWAP1 PUSH2 0x578F JUMP JUMPDEST PUSH2 0x1154 SWAP2 SWAP1 PUSH2 0x5593 JUMP JUMPDEST SWAP1 POP PUSH1 0x0 JUMPDEST PUSH1 0x3 DUP2 LT ISZERO PUSH2 0x123B JUMPI PUSH1 0x0 DUP2 DUP2 MSTORE PUSH1 0x6 PUSH1 0x20 MSTORE PUSH1 0x40 SWAP1 KECCAK256 SLOAD PUSH20 0xFFFFFFFFFFFFFFFFFFFFFFFFFFFFFFFFFFFFFFFF AND DUP1 PUSH2 0x1192 JUMPI POP PUSH2 0x123B JUMP JUMPDEST DUP1 DUP5 DUP4 DUP2 MLOAD DUP2 LT PUSH2 0x11A5 JUMPI PUSH2 0x11A5 PUSH2 0x579B JUMP JUMPDEST PUSH20 0xFFFFFFFFFFFFFFFFFFFFFFFFFFFFFFFFFFFFFFFF SWAP3 DUP4 AND PUSH1 0x20 SWAP2 DUP3 MUL SWAP3 SWAP1 SWAP3 ADD DUP2 ADD SWAP2 SWAP1 SWAP2 MSTORE SWAP1 DUP3 AND PUSH1 0x0 SWAP1 DUP2 MSTORE PUSH1 0x7 SWAP1 SWAP2 MSTORE PUSH1 0x40 SWAP1 DUP2 SWAP1 KECCAK256 SLOAD PUSH2 0x11EB SWAP2 SHL DUP5 PUSH2 0x3AC7 JUMP JUMPDEST PUSH20 0xFFFFFFFFFFFFFFFFFFFFFFFFFFFFFFFFFFFFFFFF DUP3 AND PUSH1 0x0 SWAP1 DUP2 MSTORE PUSH1 0x8 PUSH1 0x20 MSTORE PUSH1 0x40 SWAP1 KECCAK256 SLOAD PUSH2 0x121B SWAP2 SWAP1 PUSH2 0x55A6 JUMP JUMPDEST PUSH2 0x1225 SWAP1 DUP7 PUSH2 0x5580 JUMP JUMPDEST SWAP5 POP POP DUP1 DUP1 PUSH2 0x1233 SWAP1 PUSH2 0x57CA JUMP JUMPDEST SWAP2 POP POP PUSH2 0x1159 JUMP JUMPDEST PUSH1 0x0 DUP1 DUP1 MSTORE PUSH1 0x6 PUSH1 0x20 MSTORE PUSH32 0x54CDD369E4E8A8515E52CA72EC816C2101831AD1F18BF44102ED171459C9B4F8 SLOAD PUSH20 0xFFFFFFFFFFFFFFFFFFFFFFFFFFFFFFFFFFFFFFFF AND SWAP1 PUSH2 0x1289 DUP3 DUP10 DUP9 PUSH2 0xBE1 JUMP JUMPDEST SWAP1 POP PUSH1 0x0 PUSH2 0x1296 PUSH1 0x2 SLOAD SWAP1 JUMP JUMPDEST PUSH20 0xFFFFFFFFFFFFFFFFFFFFFFFFFFFFFFFFFFFFFFFF DUP5 AND PUSH1 0x0 SWAP1 DUP2 MSTORE PUSH1 0x7 PUSH1 0x20 MSTORE PUSH1 0x40 DUP2 KECCAK256 SLOAD SWAP2 SWAP3 POP SWAP1 PUSH2 0x12CA DUP4 DUP6 PUSH2 0x55A6 JUMP JUMPDEST PUSH2 0x12D4 SWAP2 SWAP1 PUSH2 0x55EC JUMP JUMPDEST PUSH20 0xFFFFFFFFFFFFFFFFFFFFFFFFFFFFFFFFFFFFFFFF DUP6 AND PUSH1 0x0 SWAP1 DUP2 MSTORE PUSH1 0x7 PUSH1 0x20 MSTORE PUSH1 0x40 DUP2 KECCAK256 DUP1 SLOAD SWAP3 SWAP4 POP DUP6 SWAP3 SWAP1 SWAP2 SWAP1 PUSH2 0x130E SWAP1 DUP5 SWAP1 PUSH2 0x5580 JUMP JUMPDEST SWAP1 SWAP2 SSTORE POP PUSH1 0x1 SWAP1 POP JUMPDEST DUP6 DUP2 LT ISZERO PUSH2 0x13E2 JUMPI PUSH1 0x0 DUP9 DUP3 DUP2 MLOAD DUP2 LT PUSH2 0x1333 JUMPI PUSH2 0x1333 PUSH2 0x579B JUMP JUMPDEST PUSH1 0x20 MUL PUSH1 0x20 ADD ADD MLOAD SWAP1 POP DUP4 DUP4 PUSH1 0x7 PUSH1 0x0 DUP5 PUSH20 0xFFFFFFFFFFFFFFFFFFFFFFFFFFFFFFFFFFFFFFFF AND PUSH20 0xFFFFFFFFFFFFFFFFFFFFFFFFFFFFFFFFFFFFFFFF AND DUP2 MSTORE PUSH1 0x20 ADD SWAP1 DUP2 MSTORE PUSH1 0x20 ADD PUSH1 0x0 KECCAK256 SLOAD PUSH2 0x1389 SWAP2 SWAP1 PUSH2 0x55A6 JUMP JUMPDEST PUSH2 0x1393 SWAP2 SWAP1 PUSH2 0x55EC JUMP JUMPDEST PUSH20 0xFFFFFFFFFFFFFFFFFFFFFFFFFFFFFFFFFFFFFFFF DUP3 AND PUSH1 0x0 SWAP1 DUP2 MSTORE PUSH1 0x7 PUSH1 0x20 MSTORE PUSH1 0x40 DUP2 KECCAK256 DUP1 SLOAD SWAP1 SWAP2 SWAP1 PUSH2 0x13C8 SWAP1 DUP5 SWAP1 PUSH2 0x5580 JUMP JUMPDEST SWAP1 SWAP2 SSTORE POP DUP3 SWAP2 POP PUSH2 0x13DA SWAP1 POP DUP2 PUSH2 0x57CA JUMP JUMPDEST SWAP2 POP POP PUSH2 0x1317 JUMP JUMPDEST POP PUSH2 0x13EC DUP2 PUSH2 0x3ADE JUMP JUMPDEST PUSH2 0x13F6 DUP12 DUP3 PUSH2 0x3C7F JUMP JUMPDEST PUSH1 0x40 DUP1 MLOAD DUP12 DUP2 MSTORE PUSH1 0x20 DUP2 ADD DUP4 SWAP1 MSTORE ADDRESS SWAP2 PUSH20 0xFFFFFFFFFFFFFFFFFFFFFFFFFFFFFFFFFFFFFFFF DUP15 AND SWAP2 PUSH32 0x554DC1931A29064B841D92D1CF54855848F1CE32738684564A0A7C03F15A7200 SWAP2 ADD PUSH1 0x40 MLOAD DUP1 SWAP2 SUB SWAP1 LOG3 SWAP11 SWAP10 POP POP POP POP POP POP POP POP POP POP JUMP JUMPDEST PUSH1 0xB SLOAD PUSH20 0xFFFFFFFFFFFFFFFFFFFFFFFFFFFFFFFFFFFFFFFF AND ORIGIN EQ DUP1 PUSH2 0x1494 JUMPI POP PUSH1 0xB SLOAD PUSH20 0xFFFFFFFFFFFFFFFFFFFFFFFFFFFFFFFFFFFFFFFF AND CALLER EQ JUMPDEST PUSH2 0x149D JUMPI PUSH1 0x0 DUP1 REVERT JUMPDEST PUSH1 0x5 SLOAD PUSH21 0x10000000000000000000000000000000000000000 SWAP1 DIV PUSH1 0xFF AND ISZERO PUSH2 0x14E9 JUMPI PUSH1 0x5 DUP1 SLOAD PUSH32 0xFFFFFFFFFFFFFFFFFFFFFFFF0000000000000000000000000000000000000000 AND SWAP1 SSTORE JUMPDEST PUSH1 0xB DUP1 SLOAD PUSH32 0xFFFFFFFFFFFFFFFFFFFFFFFF0000000000000000000000000000000000000000 AND SWAP1 SSTORE JUMP JUMPDEST PUSH1 0x0 DUP1 PUSH2 0x151F PUSH1 0x2 SLOAD SWAP1 JUMP JUMPDEST SWAP1 POP PUSH2 0x152B CALLER DUP5 PUSH2 0x3D9F JUMP JUMPDEST PUSH1 0x0 DUP1 JUMPDEST PUSH1 0x3 DUP2 LT ISZERO PUSH2 0x1611 JUMPI PUSH1 0x0 DUP2 DUP2 MSTORE PUSH1 0x6 PUSH1 0x20 MSTORE PUSH1 0x40 SWAP1 KECCAK256 SLOAD PUSH20 0xFFFFFFFFFFFFFFFFFFFFFFFFFFFFFFFFFFFFFFFF AND DUP1 PUSH2 0x1568 JUMPI POP PUSH2 0x1611 JUMP JUMPDEST PUSH20 0xFFFFFFFFFFFFFFFFFFFFFFFFFFFFFFFFFFFFFFFF DUP2 AND PUSH1 0x0 SWAP1 DUP2 MSTORE PUSH1 0x7 PUSH1 0x20 MSTORE PUSH1 0x40 DUP2 KECCAK256 SLOAD DUP6 SWAP1 PUSH2 0x159B SWAP1 DUP10 SWAP1 PUSH2 0x55A6 JUMP JUMPDEST PUSH2 0x15A5 SWAP2 SWAP1 PUSH2 0x55EC JUMP JUMPDEST SWAP1 POP PUSH2 0x15B1 DUP3 DUP3 PUSH2 0x1E48 JUMP JUMPDEST PUSH2 0x15BB SWAP1 DUP6 PUSH2 0x5580 JUMP JUMPDEST PUSH20 0xFFFFFFFFFFFFFFFFFFFFFFFFFFFFFFFFFFFFFFFF DUP4 AND PUSH1 0x0 SWAP1 DUP2 MSTORE PUSH1 0x7 PUSH1 0x20 MSTORE PUSH1 0x40 DUP2 KECCAK256 DUP1 SLOAD SWAP3 SWAP7 POP DUP4 SWAP3 SWAP1 SWAP2 SWAP1 PUSH2 0x15F5 SWAP1 DUP5 SWAP1 PUSH2 0x5593 JUMP JUMPDEST SWAP3 POP POP DUP2 SWAP1 SSTORE POP POP POP DUP1 DUP1 PUSH2 0x1609 SWAP1 PUSH2 0x57CA JUMP JUMPDEST SWAP2 POP POP PUSH2 0x152F JUMP JUMPDEST POP PUSH1 0x5 SLOAD PUSH1 0x40 MLOAD PUSH32 0xE55770F800000000000000000000000000000000000000000000000000000000 DUP2 MSTORE PUSH1 0x4 DUP2 ADD DUP10 SWAP1 MSTORE PUSH1 0x24 DUP2 ADD DUP9 SWAP1 MSTORE PUSH1 0x44 DUP2 ADD DUP8 SWAP1 MSTORE PUSH1 0x64 DUP2 ADD DUP4 SWAP1 MSTORE CALLER PUSH1 0x84 DUP3 ADD MSTORE PUSH20 0xFFFFFFFFFFFFFFFFFFFFFFFFFFFFFFFFFFFFFFFF SWAP1 SWAP2 AND SWAP1 PUSH4 0xE55770F8 SWAP1 PUSH1 0xA4 ADD PUSH1 0x0 PUSH1 0x40 MLOAD DUP1 DUP4 SUB DUP2 PUSH1 0x0 DUP8 DUP1 EXTCODESIZE ISZERO DUP1 ISZERO PUSH2 0x1699 JUMPI PUSH1 0x0 DUP1 REVERT JUMPDEST POP GAS CALL ISZERO DUP1 ISZERO PUSH2 0x16AD JUMPI RETURNDATASIZE PUSH1 0x0 DUP1 RETURNDATACOPY RETURNDATASIZE PUSH1 0x0 REVERT JUMPDEST POP POP PUSH1 0xF SLOAD SWAP2 POP POP DUP5 DUP2 GT ISZERO PUSH2 0x16DA JUMPI DUP5 PUSH1 0xF PUSH1 0x0 DUP3 DUP3 SLOAD PUSH2 0x16CF SWAP2 SWAP1 PUSH2 0x5593 JUMP JUMPDEST SWAP1 SWAP2 SSTORE POP PUSH2 0x16E6 SWAP1 POP JUMP JUMPDEST DUP1 ISZERO PUSH2 0x16E6 JUMPI PUSH1 0x0 PUSH1 0xF SSTORE JUMPDEST PUSH1 0x40 DUP1 MLOAD PUSH1 0xFF DUP2 MSTORE PUSH1 0x20 DUP2 ADD DUP8 SWAP1 MSTORE SWAP1 DUP2 ADD DUP4 SWAP1 MSTORE PUSH1 0x0 PUSH1 0x60 DUP3 ADD DUP2 SWAP1 MSTORE PUSH1 0x80 DUP3 ADD MSTORE ADDRESS SWAP1 DUP8 SWAP1 DUP10 SWAP1 PUSH32 0x2483AC7794A891A1DA9E35AF72035937919C140AB4E1FEC8FB8041DBFB439362 SWAP1 PUSH1 0xA0 ADD PUSH1 0x40 MLOAD DUP1 SWAP2 SUB SWAP1 LOG4 POP SWAP7 SWAP6 POP POP POP POP POP POP JUMP JUMPDEST PUSH1 0x0 DUP1 PUSH1 0x2 PUSH2 0x1755 PUSH1 0x2 SLOAD SWAP1 JUMP JUMPDEST PUSH2 0x175F SWAP2 SWAP1 PUSH2 0x55EC JUMP JUMPDEST SWAP1 POP PUSH1 0x10 SLOAD PUSH3 0x15180 PUSH2 0x1772 SWAP2 SWAP1 PUSH2 0x5580 JUMP JUMPDEST TIMESTAMP GT ISZERO PUSH2 0x177E JUMPI SWAP2 SWAP1 POP JUMP JUMPDEST PUSH1 0x0 PUSH3 0x15180 PUSH1 0x10 SLOAD TIMESTAMP PUSH2 0x1792 SWAP2 SWAP1 PUSH2 0x5593 JUMP JUMPDEST PUSH2 0x179C SWAP1 DUP5 PUSH2 0x55A6 JUMP JUMPDEST PUSH2 0x17A6 SWAP2 SWAP1 PUSH2 0x55EC JUMP JUMPDEST SWAP1 POP DUP1 PUSH1 0xF SLOAD GT PUSH2 0x17B7 JUMPI POP SWAP2 SWAP1 POP JUMP JUMPDEST DUP1 PUSH1 0xF SLOAD PUSH2 0x8CE SWAP2 SWAP1 PUSH2 0x5593 JUMP JUMPDEST PUSH1 0x0 DUP1 PUSH2 0x17D5 DUP11 DUP11 DUP11 DUP11 DUP11 PUSH2 0xC19 JUMP JUMPDEST PUSH1 0x40 MLOAD PUSH32 0xDC0913AC00000000000000000000000000000000000000000000000000000000 DUP2 MSTORE SWAP1 SWAP2 POP PUSH20 0xFFFFFFFFFFFFFFFFFFFFFFFFFFFFFFFFFFFFFFFF DUP7 AND SWAP1 PUSH4 0xDC0913AC SWAP1 PUSH2 0x182E SWAP1 DUP5 SWAP1 DUP9 SWAP1 DUP9 SWAP1 PUSH1 0x4 ADD PUSH2 0x584B JUMP JUMPDEST PUSH1 0x0 PUSH1 0x40 MLOAD DUP1 DUP4 SUB DUP2 PUSH1 0x0 DUP8 DUP1 EXTCODESIZE ISZERO DUP1 ISZERO PUSH2 0x1848 JUMPI PUSH1 0x0 DUP1 REVERT JUMPDEST POP GAS CALL ISZERO DUP1 ISZERO PUSH2 0x185C JUMPI RETURNDATASIZE PUSH1 0x0 DUP1 RETURNDATACOPY RETURNDATASIZE PUSH1 0x0 REVERT JUMPDEST POP SWAP3 SWAP13 SWAP12 POP POP POP POP POP POP POP POP POP POP POP POP JUMP JUMPDEST PUSH2 0x1878 PUSH1 0x0 PUSH2 0x3ADE JUMP JUMPDEST PUSH1 0x0 PUSH2 0x1883 PUSH1 0x2 SLOAD SWAP1 JUMP JUMPDEST SWAP1 POP PUSH2 0x188F CALLER DUP4 PUSH2 0x3D9F JUMP JUMPDEST PUSH1 0x40 DUP1 MLOAD PUSH1 0x3 DUP1 DUP3 MSTORE PUSH1 0x80 DUP3 ADD SWAP1 SWAP3 MSTORE PUSH1 0x0 SWAP2 PUSH1 0x20 DUP3 ADD PUSH1 0x60 DUP1 CALLDATASIZE DUP4 CALLDATACOPY ADD SWAP1 POP POP SWAP1 POP PUSH1 0x0 JUMPDEST PUSH1 0x3 DUP2 LT ISZERO PUSH2 0x1A8B JUMPI PUSH1 0x0 DUP2 DUP2 MSTORE PUSH1 0x6 PUSH1 0x20 MSTORE PUSH1 0x40 SWAP1 KECCAK256 SLOAD PUSH20 0xFFFFFFFFFFFFFFFFFFFFFFFFFFFFFFFFFFFFFFFF AND DUP1 PUSH2 0x18EE JUMPI POP PUSH2 0x1A8B JUMP JUMPDEST PUSH20 0xFFFFFFFFFFFFFFFFFFFFFFFFFFFFFFFFFFFFFFFF DUP2 AND PUSH1 0x0 DUP2 DUP2 MSTORE PUSH1 0x11 PUSH1 0x20 MSTORE PUSH1 0x40 DUP1 DUP3 KECCAK256 SLOAD SWAP1 MLOAD PUSH32 0x70A0823100000000000000000000000000000000000000000000000000000000 DUP2 MSTORE ADDRESS PUSH1 0x4 DUP3 ADD MSTORE SWAP2 SWAP3 SWAP1 SWAP2 PUSH4 0x70A08231 SWAP1 PUSH1 0x24 ADD PUSH1 0x20 PUSH1 0x40 MLOAD DUP1 DUP4 SUB DUP2 DUP7 GAS STATICCALL ISZERO DUP1 ISZERO PUSH2 0x196A JUMPI RETURNDATASIZE PUSH1 0x0 DUP1 RETURNDATACOPY RETURNDATASIZE PUSH1 0x0 REVERT JUMPDEST POP POP POP POP PUSH1 0x40 MLOAD RETURNDATASIZE PUSH1 0x1F NOT PUSH1 0x1F DUP3 ADD AND DUP3 ADD DUP1 PUSH1 0x40 MSTORE POP DUP2 ADD SWAP1 PUSH2 0x198E SWAP2 SWAP1 PUSH2 0x5600 JUMP JUMPDEST PUSH2 0x1998 SWAP2 SWAP1 PUSH2 0x5593 JUMP JUMPDEST PUSH20 0xFFFFFFFFFFFFFFFFFFFFFFFFFFFFFFFFFFFFFFFF DUP4 AND PUSH1 0x0 SWAP1 DUP2 MSTORE PUSH1 0x7 PUSH1 0x20 MSTORE PUSH1 0x40 DUP2 KECCAK256 SLOAD SWAP2 SWAP3 POP DUP7 PUSH2 0x19CC DUP10 DUP5 PUSH2 0x55A6 JUMP JUMPDEST PUSH2 0x19D6 SWAP2 SWAP1 PUSH2 0x55EC JUMP JUMPDEST SWAP1 POP DUP1 DUP4 DUP4 EQ PUSH2 0x19F8 JUMPI DUP3 PUSH2 0x19EB DUP4 DUP7 PUSH2 0x55A6 JUMP JUMPDEST PUSH2 0x19F5 SWAP2 SWAP1 PUSH2 0x55EC JUMP JUMPDEST SWAP1 POP JUMPDEST PUSH20 0xFFFFFFFFFFFFFFFFFFFFFFFFFFFFFFFFFFFFFFFF DUP6 AND PUSH1 0x0 SWAP1 DUP2 MSTORE PUSH1 0x7 PUSH1 0x20 MSTORE PUSH1 0x40 DUP2 KECCAK256 DUP1 SLOAD DUP5 SWAP3 SWAP1 PUSH2 0x1A2D SWAP1 DUP5 SWAP1 PUSH2 0x5593 JUMP JUMPDEST SWAP3 POP POP DUP2 SWAP1 SSTORE POP DUP1 DUP8 DUP8 DUP2 MLOAD DUP2 LT PUSH2 0x1A47 JUMPI PUSH2 0x1A47 PUSH2 0x579B JUMP JUMPDEST PUSH1 0x20 SWAP1 DUP2 MUL SWAP2 SWAP1 SWAP2 ADD ADD MSTORE PUSH2 0x1A73 PUSH20 0xFFFFFFFFFFFFFFFFFFFFFFFFFFFFFFFFFFFFFFFF DUP7 AND CALLER DUP4 PUSH2 0x2DB5 JUMP JUMPDEST POP POP POP POP POP DUP1 DUP1 PUSH2 0x1A83 SWAP1 PUSH2 0x57CA JUMP JUMPDEST SWAP2 POP POP PUSH2 0x18B5 JUMP JUMPDEST POP CALLER PUSH20 0xFFFFFFFFFFFFFFFFFFFFFFFFFFFFFFFFFFFFFFFF AND PUSH32 0xAEF68853D1F7F9E4E5FE02896078A87A319C7B257208DAC49346C8F03B36C685 DUP5 DUP4 PUSH1 0x40 MLOAD PUSH2 0x1AD4 SWAP3 SWAP2 SWAP1 PUSH2 0x5865 JUMP JUMPDEST PUSH1 0x40 MLOAD DUP1 SWAP2 SUB SWAP1 LOG2 POP POP POP JUMP JUMPDEST PUSH1 0x60 PUSH1 0x16 DUP1 SLOAD PUSH2 0x7C7 SWAP1 PUSH2 0x54FE JUMP JUMPDEST PUSH2 0x1AFC PUSH1 0x40 PUSH1 0x2 PUSH2 0x578F JUMP JUMPDEST DUP7 SUB PUSH2 0x1B07 JUMPI PUSH1 0x0 DUP1 REVERT JUMPDEST PUSH1 0x3 DUP10 GT ISZERO PUSH2 0x1B15 JUMPI PUSH1 0x0 DUP1 REVERT JUMPDEST PUSH1 0x17 DUP7 SWAP1 SSTORE PUSH1 0x0 DUP1 JUMPDEST DUP11 DUP2 LT ISZERO PUSH2 0x1DE4 JUMPI DUP12 DUP12 DUP3 DUP2 DUP2 LT PUSH2 0x1B38 JUMPI PUSH2 0x1B38 PUSH2 0x579B JUMP JUMPDEST SWAP1 POP PUSH1 0x20 MUL ADD PUSH1 0x20 DUP2 ADD SWAP1 PUSH2 0x1B4D SWAP2 SWAP1 PUSH2 0x5024 JUMP JUMPDEST PUSH1 0x0 DUP3 DUP2 MSTORE PUSH1 0x6 PUSH1 0x20 MSTORE PUSH1 0x40 SWAP1 KECCAK256 DUP1 SLOAD PUSH32 0xFFFFFFFFFFFFFFFFFFFFFFFF0000000000000000000000000000000000000000 AND PUSH20 0xFFFFFFFFFFFFFFFFFFFFFFFFFFFFFFFFFFFFFFFF SWAP3 SWAP1 SWAP3 AND SWAP2 SWAP1 SWAP2 OR SWAP1 SSTORE DUP10 DUP10 DUP3 DUP2 DUP2 LT PUSH2 0x1BB0 JUMPI PUSH2 0x1BB0 PUSH2 0x579B JUMP JUMPDEST SWAP1 POP PUSH1 0x20 MUL ADD CALLDATALOAD PUSH1 0x8 PUSH1 0x0 DUP15 DUP15 DUP6 DUP2 DUP2 LT PUSH2 0x1BCD JUMPI PUSH2 0x1BCD PUSH2 0x579B JUMP JUMPDEST SWAP1 POP PUSH1 0x20 MUL ADD PUSH1 0x20 DUP2 ADD SWAP1 PUSH2 0x1BE2 SWAP2 SWAP1 PUSH2 0x5024 JUMP JUMPDEST PUSH20 0xFFFFFFFFFFFFFFFFFFFFFFFFFFFFFFFFFFFFFFFF AND DUP2 MSTORE PUSH1 0x20 DUP2 ADD SWAP2 SWAP1 SWAP2 MSTORE PUSH1 0x40 ADD PUSH1 0x0 KECCAK256 SSTORE DUP10 DUP10 DUP3 DUP2 DUP2 LT PUSH2 0x1C1B JUMPI PUSH2 0x1C1B PUSH2 0x579B JUMP JUMPDEST SWAP1 POP PUSH1 0x20 MUL ADD CALLDATALOAD PUSH1 0x9 PUSH1 0x0 DUP3 DUP3 SLOAD PUSH2 0x1C33 SWAP2 SWAP1 PUSH2 0x5580 JUMP JUMPDEST SWAP1 SWAP2 SSTORE POP PUSH1 0x0 SWAP1 POP DUP13 DUP13 DUP4 DUP2 DUP2 LT PUSH2 0x1C4D JUMPI PUSH2 0x1C4D PUSH2 0x579B JUMP JUMPDEST SWAP1 POP PUSH1 0x20 MUL ADD PUSH1 0x20 DUP2 ADD SWAP1 PUSH2 0x1C62 SWAP2 SWAP1 PUSH2 0x5024 JUMP JUMPDEST PUSH1 0x40 MLOAD PUSH32 0x70A0823100000000000000000000000000000000000000000000000000000000 DUP2 MSTORE ADDRESS PUSH1 0x4 DUP3 ADD MSTORE PUSH20 0xFFFFFFFFFFFFFFFFFFFFFFFFFFFFFFFFFFFFFFFF SWAP2 SWAP1 SWAP2 AND SWAP1 PUSH4 0x70A08231 SWAP1 PUSH1 0x24 ADD PUSH1 0x20 PUSH1 0x40 MLOAD DUP1 DUP4 SUB DUP2 DUP7 GAS STATICCALL ISZERO DUP1 ISZERO PUSH2 0x1CCE JUMPI RETURNDATASIZE PUSH1 0x0 DUP1 RETURNDATACOPY RETURNDATASIZE PUSH1 0x0 REVERT JUMPDEST POP POP POP POP PUSH1 0x40 MLOAD RETURNDATASIZE PUSH1 0x1F NOT PUSH1 0x1F DUP3 ADD AND DUP3 ADD DUP1 PUSH1 0x40 MSTORE POP DUP2 ADD SWAP1 PUSH2 0x1CF2 SWAP2 SWAP1 PUSH2 0x5600 JUMP JUMPDEST SWAP1 POP PUSH1 0x0 DUP2 GT PUSH2 0x1D01 JUMPI PUSH1 0x0 DUP1 REVERT JUMPDEST DUP1 PUSH1 0x7 PUSH1 0x0 DUP16 DUP16 DUP7 DUP2 DUP2 LT PUSH2 0x1D18 JUMPI PUSH2 0x1D18 PUSH2 0x579B JUMP JUMPDEST SWAP1 POP PUSH1 0x20 MUL ADD PUSH1 0x20 DUP2 ADD SWAP1 PUSH2 0x1D2D SWAP2 SWAP1 PUSH2 0x5024 JUMP JUMPDEST PUSH20 0xFFFFFFFFFFFFFFFFFFFFFFFFFFFFFFFFFFFFFFFF AND PUSH20 0xFFFFFFFFFFFFFFFFFFFFFFFFFFFFFFFFFFFFFFFF AND DUP2 MSTORE PUSH1 0x20 ADD SWAP1 DUP2 MSTORE PUSH1 0x20 ADD PUSH1 0x0 KECCAK256 PUSH1 0x0 DUP3 DUP3 SLOAD PUSH2 0x1D76 SWAP2 SWAP1 PUSH2 0x5580 JUMP JUMPDEST SWAP1 SWAP2 SSTORE POP PUSH2 0x1DA1 SWAP1 POP PUSH1 0x40 DUP3 DUP2 SHL SWAP1 DUP12 SWAP1 PUSH2 0x1D92 SWAP1 PUSH1 0x2 PUSH2 0x578F JUMP JUMPDEST PUSH2 0x1D9C SWAP2 SWAP1 PUSH2 0x5593 JUMP JUMPDEST PUSH2 0x3AC7 JUMP JUMPDEST DUP12 DUP12 DUP5 DUP2 DUP2 LT PUSH2 0x1DB3 JUMPI PUSH2 0x1DB3 PUSH2 0x579B JUMP JUMPDEST SWAP1 POP PUSH1 0x20 MUL ADD CALLDATALOAD PUSH2 0x1DC4 SWAP2 SWAP1 PUSH2 0x55A6 JUMP JUMPDEST PUSH2 0x1DCE SWAP1 DUP5 PUSH2 0x5580 JUMP JUMPDEST SWAP3 POP POP DUP1 DUP1 PUSH2 0x1DDC SWAP1 PUSH2 0x57CA JUMP JUMPDEST SWAP2 POP POP PUSH2 0x1B1E JUMP JUMPDEST POP PUSH2 0x1E04 DUP8 PUSH2 0x1DF5 PUSH1 0x40 PUSH1 0x2 PUSH2 0x578F JUMP JUMPDEST PUSH2 0x1DFF SWAP2 SWAP1 PUSH2 0x5593 JUMP JUMPDEST PUSH2 0x3F8C JUMP JUMPDEST PUSH2 0x1E10 PUSH1 0x40 PUSH1 0x2 PUSH2 0x578F JUMP JUMPDEST PUSH2 0x1E1A SWAP2 SWAP1 PUSH2 0x5593 JUMP JUMPDEST PUSH1 0x18 DUP2 SWAP1 SSTORE PUSH2 0x1E29 SWAP1 DUP3 PUSH2 0x2D20 JUMP JUMPDEST PUSH1 0xC SSTORE POP PUSH2 0x1E3B DUP6 DUP6 DUP6 DUP6 DUP16 DUP7 PUSH2 0x41DE JUMP JUMPDEST POP POP POP POP POP POP POP POP POP POP POP JUMP JUMPDEST PUSH20 0xFFFFFFFFFFFFFFFFFFFFFFFFFFFFFFFFFFFFFFFF DUP3 AND PUSH1 0x0 SWAP1 DUP2 MSTORE PUSH1 0x7 PUSH1 0x20 SWAP1 DUP2 MSTORE PUSH1 0x40 DUP1 DUP4 KECCAK256 SLOAD PUSH1 0x8 SWAP1 SWAP3 MSTORE DUP3 KECCAK256 SLOAD PUSH24 0xFFFFFFFFFFFFFFFFFFFFFFFFFFFFFFFFFFFFFFFFFFFFFFFF DUP3 LT PUSH2 0x1E9D JUMPI PUSH1 0x0 DUP1 REVERT JUMPDEST PUSH2 0xBD8 DUP5 DUP4 DUP4 PUSH1 0x17 SLOAD PUSH2 0x429E JUMP JUMPDEST CALLER PUSH1 0x0 DUP2 DUP2 MSTORE PUSH1 0x1 PUSH1 0x20 SWAP1 DUP2 MSTORE PUSH1 0x40 DUP1 DUP4 KECCAK256 PUSH20 0xFFFFFFFFFFFFFFFFFFFFFFFFFFFFFFFFFFFFFFFF DUP8 AND DUP5 MSTORE SWAP1 SWAP2 MSTORE DUP2 KECCAK256 SLOAD SWAP1 SWAP2 SWAP1 DUP4 DUP2 LT ISZERO PUSH2 0x1F6F JUMPI PUSH1 0x40 MLOAD PUSH32 0x8C379A000000000000000000000000000000000000000000000000000000000 DUP2 MSTORE PUSH1 0x20 PUSH1 0x4 DUP3 ADD MSTORE PUSH1 0x25 PUSH1 0x24 DUP3 ADD MSTORE PUSH32 0x45524332303A2064656372656173656420616C6C6F77616E63652062656C6F77 PUSH1 0x44 DUP3 ADD MSTORE PUSH32 0x207A65726F000000000000000000000000000000000000000000000000000000 PUSH1 0x64 DUP3 ADD MSTORE PUSH1 0x84 ADD PUSH2 0x975 JUMP JUMPDEST PUSH2 0x1F7C DUP3 DUP7 DUP7 DUP5 SUB PUSH2 0x2B6D JUMP JUMPDEST POP PUSH1 0x1 SWAP5 SWAP4 POP POP POP POP JUMP JUMPDEST PUSH1 0x0 CALLER PUSH2 0x858 DUP2 DUP6 DUP6 PUSH2 0x2FBD JUMP JUMPDEST PUSH1 0x5 SLOAD PUSH20 0xFFFFFFFFFFFFFFFFFFFFFFFFFFFFFFFFFFFFFFFF AND CALLER EQ PUSH2 0x1FB9 JUMPI PUSH1 0x0 DUP1 REVERT JUMPDEST PUSH1 0x0 DUP2 DUP2 MSTORE PUSH1 0x12 PUSH1 0x20 SWAP1 DUP2 MSTORE PUSH1 0x40 DUP1 DUP4 KECCAK256 DUP2 MLOAD PUSH1 0x60 DUP2 ADD DUP4 MSTORE DUP2 SLOAD PUSH20 0xFFFFFFFFFFFFFFFFFFFFFFFFFFFFFFFFFFFFFFFF SWAP1 DUP2 AND DUP3 MSTORE PUSH1 0x1 DUP4 ADD SLOAD DUP3 DUP7 ADD DUP2 SWAP1 MSTORE PUSH1 0x2 SWAP1 SWAP4 ADD SLOAD AND DUP2 DUP5 ADD DUP2 SWAP1 MSTORE DUP6 MSTORE PUSH1 0x11 SWAP1 SWAP4 MSTORE SWAP1 DUP4 KECCAK256 DUP1 SLOAD SWAP3 SWAP4 SWAP2 SWAP3 SWAP1 SWAP2 SWAP1 PUSH2 0x2024 SWAP1 DUP5 SWAP1 PUSH2 0x5593 JUMP JUMPDEST SWAP1 SWAP2 SSTORE POP POP DUP1 MLOAD PUSH1 0x20 DUP3 ADD MLOAD PUSH1 0x40 DUP4 ADD MLOAD PUSH2 0x2057 SWAP3 PUSH20 0xFFFFFFFFFFFFFFFFFFFFFFFFFFFFFFFFFFFFFFFF SWAP1 SWAP2 AND SWAP2 PUSH2 0x2DB5 JUMP JUMPDEST PUSH1 0x40 MLOAD DUP3 DUP2 MSTORE PUSH32 0x2ED3176C48E2338524348CC2055ADB2C2D41E9022E0A6A18D843C9ED5BE9A3A3 SWAP1 PUSH1 0x20 ADD JUMPDEST PUSH1 0x40 MLOAD DUP1 SWAP2 SUB SWAP1 LOG1 POP PUSH1 0x0 SWAP1 DUP2 MSTORE PUSH1 0x12 PUSH1 0x20 MSTORE PUSH1 0x40 DUP2 KECCAK256 DUP1 SLOAD PUSH32 0xFFFFFFFFFFFFFFFFFFFFFFFF0000000000000000000000000000000000000000 SWAP1 DUP2 AND DUP3 SSTORE PUSH1 0x1 DUP3 ADD SWAP3 SWAP1 SWAP3 SSTORE PUSH1 0x2 ADD DUP1 SLOAD SWAP1 SWAP2 AND SWAP1 SSTORE JUMP JUMPDEST PUSH1 0xB SLOAD PUSH20 0xFFFFFFFFFFFFFFFFFFFFFFFFFFFFFFFFFFFFFFFF AND ORIGIN EQ DUP1 PUSH2 0x2113 JUMPI POP PUSH1 0xB SLOAD PUSH20 0xFFFFFFFFFFFFFFFFFFFFFFFFFFFFFFFFFFFFFFFF AND CALLER EQ JUMPDEST PUSH2 0x211C JUMPI PUSH1 0x0 DUP1 REVERT JUMPDEST PUSH1 0x5 DUP1 SLOAD PUSH32 0xFFFFFFFFFFFFFFFFFFFFFF00FFFFFFFFFFFFFFFFFFFFFFFFFFFFFFFFFFFFFFFF DUP2 AND SWAP1 SWAP2 SSTORE PUSH1 0x40 MLOAD PUSH32 0x92A9BDB300000000000000000000000000000000000000000000000000000000 DUP2 MSTORE PUSH1 0x4 DUP2 ADD DUP6 SWAP1 MSTORE PUSH1 0x24 DUP2 ADD DUP5 SWAP1 MSTORE DUP3 ISZERO ISZERO PUSH1 0x44 DUP3 ADD MSTORE PUSH20 0xFFFFFFFFFFFFFFFFFFFFFFFFFFFFFFFFFFFFFFFF SWAP1 SWAP2 AND SWAP1 PUSH4 0x92A9BDB3 SWAP1 PUSH1 0x64 ADD PUSH1 0x0 PUSH1 0x40 MLOAD DUP1 DUP4 SUB DUP2 PUSH1 0x0 DUP8 DUP1 EXTCODESIZE ISZERO DUP1 ISZERO PUSH2 0x21BE JUMPI PUSH1 0x0 DUP1 REVERT JUMPDEST POP GAS CALL ISZERO DUP1 ISZERO PUSH2 0x21D2 JUMPI RETURNDATASIZE PUSH1 0x0 DUP1 RETURNDATACOPY RETURNDATASIZE PUSH1 0x0 REVERT JUMPDEST POP POP POP POP POP POP POP JUMP JUMPDEST PUSH1 0x40 DUP1 MLOAD PUSH1 0x3 DUP1 DUP3 MSTORE PUSH1 0x80 DUP3 ADD SWAP1 SWAP3 MSTORE PUSH1 0x0 SWAP2 DUP3 SWAP2 DUP3 SWAP2 PUSH1 0x20 DUP3 ADD PUSH1 0x60 DUP1 CALLDATASIZE DUP4 CALLDATACOPY ADD SWAP1 POP POP PUSH1 0x17 SLOAD SWAP1 SWAP2 POP PUSH1 0x0 DUP1 JUMPDEST PUSH1 0x3 DUP2 LT ISZERO PUSH2 0x23D1 JUMPI PUSH1 0x0 DUP2 DUP2 MSTORE PUSH1 0x6 PUSH1 0x20 MSTORE PUSH1 0x40 SWAP1 KECCAK256 SLOAD PUSH20 0xFFFFFFFFFFFFFFFFFFFFFFFFFFFFFFFFFFFFFFFF AND DUP1 PUSH2 0x2243 JUMPI POP PUSH2 0x23D1 JUMP JUMPDEST PUSH20 0xFFFFFFFFFFFFFFFFFFFFFFFFFFFFFFFFFFFFFFFF DUP2 AND PUSH1 0x0 DUP2 DUP2 MSTORE PUSH1 0x7 PUSH1 0x20 MSTORE PUSH1 0x40 DUP1 DUP3 KECCAK256 SLOAD SWAP1 MLOAD PUSH32 0x70A0823100000000000000000000000000000000000000000000000000000000 DUP2 MSTORE ADDRESS PUSH1 0x4 DUP3 ADD MSTORE SWAP1 SWAP3 SWAP1 PUSH4 0x70A08231 SWAP1 PUSH1 0x24 ADD PUSH1 0x20 PUSH1 0x40 MLOAD DUP1 DUP4 SUB DUP2 DUP7 GAS STATICCALL ISZERO DUP1 ISZERO PUSH2 0x22BE JUMPI RETURNDATASIZE PUSH1 0x0 DUP1 RETURNDATACOPY RETURNDATASIZE PUSH1 0x0 REVERT JUMPDEST POP POP POP POP PUSH1 0x40 MLOAD RETURNDATASIZE PUSH1 0x1F NOT PUSH1 0x1F DUP3 ADD AND DUP3 ADD DUP1 PUSH1 0x40 MSTORE POP DUP2 ADD SWAP1 PUSH2 0x22E2 SWAP2 SWAP1 PUSH2 0x5600 JUMP JUMPDEST PUSH20 0xFFFFFFFFFFFFFFFFFFFFFFFFFFFFFFFFFFFFFFFF DUP5 AND PUSH1 0x0 SWAP1 DUP2 MSTORE PUSH1 0x8 PUSH1 0x20 MSTORE PUSH1 0x40 SWAP1 KECCAK256 SLOAD SWAP1 SWAP2 POP DUP3 DUP3 GT ISZERO PUSH2 0x2339 JUMPI PUSH2 0x2328 PUSH2 0x2320 DUP5 DUP5 PUSH2 0x5593 JUMP JUMPDEST DUP5 DUP4 DUP11 PUSH2 0x429E JUMP JUMPDEST PUSH2 0x2332 SWAP1 DUP8 PUSH2 0x58B3 JUMP JUMPDEST SWAP6 POP PUSH2 0x235B JUMP JUMPDEST PUSH2 0x234E PUSH2 0x2346 DUP4 DUP6 PUSH2 0x5593 JUMP JUMPDEST DUP4 DUP4 DUP11 PUSH2 0x429E JUMP JUMPDEST PUSH2 0x2358 SWAP1 DUP8 PUSH2 0x5619 JUMP JUMPDEST SWAP6 POP JUMPDEST DUP4 DUP9 DUP7 DUP2 MLOAD DUP2 LT PUSH2 0x236E JUMPI PUSH2 0x236E PUSH2 0x579B JUMP JUMPDEST PUSH20 0xFFFFFFFFFFFFFFFFFFFFFFFFFFFFFFFFFFFFFFFF SWAP1 SWAP3 AND PUSH1 0x20 SWAP3 DUP4 MUL SWAP2 SWAP1 SWAP2 ADD SWAP1 SWAP2 ADD MSTORE PUSH2 0x23A4 DUP4 DUP9 PUSH2 0x1D92 PUSH1 0x40 PUSH1 0x2 PUSH2 0x578F JUMP JUMPDEST PUSH2 0x23AE SWAP1 DUP3 PUSH2 0x55A6 JUMP JUMPDEST PUSH2 0x23B8 SWAP1 DUP11 PUSH2 0x5580 JUMP JUMPDEST SWAP9 POP POP POP POP POP DUP1 DUP1 PUSH2 0x23C9 SWAP1 PUSH2 0x57CA JUMP JUMPDEST SWAP2 POP POP PUSH2 0x220A JUMP JUMPDEST DUP2 PUSH1 0x1A SLOAD PUSH2 0x23DF SWAP2 SWAP1 PUSH2 0x5619 JUMP JUMPDEST SWAP2 POP PUSH1 0x0 PUSH2 0x2408 DUP6 PUSH1 0x0 DUP2 MLOAD DUP2 LT PUSH2 0x23F9 JUMPI PUSH2 0x23F9 PUSH2 0x579B JUMP JUMPDEST PUSH1 0x20 MUL PUSH1 0x20 ADD ADD MLOAD DUP5 DUP9 PUSH2 0xBE1 JUMP JUMPDEST SWAP1 POP PUSH1 0x0 PUSH2 0x2415 PUSH1 0x2 SLOAD SWAP1 JUMP JUMPDEST SWAP1 POP PUSH1 0x0 PUSH1 0x7 PUSH1 0x0 DUP9 PUSH1 0x0 DUP2 MLOAD DUP2 LT PUSH2 0x2430 JUMPI PUSH2 0x2430 PUSH2 0x579B JUMP JUMPDEST PUSH1 0x20 MUL PUSH1 0x20 ADD ADD MLOAD PUSH20 0xFFFFFFFFFFFFFFFFFFFFFFFFFFFFFFFFFFFFFFFF AND PUSH20 0xFFFFFFFFFFFFFFFFFFFFFFFFFFFFFFFFFFFFFFFF AND DUP2 MSTORE PUSH1 0x20 ADD SWAP1 DUP2 MSTORE PUSH1 0x20 ADD PUSH1 0x0 KECCAK256 SLOAD DUP3 DUP5 PUSH2 0x247F SWAP2 SWAP1 PUSH2 0x55A6 JUMP JUMPDEST PUSH2 0x2489 SWAP2 SWAP1 PUSH2 0x55EC JUMP JUMPDEST SWAP1 POP DUP3 PUSH1 0x7 PUSH1 0x0 DUP10 PUSH1 0x0 DUP2 MLOAD DUP2 LT PUSH2 0x24A3 JUMPI PUSH2 0x24A3 PUSH2 0x579B JUMP JUMPDEST PUSH1 0x20 MUL PUSH1 0x20 ADD ADD MLOAD PUSH20 0xFFFFFFFFFFFFFFFFFFFFFFFFFFFFFFFFFFFFFFFF AND PUSH20 0xFFFFFFFFFFFFFFFFFFFFFFFFFFFFFFFFFFFFFFFF AND DUP2 MSTORE PUSH1 0x20 ADD SWAP1 DUP2 MSTORE PUSH1 0x20 ADD PUSH1 0x0 KECCAK256 PUSH1 0x0 DUP3 DUP3 SLOAD PUSH2 0x24F4 SWAP2 SWAP1 PUSH2 0x5580 JUMP JUMPDEST SWAP1 SWAP2 SSTORE POP PUSH1 0x0 SWAP1 POP JUMPDEST DUP5 DUP2 LT ISZERO PUSH2 0x25E8 JUMPI DUP2 PUSH1 0x7 PUSH1 0x0 DUP11 DUP5 DUP2 MLOAD DUP2 LT PUSH2 0x251C JUMPI PUSH2 0x251C PUSH2 0x579B JUMP JUMPDEST PUSH1 0x20 MUL PUSH1 0x20 ADD ADD MLOAD PUSH20 0xFFFFFFFFFFFFFFFFFFFFFFFFFFFFFFFFFFFFFFFF AND PUSH20 0xFFFFFFFFFFFFFFFFFFFFFFFFFFFFFFFFFFFFFFFF AND DUP2 MSTORE PUSH1 0x20 ADD SWAP1 DUP2 MSTORE PUSH1 0x20 ADD PUSH1 0x0 KECCAK256 SLOAD PUSH2 0x2569 SWAP2 SWAP1 PUSH2 0x55A6 JUMP JUMPDEST PUSH1 0x7 PUSH1 0x0 DUP11 DUP5 DUP2 MLOAD DUP2 LT PUSH2 0x257F JUMPI PUSH2 0x257F PUSH2 0x579B JUMP JUMPDEST PUSH1 0x20 MUL PUSH1 0x20 ADD ADD MLOAD PUSH20 0xFFFFFFFFFFFFFFFFFFFFFFFFFFFFFFFFFFFFFFFF AND PUSH20 0xFFFFFFFFFFFFFFFFFFFFFFFFFFFFFFFFFFFFFFFF AND DUP2 MSTORE PUSH1 0x20 ADD SWAP1 DUP2 MSTORE PUSH1 0x20 ADD PUSH1 0x0 KECCAK256 PUSH1 0x0 DUP3 DUP3 SLOAD PUSH2 0x25D0 SWAP2 SWAP1 PUSH2 0x5580 JUMP JUMPDEST SWAP1 SWAP2 SSTORE POP DUP2 SWAP1 POP PUSH2 0x25E0 DUP2 PUSH2 0x57CA JUMP JUMPDEST SWAP2 POP POP PUSH2 0x24FD JUMP JUMPDEST POP SWAP9 SWAP8 POP POP POP POP POP POP POP POP JUMP JUMPDEST PUSH1 0x0 PUSH2 0x2609 DUP13 DUP13 DUP13 DUP13 DUP13 DUP13 DUP13 DUP12 DUP12 DUP12 PUSH2 0x42F3 JUMP JUMPDEST SWAP13 SWAP12 POP POP POP POP POP POP POP POP POP POP POP POP JUMP JUMPDEST PUSH2 0x2623 PUSH1 0x0 PUSH2 0x3ADE JUMP JUMPDEST PUSH1 0x0 PUSH2 0x262E PUSH1 0x2 SLOAD SWAP1 JUMP JUMPDEST PUSH1 0x40 DUP1 MLOAD PUSH1 0x3 DUP1 DUP3 MSTORE PUSH1 0x80 DUP3 ADD SWAP1 SWAP3 MSTORE SWAP2 SWAP3 POP PUSH1 0x0 SWAP2 SWAP1 PUSH1 0x20 DUP3 ADD PUSH1 0x60 DUP1 CALLDATASIZE DUP4 CALLDATACOPY ADD SWAP1 POP POP SWAP1 POP PUSH1 0x0 JUMPDEST PUSH1 0x3 DUP2 LT ISZERO PUSH2 0x2816 JUMPI PUSH1 0x0 DUP2 DUP2 MSTORE PUSH1 0x6 PUSH1 0x20 MSTORE PUSH1 0x40 SWAP1 KECCAK256 SLOAD PUSH20 0xFFFFFFFFFFFFFFFFFFFFFFFFFFFFFFFFFFFFFFFF AND DUP1 PUSH2 0x2691 JUMPI POP PUSH2 0x2816 JUMP JUMPDEST PUSH1 0x40 MLOAD PUSH32 0x70A0823100000000000000000000000000000000000000000000000000000000 DUP2 MSTORE ADDRESS PUSH1 0x4 DUP3 ADD MSTORE PUSH1 0x0 SWAP1 PUSH20 0xFFFFFFFFFFFFFFFFFFFFFFFFFFFFFFFFFFFFFFFF DUP4 AND SWAP1 PUSH4 0x70A08231 SWAP1 PUSH1 0x24 ADD PUSH1 0x20 PUSH1 0x40 MLOAD DUP1 DUP4 SUB DUP2 DUP7 GAS STATICCALL ISZERO DUP1 ISZERO PUSH2 0x26FE JUMPI RETURNDATASIZE PUSH1 0x0 DUP1 RETURNDATACOPY RETURNDATASIZE PUSH1 0x0 REVERT JUMPDEST POP POP POP POP PUSH1 0x40 MLOAD RETURNDATASIZE PUSH1 0x1F NOT PUSH1 0x1F DUP3 ADD AND DUP3 ADD DUP1 PUSH1 0x40 MSTORE POP DUP2 ADD SWAP1 PUSH2 0x2722 SWAP2 SWAP1 PUSH2 0x5600 JUMP JUMPDEST PUSH20 0xFFFFFFFFFFFFFFFFFFFFFFFFFFFFFFFFFFFFFFFF DUP4 AND PUSH1 0x0 SWAP1 DUP2 MSTORE PUSH1 0x7 PUSH1 0x20 MSTORE PUSH1 0x40 DUP2 KECCAK256 SLOAD SWAP2 SWAP3 POP DUP7 PUSH2 0x2756 DUP10 DUP5 PUSH2 0x55A6 JUMP JUMPDEST PUSH2 0x2760 SWAP2 SWAP1 PUSH2 0x55EC JUMP JUMPDEST SWAP1 POP DUP1 DUP4 DUP4 EQ PUSH2 0x2782 JUMPI DUP3 PUSH2 0x2775 DUP4 DUP7 PUSH2 0x55A6 JUMP JUMPDEST PUSH2 0x277F SWAP2 SWAP1 PUSH2 0x55EC JUMP JUMPDEST SWAP1 POP JUMPDEST PUSH20 0xFFFFFFFFFFFFFFFFFFFFFFFFFFFFFFFFFFFFFFFF DUP6 AND PUSH1 0x0 SWAP1 DUP2 MSTORE PUSH1 0x7 PUSH1 0x20 MSTORE PUSH1 0x40 DUP2 KECCAK256 DUP1 SLOAD DUP5 SWAP3 SWAP1 PUSH2 0x27B7 SWAP1 DUP5 SWAP1 PUSH2 0x5580 JUMP JUMPDEST SWAP3 POP POP DUP2 SWAP1 SSTORE POP DUP1 DUP8 DUP8 DUP2 MLOAD DUP2 LT PUSH2 0x27D1 JUMPI PUSH2 0x27D1 PUSH2 0x579B JUMP JUMPDEST PUSH1 0x20 SWAP1 DUP2 MUL SWAP2 SWAP1 SWAP2 ADD ADD MSTORE PUSH2 0x27FE PUSH20 0xFFFFFFFFFFFFFFFFFFFFFFFFFFFFFFFFFFFFFFFF DUP7 AND CALLER ADDRESS DUP5 PUSH2 0x2E8E JUMP JUMPDEST POP POP POP POP POP DUP1 DUP1 PUSH2 0x280E SWAP1 PUSH2 0x57CA JUMP JUMPDEST SWAP2 POP POP PUSH2 0x2658 JUMP JUMPDEST POP PUSH2 0x2821 CALLER DUP5 PUSH2 0x3C7F JUMP JUMPDEST CALLER PUSH20 0xFFFFFFFFFFFFFFFFFFFFFFFFFFFFFFFFFFFFFFFF AND PUSH32 0xE7425730072F5A6EC278AE24C998F6A79299C875CBD84AD35585563A0CB3C666 DUP5 DUP4 PUSH1 0x40 MLOAD PUSH2 0x1AD4 SWAP3 SWAP2 SWAP1 PUSH2 0x5865 JUMP JUMPDEST PUSH1 0xB SLOAD PUSH20 0xFFFFFFFFFFFFFFFFFFFFFFFFFFFFFFFFFFFFFFFF AND ORIGIN EQ DUP1 PUSH2 0x28A6 JUMPI POP PUSH1 0xB SLOAD PUSH20 0xFFFFFFFFFFFFFFFFFFFFFFFFFFFFFFFFFFFFFFFF AND CALLER EQ JUMPDEST PUSH2 0x28AF JUMPI PUSH1 0x0 DUP1 REVERT JUMPDEST PUSH1 0x5 DUP1 SLOAD PUSH32 0xFFFFFFFFFFFFFFFFFFFFFF00FFFFFFFFFFFFFFFFFFFFFFFFFFFFFFFFFFFFFFFF DUP2 AND SWAP1 SWAP2 SSTORE PUSH1 0x40 MLOAD PUSH32 0xCEC8A39500000000000000000000000000000000000000000000000000000000 DUP2 MSTORE PUSH1 0x4 DUP2 ADD DUP6 SWAP1 MSTORE PUSH1 0x24 DUP2 ADD DUP5 SWAP1 MSTORE DUP3 ISZERO ISZERO PUSH1 0x44 DUP3 ADD MSTORE PUSH20 0xFFFFFFFFFFFFFFFFFFFFFFFFFFFFFFFFFFFFFFFF SWAP1 SWAP2 AND SWAP1 PUSH4 0xCEC8A395 SWAP1 PUSH1 0x64 ADD PUSH1 0x20 PUSH1 0x40 MLOAD DUP1 DUP4 SUB DUP2 PUSH1 0x0 DUP8 GAS CALL ISZERO DUP1 ISZERO PUSH2 0x2956 JUMPI RETURNDATASIZE PUSH1 0x0 DUP1 RETURNDATACOPY RETURNDATASIZE PUSH1 0x0 REVERT JUMPDEST POP POP POP POP PUSH1 0x40 MLOAD RETURNDATASIZE PUSH1 0x1F NOT PUSH1 0x1F DUP3 ADD AND DUP3 ADD DUP1 PUSH1 0x40 MSTORE POP DUP2 ADD SWAP1 PUSH2 0x297A SWAP2 SWAP1 PUSH2 0x58DB JUMP JUMPDEST POP POP POP POP JUMP JUMPDEST PUSH20 0xFFFFFFFFFFFFFFFFFFFFFFFFFFFFFFFFFFFFFFFF DUP3 AND PUSH1 0x0 DUP2 DUP2 MSTORE PUSH1 0x8 PUSH1 0x20 MSTORE PUSH1 0x40 DUP1 DUP3 KECCAK256 SLOAD SWAP1 MLOAD PUSH32 0x70A0823100000000000000000000000000000000000000000000000000000000 DUP2 MSTORE ADDRESS PUSH1 0x4 DUP3 ADD MSTORE SWAP2 SWAP3 SWAP1 SWAP2 DUP4 SWAP2 SWAP1 PUSH4 0x70A08231 SWAP1 PUSH1 0x24 ADD PUSH1 0x20 PUSH1 0x40 MLOAD DUP1 DUP4 SUB DUP2 DUP7 GAS STATICCALL ISZERO DUP1 ISZERO PUSH2 0x29FF JUMPI RETURNDATASIZE PUSH1 0x0 DUP1 RETURNDATACOPY RETURNDATASIZE PUSH1 0x0 REVERT JUMPDEST POP POP POP POP PUSH1 0x40 MLOAD RETURNDATASIZE PUSH1 0x1F NOT PUSH1 0x1F DUP3 ADD AND DUP3 ADD DUP1 PUSH1 0x40 MSTORE POP DUP2 ADD SWAP1 PUSH2 0x2A23 SWAP2 SWAP1 PUSH2 0x5600 JUMP JUMPDEST SWAP1 POP PUSH24 0xFFFFFFFFFFFFFFFFFFFFFFFFFFFFFFFFFFFFFFFFFFFFFFFF PUSH2 0x2A48 DUP6 DUP4 PUSH2 0x5580 JUMP JUMPDEST LT PUSH1 0x40 MLOAD DUP1 PUSH1 0x60 ADD PUSH1 0x40 MSTORE DUP1 PUSH1 0x25 DUP2 MSTORE PUSH1 0x20 ADD PUSH2 0x5AF8 PUSH1 0x25 SWAP2 CODECOPY SWAP1 PUSH2 0x2A9A JUMPI PUSH1 0x40 MLOAD PUSH32 0x8C379A000000000000000000000000000000000000000000000000000000000 DUP2 MSTORE PUSH1 0x4 ADD PUSH2 0x975 SWAP2 SWAP1 PUSH2 0x4F02 JUMP JUMPDEST POP PUSH2 0xBD8 DUP5 DUP3 DUP5 PUSH1 0x17 SLOAD PUSH2 0x46D8 JUMP JUMPDEST PUSH1 0x5 SLOAD PUSH20 0xFFFFFFFFFFFFFFFFFFFFFFFFFFFFFFFFFFFFFFFF AND CALLER EQ PUSH2 0x2ACD JUMPI PUSH1 0x0 DUP1 REVERT JUMPDEST PUSH1 0x0 DUP2 DUP2 MSTORE PUSH1 0x12 PUSH1 0x20 SWAP1 DUP2 MSTORE PUSH1 0x40 DUP1 DUP4 KECCAK256 DUP2 MLOAD PUSH1 0x60 DUP2 ADD DUP4 MSTORE DUP2 SLOAD PUSH20 0xFFFFFFFFFFFFFFFFFFFFFFFFFFFFFFFFFFFFFFFF SWAP1 DUP2 AND DUP3 MSTORE PUSH1 0x1 DUP4 ADD SLOAD DUP3 DUP7 ADD DUP2 SWAP1 MSTORE PUSH1 0x2 SWAP1 SWAP4 ADD SLOAD AND DUP2 DUP5 ADD DUP2 SWAP1 MSTORE DUP6 MSTORE PUSH1 0x11 SWAP1 SWAP4 MSTORE SWAP1 DUP4 KECCAK256 DUP1 SLOAD SWAP3 SWAP4 SWAP2 SWAP3 SWAP1 SWAP2 SWAP1 PUSH2 0x2B38 SWAP1 DUP5 SWAP1 PUSH2 0x5593 JUMP JUMPDEST SWAP1 SWAP2 SSTORE POP POP PUSH1 0x40 MLOAD DUP3 DUP2 MSTORE PUSH32 0x44898AB65AFFAD4F975E5A33A5F62FC75A177F6E222DA2585627711F4B0F50F5 SWAP1 PUSH1 0x20 ADD PUSH2 0x2083 JUMP JUMPDEST PUSH20 0xFFFFFFFFFFFFFFFFFFFFFFFFFFFFFFFFFFFFFFFF DUP4 AND PUSH2 0x2C0F JUMPI PUSH1 0x40 MLOAD PUSH32 0x8C379A000000000000000000000000000000000000000000000000000000000 DUP2 MSTORE PUSH1 0x20 PUSH1 0x4 DUP3 ADD MSTORE PUSH1 0x24 DUP1 DUP3 ADD MSTORE PUSH32 0x45524332303A20617070726F76652066726F6D20746865207A65726F20616464 PUSH1 0x44 DUP3 ADD MSTORE PUSH32 0x7265737300000000000000000000000000000000000000000000000000000000 PUSH1 0x64 DUP3 ADD MSTORE PUSH1 0x84 ADD PUSH2 0x975 JUMP JUMPDEST PUSH20 0xFFFFFFFFFFFFFFFFFFFFFFFFFFFFFFFFFFFFFFFF DUP3 AND PUSH2 0x2CB2 JUMPI PUSH1 0x40 MLOAD PUSH32 0x8C379A000000000000000000000000000000000000000000000000000000000 DUP2 MSTORE PUSH1 0x20 PUSH1 0x4 DUP3 ADD MSTORE PUSH1 0x22 PUSH1 0x24 DUP3 ADD MSTORE PUSH32 0x45524332303A20617070726F766520746F20746865207A65726F206164647265 PUSH1 0x44 DUP3 ADD MSTORE PUSH32 0x7373000000000000000000000000000000000000000000000000000000000000 PUSH1 0x64 DUP3 ADD MSTORE PUSH1 0x84 ADD PUSH2 0x975 JUMP JUMPDEST PUSH20 0xFFFFFFFFFFFFFFFFFFFFFFFFFFFFFFFFFFFFFFFF DUP4 DUP2 AND PUSH1 0x0 DUP2 DUP2 MSTORE PUSH1 0x1 PUSH1 0x20 SWAP1 DUP2 MSTORE PUSH1 0x40 DUP1 DUP4 KECCAK256 SWAP5 DUP8 AND DUP1 DUP5 MSTORE SWAP5 DUP3 MSTORE SWAP2 DUP3 SWAP1 KECCAK256 DUP6 SWAP1 SSTORE SWAP1 MLOAD DUP5 DUP2 MSTORE PUSH32 0x8C5BE1E5EBEC7D5BD14F71427D1E84F3DD0314C0F7B2291E5B200AC8C7C3B925 SWAP2 ADD PUSH1 0x40 MLOAD DUP1 SWAP2 SUB SWAP1 LOG3 POP POP POP JUMP JUMPDEST PUSH1 0x0 DUP3 DUP3 MUL DUP2 PUSH32 0xFFFFFFFFFFFFFFFFFFFFFFFFFFFFFFFFFFFFFFFFFFFFFFFFFFFFFFFFFFFFFFFF DUP5 DUP7 MULMOD SWAP1 POP DUP2 DUP2 LT PUSH2 0x2D5A JUMPI PUSH1 0x0 PUSH2 0x2D5D JUMP JUMPDEST PUSH1 0x1 JUMPDEST PUSH1 0xFF AND PUSH2 0x2D6A DUP4 DUP4 PUSH2 0x5593 JUMP JUMPDEST PUSH2 0x2D74 SWAP2 SWAP1 PUSH2 0x5593 JUMP JUMPDEST SWAP1 POP PUSH8 0xFFFFFFFFFFFFFFFF DUP2 LT PUSH2 0x2D8A JUMPI PUSH1 0x0 DUP1 REVERT JUMPDEST PUSH1 0x40 DUP3 DUP2 SHR SWAP1 DUP2 SWAP1 PUSH2 0x2D9E SWAP1 PUSH2 0x100 PUSH2 0x5593 JUMP JUMPDEST DUP4 SWAP1 SHL PUSH2 0x2DAB SWAP2 SWAP1 PUSH2 0x5580 JUMP JUMPDEST SWAP7 SWAP6 POP POP POP POP POP POP JUMP JUMPDEST PUSH1 0x40 MLOAD PUSH20 0xFFFFFFFFFFFFFFFFFFFFFFFFFFFFFFFFFFFFFFFF DUP4 AND PUSH1 0x24 DUP3 ADD MSTORE PUSH1 0x44 DUP2 ADD DUP3 SWAP1 MSTORE PUSH2 0x2E89 SWAP1 DUP5 SWAP1 PUSH32 0xA9059CBB00000000000000000000000000000000000000000000000000000000 SWAP1 PUSH1 0x64 ADD JUMPDEST PUSH1 0x40 DUP1 MLOAD PUSH32 0xFFFFFFFFFFFFFFFFFFFFFFFFFFFFFFFFFFFFFFFFFFFFFFFFFFFFFFFFFFFFFFE0 DUP2 DUP5 SUB ADD DUP2 MSTORE SWAP2 SWAP1 MSTORE PUSH1 0x20 DUP2 ADD DUP1 MLOAD PUSH28 0xFFFFFFFFFFFFFFFFFFFFFFFFFFFFFFFFFFFFFFFFFFFFFFFFFFFFFFFF AND PUSH32 0xFFFFFFFF00000000000000000000000000000000000000000000000000000000 SWAP1 SWAP4 AND SWAP3 SWAP1 SWAP3 OR SWAP1 SWAP2 MSTORE PUSH2 0x4719 JUMP JUMPDEST POP POP POP JUMP JUMPDEST PUSH1 0x40 MLOAD PUSH20 0xFFFFFFFFFFFFFFFFFFFFFFFFFFFFFFFFFFFFFFFF DUP1 DUP6 AND PUSH1 0x24 DUP4 ADD MSTORE DUP4 AND PUSH1 0x44 DUP3 ADD MSTORE PUSH1 0x64 DUP2 ADD DUP3 SWAP1 MSTORE PUSH2 0x297A SWAP1 DUP6 SWAP1 PUSH32 0x23B872DD00000000000000000000000000000000000000000000000000000000 SWAP1 PUSH1 0x84 ADD PUSH2 0x2E07 JUMP JUMPDEST PUSH20 0xFFFFFFFFFFFFFFFFFFFFFFFFFFFFFFFFFFFFFFFF DUP4 DUP2 AND PUSH1 0x0 SWAP1 DUP2 MSTORE PUSH1 0x1 PUSH1 0x20 SWAP1 DUP2 MSTORE PUSH1 0x40 DUP1 DUP4 KECCAK256 SWAP4 DUP7 AND DUP4 MSTORE SWAP3 SWAP1 MSTORE KECCAK256 SLOAD PUSH32 0xFFFFFFFFFFFFFFFFFFFFFFFFFFFFFFFFFFFFFFFFFFFFFFFFFFFFFFFFFFFFFFFF DUP2 EQ PUSH2 0x297A JUMPI DUP2 DUP2 LT ISZERO PUSH2 0x2FB0 JUMPI PUSH1 0x40 MLOAD PUSH32 0x8C379A000000000000000000000000000000000000000000000000000000000 DUP2 MSTORE PUSH1 0x20 PUSH1 0x4 DUP3 ADD MSTORE PUSH1 0x1D PUSH1 0x24 DUP3 ADD MSTORE PUSH32 0x45524332303A20696E73756666696369656E7420616C6C6F77616E6365000000 PUSH1 0x44 DUP3 ADD MSTORE PUSH1 0x64 ADD PUSH2 0x975 JUMP JUMPDEST PUSH2 0x297A DUP5 DUP5 DUP5 DUP5 SUB PUSH2 0x2B6D JUMP JUMPDEST PUSH20 0xFFFFFFFFFFFFFFFFFFFFFFFFFFFFFFFFFFFFFFFF DUP4 AND PUSH2 0x3060 JUMPI PUSH1 0x40 MLOAD PUSH32 0x8C379A000000000000000000000000000000000000000000000000000000000 DUP2 MSTORE PUSH1 0x20 PUSH1 0x4 DUP3 ADD MSTORE PUSH1 0x25 PUSH1 0x24 DUP3 ADD MSTORE PUSH32 0x45524332303A207472616E736665722066726F6D20746865207A65726F206164 PUSH1 0x44 DUP3 ADD MSTORE PUSH32 0x6472657373000000000000000000000000000000000000000000000000000000 PUSH1 0x64 DUP3 ADD MSTORE PUSH1 0x84 ADD PUSH2 0x975 JUMP JUMPDEST PUSH20 0xFFFFFFFFFFFFFFFFFFFFFFFFFFFFFFFFFFFFFFFF DUP3 AND PUSH2 0x3103 JUMPI PUSH1 0x40 MLOAD PUSH32 0x8C379A000000000000000000000000000000000000000000000000000000000 DUP2 MSTORE PUSH1 0x20 PUSH1 0x4 DUP3 ADD MSTORE PUSH1 0x23 PUSH1 0x24 DUP3 ADD MSTORE PUSH32 0x45524332303A207472616E7366657220746F20746865207A65726F2061646472 PUSH1 0x44 DUP3 ADD MSTORE PUSH32 0x6573730000000000000000000000000000000000000000000000000000000000 PUSH1 0x64 DUP3 ADD MSTORE PUSH1 0x84 ADD PUSH2 0x975 JUMP JUMPDEST PUSH20 0xFFFFFFFFFFFFFFFFFFFFFFFFFFFFFFFFFFFFFFFF DUP4 AND PUSH1 0x0 SWAP1 DUP2 MSTORE PUSH1 0x20 DUP2 SWAP1 MSTORE PUSH1 0x40 SWAP1 KECCAK256 SLOAD DUP2 DUP2 LT ISZERO PUSH2 0x31B9 JUMPI PUSH1 0x40 MLOAD PUSH32 0x8C379A000000000000000000000000000000000000000000000000000000000 DUP2 MSTORE PUSH1 0x20 PUSH1 0x4 DUP3 ADD MSTORE PUSH1 0x26 PUSH1 0x24 DUP3 ADD MSTORE PUSH32 0x45524332303A207472616E7366657220616D6F756E7420657863656564732062 PUSH1 0x44 DUP3 ADD MSTORE PUSH32 0x616C616E63650000000000000000000000000000000000000000000000000000 PUSH1 0x64 DUP3 ADD MSTORE PUSH1 0x84 ADD PUSH2 0x975 JUMP JUMPDEST PUSH20 0xFFFFFFFFFFFFFFFFFFFFFFFFFFFFFFFFFFFFFFFF DUP1 DUP6 AND PUSH1 0x0 SWAP1 DUP2 MSTORE PUSH1 0x20 DUP2 SWAP1 MSTORE PUSH1 0x40 DUP1 DUP3 KECCAK256 DUP6 DUP6 SUB SWAP1 SSTORE SWAP2 DUP6 AND DUP2 MSTORE SWAP1 DUP2 KECCAK256 DUP1 SLOAD DUP5 SWAP3 SWAP1 PUSH2 0x31FD SWAP1 DUP5 SWAP1 PUSH2 0x5580 JUMP JUMPDEST SWAP3 POP POP DUP2 SWAP1 SSTORE POP DUP3 PUSH20 0xFFFFFFFFFFFFFFFFFFFFFFFFFFFFFFFFFFFFFFFF AND DUP5 PUSH20 0xFFFFFFFFFFFFFFFFFFFFFFFFFFFFFFFFFFFFFFFF AND PUSH32 0xDDF252AD1BE2C89B69C2B068FC378DAA952BA7F163C4A11628F55A4DF523B3EF DUP5 PUSH1 0x40 MLOAD PUSH2 0x3263 SWAP2 DUP2 MSTORE PUSH1 0x20 ADD SWAP1 JUMP JUMPDEST PUSH1 0x40 MLOAD DUP1 SWAP2 SUB SWAP1 LOG3 PUSH2 0x297A JUMP JUMPDEST PUSH1 0x0 DUP1 DUP3 PUSH2 0x3280 PUSH1 0x40 PUSH1 0x2 PUSH2 0x578F JUMP JUMPDEST PUSH2 0x328A SWAP2 SWAP1 PUSH2 0x5593 JUMP JUMPDEST SWAP1 POP PUSH1 0x0 PUSH2 0x329C PUSH1 0x40 DUP8 SWAP1 SHL DUP4 PUSH2 0x3AC7 JUMP JUMPDEST PUSH2 0x32A6 SWAP1 DUP7 PUSH2 0x55A6 JUMP JUMPDEST SWAP1 POP PUSH1 0x40 PUSH2 0x32DA PUSH2 0x32C0 DUP4 PUSH2 0x32BB DUP12 DUP3 PUSH2 0x5593 JUMP JUMPDEST PUSH2 0x4825 JUMP JUMPDEST PUSH2 0x32D5 PUSH2 0x32CF PUSH1 0x40 PUSH1 0x2 PUSH2 0x578F JUMP JUMPDEST DUP7 PUSH2 0x4825 JUMP JUMPDEST PUSH2 0x48A9 JUMP JUMPDEST PUSH2 0x32E6 PUSH1 0x40 PUSH1 0x2 PUSH2 0x578F JUMP JUMPDEST PUSH2 0x32F0 SWAP2 SWAP1 PUSH2 0x5593 JUMP JUMPDEST PUSH2 0x32FA SWAP1 DUP9 PUSH2 0x55A6 JUMP JUMPDEST SWAP1 SHR SWAP8 SWAP7 POP POP POP POP POP POP POP JUMP JUMPDEST PUSH1 0x0 PUSH1 0x40 PUSH2 0x3316 DUP2 PUSH1 0x2 PUSH2 0x578F JUMP JUMPDEST PUSH2 0x3352 PUSH2 0x332C PUSH2 0x3326 DUP10 DUP9 PUSH2 0x5580 JUMP JUMPDEST DUP8 PUSH2 0x4825 JUMP JUMPDEST PUSH2 0x1D9C PUSH2 0x333B PUSH1 0x40 PUSH1 0x2 PUSH2 0x578F JUMP JUMPDEST DUP8 PUSH2 0x3348 PUSH1 0x40 PUSH1 0x2 PUSH2 0x578F JUMP JUMPDEST PUSH2 0x32BB SWAP2 SWAP1 PUSH2 0x5593 JUMP JUMPDEST PUSH2 0x335C SWAP2 SWAP1 PUSH2 0x5593 JUMP JUMPDEST PUSH2 0x3366 SWAP1 DUP7 PUSH2 0x55A6 JUMP JUMPDEST SWAP1 SHR SWAP6 SWAP5 POP POP POP POP POP JUMP JUMPDEST PUSH1 0xC SLOAD PUSH1 0xE SLOAD PUSH2 0x3384 SWAP1 PUSH3 0x15180 PUSH2 0x5580 JUMP JUMPDEST TIMESTAMP GT ISZERO PUSH2 0x33EA JUMPI DUP1 DUP3 LT PUSH1 0x40 MLOAD DUP1 PUSH1 0x60 ADD PUSH1 0x40 MSTORE DUP1 PUSH1 0x2D DUP2 MSTORE PUSH1 0x20 ADD PUSH2 0x5B1D PUSH1 0x2D SWAP2 CODECOPY SWAP1 PUSH2 0x33DF JUMPI PUSH1 0x40 MLOAD PUSH32 0x8C379A000000000000000000000000000000000000000000000000000000000 DUP2 MSTORE PUSH1 0x4 ADD PUSH2 0x975 SWAP2 SWAP1 PUSH2 0x4F02 JUMP JUMPDEST POP POP PUSH1 0xD SSTORE TIMESTAMP PUSH1 0xE SSTORE JUMP JUMPDEST PUSH1 0x0 PUSH3 0x15180 PUSH1 0xE SLOAD TIMESTAMP PUSH2 0x33FE SWAP2 SWAP1 PUSH2 0x5593 JUMP JUMPDEST PUSH2 0x3408 SWAP1 DUP5 PUSH2 0x55A6 JUMP JUMPDEST PUSH2 0x3412 SWAP2 SWAP1 PUSH2 0x55EC JUMP JUMPDEST TIMESTAMP PUSH1 0xE SSTORE PUSH1 0xD SLOAD SWAP1 SWAP2 POP DUP2 DUP2 GT PUSH2 0x3483 JUMPI DUP3 DUP5 LT PUSH1 0x40 MLOAD DUP1 PUSH1 0x60 ADD PUSH1 0x40 MSTORE DUP1 PUSH1 0x2D DUP2 MSTORE PUSH1 0x20 ADD PUSH2 0x5B1D PUSH1 0x2D SWAP2 CODECOPY SWAP1 PUSH2 0x3477 JUMPI PUSH1 0x40 MLOAD PUSH32 0x8C379A000000000000000000000000000000000000000000000000000000000 DUP2 MSTORE PUSH1 0x4 ADD PUSH2 0x975 SWAP2 SWAP1 PUSH2 0x4F02 JUMP JUMPDEST POP POP POP PUSH1 0xD SWAP2 SWAP1 SWAP2 SSTORE POP JUMP JUMPDEST PUSH1 0x0 DUP3 PUSH2 0x3490 DUP7 DUP5 PUSH2 0x5580 JUMP JUMPDEST PUSH2 0x349A SWAP2 SWAP1 PUSH2 0x5593 JUMP JUMPDEST SWAP1 POP DUP4 DUP2 LT PUSH1 0x40 MLOAD DUP1 PUSH1 0x60 ADD PUSH1 0x40 MSTORE DUP1 PUSH1 0x2D DUP2 MSTORE PUSH1 0x20 ADD PUSH2 0x5B1D PUSH1 0x2D SWAP2 CODECOPY SWAP1 PUSH2 0x34F0 JUMPI PUSH1 0x40 MLOAD PUSH32 0x8C379A000000000000000000000000000000000000000000000000000000000 DUP2 MSTORE PUSH1 0x4 ADD PUSH2 0x975 SWAP2 SWAP1 PUSH2 0x4F02 JUMP JUMPDEST POP PUSH1 0xD SSTORE POP POP POP POP JUMP JUMPDEST PUSH1 0x0 DUP3 DUP5 SUB PUSH2 0x350B JUMPI POP PUSH1 0x0 PUSH2 0xA50 JUMP JUMPDEST PUSH1 0x17 SLOAD PUSH1 0x0 SWAP1 PUSH2 0x351D PUSH1 0x40 PUSH1 0x2 PUSH2 0x578F JUMP JUMPDEST PUSH2 0x3527 SWAP2 SWAP1 PUSH2 0x5593 JUMP JUMPDEST SWAP1 POP DUP4 DUP6 LT ISZERO PUSH2 0x358F JUMPI PUSH2 0x353F PUSH1 0x40 DUP7 SWAP1 SHL DUP3 PUSH2 0x3AC7 JUMP JUMPDEST PUSH2 0x354D PUSH1 0x40 DUP7 SWAP1 SHL DUP4 PUSH2 0x3AC7 JUMP JUMPDEST PUSH2 0x3557 SWAP2 SWAP1 PUSH2 0x5593 JUMP JUMPDEST PUSH20 0xFFFFFFFFFFFFFFFFFFFFFFFFFFFFFFFFFFFFFFFF DUP5 AND PUSH1 0x0 SWAP1 DUP2 MSTORE PUSH1 0x8 PUSH1 0x20 MSTORE PUSH1 0x40 SWAP1 KECCAK256 SLOAD PUSH2 0x3587 SWAP2 SWAP1 PUSH2 0x55A6 JUMP JUMPDEST SWAP2 POP POP PUSH2 0xA50 JUMP JUMPDEST PUSH2 0x359D PUSH1 0x40 DUP6 SWAP1 SHL DUP3 PUSH2 0x3AC7 JUMP JUMPDEST PUSH2 0x35AB PUSH1 0x40 DUP8 SWAP1 SHL DUP4 PUSH2 0x3AC7 JUMP JUMPDEST PUSH2 0x35B5 SWAP2 SWAP1 PUSH2 0x5593 JUMP JUMPDEST PUSH20 0xFFFFFFFFFFFFFFFFFFFFFFFFFFFFFFFFFFFFFFFF DUP5 AND PUSH1 0x0 SWAP1 DUP2 MSTORE PUSH1 0x8 PUSH1 0x20 MSTORE PUSH1 0x40 SWAP1 KECCAK256 SLOAD PUSH2 0xBD8 SWAP2 SWAP1 PUSH2 0x55A6 JUMP JUMPDEST PUSH1 0x0 DUP1 PUSH2 0x3602 DUP8 PUSH2 0x35F8 DUP8 PUSH1 0xA SLOAD PUSH2 0x2D20 JUMP JUMPDEST PUSH2 0x7A0 SWAP1 DUP9 PUSH2 0x5593 JUMP JUMPDEST SWAP1 POP PUSH1 0x5 PUSH1 0x0 SWAP1 SLOAD SWAP1 PUSH2 0x100 EXP SWAP1 DIV PUSH20 0xFFFFFFFFFFFFFFFFFFFFFFFFFFFFFFFFFFFFFFFF AND PUSH20 0xFFFFFFFFFFFFFFFFFFFFFFFFFFFFFFFFFFFFFFFF AND PUSH4 0x8E133A86 DUP12 DUP12 DUP12 DUP11 DUP7 DUP11 PUSH1 0x0 PUSH5 0x100000000 PUSH1 0x13 SLOAD PUSH2 0x365D SWAP2 SWAP1 PUSH2 0x58F8 JUMP JUMPDEST PUSH1 0x40 MLOAD PUSH32 0xFFFFFFFF00000000000000000000000000000000000000000000000000000000 PUSH1 0xE0 DUP12 SWAP1 SHL AND DUP2 MSTORE PUSH4 0xFFFFFFFF SWAP9 DUP10 AND PUSH1 0x4 DUP3 ADD MSTORE PUSH1 0x24 DUP2 ADD SWAP8 SWAP1 SWAP8 MSTORE PUSH1 0x44 DUP8 ADD SWAP6 SWAP1 SWAP6 MSTORE PUSH1 0xFF SWAP1 SWAP4 AND PUSH1 0x64 DUP7 ADD MSTORE PUSH1 0x84 DUP6 ADD SWAP2 SWAP1 SWAP2 MSTORE PUSH1 0xA4 DUP5 ADD MSTORE ISZERO ISZERO PUSH1 0xC4 DUP4 ADD MSTORE SWAP1 SWAP2 AND PUSH1 0xE4 DUP3 ADD MSTORE PUSH2 0x104 ADD PUSH1 0x0 PUSH1 0x40 MLOAD DUP1 DUP4 SUB DUP2 PUSH1 0x0 DUP8 DUP1 EXTCODESIZE ISZERO DUP1 ISZERO PUSH2 0x36EA JUMPI PUSH1 0x0 DUP1 REVERT JUMPDEST POP GAS CALL ISZERO DUP1 ISZERO PUSH2 0x36FE JUMPI RETURNDATASIZE PUSH1 0x0 DUP1 RETURNDATACOPY RETURNDATASIZE PUSH1 0x0 REVERT JUMPDEST POP PUSH2 0x3725 SWAP3 POP POP POP PUSH20 0xFFFFFFFFFFFFFFFFFFFFFFFFFFFFFFFFFFFFFFFF DUP9 AND CALLER ADDRESS DUP9 PUSH2 0x2E8E JUMP JUMPDEST PUSH20 0xFFFFFFFFFFFFFFFFFFFFFFFFFFFFFFFFFFFFFFFF DUP8 AND PUSH1 0x0 SWAP1 DUP2 MSTORE PUSH1 0x11 PUSH1 0x20 MSTORE PUSH1 0x40 DUP2 KECCAK256 DUP1 SLOAD DUP8 SWAP3 SWAP1 PUSH2 0x375A SWAP1 DUP5 SWAP1 PUSH2 0x5580 JUMP JUMPDEST SWAP3 POP POP DUP2 SWAP1 SSTORE POP PUSH1 0x40 MLOAD DUP1 PUSH1 0x60 ADD PUSH1 0x40 MSTORE DUP1 DUP5 PUSH20 0xFFFFFFFFFFFFFFFFFFFFFFFFFFFFFFFFFFFFFFFF AND DUP2 MSTORE PUSH1 0x20 ADD DUP7 DUP2 MSTORE PUSH1 0x20 ADD DUP9 PUSH20 0xFFFFFFFFFFFFFFFFFFFFFFFFFFFFFFFFFFFFFFFF AND DUP2 MSTORE POP PUSH1 0x12 PUSH1 0x0 PUSH5 0x100000000 PUSH1 0x13 SLOAD PUSH2 0x37BF SWAP2 SWAP1 PUSH2 0x58F8 JUMP JUMPDEST DUP2 MSTORE PUSH1 0x20 DUP1 DUP3 ADD SWAP3 SWAP1 SWAP3 MSTORE PUSH1 0x40 SWAP1 DUP2 ADD PUSH1 0x0 SWAP1 DUP2 KECCAK256 DUP5 MLOAD DUP2 SLOAD PUSH32 0xFFFFFFFFFFFFFFFFFFFFFFFF0000000000000000000000000000000000000000 SWAP1 DUP2 AND PUSH20 0xFFFFFFFFFFFFFFFFFFFFFFFFFFFFFFFFFFFFFFFF SWAP3 DUP4 AND OR DUP4 SSTORE SWAP5 DUP7 ADD MLOAD PUSH1 0x1 DUP4 ADD SSTORE SWAP5 SWAP1 SWAP3 ADD MLOAD PUSH1 0x2 SWAP1 SWAP3 ADD DUP1 SLOAD SWAP1 SWAP4 AND SWAP2 SWAP1 SWAP4 AND OR SWAP1 SSTORE PUSH1 0x1A DUP1 SLOAD DUP4 SWAP3 SWAP1 PUSH2 0x3848 SWAP1 DUP5 SWAP1 PUSH2 0x58B3 JUMP JUMPDEST SWAP1 SWAP2 SSTORE POP POP PUSH1 0x40 MLOAD PUSH32 0x70A0823100000000000000000000000000000000000000000000000000000000 DUP2 MSTORE ADDRESS PUSH1 0x4 DUP3 ADD MSTORE PUSH1 0x0 SWAP1 PUSH20 0xFFFFFFFFFFFFFFFFFFFFFFFFFFFFFFFFFFFFFFFF DUP10 AND SWAP1 PUSH4 0x70A08231 SWAP1 PUSH1 0x24 ADD PUSH1 0x20 PUSH1 0x40 MLOAD DUP1 DUP4 SUB DUP2 DUP7 GAS STATICCALL ISZERO DUP1 ISZERO PUSH2 0x38BA JUMPI RETURNDATASIZE PUSH1 0x0 DUP1 RETURNDATACOPY RETURNDATASIZE PUSH1 0x0 REVERT JUMPDEST POP POP POP POP PUSH1 0x40 MLOAD RETURNDATASIZE PUSH1 0x1F NOT PUSH1 0x1F DUP3 ADD AND DUP3 ADD DUP1 PUSH1 0x40 MSTORE POP DUP2 ADD SWAP1 PUSH2 0x38DE SWAP2 SWAP1 PUSH2 0x5600 JUMP JUMPDEST SWAP1 POP PUSH2 0x3910 PUSH1 0x18 SLOAD PUSH2 0xDD6 PUSH2 0x38F5 DUP10 PUSH1 0xA SLOAD PUSH2 0x2D20 JUMP JUMPDEST PUSH2 0x38FF SWAP1 DUP11 PUSH2 0x5593 JUMP JUMPDEST PUSH2 0x3909 SWAP1 DUP6 PUSH2 0x5593 JUMP JUMPDEST DUP5 DUP13 PUSH2 0x34FA JUMP JUMPDEST PUSH1 0xC PUSH1 0x0 DUP3 DUP3 SLOAD PUSH2 0x3921 SWAP2 SWAP1 PUSH2 0x5580 JUMP JUMPDEST SWAP1 SWAP2 SSTORE POP POP PUSH1 0xD SLOAD SWAP1 POP DUP2 DUP2 GT ISZERO PUSH2 0x3950 JUMPI DUP2 PUSH1 0xD PUSH1 0x0 DUP3 DUP3 SLOAD PUSH2 0x3945 SWAP2 SWAP1 PUSH2 0x5593 JUMP JUMPDEST SWAP1 SWAP2 SSTORE POP PUSH2 0x395C SWAP1 POP JUMP JUMPDEST DUP1 ISZERO PUSH2 0x395C JUMPI PUSH1 0x0 PUSH1 0xD SSTORE JUMPDEST POP DUP7 PUSH20 0xFFFFFFFFFFFFFFFFFFFFFFFFFFFFFFFFFFFFFFFF AND DUP9 DUP11 PUSH32 0x2483AC7794A891A1DA9E35AF72035937919C140AB4E1FEC8FB8041DBFB439362 DUP10 DUP10 DUP7 PUSH2 0x39A6 DUP13 PUSH1 0xA SLOAD PUSH2 0x2D20 JUMP JUMPDEST PUSH5 0x100000000 PUSH1 0x13 SLOAD PUSH2 0x39B9 SWAP2 SWAP1 PUSH2 0x58F8 JUMP JUMPDEST PUSH1 0x40 DUP1 MLOAD PUSH1 0xFF SWAP1 SWAP7 AND DUP7 MSTORE PUSH1 0x20 DUP7 ADD SWAP5 SWAP1 SWAP5 MSTORE SWAP3 DUP5 ADD SWAP2 SWAP1 SWAP2 MSTORE PUSH1 0x60 DUP4 ADD MSTORE PUSH4 0xFFFFFFFF AND PUSH1 0x80 DUP3 ADD MSTORE PUSH1 0xA0 ADD PUSH1 0x40 MLOAD DUP1 SWAP2 SUB SWAP1 LOG4 PUSH1 0x1 PUSH1 0x13 PUSH1 0x0 DUP3 DUP3 SLOAD PUSH2 0x3A01 SWAP2 SWAP1 PUSH2 0x5580 JUMP JUMPDEST SWAP1 SWAP2 SSTORE POP SWAP1 SWAP11 SWAP10 POP POP POP POP POP POP POP POP POP POP JUMP JUMPDEST PUSH1 0x0 DUP1 DUP3 PUSH2 0x3A24 PUSH1 0x40 PUSH1 0x2 PUSH2 0x578F JUMP JUMPDEST PUSH2 0x3A2E SWAP2 SWAP1 PUSH2 0x5593 JUMP JUMPDEST SWAP1 POP PUSH1 0x0 PUSH2 0x3A40 PUSH1 0x40 DUP9 SWAP1 SHL DUP4 PUSH2 0x3AC7 JUMP JUMPDEST PUSH2 0x3A4A SWAP1 DUP7 PUSH2 0x55A6 JUMP JUMPDEST SWAP1 POP PUSH1 0x40 PUSH2 0x3A98 PUSH2 0x32C0 DUP4 PUSH2 0x3A61 DUP13 DUP6 SHL DUP8 PUSH2 0x3AC7 JUMP JUMPDEST PUSH2 0x3A7A PUSH1 0x40 DUP16 DUP16 PUSH2 0x3A72 SWAP2 SWAP1 PUSH2 0x5580 JUMP JUMPDEST SWAP1 SHL DUP9 PUSH2 0x3AC7 JUMP JUMPDEST PUSH2 0x3A84 SWAP2 SWAP1 PUSH2 0x5593 JUMP JUMPDEST PUSH2 0x3A8E SWAP1 DUP12 PUSH2 0x55A6 JUMP JUMPDEST PUSH2 0x32BB SWAP1 DUP7 PUSH2 0x5593 JUMP JUMPDEST PUSH2 0x3AA4 PUSH1 0x40 PUSH1 0x2 PUSH2 0x578F JUMP JUMPDEST PUSH2 0x3AAE SWAP2 SWAP1 PUSH2 0x5593 JUMP JUMPDEST PUSH2 0x3AB8 SWAP1 DUP10 PUSH2 0x55A6 JUMP JUMPDEST SWAP1 SHR SWAP10 SWAP9 POP POP POP POP POP POP POP POP POP JUMP JUMPDEST PUSH1 0x0 PUSH2 0xA50 PUSH2 0x3AD9 DUP4 PUSH2 0xDD6 DUP7 PUSH2 0x48B7 JUMP JUMPDEST PUSH2 0x49EC JUMP JUMPDEST PUSH1 0x0 PUSH1 0x2 PUSH2 0x3AEB PUSH1 0x2 SLOAD SWAP1 JUMP JUMPDEST PUSH2 0x3AF5 SWAP2 SWAP1 PUSH2 0x55EC JUMP JUMPDEST SWAP1 POP PUSH1 0x10 SLOAD PUSH3 0x15180 PUSH2 0x3B08 SWAP2 SWAP1 PUSH2 0x5580 JUMP JUMPDEST TIMESTAMP GT ISZERO PUSH2 0x3B6E JUMPI DUP1 DUP3 LT PUSH1 0x40 MLOAD DUP1 PUSH1 0x60 ADD PUSH1 0x40 MSTORE DUP1 PUSH1 0x2D DUP2 MSTORE PUSH1 0x20 ADD PUSH2 0x5B1D PUSH1 0x2D SWAP2 CODECOPY SWAP1 PUSH2 0x3B63 JUMPI PUSH1 0x40 MLOAD PUSH32 0x8C379A000000000000000000000000000000000000000000000000000000000 DUP2 MSTORE PUSH1 0x4 ADD PUSH2 0x975 SWAP2 SWAP1 PUSH2 0x4F02 JUMP JUMPDEST POP POP PUSH1 0xF SSTORE TIMESTAMP PUSH1 0x10 SSTORE JUMP JUMPDEST PUSH1 0x0 PUSH3 0x15180 PUSH1 0x10 SLOAD TIMESTAMP PUSH2 0x3B82 SWAP2 SWAP1 PUSH2 0x5593 JUMP JUMPDEST PUSH2 0x3B8C SWAP1 DUP5 PUSH2 0x55A6 JUMP JUMPDEST PUSH2 0x3B96 SWAP2 SWAP1 PUSH2 0x55EC JUMP JUMPDEST TIMESTAMP PUSH1 0x10 SSTORE PUSH1 0xF SLOAD SWAP1 SWAP2 POP DUP2 DUP2 LT ISZERO PUSH2 0x3C08 JUMPI DUP3 DUP5 LT PUSH1 0x40 MLOAD DUP1 PUSH1 0x60 ADD PUSH1 0x40 MSTORE DUP1 PUSH1 0x2D DUP2 MSTORE PUSH1 0x20 ADD PUSH2 0x5B1D PUSH1 0x2D SWAP2 CODECOPY SWAP1 PUSH2 0x3BFC JUMPI PUSH1 0x40 MLOAD PUSH32 0x8C379A000000000000000000000000000000000000000000000000000000000 DUP2 MSTORE PUSH1 0x4 ADD PUSH2 0x975 SWAP2 SWAP1 PUSH2 0x4F02 JUMP JUMPDEST POP POP POP PUSH1 0xF SWAP2 SWAP1 SWAP2 SSTORE POP JUMP JUMPDEST PUSH1 0x0 DUP3 PUSH2 0x3C15 DUP7 DUP5 PUSH2 0x5580 JUMP JUMPDEST PUSH2 0x3C1F SWAP2 SWAP1 PUSH2 0x5593 JUMP JUMPDEST SWAP1 POP DUP4 DUP2 LT PUSH1 0x40 MLOAD DUP1 PUSH1 0x60 ADD PUSH1 0x40 MSTORE DUP1 PUSH1 0x2D DUP2 MSTORE PUSH1 0x20 ADD PUSH2 0x5B1D PUSH1 0x2D SWAP2 CODECOPY SWAP1 PUSH2 0x3C75 JUMPI PUSH1 0x40 MLOAD PUSH32 0x8C379A000000000000000000000000000000000000000000000000000000000 DUP2 MSTORE PUSH1 0x4 ADD PUSH2 0x975 SWAP2 SWAP1 PUSH2 0x4F02 JUMP JUMPDEST POP PUSH1 0xF SSTORE POP POP POP POP JUMP JUMPDEST PUSH20 0xFFFFFFFFFFFFFFFFFFFFFFFFFFFFFFFFFFFFFFFF DUP3 AND PUSH2 0x3CFC JUMPI PUSH1 0x40 MLOAD PUSH32 0x8C379A000000000000000000000000000000000000000000000000000000000 DUP2 MSTORE PUSH1 0x20 PUSH1 0x4 DUP3 ADD MSTORE PUSH1 0x1F PUSH1 0x24 DUP3 ADD MSTORE PUSH32 0x45524332303A206D696E7420746F20746865207A65726F206164647265737300 PUSH1 0x44 DUP3 ADD MSTORE PUSH1 0x64 ADD PUSH2 0x975 JUMP JUMPDEST DUP1 PUSH1 0x2 PUSH1 0x0 DUP3 DUP3 SLOAD PUSH2 0x3D0E SWAP2 SWAP1 PUSH2 0x5580 JUMP JUMPDEST SWAP1 SWAP2 SSTORE POP POP PUSH20 0xFFFFFFFFFFFFFFFFFFFFFFFFFFFFFFFFFFFFFFFF DUP3 AND PUSH1 0x0 SWAP1 DUP2 MSTORE PUSH1 0x20 DUP2 SWAP1 MSTORE PUSH1 0x40 DUP2 KECCAK256 DUP1 SLOAD DUP4 SWAP3 SWAP1 PUSH2 0x3D48 SWAP1 DUP5 SWAP1 PUSH2 0x5580 JUMP JUMPDEST SWAP1 SWAP2 SSTORE POP POP PUSH1 0x40 MLOAD DUP2 DUP2 MSTORE PUSH20 0xFFFFFFFFFFFFFFFFFFFFFFFFFFFFFFFFFFFFFFFF DUP4 AND SWAP1 PUSH1 0x0 SWAP1 PUSH32 0xDDF252AD1BE2C89B69C2B068FC378DAA952BA7F163C4A11628F55A4DF523B3EF SWAP1 PUSH1 0x20 ADD PUSH1 0x40 MLOAD DUP1 SWAP2 SUB SWAP1 LOG3 POP POP JUMP JUMPDEST PUSH20 0xFFFFFFFFFFFFFFFFFFFFFFFFFFFFFFFFFFFFFFFF DUP3 AND PUSH2 0x3E42 JUMPI PUSH1 0x40 MLOAD PUSH32 0x8C379A000000000000000000000000000000000000000000000000000000000 DUP2 MSTORE PUSH1 0x20 PUSH1 0x4 DUP3 ADD MSTORE PUSH1 0x21 PUSH1 0x24 DUP3 ADD MSTORE PUSH32 0x45524332303A206275726E2066726F6D20746865207A65726F20616464726573 PUSH1 0x44 DUP3 ADD MSTORE PUSH32 0x7300000000000000000000000000000000000000000000000000000000000000 PUSH1 0x64 DUP3 ADD MSTORE PUSH1 0x84 ADD PUSH2 0x975 JUMP JUMPDEST PUSH20 0xFFFFFFFFFFFFFFFFFFFFFFFFFFFFFFFFFFFFFFFF DUP3 AND PUSH1 0x0 SWAP1 DUP2 MSTORE PUSH1 0x20 DUP2 SWAP1 MSTORE PUSH1 0x40 SWAP1 KECCAK256 SLOAD DUP2 DUP2 LT ISZERO PUSH2 0x3EF8 JUMPI PUSH1 0x40 MLOAD PUSH32 0x8C379A000000000000000000000000000000000000000000000000000000000 DUP2 MSTORE PUSH1 0x20 PUSH1 0x4 DUP3 ADD MSTORE PUSH1 0x22 PUSH1 0x24 DUP3 ADD MSTORE PUSH32 0x45524332303A206275726E20616D6F756E7420657863656564732062616C616E PUSH1 0x44 DUP3 ADD MSTORE PUSH32 0x6365000000000000000000000000000000000000000000000000000000000000 PUSH1 0x64 DUP3 ADD MSTORE PUSH1 0x84 ADD PUSH2 0x975 JUMP JUMPDEST PUSH20 0xFFFFFFFFFFFFFFFFFFFFFFFFFFFFFFFFFFFFFFFF DUP4 AND PUSH1 0x0 SWAP1 DUP2 MSTORE PUSH1 0x20 DUP2 SWAP1 MSTORE PUSH1 0x40 DUP2 KECCAK256 DUP4 DUP4 SUB SWAP1 SSTORE PUSH1 0x2 DUP1 SLOAD DUP5 SWAP3 SWAP1 PUSH2 0x3F34 SWAP1 DUP5 SWAP1 PUSH2 0x5593 JUMP JUMPDEST SWAP1 SWAP2 SSTORE POP POP PUSH1 0x40 MLOAD DUP3 DUP2 MSTORE PUSH1 0x0 SWAP1 PUSH20 0xFFFFFFFFFFFFFFFFFFFFFFFFFFFFFFFFFFFFFFFF DUP6 AND SWAP1 PUSH32 0xDDF252AD1BE2C89B69C2B068FC378DAA952BA7F163C4A11628F55A4DF523B3EF SWAP1 PUSH1 0x20 ADD PUSH1 0x40 MLOAD DUP1 SWAP2 SUB SWAP1 LOG3 POP POP POP JUMP JUMPDEST PUSH1 0x0 PUSH1 0x40 DUP3 SWAP1 SHR PUSH1 0x29 DUP2 LT PUSH2 0x3FA0 JUMPI PUSH1 0x0 DUP1 REVERT JUMPDEST PUSH9 0x10000000000000000 PUSH8 0x8000000000000000 DUP5 AND ISZERO PUSH2 0x3FC8 JUMPI PUSH8 0xB504F333F9DE6484 MUL PUSH1 0x40 SHR JUMPDEST PUSH8 0x4000000000000000 DUP5 AND ISZERO PUSH2 0x3FE6 JUMPI PUSH8 0xD744FCCAD69D6AF4 MUL PUSH1 0x40 SHR JUMPDEST PUSH8 0x2000000000000000 DUP5 AND ISZERO PUSH2 0x4004 JUMPI PUSH8 0xEAC0C6E7DD24392E MUL PUSH1 0x40 SHR JUMPDEST PUSH8 0x1000000000000000 DUP5 AND ISZERO PUSH2 0x4022 JUMPI PUSH8 0xF5257D152486CC2C MUL PUSH1 0x40 SHR JUMPDEST PUSH8 0x800000000000000 DUP5 AND ISZERO PUSH2 0x4040 JUMPI PUSH8 0xFA83B2DB722A033A MUL PUSH1 0x40 SHR JUMPDEST PUSH8 0x400000000000000 DUP5 AND ISZERO PUSH2 0x405E JUMPI PUSH8 0xFD3E0C0CF486C174 MUL PUSH1 0x40 SHR JUMPDEST PUSH8 0x200000000000000 DUP5 AND ISZERO PUSH2 0x407C JUMPI PUSH8 0xFE9E115C7B8F884B MUL PUSH1 0x40 SHR JUMPDEST PUSH8 0x100000000000000 DUP5 AND ISZERO PUSH2 0x409A JUMPI PUSH8 0xFF4ECB59511EC8A5 MUL PUSH1 0x40 SHR JUMPDEST PUSH7 0x80000000000000 DUP5 AND ISZERO PUSH2 0x40B7 JUMPI PUSH8 0xFFA756521C8DAED1 MUL PUSH1 0x40 SHR JUMPDEST PUSH7 0x40000000000000 DUP5 AND ISZERO PUSH2 0x40D4 JUMPI PUSH8 0xFFD3A751C0F7E10B MUL PUSH1 0x40 SHR JUMPDEST PUSH7 0x20000000000000 DUP5 AND ISZERO PUSH2 0x40F1 JUMPI PUSH8 0xFFE9D2B2F7DB2755 MUL PUSH1 0x40 SHR JUMPDEST PUSH7 0x10000000000000 DUP5 AND ISZERO PUSH2 0x410E JUMPI PUSH8 0xFFF4E91BFF1B8C3D MUL PUSH1 0x40 SHR JUMPDEST PUSH7 0x8000000000000 DUP5 AND ISZERO PUSH2 0x412B JUMPI PUSH8 0xFFFA747EA0040664 MUL PUSH1 0x40 SHR JUMPDEST PUSH7 0x4000000000000 DUP5 AND ISZERO PUSH2 0x4148 JUMPI PUSH8 0xFFFD3A3B7814EB53 MUL PUSH1 0x40 SHR JUMPDEST PUSH7 0x2000000000000 DUP5 AND ISZERO PUSH2 0x4165 JUMPI PUSH8 0xFFFE9D1CC60DDAB1 MUL PUSH1 0x40 SHR JUMPDEST PUSH7 0x1000000000000 DUP5 AND ISZERO PUSH2 0x4182 JUMPI PUSH8 0xFFFF4E8E25879BFA MUL PUSH1 0x40 SHR JUMPDEST PUSH6 0x800000000000 DUP5 AND ISZERO PUSH2 0x419E JUMPI PUSH8 0xFFFFA7470363F451 MUL PUSH1 0x40 SHR JUMPDEST PUSH6 0x400000000000 DUP5 AND ISZERO PUSH2 0x41BA JUMPI PUSH8 0xFFFFD3A37DDA0313 MUL PUSH1 0x40 SHR JUMPDEST PUSH6 0x200000000000 DUP5 AND ISZERO PUSH2 0x41D6 JUMPI PUSH8 0xFFFFE9D1BDF703AE MUL PUSH1 0x40 SHR JUMPDEST SWAP1 SHR SWAP3 SWAP2 POP POP JUMP JUMPDEST PUSH2 0x41F3 DUP2 PUSH2 0x41EE PUSH1 0x40 PUSH1 0x2 PUSH2 0x578F JUMP JUMPDEST PUSH2 0x3C7F JUMP JUMPDEST PUSH1 0x14 SLOAD PUSH1 0xFF AND ISZERO PUSH2 0x4203 JUMPI PUSH1 0x0 DUP1 REVERT JUMPDEST PUSH1 0x14 DUP1 SLOAD PUSH32 0xFFFFFFFFFFFFFFFFFFFFFFFFFFFFFFFFFFFFFFFFFFFFFFFFFFFFFFFFFFFFFF00 AND PUSH1 0x1 OR SWAP1 SSTORE PUSH1 0x5 DUP1 SLOAD PUSH20 0xFFFFFFFFFFFFFFFFFFFFFFFFFFFFFFFFFFFFFFFF DUP1 DUP6 AND PUSH32 0xFFFFFFFFFFFFFFFFFFFFFFFF0000000000000000000000000000000000000000 SWAP3 DUP4 AND OR SWAP1 SWAP3 SSTORE PUSH1 0xB DUP1 SLOAD SWAP3 DUP5 AND SWAP3 SWAP1 SWAP2 AND SWAP2 SWAP1 SWAP2 OR SWAP1 SSTORE PUSH1 0x15 PUSH2 0x4290 DUP7 DUP9 DUP4 PUSH2 0x595A JUMP JUMPDEST POP PUSH1 0x16 PUSH2 0x21D2 DUP5 DUP7 DUP4 PUSH2 0x595A JUMP JUMPDEST PUSH1 0x0 DUP1 DUP3 PUSH2 0x42AE PUSH1 0x40 PUSH1 0x2 PUSH2 0x578F JUMP JUMPDEST PUSH2 0x42B8 SWAP2 SWAP1 PUSH2 0x5593 JUMP JUMPDEST SWAP1 POP PUSH2 0x42D1 PUSH1 0x40 PUSH2 0x42C9 DUP9 DUP9 PUSH2 0x5593 JUMP JUMPDEST SWAP1 SHL DUP3 PUSH2 0x3AC7 JUMP JUMPDEST PUSH2 0x42DF PUSH1 0x40 DUP8 SWAP1 SHL DUP4 PUSH2 0x3AC7 JUMP JUMPDEST PUSH2 0x42E9 SWAP2 SWAP1 PUSH2 0x5593 JUMP JUMPDEST PUSH2 0x2DAB SWAP1 DUP6 PUSH2 0x55A6 JUMP JUMPDEST PUSH1 0x0 DUP1 PUSH2 0x4310 DUP10 PUSH2 0x4306 DUP10 PUSH1 0xA SLOAD PUSH2 0x2D20 JUMP JUMPDEST PUSH2 0x7A0 SWAP1 DUP11 PUSH2 0x5593 JUMP JUMPDEST SWAP1 POP PUSH1 0x5 PUSH1 0x0 SWAP1 SLOAD SWAP1 PUSH2 0x100 EXP SWAP1 DIV PUSH20 0xFFFFFFFFFFFFFFFFFFFFFFFFFFFFFFFFFFFFFFFF AND PUSH20 0xFFFFFFFFFFFFFFFFFFFFFFFFFFFFFFFFFFFFFFFF AND PUSH4 0xBA71471E DUP14 DUP14 DUP14 DUP13 DUP7 DUP13 PUSH1 0x0 PUSH5 0x100000000 PUSH1 0x13 SLOAD PUSH2 0x436B SWAP2 SWAP1 PUSH2 0x58F8 JUMP JUMPDEST DUP14 DUP14 PUSH1 0x40 MLOAD DUP12 PUSH4 0xFFFFFFFF AND PUSH1 0xE0 SHL DUP2 MSTORE PUSH1 0x4 ADD PUSH2 0x4392 SWAP11 SWAP10 SWAP9 SWAP8 SWAP7 SWAP6 SWAP5 SWAP4 SWAP3 SWAP2 SWAP1 PUSH2 0x5A75 JUMP JUMPDEST PUSH1 0x0 PUSH1 0x40 MLOAD DUP1 DUP4 SUB DUP2 PUSH1 0x0 DUP8 DUP1 EXTCODESIZE ISZERO DUP1 ISZERO PUSH2 0x43AC JUMPI PUSH1 0x0 DUP1 REVERT JUMPDEST POP GAS CALL ISZERO DUP1 ISZERO PUSH2 0x43C0 JUMPI RETURNDATASIZE PUSH1 0x0 DUP1 RETURNDATACOPY RETURNDATASIZE PUSH1 0x0 REVERT JUMPDEST POP PUSH2 0x43E7 SWAP3 POP POP POP PUSH20 0xFFFFFFFFFFFFFFFFFFFFFFFFFFFFFFFFFFFFFFFF DUP11 AND CALLER ADDRESS DUP11 PUSH2 0x2E8E JUMP JUMPDEST PUSH20 0xFFFFFFFFFFFFFFFFFFFFFFFFFFFFFFFFFFFFFFFF DUP10 AND PUSH1 0x0 SWAP1 DUP2 MSTORE PUSH1 0x11 PUSH1 0x20 MSTORE PUSH1 0x40 DUP2 KECCAK256 DUP1 SLOAD DUP10 SWAP3 SWAP1 PUSH2 0x441C SWAP1 DUP5 SWAP1 PUSH2 0x5580 JUMP JUMPDEST SWAP3 POP POP DUP2 SWAP1 SSTORE POP PUSH1 0x40 MLOAD DUP1 PUSH1 0x60 ADD PUSH1 0x40 MSTORE DUP1 DUP7 PUSH20 0xFFFFFFFFFFFFFFFFFFFFFFFFFFFFFFFFFFFFFFFF AND DUP2 MSTORE PUSH1 0x20 ADD DUP9 DUP2 MSTORE PUSH1 0x20 ADD DUP11 PUSH20 0xFFFFFFFFFFFFFFFFFFFFFFFFFFFFFFFFFFFFFFFF AND DUP2 MSTORE POP PUSH1 0x12 PUSH1 0x0 PUSH5 0x100000000 PUSH1 0x13 SLOAD PUSH2 0x4481 SWAP2 SWAP1 PUSH2 0x58F8 JUMP JUMPDEST DUP2 MSTORE PUSH1 0x20 DUP1 DUP3 ADD SWAP3 SWAP1 SWAP3 MSTORE PUSH1 0x40 SWAP1 DUP2 ADD PUSH1 0x0 SWAP1 DUP2 KECCAK256 DUP5 MLOAD DUP2 SLOAD PUSH32 0xFFFFFFFFFFFFFFFFFFFFFFFF0000000000000000000000000000000000000000 SWAP1 DUP2 AND PUSH20 0xFFFFFFFFFFFFFFFFFFFFFFFFFFFFFFFFFFFFFFFF SWAP3 DUP4 AND OR DUP4 SSTORE SWAP5 DUP7 ADD MLOAD PUSH1 0x1 DUP4 ADD SSTORE SWAP5 SWAP1 SWAP3 ADD MLOAD PUSH1 0x2 SWAP1 SWAP3 ADD DUP1 SLOAD SWAP1 SWAP4 AND SWAP2 SWAP1 SWAP4 AND OR SWAP1 SSTORE PUSH1 0x1A DUP1 SLOAD DUP4 SWAP3 SWAP1 PUSH2 0x450A SWAP1 DUP5 SWAP1 PUSH2 0x58B3 JUMP JUMPDEST SWAP1 SWAP2 SSTORE POP POP PUSH1 0x40 MLOAD PUSH32 0x70A0823100000000000000000000000000000000000000000000000000000000 DUP2 MSTORE ADDRESS PUSH1 0x4 DUP3 ADD MSTORE PUSH1 0x0 SWAP1 PUSH20 0xFFFFFFFFFFFFFFFFFFFFFFFFFFFFFFFFFFFFFFFF DUP12 AND SWAP1 PUSH4 0x70A08231 SWAP1 PUSH1 0x24 ADD PUSH1 0x20 PUSH1 0x40 MLOAD DUP1 DUP4 SUB DUP2 DUP7 GAS STATICCALL ISZERO DUP1 ISZERO PUSH2 0x457C JUMPI RETURNDATASIZE PUSH1 0x0 DUP1 RETURNDATACOPY RETURNDATASIZE PUSH1 0x0 REVERT JUMPDEST POP POP POP POP PUSH1 0x40 MLOAD RETURNDATASIZE PUSH1 0x1F NOT PUSH1 0x1F DUP3 ADD AND DUP3 ADD DUP1 PUSH1 0x40 MSTORE POP DUP2 ADD SWAP1 PUSH2 0x45A0 SWAP2 SWAP1 PUSH2 0x5600 JUMP JUMPDEST SWAP1 POP PUSH2 0x45D2 PUSH1 0x18 SLOAD PUSH2 0xDD6 PUSH2 0x45B7 DUP12 PUSH1 0xA SLOAD PUSH2 0x2D20 JUMP JUMPDEST PUSH2 0x45C1 SWAP1 DUP13 PUSH2 0x5593 JUMP JUMPDEST PUSH2 0x45CB SWAP1 DUP6 PUSH2 0x5593 JUMP JUMPDEST DUP5 DUP15 PUSH2 0x34FA JUMP JUMPDEST PUSH1 0xC PUSH1 0x0 DUP3 DUP3 SLOAD PUSH2 0x45E3 SWAP2 SWAP1 PUSH2 0x5580 JUMP JUMPDEST SWAP1 SWAP2 SSTORE POP POP PUSH1 0xD SLOAD SWAP1 POP DUP2 DUP2 GT ISZERO PUSH2 0x4612 JUMPI DUP2 PUSH1 0xD PUSH1 0x0 DUP3 DUP3 SLOAD PUSH2 0x4607 SWAP2 SWAP1 PUSH2 0x5593 JUMP JUMPDEST SWAP1 SWAP2 SSTORE POP PUSH2 0x461E SWAP1 POP JUMP JUMPDEST DUP1 ISZERO PUSH2 0x461E JUMPI PUSH1 0x0 PUSH1 0xD SSTORE JUMPDEST POP DUP9 PUSH20 0xFFFFFFFFFFFFFFFFFFFFFFFFFFFFFFFFFFFFFFFF AND DUP11 DUP13 PUSH32 0x2483AC7794A891A1DA9E35AF72035937919C140AB4E1FEC8FB8041DBFB439362 DUP12 DUP12 DUP7 PUSH2 0x4668 DUP15 PUSH1 0xA SLOAD PUSH2 0x2D20 JUMP JUMPDEST PUSH5 0x100000000 PUSH1 0x13 SLOAD PUSH2 0x467B SWAP2 SWAP1 PUSH2 0x58F8 JUMP JUMPDEST PUSH1 0x40 DUP1 MLOAD PUSH1 0xFF SWAP1 SWAP7 AND DUP7 MSTORE PUSH1 0x20 DUP7 ADD SWAP5 SWAP1 SWAP5 MSTORE SWAP3 DUP5 ADD SWAP2 SWAP1 SWAP2 MSTORE PUSH1 0x60 DUP4 ADD MSTORE PUSH4 0xFFFFFFFF AND PUSH1 0x80 DUP3 ADD MSTORE PUSH1 0xA0 ADD PUSH1 0x40 MLOAD DUP1 SWAP2 SUB SWAP1 LOG4 PUSH1 0x1 PUSH1 0x13 PUSH1 0x0 DUP3 DUP3 SLOAD PUSH2 0x46C3 SWAP2 SWAP1 PUSH2 0x5580 JUMP JUMPDEST SWAP1 SWAP2 SSTORE POP SWAP1 SWAP13 SWAP12 POP POP POP POP POP POP POP POP POP POP POP POP JUMP JUMPDEST PUSH1 0x0 DUP1 DUP3 PUSH2 0x46E8 PUSH1 0x40 PUSH1 0x2 PUSH2 0x578F JUMP JUMPDEST PUSH2 0x46F2 SWAP2 SWAP1 PUSH2 0x5593 JUMP JUMPDEST SWAP1 POP PUSH2 0x4702 PUSH1 0x40 DUP7 SWAP1 SHL DUP3 PUSH2 0x3AC7 JUMP JUMPDEST PUSH2 0x42DF PUSH1 0x40 PUSH2 0x4711 DUP10 DUP10 PUSH2 0x5580 JUMP JUMPDEST SWAP1 SHL DUP4 PUSH2 0x3AC7 JUMP JUMPDEST PUSH1 0x0 PUSH2 0x477B DUP3 PUSH1 0x40 MLOAD DUP1 PUSH1 0x40 ADD PUSH1 0x40 MSTORE DUP1 PUSH1 0x20 DUP2 MSTORE PUSH1 0x20 ADD PUSH32 0x5361666545524332303A206C6F772D6C6576656C2063616C6C206661696C6564 DUP2 MSTORE POP DUP6 PUSH20 0xFFFFFFFFFFFFFFFFFFFFFFFFFFFFFFFFFFFFFFFF AND PUSH2 0x4CC5 SWAP1 SWAP3 SWAP2 SWAP1 PUSH4 0xFFFFFFFF AND JUMP JUMPDEST DUP1 MLOAD SWAP1 SWAP2 POP ISZERO PUSH2 0x2E89 JUMPI DUP1 DUP1 PUSH1 0x20 ADD SWAP1 MLOAD DUP2 ADD SWAP1 PUSH2 0x4799 SWAP2 SWAP1 PUSH2 0x58DB JUMP JUMPDEST PUSH2 0x2E89 JUMPI PUSH1 0x40 MLOAD PUSH32 0x8C379A000000000000000000000000000000000000000000000000000000000 DUP2 MSTORE PUSH1 0x20 PUSH1 0x4 DUP3 ADD MSTORE PUSH1 0x2A PUSH1 0x24 DUP3 ADD MSTORE PUSH32 0x5361666545524332303A204552433230206F7065726174696F6E20646964206E PUSH1 0x44 DUP3 ADD MSTORE PUSH32 0x6F74207375636365656400000000000000000000000000000000000000000000 PUSH1 0x64 DUP3 ADD MSTORE PUSH1 0x84 ADD PUSH2 0x975 JUMP JUMPDEST PUSH1 0x0 DUP1 DUP3 PUSH1 0x1 PUSH2 0x4837 PUSH1 0x40 PUSH1 0x2 PUSH2 0x578F JUMP JUMPDEST PUSH2 0x4841 SWAP2 SWAP1 PUSH2 0x5593 JUMP JUMPDEST PUSH2 0x484B SWAP2 SWAP1 PUSH2 0x58F8 JUMP JUMPDEST SWAP1 POP PUSH1 0x0 DUP4 PUSH1 0x1 PUSH2 0x485E PUSH1 0x40 PUSH1 0x2 PUSH2 0x578F JUMP JUMPDEST PUSH2 0x4868 SWAP2 SWAP1 PUSH2 0x5593 JUMP JUMPDEST PUSH2 0x4872 SWAP2 SWAP1 PUSH2 0x55EC JUMP JUMPDEST SWAP1 POP DUP4 DUP6 PUSH2 0x4881 DUP5 PUSH1 0x1 PUSH2 0x5580 JUMP JUMPDEST PUSH2 0x488B SWAP2 SWAP1 PUSH2 0x55A6 JUMP JUMPDEST PUSH2 0x4895 SWAP2 SWAP1 PUSH2 0x55EC JUMP JUMPDEST PUSH2 0x489F DUP7 DUP4 PUSH2 0x55A6 JUMP JUMPDEST PUSH2 0xBD8 SWAP2 SWAP1 PUSH2 0x5580 JUMP JUMPDEST PUSH1 0x0 PUSH2 0xA50 PUSH2 0x1DFF DUP4 PUSH2 0xDD6 DUP7 JUMPDEST PUSH1 0x0 PUSH9 0x10000000000000000 DUP3 LT ISZERO PUSH2 0x48CF JUMPI PUSH1 0x0 DUP1 REVERT JUMPDEST DUP2 PUSH1 0x0 PUSH17 0x100000000000000000000000000000000 DUP3 LT PUSH2 0x48F2 JUMPI PUSH1 0x80 SWAP2 DUP3 SHR SWAP2 ADD JUMPDEST PUSH9 0x10000000000000000 DUP3 LT PUSH2 0x490A JUMPI PUSH1 0x40 SWAP2 DUP3 SHR SWAP2 ADD JUMPDEST PUSH5 0x100000000 DUP3 LT PUSH2 0x491E JUMPI PUSH1 0x20 SWAP2 DUP3 SHR SWAP2 ADD JUMPDEST PUSH3 0x10000 DUP3 LT PUSH2 0x4930 JUMPI PUSH1 0x10 SWAP2 DUP3 SHR SWAP2 ADD JUMPDEST PUSH2 0x100 DUP3 LT PUSH2 0x4941 JUMPI PUSH1 0x8 SWAP2 DUP3 SHR SWAP2 ADD JUMPDEST PUSH1 0x10 DUP3 LT PUSH2 0x4951 JUMPI PUSH1 0x4 SWAP2 DUP3 SHR SWAP2 ADD JUMPDEST PUSH1 0x4 DUP3 LT PUSH2 0x4961 JUMPI PUSH1 0x2 SWAP2 DUP3 SHR SWAP2 ADD JUMPDEST PUSH1 0x2 DUP3 LT PUSH2 0x496D JUMPI PUSH1 0x1 ADD JUMPDEST PUSH32 0xFFFFFFFFFFFFFFFFFFFFFFFFFFFFFFFFFFFFFFFFFFFFFFFFFFFFFFFFFFFFFFC0 ADD PUSH1 0x1 DUP2 SHL DUP5 DUP2 PUSH2 0x49A1 JUMPI PUSH2 0x49A1 PUSH2 0x55BD JUMP JUMPDEST DIV SWAP2 POP PUSH1 0x40 SHL PUSH1 0x0 JUMPDEST PUSH1 0x18 DUP2 LT ISZERO PUSH2 0x49E4 JUMPI PUSH9 0x20000000000000000 DUP4 LT PUSH2 0x49D5 JUMPI PUSH1 0x1 SWAP3 DUP4 SHR SWAP3 PUSH1 0x40 DUP3 SWAP1 SUB SHL SWAP2 SWAP1 SWAP2 ADD SWAP1 JUMPDEST SWAP2 DUP1 MUL PUSH1 0x40 SHR SWAP2 PUSH1 0x1 ADD PUSH2 0x49AA JUMP JUMPDEST POP SWAP4 SWAP3 POP POP POP JUMP JUMPDEST PUSH1 0x0 PUSH1 0x40 DUP3 SWAP1 SHR PUSH1 0xC0 DUP2 LT PUSH2 0x4A00 JUMPI PUSH1 0x0 DUP1 REVERT JUMPDEST PUSH9 0x10000000000000000 PUSH8 0x8000000000000000 DUP5 AND ISZERO PUSH2 0x4A29 JUMPI PUSH9 0x16A09E667F3BCC909 MUL PUSH1 0x40 SHR JUMPDEST PUSH8 0x4000000000000000 DUP5 AND ISZERO PUSH2 0x4A48 JUMPI PUSH9 0x1306FE0A31B7152DF MUL PUSH1 0x40 SHR JUMPDEST PUSH8 0x2000000000000000 DUP5 AND ISZERO PUSH2 0x4A67 JUMPI PUSH9 0x1172B83C7D517ADCE MUL PUSH1 0x40 SHR JUMPDEST PUSH8 0x1000000000000000 DUP5 AND ISZERO PUSH2 0x4A86 JUMPI PUSH9 0x10B5586CF9890F62A MUL PUSH1 0x40 SHR JUMPDEST PUSH8 0x800000000000000 DUP5 AND ISZERO PUSH2 0x4AA5 JUMPI PUSH9 0x1059B0D31585743AE MUL PUSH1 0x40 SHR JUMPDEST PUSH8 0x400000000000000 DUP5 AND ISZERO PUSH2 0x4AC4 JUMPI PUSH9 0x102C9A3E778060EE7 MUL PUSH1 0x40 SHR JUMPDEST PUSH8 0x200000000000000 DUP5 AND ISZERO PUSH2 0x4AE3 JUMPI PUSH9 0x10163DA9FB33356D8 MUL PUSH1 0x40 SHR JUMPDEST PUSH8 0x100000000000000 DUP5 AND ISZERO PUSH2 0x4B02 JUMPI PUSH9 0x100B1AFA5ABCBED61 MUL PUSH1 0x40 SHR JUMPDEST PUSH7 0x80000000000000 DUP5 AND ISZERO PUSH2 0x4B20 JUMPI PUSH9 0x10058C86DA1C09EA2 MUL PUSH1 0x40 SHR JUMPDEST PUSH7 0x40000000000000 DUP5 AND ISZERO PUSH2 0x4B3E JUMPI PUSH9 0x1002C605E2E8CEC50 MUL PUSH1 0x40 SHR JUMPDEST PUSH7 0x20000000000000 DUP5 AND ISZERO PUSH2 0x4B5C JUMPI PUSH9 0x100162F3904051FA1 MUL PUSH1 0x40 SHR JUMPDEST PUSH7 0x10000000000000 DUP5 AND ISZERO PUSH2 0x4B7A JUMPI PUSH9 0x1000B175EFFDC76BA MUL PUSH1 0x40 SHR JUMPDEST PUSH7 0x8000000000000 DUP5 AND ISZERO PUSH2 0x4B98 JUMPI PUSH9 0x100058BA01FB9F96D MUL PUSH1 0x40 SHR JUMPDEST PUSH7 0x4000000000000 DUP5 AND ISZERO PUSH2 0x4BB6 JUMPI PUSH9 0x10002C5CC37DA9492 MUL PUSH1 0x40 SHR JUMPDEST PUSH7 0x2000000000000 DUP5 AND ISZERO PUSH2 0x4BD4 JUMPI PUSH9 0x1000162E525EE0547 MUL PUSH1 0x40 SHR JUMPDEST PUSH7 0x1000000000000 DUP5 AND ISZERO PUSH2 0x4BF2 JUMPI PUSH9 0x10000B17255775C04 MUL PUSH1 0x40 SHR JUMPDEST PUSH6 0x800000000000 DUP5 AND ISZERO PUSH2 0x4C0F JUMPI PUSH9 0x1000058B91B5BC9AE MUL PUSH1 0x40 SHR JUMPDEST PUSH6 0x400000000000 DUP5 AND ISZERO PUSH2 0x4C2C JUMPI PUSH9 0x100002C5C89D5EC6D MUL PUSH1 0x40 SHR JUMPDEST PUSH6 0x200000000000 DUP5 AND ISZERO PUSH2 0x4C49 JUMPI PUSH9 0x10000162E43F4F831 MUL PUSH1 0x40 SHR JUMPDEST PUSH6 0x100000000000 DUP5 AND ISZERO PUSH2 0x4C66 JUMPI PUSH9 0x100000B1721BCFC9A MUL PUSH1 0x40 SHR JUMPDEST PUSH6 0x80000000000 DUP5 AND ISZERO PUSH2 0x4C83 JUMPI PUSH9 0x10000058B90CF1E6E MUL PUSH1 0x40 SHR JUMPDEST PUSH6 0x40000000000 DUP5 AND ISZERO PUSH2 0x4CA0 JUMPI PUSH9 0x1000002C5C863B73F MUL PUSH1 0x40 SHR JUMPDEST PUSH6 0x20000000000 DUP5 AND ISZERO PUSH2 0x4CBD JUMPI PUSH9 0x100000162E430E5A2 MUL PUSH1 0x40 SHR JUMPDEST SWAP1 SHL SWAP3 SWAP2 POP POP JUMP JUMPDEST PUSH1 0x60 PUSH2 0x4CD4 DUP5 DUP5 PUSH1 0x0 DUP6 PUSH2 0x4CDC JUMP JUMPDEST SWAP5 SWAP4 POP POP POP POP JUMP JUMPDEST PUSH1 0x60 DUP3 SELFBALANCE LT ISZERO PUSH2 0x4D6E JUMPI PUSH1 0x40 MLOAD PUSH32 0x8C379A000000000000000000000000000000000000000000000000000000000 DUP2 MSTORE PUSH1 0x20 PUSH1 0x4 DUP3 ADD MSTORE PUSH1 0x26 PUSH1 0x24 DUP3 ADD MSTORE PUSH32 0x416464726573733A20696E73756666696369656E742062616C616E636520666F PUSH1 0x44 DUP3 ADD MSTORE PUSH32 0x722063616C6C0000000000000000000000000000000000000000000000000000 PUSH1 0x64 DUP3 ADD MSTORE PUSH1 0x84 ADD PUSH2 0x975 JUMP JUMPDEST PUSH20 0xFFFFFFFFFFFFFFFFFFFFFFFFFFFFFFFFFFFFFFFF DUP6 AND EXTCODESIZE PUSH2 0x4DEC JUMPI PUSH1 0x40 MLOAD PUSH32 0x8C379A000000000000000000000000000000000000000000000000000000000 DUP2 MSTORE PUSH1 0x20 PUSH1 0x4 DUP3 ADD MSTORE PUSH1 0x1D PUSH1 0x24 DUP3 ADD MSTORE PUSH32 0x416464726573733A2063616C6C20746F206E6F6E2D636F6E7472616374000000 PUSH1 0x44 DUP3 ADD MSTORE PUSH1 0x64 ADD PUSH2 0x975 JUMP JUMPDEST PUSH1 0x0 DUP1 DUP7 PUSH20 0xFFFFFFFFFFFFFFFFFFFFFFFFFFFFFFFFFFFFFFFF AND DUP6 DUP8 PUSH1 0x40 MLOAD PUSH2 0x4E15 SWAP2 SWAP1 PUSH2 0x5ADB JUMP JUMPDEST PUSH1 0x0 PUSH1 0x40 MLOAD DUP1 DUP4 SUB DUP2 DUP6 DUP8 GAS CALL SWAP3 POP POP POP RETURNDATASIZE DUP1 PUSH1 0x0 DUP2 EQ PUSH2 0x4E52 JUMPI PUSH1 0x40 MLOAD SWAP2 POP PUSH1 0x1F NOT PUSH1 0x3F RETURNDATASIZE ADD AND DUP3 ADD PUSH1 0x40 MSTORE RETURNDATASIZE DUP3 MSTORE RETURNDATASIZE PUSH1 0x0 PUSH1 0x20 DUP5 ADD RETURNDATACOPY PUSH2 0x4E57 JUMP JUMPDEST PUSH1 0x60 SWAP2 POP JUMPDEST POP SWAP2 POP SWAP2 POP PUSH2 0x4E67 DUP3 DUP3 DUP7 PUSH2 0x4E72 JUMP JUMPDEST SWAP8 SWAP7 POP POP POP POP POP POP POP JUMP JUMPDEST PUSH1 0x60 DUP4 ISZERO PUSH2 0x4E81 JUMPI POP DUP2 PUSH2 0xA50 JUMP JUMPDEST DUP3 MLOAD ISZERO PUSH2 0x4E91 JUMPI DUP3 MLOAD DUP1 DUP5 PUSH1 0x20 ADD REVERT JUMPDEST DUP2 PUSH1 0x40 MLOAD PUSH32 0x8C379A000000000000000000000000000000000000000000000000000000000 DUP2 MSTORE PUSH1 0x4 ADD PUSH2 0x975 SWAP2 SWAP1 PUSH2 0x4F02 JUMP JUMPDEST PUSH1 0x0 PUSH1 0x20 DUP3 DUP5 SUB SLT ISZERO PUSH2 0x4ED7 JUMPI PUSH1 0x0 DUP1 REVERT JUMPDEST POP CALLDATALOAD SWAP2 SWAP1 POP JUMP JUMPDEST PUSH1 0x0 JUMPDEST DUP4 DUP2 LT ISZERO PUSH2 0x4EF9 JUMPI DUP2 DUP2 ADD MLOAD DUP4 DUP3 ADD MSTORE PUSH1 0x20 ADD PUSH2 0x4EE1 JUMP JUMPDEST POP POP PUSH1 0x0 SWAP2 ADD MSTORE JUMP JUMPDEST PUSH1 0x20 DUP2 MSTORE PUSH1 0x0 DUP3 MLOAD DUP1 PUSH1 0x20 DUP5 ADD MSTORE PUSH2 0x4F21 DUP2 PUSH1 0x40 DUP6 ADD PUSH1 0x20 DUP8 ADD PUSH2 0x4EDE JUMP JUMPDEST PUSH1 0x1F ADD PUSH32 0xFFFFFFFFFFFFFFFFFFFFFFFFFFFFFFFFFFFFFFFFFFFFFFFFFFFFFFFFFFFFFFE0 AND SWAP2 SWAP1 SWAP2 ADD PUSH1 0x40 ADD SWAP3 SWAP2 POP POP JUMP JUMPDEST DUP1 CALLDATALOAD PUSH20 0xFFFFFFFFFFFFFFFFFFFFFFFFFFFFFFFFFFFFFFFF DUP2 AND DUP2 EQ PUSH2 0x4F77 JUMPI PUSH1 0x0 DUP1 REVERT JUMPDEST SWAP2 SWAP1 POP JUMP JUMPDEST PUSH1 0x0 DUP1 PUSH1 0x40 DUP4 DUP6 SUB SLT ISZERO PUSH2 0x4F8F JUMPI PUSH1 0x0 DUP1 REVERT JUMPDEST PUSH2 0x4F98 DUP4 PUSH2 0x4F53 JUMP JUMPDEST SWAP5 PUSH1 0x20 SWAP4 SWAP1 SWAP4 ADD CALLDATALOAD SWAP4 POP POP POP JUMP JUMPDEST PUSH1 0x0 DUP1 PUSH1 0x0 DUP1 PUSH1 0x80 DUP6 DUP8 SUB SLT ISZERO PUSH2 0x4FBC JUMPI PUSH1 0x0 DUP1 REVERT JUMPDEST PUSH2 0x4FC5 DUP6 PUSH2 0x4F53 JUMP JUMPDEST SWAP4 POP PUSH2 0x4FD3 PUSH1 0x20 DUP7 ADD PUSH2 0x4F53 JUMP JUMPDEST SWAP4 SWAP7 SWAP4 SWAP6 POP POP POP POP PUSH1 0x40 DUP3 ADD CALLDATALOAD SWAP2 PUSH1 0x60 ADD CALLDATALOAD SWAP1 JUMP JUMPDEST PUSH1 0x0 DUP1 PUSH1 0x0 PUSH1 0x60 DUP5 DUP7 SUB SLT ISZERO PUSH2 0x4FFD JUMPI PUSH1 0x0 DUP1 REVERT JUMPDEST PUSH2 0x5006 DUP5 PUSH2 0x4F53 JUMP JUMPDEST SWAP3 POP PUSH2 0x5014 PUSH1 0x20 DUP6 ADD PUSH2 0x4F53 JUMP JUMPDEST SWAP2 POP PUSH1 0x40 DUP5 ADD CALLDATALOAD SWAP1 POP SWAP3 POP SWAP3 POP SWAP3 JUMP JUMPDEST PUSH1 0x0 PUSH1 0x20 DUP3 DUP5 SUB SLT ISZERO PUSH2 0x5036 JUMPI PUSH1 0x0 DUP1 REVERT JUMPDEST PUSH2 0xA50 DUP3 PUSH2 0x4F53 JUMP JUMPDEST PUSH1 0x0 DUP1 PUSH1 0x0 PUSH1 0x60 DUP5 DUP7 SUB SLT ISZERO PUSH2 0x5054 JUMPI PUSH1 0x0 DUP1 REVERT JUMPDEST PUSH2 0x505D DUP5 PUSH2 0x4F53 JUMP JUMPDEST SWAP6 PUSH1 0x20 DUP6 ADD CALLDATALOAD SWAP6 POP PUSH1 0x40 SWAP1 SWAP5 ADD CALLDATALOAD SWAP4 SWAP3 POP POP POP JUMP JUMPDEST DUP1 ISZERO ISZERO DUP2 EQ PUSH2 0x5080 JUMPI PUSH1 0x0 DUP1 REVERT JUMPDEST POP JUMP JUMPDEST PUSH1 0x0 DUP1 PUSH1 0x0 DUP1 PUSH1 0x0 PUSH1 0xA0 DUP7 DUP9 SUB SLT ISZERO PUSH2 0x509B JUMPI PUSH1 0x0 DUP1 REVERT JUMPDEST DUP6 CALLDATALOAD SWAP5 POP PUSH2 0x50AB PUSH1 0x20 DUP8 ADD PUSH2 0x4F53 JUMP JUMPDEST SWAP4 POP PUSH1 0x40 DUP7 ADD CALLDATALOAD SWAP3 POP PUSH1 0x60 DUP7 ADD CALLDATALOAD SWAP2 POP PUSH1 0x80 DUP7 ADD CALLDATALOAD PUSH2 0x50C9 DUP2 PUSH2 0x5072 JUMP JUMPDEST DUP1 SWAP2 POP POP SWAP3 SWAP6 POP SWAP3 SWAP6 SWAP1 SWAP4 POP JUMP JUMPDEST DUP1 CALLDATALOAD PUSH4 0xFFFFFFFF DUP2 AND DUP2 EQ PUSH2 0x4F77 JUMPI PUSH1 0x0 DUP1 REVERT JUMPDEST DUP1 CALLDATALOAD PUSH1 0xFF DUP2 AND DUP2 EQ PUSH2 0x4F77 JUMPI PUSH1 0x0 DUP1 REVERT JUMPDEST PUSH1 0x0 DUP1 PUSH1 0x0 DUP1 PUSH1 0x0 DUP1 PUSH1 0x0 DUP1 PUSH1 0x0 PUSH2 0x120 DUP11 DUP13 SUB SLT ISZERO PUSH2 0x511B JUMPI PUSH1 0x0 DUP1 REVERT JUMPDEST PUSH2 0x5124 DUP11 PUSH2 0x50D7 JUMP JUMPDEST SWAP9 POP PUSH1 0x20 DUP11 ADD CALLDATALOAD SWAP8 POP PUSH1 0x40 DUP11 ADD CALLDATALOAD SWAP7 POP PUSH2 0x5140 PUSH1 0x60 DUP12 ADD PUSH2 0x4F53 JUMP JUMPDEST SWAP6 POP PUSH2 0x514E PUSH1 0x80 DUP12 ADD PUSH2 0x50EB JUMP JUMPDEST SWAP5 POP PUSH1 0xA0 DUP11 ADD CALLDATALOAD SWAP4 POP PUSH1 0xC0 DUP11 ADD CALLDATALOAD SWAP3 POP PUSH2 0x516A PUSH1 0xE0 DUP12 ADD PUSH2 0x50EB JUMP JUMPDEST SWAP2 POP PUSH2 0x5179 PUSH2 0x100 DUP12 ADD PUSH2 0x4F53 JUMP JUMPDEST SWAP1 POP SWAP3 SWAP6 SWAP9 POP SWAP3 SWAP6 SWAP9 POP SWAP3 SWAP6 SWAP9 JUMP JUMPDEST PUSH1 0x0 DUP1 PUSH1 0x0 DUP1 PUSH1 0x80 DUP6 DUP8 SUB SLT ISZERO PUSH2 0x519E JUMPI PUSH1 0x0 DUP1 REVERT JUMPDEST POP POP DUP3 CALLDATALOAD SWAP5 PUSH1 0x20 DUP5 ADD CALLDATALOAD SWAP5 POP PUSH1 0x40 DUP5 ADD CALLDATALOAD SWAP4 PUSH1 0x60 ADD CALLDATALOAD SWAP3 POP SWAP1 POP JUMP JUMPDEST PUSH1 0x0 DUP1 DUP4 PUSH1 0x1F DUP5 ADD SLT PUSH2 0x51CC JUMPI PUSH1 0x0 DUP1 REVERT JUMPDEST POP DUP2 CALLDATALOAD PUSH8 0xFFFFFFFFFFFFFFFF DUP2 GT ISZERO PUSH2 0x51E4 JUMPI PUSH1 0x0 DUP1 REVERT JUMPDEST PUSH1 0x20 DUP4 ADD SWAP2 POP DUP4 PUSH1 0x20 DUP3 DUP6 ADD ADD GT ISZERO PUSH2 0x51FC JUMPI PUSH1 0x0 DUP1 REVERT JUMPDEST SWAP3 POP SWAP3 SWAP1 POP JUMP JUMPDEST PUSH1 0x0 DUP1 PUSH1 0x0 DUP1 PUSH1 0x0 DUP1 PUSH1 0x0 DUP1 PUSH1 0xE0 DUP10 DUP12 SUB SLT ISZERO PUSH2 0x521F JUMPI PUSH1 0x0 DUP1 REVERT JUMPDEST DUP9 CALLDATALOAD SWAP8 POP PUSH2 0x522F PUSH1 0x20 DUP11 ADD PUSH2 0x4F53 JUMP JUMPDEST SWAP7 POP PUSH1 0x40 DUP10 ADD CALLDATALOAD SWAP6 POP PUSH1 0x60 DUP10 ADD CALLDATALOAD SWAP5 POP PUSH1 0x80 DUP10 ADD CALLDATALOAD PUSH2 0x524D DUP2 PUSH2 0x5072 JUMP JUMPDEST SWAP4 POP PUSH2 0x525B PUSH1 0xA0 DUP11 ADD PUSH2 0x4F53 JUMP JUMPDEST SWAP3 POP PUSH1 0xC0 DUP10 ADD CALLDATALOAD PUSH8 0xFFFFFFFFFFFFFFFF DUP2 GT ISZERO PUSH2 0x5277 JUMPI PUSH1 0x0 DUP1 REVERT JUMPDEST PUSH2 0x5283 DUP12 DUP3 DUP13 ADD PUSH2 0x51BA JUMP JUMPDEST SWAP10 SWAP13 SWAP9 SWAP12 POP SWAP7 SWAP10 POP SWAP5 SWAP8 SWAP4 SWAP7 SWAP3 SWAP6 SWAP5 POP POP POP JUMP JUMPDEST PUSH1 0x0 DUP1 DUP4 PUSH1 0x1F DUP5 ADD SLT PUSH2 0x52A9 JUMPI PUSH1 0x0 DUP1 REVERT JUMPDEST POP DUP2 CALLDATALOAD PUSH8 0xFFFFFFFFFFFFFFFF DUP2 GT ISZERO PUSH2 0x52C1 JUMPI PUSH1 0x0 DUP1 REVERT JUMPDEST PUSH1 0x20 DUP4 ADD SWAP2 POP DUP4 PUSH1 0x20 DUP3 PUSH1 0x5 SHL DUP6 ADD ADD GT ISZERO PUSH2 0x51FC JUMPI PUSH1 0x0 DUP1 REVERT JUMPDEST PUSH1 0x0 DUP1 PUSH1 0x0 DUP1 PUSH1 0x0 DUP1 PUSH1 0x0 DUP1 PUSH1 0x0 DUP1 PUSH1 0x0 PUSH1 0xE0 DUP13 DUP15 SUB SLT ISZERO PUSH2 0x52FD JUMPI PUSH1 0x0 DUP1 REVERT JUMPDEST PUSH2 0x5306 DUP13 PUSH2 0x4F53 JUMP JUMPDEST SWAP11 POP PUSH8 0xFFFFFFFFFFFFFFFF DUP1 PUSH1 0x20 DUP15 ADD CALLDATALOAD GT ISZERO PUSH2 0x5322 JUMPI PUSH1 0x0 DUP1 REVERT JUMPDEST PUSH2 0x5332 DUP15 PUSH1 0x20 DUP16 ADD CALLDATALOAD DUP16 ADD PUSH2 0x5297 JUMP JUMPDEST SWAP1 SWAP12 POP SWAP10 POP PUSH1 0x40 DUP14 ADD CALLDATALOAD DUP2 LT ISZERO PUSH2 0x5348 JUMPI PUSH1 0x0 DUP1 REVERT JUMPDEST PUSH2 0x5358 DUP15 PUSH1 0x40 DUP16 ADD CALLDATALOAD DUP16 ADD PUSH2 0x5297 JUMP JUMPDEST SWAP1 SWAP10 POP SWAP8 POP PUSH1 0x60 DUP14 ADD CALLDATALOAD SWAP7 POP PUSH1 0x80 DUP14 ADD CALLDATALOAD DUP2 LT ISZERO PUSH2 0x5375 JUMPI PUSH1 0x0 DUP1 REVERT JUMPDEST PUSH2 0x5385 DUP15 PUSH1 0x80 DUP16 ADD CALLDATALOAD DUP16 ADD PUSH2 0x51BA JUMP JUMPDEST SWAP1 SWAP7 POP SWAP5 POP PUSH1 0xA0 DUP14 ADD CALLDATALOAD DUP2 LT ISZERO PUSH2 0x539B JUMPI PUSH1 0x0 DUP1 REVERT JUMPDEST POP PUSH2 0x53AC DUP14 PUSH1 0xA0 DUP15 ADD CALLDATALOAD DUP15 ADD PUSH2 0x51BA JUMP JUMPDEST SWAP1 SWAP4 POP SWAP2 POP PUSH2 0x53BD PUSH1 0xC0 DUP14 ADD PUSH2 0x4F53 JUMP JUMPDEST SWAP1 POP SWAP3 SWAP6 SWAP9 SWAP12 POP SWAP3 SWAP6 SWAP9 SWAP12 SWAP1 SWAP4 SWAP7 SWAP10 POP JUMP JUMPDEST PUSH1 0x0 DUP1 PUSH1 0x0 PUSH1 0x60 DUP5 DUP7 SUB SLT ISZERO PUSH2 0x53E4 JUMPI PUSH1 0x0 DUP1 REVERT JUMPDEST DUP4 CALLDATALOAD SWAP3 POP PUSH1 0x20 DUP5 ADD CALLDATALOAD SWAP2 POP PUSH1 0x40 DUP5 ADD CALLDATALOAD PUSH2 0x53FD DUP2 PUSH2 0x5072 JUMP JUMPDEST DUP1 SWAP2 POP POP SWAP3 POP SWAP3 POP SWAP3 JUMP JUMPDEST PUSH1 0x0 DUP1 PUSH1 0x0 DUP1 PUSH1 0x0 DUP1 PUSH1 0x0 DUP1 PUSH1 0x0 DUP1 PUSH1 0x0 PUSH2 0x140 DUP13 DUP15 SUB SLT ISZERO PUSH2 0x542A JUMPI PUSH1 0x0 DUP1 REVERT JUMPDEST PUSH2 0x5433 DUP13 PUSH2 0x50D7 JUMP JUMPDEST SWAP11 POP PUSH1 0x20 DUP13 ADD CALLDATALOAD SWAP10 POP PUSH1 0x40 DUP13 ADD CALLDATALOAD SWAP9 POP PUSH2 0x544F PUSH1 0x60 DUP14 ADD PUSH2 0x4F53 JUMP JUMPDEST SWAP8 POP PUSH2 0x545D PUSH1 0x80 DUP14 ADD PUSH2 0x50EB JUMP JUMPDEST SWAP7 POP PUSH1 0xA0 DUP13 ADD CALLDATALOAD SWAP6 POP PUSH1 0xC0 DUP13 ADD CALLDATALOAD SWAP5 POP PUSH2 0x5479 PUSH1 0xE0 DUP14 ADD PUSH2 0x50EB JUMP JUMPDEST SWAP4 POP PUSH2 0x5488 PUSH2 0x100 DUP14 ADD PUSH2 0x4F53 JUMP JUMPDEST SWAP3 POP PUSH2 0x120 DUP13 ADD CALLDATALOAD PUSH8 0xFFFFFFFFFFFFFFFF DUP2 GT ISZERO PUSH2 0x54A5 JUMPI PUSH1 0x0 DUP1 REVERT JUMPDEST PUSH2 0x54B1 DUP15 DUP3 DUP16 ADD PUSH2 0x51BA JUMP JUMPDEST SWAP2 POP DUP1 SWAP4 POP POP DUP1 SWAP2 POP POP SWAP3 SWAP6 SWAP9 SWAP12 POP SWAP3 SWAP6 SWAP9 SWAP12 SWAP1 SWAP4 SWAP7 SWAP10 POP JUMP JUMPDEST PUSH1 0x0 DUP1 PUSH1 0x40 DUP4 DUP6 SUB SLT ISZERO PUSH2 0x54DE JUMPI PUSH1 0x0 DUP1 REVERT JUMPDEST PUSH2 0x54E7 DUP4 PUSH2 0x4F53 JUMP JUMPDEST SWAP2 POP PUSH2 0x54F5 PUSH1 0x20 DUP5 ADD PUSH2 0x4F53 JUMP JUMPDEST SWAP1 POP SWAP3 POP SWAP3 SWAP1 POP JUMP JUMPDEST PUSH1 0x1 DUP2 DUP2 SHR SWAP1 DUP3 AND DUP1 PUSH2 0x5512 JUMPI PUSH1 0x7F DUP3 AND SWAP2 POP JUMPDEST PUSH1 0x20 DUP3 LT DUP2 SUB PUSH2 0x554B JUMPI PUSH32 0x4E487B7100000000000000000000000000000000000000000000000000000000 PUSH1 0x0 MSTORE PUSH1 0x22 PUSH1 0x4 MSTORE PUSH1 0x24 PUSH1 0x0 REVERT JUMPDEST POP SWAP2 SWAP1 POP JUMP JUMPDEST PUSH32 0x4E487B7100000000000000000000000000000000000000000000000000000000 PUSH1 0x0 MSTORE PUSH1 0x11 PUSH1 0x4 MSTORE PUSH1 0x24 PUSH1 0x0 REVERT JUMPDEST DUP1 DUP3 ADD DUP1 DUP3 GT ISZERO PUSH2 0x85E JUMPI PUSH2 0x85E PUSH2 0x5551 JUMP JUMPDEST DUP2 DUP2 SUB DUP2 DUP2 GT ISZERO PUSH2 0x85E JUMPI PUSH2 0x85E PUSH2 0x5551 JUMP JUMPDEST DUP1 DUP3 MUL DUP2 ISZERO DUP3 DUP3 DIV DUP5 EQ OR PUSH2 0x85E JUMPI PUSH2 0x85E PUSH2 0x5551 JUMP JUMPDEST PUSH32 0x4E487B7100000000000000000000000000000000000000000000000000000000 PUSH1 0x0 MSTORE PUSH1 0x12 PUSH1 0x4 MSTORE PUSH1 0x24 PUSH1 0x0 REVERT JUMPDEST PUSH1 0x0 DUP3 PUSH2 0x55FB JUMPI PUSH2 0x55FB PUSH2 0x55BD JUMP JUMPDEST POP DIV SWAP1 JUMP JUMPDEST PUSH1 0x0 PUSH1 0x20 DUP3 DUP5 SUB SLT ISZERO PUSH2 0x5612 JUMPI PUSH1 0x0 DUP1 REVERT JUMPDEST POP MLOAD SWAP2 SWAP1 POP JUMP JUMPDEST DUP2 DUP2 SUB PUSH1 0x0 DUP4 SLT DUP1 ISZERO DUP4 DUP4 SGT AND DUP4 DUP4 SLT DUP3 AND OR ISZERO PUSH2 0x5639 JUMPI PUSH2 0x5639 PUSH2 0x5551 JUMP JUMPDEST POP SWAP3 SWAP2 POP POP JUMP JUMPDEST PUSH32 0x4E487B7100000000000000000000000000000000000000000000000000000000 PUSH1 0x0 MSTORE PUSH1 0x41 PUSH1 0x4 MSTORE PUSH1 0x24 PUSH1 0x0 REVERT JUMPDEST PUSH1 0x1 DUP2 DUP2 JUMPDEST DUP1 DUP6 GT ISZERO PUSH2 0x56C8 JUMPI DUP2 PUSH32 0xFFFFFFFFFFFFFFFFFFFFFFFFFFFFFFFFFFFFFFFFFFFFFFFFFFFFFFFFFFFFFFFF DIV DUP3 GT ISZERO PUSH2 0x56AE JUMPI PUSH2 0x56AE PUSH2 0x5551 JUMP JUMPDEST DUP1 DUP6 AND ISZERO PUSH2 0x56BB JUMPI SWAP2 DUP2 MUL SWAP2 JUMPDEST SWAP4 DUP5 SHR SWAP4 SWAP1 DUP1 MUL SWAP1 PUSH2 0x5674 JUMP JUMPDEST POP SWAP3 POP SWAP3 SWAP1 POP JUMP JUMPDEST PUSH1 0x0 DUP3 PUSH2 0x56DF JUMPI POP PUSH1 0x1 PUSH2 0x85E JUMP JUMPDEST DUP2 PUSH2 0x56EC JUMPI POP PUSH1 0x0 PUSH2 0x85E JUMP JUMPDEST DUP2 PUSH1 0x1 DUP2 EQ PUSH2 0x5702 JUMPI PUSH1 0x2 DUP2 EQ PUSH2 0x570C JUMPI PUSH2 0x5728 JUMP JUMPDEST PUSH1 0x1 SWAP2 POP POP PUSH2 0x85E JUMP JUMPDEST PUSH1 0xFF DUP5 GT ISZERO PUSH2 0x571D JUMPI PUSH2 0x571D PUSH2 0x5551 JUMP JUMPDEST POP POP PUSH1 0x1 DUP3 SHL PUSH2 0x85E JUMP JUMPDEST POP PUSH1 0x20 DUP4 LT PUSH2 0x133 DUP4 LT AND PUSH1 0x4E DUP5 LT PUSH1 0xB DUP5 LT AND OR ISZERO PUSH2 0x574B JUMPI POP DUP2 DUP2 EXP PUSH2 0x85E JUMP JUMPDEST PUSH2 0x5755 DUP4 DUP4 PUSH2 0x566F JUMP JUMPDEST DUP1 PUSH32 0xFFFFFFFFFFFFFFFFFFFFFFFFFFFFFFFFFFFFFFFFFFFFFFFFFFFFFFFFFFFFFFFF DIV DUP3 GT ISZERO PUSH2 0x5787 JUMPI PUSH2 0x5787 PUSH2 0x5551 JUMP JUMPDEST MUL SWAP4 SWAP3 POP POP POP JUMP JUMPDEST PUSH1 0x0 PUSH2 0xA50 DUP4 DUP4 PUSH2 0x56D0 JUMP JUMPDEST PUSH32 0x4E487B7100000000000000000000000000000000000000000000000000000000 PUSH1 0x0 MSTORE PUSH1 0x32 PUSH1 0x4 MSTORE PUSH1 0x24 PUSH1 0x0 REVERT JUMPDEST PUSH1 0x0 PUSH32 0xFFFFFFFFFFFFFFFFFFFFFFFFFFFFFFFFFFFFFFFFFFFFFFFFFFFFFFFFFFFFFFFF DUP3 SUB PUSH2 0x57FB JUMPI PUSH2 0x57FB PUSH2 0x5551 JUMP JUMPDEST POP PUSH1 0x1 ADD SWAP1 JUMP JUMPDEST DUP2 DUP4 MSTORE DUP2 DUP2 PUSH1 0x20 DUP6 ADD CALLDATACOPY POP PUSH1 0x0 PUSH1 0x20 DUP3 DUP5 ADD ADD MSTORE PUSH1 0x0 PUSH1 0x20 PUSH32 0xFFFFFFFFFFFFFFFFFFFFFFFFFFFFFFFFFFFFFFFFFFFFFFFFFFFFFFFFFFFFFFE0 PUSH1 0x1F DUP5 ADD AND DUP5 ADD ADD SWAP1 POP SWAP3 SWAP2 POP POP JUMP JUMPDEST DUP4 DUP2 MSTORE PUSH1 0x40 PUSH1 0x20 DUP3 ADD MSTORE PUSH1 0x0 PUSH2 0xBD8 PUSH1 0x40 DUP4 ADD DUP5 DUP7 PUSH2 0x5802 JUMP JUMPDEST PUSH1 0x0 PUSH1 0x40 DUP3 ADD DUP5 DUP4 MSTORE PUSH1 0x20 PUSH1 0x40 DUP2 DUP6 ADD MSTORE DUP2 DUP6 MLOAD DUP1 DUP5 MSTORE PUSH1 0x60 DUP7 ADD SWAP2 POP DUP3 DUP8 ADD SWAP4 POP PUSH1 0x0 JUMPDEST DUP2 DUP2 LT ISZERO PUSH2 0x58A6 JUMPI DUP5 MLOAD DUP4 MSTORE SWAP4 DUP4 ADD SWAP4 SWAP2 DUP4 ADD SWAP2 PUSH1 0x1 ADD PUSH2 0x588A JUMP JUMPDEST POP SWAP1 SWAP8 SWAP7 POP POP POP POP POP POP POP JUMP JUMPDEST DUP1 DUP3 ADD DUP3 DUP2 SLT PUSH1 0x0 DUP4 SLT DUP1 ISZERO DUP3 AND DUP3 ISZERO DUP3 AND OR ISZERO PUSH2 0x58D3 JUMPI PUSH2 0x58D3 PUSH2 0x5551 JUMP JUMPDEST POP POP SWAP3 SWAP2 POP POP JUMP JUMPDEST PUSH1 0x0 PUSH1 0x20 DUP3 DUP5 SUB SLT ISZERO PUSH2 0x58ED JUMPI PUSH1 0x0 DUP1 REVERT JUMPDEST DUP2 MLOAD PUSH2 0xA50 DUP2 PUSH2 0x5072 JUMP JUMPDEST PUSH1 0x0 DUP3 PUSH2 0x5907 JUMPI PUSH2 0x5907 PUSH2 0x55BD JUMP JUMPDEST POP MOD SWAP1 JUMP JUMPDEST PUSH1 0x1F DUP3 GT ISZERO PUSH2 0x2E89 JUMPI PUSH1 0x0 DUP2 DUP2 MSTORE PUSH1 0x20 DUP2 KECCAK256 PUSH1 0x1F DUP6 ADD PUSH1 0x5 SHR DUP2 ADD PUSH1 0x20 DUP7 LT ISZERO PUSH2 0x5933 JUMPI POP DUP1 JUMPDEST PUSH1 0x1F DUP6 ADD PUSH1 0x5 SHR DUP3 ADD SWAP2 POP JUMPDEST DUP2 DUP2 LT ISZERO PUSH2 0x5952 JUMPI DUP3 DUP2 SSTORE PUSH1 0x1 ADD PUSH2 0x593F JUMP JUMPDEST POP POP POP POP POP POP JUMP JUMPDEST PUSH8 0xFFFFFFFFFFFFFFFF DUP4 GT ISZERO PUSH2 0x5972 JUMPI PUSH2 0x5972 PUSH2 0x5640 JUMP JUMPDEST PUSH2 0x5986 DUP4 PUSH2 0x5980 DUP4 SLOAD PUSH2 0x54FE JUMP JUMPDEST DUP4 PUSH2 0x590C JUMP JUMPDEST PUSH1 0x0 PUSH1 0x1F DUP5 GT PUSH1 0x1 DUP2 EQ PUSH2 0x59D8 JUMPI PUSH1 0x0 DUP6 ISZERO PUSH2 0x59A2 JUMPI POP DUP4 DUP3 ADD CALLDATALOAD JUMPDEST PUSH32 0xFFFFFFFFFFFFFFFFFFFFFFFFFFFFFFFFFFFFFFFFFFFFFFFFFFFFFFFFFFFFFFFF PUSH1 0x3 DUP8 SWAP1 SHL SHR NOT AND PUSH1 0x1 DUP7 SWAP1 SHL OR DUP4 SSTORE PUSH2 0x5A6E JUMP JUMPDEST PUSH1 0x0 DUP4 DUP2 MSTORE PUSH1 0x20 SWAP1 KECCAK256 PUSH32 0xFFFFFFFFFFFFFFFFFFFFFFFFFFFFFFFFFFFFFFFFFFFFFFFFFFFFFFFFFFFFFFE0 DUP7 AND SWAP1 DUP4 JUMPDEST DUP3 DUP2 LT ISZERO PUSH2 0x5A27 JUMPI DUP7 DUP6 ADD CALLDATALOAD DUP3 SSTORE PUSH1 0x20 SWAP5 DUP6 ADD SWAP5 PUSH1 0x1 SWAP1 SWAP3 ADD SWAP2 ADD PUSH2 0x5A07 JUMP JUMPDEST POP DUP7 DUP3 LT ISZERO PUSH2 0x5A62 JUMPI PUSH32 0xFFFFFFFFFFFFFFFFFFFFFFFFFFFFFFFFFFFFFFFFFFFFFFFFFFFFFFFFFFFFFFFF PUSH1 0xF8 DUP9 PUSH1 0x3 SHL AND SHR NOT DUP5 DUP8 ADD CALLDATALOAD AND DUP2 SSTORE JUMPDEST POP POP PUSH1 0x1 DUP6 PUSH1 0x1 SHL ADD DUP4 SSTORE JUMPDEST POP POP POP POP POP JUMP JUMPDEST PUSH1 0x0 PUSH2 0x120 PUSH4 0xFFFFFFFF DUP1 DUP15 AND DUP5 MSTORE DUP13 PUSH1 0x20 DUP6 ADD MSTORE DUP12 PUSH1 0x40 DUP6 ADD MSTORE PUSH1 0xFF DUP12 AND PUSH1 0x60 DUP6 ADD MSTORE DUP10 PUSH1 0x80 DUP6 ADD MSTORE DUP9 PUSH1 0xA0 DUP6 ADD MSTORE DUP8 ISZERO ISZERO PUSH1 0xC0 DUP6 ADD MSTORE DUP1 DUP8 AND PUSH1 0xE0 DUP6 ADD MSTORE POP DUP1 PUSH2 0x100 DUP5 ADD MSTORE PUSH2 0x5ACA DUP2 DUP5 ADD DUP6 DUP8 PUSH2 0x5802 JUMP JUMPDEST SWAP14 SWAP13 POP POP POP POP POP POP POP POP POP POP POP POP POP JUMP JUMPDEST PUSH1 0x0 DUP3 MLOAD PUSH2 0x5AED DUP2 DUP5 PUSH1 0x20 DUP8 ADD PUSH2 0x4EDE JUMP JUMPDEST SWAP2 SWAP1 SWAP2 ADD SWAP3 SWAP2 POP POP JUMP INVALID POP PUSH16 0x6F6C2073616E697479206C696D697420 0x28 TIMESTAMP PUSH2 0x6C61 PUSH15 0x636520746F6F206C61726765295377 PUSH2 0x7020 PUSH6 0x786365656473 KECCAK256 PUSH14 0x6178696D756D207377617020616D PUSH16 0x756E742E20506C656173652077616974 LOG2 PUSH5 0x6970667358 0x22 SLT KECCAK256 KECCAK256 0xA5 MLOAD DUP15 0xEE MLOAD 0x21 0xDC BLOCKHASH 0x2A 0xB2 EXTCODEHASH BLOCKHASH ADD DUP12 CODECOPY CALLER PUSH1 0xF6 0xBD SDIV 0xB3 GT DUP6 NUMBER DUP15 LOG0 0xB1 0xC8 0x21 STOP REVERT PUSH5 0x736F6C6343 STOP ADDMOD GT STOP CALLER ",
  "sha1": "4a0a5dff682c90c7ad0ef8fa1e5e5fae45053ee5",
  "source": "//SPDX-License-Identifier: Unlicsened\n\npragma solidity ^0.8.17;\n\nimport \"@openzeppelin/contracts/token/ERC20/ERC20.sol\";\nimport \"@openzeppelin/contracts/token/ERC20/utils/SafeERC20.sol\";\nimport \"./FixedPointMath.sol\";\nimport \"./CatalystIBCInterface.sol\";\nimport \"./SwapPoolCore.sol\";\nimport \"./ISwapPool.sol\";\n\n/**\n * @title Catalyst: The Multi-Chain Swap pool\n * @author Catalyst Labs\n * @notice Catalyst multi-chain swap pool using the asset specific\n * pricing curve: W/(w · ln(2)) where W is an asset specific weight\n *  and w is the pool balance.\n *\n * The following contract supports between 1 and 3 assets for\n * atomic swaps. To increase the number of tokens supported,\n * change NUMASSETS to the desired maximum token amount.\n *\n * Implements the ERC20 specification, such that the contract\n * will be its own pool token.\n * @dev This contract is deployed /broken/: It cannot be used as a\n * swap pool as is. To use it, a proxy contract duplicating the\n * logic of this contract needs to be deployed. In vyper, this\n * can be done through (vy 0.3.4) create_minimal_proxy_to.\n * After deployment of the proxy, call setup(...). This will\n * initialize the pool and prepare it for cross-chain transactions.\n *\n * If connected to a supported cross-chain interface, call\n * createConnection or createConnectionWithChain to connect the\n * pool with pools on other chains.\n *\n * Finally, call finishSetup to give up the deployer's control\n * over the pool.\n */\ncontract CatalystSwapPoolAmplified is\n    CatalystFixedPointMath,\n    CatalystSwapPoolCore,\n    ICatalystSwapPool\n{\n    using SafeERC20 for IERC20;\n\n    //--- ERRORS ---//\n\n    //--- Config ---//\n    // The following section contains the configurable variables.\n\n    //-- Variables --//\n    uint256 public _amp;\n\n    // In the equation for the security limit, this constant appears.\n    // The constant depends only amp but not on the pool balance.\n    // As a result, it is computed on pool deployment.\n    uint256 _ampUnitCONSTANT;\n    uint256 _ampLiquidityUnitCONSTANT; // TODO\n\n    // To distribute the fees, the pool needs to keep track of its relative\n    // ownership of units in the system. This is only needed for amplified pools.\n    int256 public _unitTracker;\n\n    // Is limited (*cannot overflow*) because the integral from 0 to C < \\infty is finite. That means the number can never  < int_0^DepositedBalance\n    // And since the sum of all unitTracker in the system is 0. The top side is also limited.\n\n    /**\n     * @notice Setup a pool.\n     * @dev The @param amp is only used as a sanity check and needs to be set to 2**64.\n     * If less than NUMASSETS are used to setup the pool, let the remaining init_assets be ZERO_ADDRESS\n     * The unused weights can be whatever. (however, 0 is recommended.)\n     * The initial token amounts should have been sent to the pool before setup.\n     * If any token has token amount 0, the pool will never be able to have more than\n     * 0 tokens for that token.\n     */\n    function setup(\n        address chaininterface,\n        address[] calldata init_assets,\n        uint256[] calldata weights,\n        uint256 amp,\n        string calldata name_,\n        string calldata symbol_,\n        address setupMaster\n    ) public {\n        require(amp != ONE);\n        require(init_assets.length <= NUMASSETS);\n        _amp = amp;\n        {\n            uint256 max_unit_inflow = 0;\n            for (uint256 it = 0; it < init_assets.length; it++) {\n                _tokenIndexing[it] = init_assets[it];\n                _weight[init_assets[it]] = weights[it];\n                _sumWeights += weights[it];\n                // The contract expect the tokens to have been sent to it before setup is\n                // called. Make sure the pool has more than 0 tokens.\n\n                uint256 balanceOfSelf = IERC20(init_assets[it]).balanceOf(\n                    address(this)\n                );\n                require(balanceOfSelf > 0); // dev: 0 tokens provided in setup.\n\n                // Balance0 is set to the initial balance. There is no correct balance0\n                // value and initial balance is arbitrary. However, it provides a good\n                // relative value to the actual balance. (mathematical importance)\n                _balance0[init_assets[it]] += balanceOfSelf;\n\n                // The maximum unit flow is \\sum Weights. The value is shifted 64\n                // since units are always X64.\n                max_unit_inflow +=\n                    weights[it] *\n                    fpowX64(balanceOfSelf << 64, ONE - amp);\n            }\n            _ampUnitCONSTANT = ONE - invp2X64(ONE - amp);\n            _max_unit_inflow = mulX64(_ampUnitCONSTANT, max_unit_inflow);\n        }\n\n        setupBase(name_, symbol_, chaininterface, setupMaster);\n    }\n\n    /**\n     * @notice The maximum unit flow changes depending on the current\n     * balance for amplified pools. The change is\n     *     (1-2^(k-1)) · W · b^(1-k) - (1-2^(k-1)) · W · a^(1-k)\n     * where b is the balance after the swap and a is the balance\n     * before the swap.\n     * @dev Always returns uint256. If oldBalance > newBalance,\n     * the return should be negative. (but the absolute)\n     * value is returned instead.\n     * @param oldBalance The old balance.\n     * @param newBalance The new balance.\n     * @param asset The asset which is being updated.\n     * @return uint256 Returns the absolute change in unit capacity Returns without the ampConstant.\n     */\n    function getModifyUnitCapacity(\n        uint256 oldBalance,\n        uint256 newBalance,\n        address asset\n    ) internal view returns (uint256) {\n        // If the balances doesn't change, the change is 0.\n        if (oldBalance == newBalance) return 0;\n\n        // Cache the relevant amplification\n        uint256 oneMinusAmp = ONE - _amp;\n        // Notice, a > b => a^(1-k) > b^(1-k) =>\n        // a <= b => a^(1-k) <= b^(1-k)\n        if (oldBalance < newBalance)\n            // Since a^(1-k) > b^(1-k), the return is positive\n            return\n                _weight[asset] *\n                (fpowX64(newBalance << 64, oneMinusAmp) -\n                    fpowX64(oldBalance << 64, oneMinusAmp));\n\n        // Since a^(1-k) > b^(1-k), the return is negative\n        // Since the function returns uint256, return\n        // b^(1-k) - a^(1-k) instead. (since that is positive)\n        return\n            _weight[asset] *\n            (fpowX64(oldBalance << 64, oneMinusAmp) -\n                fpowX64(newBalance << 64, oneMinusAmp));\n    }\n\n    //--- Swap integrals ---//\n    // Unlike the ordinary swaps, amplified swaps do not get simpler\n    // by approximating the curve.\n    // When deriving the SwapFromUnits equation, _out is not directly\n    // given. Instead it has to be solved. And depending on the complexity\n    // of the price curve, the solution to _out = ... is not simple.\n\n    /**\n     * @notice Computes the integral\n     * \\int_{A}^{A+in} W/w^k · (1-k) dw\n     *     = W · ( (A + _in)^(1-k) - A^(1-k) )\n     * The value is returned as units, which is always in X64.\n     * @dev All input amounts should be the raw numbers and not X64.\n     * Since units are always denominated in X64, the function\n     * should be treated as mathematically *native*.\n     * @param input The input amount.\n     * @param A The current pool balance.\n     * @param W The pool weight of the token.\n     * @param amp The amplification.\n     * @return uint256 Group specific units in X64 (units are **always** X64).\n     */\n    function compute_integral(\n        uint256 input,\n        uint256 A,\n        uint256 W,\n        uint256 amp\n    ) internal pure returns (uint256) {\n        uint256 oneMinusAmp = ONE - amp; // Minor gas saving :)\n        return\n            W *\n            (fpowX64((A + input) << 64, oneMinusAmp) -\n                fpowX64(A << 64, oneMinusAmp));\n    }\n\n    /**\n     * @notice Solves the equation U = \\int_{A-_out}^{A} W/w^k · (1-k) dw for _out\n     *     = B ·\n     *     (\n     *         1 - (\n     *             (W_B · B^(1-k) - U) / (W_B · B^(1-k))\n     *         )^(1/(1-k))\n     *     )\n     *\n     * The value is returned as output token.\n     * @dev All input amounts should be the raw numbers and not X64.\n     * Since units are always denominated in X64, the function\n     * should be treated as mathematically *native*.\n     * @param U Input units. Is technically X64 but can be treated as not.\n     * @param B The current pool balance of the _out token.\n     * @param W The pool weight of the _out token.\n     * @return uint256 Output denominated in output token.\n     */\n    function solve_integral(\n        uint256 U,\n        uint256 B,\n        uint256 W,\n        uint256 amp\n    ) internal pure returns (uint256) {\n        uint256 oneMinusAmp = ONE - amp; // Minor gas saving :)\n        // W_B · B^(1-k) is repeated twice and requires 1 power.\n        // As a result, we compute it and cache.\n        uint256 W_BTimesBtoOneMinusAmp = W * fpowX64(B << 64, oneMinusAmp);\n        return\n            (B *\n                (ONE -\n                    invfpowX64(\n                        bigdiv64(\n                            W_BTimesBtoOneMinusAmp,\n                            W_BTimesBtoOneMinusAmp - U\n                        ),\n                        bigdiv64(ONE, oneMinusAmp)\n                    ))) >> 64;\n    }\n\n    /**\n     * @notice Solves the equation\n     *     \\int_{A}^{A + _in} W_A/w^k · (1-k) dw = \\int_{B-_out}^{B} W_B/w^k · (1-k) dw for _out\n     *         => out = B ·\n     *         (\n     *             1 - (\n     *                 (W_B · B^(1-k) - W_A · ((A+x)^(1-k) - A^(1-k)) / (W_B · B^(1-k))\n     *             )^(1/(1-k))\n     *         )\n     *\n     * Alternatively, the integral can be computed through:\n     *     _solve_integral(_compute_integral(input, A, W_A, amp), _B, _W_B, amp).\n     *     However, _complete_integral is very slightly cheaper since it doesn't\n     *     compute oneMinusAmp twice. :)\n     *     (Apart from that, the mathematical operations are the same.)\n     * @dev All input amounts should be the raw numbers and not X64.\n     * @param input The input amount.\n     * @param A The current pool balance of the _in token.\n     * @param B The current pool balance of the _out token.\n     * @param W_A The pool weight of the _in token.\n     * @param W_B The pool weight of the _out token.\n     * @param amp The amplification.\n     * @return uint256 Output denominated in output token.\n     */\n    function complete_integral(\n        uint256 input,\n        uint256 A,\n        uint256 B,\n        uint256 W_A,\n        uint256 W_B,\n        uint256 amp\n    ) internal pure returns (uint256) {\n        uint256 oneMinusAmp = ONE - amp; // Minor gas saving :)\n        uint256 W_BTimesBtoOneMinusAmp = W_B * fpowX64(B << 64, oneMinusAmp);\n        return\n            (B *\n                (ONE -\n                    invfpowX64(\n                        bigdiv64(\n                            W_BTimesBtoOneMinusAmp,\n                            W_BTimesBtoOneMinusAmp -\n                                W_A *\n                                (fpowX64((A + input) << 64, oneMinusAmp) -\n                                    fpowX64(A << 64, oneMinusAmp))\n                        ),\n                        bigdiv64(ONE, oneMinusAmp)\n                    ))) >> 64;\n    }\n\n    /**\n     * @notice Computes the return of a SwapToUnits, without executing one.\n     * @dev Unlike a non-amplified pool, there is not simple swap curve approximation for amplified pools.\n     * @param from The address of the token to sell.\n     * @param amount The amount of _from token to sell.\n     * @return uint256 Group specific units in X64 (units are **always** X64).\n     */\n    function dry_swap_to_unit(address from, uint256 amount)\n        public\n        view\n        returns (uint256)\n    {\n        uint256 W = _weight[from];\n        uint256 A = IERC20(from).balanceOf(address(this));\n        require(A + amount < 2**(256 - 64) - 1, BALANCE_SECURITY_LIMIT); // dev: Potential exploitable\n        // if the attacker can abuse\n        // some kind of flash-mint.\n\n        return compute_integral(amount, A, W, _amp);\n    }\n\n    /**\n     * @notice Computes the output of a SwapFromUnits, without executing one.\n     * @dev Unlike a non-amplified pool, there is not simple swap curve approximation for amplified pools.\n     * @param to The address of the token to buy.\n     * @param U The number of units used to buy to.\n     * @return uint256 Output denominated in output token.\n     */\n    function dry_swap_from_unit(address to, uint256 U)\n        public\n        view\n        returns (uint256)\n    {\n        uint256 W = _weight[to];\n        uint256 B = IERC20(to).balanceOf(address(this)) - _escrowedTokens[to];\n        require(B < 2**(256 - 64) - 1, BALANCE_SECURITY_LIMIT); // dev: Potential exploitable\n        // if the attacker can abuse\n        // some kind of flash-mint.\n\n        return solve_integral(U, B, W, _amp);\n    }\n\n    /**\n     * @notice Computes the return of a SwapToAndFromUnits, without executing one.\n     * @param from The address of the token to sell.\n     * @param to The address of the token to buy.\n     * @param input The amount of _from token to sell for to token.\n     * @return uint256 Output denominated in to token. */\n    function dry_swap_both(\n        address from,\n        address to,\n        uint256 input\n    ) public view returns (uint256) {\n        uint256 A = IERC20(from).balanceOf(address(this));\n        uint256 B = IERC20(to).balanceOf(address(this)) - _escrowedTokens[to];\n        uint256 W_A = _weight[from];\n        uint256 W_B = _weight[to];\n        require(B < 2**(256 - 64) - 1, BALANCE_SECURITY_LIMIT); // dev: Potential exploitable\n        // if the attacker can abuse\n        // some kind of flash-mint.\n\n        require(A + input < 2**(256 - 64) - 1, BALANCE_SECURITY_LIMIT); // dev: Potential exploitable\n        // if the attacker can abuse\n        // some kind of flash-mint.\n\n        return complete_integral(input, A, B, W_A, W_B, _amp);\n    }\n\n    /**\n     * @notice Deposits a symmetrical number of tokens such that baseAmount of pool tokens are minted. This doesn't change the pool price.\n     * @dev Requires approvals for all tokens within the pool.\n     * @param baseAmount The number of pool tokens to mint.\n     */\n    function depositAll(uint256 baseAmount) external {\n        // Update the liquidity security limit. Since the limit is based on the current\n        // totalSupply, changing the totalSupply upwards by depositing changes the\n        // limit.\n        checkAndSetLiquidityCapacity(0);\n\n        // Cache totalSupply. This saves up to ~200 gas.\n        uint256 initial_totalSupply = totalSupply();\n\n        // For later event logging, the amounts transferred to the pool are stored.\n        uint256[] memory amounts = new uint256[](NUMASSETS);\n        for (uint256 it = 0; it < NUMASSETS; it++) {\n            address token = _tokenIndexing[it];\n            if (token == address(0)) break;\n\n            // Deposits should returns less, so the escrowed tokens are not subtracted.\n            uint256 At = IERC20(token).balanceOf(address(this));\n            uint256 A0 = _balance0[token];\n            // The number of pool tokens (balance0s) owned by 1 pool tokens is\n            // balance0[asset]/totalSupply. _baseAmount owns\n            // balance0[asset]/totalSupply · _baseAmount\n            // Alternatively, to mint _baseAmount poolTokens, _baseAmount/totalSupply\n            // of the existing liquidity needs to be provided. That is:\n            // _baseAmount/totalSupply · balance0[asset]\n            uint256 pt_Token = (A0 * baseAmount) / initial_totalSupply;\n\n            // Find the number of tokens required to mint pt_Token balance0s.\n            uint256 base = pt_Token; // = _liquidity_equation_tk(asset, pt_Token);\n            if (At != A0) base = (At * pt_Token) / A0;\n\n            // Right here, we should check that the deposit doesn't soft-freeze\n            // the pool. However, doing this deposit would be pointless.\n            // As the withdrawal equation does not have the same vulnerability as\n            // the swap functions.\n            // As such, people would always be able to withdraw.\n            // Here is the line: assert ERC20(asset).balanceOf(self) + base < 2**(256-64) - 1\n\n            // Increase the balance0 by the newly minted amount.\n            _balance0[token] += pt_Token;\n\n            // Transfer the appropriate number of pool tokens from the user\n            // to the pool. (And store for event logging)\n            amounts[it] = base;\n            IERC20(token).safeTransferFrom(msg.sender, address(this), base); // dev: User doesn't have enough tokens\n        }\n        // Mint the desired number of pool tokens to the user.\n        _mint(msg.sender, baseAmount);\n\n        // # Since the token limit depend on the current balance and all NUMASSETS\n        // # assets have been updated, we should recalculate the limit.\n        // newUnitLimit: uint256 = 0\n        // oneMinusAmp : uint256 = ONE - self.amp\n        // for asset_num in range(NUMASSETS):\n        //     asset : address = self.tokenIndexing[asset_num]\n        //     if asset == ZERO_ADDRESS:\n        //         break\n        //     newUnitLimit += self.weight[asset] * self._fpowX64(shift(self.balance0[asset], 64), oneMinusAmp)\n\n        // self.max_liquidity_unit_inflow = self.pMULX64(self.ampLiquidityUnitCONSTANT, newUnitLimit)\n\n        emit Deposit(msg.sender, baseAmount, amounts);\n    }\n\n    // @nonreentrant('lock')\n    /**\n     * @notice Burns _baseAmount and releases the symmetrical share\n     * of tokens to the burner. This doesn't change the pool price.\n     * @param baseAmount The number of pool tokens to burn.\n     */\n    function withdrawAll(uint256 baseAmount) external {\n        // Update the liquidity security limit. Since the limit is based on the current\n        // totalSupply, changing the totalSupply upwards by depositing changes the\n        // limit.\n        checkAndSetLiquidityCapacity(0);\n\n        // cache totalSupply. This saves up to ~200 gas.\n        uint256 initial_totalSupply = totalSupply();\n\n        // Since we have already cached totalSupply, we might as well burn the tokens\n        // now. If the user doesn't have enough tokens, they save a bit of gas.\n        _burn(msg.sender, baseAmount);\n\n        // For later event logging, the amounts transferred to the pool are stored.\n        uint256[] memory amounts = new uint256[](NUMASSETS);\n        for (uint256 it = 0; it < NUMASSETS; it++) {\n            address token = _tokenIndexing[it];\n            if (token == address(0)) break;\n\n            // Withdrawals should returns less, so the escrowed tokens are subtracted.\n            uint256 At = IERC20(token).balanceOf(address(this)) -\n                _escrowedTokens[token];\n            uint256 A0 = _balance0[token];\n\n            // Read comment in depositAll. The user's share of the pool is found.\n            uint256 pt_Token = (A0 * baseAmount) / initial_totalSupply;\n            // Number of tokens which can be released given pt_Token pool tokens.\n            uint256 base = pt_Token; // = _liquidity_equation_tk(asset, pt_Token)\n            if (At != A0) base = (At * pt_Token) / A0;\n\n            // Remove the pool tokens from balance0.\n            _balance0[token] -= pt_Token;\n\n            // Transferring of the released tokens.\n            amounts[it] = base;\n            IERC20(token).safeTransfer(msg.sender, base);\n        }\n\n        // # Since the token limit depend on the current balance and all NUMASSETS\n        // # assets have been updated, we should recalculate the limit.\n        // newUnitLimit: uint256 = 0\n        // oneMinusAmp : uint256 = ONE - self.amp\n        // for asset_num in range(NUMASSETS):\n        //     asset : address = self.tokenIndexing[asset_num]\n        //     if asset == ZERO_ADDRESS:\n        //         break\n        //     newUnitLimit += self.weight[asset] * self._fpowX64(shift(self.balance0[asset], 64), oneMinusAmp)\n\n        // self.max_liquidity_unit_inflow = self.pMULX64(self.ampLiquidityUnitCONSTANT, newUnitLimit)\n\n        emit Withdraw(msg.sender, baseAmount, amounts);\n    }\n\n    // @nonreentrant('lock')\n    /**\n     * @notice A swap between 2 assets which both are inside the pool. Is atomic.\n     * @param fromAsset The asset the user wants to sell.\n     * @param toAsset The asset the user wants to buy\n     * @param amount The amount of _fromAsset the user wants to sell\n     * @param minOut The minimum output of _toAsset the user wants.\n     */\n    function localswap(\n        address fromAsset,\n        address toAsset,\n        uint256 amount,\n        uint256 minOut\n    ) external returns (uint256) {\n        uint256 fee = mulX64(amount, _poolFeeX64);\n\n        // Calculate the swap return value.\n        uint256 out = dry_swap_both(fromAsset, toAsset, amount - fee);\n\n        // Check if the calculated returned value is more than the minimum output.\n        require(out >= minOut, SWAP_RETURN_INSUFFICIENT);\n\n        // Swap tokens with the user.\n        IERC20(toAsset).safeTransfer(msg.sender, out);\n        IERC20(fromAsset).safeTransferFrom(msg.sender, address(this), amount);\n\n        // uint256 unitConstant = _ampUnitCONSTANT;\n        // # Since the token limit depend on the current balance and all NUMASSETS\n        // # assets have been updated, we should recalculate the limit.\n        // # While we could compute each update separate, it would require 4 powers\n        // # and recomputing it requires max NUMASSETS (3).\n        // newUnitLimit: uint256 = 0\n        // oneMinusAmp : uint256 = ONE - self.amp\n        // for asset_num in range(NUMASSETS):\n        //     asset : address = self.tokenIndexing[asset_num]\n        //     if asset == ZERO_ADDRESS:\n        //         break\n        //     newUnitLimit += self.weight[asset] * self._fpowX64(shift(self.balance0[asset], 64), oneMinusAmp)\n\n        // self.max_liquidity_unit_inflow = self.pMULX64(self.ampLiquidityUnitCONSTANT, newUnitLimit)\n\n        emit LocalSwap(fromAsset, toAsset, msg.sender, amount, out, fee);\n\n        return out;\n    }\n\n    // @nonreentrant('lock')\n    /**\n     * @notice Initiate a cross-chain swap by purchasing units and transfer them to another pool.\n     * @param chain The target chain. Will be converted by the interface to channelId.\n     * @param targetPool The target pool on the target chain encoded in bytes32. For EVM chains this can be computed as:\n     * Vyper: convert(_poolAddress, bytes32)\n     * Solidity: abi.encode(_poolAddress)\n     * Brownie: brownie.convert.to_bytes(_poolAddress, type_str=\"bytes32\")\n     * @param targetUser The recipient of the transaction on _chain. Encoded in bytes32. For EVM chains it can be derived similarly to targetPool.\n     * @param fromAsset The asset the user wants to sell.\n     * @param toAssetIndex The index of the asset the user wants to buy in the target pool.\n     * @param amount The number of _fromAsset to sell to the pool.\n     * @param minOut The minimum number of returned tokens to the targetUser on the target chain.\n     * @param fallbackUser If the transaction fails send the escrowed funds to this address\n     */\n    function swapToUnits(\n        uint32 chain,\n        bytes32 targetPool,\n        bytes32 targetUser,\n        address fromAsset,\n        uint8 toAssetIndex,\n        uint256 amount,\n        uint256 minOut,\n        address fallbackUser\n    ) internal returns (uint256) {\n        // uint256 fee = mulX64(amount, _poolFeeX64);\n\n        // Calculate the group specific units bought.\n        uint256 U = dry_swap_to_unit(\n            fromAsset,\n            amount - mulX64(amount, _poolFeeX64)\n        );\n\n        // Create the escrow identifier\n        // uint256 sourceSwapId = _escrowIterator % 2**(32);\n\n        // Send the purchased units to targetPool on chain.\n        CatalystIBCInterface(_chaininterface).crossChainSwap(\n            chain,\n            targetPool,\n            targetUser,\n            toAssetIndex,\n            U,\n            minOut,\n            false,\n            uint32(_escrowIterator % 2**(32))\n        );\n\n        // Collect the tokens from the user.\n        IERC20(fromAsset).safeTransferFrom(msg.sender, address(this), amount);\n\n        // Escrow the tokens\n        _escrowedTokens[fromAsset] += amount;\n        _escrowedFor[_escrowIterator % 2**(32)] = TokenEscrow({\n            user: fallbackUser,\n            amount: amount,\n            token: fromAsset\n        });\n\n        // Track units for fee distribution.\n        _unitTracker += int256(U); // Todo: security\n\n        // Compute the change in max_unit_inflow.\n        {\n            uint256 fromBalance = ERC20(fromAsset).balanceOf(address(this));\n            _max_unit_inflow += mulX64(\n                _ampUnitCONSTANT,\n                getModifyUnitCapacity(\n                    fromBalance - (amount - mulX64(amount, _poolFeeX64)),\n                    fromBalance,\n                    fromAsset\n                )\n            );\n        }\n\n        // Incoming swaps should be subtracted from the unit flow.\n        // It is assumed if the router was fraudulent, that no-one would execute a trade.\n        // As a result, if people swap into the pool, we should expect that there is exactly\n        // the inswapped amount of trust in the pool.\n        // If this wasn't implemented, there would be a maximum daily cross chain volume,\n        // which is bad for liquidity providers.\n        {\n            uint256 UF = _unit_flow;\n            // If UF < U and we do UF - U < 0 underflow => bad.\n            if (UF > U) {\n                _unit_flow -= U;\n            } else if (UF != 0) {\n                // Save ~100 gas if UF = 0.\n                _unit_flow = 0;\n            }\n        }\n\n        emit SwapToUnits(\n            targetPool,\n            targetUser,\n            fromAsset,\n            toAssetIndex,\n            amount,\n            U,\n            mulX64(amount, _poolFeeX64),\n            uint32(_escrowIterator % 2**(32))\n        );\n\n        _escrowIterator += 1;\n\n        return U;\n    }\n    \n    /**\n     * @notice Initiate a cross-chain swap by purchasing units and transfer them to another pool.\n     * @param chain The target chain. Will be converted by the interface to channelId.\n     * @param targetPool The target pool on the target chain encoded in bytes32. For EVM chains this can be computed as:\n     * Vyper: convert(_poolAddress, bytes32)\n     * Solidity: abi.encode(_poolAddress)\n     * Brownie: brownie.convert.to_bytes(_poolAddress, type_str=\"bytes32\")\n     * @param targetUser The recipient of the transaction on _chain. Encoded in bytes32. For EVM chains it can be derived similarly to targetPool.\n     * @param fromAsset The asset the user wants to sell.\n     * @param toAssetIndex The index of the asset the user wants to buy in the target pool.\n     * @param amount The number of _fromAsset to sell to the pool.\n     * @param minOut The minimum number of returned tokens to the targetUser on the target chain.\n     * @param approx Unused\n     * @param fallbackUser If the transaction fails send the escrowed funds to this address\n     */\n    function swapToUnits(\n        uint32 chain,\n        bytes32 targetPool,\n        bytes32 targetUser,\n        address fromAsset,\n        uint8 toAssetIndex,\n        uint256 amount,\n        uint256 minOut,\n        uint8 approx,\n        address fallbackUser\n    ) external returns (uint256) {\n        return\n            swapToUnits(\n                chain,\n                targetPool,\n                targetUser,\n                fromAsset,\n                toAssetIndex,\n                amount,\n                minOut,\n                fallbackUser\n            );\n    }\n\n    function swapToUnits(\n        uint32 chain,\n        bytes32 targetPool,\n        bytes32 targetUser,\n        address fromAsset,\n        uint8 toAssetIndex,\n        uint256 amount,\n        uint256 minOut,\n        address fallbackUser,\n        bytes calldata calldata_\n    ) internal returns (uint256) {\n        // uint256 fee = mulX64(amount, _poolFeeX64);\n\n        // Calculate the group specific units bought.\n        uint256 U = dry_swap_to_unit(\n            fromAsset,\n            amount - mulX64(amount, _poolFeeX64)\n        );\n\n        // Create the escrow identifier\n        // uint256 sourceSwapId = _escrowIterator % 2**(32);\n\n        // Send the purchased units to targetPool on chain.\n        CatalystIBCInterface(_chaininterface).crossChainSwap(\n            chain,\n            targetPool,\n            targetUser,\n            toAssetIndex,\n            U,\n            minOut,\n            false,\n            uint32(_escrowIterator % 2**(32)),\n            calldata_\n        );\n\n        // Collect the tokens from the user.\n        IERC20(fromAsset).safeTransferFrom(msg.sender, address(this), amount);\n\n        // Escrow the tokens\n        _escrowedTokens[fromAsset] += amount;\n        _escrowedFor[_escrowIterator % 2**(32)] = TokenEscrow({\n            user: fallbackUser,\n            amount: amount,\n            token: fromAsset\n        });\n\n        // Track units for fee distribution.\n        _unitTracker += int256(U); // Todo: security\n\n        // Compute the change in max_unit_inflow.\n        {\n            uint256 fromBalance = ERC20(fromAsset).balanceOf(address(this));\n            _max_unit_inflow += mulX64(\n                _ampUnitCONSTANT,\n                getModifyUnitCapacity(\n                    fromBalance - (amount - mulX64(amount, _poolFeeX64)),\n                    fromBalance,\n                    fromAsset\n                )\n            );\n        }\n\n        // Incoming swaps should be subtracted from the unit flow.\n        // It is assumed if the router was fraudulent, that no-one would execute a trade.\n        // As a result, if people swap into the pool, we should expect that there is exactly\n        // the inswapped amount of trust in the pool.\n        // If this wasn't implemented, there would be a maximum daily cross chain volume,\n        // which is bad for liquidity providers.\n        {\n            uint256 UF = _unit_flow;\n            // If UF < U and we do UF - U < 0 underflow => bad.\n            if (UF > U) {\n                _unit_flow -= U;\n            } else if (UF != 0) {\n                // Save ~100 gas if UF = 0.\n                _unit_flow = 0;\n            }\n        }\n\n        emit SwapToUnits(\n            targetPool,\n            targetUser,\n            fromAsset,\n            toAssetIndex,\n            amount,\n            U,\n            mulX64(amount, _poolFeeX64),\n            uint32(_escrowIterator % 2**(32))\n        );\n\n        _escrowIterator += 1;\n\n        return U;\n    }\n\n    /**\n     * @notice Initiate a cross-chain swap by purchasing units and transfer them to another pool.\n     * @param chain The target chain. Will be converted by the interface to channelId.\n     * @param targetPool The target pool on the target chain encoded in bytes32. For EVM chains this can be computed as:\n     * Vyper: convert(_poolAddress, bytes32)\n     * Solidity: abi.encode(_poolAddress)\n     * Brownie: brownie.convert.to_bytes(_poolAddress, type_str=\"bytes32\")\n     * @param targetUser The recipient of the transaction on _chain. Encoded in bytes32. For EVM chains it can be derived similarly to targetPool.\n     * @param fromAsset The asset the user wants to sell.\n     * @param toAssetIndex The index of the asset the user wants to buy in the target pool.\n     * @param amount The number of _fromAsset to sell to the pool.\n     * @param minOut The minimum number of returned tokens to the targetUser on the target chain.\n     * @param approx Unused\n     * @param fallbackUser If the transaction fails send the escrowed funds to this address\n     */\n    function swapToUnits(\n        uint32 chain,\n        bytes32 targetPool,\n        bytes32 targetUser,\n        address fromAsset,\n        uint8 toAssetIndex,\n        uint256 amount,\n        uint256 minOut,\n        uint8 approx,\n        address fallbackUser,\n        bytes calldata calldata_\n    ) external returns (uint256) {\n        return\n            swapToUnits(\n                chain,\n                targetPool,\n                targetUser,\n                fromAsset,\n                toAssetIndex,\n                amount,\n                minOut,\n                fallbackUser,\n                calldata_\n            );\n    }\n\n    /**\n     * @notice Completes a cross-chain swap by converting units to the desired token (toAsset)\n     * Called exclusively by the chaininterface.\n     * @dev Can only be called by the chaininterface, as there is no way to check the\n     * validity of units.\n     * @param toAssetIndex Index of the asset to be purchased with _U units.\n     * @param who The recipient of toAsset\n     * @param U Number of units to convert into toAsset.\n     * @param minOut Minimum number of tokens bought. Reverts if less.\n     * @param approx Ignored\n     */\n    function swapFromUnits(\n        uint256 toAssetIndex,\n        address who,\n        uint256 U,\n        uint256 minOut,\n        bool approx\n    ) public returns (uint256) {\n        // The chaininterface is the only valid caller of this function, as there cannot\n        // be a check of U. (It is purely a number)\n        require(msg.sender == _chaininterface);\n        // Convert the asset index (toAsset) into the asset to be purchased.\n        address toAsset = _tokenIndexing[toAssetIndex];\n\n        // Check if the swap is according to the swap limits\n        checkAndSetUnitCapacity(U);\n\n        // Calculate the swap return value.\n        uint256 purchasedTokens = dry_swap_from_unit(toAsset, U);\n\n        require(minOut <= purchasedTokens, SWAP_RETURN_INSUFFICIENT);\n\n        // Send the return value to the user.\n        IERC20(toAsset).safeTransfer(who, purchasedTokens);\n\n        // Track units for fee distribution.\n        _unitTracker -= int256(U);\n\n        // Compute the change in max_unit_inflow.\n        uint256 toBalance = IERC20(toAsset).balanceOf(address(this));\n        _max_unit_inflow -= mulX64(\n            _ampUnitCONSTANT,\n            getModifyUnitCapacity(\n                toBalance + purchasedTokens,\n                toBalance,\n                toAsset\n            )\n        );\n\n        emit SwapFromUnits(who, toAsset, U, purchasedTokens);\n\n        return purchasedTokens; // Unused.\n    }\n\n    function swapFromUnits(\n        uint256 toAssetIndex,\n        address who,\n        uint256 U,\n        uint256 minOut,\n        bool approx,\n        address dataTarget,\n        bytes calldata data\n    ) external returns (uint256) {\n        uint256 purchasedTokens = swapFromUnits(\n            toAssetIndex,\n            who,\n            U,\n            minOut,\n            approx\n        );\n\n        ICatalystReceiver(dataTarget).onCatalystCall(purchasedTokens, data);\n\n        return purchasedTokens;\n    }\n\n    //--- Liquidity swapping ---//\n    // Because of the wap pool tokens work in a group of pools, there\n    // needs to be a way to manage an equilibrium between pool token\n    // value and token pool value.\n\n    /**\n     * @notice Computes the integral \\int_{A-out}^{A} W/w^k · (1-k) dw\n     *    = - W · ( A^(1-k) - (A - _out)^(1-k) )\n     * For optimisations, U is always assumed to be negative for liquidity units.\n     * Thus the function computes:  W · ( A^(1-k) - (A - _out)^(1-k) )\n     * The value is returned as negative liquidity units, which is always in X64.\n     * @dev\n     * All input amounts should be the raw numbers and not X64.\n     * Since units are always denominated in X64, the function\n     * should be treated as mathematically *native*.\n     * @param input The input amount.\n     * @param A The current pool balance0.\n     * @param W The pool weight of the token.\n     * @param amp The amplification\n     * @return uint256 Group specific liquidity units in X64 (units are **always** X64).\n     */\n    function compute_liquidity(\n        uint256 input,\n        uint256 A,\n        uint256 W,\n        uint256 amp\n    ) internal pure returns (uint256) {\n        uint256 oneMinusAmp = ONE - amp; // Minor gas saving :)\n        return\n            W *\n            (fpowX64(A << 64, oneMinusAmp) -\n                fpowX64((A - input) << 64, oneMinusAmp));\n    }\n\n    /**\n     * @notice Solves the equation U = \\int_{A}^{A+_out} W/w^k · (1-k) dw for _out\n     *     = B ·\n     *     (\n     *         (\n     *             (W_B · B^(1-k) - U) / (W_B · B^(1-k))\n     *         )^(1/(1-k)) - 1\n     *     )\n     * Since _U is negative units, the function actually computes:\n     *  B · (\n     *          (\n     *              (W_B · B^(1-k) + U) / (W_B · B^(1-k))\n     *          )^(1/(1-k)) - 1\n     *      )\n     * Note that the specific weight divides into the equation such that the is substrationally simplified.\n     *\n     * The value is returned as output pool token.\n     * @dev All input amounts should be the raw numbers and not X64.\n     * Since units are always denominated in X64, the function\n     * should be treated as mathematically *native*.\n     * @param U Input negative liquidity units. Is technically X64 but can be treated as not.\n     * @param B The current pool balance0 of the _out token.\n     * @param WSUM The pool weight of the _out token.\n     * @param amp The amplification\n     * @return uint256 Output denominated in output pool token.\n     */\n    function solve_liquidity(\n        uint256 U,\n        uint256 B,\n        uint256 WSUM,\n        uint256 amp\n    ) internal pure returns (uint256) {\n        return\n            (B *\n                (fpowX64(bigdiv64(WSUM + U, WSUM), bigdiv64(ONE, ONE - amp)) -\n                    ONE)) >> 64;\n    }\n\n    /**\n     * @notice Computes the return of a liquidity swap from liquidity into units, without executing one.\n     * @param from The address of the liquidity to sell.\n     * @param amountX64 The amount of _from liquidity to sell.\n     * @return uint256 Liquidity units in X64 (units are **always** X64).\n     */\n    function dry_liquidity_to_unit(address from, uint256 amountX64)\n        public\n        view\n        returns (uint256)\n    {\n        uint256 A = _balance0[from];\n        uint256 W = _weight[from];\n        require(A < 2**(256 - 64) - 1); // dev: Potential exploitable\n        // if the attacker can abuse\n        // some kind of flash-mint.\n        return compute_liquidity(amountX64, A, W, _amp);\n    }\n\n    /**\n     * @notice Computes the output of a liquidity swap from units into liquidity, without executing one.\n     * @param to The token address of the target balance0.\n     * @param U The number of units used to buy liquidity of _to.\n     * @return Output denominated in balance0s.\n     */\n    function dry_liquidity_from_unit(\n        address to,\n        uint256 U,\n        uint256 WSUM\n    ) public view returns (uint256) {\n        uint256 B = _balance0[to];\n\n        return solve_liquidity(U, B, WSUM, _amp);\n    }\n\n    function distributeFees() public returns (uint256) {\n        uint256 WSUM = 0; // is X64\n        address[] memory tokens = new address[](NUMASSETS);\n        uint256 amp = _amp;\n        int256 calculatedOutstandingUnits = 0;\n\n        uint256 it = 0;\n        for (; it < NUMASSETS; it++) {\n            address token = _tokenIndexing[it];\n            if (token == address(0)) break;\n\n            uint256 b0 = _balance0[token];\n            uint256 bt = IERC20(token).balanceOf(address(this));\n            uint256 w = _weight[token];\n            if (bt > b0) {\n                calculatedOutstandingUnits += int256(\n                    compute_liquidity(bt - b0, b0, w, amp)\n                ); //TODO : Security\n            } else {\n                // b0 > bt\n                calculatedOutstandingUnits -= int256(\n                    compute_liquidity(b0 - bt, bt, w, amp)\n                );\n            }\n            tokens[it] = token;\n            WSUM += w * fpowX64(b0, ONE - amp);\n        }\n\n        calculatedOutstandingUnits = _unitTracker - calculatedOutstandingUnits;\n        // Because of the balance0 constraint of wrapped pool tokens,\n        // only the first balance0 change needs to be computed.\n        uint256 token0B0 = dry_liquidity_from_unit(\n            tokens[0],\n            uint256(calculatedOutstandingUnits),\n            WSUM\n        );\n\n        uint256 ts = totalSupply();\n        // Token0B0 * _baseAmount = _balance0\n        uint256 poolTokens = (token0B0 * ts) / _balance0[tokens[0]];\n        _balance0[tokens[0]] += token0B0;\n\n        for (uint256 it_ = 0; it_ < it; it_++) {\n            _balance0[tokens[it_]] += (_balance0[tokens[it_]] * poolTokens);\n        }\n\n        return poolTokens;\n    }\n\n    // @nonreentrant('lock')\n    /**\n     * @notice Initiate a cross-chain liquidity swap by lowering liquidity and transfer the liquidity units to another pool.\n     * @param chain The target chain. Will be converted by the interface to channelId.\n     * @param targetPool The target pool on the target chain encoded in bytes32. For EVM chains this can be computed as:\n     * Vyper: convert(_poolAddress, bytes32)\n     * Solidity: abi.encode(_poolAddress)\n     * Brownie: brownie.convert.to_bytes(_poolAddress, type_str=\"bytes32\")\n     * @param targetUser The recipient of the transaction on _chain. Encoded in bytes32. For EVM chains it can be found similarly to _targetPool.\n     * @param baseAmount The number of pool tokens to liquidity Swap\n     */\n    function outLiquidity(\n        uint256 chain,\n        bytes32 targetPool,\n        bytes32 targetUser,\n        uint256 baseAmount\n    ) external returns (uint256) {\n        // Cache totalSupply. This saves up to ~200 gas.\n        uint256 initial_totalSupply = totalSupply();\n\n        // Since we have already cached totalSupply, we might as well burn the tokens\n        // now. If the user doesn't have enough tokens, they save a bit of gas.\n        _burn(msg.sender, baseAmount);\n\n        // The number of units corresponding gained by lowering baseAmount liquidity\n        // Should be found. This will be done by looping over each conversion.\n        uint256 U = 0;\n        for (uint256 it = 0; it < NUMASSETS; it++) {\n            address token = _tokenIndexing[it];\n            if (token == address(0)) break;\n\n            // The pool ownership given up, converted to balance0s (given up)\n            uint256 pt_Token = (_balance0[token] * baseAmount) /\n                initial_totalSupply;\n            // Swapping to units.\n            U += dry_liquidity_to_unit(token, pt_Token);\n            // Subtracting the swapped units.\n            _balance0[token] -= pt_Token;\n        }\n\n        // Sending the liquidity units over.\n        CatalystIBCInterface(_chaininterface).liquiditySwap(\n            chain,\n            targetPool,\n            targetUser,\n            U,\n            msg.sender\n        );\n\n        // Correcting the routing security limit. (To increase maximum daily volume)\n        uint256 LUF = _liquidity_flow;\n        if (LUF > baseAmount) {\n            _liquidity_flow -= baseAmount;\n        } else if (LUF != 0) {\n            _liquidity_flow = 0;\n        }\n        // The SwapToUnits event is reused.  # TODO: Separate event?\n        emit SwapToUnits(\n            targetPool,\n            targetUser,\n            address(this),\n            2**8 - 1,\n            baseAmount,\n            U,\n            0,\n            0\n        ); // TODO: sourceSwapId;\n\n        return U;\n    }\n\n    // @nonreentrant('lock')\n    /**\n     * @notice Completes a cross-chain swap by converting liquidity units to pool tokens\n     * Called exclusively by the chaininterface.\n     * @dev Can only be called by the chaininterface, as there is no way\n     * to check the validity of units.\n     * @param who The recipient of pool tokens\n     * @param U Number of units to convert into pool tokens.\n     */\n    function inLiquidity(address who, uint256 U) external returns (uint256) {\n        // The chaininterface is the only valid caller of this function, as there cannot\n        // be a check of _U. (It is purely a number)\n        require(msg.sender == _chaininterface);\n\n        // The units should be distributed in such a way that the balance0\n        // ratio is the same before and after the swap. Since the weights depends\n        // on the current pool token balance, it cannot be cached.\n        uint256 WSUM = 0; // is X64.\n        address[] memory tokens = new address[](NUMASSETS);\n        uint256 oneMinusAmp = ONE - _amp;\n\n        uint256 it = 0;\n        for (; it < NUMASSETS; it++) {\n            address token = _tokenIndexing[it];\n            if (token == address(0)) break;\n\n            tokens[it] = token;\n\n            WSUM +=\n                _weight[token] *\n                fpowX64(_balance0[token] << 64, oneMinusAmp);\n        }\n\n        address token0 = _tokenIndexing[0];\n        // Because of the balance0 constraint of wrapped pool tokens,\n        // only the first balance0 change needs to be computed.\n        uint256 token0B0 = dry_liquidity_from_unit(token0, U, WSUM);\n\n        uint256 ts = totalSupply();\n        // Token0B0 * _baseAmount = self.balance0\n        // To increase the resolution, the balance0s are converted into pool tokens.\n        // Since 2**64 is the reference liquidity and 2**64 is a lot larger than most token\n        // amounts, it is assumed that it provides a better resolution. (for loop)\n        uint256 poolTokens = (token0B0 * ts) / _balance0[token0];\n        _balance0[token0] += token0B0;\n\n        for (uint256 i = 1; i < it; i++) {\n            address token = tokens[i];\n            // The pool token is used as reference, since it providers a higher resolution\n            // than the balance0 constraint.\n            _balance0[token] += (_balance0[token] * poolTokens) / ts;\n            // Alternative based on balance0 constraint  <- Lower resolution\n            // _balance0[token] += (token0B0*_balance0[token])/_balance0[token0]\n        }\n\n        // Check if the swap honors the security limit.\n        checkAndSetLiquidityCapacity(poolTokens);\n\n        // Mint pool tokens for _who\n        _mint(who, poolTokens);\n\n        // The SwapToUnits event is reused.  # TODO: Separate event?\n        emit SwapFromUnits(who, address(this), U, poolTokens);\n\n        return poolTokens;\n    }\n}\n",
  "sourcePath": "contracts/SwapPoolAmplified.sol",
  "type": "contract"
}