{
  "abi": [
    {
      "inputs": [
        {
          "internalType": "address",
          "name": "volatilePoolTemplate",
          "type": "address"
        },
        {
          "internalType": "address",
          "name": "amplifiedPoolTemplate",
          "type": "address"
        }
      ],
      "stateMutability": "nonpayable",
      "type": "constructor"
    },
    {
      "anonymous": false,
      "inputs": [
        {
          "indexed": true,
          "internalType": "address",
          "name": "deployer",
          "type": "address"
        },
        {
          "indexed": true,
          "internalType": "address",
          "name": "pool_address",
          "type": "address"
        },
        {
          "indexed": true,
          "internalType": "address",
          "name": "chaininterface",
          "type": "address"
        },
        {
          "indexed": false,
          "internalType": "uint256",
          "name": "k",
          "type": "uint256"
        },
        {
          "indexed": false,
          "internalType": "address[]",
          "name": "assets",
          "type": "address[]"
        }
      ],
      "name": "PoolDeployed",
      "type": "event"
    },
    {
      "inputs": [
        {
          "internalType": "address",
          "name": "",
          "type": "address"
        },
        {
          "internalType": "address",
          "name": "",
          "type": "address"
        }
      ],
      "name": "IsCreatedByFactory",
      "outputs": [
        {
          "internalType": "bool",
          "name": "",
          "type": "bool"
        }
      ],
      "stateMutability": "view",
      "type": "function"
    },
    {
      "inputs": [
        {
          "internalType": "uint256",
          "name": "",
          "type": "uint256"
        }
      ],
      "name": "_poolTemplate",
      "outputs": [
        {
          "internalType": "address",
          "name": "",
          "type": "address"
        }
      ],
      "stateMutability": "view",
      "type": "function"
    },
    {
      "inputs": [
        {
          "internalType": "address",
          "name": "chaininterface",
          "type": "address"
        },
        {
          "internalType": "uint256",
          "name": "poolTemplateIndex",
          "type": "uint256"
        },
        {
          "internalType": "address[]",
          "name": "init_assets",
          "type": "address[]"
        },
        {
          "internalType": "uint256[]",
          "name": "init_balances",
          "type": "uint256[]"
        },
        {
          "internalType": "uint256[]",
          "name": "weights",
          "type": "uint256[]"
        },
        {
          "internalType": "uint256",
          "name": "k",
          "type": "uint256"
        },
        {
          "internalType": "string",
          "name": "name",
          "type": "string"
        },
        {
          "internalType": "string",
          "name": "symbol",
          "type": "string"
        }
      ],
      "name": "deploy_swappool",
      "outputs": [
        {
          "internalType": "address",
          "name": "",
          "type": "address"
        }
      ],
      "stateMutability": "nonpayable",
      "type": "function"
    }
  ],
  "bytecode": "608060405234801561001057600080fd5b50604051610ee6380380610ee683398101604081905261002f916100c6565b600060208190527fad3228b676f7d3cd4284a5443f17f1962b36e491b30a40b2405849e597ba5fb580546001600160a01b039485166001600160a01b03199182161790915560019091527fada5013122d395ba3c54772283fb069b10426056ef8ca54750cb9bb552a59e7d80549290931691161790556100f9565b80516001600160a01b03811681146100c157600080fd5b919050565b600080604083850312156100d957600080fd5b6100e2836100aa565b91506100f0602084016100aa565b90509250929050565b610dde806101086000396000f3fe608060405234801561001057600080fd5b50600436106100415760003560e01c8063025316d5146100465780634225d1ed146100a6578063d9be16ef146100e4575b600080fd5b61007c6100543660046107c8565b60006020819052908152604090205473ffffffffffffffffffffffffffffffffffffffff1681565b60405173ffffffffffffffffffffffffffffffffffffffff90911681526020015b60405180910390f35b6100d46100b4366004610805565b600160209081526000928352604080842090915290825290205460ff1681565b604051901515815260200161009d565b61007c6100f2366004610a05565b60008981526020819052604081205481906101229073ffffffffffffffffffffffffffffffffffffffff16610333565b905060005b898110156101a55761019333838b848151811061014657610146610b06565b60200260200101518e8e8681811061016057610160610b06565b90506020020160208101906101759190610b35565b73ffffffffffffffffffffffffffffffffffffffff1692919061041a565b8061019d81610b50565b915050610127565b506040517f961d48a20000000000000000000000000000000000000000000000000000000081526060985073ffffffffffffffffffffffffffffffffffffffff82169063961d48a29061020c908f908e908e908d908d908d908d908d903390600401610c71565b600060405180830381600087803b15801561022657600080fd5b505af115801561023a573d6000803e3d6000fd5b5050505060609350606092508b73ffffffffffffffffffffffffffffffffffffffff168173ffffffffffffffffffffffffffffffffffffffff163373ffffffffffffffffffffffffffffffffffffffff167fcf9ba3f2179ccb86fa6ff8ebafea9a7fbdb3144b2600b5e02bbb5e28790459c6888e8e6040516102be93929190610d34565b60405180910390a473ffffffffffffffffffffffffffffffffffffffff808d166000908152600160208181526040808420948616845293905291902080547fffffffffffffffffffffffffffffffffffffffffffffffffffffffffffffff0016909117905590509a9950505050505050505050565b60006040517f3d602d80600a3d3981f3363d3d373d3d3d363d7300000000000000000000000081528260601b60148201527f5af43d82803e903d91602b57fd5bf3000000000000000000000000000000000060288201526037816000f091505073ffffffffffffffffffffffffffffffffffffffff8116610415576040517f08c379a000000000000000000000000000000000000000000000000000000000815260206004820152601660248201527f455243313136373a20637265617465206661696c65640000000000000000000060448201526064015b60405180910390fd5b919050565b6040805173ffffffffffffffffffffffffffffffffffffffff85811660248301528416604482015260648082018490528251808303909101815260849091019091526020810180517bffffffffffffffffffffffffffffffffffffffffffffffffffffffff167f23b872dd000000000000000000000000000000000000000000000000000000001790526104af9085906104b5565b50505050565b6000610517826040518060400160405280602081526020017f5361666545524332303a206c6f772d6c6576656c2063616c6c206661696c65648152508573ffffffffffffffffffffffffffffffffffffffff166105c69092919063ffffffff16565b8051909150156105c157808060200190518101906105359190610d57565b6105c1576040517f08c379a000000000000000000000000000000000000000000000000000000000815260206004820152602a60248201527f5361666545524332303a204552433230206f7065726174696f6e20646964206e60448201527f6f74207375636365656400000000000000000000000000000000000000000000606482015260840161040c565b505050565b60606105d584846000856105df565b90505b9392505050565b606082471015610671576040517f08c379a000000000000000000000000000000000000000000000000000000000815260206004820152602660248201527f416464726573733a20696e73756666696369656e742062616c616e636520666f60448201527f722063616c6c0000000000000000000000000000000000000000000000000000606482015260840161040c565b73ffffffffffffffffffffffffffffffffffffffff85163b6106ef576040517f08c379a000000000000000000000000000000000000000000000000000000000815260206004820152601d60248201527f416464726573733a2063616c6c20746f206e6f6e2d636f6e7472616374000000604482015260640161040c565b6000808673ffffffffffffffffffffffffffffffffffffffff1685876040516107189190610d79565b60006040518083038185875af1925050503d8060008114610755576040519150601f19603f3d011682016040523d82523d6000602084013e61075a565b606091505b509150915061076a828286610775565b979650505050505050565b606083156107845750816105d8565b8251156107945782518084602001fd5b816040517f08c379a000000000000000000000000000000000000000000000000000000000815260040161040c9190610d95565b6000602082840312156107da57600080fd5b5035919050565b803573ffffffffffffffffffffffffffffffffffffffff8116811461041557600080fd5b6000806040838503121561081857600080fd5b610821836107e1565b915061082f602084016107e1565b90509250929050565b60008083601f84011261084a57600080fd5b50813567ffffffffffffffff81111561086257600080fd5b6020830191508360208260051b850101111561087d57600080fd5b9250929050565b7f4e487b7100000000000000000000000000000000000000000000000000000000600052604160045260246000fd5b604051601f82017fffffffffffffffffffffffffffffffffffffffffffffffffffffffffffffffe016810167ffffffffffffffff811182821017156108fa576108fa610884565b604052919050565b600082601f83011261091357600080fd5b8135602067ffffffffffffffff82111561092f5761092f610884565b8160051b61093e8282016108b3565b928352848101820192828101908785111561095857600080fd5b83870192505b8483101561076a5782358252918301919083019061095e565b600082601f83011261098857600080fd5b813567ffffffffffffffff8111156109a2576109a2610884565b6109d360207fffffffffffffffffffffffffffffffffffffffffffffffffffffffffffffffe0601f840116016108b3565b8181528460208386010111156109e857600080fd5b816020850160208301376000918101602001919091529392505050565b6000806000806000806000806000806101008b8d031215610a2557600080fd5b610a2e8b6107e1565b995060208b0135985060408b013567ffffffffffffffff80821115610a5257600080fd5b610a5e8e838f01610838565b909a50985060608d0135915080821115610a7757600080fd5b610a838e838f01610902565b975060808d0135915080821115610a9957600080fd5b610aa58e838f01610838565b909750955060a08d0135945060c08d0135915080821115610ac557600080fd5b610ad18e838f01610977565b935060e08d0135915080821115610ae757600080fd5b50610af48d828e01610977565b9150509295989b9194979a5092959850565b7f4e487b7100000000000000000000000000000000000000000000000000000000600052603260045260246000fd5b600060208284031215610b4757600080fd5b6105d8826107e1565b60007fffffffffffffffffffffffffffffffffffffffffffffffffffffffffffffffff8203610ba8577f4e487b7100000000000000000000000000000000000000000000000000000000600052601160045260246000fd5b5060010190565b8183526000602080850194508260005b85811015610bf85773ffffffffffffffffffffffffffffffffffffffff610be5836107e1565b1687529582019590820190600101610bbf565b509495945050505050565b60005b83811015610c1e578181015183820152602001610c06565b50506000910152565b60008151808452610c3f816020860160208601610c03565b601f017fffffffffffffffffffffffffffffffffffffffffffffffffffffffffffffffe0169290920160200192915050565b600073ffffffffffffffffffffffffffffffffffffffff808c16835260e06020840152610ca260e084018b8d610baf565b83810360408501528881527f07ffffffffffffffffffffffffffffffffffffffffffffffffffffffffffffff891115610cda57600080fd5b8860051b808b6020840137606085018990520183810360209081016080860152610d0690820188610c27565b905083810360a0850152610d1a8187610c27565b92505080841660c0840152509a9950505050505050505050565b838152604060208201526000610d4e604083018486610baf565b95945050505050565b600060208284031215610d6957600080fd5b815180151581146105d857600080fd5b60008251610d8b818460208701610c03565b9190910192915050565b6020815260006105d86020830184610c2756fea26469706673582212203792407e1755647956dbb1195cd98119b1c1842835b4ecedc707d06d3c3347b564736f6c63430008110033",
  "bytecodeSha1": "f957ca33377f93ac97777b1b981ad31257fc92fd",
  "compiler": {
    "evm_version": "istanbul",
    "optimizer": {
      "enabled": true,
      "runs": 251251
    },
    "version": "0.8.17+commit.8df45f5f"
  },
  "contractName": "CatalystSwapPoolFactory",
  "language": "Solidity",
  "natspec": {
    "author": "Catalyst Labs",
    "kind": "dev",
    "methods": {},
    "title": "Catalyst: Swap Pool Factory",
    "version": 1
  },
  "opcodes": "PUSH1 0x80 PUSH1 0x40 MSTORE CALLVALUE DUP1 ISZERO PUSH2 0x10 JUMPI PUSH1 0x0 DUP1 REVERT JUMPDEST POP PUSH1 0x4 CALLDATASIZE LT PUSH2 0x41 JUMPI PUSH1 0x0 CALLDATALOAD PUSH1 0xE0 SHR DUP1 PUSH4 0x25316D5 EQ PUSH2 0x46 JUMPI DUP1 PUSH4 0x4225D1ED EQ PUSH2 0xA6 JUMPI DUP1 PUSH4 0xD9BE16EF EQ PUSH2 0xE4 JUMPI JUMPDEST PUSH1 0x0 DUP1 REVERT JUMPDEST PUSH2 0x7C PUSH2 0x54 CALLDATASIZE PUSH1 0x4 PUSH2 0x7C8 JUMP JUMPDEST PUSH1 0x0 PUSH1 0x20 DUP2 SWAP1 MSTORE SWAP1 DUP2 MSTORE PUSH1 0x40 SWAP1 KECCAK256 SLOAD PUSH20 0xFFFFFFFFFFFFFFFFFFFFFFFFFFFFFFFFFFFFFFFF AND DUP2 JUMP JUMPDEST PUSH1 0x40 MLOAD PUSH20 0xFFFFFFFFFFFFFFFFFFFFFFFFFFFFFFFFFFFFFFFF SWAP1 SWAP2 AND DUP2 MSTORE PUSH1 0x20 ADD JUMPDEST PUSH1 0x40 MLOAD DUP1 SWAP2 SUB SWAP1 RETURN JUMPDEST PUSH2 0xD4 PUSH2 0xB4 CALLDATASIZE PUSH1 0x4 PUSH2 0x805 JUMP JUMPDEST PUSH1 0x1 PUSH1 0x20 SWAP1 DUP2 MSTORE PUSH1 0x0 SWAP3 DUP4 MSTORE PUSH1 0x40 DUP1 DUP5 KECCAK256 SWAP1 SWAP2 MSTORE SWAP1 DUP3 MSTORE SWAP1 KECCAK256 SLOAD PUSH1 0xFF AND DUP2 JUMP JUMPDEST PUSH1 0x40 MLOAD SWAP1 ISZERO ISZERO DUP2 MSTORE PUSH1 0x20 ADD PUSH2 0x9D JUMP JUMPDEST PUSH2 0x7C PUSH2 0xF2 CALLDATASIZE PUSH1 0x4 PUSH2 0xA05 JUMP JUMPDEST PUSH1 0x0 DUP10 DUP2 MSTORE PUSH1 0x20 DUP2 SWAP1 MSTORE PUSH1 0x40 DUP2 KECCAK256 SLOAD DUP2 SWAP1 PUSH2 0x122 SWAP1 PUSH20 0xFFFFFFFFFFFFFFFFFFFFFFFFFFFFFFFFFFFFFFFF AND PUSH2 0x333 JUMP JUMPDEST SWAP1 POP PUSH1 0x0 JUMPDEST DUP10 DUP2 LT ISZERO PUSH2 0x1A5 JUMPI PUSH2 0x193 CALLER DUP4 DUP12 DUP5 DUP2 MLOAD DUP2 LT PUSH2 0x146 JUMPI PUSH2 0x146 PUSH2 0xB06 JUMP JUMPDEST PUSH1 0x20 MUL PUSH1 0x20 ADD ADD MLOAD DUP15 DUP15 DUP7 DUP2 DUP2 LT PUSH2 0x160 JUMPI PUSH2 0x160 PUSH2 0xB06 JUMP JUMPDEST SWAP1 POP PUSH1 0x20 MUL ADD PUSH1 0x20 DUP2 ADD SWAP1 PUSH2 0x175 SWAP2 SWAP1 PUSH2 0xB35 JUMP JUMPDEST PUSH20 0xFFFFFFFFFFFFFFFFFFFFFFFFFFFFFFFFFFFFFFFF AND SWAP3 SWAP2 SWAP1 PUSH2 0x41A JUMP JUMPDEST DUP1 PUSH2 0x19D DUP2 PUSH2 0xB50 JUMP JUMPDEST SWAP2 POP POP PUSH2 0x127 JUMP JUMPDEST POP PUSH1 0x40 MLOAD PUSH32 0x961D48A200000000000000000000000000000000000000000000000000000000 DUP2 MSTORE PUSH1 0x60 SWAP9 POP PUSH20 0xFFFFFFFFFFFFFFFFFFFFFFFFFFFFFFFFFFFFFFFF DUP3 AND SWAP1 PUSH4 0x961D48A2 SWAP1 PUSH2 0x20C SWAP1 DUP16 SWAP1 DUP15 SWAP1 DUP15 SWAP1 DUP14 SWAP1 DUP14 SWAP1 DUP14 SWAP1 DUP14 SWAP1 DUP14 SWAP1 CALLER SWAP1 PUSH1 0x4 ADD PUSH2 0xC71 JUMP JUMPDEST PUSH1 0x0 PUSH1 0x40 MLOAD DUP1 DUP4 SUB DUP2 PUSH1 0x0 DUP8 DUP1 EXTCODESIZE ISZERO DUP1 ISZERO PUSH2 0x226 JUMPI PUSH1 0x0 DUP1 REVERT JUMPDEST POP GAS CALL ISZERO DUP1 ISZERO PUSH2 0x23A JUMPI RETURNDATASIZE PUSH1 0x0 DUP1 RETURNDATACOPY RETURNDATASIZE PUSH1 0x0 REVERT JUMPDEST POP POP POP POP PUSH1 0x60 SWAP4 POP PUSH1 0x60 SWAP3 POP DUP12 PUSH20 0xFFFFFFFFFFFFFFFFFFFFFFFFFFFFFFFFFFFFFFFF AND DUP2 PUSH20 0xFFFFFFFFFFFFFFFFFFFFFFFFFFFFFFFFFFFFFFFF AND CALLER PUSH20 0xFFFFFFFFFFFFFFFFFFFFFFFFFFFFFFFFFFFFFFFF AND PUSH32 0xCF9BA3F2179CCB86FA6FF8EBAFEA9A7FBDB3144B2600B5E02BBB5E28790459C6 DUP9 DUP15 DUP15 PUSH1 0x40 MLOAD PUSH2 0x2BE SWAP4 SWAP3 SWAP2 SWAP1 PUSH2 0xD34 JUMP JUMPDEST PUSH1 0x40 MLOAD DUP1 SWAP2 SUB SWAP1 LOG4 PUSH20 0xFFFFFFFFFFFFFFFFFFFFFFFFFFFFFFFFFFFFFFFF DUP1 DUP14 AND PUSH1 0x0 SWAP1 DUP2 MSTORE PUSH1 0x1 PUSH1 0x20 DUP2 DUP2 MSTORE PUSH1 0x40 DUP1 DUP5 KECCAK256 SWAP5 DUP7 AND DUP5 MSTORE SWAP4 SWAP1 MSTORE SWAP2 SWAP1 KECCAK256 DUP1 SLOAD PUSH32 0xFFFFFFFFFFFFFFFFFFFFFFFFFFFFFFFFFFFFFFFFFFFFFFFFFFFFFFFFFFFFFF00 AND SWAP1 SWAP2 OR SWAP1 SSTORE SWAP1 POP SWAP11 SWAP10 POP POP POP POP POP POP POP POP POP POP JUMP JUMPDEST PUSH1 0x0 PUSH1 0x40 MLOAD PUSH32 0x3D602D80600A3D3981F3363D3D373D3D3D363D73000000000000000000000000 DUP2 MSTORE DUP3 PUSH1 0x60 SHL PUSH1 0x14 DUP3 ADD MSTORE PUSH32 0x5AF43D82803E903D91602B57FD5BF30000000000000000000000000000000000 PUSH1 0x28 DUP3 ADD MSTORE PUSH1 0x37 DUP2 PUSH1 0x0 CREATE SWAP2 POP POP PUSH20 0xFFFFFFFFFFFFFFFFFFFFFFFFFFFFFFFFFFFFFFFF DUP2 AND PUSH2 0x415 JUMPI PUSH1 0x40 MLOAD PUSH32 0x8C379A000000000000000000000000000000000000000000000000000000000 DUP2 MSTORE PUSH1 0x20 PUSH1 0x4 DUP3 ADD MSTORE PUSH1 0x16 PUSH1 0x24 DUP3 ADD MSTORE PUSH32 0x455243313136373A20637265617465206661696C656400000000000000000000 PUSH1 0x44 DUP3 ADD MSTORE PUSH1 0x64 ADD JUMPDEST PUSH1 0x40 MLOAD DUP1 SWAP2 SUB SWAP1 REVERT JUMPDEST SWAP2 SWAP1 POP JUMP JUMPDEST PUSH1 0x40 DUP1 MLOAD PUSH20 0xFFFFFFFFFFFFFFFFFFFFFFFFFFFFFFFFFFFFFFFF DUP6 DUP2 AND PUSH1 0x24 DUP4 ADD MSTORE DUP5 AND PUSH1 0x44 DUP3 ADD MSTORE PUSH1 0x64 DUP1 DUP3 ADD DUP5 SWAP1 MSTORE DUP3 MLOAD DUP1 DUP4 SUB SWAP1 SWAP2 ADD DUP2 MSTORE PUSH1 0x84 SWAP1 SWAP2 ADD SWAP1 SWAP2 MSTORE PUSH1 0x20 DUP2 ADD DUP1 MLOAD PUSH28 0xFFFFFFFFFFFFFFFFFFFFFFFFFFFFFFFFFFFFFFFFFFFFFFFFFFFFFFFF AND PUSH32 0x23B872DD00000000000000000000000000000000000000000000000000000000 OR SWAP1 MSTORE PUSH2 0x4AF SWAP1 DUP6 SWAP1 PUSH2 0x4B5 JUMP JUMPDEST POP POP POP POP JUMP JUMPDEST PUSH1 0x0 PUSH2 0x517 DUP3 PUSH1 0x40 MLOAD DUP1 PUSH1 0x40 ADD PUSH1 0x40 MSTORE DUP1 PUSH1 0x20 DUP2 MSTORE PUSH1 0x20 ADD PUSH32 0x5361666545524332303A206C6F772D6C6576656C2063616C6C206661696C6564 DUP2 MSTORE POP DUP6 PUSH20 0xFFFFFFFFFFFFFFFFFFFFFFFFFFFFFFFFFFFFFFFF AND PUSH2 0x5C6 SWAP1 SWAP3 SWAP2 SWAP1 PUSH4 0xFFFFFFFF AND JUMP JUMPDEST DUP1 MLOAD SWAP1 SWAP2 POP ISZERO PUSH2 0x5C1 JUMPI DUP1 DUP1 PUSH1 0x20 ADD SWAP1 MLOAD DUP2 ADD SWAP1 PUSH2 0x535 SWAP2 SWAP1 PUSH2 0xD57 JUMP JUMPDEST PUSH2 0x5C1 JUMPI PUSH1 0x40 MLOAD PUSH32 0x8C379A000000000000000000000000000000000000000000000000000000000 DUP2 MSTORE PUSH1 0x20 PUSH1 0x4 DUP3 ADD MSTORE PUSH1 0x2A PUSH1 0x24 DUP3 ADD MSTORE PUSH32 0x5361666545524332303A204552433230206F7065726174696F6E20646964206E PUSH1 0x44 DUP3 ADD MSTORE PUSH32 0x6F74207375636365656400000000000000000000000000000000000000000000 PUSH1 0x64 DUP3 ADD MSTORE PUSH1 0x84 ADD PUSH2 0x40C JUMP JUMPDEST POP POP POP JUMP JUMPDEST PUSH1 0x60 PUSH2 0x5D5 DUP5 DUP5 PUSH1 0x0 DUP6 PUSH2 0x5DF JUMP JUMPDEST SWAP1 POP JUMPDEST SWAP4 SWAP3 POP POP POP JUMP JUMPDEST PUSH1 0x60 DUP3 SELFBALANCE LT ISZERO PUSH2 0x671 JUMPI PUSH1 0x40 MLOAD PUSH32 0x8C379A000000000000000000000000000000000000000000000000000000000 DUP2 MSTORE PUSH1 0x20 PUSH1 0x4 DUP3 ADD MSTORE PUSH1 0x26 PUSH1 0x24 DUP3 ADD MSTORE PUSH32 0x416464726573733A20696E73756666696369656E742062616C616E636520666F PUSH1 0x44 DUP3 ADD MSTORE PUSH32 0x722063616C6C0000000000000000000000000000000000000000000000000000 PUSH1 0x64 DUP3 ADD MSTORE PUSH1 0x84 ADD PUSH2 0x40C JUMP JUMPDEST PUSH20 0xFFFFFFFFFFFFFFFFFFFFFFFFFFFFFFFFFFFFFFFF DUP6 AND EXTCODESIZE PUSH2 0x6EF JUMPI PUSH1 0x40 MLOAD PUSH32 0x8C379A000000000000000000000000000000000000000000000000000000000 DUP2 MSTORE PUSH1 0x20 PUSH1 0x4 DUP3 ADD MSTORE PUSH1 0x1D PUSH1 0x24 DUP3 ADD MSTORE PUSH32 0x416464726573733A2063616C6C20746F206E6F6E2D636F6E7472616374000000 PUSH1 0x44 DUP3 ADD MSTORE PUSH1 0x64 ADD PUSH2 0x40C JUMP JUMPDEST PUSH1 0x0 DUP1 DUP7 PUSH20 0xFFFFFFFFFFFFFFFFFFFFFFFFFFFFFFFFFFFFFFFF AND DUP6 DUP8 PUSH1 0x40 MLOAD PUSH2 0x718 SWAP2 SWAP1 PUSH2 0xD79 JUMP JUMPDEST PUSH1 0x0 PUSH1 0x40 MLOAD DUP1 DUP4 SUB DUP2 DUP6 DUP8 GAS CALL SWAP3 POP POP POP RETURNDATASIZE DUP1 PUSH1 0x0 DUP2 EQ PUSH2 0x755 JUMPI PUSH1 0x40 MLOAD SWAP2 POP PUSH1 0x1F NOT PUSH1 0x3F RETURNDATASIZE ADD AND DUP3 ADD PUSH1 0x40 MSTORE RETURNDATASIZE DUP3 MSTORE RETURNDATASIZE PUSH1 0x0 PUSH1 0x20 DUP5 ADD RETURNDATACOPY PUSH2 0x75A JUMP JUMPDEST PUSH1 0x60 SWAP2 POP JUMPDEST POP SWAP2 POP SWAP2 POP PUSH2 0x76A DUP3 DUP3 DUP7 PUSH2 0x775 JUMP JUMPDEST SWAP8 SWAP7 POP POP POP POP POP POP POP JUMP JUMPDEST PUSH1 0x60 DUP4 ISZERO PUSH2 0x784 JUMPI POP DUP2 PUSH2 0x5D8 JUMP JUMPDEST DUP3 MLOAD ISZERO PUSH2 0x794 JUMPI DUP3 MLOAD DUP1 DUP5 PUSH1 0x20 ADD REVERT JUMPDEST DUP2 PUSH1 0x40 MLOAD PUSH32 0x8C379A000000000000000000000000000000000000000000000000000000000 DUP2 MSTORE PUSH1 0x4 ADD PUSH2 0x40C SWAP2 SWAP1 PUSH2 0xD95 JUMP JUMPDEST PUSH1 0x0 PUSH1 0x20 DUP3 DUP5 SUB SLT ISZERO PUSH2 0x7DA JUMPI PUSH1 0x0 DUP1 REVERT JUMPDEST POP CALLDATALOAD SWAP2 SWAP1 POP JUMP JUMPDEST DUP1 CALLDATALOAD PUSH20 0xFFFFFFFFFFFFFFFFFFFFFFFFFFFFFFFFFFFFFFFF DUP2 AND DUP2 EQ PUSH2 0x415 JUMPI PUSH1 0x0 DUP1 REVERT JUMPDEST PUSH1 0x0 DUP1 PUSH1 0x40 DUP4 DUP6 SUB SLT ISZERO PUSH2 0x818 JUMPI PUSH1 0x0 DUP1 REVERT JUMPDEST PUSH2 0x821 DUP4 PUSH2 0x7E1 JUMP JUMPDEST SWAP2 POP PUSH2 0x82F PUSH1 0x20 DUP5 ADD PUSH2 0x7E1 JUMP JUMPDEST SWAP1 POP SWAP3 POP SWAP3 SWAP1 POP JUMP JUMPDEST PUSH1 0x0 DUP1 DUP4 PUSH1 0x1F DUP5 ADD SLT PUSH2 0x84A JUMPI PUSH1 0x0 DUP1 REVERT JUMPDEST POP DUP2 CALLDATALOAD PUSH8 0xFFFFFFFFFFFFFFFF DUP2 GT ISZERO PUSH2 0x862 JUMPI PUSH1 0x0 DUP1 REVERT JUMPDEST PUSH1 0x20 DUP4 ADD SWAP2 POP DUP4 PUSH1 0x20 DUP3 PUSH1 0x5 SHL DUP6 ADD ADD GT ISZERO PUSH2 0x87D JUMPI PUSH1 0x0 DUP1 REVERT JUMPDEST SWAP3 POP SWAP3 SWAP1 POP JUMP JUMPDEST PUSH32 0x4E487B7100000000000000000000000000000000000000000000000000000000 PUSH1 0x0 MSTORE PUSH1 0x41 PUSH1 0x4 MSTORE PUSH1 0x24 PUSH1 0x0 REVERT JUMPDEST PUSH1 0x40 MLOAD PUSH1 0x1F DUP3 ADD PUSH32 0xFFFFFFFFFFFFFFFFFFFFFFFFFFFFFFFFFFFFFFFFFFFFFFFFFFFFFFFFFFFFFFE0 AND DUP2 ADD PUSH8 0xFFFFFFFFFFFFFFFF DUP2 GT DUP3 DUP3 LT OR ISZERO PUSH2 0x8FA JUMPI PUSH2 0x8FA PUSH2 0x884 JUMP JUMPDEST PUSH1 0x40 MSTORE SWAP2 SWAP1 POP JUMP JUMPDEST PUSH1 0x0 DUP3 PUSH1 0x1F DUP4 ADD SLT PUSH2 0x913 JUMPI PUSH1 0x0 DUP1 REVERT JUMPDEST DUP2 CALLDATALOAD PUSH1 0x20 PUSH8 0xFFFFFFFFFFFFFFFF DUP3 GT ISZERO PUSH2 0x92F JUMPI PUSH2 0x92F PUSH2 0x884 JUMP JUMPDEST DUP2 PUSH1 0x5 SHL PUSH2 0x93E DUP3 DUP3 ADD PUSH2 0x8B3 JUMP JUMPDEST SWAP3 DUP4 MSTORE DUP5 DUP2 ADD DUP3 ADD SWAP3 DUP3 DUP2 ADD SWAP1 DUP8 DUP6 GT ISZERO PUSH2 0x958 JUMPI PUSH1 0x0 DUP1 REVERT JUMPDEST DUP4 DUP8 ADD SWAP3 POP JUMPDEST DUP5 DUP4 LT ISZERO PUSH2 0x76A JUMPI DUP3 CALLDATALOAD DUP3 MSTORE SWAP2 DUP4 ADD SWAP2 SWAP1 DUP4 ADD SWAP1 PUSH2 0x95E JUMP JUMPDEST PUSH1 0x0 DUP3 PUSH1 0x1F DUP4 ADD SLT PUSH2 0x988 JUMPI PUSH1 0x0 DUP1 REVERT JUMPDEST DUP2 CALLDATALOAD PUSH8 0xFFFFFFFFFFFFFFFF DUP2 GT ISZERO PUSH2 0x9A2 JUMPI PUSH2 0x9A2 PUSH2 0x884 JUMP JUMPDEST PUSH2 0x9D3 PUSH1 0x20 PUSH32 0xFFFFFFFFFFFFFFFFFFFFFFFFFFFFFFFFFFFFFFFFFFFFFFFFFFFFFFFFFFFFFFE0 PUSH1 0x1F DUP5 ADD AND ADD PUSH2 0x8B3 JUMP JUMPDEST DUP2 DUP2 MSTORE DUP5 PUSH1 0x20 DUP4 DUP7 ADD ADD GT ISZERO PUSH2 0x9E8 JUMPI PUSH1 0x0 DUP1 REVERT JUMPDEST DUP2 PUSH1 0x20 DUP6 ADD PUSH1 0x20 DUP4 ADD CALLDATACOPY PUSH1 0x0 SWAP2 DUP2 ADD PUSH1 0x20 ADD SWAP2 SWAP1 SWAP2 MSTORE SWAP4 SWAP3 POP POP POP JUMP JUMPDEST PUSH1 0x0 DUP1 PUSH1 0x0 DUP1 PUSH1 0x0 DUP1 PUSH1 0x0 DUP1 PUSH1 0x0 DUP1 PUSH2 0x100 DUP12 DUP14 SUB SLT ISZERO PUSH2 0xA25 JUMPI PUSH1 0x0 DUP1 REVERT JUMPDEST PUSH2 0xA2E DUP12 PUSH2 0x7E1 JUMP JUMPDEST SWAP10 POP PUSH1 0x20 DUP12 ADD CALLDATALOAD SWAP9 POP PUSH1 0x40 DUP12 ADD CALLDATALOAD PUSH8 0xFFFFFFFFFFFFFFFF DUP1 DUP3 GT ISZERO PUSH2 0xA52 JUMPI PUSH1 0x0 DUP1 REVERT JUMPDEST PUSH2 0xA5E DUP15 DUP4 DUP16 ADD PUSH2 0x838 JUMP JUMPDEST SWAP1 SWAP11 POP SWAP9 POP PUSH1 0x60 DUP14 ADD CALLDATALOAD SWAP2 POP DUP1 DUP3 GT ISZERO PUSH2 0xA77 JUMPI PUSH1 0x0 DUP1 REVERT JUMPDEST PUSH2 0xA83 DUP15 DUP4 DUP16 ADD PUSH2 0x902 JUMP JUMPDEST SWAP8 POP PUSH1 0x80 DUP14 ADD CALLDATALOAD SWAP2 POP DUP1 DUP3 GT ISZERO PUSH2 0xA99 JUMPI PUSH1 0x0 DUP1 REVERT JUMPDEST PUSH2 0xAA5 DUP15 DUP4 DUP16 ADD PUSH2 0x838 JUMP JUMPDEST SWAP1 SWAP8 POP SWAP6 POP PUSH1 0xA0 DUP14 ADD CALLDATALOAD SWAP5 POP PUSH1 0xC0 DUP14 ADD CALLDATALOAD SWAP2 POP DUP1 DUP3 GT ISZERO PUSH2 0xAC5 JUMPI PUSH1 0x0 DUP1 REVERT JUMPDEST PUSH2 0xAD1 DUP15 DUP4 DUP16 ADD PUSH2 0x977 JUMP JUMPDEST SWAP4 POP PUSH1 0xE0 DUP14 ADD CALLDATALOAD SWAP2 POP DUP1 DUP3 GT ISZERO PUSH2 0xAE7 JUMPI PUSH1 0x0 DUP1 REVERT JUMPDEST POP PUSH2 0xAF4 DUP14 DUP3 DUP15 ADD PUSH2 0x977 JUMP JUMPDEST SWAP2 POP POP SWAP3 SWAP6 SWAP9 SWAP12 SWAP2 SWAP5 SWAP8 SWAP11 POP SWAP3 SWAP6 SWAP9 POP JUMP JUMPDEST PUSH32 0x4E487B7100000000000000000000000000000000000000000000000000000000 PUSH1 0x0 MSTORE PUSH1 0x32 PUSH1 0x4 MSTORE PUSH1 0x24 PUSH1 0x0 REVERT JUMPDEST PUSH1 0x0 PUSH1 0x20 DUP3 DUP5 SUB SLT ISZERO PUSH2 0xB47 JUMPI PUSH1 0x0 DUP1 REVERT JUMPDEST PUSH2 0x5D8 DUP3 PUSH2 0x7E1 JUMP JUMPDEST PUSH1 0x0 PUSH32 0xFFFFFFFFFFFFFFFFFFFFFFFFFFFFFFFFFFFFFFFFFFFFFFFFFFFFFFFFFFFFFFFF DUP3 SUB PUSH2 0xBA8 JUMPI PUSH32 0x4E487B7100000000000000000000000000000000000000000000000000000000 PUSH1 0x0 MSTORE PUSH1 0x11 PUSH1 0x4 MSTORE PUSH1 0x24 PUSH1 0x0 REVERT JUMPDEST POP PUSH1 0x1 ADD SWAP1 JUMP JUMPDEST DUP2 DUP4 MSTORE PUSH1 0x0 PUSH1 0x20 DUP1 DUP6 ADD SWAP5 POP DUP3 PUSH1 0x0 JUMPDEST DUP6 DUP2 LT ISZERO PUSH2 0xBF8 JUMPI PUSH20 0xFFFFFFFFFFFFFFFFFFFFFFFFFFFFFFFFFFFFFFFF PUSH2 0xBE5 DUP4 PUSH2 0x7E1 JUMP JUMPDEST AND DUP8 MSTORE SWAP6 DUP3 ADD SWAP6 SWAP1 DUP3 ADD SWAP1 PUSH1 0x1 ADD PUSH2 0xBBF JUMP JUMPDEST POP SWAP5 SWAP6 SWAP5 POP POP POP POP POP JUMP JUMPDEST PUSH1 0x0 JUMPDEST DUP4 DUP2 LT ISZERO PUSH2 0xC1E JUMPI DUP2 DUP2 ADD MLOAD DUP4 DUP3 ADD MSTORE PUSH1 0x20 ADD PUSH2 0xC06 JUMP JUMPDEST POP POP PUSH1 0x0 SWAP2 ADD MSTORE JUMP JUMPDEST PUSH1 0x0 DUP2 MLOAD DUP1 DUP5 MSTORE PUSH2 0xC3F DUP2 PUSH1 0x20 DUP7 ADD PUSH1 0x20 DUP7 ADD PUSH2 0xC03 JUMP JUMPDEST PUSH1 0x1F ADD PUSH32 0xFFFFFFFFFFFFFFFFFFFFFFFFFFFFFFFFFFFFFFFFFFFFFFFFFFFFFFFFFFFFFFE0 AND SWAP3 SWAP1 SWAP3 ADD PUSH1 0x20 ADD SWAP3 SWAP2 POP POP JUMP JUMPDEST PUSH1 0x0 PUSH20 0xFFFFFFFFFFFFFFFFFFFFFFFFFFFFFFFFFFFFFFFF DUP1 DUP13 AND DUP4 MSTORE PUSH1 0xE0 PUSH1 0x20 DUP5 ADD MSTORE PUSH2 0xCA2 PUSH1 0xE0 DUP5 ADD DUP12 DUP14 PUSH2 0xBAF JUMP JUMPDEST DUP4 DUP2 SUB PUSH1 0x40 DUP6 ADD MSTORE DUP9 DUP2 MSTORE PUSH32 0x7FFFFFFFFFFFFFFFFFFFFFFFFFFFFFFFFFFFFFFFFFFFFFFFFFFFFFFFFFFFFFF DUP10 GT ISZERO PUSH2 0xCDA JUMPI PUSH1 0x0 DUP1 REVERT JUMPDEST DUP9 PUSH1 0x5 SHL DUP1 DUP12 PUSH1 0x20 DUP5 ADD CALLDATACOPY PUSH1 0x60 DUP6 ADD DUP10 SWAP1 MSTORE ADD DUP4 DUP2 SUB PUSH1 0x20 SWAP1 DUP2 ADD PUSH1 0x80 DUP7 ADD MSTORE PUSH2 0xD06 SWAP1 DUP3 ADD DUP9 PUSH2 0xC27 JUMP JUMPDEST SWAP1 POP DUP4 DUP2 SUB PUSH1 0xA0 DUP6 ADD MSTORE PUSH2 0xD1A DUP2 DUP8 PUSH2 0xC27 JUMP JUMPDEST SWAP3 POP POP DUP1 DUP5 AND PUSH1 0xC0 DUP5 ADD MSTORE POP SWAP11 SWAP10 POP POP POP POP POP POP POP POP POP POP JUMP JUMPDEST DUP4 DUP2 MSTORE PUSH1 0x40 PUSH1 0x20 DUP3 ADD MSTORE PUSH1 0x0 PUSH2 0xD4E PUSH1 0x40 DUP4 ADD DUP5 DUP7 PUSH2 0xBAF JUMP JUMPDEST SWAP6 SWAP5 POP POP POP POP POP JUMP JUMPDEST PUSH1 0x0 PUSH1 0x20 DUP3 DUP5 SUB SLT ISZERO PUSH2 0xD69 JUMPI PUSH1 0x0 DUP1 REVERT JUMPDEST DUP2 MLOAD DUP1 ISZERO ISZERO DUP2 EQ PUSH2 0x5D8 JUMPI PUSH1 0x0 DUP1 REVERT JUMPDEST PUSH1 0x0 DUP3 MLOAD PUSH2 0xD8B DUP2 DUP5 PUSH1 0x20 DUP8 ADD PUSH2 0xC03 JUMP JUMPDEST SWAP2 SWAP1 SWAP2 ADD SWAP3 SWAP2 POP POP JUMP JUMPDEST PUSH1 0x20 DUP2 MSTORE PUSH1 0x0 PUSH2 0x5D8 PUSH1 0x20 DUP4 ADD DUP5 PUSH2 0xC27 JUMP INVALID LOG2 PUSH5 0x6970667358 0x22 SLT KECCAK256 CALLDATACOPY SWAP3 BLOCKHASH PUSH31 0x1755647956DBB1195CD98119B1C1842835B4ECEDC707D06D3C3347B564736F PUSH13 0x63430008110033000000000000 ",
  "sha1": "6ed66d46f7cd47eb81848f39c32d4e0fb9a6e918",
  "source": "// SPDX-License-Identifier: UNLICENSED\n\npragma solidity ^0.8.17;\n\nimport \"@openzeppelin/contracts/proxy/Proxy.sol\";\nimport \"@openzeppelin/contracts/token/ERC20/utils/SafeERC20.sol\";\nimport \"@openzeppelin/contracts/proxy/Clones.sol\";\nimport \"./FixedPointMath.sol\";\nimport \"./CatalystIBCInterface.sol\";\nimport \"./ISwapPool.sol\";\n\n/**\n * @title Catalyst: Swap Pool Factory\n * @author Catalyst Labs\n */\ncontract CatalystSwapPoolFactory {\n    using SafeERC20 for IERC20;\n\n    event PoolDeployed(\n        address indexed deployer, // msg.sender\n        address indexed pool_address, // The forwarder for the pool template\n        address indexed chaininterface, // Which cross chain messaging service is used? //! TODO CHECK SECURITY\n        uint256 k, // amplification\n        address[] assets // List of the 3 assets\n    );\n\n    // 0: Volatile v1\n    // 1: Amplified v1\n    mapping(uint256 => address) public _poolTemplate;\n    mapping(address => mapping(address => bool)) public IsCreatedByFactory;\n    uint256 constant ONE = 2**64;\n\n    constructor(address volatilePoolTemplate, address amplifiedPoolTemplate) {\n        _poolTemplate[0] = volatilePoolTemplate;\n        _poolTemplate[1] = amplifiedPoolTemplate;\n    }\n\n    function deploy_swappool(\n        address chaininterface,\n        uint256 poolTemplateIndex,\n        address[] calldata init_assets,\n        uint256[] memory init_balances,\n        uint256[] calldata weights,\n        uint256 k,\n        string memory name,\n        string memory symbol\n    ) external returns (address) {\n        address swapPool = Clones.clone(_poolTemplate[poolTemplateIndex]);\n\n        // The pool expects the balance0s to exist in the pool when setup is called.\n        for (uint256 it = 0; it < init_assets.length; it++) {\n            IERC20(init_assets[it]).safeTransferFrom(\n                msg.sender,\n                swapPool,\n                init_balances[it]\n            );\n        }\n        delete init_balances;\n\n        ICatalystSwapPool(swapPool).setup(\n            chaininterface,\n            init_assets,\n            weights,\n            k,\n            name,\n            symbol,\n            msg.sender\n        );\n        delete name;\n        delete symbol;\n\n        emit PoolDeployed(msg.sender, swapPool, chaininterface, k, init_assets);\n        IsCreatedByFactory[chaininterface][swapPool] = true;\n\n        return swapPool;\n    }\n}\n",
  "sourcePath": "contracts/SwapPoolFactory.sol",
  "type": "contract"
}