{
  "abi": [
    {
      "inputs": [
        {
          "internalType": "address",
          "name": "factory",
          "type": "address"
        },
        {
          "internalType": "address",
          "name": "polymeraseDispatcher",
          "type": "address"
        },
        {
          "internalType": "bytes32",
          "name": "localChannelId",
          "type": "bytes32"
        }
      ],
      "stateMutability": "nonpayable",
      "type": "constructor"
    },
    {
      "anonymous": false,
      "inputs": [
        {
          "indexed": true,
          "internalType": "address",
          "name": "previousOwner",
          "type": "address"
        },
        {
          "indexed": true,
          "internalType": "address",
          "name": "newOwner",
          "type": "address"
        }
      ],
      "name": "OwnershipTransferred",
      "type": "event"
    },
    {
      "inputs": [
        {
          "internalType": "bytes32",
          "name": "channelId",
          "type": "bytes32"
        },
        {
          "internalType": "bytes32",
          "name": "pool",
          "type": "bytes32"
        },
        {
          "internalType": "bool",
          "name": "state",
          "type": "bool"
        }
      ],
      "name": "CreateConnection",
      "outputs": [
        {
          "internalType": "bool",
          "name": "",
          "type": "bool"
        }
      ],
      "stateMutability": "nonpayable",
      "type": "function"
    },
    {
      "inputs": [
        {
          "internalType": "uint256",
          "name": "chainId",
          "type": "uint256"
        },
        {
          "internalType": "bytes32",
          "name": "pool",
          "type": "bytes32"
        },
        {
          "internalType": "bool",
          "name": "state",
          "type": "bool"
        }
      ],
      "name": "CreateConnectionWithChain",
      "outputs": [],
      "stateMutability": "nonpayable",
      "type": "function"
    },
    {
      "inputs": [],
      "name": "PolymeraseDispatcher",
      "outputs": [
        {
          "internalType": "address",
          "name": "",
          "type": "address"
        }
      ],
      "stateMutability": "view",
      "type": "function"
    },
    {
      "inputs": [],
      "name": "_calldataRouter",
      "outputs": [
        {
          "internalType": "address",
          "name": "",
          "type": "address"
        }
      ],
      "stateMutability": "view",
      "type": "function"
    },
    {
      "inputs": [
        {
          "internalType": "uint256",
          "name": "",
          "type": "uint256"
        }
      ],
      "name": "_channelForChain",
      "outputs": [
        {
          "internalType": "bytes32",
          "name": "",
          "type": "bytes32"
        }
      ],
      "stateMutability": "view",
      "type": "function"
    },
    {
      "inputs": [],
      "name": "_poolFactory",
      "outputs": [
        {
          "internalType": "address",
          "name": "",
          "type": "address"
        }
      ],
      "stateMutability": "view",
      "type": "function"
    },
    {
      "inputs": [],
      "name": "chain_id",
      "outputs": [
        {
          "internalType": "uint256",
          "name": "",
          "type": "uint256"
        }
      ],
      "stateMutability": "view",
      "type": "function"
    },
    {
      "inputs": [
        {
          "internalType": "bytes32",
          "name": "",
          "type": "bytes32"
        },
        {
          "internalType": "bytes32",
          "name": "",
          "type": "bytes32"
        },
        {
          "internalType": "bytes32",
          "name": "",
          "type": "bytes32"
        }
      ],
      "name": "checkConnection",
      "outputs": [
        {
          "internalType": "bool",
          "name": "",
          "type": "bool"
        }
      ],
      "stateMutability": "view",
      "type": "function"
    },
    {
      "inputs": [
        {
          "internalType": "uint32",
          "name": "chainId",
          "type": "uint32"
        },
        {
          "internalType": "bytes32",
          "name": "targetPool",
          "type": "bytes32"
        },
        {
          "internalType": "bytes32",
          "name": "targetUser",
          "type": "bytes32"
        },
        {
          "internalType": "uint8",
          "name": "targetAssetIndex",
          "type": "uint8"
        },
        {
          "internalType": "uint256",
          "name": "U",
          "type": "uint256"
        },
        {
          "internalType": "uint256",
          "name": "minOut",
          "type": "uint256"
        },
        {
          "internalType": "bool",
          "name": "approx",
          "type": "bool"
        },
        {
          "internalType": "uint32",
          "name": "sourceSwapId",
          "type": "uint32"
        }
      ],
      "name": "crossChainSwap",
      "outputs": [],
      "stateMutability": "nonpayable",
      "type": "function"
    },
    {
      "inputs": [
        {
          "internalType": "uint32",
          "name": "chainId",
          "type": "uint32"
        },
        {
          "internalType": "bytes32",
          "name": "targetPool",
          "type": "bytes32"
        },
        {
          "internalType": "bytes32",
          "name": "targetUser",
          "type": "bytes32"
        },
        {
          "internalType": "uint8",
          "name": "targetAssetIndex",
          "type": "uint8"
        },
        {
          "internalType": "uint256",
          "name": "U",
          "type": "uint256"
        },
        {
          "internalType": "uint256",
          "name": "minOut",
          "type": "uint256"
        },
        {
          "internalType": "bool",
          "name": "approx",
          "type": "bool"
        },
        {
          "internalType": "uint32",
          "name": "sourceSwapId",
          "type": "uint32"
        },
        {
          "internalType": "bytes",
          "name": "calldata_",
          "type": "bytes"
        }
      ],
      "name": "crossChainSwap",
      "outputs": [],
      "stateMutability": "nonpayable",
      "type": "function"
    },
    {
      "inputs": [
        {
          "internalType": "uint256",
          "name": "chainId",
          "type": "uint256"
        },
        {
          "internalType": "bytes32",
          "name": "targetPool",
          "type": "bytes32"
        },
        {
          "internalType": "bytes32",
          "name": "targetUser",
          "type": "bytes32"
        },
        {
          "internalType": "uint256",
          "name": "U",
          "type": "uint256"
        },
        {
          "internalType": "address",
          "name": "fallbackAddress",
          "type": "address"
        }
      ],
      "name": "liquiditySwap",
      "outputs": [],
      "stateMutability": "nonpayable",
      "type": "function"
    },
    {
      "inputs": [
        {
          "components": [
            {
              "components": [
                {
                  "internalType": "string",
                  "name": "portId",
                  "type": "string"
                },
                {
                  "internalType": "string",
                  "name": "channelId",
                  "type": "string"
                }
              ],
              "internalType": "struct IbcEndpoint",
              "name": "src",
              "type": "tuple"
            },
            {
              "components": [
                {
                  "internalType": "string",
                  "name": "portId",
                  "type": "string"
                },
                {
                  "internalType": "string",
                  "name": "channelId",
                  "type": "string"
                }
              ],
              "internalType": "struct IbcEndpoint",
              "name": "dest",
              "type": "tuple"
            },
            {
              "internalType": "uint64",
              "name": "sequence",
              "type": "uint64"
            },
            {
              "internalType": "bytes",
              "name": "data",
              "type": "bytes"
            },
            {
              "components": [
                {
                  "internalType": "uint64",
                  "name": "block",
                  "type": "uint64"
                },
                {
                  "internalType": "uint64",
                  "name": "timestamp",
                  "type": "uint64"
                }
              ],
              "internalType": "struct IbcTimeout",
              "name": "timeout",
              "type": "tuple"
            }
          ],
          "internalType": "struct IbcPacket",
          "name": "packet",
          "type": "tuple"
        }
      ],
      "name": "onAcknowledgementPacket",
      "outputs": [],
      "stateMutability": "nonpayable",
      "type": "function"
    },
    {
      "inputs": [
        {
          "components": [
            {
              "components": [
                {
                  "internalType": "string",
                  "name": "portId",
                  "type": "string"
                },
                {
                  "internalType": "string",
                  "name": "channelId",
                  "type": "string"
                }
              ],
              "internalType": "struct IbcEndpoint",
              "name": "src",
              "type": "tuple"
            },
            {
              "components": [
                {
                  "internalType": "string",
                  "name": "portId",
                  "type": "string"
                },
                {
                  "internalType": "string",
                  "name": "channelId",
                  "type": "string"
                }
              ],
              "internalType": "struct IbcEndpoint",
              "name": "dest",
              "type": "tuple"
            },
            {
              "internalType": "uint64",
              "name": "sequence",
              "type": "uint64"
            },
            {
              "internalType": "bytes",
              "name": "data",
              "type": "bytes"
            },
            {
              "components": [
                {
                  "internalType": "uint64",
                  "name": "block",
                  "type": "uint64"
                },
                {
                  "internalType": "uint64",
                  "name": "timestamp",
                  "type": "uint64"
                }
              ],
              "internalType": "struct IbcTimeout",
              "name": "timeout",
              "type": "tuple"
            }
          ],
          "internalType": "struct IbcPacket",
          "name": "packet",
          "type": "tuple"
        }
      ],
      "name": "onRecvPacket",
      "outputs": [],
      "stateMutability": "nonpayable",
      "type": "function"
    },
    {
      "inputs": [
        {
          "components": [
            {
              "components": [
                {
                  "internalType": "string",
                  "name": "portId",
                  "type": "string"
                },
                {
                  "internalType": "string",
                  "name": "channelId",
                  "type": "string"
                }
              ],
              "internalType": "struct IbcEndpoint",
              "name": "src",
              "type": "tuple"
            },
            {
              "components": [
                {
                  "internalType": "string",
                  "name": "portId",
                  "type": "string"
                },
                {
                  "internalType": "string",
                  "name": "channelId",
                  "type": "string"
                }
              ],
              "internalType": "struct IbcEndpoint",
              "name": "dest",
              "type": "tuple"
            },
            {
              "internalType": "uint64",
              "name": "sequence",
              "type": "uint64"
            },
            {
              "internalType": "bytes",
              "name": "data",
              "type": "bytes"
            },
            {
              "components": [
                {
                  "internalType": "uint64",
                  "name": "block",
                  "type": "uint64"
                },
                {
                  "internalType": "uint64",
                  "name": "timestamp",
                  "type": "uint64"
                }
              ],
              "internalType": "struct IbcTimeout",
              "name": "timeout",
              "type": "tuple"
            }
          ],
          "internalType": "struct IbcPacket",
          "name": "packet",
          "type": "tuple"
        }
      ],
      "name": "onTimeoutPacket",
      "outputs": [],
      "stateMutability": "nonpayable",
      "type": "function"
    },
    {
      "inputs": [],
      "name": "owner",
      "outputs": [
        {
          "internalType": "address",
          "name": "",
          "type": "address"
        }
      ],
      "stateMutability": "view",
      "type": "function"
    },
    {
      "inputs": [],
      "name": "registerPort",
      "outputs": [],
      "stateMutability": "nonpayable",
      "type": "function"
    },
    {
      "inputs": [],
      "name": "renounceOwnership",
      "outputs": [],
      "stateMutability": "nonpayable",
      "type": "function"
    },
    {
      "inputs": [
        {
          "internalType": "uint256",
          "name": "chainID",
          "type": "uint256"
        },
        {
          "internalType": "bytes32",
          "name": "channel",
          "type": "bytes32"
        }
      ],
      "name": "setChannelForChain",
      "outputs": [],
      "stateMutability": "nonpayable",
      "type": "function"
    },
    {
      "inputs": [
        {
          "internalType": "address",
          "name": "newOwner",
          "type": "address"
        }
      ],
      "name": "transferOwnership",
      "outputs": [],
      "stateMutability": "nonpayable",
      "type": "function"
    },
    {
      "inputs": [
        {
          "internalType": "address",
          "name": "",
          "type": "address"
        }
      ],
      "name": "validArriver",
      "outputs": [
        {
          "internalType": "bool",
          "name": "",
          "type": "bool"
        }
      ],
      "stateMutability": "view",
      "type": "function"
    }
  ],
  "bytecode": "60c06040523480156200001157600080fd5b506040516200204538038062002045833981016040819052620000349162000105565b6200003f3362000098565b600180546001600160a01b0319166001600160a01b039485161781559190921660808190526000908152600260209081526040808320805460ff1916909417909355468252600490529081209190915560a05262000146565b600080546001600160a01b038381166001600160a01b0319831681178455604051919092169283917f8be0079c531659141344cd1fd0a4f28419497f9722a3daafe3b4186f6b6457e09190a35050565b80516001600160a01b03811681146200010057600080fd5b919050565b6000806000606084860312156200011b57600080fd5b6200012684620000e8565b92506200013660208501620000e8565b9150604084015190509250925092565b60805160a051611ebd6200018860003960006101760152600081816102c7015281816106d801528181610ae80152818161121701526114360152611ebd6000f3fe608060405234801561001057600080fd5b506004361061016c5760003560e01c8063bc62c050116100cd578063df8203d611610081578063e55770f811610066578063e55770f814610334578063eed9ddb314610347578063f2fde38b1461037b57600080fd5b8063df8203d6146102f1578063e17ff4851461031457600080fd5b8063cf1370ea116100b2578063cf1370ea146102af578063da20dffd146102c2578063db5c5a1d146102e957600080fd5b8063bc62c05014610279578063cec8a3951461028c57600080fd5b80638da5cb5b1161012457806392a9bdb31161010957806392a9bdb314610240578063ac2446bd14610253578063ba71471e1461026657600080fd5b80638da5cb5b1461020f5780638e133a861461022d57600080fd5b806345050a7d1161015557806345050a7d146101d2578063715018a6146101e7578063745df29d146101ef57600080fd5b806319e43350146101715780633af973b1146101c2575b600080fd5b6101987f000000000000000000000000000000000000000000000000000000000000000081565b60405173ffffffffffffffffffffffffffffffffffffffff90911681526020015b60405180910390f35b465b6040519081526020016101b9565b6101e56101e0366004611650565b61038e565b005b6101e56104be565b6101c46101fd366004611692565b60046020526000908152604090205481565b60005473ffffffffffffffffffffffffffffffffffffffff16610198565b6101e561023b3660046116e3565b610550565b6101e561024e366004611760565b610750565b6101e5610261366004611650565b61088d565b6101e5610274366004611799565b610953565b6101e5610287366004611878565b610b63565b61029f61029a366004611760565b610bf6565b60405190151581526020016101b9565b6101e56102bd366004611650565b610d56565b6101987f000000000000000000000000000000000000000000000000000000000000000081565b6101e5611194565b61029f6102ff3660046118bc565b60026020526000908152604090205460ff1681565b6001546101989073ffffffffffffffffffffffffffffffffffffffff1681565b6101e56103423660046118d9565b611297565b61029f610355366004611926565b600360209081526000938452604080852082529284528284209052825290205460ff1681565b6101e56103893660046118bc565b6114ab565b36600061039e6060840184611952565b915091506000828260008181106103b7576103b76119be565b909101357fff00000000000000000000000000000000000000000000000000000000000000169150600090506103f16021600185876119ed565b8101906103fe91906118bc565b90507f010000000000000000000000000000000000000000000000000000000000000082166000036104b75773ffffffffffffffffffffffffffffffffffffffff811663acd3fac061045460a660a287896119ed565b61045d91611a17565b60e01c63ffffffff166040518263ffffffff1660e01b815260040161048491815260200190565b600060405180830381600087803b15801561049e57600080fd5b505af11580156104b2573d6000803e3d6000fd5b505050505b5050505050565b60005473ffffffffffffffffffffffffffffffffffffffff163314610544576040517f08c379a000000000000000000000000000000000000000000000000000000000815260206004820181905260248201527f4f776e61626c653a2063616c6c6572206973206e6f7420746865206f776e657260448201526064015b60405180910390fd5b61054e60006115db565b565b6001546040517f4225d1ed00000000000000000000000000000000000000000000000000000000815230600482015233602482015273ffffffffffffffffffffffffffffffffffffffff90911690634225d1ed90604401602060405180830381865afa1580156105c4573d6000803e3d6000fd5b505050506040513d601f19601f820116820180604052508101906105e89190611a5f565b6105f157600080fd5b63ffffffff88166000908152600460205260408120549083610614576000610617565b60025b6040805133602082015201604080517fffffffffffffffffffffffffffffffffffffffffffffffffffffffffffffffe08184030181529082905261066d92918c908c908b908d908c908b90600090602001611aa0565b604080517fffffffffffffffffffffffffffffffffffffffffffffffffffffffffffffffe0818403018152908290527fc51289b5000000000000000000000000000000000000000000000000000000008252915073ffffffffffffffffffffffffffffffffffffffff7f0000000000000000000000000000000000000000000000000000000000000000169063c51289b5906107129085908590600090600401611b94565b600060405180830381600087803b15801561072c57600080fd5b505af1158015610740573d6000803e3d6000fd5b5050505050505050505050505050565b6001546040517f4225d1ed00000000000000000000000000000000000000000000000000000000815230600482015233602482015273ffffffffffffffffffffffffffffffffffffffff90911690634225d1ed90604401602060405180830381865afa1580156107c4573d6000803e3d6000fd5b505050506040513d601f19601f820116820180604052508101906107e89190611a5f565b6107f157600080fd5b604080513360208201526000910160405160208183030381529060405261081790611bc7565b60009485526004602090815260408087205487526003825280872083885280835281882096885295825280872080547fffffffffffffffffffffffffffffffffffffffffffffffffffffffffffffff00908116961515968717909155958252808720928752919052909320805490921617905550565b36600061089d6060840184611952565b915091506000828260008181106108b6576108b66119be565b909101357fff00000000000000000000000000000000000000000000000000000000000000169150600090506108f06021600185876119ed565b8101906108fd91906118bc565b90507f010000000000000000000000000000000000000000000000000000000000000082166000036104b75773ffffffffffffffffffffffffffffffffffffffff811663ff27bd8b61045460a660a287896119ed565b6001546040517f4225d1ed00000000000000000000000000000000000000000000000000000000815230600482015233602482015273ffffffffffffffffffffffffffffffffffffffff90911690634225d1ed90604401602060405180830381865afa1580156109c7573d6000803e3d6000fd5b505050506040513d601f19601f820116820180604052508101906109eb9190611a5f565b6109f457600080fd5b63ffffffff8a166000908152600460209081526040808320549051909291610a229185918791839101611c0c565b6040516020818303038152906040529050600086610a41576000610a44565b60025b60408051336020820152016040516020818303038152906040528d8d8c8e8d8c89604051602001610a7d99989796959493929190611c4b565b604080517fffffffffffffffffffffffffffffffffffffffffffffffffffffffffffffffe0818403018152908290527fc51289b5000000000000000000000000000000000000000000000000000000008252915073ffffffffffffffffffffffffffffffffffffffff7f0000000000000000000000000000000000000000000000000000000000000000169063c51289b590610b229086908590600090600401611b94565b600060405180830381600087803b158015610b3c57600080fd5b505af1158015610b50573d6000803e3d6000fd5b5050505050505050505050505050505050565b60005473ffffffffffffffffffffffffffffffffffffffff163314610be4576040517f08c379a000000000000000000000000000000000000000000000000000000000815260206004820181905260248201527f4f776e61626c653a2063616c6c6572206973206e6f7420746865206f776e6572604482015260640161053b565b60009182526004602052604090912055565b6001546040517f4225d1ed00000000000000000000000000000000000000000000000000000000815230600482015233602482015260009173ffffffffffffffffffffffffffffffffffffffff1690634225d1ed90604401602060405180830381865afa158015610c6b573d6000803e3d6000fd5b505050506040513d601f19601f82011682018060405250810190610c8f9190611a5f565b610c9857600080fd5b6040517fffffffffffffffffffffffffffffffffffffffff0000000000000000000000003360601b166020820152600090603401604051602081830303815290604052610ce490611bc7565b600095865260036020908152604080882083895280835281892097895296825280882080549615157fffffffffffffffffffffffffffffffffffffffffffffffffffffffffffffff00978816811790915596825280882092885291905290942080549092169092179055506001919050565b366000610d666060840184611952565b91509150600082826000818110610d7f57610d7f6119be565b909101357fff0000000000000000000000000000000000000000000000000000000000000016915060009050610db96041602185876119ed565b810190610dc691906118bc565b90507f010000000000000000000000000000000000000000000000000000000000000082166000036110b557600084846081818110610e0757610e076119be565b919091013560f81c915060009050610e236061604187896119ed565b810190610e3091906118bc565b90506000610e4260816061888a6119ed565b610e4b91611d04565b90506000610e5d60a26082898b6119ed565b610e6691611d04565b90506000888860a6818110610e7d57610e7d6119be565b919091013560f81c9150508015610fd7576000610e9e60c760a78b8d6119ed565b810190610eab91906118bc565b905060008a60c78b610ebd8683611d41565b60ff1692610ecd939291906119ed565b8080601f016020809104026020016040519081016040528093929190818152602001838380828437600081840152601f19601f8201169050808301925050505050505090508773ffffffffffffffffffffffffffffffffffffffff16638df9f42d88888888600060f81b8f600260f81b167effffffffffffffffffffffffffffffffffffffffffffffffffffffffffffff19161188886040518863ffffffff1660e01b8152600401610f859796959493929190611d81565b6020604051808303816000875af1158015610fa4573d6000803e3d6000fd5b505050506040513d601f19601f82011682018060405250810190610fc89190611de4565b50505050505050505050505050565b6040517f4f489ec700000000000000000000000000000000000000000000000000000000815260ff8616600482015273ffffffffffffffffffffffffffffffffffffffff858116602483015260448201859052606482018490527f0200000000000000000000000000000000000000000000000000000000000000891615156084830152871690634f489ec79060a4016020604051808303816000875af1158015611086573d6000803e3d6000fd5b505050506040513d601f19601f820116820180604052508101906110aa9190611de4565b5050505050506104b7565b60006110c56061604186886119ed565b8101906110d291906118bc565b905060006110e46081606187896119ed565b6110ed91611d04565b6040517f79c63c3700000000000000000000000000000000000000000000000000000000815273ffffffffffffffffffffffffffffffffffffffff848116600483015260248201839052919250908416906379c63c37906044016020604051808303816000875af1158015611166573d6000803e3d6000fd5b505050506040513d601f19601f8201168201806040525081019061118a9190611de4565b5050505050505050565b60005473ffffffffffffffffffffffffffffffffffffffff163314611215576040517f08c379a000000000000000000000000000000000000000000000000000000000815260206004820181905260248201527f4f776e61626c653a2063616c6c6572206973206e6f7420746865206f776e6572604482015260640161053b565b7f000000000000000000000000000000000000000000000000000000000000000073ffffffffffffffffffffffffffffffffffffffff1663db5c5a1d6040518163ffffffff1660e01b8152600401600060405180830381600087803b15801561127d57600080fd5b505af1158015611291573d6000803e3d6000fd5b50505050565b6001546040517f4225d1ed00000000000000000000000000000000000000000000000000000000815230600482015233602482015273ffffffffffffffffffffffffffffffffffffffff90911690634225d1ed90604401602060405180830381865afa15801561130b573d6000803e3d6000fd5b505050506040513d601f19601f8201168201806040525081019061132f9190611a5f565b61133857600080fd5b6000858152600460209081526040808320548151338185015282518082039094018452808301835273ffffffffffffffffffffffffffffffffffffffff861660608083019190915283518083039091018152608082019093529093926113cb927f0100000000000000000000000000000000000000000000000000000000000000928a918a918a9190889060a001611dfd565b604080517fffffffffffffffffffffffffffffffffffffffffffffffffffffffffffffffe0818403018152908290527fc51289b5000000000000000000000000000000000000000000000000000000008252915073ffffffffffffffffffffffffffffffffffffffff7f0000000000000000000000000000000000000000000000000000000000000000169063c51289b5906114709085908590600090600401611b94565b600060405180830381600087803b15801561148a57600080fd5b505af115801561149e573d6000803e3d6000fd5b5050505050505050505050565b60005473ffffffffffffffffffffffffffffffffffffffff16331461152c576040517f08c379a000000000000000000000000000000000000000000000000000000000815260206004820181905260248201527f4f776e61626c653a2063616c6c6572206973206e6f7420746865206f776e6572604482015260640161053b565b73ffffffffffffffffffffffffffffffffffffffff81166115cf576040517f08c379a000000000000000000000000000000000000000000000000000000000815260206004820152602660248201527f4f776e61626c653a206e6577206f776e657220697320746865207a65726f206160448201527f6464726573730000000000000000000000000000000000000000000000000000606482015260840161053b565b6115d8816115db565b50565b6000805473ffffffffffffffffffffffffffffffffffffffff8381167fffffffffffffffffffffffff0000000000000000000000000000000000000000831681178455604051919092169283917f8be0079c531659141344cd1fd0a4f28419497f9722a3daafe3b4186f6b6457e09190a35050565b60006020828403121561166257600080fd5b813567ffffffffffffffff81111561167957600080fd5b820160c0818503121561168b57600080fd5b9392505050565b6000602082840312156116a457600080fd5b5035919050565b803563ffffffff811681146116bf57600080fd5b919050565b803560ff811681146116bf57600080fd5b80151581146115d857600080fd5b600080600080600080600080610100898b03121561170057600080fd5b611709896116ab565b9750602089013596506040890135955061172560608a016116c4565b94506080890135935060a0890135925060c0890135611743816116d5565b915061175160e08a016116ab565b90509295985092959890939650565b60008060006060848603121561177557600080fd5b8335925060208401359150604084013561178e816116d5565b809150509250925092565b6000806000806000806000806000806101208b8d0312156117b957600080fd5b6117c28b6116ab565b995060208b0135985060408b013597506117de60608c016116c4565b965060808b0135955060a08b0135945060c08b01356117fc816116d5565b935061180a60e08c016116ab565b92506101008b013567ffffffffffffffff8082111561182857600080fd5b818d0191508d601f83011261183c57600080fd5b81358181111561184b57600080fd5b8e602082850101111561185d57600080fd5b6020830194508093505050509295989b9194979a5092959850565b6000806040838503121561188b57600080fd5b50508035926020909101359150565b73ffffffffffffffffffffffffffffffffffffffff811681146115d857600080fd5b6000602082840312156118ce57600080fd5b813561168b8161189a565b600080600080600060a086880312156118f157600080fd5b8535945060208601359350604086013592506060860135915060808601356119188161189a565b809150509295509295909350565b60008060006060848603121561193b57600080fd5b505081359360208301359350604090920135919050565b60008083357fffffffffffffffffffffffffffffffffffffffffffffffffffffffffffffffe184360301811261198757600080fd5b83018035915067ffffffffffffffff8211156119a257600080fd5b6020019150368190038213156119b757600080fd5b9250929050565b7f4e487b7100000000000000000000000000000000000000000000000000000000600052603260045260246000fd5b600080858511156119fd57600080fd5b83861115611a0a57600080fd5b5050820193919092039150565b7fffffffff000000000000000000000000000000000000000000000000000000008135818116916004851015611a575780818660040360031b1b83161692505b505092915050565b600060208284031215611a7157600080fd5b815161168b816116d5565b60005b83811015611a97578181015183820152602001611a7f565b50506000910152565b60007fff00000000000000000000000000000000000000000000000000000000000000808c60f81b1683528a51611ade816001860160208f01611a7c565b6001930192830199909952506021810196909652604186019490945260f892831b86166061860152606285019190915260e01b7fffffffff000000000000000000000000000000000000000000000000000000001660828401521b909116608682015260870192915050565b60008151808452611b62816020860160208601611a7c565b601f017fffffffffffffffffffffffffffffffffffffffffffffffffffffffffffffffe0169290920160200192915050565b838152606060208201526000611bad6060830185611b4a565b905067ffffffffffffffff83166040830152949350505050565b80516020808301519190811015611c06577fffffffffffffffffffffffffffffffffffffffffffffffffffffffffffffffff8160200360031b1b821691505b50919050565b7fff000000000000000000000000000000000000000000000000000000000000008460f81b168152818360018301376000910160010190815292915050565b60007fff00000000000000000000000000000000000000000000000000000000000000808c60f81b1683528a51611c89816001860160208f01611a7c565b80840190508a6001820152896021820152886041820152818860f81b1660618201528660628201527fffffffff000000000000000000000000000000000000000000000000000000008660e01b16608282015284519150611cf1826086830160208801611a7c565b016086019b9a5050505050505050505050565b80356020831015611d3b577fffffffffffffffffffffffffffffffffffffffffffffffffffffffffffffffff602084900360031b1b165b92915050565b60ff8181168382160190811115611d3b577f4e487b7100000000000000000000000000000000000000000000000000000000600052601160045260246000fd5b60ff88168152600073ffffffffffffffffffffffffffffffffffffffff8089166020840152876040840152866060840152851515608084015280851660a08401525060e060c0830152611dd760e0830184611b4a565b9998505050505050505050565b600060208284031215611df657600080fd5b5051919050565b60007fff00000000000000000000000000000000000000000000000000000000000000808a1683528851611e38816001860160208d01611a7c565b80840190508860018201528760218201528660418201528551611e62816061840160208a01611a7c565b808201915050818560f81b16606182015260628101925050509897505050505050505056fea26469706673582212202f80e7a4b9c0bf082260805a1908e9d0780870931233ae40e040ac9c899b10be64736f6c63430008110033",
  "bytecodeSha1": "f7d84077780752c1ca44ffb2151a6f6305798bd3",
  "compiler": {
    "evm_version": "istanbul",
    "optimizer": {
      "enabled": true,
      "runs": 251251
    },
    "version": "0.8.17+commit.8df45f5f"
  },
  "contractName": "CatalystIBCInterface",
  "language": "Solidity",
  "natspec": {
    "kind": "dev",
    "methods": {
      "owner()": {
        "details": "Returns the address of the current owner."
      },
      "renounceOwnership()": {
        "details": "Leaves the contract without owner. It will not be possible to call `onlyOwner` functions anymore. Can only be called by the current owner. NOTE: Renouncing ownership will leave the contract without an owner, thereby removing any functionality that is only available to the owner."
      },
      "transferOwnership(address)": {
        "details": "Transfers ownership of the contract to a new account (`newOwner`). Can only be called by the current owner."
      }
    },
    "notice": "Context Flag      2^0: Asset (0) or Liquidity swap (1)        1: Non-approximate (0) or approximate (1)        2: Unused        3: Unused        .        .        7: Unused",
    "version": 1
  },
  "opcodes": "PUSH1 0x80 PUSH1 0x40 MSTORE CALLVALUE DUP1 ISZERO PUSH2 0x10 JUMPI PUSH1 0x0 DUP1 REVERT JUMPDEST POP PUSH1 0x4 CALLDATASIZE LT PUSH2 0x16C JUMPI PUSH1 0x0 CALLDATALOAD PUSH1 0xE0 SHR DUP1 PUSH4 0xBC62C050 GT PUSH2 0xCD JUMPI DUP1 PUSH4 0xDF8203D6 GT PUSH2 0x81 JUMPI DUP1 PUSH4 0xE55770F8 GT PUSH2 0x66 JUMPI DUP1 PUSH4 0xE55770F8 EQ PUSH2 0x334 JUMPI DUP1 PUSH4 0xEED9DDB3 EQ PUSH2 0x347 JUMPI DUP1 PUSH4 0xF2FDE38B EQ PUSH2 0x37B JUMPI PUSH1 0x0 DUP1 REVERT JUMPDEST DUP1 PUSH4 0xDF8203D6 EQ PUSH2 0x2F1 JUMPI DUP1 PUSH4 0xE17FF485 EQ PUSH2 0x314 JUMPI PUSH1 0x0 DUP1 REVERT JUMPDEST DUP1 PUSH4 0xCF1370EA GT PUSH2 0xB2 JUMPI DUP1 PUSH4 0xCF1370EA EQ PUSH2 0x2AF JUMPI DUP1 PUSH4 0xDA20DFFD EQ PUSH2 0x2C2 JUMPI DUP1 PUSH4 0xDB5C5A1D EQ PUSH2 0x2E9 JUMPI PUSH1 0x0 DUP1 REVERT JUMPDEST DUP1 PUSH4 0xBC62C050 EQ PUSH2 0x279 JUMPI DUP1 PUSH4 0xCEC8A395 EQ PUSH2 0x28C JUMPI PUSH1 0x0 DUP1 REVERT JUMPDEST DUP1 PUSH4 0x8DA5CB5B GT PUSH2 0x124 JUMPI DUP1 PUSH4 0x92A9BDB3 GT PUSH2 0x109 JUMPI DUP1 PUSH4 0x92A9BDB3 EQ PUSH2 0x240 JUMPI DUP1 PUSH4 0xAC2446BD EQ PUSH2 0x253 JUMPI DUP1 PUSH4 0xBA71471E EQ PUSH2 0x266 JUMPI PUSH1 0x0 DUP1 REVERT JUMPDEST DUP1 PUSH4 0x8DA5CB5B EQ PUSH2 0x20F JUMPI DUP1 PUSH4 0x8E133A86 EQ PUSH2 0x22D JUMPI PUSH1 0x0 DUP1 REVERT JUMPDEST DUP1 PUSH4 0x45050A7D GT PUSH2 0x155 JUMPI DUP1 PUSH4 0x45050A7D EQ PUSH2 0x1D2 JUMPI DUP1 PUSH4 0x715018A6 EQ PUSH2 0x1E7 JUMPI DUP1 PUSH4 0x745DF29D EQ PUSH2 0x1EF JUMPI PUSH1 0x0 DUP1 REVERT JUMPDEST DUP1 PUSH4 0x19E43350 EQ PUSH2 0x171 JUMPI DUP1 PUSH4 0x3AF973B1 EQ PUSH2 0x1C2 JUMPI JUMPDEST PUSH1 0x0 DUP1 REVERT JUMPDEST PUSH2 0x198 PUSH32 0x0 DUP2 JUMP JUMPDEST PUSH1 0x40 MLOAD PUSH20 0xFFFFFFFFFFFFFFFFFFFFFFFFFFFFFFFFFFFFFFFF SWAP1 SWAP2 AND DUP2 MSTORE PUSH1 0x20 ADD JUMPDEST PUSH1 0x40 MLOAD DUP1 SWAP2 SUB SWAP1 RETURN JUMPDEST CHAINID JUMPDEST PUSH1 0x40 MLOAD SWAP1 DUP2 MSTORE PUSH1 0x20 ADD PUSH2 0x1B9 JUMP JUMPDEST PUSH2 0x1E5 PUSH2 0x1E0 CALLDATASIZE PUSH1 0x4 PUSH2 0x1650 JUMP JUMPDEST PUSH2 0x38E JUMP JUMPDEST STOP JUMPDEST PUSH2 0x1E5 PUSH2 0x4BE JUMP JUMPDEST PUSH2 0x1C4 PUSH2 0x1FD CALLDATASIZE PUSH1 0x4 PUSH2 0x1692 JUMP JUMPDEST PUSH1 0x4 PUSH1 0x20 MSTORE PUSH1 0x0 SWAP1 DUP2 MSTORE PUSH1 0x40 SWAP1 KECCAK256 SLOAD DUP2 JUMP JUMPDEST PUSH1 0x0 SLOAD PUSH20 0xFFFFFFFFFFFFFFFFFFFFFFFFFFFFFFFFFFFFFFFF AND PUSH2 0x198 JUMP JUMPDEST PUSH2 0x1E5 PUSH2 0x23B CALLDATASIZE PUSH1 0x4 PUSH2 0x16E3 JUMP JUMPDEST PUSH2 0x550 JUMP JUMPDEST PUSH2 0x1E5 PUSH2 0x24E CALLDATASIZE PUSH1 0x4 PUSH2 0x1760 JUMP JUMPDEST PUSH2 0x750 JUMP JUMPDEST PUSH2 0x1E5 PUSH2 0x261 CALLDATASIZE PUSH1 0x4 PUSH2 0x1650 JUMP JUMPDEST PUSH2 0x88D JUMP JUMPDEST PUSH2 0x1E5 PUSH2 0x274 CALLDATASIZE PUSH1 0x4 PUSH2 0x1799 JUMP JUMPDEST PUSH2 0x953 JUMP JUMPDEST PUSH2 0x1E5 PUSH2 0x287 CALLDATASIZE PUSH1 0x4 PUSH2 0x1878 JUMP JUMPDEST PUSH2 0xB63 JUMP JUMPDEST PUSH2 0x29F PUSH2 0x29A CALLDATASIZE PUSH1 0x4 PUSH2 0x1760 JUMP JUMPDEST PUSH2 0xBF6 JUMP JUMPDEST PUSH1 0x40 MLOAD SWAP1 ISZERO ISZERO DUP2 MSTORE PUSH1 0x20 ADD PUSH2 0x1B9 JUMP JUMPDEST PUSH2 0x1E5 PUSH2 0x2BD CALLDATASIZE PUSH1 0x4 PUSH2 0x1650 JUMP JUMPDEST PUSH2 0xD56 JUMP JUMPDEST PUSH2 0x198 PUSH32 0x0 DUP2 JUMP JUMPDEST PUSH2 0x1E5 PUSH2 0x1194 JUMP JUMPDEST PUSH2 0x29F PUSH2 0x2FF CALLDATASIZE PUSH1 0x4 PUSH2 0x18BC JUMP JUMPDEST PUSH1 0x2 PUSH1 0x20 MSTORE PUSH1 0x0 SWAP1 DUP2 MSTORE PUSH1 0x40 SWAP1 KECCAK256 SLOAD PUSH1 0xFF AND DUP2 JUMP JUMPDEST PUSH1 0x1 SLOAD PUSH2 0x198 SWAP1 PUSH20 0xFFFFFFFFFFFFFFFFFFFFFFFFFFFFFFFFFFFFFFFF AND DUP2 JUMP JUMPDEST PUSH2 0x1E5 PUSH2 0x342 CALLDATASIZE PUSH1 0x4 PUSH2 0x18D9 JUMP JUMPDEST PUSH2 0x1297 JUMP JUMPDEST PUSH2 0x29F PUSH2 0x355 CALLDATASIZE PUSH1 0x4 PUSH2 0x1926 JUMP JUMPDEST PUSH1 0x3 PUSH1 0x20 SWAP1 DUP2 MSTORE PUSH1 0x0 SWAP4 DUP5 MSTORE PUSH1 0x40 DUP1 DUP6 KECCAK256 DUP3 MSTORE SWAP3 DUP5 MSTORE DUP3 DUP5 KECCAK256 SWAP1 MSTORE DUP3 MSTORE SWAP1 KECCAK256 SLOAD PUSH1 0xFF AND DUP2 JUMP JUMPDEST PUSH2 0x1E5 PUSH2 0x389 CALLDATASIZE PUSH1 0x4 PUSH2 0x18BC JUMP JUMPDEST PUSH2 0x14AB JUMP JUMPDEST CALLDATASIZE PUSH1 0x0 PUSH2 0x39E PUSH1 0x60 DUP5 ADD DUP5 PUSH2 0x1952 JUMP JUMPDEST SWAP2 POP SWAP2 POP PUSH1 0x0 DUP3 DUP3 PUSH1 0x0 DUP2 DUP2 LT PUSH2 0x3B7 JUMPI PUSH2 0x3B7 PUSH2 0x19BE JUMP JUMPDEST SWAP1 SWAP2 ADD CALLDATALOAD PUSH32 0xFF00000000000000000000000000000000000000000000000000000000000000 AND SWAP2 POP PUSH1 0x0 SWAP1 POP PUSH2 0x3F1 PUSH1 0x21 PUSH1 0x1 DUP6 DUP8 PUSH2 0x19ED JUMP JUMPDEST DUP2 ADD SWAP1 PUSH2 0x3FE SWAP2 SWAP1 PUSH2 0x18BC JUMP JUMPDEST SWAP1 POP PUSH32 0x100000000000000000000000000000000000000000000000000000000000000 DUP3 AND PUSH1 0x0 SUB PUSH2 0x4B7 JUMPI PUSH20 0xFFFFFFFFFFFFFFFFFFFFFFFFFFFFFFFFFFFFFFFF DUP2 AND PUSH4 0xACD3FAC0 PUSH2 0x454 PUSH1 0xA6 PUSH1 0xA2 DUP8 DUP10 PUSH2 0x19ED JUMP JUMPDEST PUSH2 0x45D SWAP2 PUSH2 0x1A17 JUMP JUMPDEST PUSH1 0xE0 SHR PUSH4 0xFFFFFFFF AND PUSH1 0x40 MLOAD DUP3 PUSH4 0xFFFFFFFF AND PUSH1 0xE0 SHL DUP2 MSTORE PUSH1 0x4 ADD PUSH2 0x484 SWAP2 DUP2 MSTORE PUSH1 0x20 ADD SWAP1 JUMP JUMPDEST PUSH1 0x0 PUSH1 0x40 MLOAD DUP1 DUP4 SUB DUP2 PUSH1 0x0 DUP8 DUP1 EXTCODESIZE ISZERO DUP1 ISZERO PUSH2 0x49E JUMPI PUSH1 0x0 DUP1 REVERT JUMPDEST POP GAS CALL ISZERO DUP1 ISZERO PUSH2 0x4B2 JUMPI RETURNDATASIZE PUSH1 0x0 DUP1 RETURNDATACOPY RETURNDATASIZE PUSH1 0x0 REVERT JUMPDEST POP POP POP POP JUMPDEST POP POP POP POP POP JUMP JUMPDEST PUSH1 0x0 SLOAD PUSH20 0xFFFFFFFFFFFFFFFFFFFFFFFFFFFFFFFFFFFFFFFF AND CALLER EQ PUSH2 0x544 JUMPI PUSH1 0x40 MLOAD PUSH32 0x8C379A000000000000000000000000000000000000000000000000000000000 DUP2 MSTORE PUSH1 0x20 PUSH1 0x4 DUP3 ADD DUP2 SWAP1 MSTORE PUSH1 0x24 DUP3 ADD MSTORE PUSH32 0x4F776E61626C653A2063616C6C6572206973206E6F7420746865206F776E6572 PUSH1 0x44 DUP3 ADD MSTORE PUSH1 0x64 ADD JUMPDEST PUSH1 0x40 MLOAD DUP1 SWAP2 SUB SWAP1 REVERT JUMPDEST PUSH2 0x54E PUSH1 0x0 PUSH2 0x15DB JUMP JUMPDEST JUMP JUMPDEST PUSH1 0x1 SLOAD PUSH1 0x40 MLOAD PUSH32 0x4225D1ED00000000000000000000000000000000000000000000000000000000 DUP2 MSTORE ADDRESS PUSH1 0x4 DUP3 ADD MSTORE CALLER PUSH1 0x24 DUP3 ADD MSTORE PUSH20 0xFFFFFFFFFFFFFFFFFFFFFFFFFFFFFFFFFFFFFFFF SWAP1 SWAP2 AND SWAP1 PUSH4 0x4225D1ED SWAP1 PUSH1 0x44 ADD PUSH1 0x20 PUSH1 0x40 MLOAD DUP1 DUP4 SUB DUP2 DUP7 GAS STATICCALL ISZERO DUP1 ISZERO PUSH2 0x5C4 JUMPI RETURNDATASIZE PUSH1 0x0 DUP1 RETURNDATACOPY RETURNDATASIZE PUSH1 0x0 REVERT JUMPDEST POP POP POP POP PUSH1 0x40 MLOAD RETURNDATASIZE PUSH1 0x1F NOT PUSH1 0x1F DUP3 ADD AND DUP3 ADD DUP1 PUSH1 0x40 MSTORE POP DUP2 ADD SWAP1 PUSH2 0x5E8 SWAP2 SWAP1 PUSH2 0x1A5F JUMP JUMPDEST PUSH2 0x5F1 JUMPI PUSH1 0x0 DUP1 REVERT JUMPDEST PUSH4 0xFFFFFFFF DUP9 AND PUSH1 0x0 SWAP1 DUP2 MSTORE PUSH1 0x4 PUSH1 0x20 MSTORE PUSH1 0x40 DUP2 KECCAK256 SLOAD SWAP1 DUP4 PUSH2 0x614 JUMPI PUSH1 0x0 PUSH2 0x617 JUMP JUMPDEST PUSH1 0x2 JUMPDEST PUSH1 0x40 DUP1 MLOAD CALLER PUSH1 0x20 DUP3 ADD MSTORE ADD PUSH1 0x40 DUP1 MLOAD PUSH32 0xFFFFFFFFFFFFFFFFFFFFFFFFFFFFFFFFFFFFFFFFFFFFFFFFFFFFFFFFFFFFFFE0 DUP2 DUP5 SUB ADD DUP2 MSTORE SWAP1 DUP3 SWAP1 MSTORE PUSH2 0x66D SWAP3 SWAP2 DUP13 SWAP1 DUP13 SWAP1 DUP12 SWAP1 DUP14 SWAP1 DUP13 SWAP1 DUP12 SWAP1 PUSH1 0x0 SWAP1 PUSH1 0x20 ADD PUSH2 0x1AA0 JUMP JUMPDEST PUSH1 0x40 DUP1 MLOAD PUSH32 0xFFFFFFFFFFFFFFFFFFFFFFFFFFFFFFFFFFFFFFFFFFFFFFFFFFFFFFFFFFFFFFE0 DUP2 DUP5 SUB ADD DUP2 MSTORE SWAP1 DUP3 SWAP1 MSTORE PUSH32 0xC51289B500000000000000000000000000000000000000000000000000000000 DUP3 MSTORE SWAP2 POP PUSH20 0xFFFFFFFFFFFFFFFFFFFFFFFFFFFFFFFFFFFFFFFF PUSH32 0x0 AND SWAP1 PUSH4 0xC51289B5 SWAP1 PUSH2 0x712 SWAP1 DUP6 SWAP1 DUP6 SWAP1 PUSH1 0x0 SWAP1 PUSH1 0x4 ADD PUSH2 0x1B94 JUMP JUMPDEST PUSH1 0x0 PUSH1 0x40 MLOAD DUP1 DUP4 SUB DUP2 PUSH1 0x0 DUP8 DUP1 EXTCODESIZE ISZERO DUP1 ISZERO PUSH2 0x72C JUMPI PUSH1 0x0 DUP1 REVERT JUMPDEST POP GAS CALL ISZERO DUP1 ISZERO PUSH2 0x740 JUMPI RETURNDATASIZE PUSH1 0x0 DUP1 RETURNDATACOPY RETURNDATASIZE PUSH1 0x0 REVERT JUMPDEST POP POP POP POP POP POP POP POP POP POP POP POP POP POP JUMP JUMPDEST PUSH1 0x1 SLOAD PUSH1 0x40 MLOAD PUSH32 0x4225D1ED00000000000000000000000000000000000000000000000000000000 DUP2 MSTORE ADDRESS PUSH1 0x4 DUP3 ADD MSTORE CALLER PUSH1 0x24 DUP3 ADD MSTORE PUSH20 0xFFFFFFFFFFFFFFFFFFFFFFFFFFFFFFFFFFFFFFFF SWAP1 SWAP2 AND SWAP1 PUSH4 0x4225D1ED SWAP1 PUSH1 0x44 ADD PUSH1 0x20 PUSH1 0x40 MLOAD DUP1 DUP4 SUB DUP2 DUP7 GAS STATICCALL ISZERO DUP1 ISZERO PUSH2 0x7C4 JUMPI RETURNDATASIZE PUSH1 0x0 DUP1 RETURNDATACOPY RETURNDATASIZE PUSH1 0x0 REVERT JUMPDEST POP POP POP POP PUSH1 0x40 MLOAD RETURNDATASIZE PUSH1 0x1F NOT PUSH1 0x1F DUP3 ADD AND DUP3 ADD DUP1 PUSH1 0x40 MSTORE POP DUP2 ADD SWAP1 PUSH2 0x7E8 SWAP2 SWAP1 PUSH2 0x1A5F JUMP JUMPDEST PUSH2 0x7F1 JUMPI PUSH1 0x0 DUP1 REVERT JUMPDEST PUSH1 0x40 DUP1 MLOAD CALLER PUSH1 0x20 DUP3 ADD MSTORE PUSH1 0x0 SWAP2 ADD PUSH1 0x40 MLOAD PUSH1 0x20 DUP2 DUP4 SUB SUB DUP2 MSTORE SWAP1 PUSH1 0x40 MSTORE PUSH2 0x817 SWAP1 PUSH2 0x1BC7 JUMP JUMPDEST PUSH1 0x0 SWAP5 DUP6 MSTORE PUSH1 0x4 PUSH1 0x20 SWAP1 DUP2 MSTORE PUSH1 0x40 DUP1 DUP8 KECCAK256 SLOAD DUP8 MSTORE PUSH1 0x3 DUP3 MSTORE DUP1 DUP8 KECCAK256 DUP4 DUP9 MSTORE DUP1 DUP4 MSTORE DUP2 DUP9 KECCAK256 SWAP7 DUP9 MSTORE SWAP6 DUP3 MSTORE DUP1 DUP8 KECCAK256 DUP1 SLOAD PUSH32 0xFFFFFFFFFFFFFFFFFFFFFFFFFFFFFFFFFFFFFFFFFFFFFFFFFFFFFFFFFFFFFF00 SWAP1 DUP2 AND SWAP7 ISZERO ISZERO SWAP7 DUP8 OR SWAP1 SWAP2 SSTORE SWAP6 DUP3 MSTORE DUP1 DUP8 KECCAK256 SWAP3 DUP8 MSTORE SWAP2 SWAP1 MSTORE SWAP1 SWAP4 KECCAK256 DUP1 SLOAD SWAP1 SWAP3 AND OR SWAP1 SSTORE POP JUMP JUMPDEST CALLDATASIZE PUSH1 0x0 PUSH2 0x89D PUSH1 0x60 DUP5 ADD DUP5 PUSH2 0x1952 JUMP JUMPDEST SWAP2 POP SWAP2 POP PUSH1 0x0 DUP3 DUP3 PUSH1 0x0 DUP2 DUP2 LT PUSH2 0x8B6 JUMPI PUSH2 0x8B6 PUSH2 0x19BE JUMP JUMPDEST SWAP1 SWAP2 ADD CALLDATALOAD PUSH32 0xFF00000000000000000000000000000000000000000000000000000000000000 AND SWAP2 POP PUSH1 0x0 SWAP1 POP PUSH2 0x8F0 PUSH1 0x21 PUSH1 0x1 DUP6 DUP8 PUSH2 0x19ED JUMP JUMPDEST DUP2 ADD SWAP1 PUSH2 0x8FD SWAP2 SWAP1 PUSH2 0x18BC JUMP JUMPDEST SWAP1 POP PUSH32 0x100000000000000000000000000000000000000000000000000000000000000 DUP3 AND PUSH1 0x0 SUB PUSH2 0x4B7 JUMPI PUSH20 0xFFFFFFFFFFFFFFFFFFFFFFFFFFFFFFFFFFFFFFFF DUP2 AND PUSH4 0xFF27BD8B PUSH2 0x454 PUSH1 0xA6 PUSH1 0xA2 DUP8 DUP10 PUSH2 0x19ED JUMP JUMPDEST PUSH1 0x1 SLOAD PUSH1 0x40 MLOAD PUSH32 0x4225D1ED00000000000000000000000000000000000000000000000000000000 DUP2 MSTORE ADDRESS PUSH1 0x4 DUP3 ADD MSTORE CALLER PUSH1 0x24 DUP3 ADD MSTORE PUSH20 0xFFFFFFFFFFFFFFFFFFFFFFFFFFFFFFFFFFFFFFFF SWAP1 SWAP2 AND SWAP1 PUSH4 0x4225D1ED SWAP1 PUSH1 0x44 ADD PUSH1 0x20 PUSH1 0x40 MLOAD DUP1 DUP4 SUB DUP2 DUP7 GAS STATICCALL ISZERO DUP1 ISZERO PUSH2 0x9C7 JUMPI RETURNDATASIZE PUSH1 0x0 DUP1 RETURNDATACOPY RETURNDATASIZE PUSH1 0x0 REVERT JUMPDEST POP POP POP POP PUSH1 0x40 MLOAD RETURNDATASIZE PUSH1 0x1F NOT PUSH1 0x1F DUP3 ADD AND DUP3 ADD DUP1 PUSH1 0x40 MSTORE POP DUP2 ADD SWAP1 PUSH2 0x9EB SWAP2 SWAP1 PUSH2 0x1A5F JUMP JUMPDEST PUSH2 0x9F4 JUMPI PUSH1 0x0 DUP1 REVERT JUMPDEST PUSH4 0xFFFFFFFF DUP11 AND PUSH1 0x0 SWAP1 DUP2 MSTORE PUSH1 0x4 PUSH1 0x20 SWAP1 DUP2 MSTORE PUSH1 0x40 DUP1 DUP4 KECCAK256 SLOAD SWAP1 MLOAD SWAP1 SWAP3 SWAP2 PUSH2 0xA22 SWAP2 DUP6 SWAP2 DUP8 SWAP2 DUP4 SWAP2 ADD PUSH2 0x1C0C JUMP JUMPDEST PUSH1 0x40 MLOAD PUSH1 0x20 DUP2 DUP4 SUB SUB DUP2 MSTORE SWAP1 PUSH1 0x40 MSTORE SWAP1 POP PUSH1 0x0 DUP7 PUSH2 0xA41 JUMPI PUSH1 0x0 PUSH2 0xA44 JUMP JUMPDEST PUSH1 0x2 JUMPDEST PUSH1 0x40 DUP1 MLOAD CALLER PUSH1 0x20 DUP3 ADD MSTORE ADD PUSH1 0x40 MLOAD PUSH1 0x20 DUP2 DUP4 SUB SUB DUP2 MSTORE SWAP1 PUSH1 0x40 MSTORE DUP14 DUP14 DUP13 DUP15 DUP14 DUP13 DUP10 PUSH1 0x40 MLOAD PUSH1 0x20 ADD PUSH2 0xA7D SWAP10 SWAP9 SWAP8 SWAP7 SWAP6 SWAP5 SWAP4 SWAP3 SWAP2 SWAP1 PUSH2 0x1C4B JUMP JUMPDEST PUSH1 0x40 DUP1 MLOAD PUSH32 0xFFFFFFFFFFFFFFFFFFFFFFFFFFFFFFFFFFFFFFFFFFFFFFFFFFFFFFFFFFFFFFE0 DUP2 DUP5 SUB ADD DUP2 MSTORE SWAP1 DUP3 SWAP1 MSTORE PUSH32 0xC51289B500000000000000000000000000000000000000000000000000000000 DUP3 MSTORE SWAP2 POP PUSH20 0xFFFFFFFFFFFFFFFFFFFFFFFFFFFFFFFFFFFFFFFF PUSH32 0x0 AND SWAP1 PUSH4 0xC51289B5 SWAP1 PUSH2 0xB22 SWAP1 DUP7 SWAP1 DUP6 SWAP1 PUSH1 0x0 SWAP1 PUSH1 0x4 ADD PUSH2 0x1B94 JUMP JUMPDEST PUSH1 0x0 PUSH1 0x40 MLOAD DUP1 DUP4 SUB DUP2 PUSH1 0x0 DUP8 DUP1 EXTCODESIZE ISZERO DUP1 ISZERO PUSH2 0xB3C JUMPI PUSH1 0x0 DUP1 REVERT JUMPDEST POP GAS CALL ISZERO DUP1 ISZERO PUSH2 0xB50 JUMPI RETURNDATASIZE PUSH1 0x0 DUP1 RETURNDATACOPY RETURNDATASIZE PUSH1 0x0 REVERT JUMPDEST POP POP POP POP POP POP POP POP POP POP POP POP POP POP POP POP POP JUMP JUMPDEST PUSH1 0x0 SLOAD PUSH20 0xFFFFFFFFFFFFFFFFFFFFFFFFFFFFFFFFFFFFFFFF AND CALLER EQ PUSH2 0xBE4 JUMPI PUSH1 0x40 MLOAD PUSH32 0x8C379A000000000000000000000000000000000000000000000000000000000 DUP2 MSTORE PUSH1 0x20 PUSH1 0x4 DUP3 ADD DUP2 SWAP1 MSTORE PUSH1 0x24 DUP3 ADD MSTORE PUSH32 0x4F776E61626C653A2063616C6C6572206973206E6F7420746865206F776E6572 PUSH1 0x44 DUP3 ADD MSTORE PUSH1 0x64 ADD PUSH2 0x53B JUMP JUMPDEST PUSH1 0x0 SWAP2 DUP3 MSTORE PUSH1 0x4 PUSH1 0x20 MSTORE PUSH1 0x40 SWAP1 SWAP2 KECCAK256 SSTORE JUMP JUMPDEST PUSH1 0x1 SLOAD PUSH1 0x40 MLOAD PUSH32 0x4225D1ED00000000000000000000000000000000000000000000000000000000 DUP2 MSTORE ADDRESS PUSH1 0x4 DUP3 ADD MSTORE CALLER PUSH1 0x24 DUP3 ADD MSTORE PUSH1 0x0 SWAP2 PUSH20 0xFFFFFFFFFFFFFFFFFFFFFFFFFFFFFFFFFFFFFFFF AND SWAP1 PUSH4 0x4225D1ED SWAP1 PUSH1 0x44 ADD PUSH1 0x20 PUSH1 0x40 MLOAD DUP1 DUP4 SUB DUP2 DUP7 GAS STATICCALL ISZERO DUP1 ISZERO PUSH2 0xC6B JUMPI RETURNDATASIZE PUSH1 0x0 DUP1 RETURNDATACOPY RETURNDATASIZE PUSH1 0x0 REVERT JUMPDEST POP POP POP POP PUSH1 0x40 MLOAD RETURNDATASIZE PUSH1 0x1F NOT PUSH1 0x1F DUP3 ADD AND DUP3 ADD DUP1 PUSH1 0x40 MSTORE POP DUP2 ADD SWAP1 PUSH2 0xC8F SWAP2 SWAP1 PUSH2 0x1A5F JUMP JUMPDEST PUSH2 0xC98 JUMPI PUSH1 0x0 DUP1 REVERT JUMPDEST PUSH1 0x40 MLOAD PUSH32 0xFFFFFFFFFFFFFFFFFFFFFFFFFFFFFFFFFFFFFFFF000000000000000000000000 CALLER PUSH1 0x60 SHL AND PUSH1 0x20 DUP3 ADD MSTORE PUSH1 0x0 SWAP1 PUSH1 0x34 ADD PUSH1 0x40 MLOAD PUSH1 0x20 DUP2 DUP4 SUB SUB DUP2 MSTORE SWAP1 PUSH1 0x40 MSTORE PUSH2 0xCE4 SWAP1 PUSH2 0x1BC7 JUMP JUMPDEST PUSH1 0x0 SWAP6 DUP7 MSTORE PUSH1 0x3 PUSH1 0x20 SWAP1 DUP2 MSTORE PUSH1 0x40 DUP1 DUP9 KECCAK256 DUP4 DUP10 MSTORE DUP1 DUP4 MSTORE DUP2 DUP10 KECCAK256 SWAP8 DUP10 MSTORE SWAP7 DUP3 MSTORE DUP1 DUP9 KECCAK256 DUP1 SLOAD SWAP7 ISZERO ISZERO PUSH32 0xFFFFFFFFFFFFFFFFFFFFFFFFFFFFFFFFFFFFFFFFFFFFFFFFFFFFFFFFFFFFFF00 SWAP8 DUP9 AND DUP2 OR SWAP1 SWAP2 SSTORE SWAP7 DUP3 MSTORE DUP1 DUP9 KECCAK256 SWAP3 DUP9 MSTORE SWAP2 SWAP1 MSTORE SWAP1 SWAP5 KECCAK256 DUP1 SLOAD SWAP1 SWAP3 AND SWAP1 SWAP3 OR SWAP1 SSTORE POP PUSH1 0x1 SWAP2 SWAP1 POP JUMP JUMPDEST CALLDATASIZE PUSH1 0x0 PUSH2 0xD66 PUSH1 0x60 DUP5 ADD DUP5 PUSH2 0x1952 JUMP JUMPDEST SWAP2 POP SWAP2 POP PUSH1 0x0 DUP3 DUP3 PUSH1 0x0 DUP2 DUP2 LT PUSH2 0xD7F JUMPI PUSH2 0xD7F PUSH2 0x19BE JUMP JUMPDEST SWAP1 SWAP2 ADD CALLDATALOAD PUSH32 0xFF00000000000000000000000000000000000000000000000000000000000000 AND SWAP2 POP PUSH1 0x0 SWAP1 POP PUSH2 0xDB9 PUSH1 0x41 PUSH1 0x21 DUP6 DUP8 PUSH2 0x19ED JUMP JUMPDEST DUP2 ADD SWAP1 PUSH2 0xDC6 SWAP2 SWAP1 PUSH2 0x18BC JUMP JUMPDEST SWAP1 POP PUSH32 0x100000000000000000000000000000000000000000000000000000000000000 DUP3 AND PUSH1 0x0 SUB PUSH2 0x10B5 JUMPI PUSH1 0x0 DUP5 DUP5 PUSH1 0x81 DUP2 DUP2 LT PUSH2 0xE07 JUMPI PUSH2 0xE07 PUSH2 0x19BE JUMP JUMPDEST SWAP2 SWAP1 SWAP2 ADD CALLDATALOAD PUSH1 0xF8 SHR SWAP2 POP PUSH1 0x0 SWAP1 POP PUSH2 0xE23 PUSH1 0x61 PUSH1 0x41 DUP8 DUP10 PUSH2 0x19ED JUMP JUMPDEST DUP2 ADD SWAP1 PUSH2 0xE30 SWAP2 SWAP1 PUSH2 0x18BC JUMP JUMPDEST SWAP1 POP PUSH1 0x0 PUSH2 0xE42 PUSH1 0x81 PUSH1 0x61 DUP9 DUP11 PUSH2 0x19ED JUMP JUMPDEST PUSH2 0xE4B SWAP2 PUSH2 0x1D04 JUMP JUMPDEST SWAP1 POP PUSH1 0x0 PUSH2 0xE5D PUSH1 0xA2 PUSH1 0x82 DUP10 DUP12 PUSH2 0x19ED JUMP JUMPDEST PUSH2 0xE66 SWAP2 PUSH2 0x1D04 JUMP JUMPDEST SWAP1 POP PUSH1 0x0 DUP9 DUP9 PUSH1 0xA6 DUP2 DUP2 LT PUSH2 0xE7D JUMPI PUSH2 0xE7D PUSH2 0x19BE JUMP JUMPDEST SWAP2 SWAP1 SWAP2 ADD CALLDATALOAD PUSH1 0xF8 SHR SWAP2 POP POP DUP1 ISZERO PUSH2 0xFD7 JUMPI PUSH1 0x0 PUSH2 0xE9E PUSH1 0xC7 PUSH1 0xA7 DUP12 DUP14 PUSH2 0x19ED JUMP JUMPDEST DUP2 ADD SWAP1 PUSH2 0xEAB SWAP2 SWAP1 PUSH2 0x18BC JUMP JUMPDEST SWAP1 POP PUSH1 0x0 DUP11 PUSH1 0xC7 DUP12 PUSH2 0xEBD DUP7 DUP4 PUSH2 0x1D41 JUMP JUMPDEST PUSH1 0xFF AND SWAP3 PUSH2 0xECD SWAP4 SWAP3 SWAP2 SWAP1 PUSH2 0x19ED JUMP JUMPDEST DUP1 DUP1 PUSH1 0x1F ADD PUSH1 0x20 DUP1 SWAP2 DIV MUL PUSH1 0x20 ADD PUSH1 0x40 MLOAD SWAP1 DUP2 ADD PUSH1 0x40 MSTORE DUP1 SWAP4 SWAP3 SWAP2 SWAP1 DUP2 DUP2 MSTORE PUSH1 0x20 ADD DUP4 DUP4 DUP1 DUP3 DUP5 CALLDATACOPY PUSH1 0x0 DUP2 DUP5 ADD MSTORE PUSH1 0x1F NOT PUSH1 0x1F DUP3 ADD AND SWAP1 POP DUP1 DUP4 ADD SWAP3 POP POP POP POP POP POP POP SWAP1 POP DUP8 PUSH20 0xFFFFFFFFFFFFFFFFFFFFFFFFFFFFFFFFFFFFFFFF AND PUSH4 0x8DF9F42D DUP9 DUP9 DUP9 DUP9 PUSH1 0x0 PUSH1 0xF8 SHL DUP16 PUSH1 0x2 PUSH1 0xF8 SHL AND PUSH31 0xFFFFFFFFFFFFFFFFFFFFFFFFFFFFFFFFFFFFFFFFFFFFFFFFFFFFFFFFFFFFFF NOT AND GT DUP9 DUP9 PUSH1 0x40 MLOAD DUP9 PUSH4 0xFFFFFFFF AND PUSH1 0xE0 SHL DUP2 MSTORE PUSH1 0x4 ADD PUSH2 0xF85 SWAP8 SWAP7 SWAP6 SWAP5 SWAP4 SWAP3 SWAP2 SWAP1 PUSH2 0x1D81 JUMP JUMPDEST PUSH1 0x20 PUSH1 0x40 MLOAD DUP1 DUP4 SUB DUP2 PUSH1 0x0 DUP8 GAS CALL ISZERO DUP1 ISZERO PUSH2 0xFA4 JUMPI RETURNDATASIZE PUSH1 0x0 DUP1 RETURNDATACOPY RETURNDATASIZE PUSH1 0x0 REVERT JUMPDEST POP POP POP POP PUSH1 0x40 MLOAD RETURNDATASIZE PUSH1 0x1F NOT PUSH1 0x1F DUP3 ADD AND DUP3 ADD DUP1 PUSH1 0x40 MSTORE POP DUP2 ADD SWAP1 PUSH2 0xFC8 SWAP2 SWAP1 PUSH2 0x1DE4 JUMP JUMPDEST POP POP POP POP POP POP POP POP POP POP POP POP POP JUMP JUMPDEST PUSH1 0x40 MLOAD PUSH32 0x4F489EC700000000000000000000000000000000000000000000000000000000 DUP2 MSTORE PUSH1 0xFF DUP7 AND PUSH1 0x4 DUP3 ADD MSTORE PUSH20 0xFFFFFFFFFFFFFFFFFFFFFFFFFFFFFFFFFFFFFFFF DUP6 DUP2 AND PUSH1 0x24 DUP4 ADD MSTORE PUSH1 0x44 DUP3 ADD DUP6 SWAP1 MSTORE PUSH1 0x64 DUP3 ADD DUP5 SWAP1 MSTORE PUSH32 0x200000000000000000000000000000000000000000000000000000000000000 DUP10 AND ISZERO ISZERO PUSH1 0x84 DUP4 ADD MSTORE DUP8 AND SWAP1 PUSH4 0x4F489EC7 SWAP1 PUSH1 0xA4 ADD PUSH1 0x20 PUSH1 0x40 MLOAD DUP1 DUP4 SUB DUP2 PUSH1 0x0 DUP8 GAS CALL ISZERO DUP1 ISZERO PUSH2 0x1086 JUMPI RETURNDATASIZE PUSH1 0x0 DUP1 RETURNDATACOPY RETURNDATASIZE PUSH1 0x0 REVERT JUMPDEST POP POP POP POP PUSH1 0x40 MLOAD RETURNDATASIZE PUSH1 0x1F NOT PUSH1 0x1F DUP3 ADD AND DUP3 ADD DUP1 PUSH1 0x40 MSTORE POP DUP2 ADD SWAP1 PUSH2 0x10AA SWAP2 SWAP1 PUSH2 0x1DE4 JUMP JUMPDEST POP POP POP POP POP POP PUSH2 0x4B7 JUMP JUMPDEST PUSH1 0x0 PUSH2 0x10C5 PUSH1 0x61 PUSH1 0x41 DUP7 DUP9 PUSH2 0x19ED JUMP JUMPDEST DUP2 ADD SWAP1 PUSH2 0x10D2 SWAP2 SWAP1 PUSH2 0x18BC JUMP JUMPDEST SWAP1 POP PUSH1 0x0 PUSH2 0x10E4 PUSH1 0x81 PUSH1 0x61 DUP8 DUP10 PUSH2 0x19ED JUMP JUMPDEST PUSH2 0x10ED SWAP2 PUSH2 0x1D04 JUMP JUMPDEST PUSH1 0x40 MLOAD PUSH32 0x79C63C3700000000000000000000000000000000000000000000000000000000 DUP2 MSTORE PUSH20 0xFFFFFFFFFFFFFFFFFFFFFFFFFFFFFFFFFFFFFFFF DUP5 DUP2 AND PUSH1 0x4 DUP4 ADD MSTORE PUSH1 0x24 DUP3 ADD DUP4 SWAP1 MSTORE SWAP2 SWAP3 POP SWAP1 DUP5 AND SWAP1 PUSH4 0x79C63C37 SWAP1 PUSH1 0x44 ADD PUSH1 0x20 PUSH1 0x40 MLOAD DUP1 DUP4 SUB DUP2 PUSH1 0x0 DUP8 GAS CALL ISZERO DUP1 ISZERO PUSH2 0x1166 JUMPI RETURNDATASIZE PUSH1 0x0 DUP1 RETURNDATACOPY RETURNDATASIZE PUSH1 0x0 REVERT JUMPDEST POP POP POP POP PUSH1 0x40 MLOAD RETURNDATASIZE PUSH1 0x1F NOT PUSH1 0x1F DUP3 ADD AND DUP3 ADD DUP1 PUSH1 0x40 MSTORE POP DUP2 ADD SWAP1 PUSH2 0x118A SWAP2 SWAP1 PUSH2 0x1DE4 JUMP JUMPDEST POP POP POP POP POP POP POP POP JUMP JUMPDEST PUSH1 0x0 SLOAD PUSH20 0xFFFFFFFFFFFFFFFFFFFFFFFFFFFFFFFFFFFFFFFF AND CALLER EQ PUSH2 0x1215 JUMPI PUSH1 0x40 MLOAD PUSH32 0x8C379A000000000000000000000000000000000000000000000000000000000 DUP2 MSTORE PUSH1 0x20 PUSH1 0x4 DUP3 ADD DUP2 SWAP1 MSTORE PUSH1 0x24 DUP3 ADD MSTORE PUSH32 0x4F776E61626C653A2063616C6C6572206973206E6F7420746865206F776E6572 PUSH1 0x44 DUP3 ADD MSTORE PUSH1 0x64 ADD PUSH2 0x53B JUMP JUMPDEST PUSH32 0x0 PUSH20 0xFFFFFFFFFFFFFFFFFFFFFFFFFFFFFFFFFFFFFFFF AND PUSH4 0xDB5C5A1D PUSH1 0x40 MLOAD DUP2 PUSH4 0xFFFFFFFF AND PUSH1 0xE0 SHL DUP2 MSTORE PUSH1 0x4 ADD PUSH1 0x0 PUSH1 0x40 MLOAD DUP1 DUP4 SUB DUP2 PUSH1 0x0 DUP8 DUP1 EXTCODESIZE ISZERO DUP1 ISZERO PUSH2 0x127D JUMPI PUSH1 0x0 DUP1 REVERT JUMPDEST POP GAS CALL ISZERO DUP1 ISZERO PUSH2 0x1291 JUMPI RETURNDATASIZE PUSH1 0x0 DUP1 RETURNDATACOPY RETURNDATASIZE PUSH1 0x0 REVERT JUMPDEST POP POP POP POP JUMP JUMPDEST PUSH1 0x1 SLOAD PUSH1 0x40 MLOAD PUSH32 0x4225D1ED00000000000000000000000000000000000000000000000000000000 DUP2 MSTORE ADDRESS PUSH1 0x4 DUP3 ADD MSTORE CALLER PUSH1 0x24 DUP3 ADD MSTORE PUSH20 0xFFFFFFFFFFFFFFFFFFFFFFFFFFFFFFFFFFFFFFFF SWAP1 SWAP2 AND SWAP1 PUSH4 0x4225D1ED SWAP1 PUSH1 0x44 ADD PUSH1 0x20 PUSH1 0x40 MLOAD DUP1 DUP4 SUB DUP2 DUP7 GAS STATICCALL ISZERO DUP1 ISZERO PUSH2 0x130B JUMPI RETURNDATASIZE PUSH1 0x0 DUP1 RETURNDATACOPY RETURNDATASIZE PUSH1 0x0 REVERT JUMPDEST POP POP POP POP PUSH1 0x40 MLOAD RETURNDATASIZE PUSH1 0x1F NOT PUSH1 0x1F DUP3 ADD AND DUP3 ADD DUP1 PUSH1 0x40 MSTORE POP DUP2 ADD SWAP1 PUSH2 0x132F SWAP2 SWAP1 PUSH2 0x1A5F JUMP JUMPDEST PUSH2 0x1338 JUMPI PUSH1 0x0 DUP1 REVERT JUMPDEST PUSH1 0x0 DUP6 DUP2 MSTORE PUSH1 0x4 PUSH1 0x20 SWAP1 DUP2 MSTORE PUSH1 0x40 DUP1 DUP4 KECCAK256 SLOAD DUP2 MLOAD CALLER DUP2 DUP6 ADD MSTORE DUP3 MLOAD DUP1 DUP3 SUB SWAP1 SWAP5 ADD DUP5 MSTORE DUP1 DUP4 ADD DUP4 MSTORE PUSH20 0xFFFFFFFFFFFFFFFFFFFFFFFFFFFFFFFFFFFFFFFF DUP7 AND PUSH1 0x60 DUP1 DUP4 ADD SWAP2 SWAP1 SWAP2 MSTORE DUP4 MLOAD DUP1 DUP4 SUB SWAP1 SWAP2 ADD DUP2 MSTORE PUSH1 0x80 DUP3 ADD SWAP1 SWAP4 MSTORE SWAP1 SWAP4 SWAP3 PUSH2 0x13CB SWAP3 PUSH32 0x100000000000000000000000000000000000000000000000000000000000000 SWAP3 DUP11 SWAP2 DUP11 SWAP2 DUP11 SWAP2 SWAP1 DUP9 SWAP1 PUSH1 0xA0 ADD PUSH2 0x1DFD JUMP JUMPDEST PUSH1 0x40 DUP1 MLOAD PUSH32 0xFFFFFFFFFFFFFFFFFFFFFFFFFFFFFFFFFFFFFFFFFFFFFFFFFFFFFFFFFFFFFFE0 DUP2 DUP5 SUB ADD DUP2 MSTORE SWAP1 DUP3 SWAP1 MSTORE PUSH32 0xC51289B500000000000000000000000000000000000000000000000000000000 DUP3 MSTORE SWAP2 POP PUSH20 0xFFFFFFFFFFFFFFFFFFFFFFFFFFFFFFFFFFFFFFFF PUSH32 0x0 AND SWAP1 PUSH4 0xC51289B5 SWAP1 PUSH2 0x1470 SWAP1 DUP6 SWAP1 DUP6 SWAP1 PUSH1 0x0 SWAP1 PUSH1 0x4 ADD PUSH2 0x1B94 JUMP JUMPDEST PUSH1 0x0 PUSH1 0x40 MLOAD DUP1 DUP4 SUB DUP2 PUSH1 0x0 DUP8 DUP1 EXTCODESIZE ISZERO DUP1 ISZERO PUSH2 0x148A JUMPI PUSH1 0x0 DUP1 REVERT JUMPDEST POP GAS CALL ISZERO DUP1 ISZERO PUSH2 0x149E JUMPI RETURNDATASIZE PUSH1 0x0 DUP1 RETURNDATACOPY RETURNDATASIZE PUSH1 0x0 REVERT JUMPDEST POP POP POP POP POP POP POP POP POP POP POP JUMP JUMPDEST PUSH1 0x0 SLOAD PUSH20 0xFFFFFFFFFFFFFFFFFFFFFFFFFFFFFFFFFFFFFFFF AND CALLER EQ PUSH2 0x152C JUMPI PUSH1 0x40 MLOAD PUSH32 0x8C379A000000000000000000000000000000000000000000000000000000000 DUP2 MSTORE PUSH1 0x20 PUSH1 0x4 DUP3 ADD DUP2 SWAP1 MSTORE PUSH1 0x24 DUP3 ADD MSTORE PUSH32 0x4F776E61626C653A2063616C6C6572206973206E6F7420746865206F776E6572 PUSH1 0x44 DUP3 ADD MSTORE PUSH1 0x64 ADD PUSH2 0x53B JUMP JUMPDEST PUSH20 0xFFFFFFFFFFFFFFFFFFFFFFFFFFFFFFFFFFFFFFFF DUP2 AND PUSH2 0x15CF JUMPI PUSH1 0x40 MLOAD PUSH32 0x8C379A000000000000000000000000000000000000000000000000000000000 DUP2 MSTORE PUSH1 0x20 PUSH1 0x4 DUP3 ADD MSTORE PUSH1 0x26 PUSH1 0x24 DUP3 ADD MSTORE PUSH32 0x4F776E61626C653A206E6577206F776E657220697320746865207A65726F2061 PUSH1 0x44 DUP3 ADD MSTORE PUSH32 0x6464726573730000000000000000000000000000000000000000000000000000 PUSH1 0x64 DUP3 ADD MSTORE PUSH1 0x84 ADD PUSH2 0x53B JUMP JUMPDEST PUSH2 0x15D8 DUP2 PUSH2 0x15DB JUMP JUMPDEST POP JUMP JUMPDEST PUSH1 0x0 DUP1 SLOAD PUSH20 0xFFFFFFFFFFFFFFFFFFFFFFFFFFFFFFFFFFFFFFFF DUP4 DUP2 AND PUSH32 0xFFFFFFFFFFFFFFFFFFFFFFFF0000000000000000000000000000000000000000 DUP4 AND DUP2 OR DUP5 SSTORE PUSH1 0x40 MLOAD SWAP2 SWAP1 SWAP3 AND SWAP3 DUP4 SWAP2 PUSH32 0x8BE0079C531659141344CD1FD0A4F28419497F9722A3DAAFE3B4186F6B6457E0 SWAP2 SWAP1 LOG3 POP POP JUMP JUMPDEST PUSH1 0x0 PUSH1 0x20 DUP3 DUP5 SUB SLT ISZERO PUSH2 0x1662 JUMPI PUSH1 0x0 DUP1 REVERT JUMPDEST DUP2 CALLDATALOAD PUSH8 0xFFFFFFFFFFFFFFFF DUP2 GT ISZERO PUSH2 0x1679 JUMPI PUSH1 0x0 DUP1 REVERT JUMPDEST DUP3 ADD PUSH1 0xC0 DUP2 DUP6 SUB SLT ISZERO PUSH2 0x168B JUMPI PUSH1 0x0 DUP1 REVERT JUMPDEST SWAP4 SWAP3 POP POP POP JUMP JUMPDEST PUSH1 0x0 PUSH1 0x20 DUP3 DUP5 SUB SLT ISZERO PUSH2 0x16A4 JUMPI PUSH1 0x0 DUP1 REVERT JUMPDEST POP CALLDATALOAD SWAP2 SWAP1 POP JUMP JUMPDEST DUP1 CALLDATALOAD PUSH4 0xFFFFFFFF DUP2 AND DUP2 EQ PUSH2 0x16BF JUMPI PUSH1 0x0 DUP1 REVERT JUMPDEST SWAP2 SWAP1 POP JUMP JUMPDEST DUP1 CALLDATALOAD PUSH1 0xFF DUP2 AND DUP2 EQ PUSH2 0x16BF JUMPI PUSH1 0x0 DUP1 REVERT JUMPDEST DUP1 ISZERO ISZERO DUP2 EQ PUSH2 0x15D8 JUMPI PUSH1 0x0 DUP1 REVERT JUMPDEST PUSH1 0x0 DUP1 PUSH1 0x0 DUP1 PUSH1 0x0 DUP1 PUSH1 0x0 DUP1 PUSH2 0x100 DUP10 DUP12 SUB SLT ISZERO PUSH2 0x1700 JUMPI PUSH1 0x0 DUP1 REVERT JUMPDEST PUSH2 0x1709 DUP10 PUSH2 0x16AB JUMP JUMPDEST SWAP8 POP PUSH1 0x20 DUP10 ADD CALLDATALOAD SWAP7 POP PUSH1 0x40 DUP10 ADD CALLDATALOAD SWAP6 POP PUSH2 0x1725 PUSH1 0x60 DUP11 ADD PUSH2 0x16C4 JUMP JUMPDEST SWAP5 POP PUSH1 0x80 DUP10 ADD CALLDATALOAD SWAP4 POP PUSH1 0xA0 DUP10 ADD CALLDATALOAD SWAP3 POP PUSH1 0xC0 DUP10 ADD CALLDATALOAD PUSH2 0x1743 DUP2 PUSH2 0x16D5 JUMP JUMPDEST SWAP2 POP PUSH2 0x1751 PUSH1 0xE0 DUP11 ADD PUSH2 0x16AB JUMP JUMPDEST SWAP1 POP SWAP3 SWAP6 SWAP9 POP SWAP3 SWAP6 SWAP9 SWAP1 SWAP4 SWAP7 POP JUMP JUMPDEST PUSH1 0x0 DUP1 PUSH1 0x0 PUSH1 0x60 DUP5 DUP7 SUB SLT ISZERO PUSH2 0x1775 JUMPI PUSH1 0x0 DUP1 REVERT JUMPDEST DUP4 CALLDATALOAD SWAP3 POP PUSH1 0x20 DUP5 ADD CALLDATALOAD SWAP2 POP PUSH1 0x40 DUP5 ADD CALLDATALOAD PUSH2 0x178E DUP2 PUSH2 0x16D5 JUMP JUMPDEST DUP1 SWAP2 POP POP SWAP3 POP SWAP3 POP SWAP3 JUMP JUMPDEST PUSH1 0x0 DUP1 PUSH1 0x0 DUP1 PUSH1 0x0 DUP1 PUSH1 0x0 DUP1 PUSH1 0x0 DUP1 PUSH2 0x120 DUP12 DUP14 SUB SLT ISZERO PUSH2 0x17B9 JUMPI PUSH1 0x0 DUP1 REVERT JUMPDEST PUSH2 0x17C2 DUP12 PUSH2 0x16AB JUMP JUMPDEST SWAP10 POP PUSH1 0x20 DUP12 ADD CALLDATALOAD SWAP9 POP PUSH1 0x40 DUP12 ADD CALLDATALOAD SWAP8 POP PUSH2 0x17DE PUSH1 0x60 DUP13 ADD PUSH2 0x16C4 JUMP JUMPDEST SWAP7 POP PUSH1 0x80 DUP12 ADD CALLDATALOAD SWAP6 POP PUSH1 0xA0 DUP12 ADD CALLDATALOAD SWAP5 POP PUSH1 0xC0 DUP12 ADD CALLDATALOAD PUSH2 0x17FC DUP2 PUSH2 0x16D5 JUMP JUMPDEST SWAP4 POP PUSH2 0x180A PUSH1 0xE0 DUP13 ADD PUSH2 0x16AB JUMP JUMPDEST SWAP3 POP PUSH2 0x100 DUP12 ADD CALLDATALOAD PUSH8 0xFFFFFFFFFFFFFFFF DUP1 DUP3 GT ISZERO PUSH2 0x1828 JUMPI PUSH1 0x0 DUP1 REVERT JUMPDEST DUP2 DUP14 ADD SWAP2 POP DUP14 PUSH1 0x1F DUP4 ADD SLT PUSH2 0x183C JUMPI PUSH1 0x0 DUP1 REVERT JUMPDEST DUP2 CALLDATALOAD DUP2 DUP2 GT ISZERO PUSH2 0x184B JUMPI PUSH1 0x0 DUP1 REVERT JUMPDEST DUP15 PUSH1 0x20 DUP3 DUP6 ADD ADD GT ISZERO PUSH2 0x185D JUMPI PUSH1 0x0 DUP1 REVERT JUMPDEST PUSH1 0x20 DUP4 ADD SWAP5 POP DUP1 SWAP4 POP POP POP POP SWAP3 SWAP6 SWAP9 SWAP12 SWAP2 SWAP5 SWAP8 SWAP11 POP SWAP3 SWAP6 SWAP9 POP JUMP JUMPDEST PUSH1 0x0 DUP1 PUSH1 0x40 DUP4 DUP6 SUB SLT ISZERO PUSH2 0x188B JUMPI PUSH1 0x0 DUP1 REVERT JUMPDEST POP POP DUP1 CALLDATALOAD SWAP3 PUSH1 0x20 SWAP1 SWAP2 ADD CALLDATALOAD SWAP2 POP JUMP JUMPDEST PUSH20 0xFFFFFFFFFFFFFFFFFFFFFFFFFFFFFFFFFFFFFFFF DUP2 AND DUP2 EQ PUSH2 0x15D8 JUMPI PUSH1 0x0 DUP1 REVERT JUMPDEST PUSH1 0x0 PUSH1 0x20 DUP3 DUP5 SUB SLT ISZERO PUSH2 0x18CE JUMPI PUSH1 0x0 DUP1 REVERT JUMPDEST DUP2 CALLDATALOAD PUSH2 0x168B DUP2 PUSH2 0x189A JUMP JUMPDEST PUSH1 0x0 DUP1 PUSH1 0x0 DUP1 PUSH1 0x0 PUSH1 0xA0 DUP7 DUP9 SUB SLT ISZERO PUSH2 0x18F1 JUMPI PUSH1 0x0 DUP1 REVERT JUMPDEST DUP6 CALLDATALOAD SWAP5 POP PUSH1 0x20 DUP7 ADD CALLDATALOAD SWAP4 POP PUSH1 0x40 DUP7 ADD CALLDATALOAD SWAP3 POP PUSH1 0x60 DUP7 ADD CALLDATALOAD SWAP2 POP PUSH1 0x80 DUP7 ADD CALLDATALOAD PUSH2 0x1918 DUP2 PUSH2 0x189A JUMP JUMPDEST DUP1 SWAP2 POP POP SWAP3 SWAP6 POP SWAP3 SWAP6 SWAP1 SWAP4 POP JUMP JUMPDEST PUSH1 0x0 DUP1 PUSH1 0x0 PUSH1 0x60 DUP5 DUP7 SUB SLT ISZERO PUSH2 0x193B JUMPI PUSH1 0x0 DUP1 REVERT JUMPDEST POP POP DUP2 CALLDATALOAD SWAP4 PUSH1 0x20 DUP4 ADD CALLDATALOAD SWAP4 POP PUSH1 0x40 SWAP1 SWAP3 ADD CALLDATALOAD SWAP2 SWAP1 POP JUMP JUMPDEST PUSH1 0x0 DUP1 DUP4 CALLDATALOAD PUSH32 0xFFFFFFFFFFFFFFFFFFFFFFFFFFFFFFFFFFFFFFFFFFFFFFFFFFFFFFFFFFFFFFE1 DUP5 CALLDATASIZE SUB ADD DUP2 SLT PUSH2 0x1987 JUMPI PUSH1 0x0 DUP1 REVERT JUMPDEST DUP4 ADD DUP1 CALLDATALOAD SWAP2 POP PUSH8 0xFFFFFFFFFFFFFFFF DUP3 GT ISZERO PUSH2 0x19A2 JUMPI PUSH1 0x0 DUP1 REVERT JUMPDEST PUSH1 0x20 ADD SWAP2 POP CALLDATASIZE DUP2 SWAP1 SUB DUP3 SGT ISZERO PUSH2 0x19B7 JUMPI PUSH1 0x0 DUP1 REVERT JUMPDEST SWAP3 POP SWAP3 SWAP1 POP JUMP JUMPDEST PUSH32 0x4E487B7100000000000000000000000000000000000000000000000000000000 PUSH1 0x0 MSTORE PUSH1 0x32 PUSH1 0x4 MSTORE PUSH1 0x24 PUSH1 0x0 REVERT JUMPDEST PUSH1 0x0 DUP1 DUP6 DUP6 GT ISZERO PUSH2 0x19FD JUMPI PUSH1 0x0 DUP1 REVERT JUMPDEST DUP4 DUP7 GT ISZERO PUSH2 0x1A0A JUMPI PUSH1 0x0 DUP1 REVERT JUMPDEST POP POP DUP3 ADD SWAP4 SWAP2 SWAP1 SWAP3 SUB SWAP2 POP JUMP JUMPDEST PUSH32 0xFFFFFFFF00000000000000000000000000000000000000000000000000000000 DUP2 CALLDATALOAD DUP2 DUP2 AND SWAP2 PUSH1 0x4 DUP6 LT ISZERO PUSH2 0x1A57 JUMPI DUP1 DUP2 DUP7 PUSH1 0x4 SUB PUSH1 0x3 SHL SHL DUP4 AND AND SWAP3 POP JUMPDEST POP POP SWAP3 SWAP2 POP POP JUMP JUMPDEST PUSH1 0x0 PUSH1 0x20 DUP3 DUP5 SUB SLT ISZERO PUSH2 0x1A71 JUMPI PUSH1 0x0 DUP1 REVERT JUMPDEST DUP2 MLOAD PUSH2 0x168B DUP2 PUSH2 0x16D5 JUMP JUMPDEST PUSH1 0x0 JUMPDEST DUP4 DUP2 LT ISZERO PUSH2 0x1A97 JUMPI DUP2 DUP2 ADD MLOAD DUP4 DUP3 ADD MSTORE PUSH1 0x20 ADD PUSH2 0x1A7F JUMP JUMPDEST POP POP PUSH1 0x0 SWAP2 ADD MSTORE JUMP JUMPDEST PUSH1 0x0 PUSH32 0xFF00000000000000000000000000000000000000000000000000000000000000 DUP1 DUP13 PUSH1 0xF8 SHL AND DUP4 MSTORE DUP11 MLOAD PUSH2 0x1ADE DUP2 PUSH1 0x1 DUP7 ADD PUSH1 0x20 DUP16 ADD PUSH2 0x1A7C JUMP JUMPDEST PUSH1 0x1 SWAP4 ADD SWAP3 DUP4 ADD SWAP10 SWAP1 SWAP10 MSTORE POP PUSH1 0x21 DUP2 ADD SWAP7 SWAP1 SWAP7 MSTORE PUSH1 0x41 DUP7 ADD SWAP5 SWAP1 SWAP5 MSTORE PUSH1 0xF8 SWAP3 DUP4 SHL DUP7 AND PUSH1 0x61 DUP7 ADD MSTORE PUSH1 0x62 DUP6 ADD SWAP2 SWAP1 SWAP2 MSTORE PUSH1 0xE0 SHL PUSH32 0xFFFFFFFF00000000000000000000000000000000000000000000000000000000 AND PUSH1 0x82 DUP5 ADD MSTORE SHL SWAP1 SWAP2 AND PUSH1 0x86 DUP3 ADD MSTORE PUSH1 0x87 ADD SWAP3 SWAP2 POP POP JUMP JUMPDEST PUSH1 0x0 DUP2 MLOAD DUP1 DUP5 MSTORE PUSH2 0x1B62 DUP2 PUSH1 0x20 DUP7 ADD PUSH1 0x20 DUP7 ADD PUSH2 0x1A7C JUMP JUMPDEST PUSH1 0x1F ADD PUSH32 0xFFFFFFFFFFFFFFFFFFFFFFFFFFFFFFFFFFFFFFFFFFFFFFFFFFFFFFFFFFFFFFE0 AND SWAP3 SWAP1 SWAP3 ADD PUSH1 0x20 ADD SWAP3 SWAP2 POP POP JUMP JUMPDEST DUP4 DUP2 MSTORE PUSH1 0x60 PUSH1 0x20 DUP3 ADD MSTORE PUSH1 0x0 PUSH2 0x1BAD PUSH1 0x60 DUP4 ADD DUP6 PUSH2 0x1B4A JUMP JUMPDEST SWAP1 POP PUSH8 0xFFFFFFFFFFFFFFFF DUP4 AND PUSH1 0x40 DUP4 ADD MSTORE SWAP5 SWAP4 POP POP POP POP JUMP JUMPDEST DUP1 MLOAD PUSH1 0x20 DUP1 DUP4 ADD MLOAD SWAP2 SWAP1 DUP2 LT ISZERO PUSH2 0x1C06 JUMPI PUSH32 0xFFFFFFFFFFFFFFFFFFFFFFFFFFFFFFFFFFFFFFFFFFFFFFFFFFFFFFFFFFFFFFFF DUP2 PUSH1 0x20 SUB PUSH1 0x3 SHL SHL DUP3 AND SWAP2 POP JUMPDEST POP SWAP2 SWAP1 POP JUMP JUMPDEST PUSH32 0xFF00000000000000000000000000000000000000000000000000000000000000 DUP5 PUSH1 0xF8 SHL AND DUP2 MSTORE DUP2 DUP4 PUSH1 0x1 DUP4 ADD CALLDATACOPY PUSH1 0x0 SWAP2 ADD PUSH1 0x1 ADD SWAP1 DUP2 MSTORE SWAP3 SWAP2 POP POP JUMP JUMPDEST PUSH1 0x0 PUSH32 0xFF00000000000000000000000000000000000000000000000000000000000000 DUP1 DUP13 PUSH1 0xF8 SHL AND DUP4 MSTORE DUP11 MLOAD PUSH2 0x1C89 DUP2 PUSH1 0x1 DUP7 ADD PUSH1 0x20 DUP16 ADD PUSH2 0x1A7C JUMP JUMPDEST DUP1 DUP5 ADD SWAP1 POP DUP11 PUSH1 0x1 DUP3 ADD MSTORE DUP10 PUSH1 0x21 DUP3 ADD MSTORE DUP9 PUSH1 0x41 DUP3 ADD MSTORE DUP2 DUP9 PUSH1 0xF8 SHL AND PUSH1 0x61 DUP3 ADD MSTORE DUP7 PUSH1 0x62 DUP3 ADD MSTORE PUSH32 0xFFFFFFFF00000000000000000000000000000000000000000000000000000000 DUP7 PUSH1 0xE0 SHL AND PUSH1 0x82 DUP3 ADD MSTORE DUP5 MLOAD SWAP2 POP PUSH2 0x1CF1 DUP3 PUSH1 0x86 DUP4 ADD PUSH1 0x20 DUP9 ADD PUSH2 0x1A7C JUMP JUMPDEST ADD PUSH1 0x86 ADD SWAP12 SWAP11 POP POP POP POP POP POP POP POP POP POP POP JUMP JUMPDEST DUP1 CALLDATALOAD PUSH1 0x20 DUP4 LT ISZERO PUSH2 0x1D3B JUMPI PUSH32 0xFFFFFFFFFFFFFFFFFFFFFFFFFFFFFFFFFFFFFFFFFFFFFFFFFFFFFFFFFFFFFFFF PUSH1 0x20 DUP5 SWAP1 SUB PUSH1 0x3 SHL SHL AND JUMPDEST SWAP3 SWAP2 POP POP JUMP JUMPDEST PUSH1 0xFF DUP2 DUP2 AND DUP4 DUP3 AND ADD SWAP1 DUP2 GT ISZERO PUSH2 0x1D3B JUMPI PUSH32 0x4E487B7100000000000000000000000000000000000000000000000000000000 PUSH1 0x0 MSTORE PUSH1 0x11 PUSH1 0x4 MSTORE PUSH1 0x24 PUSH1 0x0 REVERT JUMPDEST PUSH1 0xFF DUP9 AND DUP2 MSTORE PUSH1 0x0 PUSH20 0xFFFFFFFFFFFFFFFFFFFFFFFFFFFFFFFFFFFFFFFF DUP1 DUP10 AND PUSH1 0x20 DUP5 ADD MSTORE DUP8 PUSH1 0x40 DUP5 ADD MSTORE DUP7 PUSH1 0x60 DUP5 ADD MSTORE DUP6 ISZERO ISZERO PUSH1 0x80 DUP5 ADD MSTORE DUP1 DUP6 AND PUSH1 0xA0 DUP5 ADD MSTORE POP PUSH1 0xE0 PUSH1 0xC0 DUP4 ADD MSTORE PUSH2 0x1DD7 PUSH1 0xE0 DUP4 ADD DUP5 PUSH2 0x1B4A JUMP JUMPDEST SWAP10 SWAP9 POP POP POP POP POP POP POP POP POP JUMP JUMPDEST PUSH1 0x0 PUSH1 0x20 DUP3 DUP5 SUB SLT ISZERO PUSH2 0x1DF6 JUMPI PUSH1 0x0 DUP1 REVERT JUMPDEST POP MLOAD SWAP2 SWAP1 POP JUMP JUMPDEST PUSH1 0x0 PUSH32 0xFF00000000000000000000000000000000000000000000000000000000000000 DUP1 DUP11 AND DUP4 MSTORE DUP9 MLOAD PUSH2 0x1E38 DUP2 PUSH1 0x1 DUP7 ADD PUSH1 0x20 DUP14 ADD PUSH2 0x1A7C JUMP JUMPDEST DUP1 DUP5 ADD SWAP1 POP DUP9 PUSH1 0x1 DUP3 ADD MSTORE DUP8 PUSH1 0x21 DUP3 ADD MSTORE DUP7 PUSH1 0x41 DUP3 ADD MSTORE DUP6 MLOAD PUSH2 0x1E62 DUP2 PUSH1 0x61 DUP5 ADD PUSH1 0x20 DUP11 ADD PUSH2 0x1A7C JUMP JUMPDEST DUP1 DUP3 ADD SWAP2 POP POP DUP2 DUP6 PUSH1 0xF8 SHL AND PUSH1 0x61 DUP3 ADD MSTORE PUSH1 0x62 DUP2 ADD SWAP3 POP POP POP SWAP9 SWAP8 POP POP POP POP POP POP POP POP JUMP INVALID LOG2 PUSH5 0x6970667358 0x22 SLT KECCAK256 0x2F DUP1 0xE7 LOG4 0xB9 0xC0 0xBF ADDMOD 0x22 PUSH1 0x80 GAS NOT ADDMOD 0xE9 0xD0 PUSH25 0x870931233AE40E040AC9C899B10BE64736F6C634300081100 CALLER ",
  "sha1": "d1a34e90dade5bc8d5117ef4118059cae4e37f40",
  "source": "//SPDX-License-Identifier: MIT\n\npragma solidity ^0.8.9;\n\nimport \"./polymerase/IbcDispatcher.sol\";\nimport \"./polymerase/IbcReceiver.sol\";\nimport \"@openzeppelin/contracts/access/Ownable.sol\";\nimport \"./ISwapPool.sol\";\n\ninterface ISwapPoolFactory {\n    function IsCreatedByFactory(address arg0, address arg1)\n        external\n        view\n        returns (bool);\n}\n\n/// @title CatalystIBCInterface\n/// @author Alexander @ Polymer Labs\n/// @notice Interface for PolySwap for sending IBC messages using Polymerase\n/**\n * Context Flag\n *      2^0: Asset (0) or Liquidity swap (1)\n *        1: Non-approximate (0) or approximate (1)\n *        2: Unused\n *        3: Unused\n *        .\n *        .\n *        7: Unused\n */\ncontract CatalystIBCInterface is Ownable, IbcReceiver {\n    //--- ERRORS ---//\n    string constant NO_CONNECTION = \"Pools are not connected\";\n    string constant SWAP_RETURN_INSUFFICIENT = \"Insufficient swap return\";\n    string constant BALANCE_SECURITY_LIMIT =\n        \"Pool sanity limit (Balance too large)\";\n\n    address public immutable PolymeraseDispatcher;\n    address public _poolFactory;\n    mapping(address => bool) public validArriver;\n\n    // Usage: assert self.checkConnection[chainID][from][target]\n    mapping(bytes32 => mapping(bytes32 => mapping(bytes32 => bool)))\n        public checkConnection;\n\n    mapping(uint256 => bytes32) public _channelForChain;\n\n    address public immutable _calldataRouter;\n\n    constructor(\n        address factory,\n        address polymeraseDispatcher,\n        bytes32 localChannelId\n    ) {\n        _poolFactory = factory;\n        PolymeraseDispatcher = polymeraseDispatcher;\n        validArriver[polymeraseDispatcher] = true;\n        _channelForChain[block.chainid] = localChannelId;\n        _calldataRouter = address(0);\n    }\n\n    function registerPort() external onlyOwner {\n        IbcDispatcher(PolymeraseDispatcher).registerPort();\n    }\n\n    function chain_id() external view returns (uint256) {\n        return block.chainid;\n    }\n\n    function setChannelForChain(uint256 chainID, bytes32 channel)\n        external\n        onlyOwner\n    {\n        _channelForChain[chainID] = channel;\n    }\n\n    function CreateConnection(\n        bytes32 channelId,\n        bytes32 pool,\n        bool state\n    ) external returns (bool) {\n        require(\n            ISwapPoolFactory(_poolFactory).IsCreatedByFactory(\n                address(this),\n                msg.sender\n            )\n        ); // dev: Only factory pools.\n        bytes32 msgSenderB32 = bytes32(abi.encodePacked(msg.sender));\n\n        checkConnection[channelId][msgSenderB32][pool] = state;\n        checkConnection[channelId][pool][msgSenderB32] = state;\n\n        return true;\n    }\n\n    function CreateConnectionWithChain(\n        uint256 chainId,\n        bytes32 pool,\n        bool state\n    ) external {\n        require(\n            ISwapPoolFactory(_poolFactory).IsCreatedByFactory(\n                address(this),\n                msg.sender\n            )\n        ); // dev: Only factory pools.\n        bytes32 msgSenderB32 = bytes32(abi.encode(msg.sender));\n        bytes32 channelId = _channelForChain[chainId];\n\n        checkConnection[channelId][msgSenderB32][pool] = state;\n        checkConnection[channelId][pool][msgSenderB32] = state;\n    }\n\n    function crossChainSwap(\n        uint32 chainId,\n        bytes32 targetPool,\n        bytes32 targetUser,\n        uint8 targetAssetIndex,\n        uint256 U,\n        uint256 minOut,\n        bool approx,\n        uint32 sourceSwapId\n    ) external {\n        /**\n         * Context Flag\n         *      2^0: Asset (0) or Liquidity swap (1)\n         *        1: Non-approximate (0) or approximate (1)\n         *        2: Unused\n         *        3: Unused\n         *        .\n         *        .\n         *        7: Unused\n         */\n\n        /* \n            0 _context : Bytes[1]\n            1-32 _fromPool : bytes32\n            33-64 _pool : bytes32\n            65-96 _who : bytes32\n            97-128 _U : uint265\n            129 _assetIndex : uint8\n            130-161 _minOut : uint256\n            162-165 _sourceSwapId : uint32\n        */\n        require(\n            ISwapPoolFactory(_poolFactory).IsCreatedByFactory(\n                address(this),\n                msg.sender\n            )\n        ); // dev: Only factory pools.\n\n        bytes32 channelId = _channelForChain[chainId]; // ! Default value is 0\n        // require(\n        //     checkConnection[channelId][bytes32(abi.encodePacked(msg.sender))][\n        //         _pool\n        //     ],\n        //     NO_CONNECTION\n        // );\n\n        // abi.encodePacked encodes the arguments as a concat.\n        bytes memory data = abi.encodePacked(\n            approx ? 2 : 0,\n            abi.encode(msg.sender),\n            targetPool,\n            targetUser,\n            U,\n            uint8(targetAssetIndex),\n            minOut,\n            uint32(sourceSwapId),\n            uint8(0)\n        );\n        // abi.encode allways encodes to 32 bytes.\n        // abi.encodePacked encodes in the smallest possible bytes.\n        // 32 bytes are reserved for addresses (for chain compatibility)..\n        // Ethereum addresses only use 20 bytes, so abi.encodePacked returns 20 bytes where abi.encode returns 32 bytes.\n\n        // 130 + 32 == 162 bytes\n        IbcDispatcher(PolymeraseDispatcher).sendIbcPacket(channelId, data, 0);\n    }\n\n    function crossChainSwap(\n        uint32 chainId,\n        bytes32 targetPool,\n        bytes32 targetUser,\n        uint8 targetAssetIndex,\n        uint256 U,\n        uint256 minOut,\n        bool approx,\n        uint32 sourceSwapId,\n        bytes calldata calldata_\n    ) external {\n        /**\n         * Context Flag\n         *      2^0: Asset (0) or Liquidity swap (1)\n         *        1: Non-approximate (0) or approximate (1)\n         *        2: Unused\n         *        3: Unused\n         *        .\n         *        .\n         *        7: Unused\n         */\n\n        /* \n            0 _context : Bytes[1]\n            1-32 _fromPool : bytes32\n            33-64 _pool : bytes32\n            65-96 _targetUser : bytes32\n            97-128 _U : uint265\n            129 _assetIndex : uint8\n            130-161 _minOut : uint256\n            162-165 _sourceSwapId : uint32\n        */\n        require(\n            ISwapPoolFactory(_poolFactory).IsCreatedByFactory(\n                address(this),\n                msg.sender\n            )\n        ); // dev: Only factory pools.\n\n        bytes32 channelId = _channelForChain[chainId]; // ! Default value is 0\n        // require(\n        //     checkConnection[channelId][bytes32(abi.encodePacked(msg.sender))][\n        //         _pool\n        //     ],\n        //     NO_CONNECTION\n        // );\n\n        bytes memory preparedCalldata = abi.encodePacked(\n            uint8(calldata_.length),\n            calldata_\n        );\n\n        // abi.encodePacked encodes the arguments as a concat.\n        bytes memory data = abi.encodePacked(\n            approx ? 2 : 0, // Needs flag 1 for approximation.\n            abi.encode(msg.sender),\n            targetPool,\n            targetUser,\n            U,\n            uint8(targetAssetIndex),\n            minOut,\n            uint32(sourceSwapId),\n            preparedCalldata\n        );\n        // abi.encode allways encodes to 32 bytes.\n        // abi.encodePacked encodes in the smallest possible bytes.\n        // 32 bytes are reserved for addresses (for chain compatibility)..\n        // Ethereum addresses only use 20 bytes, so abi.encodePacked returns 20 bytes where abi.encode returns 32 bytes.\n\n        // 130 + 32 == 162 bytes\n        IbcDispatcher(PolymeraseDispatcher).sendIbcPacket(channelId, data, 0);\n    }\n\n    function liquiditySwap(\n        uint256 chainId,\n        bytes32 targetPool,\n        bytes32 targetUser,\n        uint256 U,\n        address fallbackAddress\n    ) external {\n        /* \n            0 _context : Bytes[1]\n            1-32 _fromPool : bytes32\n            33-64 _pool : bytes32\n            65-96 _who : bytes32\n            97-128 _U : uint265\n            129-160 _fallbackAddress : bytes32\n        */\n        require(\n            ISwapPoolFactory(_poolFactory).IsCreatedByFactory(\n                address(this),\n                msg.sender\n            )\n        ); // dev: Only factory pools.\n\n        bytes32 channelId = _channelForChain[chainId]; // ! Default value is 0\n        // require(\n        //     checkConnection[channelId][bytes32(abi.encodePacked(msg.sender))][\n        //         _pool\n        //     ],\n        //     NO_CONNECTION\n        // );\n\n        // abi.encodePacked encodes the arguments as a concat. This should be the same as:\n        // _data: Bytes[130] = concat(0x00,  convert(msg.sender, bytes32), _pool, _who, assetIndex, C) in vyper\n        bytes memory data = abi.encodePacked(\n            bytes1(0x01), // | approx ? 2 : 0\n            abi.encode(msg.sender),\n            targetPool,\n            targetUser,\n            U,\n            abi.encode(fallbackAddress),\n            uint8(0)\n        );\n        // abi.encode always encodes to 32 bytes.\n        // abi.encodePacked encodes in the smallest possible bytes.\n        // 32 bytes are reserved for addresses (for chain compatibility).\n        // Ethereum addresses only use 20 bytes, so abi.encodePacked returns 20 bytes where abi.encode returns 32 bytes.\n\n        IbcDispatcher(PolymeraseDispatcher).sendIbcPacket(channelId, data, 0);\n    }\n\n    function onAcknowledgementPacket(IbcPacket calldata packet) external {\n        bytes calldata data = packet.data;\n\n        /**\n         *   Context Flag\n         *      2^0: Asset (0) or Liquidity swap (1)\n         *        1: Non-approximate (0) or approximate (1)\n         *        2: Unused\n         *        3: Unused\n         *        .\n         *        .\n         *        7: Unused\n         */\n        // require(validArriver[msg.sender], \"Polymerase Only\");  // dev: Only callable by Polymerase\n\n        /* \n            0 _context : Bytes[1]\n            1-32 _fromPool : bytes32\n        */\n        bytes1 _context = data[0];\n        address fromPool = abi.decode(data[1:33], (address));\n\n        if ((_context & 0x01) == 0) {\n            /* \n                162-165 _sourceSwapId : uint32  # Identifier used to locate escrow details\n            */\n            ICatalystSwapBase(fromPool).releaseEscrowACK(\n                uint256(uint32(bytes4(data[162:166])))\n            );\n        } else {}\n    }\n\n    function onTimeoutPacket(IbcPacket calldata packet) external {\n        bytes calldata data = packet.data;\n        /* \n            Context indicator\n                0x00: Ordinary\n                0x01: ApproxFromUnits\n                0x02: LiquiditySwap\n                0x03: ApproxFromLiquidityUnits\n         */\n        // require(validArriver[msg.sender], \"Polymerase Only\");  // dev: Only callable by Polymerase\n\n        /* \n            0 _context : Bytes[1]\n            1-32 _fromPool : bytes32\n        */\n        bytes1 _context = data[0];\n        address fromPool = abi.decode(data[1:33], (address));\n\n        if ((_context & 0x01) == 0) {\n            /* \n                162-165 _sourceSwapId : uint32  # Identifier used to locate escrow details\n            */\n            ICatalystSwapBase(fromPool).releaseEscrowTIMEOUT(\n                uint256(uint32(bytes4(data[162:166])))\n            );\n        } else {}\n    }\n\n    function onRecvPacket(IbcPacket calldata packet) external {\n        bytes calldata data = packet.data;\n        /* \n            Context indicator\n                0x00: Ordinary\n                0x01: ApproxFromUnits\n                0x02: LiquiditySwap\n                0x03: ApproxFromLiquidityUnits\n         */\n        // require(validArriver[msg.sender]); // dev: Only callable by Polymerase\n        // string memory channelid = packet.src.channelId;\n\n        /* \n            0 _context : Bytes[1]\n            1-32 _fromPool : bytes32\n            33-64 _pool : bytes32\n        */\n        bytes1 _context = data[0];\n        address pool = abi.decode(data[33:65], (address));\n\n        {\n            /* bytes32 fromPool = bytes32(data[1:33]);\n        // require(\n        //     checkConnection[channelid][bytes32(data[33:65])][fromPool],\n        //     NO_CONNECTION\n        // ); */\n        }\n\n        if ((_context & 0x01) == 0) {\n            /* \n                0 _context : Bytes[1]\n                1-32 _fromPool : bytes32\n                33-64 _pool : bytes32\n                65-96 _who : bytes32\n                97-128 _U : uint265\n                129 _assetIndex : uint8\n                130-161 _minOut : uint256\n             */\n            uint8 assetIndex = uint8(data[129]);\n            address who = abi.decode(data[65:97], (address));\n            uint256 U = uint256(bytes32(data[97:129]));\n            uint256 minOut = uint256(bytes32(data[130:162]));\n            uint8 customDataLength = uint8(data[166]);\n\n            if (customDataLength > 0) {\n                address callDataTarget = abi.decode(data[167:199], (address));\n                bytes memory calldata_ = data[199:199 + customDataLength];\n                ICatalystSwapPool(pool).swapFromUnits(\n                    assetIndex,\n                    who,\n                    U,\n                    minOut,\n                    bool(_context & 0x02 > 0),\n                    callDataTarget,\n                    calldata_\n                );\n                return;\n            }\n            ICatalystSwapPool(pool).swapFromUnits(\n                assetIndex,\n                who,\n                U,\n                minOut,\n                bool(_context & 0x02 > 0)\n            );\n        } else {\n            address who = abi.decode(data[65:97], (address));\n            uint256 U = uint256(bytes32(data[97:129]));\n\n            ICatalystSwapPool(pool).inLiquidity(who, U);\n        }\n    }\n}\n",
  "sourcePath": "contracts/CatalystIBCInterface.sol",
  "type": "contract"
}